:020000042000DA
:04035C0000787FBFE7
:1003600000E4EEBE00E0AE3D00D0E73D00C0E23D5F
:100370000090DA3D00A0D13D0080CC3D00E0C83DBA
:100380000070C53D0050C23D0010BE3D00C0BB3DE9
:100390000020B83D0020B63D0060B23D00D0AF3D2A
:1003A0000080AC3D0030AA3D00E0A63D0060A33DCA
:1003B00000D0A13D00D09E3D00909C3D0010993D95
:1003C0000050973D0090953D00B0913D00008F3D5D
:1003D00000E08C3D00408B3D0090893D0060833DF6
:1003E0000030843D0020813D00807E3D00607C3DEA
:1003F0000000783D00E0753D00806F3D0000693DE4
:100400000040683D0000653D0080603D00C05D3DEE
:100410000060583D0080563D0020513D00804E3D1B
:1004200000404B3D0080473D00A0443D00E0403D82
:1004300000E03D3D00E0393D00E0383D0040343D06
:100440000080303D00C02C3D00E0293D0040283DAB
:100450000060263D0020233D00601F3D00401D3D03
:1004600000601C3D00A0183D0020153D0040133DDC
:100470000020103D00800E3D00C00B3D00C00A3D35
:1004800000E0083D0080063D0060013D0080003D29
:100490000040FB3C0000F63C0040F43C0000EF3C18
:1004A0000000E73C00C0E53C0080E13C0080DF3C10
:1004B0000080DA3C00C0D63C002048BD0030B3BD0F
:1004C00000809DBD00B080BD00C03EBD00C003BD2A
:1004D00000C082BC000040BB0000433C0040CD3C5B
:1004E00000401E3D00604F3D00A0783D00808E3DE5
:1004F00000609D3D00D0A93D0010B53D0070BE3D9F
:100500000040CC3D00B0D63D00D0E13D00C0EC3D08
:100510000080FB3D00F8013E00D0063E00100A3E80
:1005200000600D3E00900F3E0090113E00D8103E3E
:1005300000F80D3E00D00C3E00A00C3E00480B3EE3
:100540000010083E0020063E0098063E0028093EA6
:1005500000B00B3E0060113E0068143E00001A3EE1
:1005600000F81F3E0098253E00F0293E00E82B3E93
:1005700000F82B3E00382D3E00902E3E00282E3EE7
:1005800000B02D3E00702D3E00D82D3E00602F3E65
:1005900000502F3E00082F3E00082F3E00F82E3E50
:1005A0000040303E00602E3E00902B3E00B0273EC3
:1005B00000A8243E0090203E00801A3E00A8133E72
:1005C00000A00C3E0020093E0000063E00B0FF3DAA
:1005D0000060F33D00C0EC3D0080EA3D0090E73D47
:1005E0000040E63D00B0E33D0060E33D00A0E63D95
:1005F0000020EC3D0080F13D0060F03D0030EF3D1B
:100600000080F13D0060F33D0040F23D00A0F33D6D
:100610000050F33D0050F43D00C0F33D0060F33D59
:100620000010EF3D00C0ED3D0030EF3D0070EF3DAC
:1006300000D0EC3D0080E63D00E0E23D00F0DD3D15
:100640000060D73D0060CE3D00C0C43D00F0B83D25
:100650000000B03D00D0A53D00F09A3D0080923DE5
:1006600000008B3D0080883D0020853D0060813D7D
:100670000030803D0080883D00108F3D00B0913DEE
:1006800000F0963D00709C3D00F09F3D00A0A13D14
:1006900000B0A23D00C0A43D00809F3D00109D3DE4
:1006A00000409D3D00D09E3D00F09C3D00D09C3D13
:1006B00000809B3D00109E3D0040A13D0040A53DB7
:1006C0000020A13D00809B3D0090983D0080943D1E
:1006D00000008D3D00207D3D0060673D00E04C3D09
:1006E0000080383D00E0273D0040123D0080003D85
:1006F0000040ED3C0080EF3C0080F83C00C0F93C3D
:100700000000F63C0000043D0060053D00800A3D0D
:1007100000E00B3D00A00C3D0020083D00E0043D42
:1007200000C0063D00800B3D00C00D3D00800A3D2D
:1007300000C00D3D0000123D00201B3D0060223D29
:100740000000253D00402C3D0040313D0060363D1D
:1007500000A0353D00602F3D0080283D00C01D3DBC
:1007600000A00F3D0080E93C0040B73C0080943C75
:100770000080773C00804E3C0080123C0000CC3B67
:1007800000009A3B0000893B0000C33B0000F63BA1
:1007900000800E3C00802A3C0000603C0040853C0C
:1007A0000080903C0080973C0040893C0080793C70
:1007B0000080853C00008D3C00808E3C00C08C3C5D
:1007C00000C0A03C00C0B93C0040DF3C00C0F33C8E
:1007D0000040063D0020143D0020173D00E01B3D79
:1007E0000020183D00400B3D0040FC3C0040DC3C3C
:1007F0000040B73C00C08A3C0000273C0000AB3BF7
:100800000000043B0000D4BA00008BBB000096BB84
:1008100000009FBB0000A1BB00009CBB00004ABBC6
:1008200000000ABB000090B90000A43A0000783B29
:100830000000923B00002C3B0000223B00000E3BDE
:100840000000A43A0000343B0000643B0000B03BD1
:100850000080033C0080303C00005E3C00806B3C2C
:100860000000813C00008E3C00808D3C0000733C09
:1008700000805A3C0000233C00800F3C0000A93B54
:100880000000D43A0000E8BA000096BB0000F8BBB4
:10089000000022BC000036BC00802EBC000035BC2D
:1008A00000801FBC00802BBC00801DBC00800FBCE2
:1008B0000000FDBB0000C5BB000064BB00003CBBEA
:1008C000000060BA000090B90000AC3A0000CC3AD9
:1008D0000000083B00005E3B0000D23B0000E73B0D
:1008E0000080003C0000153C00004F3C0080803C34
:1008F00000808F3C0080953C0040923C00C0833CCF
:1009000000807A3C00805D3C00802A3C0000F03B87
:100910000000623B00000000000038BB0000D2BBBA
:1009200000801BBC00804BBC008069BC00004FBC39
:1009300000005EBC00006FBC000054BC00803EBCE8
:10094000008029BC00800BBC0000A5BB000074BB6C
:1009500000003CBB000070BA000040B90000A43A9F
:100960000000463B00003C3B00005E3B0000813B3A
:100970000000C93B0000DB3B0000043C00001A3CC7
:1009800000802D3C0000293C00800D3C0000A73B6E
:1009900000000A3B000070BA000096BB0000FDBBDF
:1009A000008021BC00804CBC000061BC00C083BC46
:1009B000008094BC00C090BC00808FBC000095BC3F
:1009C000004091BC00408CBC000081BC008079BC20
:1009D000000053BC000037BC0000F4BB0000ADBBFE
:1009E000000087BB00003CBB000000000000383B5B
:1009F0000000B03B0000EC3B0000E33B00801F3CEC
:100A000000004F3C00804B3C0000613C00804C3CAF
:100A100000004F3C0000723C0000633C00803F3C03
:100A20000000163C0000DF3B0000EC3B0000893B6F
:100A30000000F03A000016BB0000A7BB0000CEBBD0
:100A40000000DBBB0000E9BB00801EBC000040BC16
:100A5000000051BC008038BC00803ABC00803FBC24
:100A600000804BBC00000BBC0000C7BB000094BB67
:100A7000000022BB0000E8BA00009CBA0000E83A7F
:100A80000000B63B0000B03B0000AB3B0000DA3B8F
:100A90000000093C0080023C0000EE3B00009C3B53
:100AA0000000A33B0000D63B0000E73B0000963B64
:100AB0000000983A000090BA000087BB0000ECBB31
:100AC00000803CBC00007FBC00C090BC008097BC94
:100AD00000C09ABC0000A6BC0080A4BC0040A7BC1B
:100AE0000000A7BC000096BC008090BC00408CBCFD
:100AF00000006FBC000035BC0000FBBB0000BCBBAD
:100B00000000A3BB00001ABB0000183A0000403BE5
:100B10000000A93B0000CE3B00800F3C0080393C28
:100B200000804C3C0080583C0000523C0000333CAC
:100B30000080303C0000283C0000223C0000E13BEB
:100B40000000623B0000C43A00008039000046BB50
:100B50000000B0BB008000BC00800DBC00801BBC4E
:100B600000001ABC000015BC00801BBC000014BCB7
:100B70000000FBBB0000F6BB0000D4BB0000B6BB0E
:100B8000000089BB000004BB0000F0BA0000E0BA1E
:100B9000000028BB000070BA0000603A0000983ADC
:100BA0000000003B0000643B0000C33B0000F23B40
:100BB00000000A3C00801A3C0080113C0000093C07
:100BC0000000083C0000EC3B0000CB3B0000893BF0
:100BD0000000A43A0000F8BA000044BB0000AEBB1D
:100BE000008002BC000016BC008038BC000053BC72
:100BF00000806BBC00006EBC00805CBC000054BC7C
:100C0000008056BC00805ABC000053BC00803DBC34
:100C100000801ABC00802EBC000009BC0000E3BBB1
:100C200000009FBB000040BB0000F8BA0000F0B914
:100C30000000083B0000A13B0000E13B00800B3CB2
:100C40000000FF3B00800F3C0000363C00803C3C35
:100C500000803A3C00802F3C00802B3C0000243C6C
:100C60000000063C0000AB3B0000443B00009C3A07
:100C7000000090BA000070BB0000C9BB008000BC3F
:100C800000800EBC000013BC0000E7BB0000E5BB09
:100C90000000C7BB00008FBB00005EBB0000CCBAE9
:100CA000000000B90000BC3A0000463B0000683B71
:100CB00000007C3B0000943B0000623B0000703B66
:100CC0000000563B0000A53B0000BA3B0000F63B8D
:100CD0000000043C0000043C00000A3C0000093C09
:100CE0000000C73B00005E3B0000CC3A000040B96A
:100CF000000008BB000081BB0000B4BB0000EABBE1
:100D0000000005BC000017BC00803BBC00803FBC5D
:100D1000000043BC00805CBC000052BC000055BC1D
:100D200000805BBC008057BC008047BC008020BCBA
:100D30000000F4BB0000CCBB00007CBB000026BB65
:100D4000000070BA0000403A0000383B00007C3BD5
:100D50000000923B00005E3B00008B3B0000A73B85
:100D60000000983B00005E3B00006C3B00002C3B09
:100D700000002C3B00001E3B0000283B0000903A86
:100D80000000383A00009C3A00009039000012BB85
:100D9000000083BB0000E7BB0000F4BB008002BC86
:100DA000008012BC000022BC000026BC00800DBCEC
:100DB000000009BC0000FBBB0000D2BB00002CBB44
:100DC000000080B900001E3B0000383B0000563B8D
:100DD0000000A53B00009E3B00008B3B00009A3BBF
:100DE00000009C3B0000B03B0000C53B0000E13B25
:100DF0000000DA3B0000DA3B0000DD3B0000E93B8D
:100E00000000BC3B00004A3B00009C3A000088BA4E
:100E100000000EBB000056BB00009FBB0000F2BBF1
:100E200000801FBC00803ABC00804DBC000061BC4B
:100E3000000055BC000062BC000056BC00004FBC66
:100E400000804EBC00802EBC008030BC0000FBBB8C
:100E50000000C9BB000078BB00000EBB0000E8BA70
:100E60000000BCBA000038BA000080B8000090BA98
:100E70000000C4BA000000000000183A0000F03979
:100E8000000040B9000080390000883A0000A43A10
:100E90000000083A000040B9000070BA0000D0B964
:100EA0000000D4BA000088BA000000BB00007CBB80
:100EB0000000B6BB0000D2BB0000C5BB0000BFBB3A
:100EC0000000B2BB0000AEBB00004EBB000060BA29
:100ED0000000D0B90000983A0000163B0000443BE7
:100EE0000000943B0000C13B0000DF3B0000DB3B07
:100EF0000000D23B0000DF3B0000F43B0000D03B91
:100F00000000A73B00009A3B00009C3B0000C73B51
:100F10000000DF3B0000DD3B0000EE3B0000073C33
:100F20000000EC3B0000CB3B0000703B0000F039C0
:100F3000000030BB0000A3BB00801ABC008059BC7D
:100F4000008078BC00408BBC008087BC008081BCE6
:100F500000007FBC00C083BC000074BC00004FBC1C
:100F6000000022BC000006BC0000CCBB000098BB07
:100F700000002CBB0000ACBA000040B90000B03942
:100F80000000D0390000F03A0000873B0000943B9D
:100F90000000A13B0000B63B0000DD3B0080013CAF
:100FA0000000E73B0000BD3B00009A3B00009E3B79
:100FB0000000003B0000D0390000ACBA000056BB76
:100FC0000000C9BB0000E1BB000015BC000038BC3C
:100FD00000801BBC0000CBBB0000A5BB0000CCBB4D
:100FE0000000E1BB0000A9BB00006CBB0000F0B931
:100FF000000080B90000123B0000223B0000803B53
:101000000000AB3B0000F93B0000073C00800D3CBA
:1010100000800E3C00001A3C0000543C0000653C7F
:101020000000893C0000813C0040843C00C0893CB9
:1010300000808F3C0080853C00807B3C00804C3CE5
:1010400000801C3C0000D23B0000643B0000AC3A36
:1010500000004EBB0000EEBB000034BC00804DBC65
:1010600000006EBC000065BC00807BBC008069BCD9
:1010700000005FBC00802FBC00801EBC000019BCBB
:10108000000032BC008039BC000047BC000044BCFA
:1010900000802FBC000032BC00803CBC000025BC9E
:1010A0000000F9BB0000BABB000083BB0000CCBA53
:1010B00000006C3B0000F63B0000223C0000463C78
:1010C0000000513C0080583C0080593C00803E3C70
:1010D0000000173C0000BF3B00000E3B00008039C1
:1010E000000040B90000D4BA000074BB000089BB06
:1010F00000008BBB000056BB000030BB000090BA64
:10110000000080B90000403A0000903A00001A3B0D
:101110000000AC3A000040B90000E0BA00000ABB91
:10112000000080BA0000183A000000390000D0B971
:101130000000703A0000443B0000E93B0080103C96
:1011400000803B3C0000523C00006F3C0080813C32
:101150000000873C0000733C0080693C00004F3C6D
:1011600000800F3C0000E13B0000683B0000283A93
:10117000000000BB000083BB0000B4BB0000D2BB7A
:101180000000D2BB0000D2BB0000D6BB00009EBB5B
:10119000000083BB00008BBB000078BB000087BB56
:1011A0000000A1BB0000D4BB000013BC00802EBC1B
:1011B000000038BC000045BC000054BC00004FBC1F
:1011C00000802EBC008012BC0000CEBB00004EBBD5
:1011D000000000B90000343B00009E3B0000E73BEC
:1011E0000000183C0000193C0000F63B0000BC3B2E
:1011F0000000AD3B00001A3B0000D83A00008038E8
:10120000000080B90000C4BA0000D0B90000283A3C
:101210000000D43A0000743B0000A73B0000B63B3E
:101220000000E33B0000BA3B0000DF3B0000B23BA4
:101230000000923B0000383B0000383A0000ACBA96
:10124000000016BB000070BB000030BB0000D4BA29
:10125000000028BA0000163B00007C3B0000DB3B8E
:101260000000073C00801B3C00801E3C0000283C26
:101270000080033C0000EA3B0000983B00006C3B10
:101280000000F0B9000038BB0000AEBB0000C9BBD5
:101290000000BCBB0000D4BB0000F0BB0000BABB28
:1012A000000070BB000085BB000056BB00001ABBED
:1012B000000070BA0000E8BA0000D4BA000088BA92
:1012C0000000F0BA000052BB00009EBB0000B0BBA3
:1012D0000000E5BB008003BC0000E7BB0000AEBB24
:1012E000000094BB000026BB000000000000623B31
:1012F0000000DB3B0000093C0000163C0000263CDF
:1013000000800D3C0000093C0000D83B0000893BF8
:101310000000183A000022BB00005EBB00009FBB2B
:101320000000AEBB0000A5BB000038BB0000D0B978
:101330000000163B0000623B00009C3B0000C73BE6
:101340000000F83B0000DF3B0000B83B0000853B9D
:1013500000005E3B0000B43A000088BA000022BBE7
:10136000000052BB000087BB000070BB00002CBB1C
:10137000000070BA0000B0B90000163B0000A13BAD
:101380000000E73B00800B3C00800B3C0000193C58
:1013900000800C3C0000FB3B0000AB3B00004E3BE0
:1013A0000000D0B900001ABB00003CBB0000AEBB7F
:1013B0000000BCBB0000CCBB00009EBB00001EBBFD
:1013C000000008BA000040390000B43A00004E3B6B
:1013D0000000893B0000783B00004E3B0000523B80
:1013E0000000F83A00008039000018BA000022BB63
:1013F000000038BB00008FBB000098BB000074BB2E
:1014000000005ABB0000E0BA000090B90000AC3AFE
:1014100000001A3B0000853B0000A93B0000D43BC4
:101420000000B23B0000B23B0000833B0000BC3A2E
:10143000000050BA0000F0BA000098BB0000D8BB12
:101440000000E7BB0000EEBB0000CCBB000087BB88
:1014500000001EBB0000E8BA000080380000123B0C
:1014600000008B3B0000923B0000853B0000743B7A
:101470000000703B0000623B0000603A0000B0B921
:10148000000088BA000022BB00000ABB00000EBBAF
:10149000000028BB0000E0BA000098BA0000403904
:1014A0000000043B0000283B00009E3B0000CC3BBA
:1014B0000000F23B0000053C0000CE3B0000923BE8
:1014C0000000163B00008039000088BA000089BB8C
:1014D000000096BB000070BB000030BB000060BA8B
:1014E000000060BA0000AC3A00008F3B0000D43B23
:1014F0000000C73B0000CC3B0000BF3B0000BA3BF4
:101500000000223B00009C3A0000D0B9000004BB60
:10151000000046BB000044BB00006CBB00001ABBCF
:101520000000F0BA0000D8BA00000EBB000050BAAC
:101530000000283A0000083B0000853B0000A73B64
:101540000000DF3B0000F83B0000DF3B0000BA3B3F
:101550000000853B00001E3B0000803A000090BA6E
:10156000000022BB000052BB00005EBB000056BB67
:10157000000068BB00000EBB0000ACBA0000383AA7
:101580000000223B0000043B0000D43A0000F0B908
:10159000000070BA0000F8BA000022BB00009CBB3B
:1015A0000000A5BB0000BCBB0000A5BB00005EBBEB
:1015B00000000EBB000088BA000090B90000403A5D
:1015C0000000303B0000383B00003C3B0000873B04
:1015D0000000A13B0000B23B0000F93B0000F03BE3
:1015E0000000C13B0000853B0000963B0000A13B92
:1015F0000000AB3B00008F3B0000303B0000923B03
:101600000000963B00008D3B0000983B0000A53B8E
:101610000000BF3B0000DB3B0000C33B00008F3BF2
:101620000000163B0000D03900000EBB00004ABB92
:10163000000040BB000046BB000087BB000081BB30
:1016400000003CBB000038BB000044BB000046BBB0
:10165000000044BB00005EBB000070BB000085BB07
:10166000000083BB000085BB000044BB000098BAAB
:10167000000000000000803800009C3A00002C3B75
:101680000000943B0000B83B0000DB3B0000053C41
:101690000080213C0000353C0000453C00803D3C82
:1016A0000000223C0080103C00801C3C00800C3C70
:1016B0000080013C0000893B0000D43A0000603A01
:1016C0000000B0390000083A000040BA0000CCBA6F
:1016D0000000ACBA000000B90000003B0000083B6D
:1016E0000000083A000088BA00000ABB000040BBB6
:1016F000000092BB00008BBB0000B8BB000083BBA6
:10170000000026BB000098BA0000D0B90000163BCC
:101710000000623B0000B83B0000DD3B0000E13B05
:101720000000EA3B0000FB3B0000133C0000153CBE
:101730000080033C0000DA3B0000C13B0000A73BF7
:101740000000963B0000873B00001E3B00008039F4
:101750000000B0B90000D0390000403A0000D0B914
:10176000000018BA000070BA000000B9000080B88C
:10177000000028BA000018BA000038BB000090BB77
:101780000000B4BB0000DFBB0000F9BB000007BCD9
:101790000000F9BB0000A3BB00007CBB000000BB45
:1017A000000090390000E83A00008D3B00008B3BC0
:1017B0000000803B0000B43B0000E73B0000E73B3B
:1017C0000000D63B0000B63B0000B83B0000B03B39
:1017D0000000BC3B0000BD3B0000CB3B0000C93B10
:1017E0000000AB3B00004E3B0000853B0000783B17
:1017F00000006C3B00005E3B0000803B00002C3B87
:101800000000BC3A000028BA0000F8BA00000EBB85
:10181000000096BB0000C3BB0000E7BB00800DBC0E
:10182000008030BC00801ABC008012BC0000E5BB08
:101830000000A5BB000074BB0000A4BA0000BCBA45
:101840000000083A0000083B00003C3B00004A3B17
:101850000000813B0000563B00000A3B0000D83AE4
:101860000000083A000018BA000080380000A43ACE
:101870000000183A0000403A0000703A00000039B9
:10188000000040BA0000F0390000B0B90000803913
:101890000000F03A0000A43A0000BC3A0000983A78
:1018A0000000E03A00000ABB000062BB000092BBEF
:1018B000000085BB0000BCBB000000BB000052BBA9
:1018C00000009FBB000034BB0000B4BA00009CBA0B
:1018D0000000383A0000343B00009C3A00001E3BF8
:1018E000000088BA0000BC3A00009C3A0000563B59
:1018F0000000B63B0000AE3B00008B3B0000C33B4A
:101900000000003B0000F83A0000403B0000703B44
:101910000000853B0000AE3B0000A73B0000523BAF
:101920000000303B00004E3B0000463B00002C3BDB
:101930000000E03A0000283A000008BB00009FBB0E
:101940000000BFBB0000DBBB0000DABB0000FDBB3A
:10195000000006BC008011BC00802CBC000028BC2C
:10196000000016BC0000EEBB0000FFBB0000DDBBAA
:101970000000B4BB00008DBB00008BBB00008FBB20
:101980000000F0BA000026BB0000983A0000D039F1
:101990000000403A0000903A0000043B00000A3B7F
:1019A0000000813B0000AE3B00008F3B00009F3BEE
:1019B0000000B83B0000B83B0000D83B0000D23B21
:1019C0000000F93B00800B3C0000E73B0000DF3BE0
:1019D0000000AB3B00006C3B0000223B000018BA4B
:1019E000000028BB000044BB000080BB000081BB9E
:1019F000000028BB000026BB000090BB00009EBB7F
:101A0000000083BB000074BB00004ABB000000BBA9
:101A1000000040BA000060BA000090BA00008039AF
:101A20000000003B0000B0390000703A0000783B35
:101A30000000853B0000643B0000903B0000643BDD
:101A400000008D3B0000A13B0000CC3B0000E53BCB
:101A50000000E33B0000F03B0000DA3B0000CE3B1F
:101A60000000BC3B00009F3B00001A3B00009C3A7A
:101A700000009039000026BB000070BB000089BB4D
:101A80000000BCBB0000E7BB0000EEBB00800BBC4D
:101A9000000013BC008000BC0000FFBB0000F8BBCE
:101AA0000000ABBB0000A5BB000092BB00000ABB5E
:101AB000000080BA000090BA0000D0390000403B1E
:101AC0000000B23B0000A73B0000C33B0080033C8A
:101AD0000000BA3B0000B63B0000D03B00800B3C4E
:101AE0000000143C0000243C0000063C0000F83BD1
:101AF0000080103C0000FD3B0000CC3B0000943B0C
:101B000000009E3B0000743B0000803A000008BAD1
:101B1000000034BB00009ABB0000C1BB0000C3BB87
:101B20000000A5BB0000A3BB0000B0BB000087BB4A
:101B3000000056BB000028BB00008DBB000090BB1E
:101B4000000088BA000028BA0000903A0000D43A99
:101B50000000503A0000983A00000E3B0000813B24
:101B60000000CC3B0000C53B0000D43B00000A3C19
:101B70000080103C0000083C0000E53B0000D43B26
:101B80000000B23B0000D03B0000B83B0000813BAE
:101B90000000CC3A000038BA0000CCBA000016BBF6
:101BA000000016BB000092BB0000E5BB0000FFBBBD
:101BB000008002BC008003BC00800BBC000027BC7E
:101BC00000803ABC008029BC000007BC0000F2BBCA
:101BD0000000E3BB0000E3BB0000ADBB00004ABB5C
:101BE000000060BA0000CC3A0000643B0000A33B58
:101BF0000000DD3B0080123C00801E3C00802F3C3A
:101C00000000523C0000463C00803D3C0000223C6D
:101C10000000283C00802C3C0000353C0000163CB5
:101C20000000FB3B0000DA3B0000B03B0000343B0F
:101C30000000003B000090BA00004EBB0000A7BBB4
:101C40000000B6BB0000BFBB0000E1BB0000E7BB6B
:101C5000000005BC008021BC0000F9BB0000C1BB36
:101C60000000C3BB0000CBBB0000ADBB000022BB2B
:101C70000000CCBA0000283A0000D03900009C3A9D
:101C80000000343B0000B23B0080023C0000FF3B00
:101C90000000093C0000273C0000443C00803A3C26
:101CA00000803D3C00803C3C0000403C00802D3CDE
:101CB00000801B3C0080013C0000E53B0000A93B8C
:101CC00000009C3A00000000000016BB000062BB50
:101CD0000000ADBB0000C1BB0000EEBB0000F8BBC4
:101CE0000000F4BB000013BC00800FBC00801EBCD1
:101CF000000031BC000022BC00802DBC00801ABC5A
:101D0000008021BC0000F6BB0000B8BB0000ADBBEA
:101D1000000046BB000028BA0000703A00005A3BA1
:101D20000000C33B0000C73B0000D83B0000F23B73
:101D30000000133C0000143C0000263C0000173C4F
:101D40000000063C0080113C00800C3C00800C3CF4
:101D50000000EC3B0000CC3B00009C3B0000943BAF
:101D60000000833B00002C3B000000B900003CBB9E
:101D700000007CBB000092BB000096BB0000A1BB32
:101D8000000096BB000089BB00008FBB00004ABB6F
:101D90000000D8BA000040BA0000083A0000303B0A
:101DA0000000AB3B0000BF3B0080003C0080103CCB
:101DB0000000183C00801B3C0000403C0000403C00
:101DC0000000383C0080293C0080103C00801B3C17
:101DD00000000B3C0000E33B0000BC3B0000AD3BBF
:101DE0000000783B00000E3B0000603A000038BA6B
:101DF000000060BA000062BB00009ABB0000CEBBCE
:101E0000000014BC000022BC000037BC000022BC53
:101E1000008021BC00801BBC000023BC000025BC4E
:101E200000801FBC000006BC0000C5BB00008FBBCB
:101E3000000026BB000000000000003B0000C43A88
:101E400000006C3B00006C3B0000703B0000A13BBD
:101E50000000B83B0000EC3B0000E73B0000F93B12
:101E60000000EC3B0000E93B0000F03B0000083CB8
:101E70000000183C0000073C0000CC3B0000A73BE2
:101E800000005A3B0000D43A0000A43A000038BADF
:101E90000000E0BA000070BB00008FBB00009ABBDE
:101EA0000000CBBB0000CCBB0000E3BB0000A9BB23
:101EB000000089BB000008BB0000F0BA0000E0BAD7
:101EC000000050BA000000B90000123B00008B3B3C
:101ED0000000B03B0000B83B0000A13B0000A93B64
:101EE0000000E13B0000133C00802D3C00802F3CB3
:101EF0000000263C00800E3C00800C3C0080113C21
:101F00000000EE3B0000C33B0000903B0000853B1F
:101F10000000783B00000E3B0000D0B9000046BB3B
:101F20000000A3BB0000E5BB0000EABB000007BC4B
:101F3000000025BC008038BC000018BC00802ABC12
:101F4000000037BC00802FBC000025BC00801ABCFC
:101F50000000FDBB0000DBBB0000B0BB0000B4BB59
:101F6000000070BB0000BCBA0000403A0000D83A44
:101F70000000E03A0000043B00008F3B0000FD3B06
:101F800000800F3C00801B3C00800C3C0080003C2B
:101F90000000F43B0000F03B0000EC3B0000D83BAD
:101FA0000000C13B0000703B0000443B0000CC3A05
:101FB0000000CC3A0000C4BA00001ABB000012BBFB
:101FC00000001ABB00004ABB00004ABB000056BB21
:101FD00000000ABB0000D0B90000E8BA000038BA1F
:101FE000000090B90000F0390000303B0000283BB1
:101FF0000000563B0000F03A0000CC3A0000B43A32
:102000000000683B0000BA3B0000D03B0000FF3BF3
:102010000000CE3B0000163C00801C3C00801F3CB2
:102020000080103C0000053C0000B03B0000443B39
:102030000000523B00006C3B0000E03A000008BA90
:1020400000008BBB000096BB0000A9BB0000D0BB0A
:10205000008011BC000024BC000035BC000034BC72
:10206000000027BC000023BC00801BBC000009BC92
:10207000008001BC0000E3BB000092BB0000A3BBDA
:102080000000B8BB00009FBB0000ABBB00005ABB08
:1020900000002CBB0000ACBA0000A4BA0000D0398C
:1020A0000000223B00006C3B0000BF3B0000F43B03
:1020B0000000E93B0000D43B0000D23B0000B83BED
:1020C0000000D23B0000C13B0000A33B00009C3B52
:1020D0000000383B0000223B0000903A0000F0393D
:1020E000000028BA00000ABB0000CCBA0000E0BA29
:1020F000000028BA000088BA000038BA000040BAD0
:102100000000403A0000903A0000383A0000D03910
:102110000000003900009039000080B80000000085
:102120000000F0B9000000000000703A0000983A8A
:1021300000006C3B00009C3B0000923B0000E33B36
:102140000000273C00804D3C0000313C0080003CFA
:102150000080033C0000F23B0000FB3B00800E3C93
:102160000080023C0000C13B00005E3B0000183ACA
:10217000000060BA000080B8000088BA000052BBBE
:102180000000BCBB00009EBB0000A5BB000080BBE4
:10219000000078BB000078BB000062BB00006CBB95
:1021A00000008DBB000044BB000070BB0000A3BB5F
:1021B0000000D2BB0000CBBB0000BFBB00009ABB3D
:1021C00000003CBB000000B90000D43A0000BA3B5C
:1021D0000000E73B00800D3C0000143C00800B3CFD
:1021E0000000E73B0000CC3B0000A33B0000893B24
:1021F0000000AB3B0000803B0000813B00008D3BBA
:1022000000005A3B00005E3B0000BC3A00008038F2
:10221000000080BA000098BA0000BCBA0000BCBA46
:102220000000D4BA0000D8BA000060BA000070BA4A
:102230000000D4BA000090BA000090B90000903AB3
:102240000000083A00000039000028BA000008BA6F
:10225000000060BA000090B9000080B90000E83AC0
:102260000000873B0000BD3B0000DA3B0000073C5C
:102270000000F83B0000CC3B0000943B0000C33B57
:102280000000CB3B0000BA3B0000C93B0000CE3B46
:1022900000009E3B0000783B0000623B0000C43A17
:1022A000000040B9000000000000C4BA000034BBC8
:1022B0000000E8BA0000CCBA0000D4BA0000E0BACE
:1022C000000000B9000050BA0000D8BA000052BBAC
:1022D00000004EBB00004ABB000030BB000078BBD2
:1022E0000000A5BB00009EBB000094BB00004EBBDD
:1022F000000008BB0000B4BA000000000000603A13
:1023000000004A3B0000123B0000F83A0000AC3AE3
:102310000000303B00005A3B00008F3B0000813B37
:102320000000893B0000813B0000683B0000343B1B
:102330000000163B0000903A000098BA000046BB2F
:10234000000016BB0000E8BA000040B90000F039F8
:102350000000F83A0000383B0000703B0000403BB2
:102360000000443B00001E3B0000D43A0000D43A79
:10237000000028BA00000000000080B8000040B94A
:10238000000000390000F03900000E3B0000893BDE
:102390000000A93B0000EA3B0000F23B0000DB3BF1
:1023A0000000A33B0000983B0000D63B0000F43B3C
:1023B0000000E93B0000C33B0000C93B0000C33BF9
:1023C00000009A3B00004E3B0000B039000000398D
:1023D0000000A4BA00005EBB000098BB00008DBBEB
:1023E000000030BB000090BA000008BA0000AC3A10
:1023F0000000B0B9000038BA000038BA000028BAAE
:10240000000038BA000044BB00007CBB000089BB60
:1024100000008BBB000078BB000092BB00004ABBF1
:10242000000016BB000040B90000CC3A0000983A0A
:102430000000883A000000000000283A0000D0396F
:102440000000383A0000B43A00000E3B0000523B56
:102450000000803B0000343B00008039000000BBDE
:102460000000ACBA000052BB00003CBB000081BBC6
:10247000000044BB0000F0BA000000B90000D039F1
:102480000000A43A0000F03A0000D03900009C3A65
:102490000000F0390000B43A0000283A0000383A51
:1024A000000080B80000383A0000B039000090B950
:1024B000000060BA0000503A00003C3B00008D3B39
:1024C0000000623B0000443B00001A3B00005E3B02
:1024D00000004A3B0000123B0000E83A0000403B8D
:1024E00000004A3B0000743B0000743B0000123BBC
:1024F0000000383A000008BA00005EBB00009FBB35
:102500000000A7BB000092BB00004ABB0000E0BA7D
:10251000000080B8000090B9000028BA0000D4BACA
:102520000000CCBA000090390000043B0000903A53
:10253000000080BA000080B80000503A0000803AE5
:10254000000000000000D4BA0000C4BA000080B847
:102550000000043B0000783B0000443B0000443B8B
:102560000000AC3A0000883A00000A3B0000123B31
:1025700000004A3B0000283B0000873B0000A73BCF
:1025800000008B3B0000BC3A0000CCBA000040BB0E
:10259000000080BB00008FBB00009EBB0000ADBBF5
:1025A000000098BB00004EBB0000D4BA000016BB70
:1025B0000000F8BA000070BA000080B80000703A5D
:1025C00000009C3A0000003B0000443B00001E3B22
:1025D00000001A3B0000343B000000390000AC3A18
:1025E0000000503A0000003B00002C3B00003C3B48
:1025F0000000A43A00009C3A0000223B0000163B79
:1026000000001E3B0000283B0000B23B0000C73B1F
:102610000000DF3B0000C33B00008B3B00001A3B87
:10262000000050BA00006CBB0000BFBB0000EEBB56
:102630000000EABB0000D8BB0000C9BB0000A9BB7A
:10264000000090BB00009FBB00007CBB000030BBC3
:10265000000012BB00009CBA000098BA0000CCBA7F
:10266000000090B90000383A000000000000F0BA05
:10267000000046BB000030BB000080BA00004039BB
:102680000000CC3A0000703A000008BA0000983A06
:1026900000000A3B00001A3B0000343B0000923B64
:1026A0000000B43B0000CB3B0000CC3B0000B83B3B
:1026B0000000463B000090390000D4BA00008BBBFC
:1026C0000000B2BB0000C3BB0000F6BB0000CCBBE7
:1026D00000009FBB000090BB000052BB000028BB65
:1026E0000000F0B90000AC3A0000F03A0000283ACF
:1026F0000000043B00002C3B00004E3B0000D83A99
:102700000000D0390000BCBA0000A4BA000088BAAA
:10271000000080380000D43A00001A3B0000123B51
:1027200000007C3B00009A3B00009E3B0000A13B68
:102730000000F03B00000A3C0000233C0080103CFD
:102740000000073C0000CC3B0000833B000080B849
:10275000000012BB000087BB0000E1BB0000E9BB2A
:102760000000EABB0000C1BB0000D4BB0000D8BB26
:102770000000BFBB00004EBB0000E0BA000040B943
:102780000000803A0000D43A0000E83A0000403BE4
:102790000000803A000060BA000026BB000044BB85
:1027A000000080BB000034BB000028BA0000F039F4
:1027B0000000BC3A0000303B0000463B00008B3B71
:1027C0000000703B00008D3B0000EC3B00800B3CA8
:1027D0000000F63B0000F83B0000C13B0000643BFA
:1027E0000000C43A000050BA000046BB000089BB9C
:1027F000000092BB0000A1BB0000D6BB0000D4BB10
:102800000000DABB0000C9BB000096BB000046BB5D
:102810000000D4BA00000ABB0000CC3A0000043B20
:102820000000B0390000F03A0000E53B000098BA23
:10283000000034BB0000ADBB00009CBB0000D8BA58
:102840000000F0390000833B0000E03A0000F03A5D
:1028500000000A3B0080113C0000C13B0080383C76
:102860000000383C00802A3C0000223C00800C3CE8
:102870000000FF3B0000A33B0000183A00000000EE
:102880000000D83A000040390000B4BA000004BB90
:10289000000000BB000087BB000016BB0000BCBAF4
:1028A0000000F03A0000F039000040BA0000F039B2
:1028B00000002C3B0000523B0000703B0000F83A47
:1028C0000000083A00008038000080380000B0B9ED
:1028D000000018BA000000000000BC3A0000283BCD
:1028E00000005A3B0000623B0000813B00009F3B20
:1028F0000000FF3B0000F23B0000053C0000F03B05
:102900000000D63B0000563B00009C3A0000403AD5
:1029100000001ABB00008BBB000094BB00008FBB03
:10292000000094BB00007CBB000026BB0000F0BA96
:10293000000038BB0000CCBA0000F8BA000008BAAA
:10294000000060BA000080BA000034BB00009CBAEE
:102950000000B0B90000083A0000283A00004039F1
:102960000000F03900000A3B0000003B0000F03A94
:102970000000643B0000813B0000A13B0000BF3B26
:102980000000B23B0000A13B0000E73B00001A3C06
:102990000000163C0000CE3B0000BD3B0000803B29
:1029A0000000883A0000D0B90000B4BA00001ABB99
:1029B000000070BA000018BA000018BA000090BAFF
:1029C00000009CBA00004039000040390000D0B936
:1029D000000008BA000000000000A4BA000038BAE5
:1029E000000040BA00003CBB00006CBB00002CBBE8
:1029F0000000F8BA0000D8BA000000000000B039AA
:102A000000004E3B00008F3B0000B83B0000B03B95
:102A100000009A3B0000903B0000963B00008D3B7D
:102A20000000803B00008F3B0000B83B0000A93B4A
:102A30000000703A000028BA00009CBA000056BBA3
:102A40000000A9BB0000A7BB000078BB00000ABBC8
:102A5000000026BB00004ABB000052BB00007CBB4C
:102A600000004EBB000008BA00009CBA000080B90C
:102A700000009CBA00001EBB000030BB000064BB1D
:102A8000000089BB000081BB000016BB000090392C
:102A90000000123B0000943B0000C33B0000DB3B06
:102AA0000000F23B0000063C0000243C0000183C03
:102AB0000080013C0000EC3B0000043C0000DD3BDA
:102AC0000000903B0000F83A0000AC3A00000039EA
:102AD0000000403900008039000090B9000008BAB9
:102AE000000008BA000080B9000008BA0000B0B9C0
:102AF000000000000000183A0000D83A00000E3B29
:102B00000000083A000060BA000081BB000089BBE9
:102B10000000A5BB0000A9BB000090BB000068BB83
:102B200000003CBB0000B0B90000123B0000903B2D
:102B30000000983B0000E73B00000A3C0000153C09
:102B40000000063C0000FF3B0000093C0000C33BC6
:102B50000000943B0000463B0000BC3A000080BAF5
:102B6000000034BB000062BB000062BB000046BB3B
:102B70000000D8BA000000BB000034BB0000F8BA67
:102B80000000F8BA0000F0BA0000E8BA000050BA3D
:102B9000000090B90000E8BA00009EBB0000BDBB79
:102BA0000000C5BB0000E5BB0000FBBB00800BBC08
:102BB00000000BBC0000ECBB0000CCBB000098BBCD
:102BC000000040BB0000BCBA0000403A0000783B67
:102BD0000000A53B0000DA3B0000F03B0000D83BC2
:102BE0000000D43B0000B23B0000923B00000A3BD7
:102BF00000000000000080380000A4BA0000D8BA2D
:102C00000000A4BA0000ACBA000000000000D83AEE
:102C10000000F03A00001A3B0000003B0000083BB7
:102C20000000683B0000463B0000303B0000163BC4
:102C30000000883A000080BA0000B0B90000F0B986
:102C4000000090B9000008BA0000B43A0000F03A61
:102C50000000043B0000E83A00001E3B0000873BF8
:102C600000009F3B0000A73B00009F3B0000853B0E
:102C70000000813B00009E3B0000683B0000083BD9
:102C80000000183A000088BA00004ABB00007CBB74
:102C900000004ABB000038BB00000ABB0000ACBA11
:102CA000000070BA0000803A0000083A000000B945
:102CB000000000B9000038BA00000000000040BA6F
:102CC00000009CBA000008BB000026BB000026BB29
:102CD000000074BB000022BB0000A4BA000038BA98
:102CE0000000F0390000B43A00000E3B0000523BF7
:102CF0000000643B0000813B0000783B0000003B8B
:102D00000000503A0000503A0000083A0000B0B904
:102D1000000070BA000016BB000034BB000056BBB8
:102D200000005ABB000040BB000004BB000000B91B
:102D30000000F03A0000C43A0000683B0000943BF9
:102D40000000853B0000943B0000983B0000873B5F
:102D50000000813B0000813B00004A3B0000263B15
:102D60000000443B00003C3B0000903B0000AD3BBA
:102D70000000B43B0000D83B0000063C0000F23BE2
:102D80000000E53B0000E13B0000F83B0000EA3BAF
:102D90000000A53B0000853B0000983A0000403948
:102DA000000098BA000068BB0000C5BB00800BBCE7
:102DB000000015BC00001ABC000028BC00801FBC2D
:102DC000000004BC0000C1BB0000A7BB000056BB54
:102DD000000046BB000016BB000028BA000060BA25
:102DE0000000F0B9000038BA000028BA0000E0BACC
:102DF0000000ACBA0000A4BA000000000000703A65
:102E00000000043B0000343B00005A3B0000A93B9B
:102E10000000C73B0080013C0000073C00000B3C69
:102E200000801A3C0080013C0000D23B0000A53B22
:102E30000000643B0000283A0000F0BA000026BB06
:102E4000000087BB0000C3BB0000CCBB0000E1BB9F
:102E50000000C5BB0000A9BB00009FBB00006CBB0D
:102E60000000BCBA0000ACBA0000000000008039CD
:102E700000009C3A0000083A0000AC3A00009C3A7E
:102E80000000983A0000603A000090390000AC3A27
:102E9000000000390000B0390000343B0000893BDD
:102EA0000000C93B0000FB3B00800E3C00802F3C33
:102EB0000080383C0080383C0000423C00803C3CB4
:102EC0000080213C0000F93B00008B3B00000E3BE2
:102ED0000000003900001EBB00008DBB0000BFBB1E
:102EE0000000E9BB000009BC0000ECBB0000F6BB21
:102EF0000000D8BB0000A5BB000004BB0000C4BAA2
:102F0000000088BA000060BA000080B90000D03923
:102F10000000283A0000083A000080B90000B039EB
:102F200000000000000000390000D0B90000403966
:102F300000009C3A0000403B0000563B0000943BE0
:102F40000000F23B0080013C0000143C0080113C7A
:102F50000000163C0000253C00800F3C0000CC3BEC
:102F60000000B23B00004A3B0000F0390000E0BA2C
:102F7000000062BB0000A5BB0000B8BB0000BCBBEA
:102F80000000ABBB000078BB000044BB00001ABBD4
:102F9000000008BA000090390000F039000000007D
:102FA0000000083A00009C3A00009C3A0000D43A25
:102FB0000000E83A0000F0390000383A0000983A82
:102FC0000000B43A0000A43A0000883A0000903AA9
:102FD0000000D43A00005A3B0000943B0000BC3B88
:102FE0000000DD3B0000F83B00800D3C00800B3C06
:102FF0000000DB3B00009C3B0000643B0000983A73
:10300000000000B9000004BB000090BB0000B4BB8E
:103010000000CEBB0000C5BB0000B4BB00009CBBE1
:10302000000081BB00006CBB00004EBB00001ABB5F
:10303000000004BB00001ABB0000E8BA0000ACBAF4
:10304000000070BA0000BCBA0000F8BA0000D4BAA0
:10305000000028BA000080B9000090390000983ABA
:103060000000083A00009C3A0000703A0000283B3B
:103070000000683B0000743B0000923B0000B03B46
:103080000000B23B0000BD3B00009C3B00005A3BEF
:103090000000003B0000083A0000B0B9000088BA08
:1030A000000068BB00008FBB0000BCBB0000D6BBAB
:1030B0000000D8BB000096BB000090BB000038BBEE
:1030C000000028BA000080390000983A0000D83A81
:1030D0000000E83A0000A43A0000D43A0000903919
:1030E000000080BA000080BA000028BA0000283A28
:1030F000000028BA0000C4BA0000B0B90000D039FE
:103100000000703A00000A3B0000263B0000743BC0
:103110000000A33B0000A73B0000D43B0000D43BD1
:103120000000B23B0000943B0000983B00005A3B7B
:103130000000E83A0000083A000080B80000B4BA85
:10314000000064BB000090BB000085BB000040BBDA
:10315000000000BB0000383A000000390000F83AD7
:103160000000F03A00001A3B0000F83A0000F03985
:10317000000090B9000000B90000B039000080B92B
:103180000000B4BA000030BB000028BB00001ABB2E
:10319000000030BB0000D8BA0000CCBA0000ACBAC6
:1031A000000018BA0000803900001A3B0000813B83
:1031B0000000703B00009A3B00009A3B0000963BE9
:1031C0000000AD3B0000873B0000263B0000003BB9
:1031D0000000603A000028BA000080B9000080B802
:1031E0000000D0390000803A0000263B0000383B48
:1031F0000000303B0000643B0000743B0000783B63
:103200000000523B0000403B0000343B00001A3BF2
:1032100000005A3B00006C3B00000E3B000000B970
:103220000000F0BA000030BB000089BB000081BB89
:10323000000070BB00000EBB000028BA0000603A1E
:103240000000003B00000E3B0000303B00004A3B0A
:103250000000343B00001E3B0000003B0000F83A39
:1032600000009C3A0000903A000080390000B0391C
:103270000000803A0000C43A00000A3B0000523BC4
:1032800000007C3B0000563B0000683B0000563BC2
:1032900000005A3B0000CC3A0000E03A00008039C0
:1032A0000000F0390000B0B9000008BA000028BAE8
:1032B000000060BA0000E0BA000089BB000098BBC3
:1032C0000000BFBB0000AEBB0000BABB00009EBB4D
:1032D00000001EBB0000A4BA000008BA000040397C
:1032E0000000883A0000CC3A00000A3B0000283B6E
:1032F0000000603A0000B0B9000080B9000080B959
:1033000000000039000040B90000603A0000163BA0
:1033100000009A3B0000BD3B0000B43B0000B43B02
:103320000000C53B0000C53B0000BD3B0000783BF2
:103330000000783B00004E3B0000D83A0000AC3A59
:103340000000903A0000263B0000D43A000070BA1A
:10335000000026BB000083BB000092BB00009EBBA8
:103360000000B2BB0000C9BB0000B4BB00008BBBB7
:10337000000046BB000000BB0000E8BA000008BA2D
:10338000000090B9000000000000F0B9000028BA69
:10339000000040B9000090B9000070BA0000B0B958
:1033A000000090390000283A0000F03A0000623B2B
:1033B00000005E3B0000743B00009E3B0000B03B01
:1033C0000000A33B00009C3B0000BF3B0000A33B70
:1033D0000000743B0000AB3B0000903B00007C3BD6
:1033E0000000383B0000F039000028BB00009FBB04
:1033F0000000B6BB0000BABB0000CCBB0000DABBCB
:103400000000C9BB0000A5BB000098BB00007CBB4E
:1034100000002CBB00000ABB0000D4BA0000D8BAE0
:10342000000050BA0000D0B90000C43A0000603A71
:10343000000028BA0000F0B9000090390000D0392F
:103440000000283A0000403A0000703A00001A3BA1
:103450000000463B0000853B0000B43B0000F23B0F
:103460000000FF3B00800C3C0080123C0080103CC0
:103470000000063C0000CB3B00009E3B00001A3BD6
:103480000000C43A0000D0B9000038BB000085BB82
:103490000000ADBB0000B6BB0000CBBB0000B2BB60
:1034A0000000C5BB0000BDBB000087BB00001EBB09
:1034B00000001EBB0000F8BA000070BA000090398E
:1034C000000080B8000050BA0000D4BA000040BA32
:1034D0000000CCBA00000ABB000028BB000004BBFF
:1034E00000009CBA0000983A0000CC3A0000813BF2
:1034F0000000B83B0000F03B0080113C0080293CFC
:103500000080393C00804C3C00803B3C0080303CDB
:103510000000193C0000CB3B00004E3B0000D43AB9
:10352000000098BA000078BB00009CBB0000BDBB47
:103530000000A5BB0000B4BB0000BFBB000062BB25
:1035400000000ABB000098BA000038BA000028BA90
:103550000000983A000040390000F0B9000028BA95
:10356000000030BB000044BB00004EBB000081BB2C
:10357000000085BB0000A1BB000089BB00002CBB84
:10358000000090BA0000503A0000383B00009E3B1B
:103590000000EC3B00800E3C00803A3C00804C3C3C
:1035A00000803A3C0000373C00801A3C0080023C1E
:1035B0000000BA3B00007C3B0000B43A000060BA57
:1035C00000009CBA000080BA00001ABB0000E8BAF4
:1035D0000000E0BA00009CBA000050BA000088BAAF
:1035E000000060BA000090390000903A0000283ACC
:1035F0000000383A000040B9000040BA00003CBB6F
:1036000000007CBB000096BB0000A9BB0000B2BB61
:10361000000089BB000030BB000008BB0000D0B92F
:1036200000001E3B0000B83B0000053C0000253CAC
:1036300000803E3C00804B3C0000513C0000313C8F
:103640000000243C0000F03B0000C93B00009C3B14
:103650000000083B0000603A000000000000ACBA27
:103660000000BCBA000012BB00004EBB000000BB53
:10367000000050BA0000183A0000803A0000F83A02
:103680000000043B00000E3B0000003B0000383A05
:10369000000080B8000040BA000012BB000078BBF8
:1036A000000068BB000044BB000046BB000064BBD8
:1036B000000090B90000383A00004E3B00008D3BFE
:1036C0000000B03B0000F63B0080113C0000193CBC
:1036D0000000233C00801B3C0000043C0000EC3B4D
:1036E0000000A13B00003C3B0000503A0000D0B974
:1036F0000000A4BA000030BB00003CBB000089BB46
:1037000000008FBB000080BB00009CBB000092BB90
:10371000000068BB0000F0BA000008BA0000183AC8
:103720000000C43A0000083A0000F0B900008038F8
:10373000000088BA0000E8BA0000F0BA000044BBFC
:103740000000F0BA0000D0B9000040B90000F03924
:103750000000E83A00007C3B0000E13B00800D3CAB
:103760000080023C0000F63B00800B3C0000F63B72
:103770000000D23B0000AD3B00009A3B0000383B0C
:103780000000BC3A00000000000040B9000040BA50
:10379000000088BA0000F8BA000038BB000068BB1F
:1037A000000046BB000080BB000085BB000070BB72
:1037B000000046BB000044BB000000BB000070BA24
:1037C000000000390000803A0000F0390000383A6B
:1037D0000000403A0000903A0000883A0000503A59
:1037E000000040390000BC3A0000223B0000463B8C
:1037F0000000523B0000903B0000AB3B0000B43B9C
:103800000000CC3B0000BF3B00007C3B00000E3BB7
:103810000000383A0000F0B9000038BA00001EBBC2
:1038200000004EBB000000BB00004ABB000081BB93
:10383000000098BB0000A9BB0000BDBB0000CEBBD0
:103840000000BABB0000B6BB0000C5BB0000A1BBB6
:10385000000098BB00003CBB000080B900009C3A0F
:103860000000463B0000623B00008F3B0000A53B90
:1038700000009A3B0000803B00009A3B00009F3B09
:103880000000A93B0000683B0000A33B0000643B34
:103890000000853B0000BC3B0000B23B0000C53B84
:1038A0000000B23B0000743B00004A3B0000603A5D
:1038B0000000D039000088BA0000F8BA000044BB0C
:1038C000000089BB0000B2BB0000C9BB0000FDBB0B
:1038D00000000ABC008020BC00802BBC000031BC72
:1038E000000025BC000022BC00000BBC0000D0BBC7
:1038F000000068BB000080BA0000083A00001E3BD0
:103900000000963B0000CB3B0000E53B0000DA3BAB
:103910000000E53B0000E93B0000F63B0000DA3B1D
:103920000000D83B0000D43B0000C93B0000AE3B88
:1039300000009E3B0000963B0000A53B00009C3B26
:103940000000963B0000683B0000163B00008038FA
:10395000000004BB00005EBB0000AEBB0000D0BB9B
:10396000000004BC000014BC008039BC000043BC53
:1039700000805BBC00806CBC008056BC000046BC74
:1039800000803FBC00800FBC000098BB000046BB1D
:103990000000B03900001A3B00009F3B0000F63BDE
:1039A0000000183C00802F3C00803C3C0000413C63
:1039B0000000403C0080393C0080303C0000313C3D
:1039C0000000233C0080203C0080103C0080113C23
:1039D00000800C3C0080203C0000143C0000F23BC6
:1039E0000000D83B0000A73B00004E3B0000C43A5B
:1039F0000000BCBA000068BB0000D6BB008011BC50
:103A0000000037BC008057BC008067BC008086BCCB
:103A100000C091BC00008FBC00C084BC00006FBC23
:103A200000805CBC00804CBC00802EBC0000E5BB6C
:103A3000000074BB000080BA0000903A0000783BA0
:103A40000000E33B0000153C0080293C0080303C36
:103A500000803E3C00804C3C0080563C0080783C1E
:103A600000C0833C0000953C00009D3C0080A53CCC
:103A700000C0B63C0080BB3C0080C33C0080C23C20
:103A800000C0C63C0080BC3C00C0A03C0080653C3F
:103A90000000B83B000026BB00803ABC00C092BCCE
:103AA0000080CBBC0040EEBC002002BD00A004BDE5
:103AB000002008BD00000ABD00E001BD0080FFBC81
:103AC0000000EABC0080D1BC0000A4BC000072BCB5
:103AD000000017BC000089BB0000D0B90000783B93
:103AE0000000E53B0000163C00801D3C0000383C17
:103AF0000000503C00006D3C0080873C00C0993CB9
:103B00000000AE3C00C0CD3C0080E83C00A0003D81
:103B100000400F3D00C0203D00202E3D0020353DDF
:103B20000000223D0080023D0000AB3C00800C3CC8
:103B3000000081BB00005EBC0000A5BC0040C6BC0C
:103B40000040D0BC0040C8BC0080CCBC00C0C6BC9B
:103B50000000B5BC0040B0BC0040A9BC008086BCE1
:103B6000000063BC00001ABC000087BB0000503A94
:103B70000000C73B0000323C0080573C0000703C16
:103B80000000743C0080773C00805B3C0000343CCB
:103B90000000193C0000C33B00000E3B0000C4BA0B
:103BA0000000C9BB000028BC000073BC00009EBC24
:103BB00000C0A7BC0000B4BC0000BCBC0000BABC84
:103BC0000000ABBC00808FBC00804DBC0000F9BB86
:103BD0000000D8BA0000703B0080113C0080383CE7
:103BE0000000703C00C08B3C00408A3C0000883CD8
:103BF0000080803C00806B3C0000603C0000503C3A
:103C000000802B3C0080113C0000F23B0000C53BD3
:103C10000000643B0000703A0000D0B9000060BAB8
:103C2000000038BA000040BA000080390000603A55
:103C300000009C3A0000883A0000403A000040BA78
:103C400000009CBA000000BB0000CCBA0000F8BA2B
:103C500000008BBB0000A7BB0000D4BB0000EABB88
:103C60000000F4BB0000C3BB0000BDBB0000B8BB3C
:103C7000000087BB00009ABB00003CBB0000ACBA50
:103C8000000040BA0000083A0000883A00002C3BCF
:103C90000000A73B0000D83B00800D3C0000423CE8
:103CA00000007D3C0000A63C0040D53C0080033D68
:103CB0000020203D0080333D00E0403D00E0413DDC
:103CC00000202F3D00800E3D0040C03C0000613CC4
:103CD0000000E03A000016BC00408BBC0040B7BCBE
:103CE0000040DCBC0000F0BC004004BD000012BD80
:103CF000008015BD00C011BD00C00DBD0040FCBC62
:103D00000040CDBC0040A1BC00006EBC000019BC4E
:103D1000000090BB0000E8BA0000000000008038FE
:103D200000004039000040B9000052BB0000AEBBAB
:103D30000000E5BB000009BC008000BC0000E5BB42
:103D40000000D0BB0000ADBB000068BB0000D8BACB
:103D5000000008BA0000983A0000873B0000E33BEF
:103D600000802D3C00007D3C0080A53C0040C73C0D
:103D70000000F13C00000E3D00001E3D0000373DFC
:103D80000040513D00A05F3D0080563D00C0463DD3
:103D90000060273D0080E93C0080883C0000983BA3
:103DA000000096BB00805CBC00C098BC00C0B9BCE1
:103DB0000040DFBC0080F8BC00C007BD00C00BBDE8
:103DC00000400EBD006009BD0040FDBC0080D1BCBC
:103DD00000C0A0BC000053BC0000CBBB0000BC3A3C
:103DE0000000043C00804B3C0040853C0040893C86
:103DF00000807B3C0000643C00802B3C0000F43BD6
:103E000000003C3B000098BA0000B4BB000027BC97
:103E1000000060BC008088BC008097BC00C0A7BCCC
:103E200000C0B0BC0040B1BC0040AABC00008FBCC8
:103E300000804ABC0000D8BB000070BA0000B63B4E
:103E40000000383C0080883C0040BE3C0080F63CCE
:103E50000000123D00A02D3D00E0473D00E0663D22
:103E600000407C3D0040773D00C0673D0080433D01
:103E700000000F3D00C0A93C00800D3C0000B0BB1D
:103E8000000071BC00809CBC0080B5BC0000CABCB6
:103E90000040CEBC0040E3BC0040EBBC00C0FABC1C
:103EA0000000F7BC0080FDBC0040E4BC0080CCBC3E
:103EB00000C09FBC00806CBC0000E7BB000004BBDE
:103EC00000003C3B0000B63B0000E53B0000DA3B55
:103ED00000008D3B0000303B0000403900001ABB61
:103EE0000000B2BB00800CBC000025BC000031BC4F
:103EF00000804EBC000060BC00007FBC00C082BCE3
:103F000000807BBC00005EBC000027BC0000AEBB94
:103F10000000F0B90000A73B0000173C0080763C91
:103F20000040A93C00C0DB3C00E0013D0020143D06
:103F30000020273D00403C3D00C04E3D0040603D1C
:103F40000000653D0080553D00E0403D0040153DCE
:103F50000000BB3C0000EA3B0000ABBB00C093BCD0
:103F60000080D1BC008000BD00000ABD00C011BDB2
:103F700000A013BD00A018BD004019BD000019BD70
:103F8000002014BD00C00DBD0040F4BC0000CABC40
:103F900000C091BC00802CBC00001EBB00009C3AFD
:103FA0000000A93B0000BD3B0000E13B0000E93BF5
:103FB0000000AB3B0000F83A000038BA000052BBEA
:103FC0000000D2BB008002BC0000FDBB008011BC21
:103FD00000801ABC000035BC008048BC00005FBCFB
:103FE000008049BC000031BC000013BC00009EBB37
:103FF000000050BA0000A13B00802D3C00008E3C28
:104000000000CA3C0080FF3C0060183D00402D3D90
:104010000000463D00605B3D00206E3D0000703DAD
:1040200000C05D3D00804A3D0020173D0000C43CBB
:104030000000193C00005EBB00C082BC0000CABC8E
:10404000008002BD00E017BD002020BD008024BD1F
:1040500000E02DBD00602FBD002027BD00E01EBD8B
:1040600000600DBD0040DCBC0040A3BC00801ABC59
:10407000000080B80000E53B0000433C0000713CBC
:1040800000806C3C00804A3C0000323C0000DD3B7C
:104090000000523B0000A4BA000092BB0000C3BB6A
:1040A0000000DBBB0000E9BB008003BC000034BCA7
:1040B00000805ABC004084BC004092BC00C093BC4D
:1040C00000007CBC00006EBC00802DBC0000CCBB9E
:1040D0000000BCBA00002C3B0000E53B0000403C67
:1040E0000080873C0040AF3C0040C63C0000E23C02
:1040F0000080FF3C00C00E3D0020243D00E0363D26
:1041000000C03E3D0080303D00C0293D00A0003D84
:1041100000C0B63C0000423C0000BC3A008011BC2C
:10412000000080BC00C0AEBC0080D3BC0000E9BC75
:1041300000C0FCBC00E00CBD000012BD00A013BD1F
:10414000000008BD00C0F4BC0000ACBC000063BCB3
:10415000000068BB0000A93B0000463C0080803C9A
:1041600000C09A3C00409B3C0000893C00805B3CC6
:1041700000802E3C0000983B0000983A000028BBCD
:104180000000B6BB0000D6BB0000E7BB00801ABC35
:1041900000803CBC00006FBC00408CBC00C093BCE5
:1041A000004094BC000080BC000050BC000015BC66
:1041B0000000A1BB000008BA00005E3B0000EC3B21
:1041C00000804B3C00C0843C0040A73C0040C13C08
:1041D0000040DF3C0080F83C0080073D0040163D79
:1041E00000002C3D0080433D00C0433D00403B3D6E
:1041F00000C0253D0080FD3C0040A33C0000153C74
:104200000000903900800CBC00805DBC0000A6BCA2
:1042100000C0C8BC00C0DEBC0000F6BC000003BD8E
:10422000004006BD00C0FABC0040EBBC0080C4BC2E
:1042300000C089BC00000BBC0000883A0000F23BC3
:104240000000373C00803E3C0000243C0000F93B6D
:104250000000873B0000223B0000D4BA0000AEBB48
:1042600000801CBC000026BC000036BC000052BC14
:1042700000806CBC00408ABC00C099BC0040AFBC50
:1042800000C0B0BC0080B2BC00C0AFBC004089BC64
:10429000008058BC008021BC0000B0BB000008BA00
:1042A0000000783B00000A3C0080573C0040913CF5
:1042B0000000BD3C0080E03C0000F73C0020083DD1
:1042C0000080193D00202A3D00A0393D0020503DCE
:1042D00000205B3D00C04D3D0040403D00601C3D66
:1042E0000080DA3C0000733C0000463B000007BC45
:1042F000000090BC00C0C0BC00C0FABC00000EBDF5
:1043000000E01ABD00A02EBD008038BD00603ABD9F
:10431000004030BD00201FBD0040F3BC0040A0BCE9
:10432000000014BC000070BA0000643B0000983B21
:104330000000A73B0000B63B0000A53B0000F83A98
:10434000000098BA0000A7BB0000B4BB0000E1BBAE
:104350000000ADBB00008DBB00001ABB000056BBC7
:10436000000083BB0000C1BB0000EEBB008012BC9C
:10437000000038BC000038BC000033BC00801ABC10
:104380000000F4BB0000A3BB000050BA0000163BC5
:104390000000C73B0000273C0000553C0040843C27
:1043A00000809E3C0040B73C0080D33C0040F53C80
:1043B00000800B3D0000263D00E0413D00A05B3D3C
:1043C0000000593D00604D3D00402C3D0060013D26
:1043D00000009E3C00000B3C00002CBB00803BBC5E
:1043E000004094BC00C0D4BC0080F9BC00C00DBD2E
:1043F00000801ABD00A01BBD002015BD00A001BD9E
:104400000080C1BC000062BC0000A3BB00000E3BEA
:104410000000B23B0000BC3B00008B3B0000D039E9
:10442000000068BB0000D8BB00803ABC00006FBC35
:10443000004083BC00C084BC008066BC000025BC7A
:104440000000F8BB0000B6BB0000A3BB0000B0BB7F
:104450000000F2BB000014BC000008BC008003BCDC
:104460000000F2BB0000BDBB00000EBB0000903A94
:104470000000A93B0000FD3B0000383C00006E3C02
:1044800000C08C3C00809E3C0000AB3C0040BE3C29
:104490000080D23C0040E63C0040FA3C00800A3DEF
:1044A00000401A3D0040293D00C03E3D0000523D05
:1044B00000E0483D00C02F3D00A00F3D0040AF3C54
:1044C0000000B83B000009BC0000ACBC000003BD0C
:1044D00000201CBD002039BD00004BBD00804DBD3B
:1044E000008047BD00E03DBD00C020BD0000F9BC1C
:1044F0000040AABC00800CBC00005A3B0000273CD6
:1045000000007D3C00C08B3C00008E3C00C08B3C1A
:104510000080793C0000143C0000643B000098BA25
:104520000000C9BB0000F0BB0000A9BB0000B4BA8A
:10453000000040390000403A000028BB0000EABB00
:1045400000803CBC00C084BC00809DBC0000B6BCA8
:104550000080C2BC0000BDBC0000B6BC0000A5BC11
:1045600000408ABC000046BC0000F4BB00001ABB3F
:1045700000002C3B0000FF3B00004F3C0080873CCC
:104580000000B63C0040E33C00400B3D0040223DB3
:1045900000E0353D0080473D0040593D0080703DC2
:1045A00000A0813D0020723D0060533D00E0293DA8
:1045B0000080C13C0080013C000007BC0080B2BC10
:1045C00000A008BD00A018BD00A02DBD008038BD12
:1045D00000A032BD000029BD000019BD00C0F9BC1B
:1045E00000C0AEBC000047BC0000F8BA0000C33BEE
:1045F00000802C3C0080483C0080213C0000BC3BFB
:104600000000283A000089BB00802CBC00C08CBC94
:1046100000C0B8BC0040B6BC00C0AFBC008094BCB9
:10462000008048BC008001BC00800EBC000032BC91
:10463000000062BC004092BC00C0A8BC0000ABBC43
:104640000040A2BC004092BC000065BC000019BC48
:10465000000081BB0000443B0000223C00C0823CC3
:104660000040B23C0040D53C00C0EA3C0040003D68
:1046700000C00E3D00601B3D00A0223D00A0313D6A
:104680000060363D00803E3D00C03E3D00A0503DF4
:104690000000693D00207E3D0080603D0000383D07
:1046A0000000D83C0000283B004099BC008015BDAC
:1046B00000A04FBD004074BD008073BD006076BD9A
:1046C00000205BBD006035BD000013BD0040BEBCD6
:1046D000000016BC0000223B00804A3C0080B33C36
:1046E0000000E03C0080003D00A0043D00C0EA3C2A
:1046F0000040A03C0080003C000083BB000095BC53
:1047000000C0E6BC008011BD00E018BD00C006BDC1
:1047100000C0BEBC008059BC00009EBB000038BA7F
:1047200000004ABB0000F6BB00805DBC0000ACBCD2
:104730000080E9BC00C007BD00000EBD000003BD45
:104740000000EABC00C0B7BC000047BC000085BB4D
:1047500000005A3B00803F3C00C0983C00C0DB3C5E
:1047600000C0073D00C01D3D00A02E3D00803E3D25
:104770000020423D0020443D00A04C3D0000563D3D
:1047800000C0653D0000813D0000923D00006D3D90
:1047900000A0363D00C0AA3C000009BC0080FFBC60
:1047A000006040BD00805CBD00A05EBD004033BD28
:1047B000004015BD0040C7BC000055BC0000B4BBA4
:1047C00000001E3B0000EE3B0000513C00805D3CC1
:1047D0000080783C0000523C00802D3C00008F3B64
:1047E0000000B6BB008076BC00C0D7BC00C00ABDCC
:1047F00000A022BD00801EBD00401ABD00C0FCBC50
:104800000080ACBC004083BC000025BC0000D4BBD1
:10481000000074BB0000E9BB00801BBC000060BC52
:1048200000409BBC00C0B0BC0000BCBC0000B6BCDB
:10483000000080BC00009ABB00009F3B00408B3C06
:1048400000C0E63C0020113D00202A3D00C02F3D65
:104850000040313D0040293D00A01E3D0020113D9B
:104860000040063D00E0003D0080F73C00C0073DF1
:1048700000801A3D00003F3D0000733D0020943D44
:1048800000E0633D00400E3D0000643B006013BD4E
:10489000009080BD003099BD004096BD00A085BD50
:1048A00000A02ABD0040CDBC000028BC0000B63BE3
:1048B0000000553C00C0933C00C0A93C00C0CF3C68
:1048C0000000AB3C0000B43C0040853C00802D3C27
:1048D0000000803B000074BB00006DBC0040BFBC0A
:1048E00000C0DDBC0040DCBC004094BC00800CBCBF
:1048F0000000083A0000233C0000F43B0000223B8B
:104900000000C1BB008079BC004000BD00E02ABDB2
:1049100000804ABD00A05EBD000056BD00C034BD91
:10492000004004BD00C0A7BC0000B2BB0000463B75
:1049300000803A3C0080863C0080943C00409B3CD8
:104940000000973C0040A23C0080AC3C0000E83CEA
:1049500000C00B3D00E01E3D0020423D00405D3D9B
:104960000000783D00A08C3D0050AB3D0090CD3D57
:1049700000E0C03D00A06E3D0040913C00A023BD82
:104980000060A3BD0000CCBD0090B4BD007086BD2A
:1049900000C0D5BC0000D23B00C0B93C00C0F33C15
:1049A0000080E03C0040843C0000C13B0000383BFC
:1049B0000000A7BB008011BC000062BC0040B7BC77
:1049C0000000F0BC004004BD00C012BD00A000BD4E
:1049D000004082BC00001A3B00C08B3C0040E33C1E
:1049E00000C0BE3C0080213C000006BC002002BD8F
:1049F00000E05FBD003080BD008083BD000065BD6C
:104A000000602EBD00C0E4BC000062BC000034BBEE
:104A10000000F03B0080213C0000413C0000093CCC
:104A2000000080390000A7BB0000E5BB00004EBBC2
:104A30000000563B00006F3C0040BE3C00A0143D0F
:104A400000C03A3D00405D3D0000803D00608A3D71
:104A50000060963D00609B3D0060A73D0040BD3D6D
:104A600000A0A83D0040D73C0080ADBC0080A1BDA7
:104A70000020D9BD00F0DABD00407BBD000081BC44
:104A800000E0103D0040773D00C06F3D00A00F3DAD
:104A900000802A3C008081BC0040E3BC00C098BC80
:104AA000008059BC000098BB0000C7BB000029BCB7
:104AB000008038BC008011BC00003C3B0000043C7E
:104AC0000000A73C0000CB3C0000AC3C0000963B43
:104AD000008056BC00C01ABD00C05CBD00C076BDE1
:104AE000000085BD008064BD000040BD00A008BD81
:104AF0000080D1BC00C0A0BC00C083BC0040AABCE8
:104B000000C0AABC0080B5BC0040B6BC00C09FBCC1
:104B1000008080BC00800CBC0000D0390000603CEC
:104B20000080D13C00C01C3D0000433D00E06A3DD8
:104B30000080733D00D0823D00308D3D00208E3DD1
:104B400000B0933D00E09B3D00A0B03D00B0DA3DD9
:104B500000D0A13D0080973C00E022BD00D0C7BD41
:104B600000F0DBBD00709EBD008065BC0080F63C9F
:104B700000D08B3D0020623D00C0B13C0000D9BC9C
:104B800000A03ABD00C064BD00C0FBBC0000463BB5
:104B900000804A3C0000953C000089BB00C09FBCDF
:104BA0000080E2BC008003BC00800B3C00C0063DDE
:104BB00000A01F3D0000F13C0000123B0000D3BCF0
:104BC000002036BD000065BD00004FBD004031BD76
:104BD00000800FBD0080DFBC0040B8BC00C0AABC94
:104BE0000000B4BC0080C1BC0080B3BC00009EBC0F
:104BF000000097BC00807BBC000063BC00803EBC12
:104C0000000022BC0000DABB00009FBB000038BAE5
:104C100000009E3B0080783C0000D33C00A0233D78
:104C200000804A3D0080643D00E0753D00607C3DB1
:104C30000070823D0040813D00A0973D0020C33DB3
:104C400000D0DD3D0000003D00A010BD00C0CEBD85
:104C500000D0F6BD0000C9BD0040A7BC00A0233DA8
:104C600000C09F3D00A06E3D0000503C00201FBDD5
:104C700000D085BD00803FBD000031BC00E0053D97
:104C800000202A3D0080EE3C000040BB0080CCBCF0
:104C9000008076BC0080583C00804D3D0080883DFF
:104CA0000040603D00009CBB00001ABD00C08EBDEE
:104CB00000E07DBD008029BD008058BC008081BC23
:104CC0000040B7BC00C020BD006036BD000021BD63
:104CD0000000D8BC004084BC00008DBC0040C1BCBA
:104CE000006010BD00600DBD002010BD00C0B9BC4B
:104CF000000052BC0000D8BA0000ABBB0000C4BA30
:104D0000000098BA0000563B00802B3C0080B23C6B
:104D100000E0143D00404F3D0090803D00C0813DCB
:104D200000C0863D00B08D3D00E0A23D0030BE3D9C
:104D300000F0E73D00D0EC3D0080AE3C00F085BDCA
:104D4000004005BE007000BE0050A2BD0000233C24
:104D500000408B3D0080B93D00C0113D00C0B7BC94
:104D600000908BBD00608CBD0080C4BC0000C93CBD
:104D70000000553D00C0073D0000BFBB00E027BD5F
:104D800000C00EBD0000A43A0040403D00F0923D3E
:104D900000C06B3D0000453C00C034BD00C081BD7B
:104DA00000108ABD002023BD000089BC0000F0393E
:104DB00000801BBC0000B6BC00E010BD0080EFBC52
:104DC00000C09ABC0000DFBB0000DDBB00802FBC30
:104DD0000000ACBC0080FFBC000004BD00C0FCBCF7
:104DE00000C0C8BC0040A1BC00804EBC0000EABBB3
:104DF0000000563B0000833B0000F83B0000883A6F
:104E00000000BCBA0000B43B00C0B63C0020203D0E
:104E100000E05B3D00C0773D00C07F3D0070953DE8
:104E20000060B43D0010EB3D00A8053E00E02E3DC3
:104E300000A05FBD009002BE002005BE00E093BD53
:104E40000000A63C00D0A33D00B0C33D00600D3D76
:104E5000002008BD00C092BD00A063BD0000403B23
:104E600000E0573D00A0853D0080FE3C0000ACBC4A
:104E7000006050BD002005BD0080583C0020633D0F
:104E800000108A3D0020083D008087BC00C06CBD3A
:104E900000605FBD00800FBD000014BC000083BB3C
:104EA000000062BC008030BD002060BD000044BD39
:104EB00000C0B0BC000000000000BD3B0000A9BB6A
:104EC000000088BC0080F8BC00000EBD00C0FBBC28
:104ED0000080C2BC00408ABC00C082BC008080BC94
:104EE00000806CBC008021BC008002BC0000F6BBCE
:104EF000000009BC0000983A00C0903C00C0383D5A
:104F000000C0813D00908B3D0040743D0080693DB4
:104F100000F08D3D00E0C63D0020043E00D8043E78
:104F200000C0B03C0090BEBD006020BE00D0FBBD04
:104F300000800FBD00F0813D0050CF3D00F0AB3D43
:104F400000007CBB00A083BD00E0A0BD006001BDEF
:104F50000040073D0030913D00805A3D0000DD3BA0
:104F600000E02ABD006036BD0000A43A00E05B3DD1
:104F70000040A33D00D08D3D00C0B13C0080F6BC98
:104F800000C076BD000053BD0080B4BC000026BB4D
:104F90000000A1BB008066BC00A010BD00C02CBDFD
:104FA000000004BD00006EBC0000F2BB0000DABBD4
:104FB00000009DBC00C0B8BC004003BD00601BBD2C
:104FC00000A02BBD00202ABD00C00ABD000090BC7F
:104FD0000000A3BB000022BB0000FBBB00808EBC16
:104FE00000C0A9BC00C09BBC00007CBB0000403CD2
:104FF00000C0073D00604F3D00608A3D0040943D89
:1050000000209D3D0070A63D00C0CC3D00F0F83D65
:105010000070FC3D00C0C83C0030AFBD00C812BEEF
:105020000030EBBD0000BCBC00108A3D00C0CA3D92
:105030000040A33D0000303B00A06EBD00C070BD2D
:1050400000C0A1BC00A0003D00404B3D0040CF3C53
:1050500000409BBC008046BD00002CBD0000F03B22
:1050600000C05C3D00908F3D00A0753D00C0903CAD
:1050700000C0AABC00405EBD004059BD008029BDF3
:105080000080C2BC0040B1BC008080BC0000EABC13
:1050900000A00CBD00A000BD008000BC0000FF3BD4
:1050A00000006D3C0000383B000008BC0000DABC8A
:1050B000006032BD002053BD002051BD002015BD51
:1050C000004092BC0000DFBB000026BB00004EBBCE
:1050D000008000BC008021BC0000F0BB0000803AD2
:1050E00000803A3C0000A53C0080FD3C0040333D80
:1050F00000C05D3D0000733D0000853D00F09F3D18
:105100000050CB3D0090E93D00F0923D00A005BD70
:105110000070D6BD0010E4BD0040F5BC0000473D66
:1051200000E0B73D0080833D00001A3C00E081BDF7
:1051300000B085BD0000FFBC00C0D43C00603D3D18
:1051400000A0173D0000DDBB0000E0BC0080ACBC4F
:1051500000803D3C00A0413D00205F3D00A00F3D90
:105160000000B43B0040CEBC00C007BD00C0A1BCE5
:1051700000805DBC008067BC00C0B6BC00C0DEBC67
:1051800000C0DCBC0040EBBC0040D7BC000072BCDF
:10519000000027BC0000ABBB000025BC0000B5BC74
:1051A00000C00EBD006035BD00A031BD0040EBBCAD
:1051B000008081BC000013BC00800EBC000054BC09
:1051C000000074BC00C089BC00C089BC000013BCD6
:1051D00000005EBB0000283A0000333C00C0DE3C0B
:1051E00000A0583D0000983D0030A63D0090AB3D2A
:1051F0000030B73D0020D43D0080E83D00006D3D0B
:10520000000035BD0050DEBD0000D4BD008094BC60
:105210000040643D00409D3D00803C3D00000ABCD4
:10522000006085BD008065BD0000B3BC0000A53CEA
:105230000040D63C0080593C008079BC008094BC82
:105240000000C4BA0040E33C00E0543D00605E3D15
:1052500000C00B3D0080003C002001BD006053BD3C
:1052600000C029BD00800ABD0000BCBC008069BC34
:1052700000009CBC00809CBC0080B4BC0000C5BC8D
:10528000000074BB0000CB3B0000F83B0000A4BA58
:1052900000C0DCBC000047BD00C065BD002058BD9B
:1052A000008000BD00805CBC00804ABC000035BCB2
:1052B000000046BC000027BC008000BC00803EBC53
:1052C00000802EBC0000B0390080293C00C0EA3CC0
:1052D00000A04B3D0030823D0040963D0010A43DB3
:1052E0000090B83D0050E43D00D0F63D0020893DDF
:1052F00000C025BD00B0EEBD00C0E6BD0040E6BC6C
:105300000060403D00108E3D00C0123D00803FBC5B
:1053100000C065BD00001EBD0000AEBB0040F23CF9
:105320000080DF3C0080853C0000D2BB000008BA52
:105330000000E13B00C0833C0040B63C0000A73CBD
:105340000000223C0000683B000005BC004085BC1A
:10535000004091BC00C0C0BC00009DBC008077BC78
:1053600000408CBC00C0C7BC0000EABC0000F2BC1E
:10537000000044BC0000803A0000903B0000AEBB3F
:105380000000BCBC008000BD006009BD000007BD7E
:105390000040D4BC00C099BC008096BC000070BC2A
:1053A000000056BC00801BBC000019BC00007EBC85
:1053B000000055BC00005E3B0080C93C00E0453D5C
:1053C0000000873D00E0903D00608A3D0070883D10
:1053D0000040983D0090B33D00B0C33D0050803D7B
:1053E00000C0EDBC0000C3BD00F0BCBD0080DABC55
:1053F0000020203D0060763D0040FD3C000046BBA3
:1054000000400FBD0080F0BC008000BC0000C33B2A
:1054100000009039000068BB0000A5BB00803D3C47
:105420000000B43C0080B53C0000CB3C0040EE3CAA
:105430000080C43C0080563C0080A6BC00C024BD57
:1054400000A00CBD0000A7BC000071BC00803BBCEC
:105450000080C1BC00C0DCBC0040E3BC00808DBC4F
:105460000000803A0000623C0000F93B000030BBC5
:105470000000B4BC00A005BD00E014BD008016BD56
:10548000002001BD0080B3BC008075BC000052BB91
:10549000000080BA000096BB00800CBC000052BC2B
:1054A000008020BC0000DA3B0080E93C0080423DE7
:1054B0000080643D00004E3D0060363D00C0493D27
:1054C00000F0893D0040B03D00C0C43D0010883D63
:1054D000000081BC0010A8BD0010B3BD00A008BD35
:1054E0000000DA3C0080383D0080A43C008001BC14
:1054F0000080EEBC0080A3BC000080B900800F3C9F
:105500000000683B0000E0BA0000B4BA00804A3CEA
:105510000000963C0080663C00802B3C0000563B1F
:1055200000001EBB0000F8BA0000A7BB00801FBC33
:10553000000098BC0040B9BC00C083BC000071BC36
:10554000008096BC00C0A7BC0000B6BC008077BC41
:105550000000A9BB0000283A00009A3B0000D8BA1E
:1055600000806BBC0080B4BC0040D7BC00809DBCF8
:10557000000052BC008065BC000060BC00800DBC17
:1055800000001EBB0000403B0000383A000070BB2A
:10559000000040B90080473C00000A3D0080523DB9
:1055A00000A0663D00005A3D0080513D0080703DE6
:1055B0000080943D00709E3D00E0453D0040E6BC0B
:1055C00000B0B2BD0050ABBD00C0D4BC0040C63C72
:1055D00000200D3D0080213C00803FBC0040A0BC6D
:1055E00000009FBB0000143C00803C3C000028BB36
:1055F000000054BC00802BBC000040BA0000D43B2B
:105600000000153C00801A3C0000723C0000BA3CCF
:105610000000F03B000081BC00C0EBBC0080E0BC9F
:1056200000803FBC0000ADBB000097BC0080F6BC12
:10563000004007BD00C0C5BC000015BC000012BB87
:10564000000068BB000000BB0000183A0000C43A2C
:10565000000096BB000064BC00809FBC0080A5BC1D
:10566000008076BC0000F4BB0000D6BB000005BC87
:10567000000042BC00000ABC000080390000363C3B
:1056800000C08C3C0080B43C0080F63C0020263DED
:1056900000E0353D00003C3D0020483D0000613DFC
:1056A00000007F3D00807E3D0040D63C006020BD74
:1056B00000609DBD00406FBD008001BC00C0DC3CAF
:1056C00000C0A73C00004EBB00809FBC0040A2BCB5
:1056D0000000D0BB0000183A0000E8BA000040BC4F
:1056E000008048BC000078BB0000683B0000123B13
:1056F00000000A3B0080103C00C0823C0000A93B37
:10570000000035BC004082BC008086BC008087BCA5
:1057100000006EBC0000B3BC0000D9BC00C0C8BC17
:1057200000008EBC000028BC0000C9BB000098BB74
:10573000000040BA000018BA0000B6BB000022BC4E
:10574000008003BC0000E3BB000025BC000042BC9D
:1057500000800BBC000040B900004E3B00001ABBAB
:10576000008003BC000026BC0000F0BA0000433CEF
:105770000000D83C0060023D00A0083D0000083D4C
:105780000080253D00A05B3D0000893D00E0903D8C
:1057900000404F3D00C093BC0070A2BD0040A9BDB9
:1057A00000A013BD0080213C00008D3C0000B4BB74
:1057B000008088BC000061BC0000A4BA0000CB3BA4
:1057C00000004A3B0000C1BB0000D2BB0000DA3B36
:1057D00000C08C3C00801D3C000040BA0000D0BBE3
:1057E0000000AC3A00005F3C0000903C00800F3CA1
:1057F000000018BA000029BC0000BDBB00802FBC0F
:105800000040BFBC00E008BD0080E1BC00007DBCE2
:105810000000B0BB000031BC00408ABC008087BCE7
:105820000000DABB0000CC3A0000883A0000A7BBB9
:10583000008002BC0000C3BB000052BB000085BB5F
:105840000000E5BB008003BC0000ECBB0000CEBB49
:10585000000085BB0000F0BA0000AC3A00801F3C9D
:105860000080C33C0020233D0040333D00E0233D49
:105870000020173D00A0353D00007B3D0040963DD7
:1058800000C0923D0000983C00405EBD00409FBDBE
:10589000008029BD0000E13B00809C3C00009FBBD4
:1058A0000040B9BC00807BBC000062BB00001A3B1A
:1058B00000001ABC0040BEBC0000C5BC000098BB84
:1058C0000000F23B0000853B0000DABB000028BC72
:1058D0000000C13B0040BF3C0080BC3C00801E3C3F
:1058E00000008DBB000053BC0000A3BB00009ABBAE
:1058F0000040AFBC00400ABD0040EDBC00004FBC02
:105900000000B4BA00009ABB0000D2BB00004EBB3E
:105910000000D03B0080123C00002C3B00008BBB01
:105920000000DABB0000B0BB000050BA0000E03A53
:105930000000943B0000AE3B000008BB0000B6BB7B
:105940000000D8BB00000EBB0000E53B00801B3C04
:1059500000805B3C00C08C3C0040B03C0040D03C30
:105960000000F73C0000193D00204D3D0000803D47
:1059700000C0813D00006F3C00E05FBD00A099BD0C
:10598000002024BD0000563B0000FB3B00808FBC84
:105990000040F5BC004093BC0000883A0000F83B92
:1059A000000046BB000087BC00803ABC0000443CBD
:1059B00000C0BD3C0000543C0000703B0000783B40
:1059C00000C0983C0080D23C0080973C0000DF3B48
:1059D0000000603A000088BA0000853B0000A5BBCB
:1059E0000000D4BC008019BD00A004BD0080ABBC89
:1059F00000809FBC0000D8BC0000CCBC00C084BCB0
:105A00000000F4BB000026BC008079BC000061BC33
:105A100000800BBC000046BB0000D0B90000BCBA3F
:105A2000000080BA000034BB00009FBB00004ABBEE
:105A30000000F03A00000E3B00001A3B0000683BFB
:105A400000801C3C0080A63C0020063D00C0213D9B
:105A500000002D3D00A0453D00206F3D00E0993D38
:105A60000070B83D00C0973D0080013C00C061BDA2
:105A7000004077BD00C0B7BC0000923B008003BC73
:105A800000E008BD0080E9BC00800EBC0000BA3B0D
:105A90000000C4BA008087BC0040C1BC0000F2BB5B
:105AA00000802A3C0000D83B0000CEBB0000F4BBC5
:105AB0000000463B00008F3C00009F3C00805C3CA7
:105AC00000800F3C00000B3C0000CB3B0000A43AE0
:105AD00000809DBC004015BD00A01CBD0000E8BCBE
:105AE0000040AABC00C0A2BC00409ABC00802CBCF4
:105AF0000000123B0080033C00002C3B000080B9FA
:105B0000000060BA0000503A0000883A00009EBBD6
:105B1000000029BC000023BC000019BC000009BC27
:105B20000000B8BB0000F8BA000028BA000088BA2C
:105B3000000060BA0000383B0080583C0000CB3CBD
:105B40000000F93C0020053D00601B3D0060483D21
:105B500000E08C3D0070A63D0070893D00802F3C28
:105B6000008034BD002048BD000041BC0000D43B93
:105B70000000BCBB0040E4BC00C0C6BC0000F8BBD9
:105B80000000BF3B000090B9000009BC0000E5BB6D
:105B90000000F03B00C0B83C0080A33C00008F3BFD
:105BA0000000B63B00809E3C00C00D3D00400B3D18
:105BB00000008D3C0000B8BB000019BC000074BBA5
:105BC000000018BC00A009BD00C051BD00E04BBDE5
:105BD000004000BD0000F0BC004024BD00A03ABD64
:105BE0000000F7BC00804ABC000094BB008029BCC8
:105BF0000000A6BC0080A6BC000013BC000080BB57
:105C00000000F4BB000037BC0000F8BB00009A3B6A
:105C100000800C3C0000523B0000D2BB000054BC92
:105C2000000007BC0000B63B0000533C0080773CFE
:105C30000000883C0080D93C00002C3D0000593D0C
:105C40000060673D00E0823D0020983D0020A93DB6
:105C50000050993D00403C3D0000AEBB00C02BBD54
:105C6000008011BD00800BBC000098BB00C0A7BC29
:105C700000801ABD00E008BD00009DBC008039BC5A
:105C8000000087BC00009DBC00806ABC0000C4BA54
:105C90000000CB3B0000043B0000F0B90000363CA4
:105CA00000C0E53C0040FC3C0000BB3C0040893C9F
:105CB0000080473C00009E3B000046BC0080CCBCFE
:105CC0000080FFBC00A00FBD00C00BBD0040FDBCAC
:105CD00000C0F5BC00C0BEBC000056BC000064BBE8
:105CE00000004039000068BB00801BBC008029BC5C
:105CF000008038BC000063BC000087BC004083BC4F
:105D000000804CBC000034BC008010BC000004BC0F
:105D100000009EBB0000F03900008B3B0000E53B1B
:105D20000000C33B0000DF3B0000713C0000CC3CA6
:105D30000040153D0040333D00E0503D00C0763D41
:105D400000008F3D0000943D00407E3D00801E3DE0
:105D50000000D43B000014BC000022BB00007C3BD0
:105D6000000004BC0000D9BC00000FBD0000D9BC7D
:105D7000000056BC0000F0390000163B0000443B18
:105D80000000523B0000E33B0000473C0080663CC3
:105D90000080663C0040933C00409A3C0040853CBB
:105DA0000000803A004089BC008095BC00805BBC4C
:105DB000004093BC008000BD00C02FBD006044BD0A
:105DC00000A048BD000044BD00C03ABD004028BD51
:105DD000002010BD00C0E3BC00C0A0BC0000A7BCF8
:105DE0000080BDBC00009DBC000024BC00009CBB2A
:105DF00000004ABB000008BB000040B900003C3B6B
:105E00000000C43A00004A3B0000D63B0000DA3BE9
:105E10000000073C00801D3C00803E3C00809E3C12
:105E20000040FC3C00802C3D0000443D00004B3D08
