:020000042000DA
:04035C0000787FBFE7
:100360000018E7BE00C0AE3D0000E73D0080E13D63
:1003700000A0D93D0000D03D00C0CA3D0080C63D70
:100380000070C23D0050C03D0030BC3D0020BA3D71
:100390000080B73D0000B43D0080B03D0080AE3D20
:1003A0000020AB3D0080A83D0030A63D00B0A33D3D
:1003B00000A0A13D00109E3D00A09B3D00B0983DD7
:1003C0000080963D00B0933D00B0913D0040903DCF
:1003D00000508D3D00A08A3D00F0873D00D0823D59
:1003E00000D0823D0020813D0000803D00007C3D2A
:1003F0000000773D00A0723D00A06E3D00206A3DE8
:100400000080653D00A0633D00205F3D00205B3D16
:100410000080553D0080523D0080523D00404E3DE1
:100420000020493D00C0473D00C0433D0020423D03
:1004300000C03F3D00003C3D00E0363D00C0333D84
:1004400000C02F3D00202F3D00002C3D0000283D26
:100450000060263D0060233D00401D3D00801D3DA5
:1004600000001A3D0060173D0020143D00A0133D20
:1004700000000F3D00E00C3D00E00B3D00E00B3DB7
:100480000040063D0060023D0020013D00E0013DCE
:100490000080F83C00C0F33C0000F23C0040EE3C21
:1004A0000080E73C0040E43C0000E13C0000D93C17
:1004B0000000DA3C00C0D43C00A03DBD0030A6BD29
:1004C00000E08ABD002063BD000025BD0000BCBC6B
:1004D000000052BC000060BA0000263C0000713CE5
:1004E00000C0A83C0080E23C00E0173D0080303DA9
:1004F00000C04D3D0040703D00108E3D0090A23D7B
:1005000000B0AF3D0020BB3D00D0CB3D0050D83DFA
:100510000000E33D0090E73D0030F33D0008013E60
:1005200000D0FF3D00F0FF3D0050043E0070003E53
:100530000018023E0060033E00C8063E00C00B3EAD
:1005400000080F3E0000133E00E0153E00C0163EBE
:1005500000E01A3E0040203E0018203E00F81F3EFA
:100560000040203E00D81E3E00801D3E00C8203EB8
:1005700000D8203E00F81F3E0050223E00D0253E0D
:100580000090283E0058283E0078273E0058273E1D
:100590000088263E0040253E0020233E0060203E8D
:1005A00000901C3E00681A3E00D0193E0098133E91
:1005B00000F80C3E00800B3E00180A3E00B8043ED6
:1005C00000B8043E0040053E0078063E0000083EAC
:1005D00000580B3E00C00D3E00180C3E00480B3E7C
:1005E0000068063E00A8013E0030FC3D00E0F13D01
:1005F00000E0EF3D00F0EE3D0010ED3D0060EC3D11
:1006000000D0EC3D0010ED3D00D0EE3D00F0EC3DA3
:100610000010E63D0010E23D00B0E33D0020D83D73
:100620000070D43D0030DC3D0050D53D00B0C93DE8
:100630000050C63D00E0BB3D0000B03D00B0AB3D0A
:100640000020B03D0040B03D0080B73D0060BF3DA0
:1006500000D0BF3D0090C53D0090C53D0070C23D3B
:1006600000B0C53D0010C03D00B0B83D0010B53D24
:100670000010B13D00F0AD3D0010B13D00D0B03DE7
:1006800000C0B73D0010B33D0070B13D00E0AE3D8D
:100690000090A93D0070A43D00109E3D00C0953D16
:1006A00000F0983D00F0943D0070913D0090863D33
:1006B0000080743D0000653D00005D3D0060493DE7
:1006C00000A0493D00E03C3D00E03D3D00E0453DEF
:1006D0000080463D00404F3D00E04C3D0060623DE3
:1006E0000000693D0020633D00C05D3D0040433D8A
:1006F00000602E3D00C01A3D0080163D00401E3DAA
:100700000000173D00001A3D00002C3D0020233D55
:100710000080203D0000193D0060173D00E0173DBE
:1007200000C00A3D0000073D00C00A3D00E0083D52
:1007300000000E3D00C0123D00E0103D0020053DD0
:100740000000EF3C0080D23C0080E93C0080E73CA8
:1007500000E0043D00400B3D00000A3D00A0053DC7
:100760000020013D0080123D00000A3D00E0053DF3
:100770000080153D00A00F3D0080113D00C00B3DE5
:1007800000400F3D00C0193D00201F3D0040383D96
:1007900000E0313D0020233D00A00D3D0080EE3CF7
:1007A0000080F13C0040D73C0040D63C0040EB3C90
:1007B00000C0D53C0040C03C0000BC3C0000503CA8
:1007C0000000153C0000D43B0000923B0000BC3B05
:1007D0000000E33B00000A3C0000903B0000043BAB
:1007E0000000CB3B0000893B0000B23B0000FF3B18
:1007F00000009A3B0000C33B0000F03A000090BBB1
:100800000000F8BB000017BC00801BBC0000B2BB9E
:100810000000883A0000E53B0080123C0000713C7B
:1008200000808F3C0080773C0080683C00805C3C0E
:100830000080123C00802B3C00803B3C0000283CA8
:100840000080013C0000D03B0000CC3B00001E3B80
:10085000000038BA000060BA0000263B0000643B8C
:100860000080113C0080673C0080753C00808D3C1E
:1008700000009C3C0000983C00808D3C0000893CBE
:1008800000805C3C00804A3C0000353C0000283C75
:100890000000083C00000B3C0000473C0000613CAD
:1008A00000804C3C00802D3C0000F93B0000F23BF6
:1008B0000080293C00006E3C0040853C0040A03C8C
:1008C0000080A53C0000703C0000F43B000038BBF9
:1008D000000045BC004093BC0040A2BC0080B3BCFB
:1008E00000C0A1BC0000ADBC00C0B0BC0080A6BC74
:1008F00000C09ABC00805CBC00804EBC0000B8BB4D
:100900000000A4BA00009CBA0000F0B90000F0BAE0
:10091000000056BB000015BC000013BC00800DBCDD
:100920000000FDBB00006CBB0000D0390000AE3BF6
:100930000000923B0000E03A0000163B0000943BB0
:100940000000C93B0000E53B0080383C00801C3CB7
:100950000000D83B0000AB3B0000563B000000BB52
:100960000000F4BB0000D8BB0000F6BB0000EEBBEB
:10097000000022BB0000183A00008D3B0000073C3D
:100980000000F63B0080003C00801E3C0000273C3D
:100990000000433C00805C3C00006E3C00004F3C8B
:1009A0000000513C00803F3C0000043C00000A3C39
:1009B0000000343B0000183A0000D0BB000013BC1C
:1009C000008011BC000023BC0000C7BB0000D0B9F0
:1009D00000007C3B0000FD3B0000D63B0000BCBAA1
:1009E000000040BB0000DFBB000031BC00803CBC0D
:1009F000000044BC000070BC00C098BC00C0AFBC8C
:100A00000040B7BC00009CBC000065BC0000E9BB16
:100A10000000BABB00006CBB0000383A0000BC3AD2
:100A20000000D83A0000893B0000853B0000983A5E
:100A30000000383B0000743B000028BA000046BBB1
:100A4000000098BA0000DFBB000017BC0000C5BB67
:100A5000000040BB0000283B0000813B0000B63B8B
:100A60000000BF3B0000B23B0000FF3B0000073C22
:100A70000000C13B0000F03B0000BF3B0000CC3B4E
:100A80000080113C0000BA3B000000000000E8BA02
:100A90000000D8BB00802EBC00802EBC008047BC6C
:100AA00000800CBC0000A9BB0000A4BA0000163BEB
:100AB0000000B83B0000063C00801E3C0000423CA9
:100AC0000080573C0000DD3B0000D43A0000A4BA8F
:100AD00000009ABB000007BC000038BB0000623B6E
:100AE0000080103C00805A3C0000733C0000F03B4A
:100AF000000040B900008FBB0000D0BB0000E3BB8A
:100B000000008BBB0000ABBB00800BBC000047BCEF
:100B100000005EBC000088BC004083BC008048BC74
:100B20000000B0BB000004BB0000F0390000903AA8
:100B30000000383A0000403A0000463B0000F83A16
:100B40000000E03A00004E3B000018BA0000000030
:100B5000000004BB000080B90000783B00008B3B24
:100B60000000AB3B0000E83A0000883A0000D039B2
:100B7000000080BB000094BB000098BB00003CBBA1
:100B80000000F9BB008030BC000074BC00008EBCCB
:100B900000C092BC000050BC00800BBC0000D8BB61
:100BA000000094BB0000C5BB00006CBB0000D4BAC1
:100BB0000000000000008D3B0000923B0000BF3BA6
:100BC0000000B83B0000643B0000893B00002C3B68
:100BD0000000D83A00004039000000BB000012BB02
:100BE0000000F8BB0000D6BB0000D4BA0000343BC4
:100BF0000000193C00805D3C00804B3C0000043C40
:100C00000000F03A0000B8BB000046BC008077BC92
:100C1000000090BC000087BC000052BC00804ABCB1
:100C200000801ABC0000C1BB000081BB0000803BFB
:100C30000000373C0040923C0000B33C0040B13C17
:100C40000000A63C0080A63C0000503C0000053C93
:100C5000000008BB00802ABC00C08ABC0080A6BC83
:100C600000C089BC004089BC00408ABC000063BC55
:100C700000804ABC0000CEBB000046BB000028BA82
:100C80000000CC3A0000DF3B0000E93B0080013C63
:100C900000008D3B000056BB008049BC0040A1BC59
:100CA0000040A8BC00807ABC000045BC0000DDBB51
:100CB0000000B8BB0000ABBB0000C3BB000062BBC0
:100CC0000000000000000E3B0000943B00009F3B32
:100CD00000007C3B000080BA0000F2BB00802BBC0F
:100CE00000802BBC0000F9BB00800BBC008002BC64
:100CF00000800FBC000009BC000028BA0000303B97
:100D00000000243C0000723C0080853C00C09A3CFE
:100D10000040A93C0080973C00806A3C0000373CC2
:100D20000000223C0000C53B00008B3B0000703AF5
:100D3000000046BB0000F8BB00007CBB00009FBB6E
:100D4000000052BB000060BA000062BB000038BA6D
:100D50000000B43B0000153C0000553C0080203CE6
:100D60000000C33B0000043B0000D83A0000703A8A
:100D7000000070BA000098BA000028BA0000A5BBB5
:100D80000000BCBB0000E7BB0000B6BB0000C9BB55
:100D90000000A3BB00009EBB0000043B00800C3C95
:100DA0000000283C0000383B0000DABB00803DBC5E
:100DB000008076BC008088BC000044BC00804EBC33
:100DC000000032BC00802EBC00806BBC00C098BC10
:100DD0000080BCBC0080B5BC00007EBC00801CBC98
:100DE00000000ABB0000283A0000523B00003C3BD8
:100DF0000000FF3B0000433C00008E3C0000A73C8D
:100E00000040B13C00007E3C0000553C0000293C05
:100E10000000A13B00008039000038BA0000183AF9
:100E20000000ACBA0000383A0000C43A0000B03903
:100E300000000A3B0000CB3B0000413C0000633C4B
:100E40000000473C0000343C00803C3C0000513C2A
:100E50000000173C00008F3B0000383A00009FBBA9
:100E600000001ABB000008BA00003C3B00009C3B9D
:100E70000000073C0000253C0000403C00803B3C5B
:100E80000000D83B0000A33B0000383B0000A4BAA0
:100E90000000E8BA000080BB00801EBC004082BC9D
:100EA0000080A4BC0080BCBC0080C2BC0000CBBCE5
:100EB0000080B5BC008094BC000064BC00802DBCE8
:100EC0000000FDBB0000D4BB0000BCBB000089BB20
:100ED0000000403900000E3B0000A4BA000044BBF3
:100EE00000802ABC0000A7BC0040A7BC0000A6BC34
:100EF00000C099BC00007EBC008056BC008020BCB5
:100F0000008012BC00801DBC0000C5BB000090BB6F
:100F1000000008BA0000BD3B00804B3C0040A13CF3
:100F200000C09F3C00C0893C0080883C0080763C2B
:100F30000000473C00804C3C0000293C00000A3C7B
:100F40000000E73B0000143C0040843C0040A33C10
:100F50000080C23C00C0DB3C00C0D43C00C0DB3C95
:100F600000C0B63C00008F3C00802E3C0000BA3B25
:100F70000000F03900000EBB0000A9BB0000C3BB9D
:100F80000000CEBB0000DBBB000031BC008048BCD1
:100F900000802DBC000096BB000070BA00006C3BC6
:100FA0000000CB3B0000643B000004BB0000A7BB7B
:100FB0000000BCBB0000BDBB00004ABB000080B904
:100FC000000046BB00004EBB0000E7BB00001ABC9F
:100FD000000041BC008039BC000026BC000033BCCE
:100FE00000802BBC00801ABC00005FBC00007DBCF0
:100FF000000089BC008079BC00805BBC000023BC81
:10100000008000BC000018BC0000D2BB0000FFBB89
:101010000000EEBB000028BB0000D8BA0000083A70
:101020000000C93B00803A3C00807B3C00809E3C35
:1010300000C0AE3C0040CE3C00C0EA3C00C0F23CE8
:101040000080E73C00C0AF3C00806A3C0000DD3B14
:101050000000EA3B00800C3C0080023C0080103C19
:101060000000513C0000313C0000533C0080383C03
:101070000000623C00803E3C0000343C0000BF3B6E
:101080000000963B000012BB000016BC000005BC2F
:101090000000BABB000040BA0000B03900008B3B32
:1010A00000004E3B00005E3B00006C3B00009F3B9D
:1010B0000000803A000080B80000BFBB00802EBC5A
:1010C00000006DBC00809EBC0000C4BC0040CFBCD2
:1010D00000C0CCBC00C09BBC00C093BC00804DBC19
:1010E0000000C9BB000090BB000028BB00009C3A78
:1010F0000000B0B9000008BA000040BB000064BBAB
:10110000000034BB000088BA000062BB00008BBB4B
:1011100000004EBB000040390000523B0080003C04
:101120000080033C0000803B00003C3B0000903A04
:101130000000883A0000F83A0000123B0000783BBB
:101140000000D63B0000A33B0000D63B0000E73B7D
:101150000000F63B00800B3C00804B3C0000703CE4
:101160000040843C0040933C00807A3C0040A03C1E
:101170000080C43C0040C83C0040E63C0000F73C16
:101180000040CE3C00C0993C00806B3C0000513CCC
:101190000000FF3B0000873B00002CBB0000C9BBE8
:1011A000000063BC00007DBC00809FBC008095BC3B
:1011B00000007CBC008003BC000034BB0000683B26
:1011C0000000C93B0000523B0000903A00008FBB7A
:1011D000000019BC00806ABC00C092BC00C099BC71
:1011E00000C083BC004082BC008049BC0000BCBB86
:1011F000000008BA0000D03B00808E3C00008D3C0F
:1012000000C0843C00001A3C0000623B000030BB80
:101210000000DFBB008039BC00803CBC000034BC57
:10122000000051BC000070BC008003BC00008BBB00
:101230000000AC3A0000893B00802F3C00805A3C03
:1012400000805B3C0000503C00802E3C0080103C45
:101250000000F43B00802C3C0000603C0000743C2B
:101260000000473C0000063C00803D3C0080213CE3
:101270000000363C0000183C0000293C0000BF3B49
:101280000000943B0000003B000083BB0000D0BB8B
:101290000000ABBB000062BB000004BB0000703A62
:1012A0000000403B0000E83A00008B3B00005E3B42
:1012B0000000E03A0000003B0000983A000028BA25
:1012C000000070BB00003CBB000038BB000098BAB7
:1012D0000000B0390000803B0000C93B00004A3BE1
:1012E000000000000000EEBB00801CBC00803EBC83
:1012F000008049BC000050BC00802BBC00804BBC6F
:10130000000064BC00804EBC000008BC0000C3BBF1
:101310000000AC3A0000CE3B00001A3C0000F83B55
:101320000000BD3B000000B900005EBB000056BBE2
:1013300000002CBB000000B90000C93B0000053CC8
:101340000000DF3B00801E3C0000C33B0000C13BAF
:101350000000AB3B0000AD3B0000E03A0000623B08
:10136000000016BB0000D8BB000028BC00803EBCBB
:10137000000061BC00001ABC0000DABB000060BACB
:101380000000943B0000293C0000343C0000273C56
:1013900000802B3C0080113C00800C3C0000BC3BDA
:1013A0000000AE3B00008B3B0000003B00002C3BEC
:1013B0000000E93B0000443C0000643C0080563CD7
:1013C0000080303C0000F63B0000083B000034BBCE
:1013D0000000BCBB0000FBBB0000BDBB0000BABBF3
:1013E000000009BC00804DBC00005EBC000064BC75
:1013F00000802CBC0000CCBB000074BB0000B6BB5E
:101400000000A5BB000056BB00009EBB000012BB45
:10141000000060BA000080BA00008D3B0000DF3B96
:101420000000083C0000073C0000153C0080003C28
:101430000000B83B0000983A0000D43A0000E8BA37
:101440000000D4BA000094BB00009ABB00800EBC20
:101450000000EEBB00803CBC000024BC0000D0BB00
:10146000000012BB0000A4BA0000D83A0000043B00
:101470000000223B0000683B0000983B0000983BC6
:101480000000123B0000503A000050BA000098BA29
:101490000000CC3A0000B03B0080213C0000433CFF
:1014A0000000433C0000EC3B0000BF3B0000563B0B
:1014B0000000D83A000080B8000080380000C4BAAC
:1014C000000092BB0000A3BB0000A9BB000028BB2A
:1014D0000000963B0080033C00802F3C0000513C04
:1014E0000080293C0080123C0000DA3B0000443BB5
:1014F000000080BA0000403A00004E3B0000283B4C
:101500000000E03A000000BB0000F8BA0000F0B9AB
:10151000000028BA0000403A0000B0390000A43AA8
:10152000000038BA00002CBB0000A9BB00802DBC15
:10153000000036BC000046BC00000BBC0000E9BB4C
:10154000000040BB0000B43A0000003B0000443BF8
:101550000000F43B0000D63B0000193C0000163CA4
:101560000000F23B0000803B0000F83A0000F0B9B8
:10157000000040BA000040BA000080B800002C3BD8
:101580000000B43A0000E03A000018BA00001ABBAC
:10159000000083BB0000B8BB0000F4BB000035BCFA
:1015A000000043BC000041BC008001BC0000A9BB9E
:1015B000000038BA00000E3B0000BC3A0000503A70
:1015C0000000283A00004039000088BA0000703A54
:1015D000000040B90000703A0000873B0000893BE2
:1015E0000000C93B0000BC3B0000BF3B0000D43BF7
:1015F00000000A3C00800C3C0080473C00802C3CF2
:101600000080203C0000C73B000004BB0000D2BBB0
:10161000000017BC000017BC000018BC000014BC80
:101620000000F8BB0000AEBB0000A1BB0000D03939
:1016300000009F3B00000A3C00001A3C00801B3C5D
:1016400000802F3C0080033C0000AD3B0000DB3BF2
:101650000000D43B0000E53B0000073C00802D3C2F
:101660000080003C0000F03B0000E93B0000B63B7E
:101670000000D43A00000E3B000018BA000044BB42
:10168000008010BC000032BC00805CBC000009BCC3
:10169000008000BC000034BB00004ABB00003CBB23
:1016A000000089BB000024BC000036BC000055BC13
:1016B000000025BC00800DBC000089BB000030BBD1
:1016C000000000000000283A0000BC3A000008BA00
:1016D000000090BA000090390000E83A00001A3B80
:1016E00000005A3B000028BA00000ABB0000B4BA50
:1016F000000028BB0000F0BA000080B90000000024
:1017000000000E3B00004E3B00009E3B0000E33B10
:101710000000223C0000173C0000083C0000173C81
:101720000000AB3B0000963B0000BF3B0000EA3BE3
:1017300000800E3C0000343C0000433C0000463C6E
:101740000000313C00005E3C0000713C0000713C38
:1017500000004F3C0000263C0000FB3B0000BC3B6F
:101760000000F0B9000064BB000081BB000040BB7A
:1017700000001E3B0000D43B0000173C00008B3BE8
:101780000000083B0000B0B9000085BB0000DABBD8
:1017900000005EBB000085BB000022BB0000E0BA79
:1017A0000000183A000012BB000068BB0000E9BB53
:1017B0000000E3BB0000F8BB000038BB000060BACB
:1017C0000000B039000070BA0000BDBB000004BCCE
:1017D000000035BC008038BC00801FBC008021BCEC
:1017E00000800DBC0000F4BB00800CBC000006BCF7
:1017F0000000A1BB000012BB000038BA00000000CE
:101800000000003B00009C3A0000743B0080113C4B
:1018100000800E3C0000353C0080673C0000803CAE
:1018200000C0A13C0080AC3C00C0A23C0080903CC9
:101830000000863C0000633C00804B3C00802C3C58
:101840000080113C0000EC3B0000FB3B00001A3C18
:101850000000353C0000343C0000273C00001A3CEE
:101860000000FB3B0000F63B0000B43B0000A93B3E
:101870000000623B00003C3B0000D83A0000043B03
:101880000000893B0000CE3B0000FB3B0000F93B21
:101890000000DF3B00009F3B0000C53B0080113C87
:1018A0000000073C0000903B0000703A000098BA2E
:1018B000000083BB0000F4BB008002BC000017BC2A
:1018C000008011BC00801EBC00800CBC00001ABC53
:1018D000000014BC000033BC008038BC00802BBC6E
:1018E00000804ABC000037BC00802FBC008020BCB8
:1018F0000000F6BB0000A1BB00009ABB00000A3B41
:1019000000008B3B0000B03B0000873B00009A3B8F
:1019100000008B3B0000D83B0000E33B00800E3C06
:101920000000D43B0000E33B0000D83B00801B3CA0
:1019300000805C3C0080783C0000523C0000063C8B
:101940000000BA3B0000223B0000743B0000283B33
:1019500000001A3B0000303B0000343B0000083A16
:101960000000E83A0000923B00008D3B0000DF3BA6
:1019700000800C3C0000163C0080393C0000333CE9
:1019800000800C3C0000CE3B0000B43A0000F0B9EF
:10199000000092BB0000DDBB0000F6BB008010BC65
:1019A00000800CBC0000B4BB000081BB0000E0BAAA
:1019B000000090B9000056BB0000BCBA00002CBB70
:1019C000000090B9000070BA0000F8BA000087BBB0
:1019D0000000E3BB000006BC0000E7BB00007CBBCE
:1019E0000000B43A0000123B00004E3B00004E3BAA
:1019F0000000083A0000CCBA000070BA0000F0B94C
:101A0000000000000000CCBA000080380000403A1E
:101A10000000AB3B0000C53B0000643B0000383ACF
:101A2000000094BB0000E3BB008010BC0000D6BBEC
:101A300000000ABC0000D8BB0000B8BB000083BB9C
:101A4000000070BA00003C3B0000443B0000D83B63
:101A500000009A3B0000D83B0000063C0000F63B2B
:101A60000000833B0000223B0000D0B90000A4BA74
:101A70000000B4BA0000C4BA000060BA0000D0B9D7
:101A80000000C43A00007C3B00007C3B00007C3B33
:101A90000000833B00000A3B0000D83A0000383BBE
:101AA00000001A3B0000883A000090B9000022BBF9
:101AB00000008DBB00008FBB000050BA0000503A00
:101AC00000004A3B0000DA3B0080103C0000373C3D
:101AD0000000623C0080783C00C0893C0080663C8D
:101AE0000000633C00804E3C0000373C0000373C67
:101AF0000080023C0000D63B0000873B00004039DC
:101B0000000018BA00005ABB00005ABB00006CBBB2
:101B1000000080BB000046BB00009CBB00009ABBDD
:101B2000000068BB000004BB00001EBB00008DBBB2
:101B30000000B4BB0000A9BB000064BB000083BB75
:101B4000000052BB0000B8BB0000E9BB0000F6BBC0
:101B50000000CCBB0000B2BB000080BB000068BB33
:101B6000000008BB0000383A0000E03A000080B9ED
:101B70000000D4BA000081BB0000A1BB000056BB2E
:101B800000000ABB000080B8000080B9000088BADD
:101B9000000088BA00001ABB000080BA0000D039EB
:101BA0000000503A00001A3B00006C3B0000B03BC4
:101BB0000000D63B00800F3C0000363C0080383CE3
:101BC0000000333C00803D3C0000503C00006D3C78
:101BD0000000713C00806A3C0000353C0000F43B92
:101BE0000000BD3B00009C3B00009E3B0000EE3B24
:101BF0000000C33B00005A3B000080B8000080B9E1
:101C0000000090B90000123B0000303B0000E03AB9
:101C10000000383A000040BA0000E0BA000038BACC
:101C20000000F8BA0000F0BA0000B8BB0000CCBB5E
:101C30000000C3BB0000F0BB008001BC000009BC79
:101C4000000016BC00801CBC00801BBC00802ABCAD
:101C500000802DBC00803ABC000024BC0000FDBB0D
:101C60000000C3BB0000C1BB0000D2BB00800CBCA5
:101C7000000017BC008011BC000016BC00001ABC9C
:101C800000801CBC00801DBC008021BC00801CBCEE
:101C90000000C1BB0000CCBA0000803B00800D3CBE
:101CA0000080493C0080653C0000713C00805C3C49
:101CB0000000813C00006E3C00801F3C0000B43BF3
:101CC00000004E3B000000000000A43A0000503A23
:101CD00000004E3B0000893B0000A13B0000893B17
:101CE00000009F3B0000EE3B0000EA3B00000A3C86
:101CF00000801C3C0000453C0080563C00803F3C7E
:101D00000080213C0080033C0000B83B0000923B77
:101D10000000A33B0000D43B0000D23B0000F93B95
:101D20000000F83B0000983B0000873B00002C3B84
:101D30000000D039000088BA000090390000B0B926
:101D40000000F039000008BB000004BB0000E5BB48
:101D5000000026BC000056BC008065BC000073BCBF
:101D6000008081BC00008EBC000095BC000096BCC9
:101D7000000088BC000051BC0000F0BB000000B9AE
:101D80000000EE3B0080213C0080293C0000243C08
:101D900000000B3C0080023C00009E3B000000B9AC
:101DA000000012BB000085BB0000C3BB0000A5BB48
:101DB0000000E0BA0000803900000E3B0000383B14
:101DC0000000623B0000813B0000AB3B0000F03BA9
:101DD0000000E73B0000F03B0000093C0000BF3B77
:101DE0000000853B00005A3B0000883A0000563B4B
:101DF00000009C3B0000D23B0000073C00001A3C66
:101E00000000243C0000263C00000A3C00005A3B35
:101E10000000183A000080390000003900000E3B35
:101E20000000C13B0000E53B00800B3C0000D23BC2
:101E30000000AE3B0000C43A0000ACBA00009EBBFC
:101E40000000C7BB000016BC00803CBC000036BCD4
:101E500000803ABC000033BC0000FDBB00002CBB7E
:101E60000000163B0000CE3B0080213C0000403CBF
:101E70000000FF3B0000523B0000443B000028BB39
:101E80000000ADBB008001BC00800FBC008010BC16
:101E9000000007BC0000E5BB0000F8BB0000B0BBC1
:101EA000000098BB000081BB00002CBB0000F8BA0A
:101EB000000018BA0000D0B90000E03A0000E03A93
:101EC0000000503A000050BA000080BA000080B90B
:101ED0000000383A00000A3B00005E3B0000BA3BBD
:101EE0000080033C00800F3C0000DF3B0000A73B6C
:101EF0000000963B0000383B0000463B0000A93B39
:101F000000000A3C0000363C0000613C00005E3CE2
:101F100000806B3C00802E3C0000D03B00005A3B10
:101F2000000080BA000078BB0000BDBB008001BC8F
:101F30000000D2BB00008FBB000060BA00004A3B2B
:101F40000000F93B0080483C00808D3C0040923C02
:101F500000009C3C0040913C0000433C0000DA3B08
:101F60000000BC3A000040BB000090BB000070BB0A
:101F700000007CBB000034BB0000BCBA0000BCBA4F
:101F8000000080BA0000D83A0000263B0000923BD7
:101F900000008F3B0000263B0000403A000038BAAA
:101FA000000080BA00009CBA00006CBB00001EBBA1
:101FB000000046BB000012BB000022BB000008BAB4
:101FC0000000283B0000383B00005A3B0000443B27
:101FD000000000000000CCBA000052BB000083BB30
:101FE000000078BB0000D0B90000CC3A0000CE3B26
:101FF0000000043C0080013C0000CB3B00006C3B37
:102000000000383A000062BB0000D2BB0000CBBB2E
:102010000000D0BB000078BB0000183A00009C3ADA
:102020000000083B00009A3B0000133C0080593C34
:1020300000C08B3C0040A33C0040A13C00C0843C5D
:1020400000802B3C0000C13B0000403B0000D03929
:10205000000040390000603A0000F0B90000A4BA66
:10206000000000B90000283A00001A3B0000853B40
:102070000000743B0000F83A0000183A0000F8BA7B
:10208000000078BB00008DBB000068BB000068BB8F
:102090000000BCBA000080BA000038BA0000F0B9F5
:1020A000000040B90000263B0000BC3A0000503A56
:1020B000000008BA0000C4BA0000B4BA0000F0BAC8
:1020C000000046BB0000BCBA0000183A0000A73B65
:1020D0000000FD3B0000373C0000613C0000403C3C
:1020E0000000133C0000963B0000C4BA0000C9BBCE
:1020F000008003BC00801ABC000013BC000005BCBB
:102100000000B0BB000098BB0000603A0000813BBB
:1021100000801E3C00006D3C0080963C00C0A13C4D
:102120000000863C0000703C00800F3C00004E3BED
:10213000000008BA000046BB000038BB00005EBBD0
:10214000000026BB0000383A0000E83A0000C93B16
:102150000000D03B0000F43B0080103C0000CB3B73
:1021600000007C3B0000883A000008BA000080B9FB
:102170000000283A0000CC3A00000E3B0000B43AC0
:102180000000B03900008038000080380000603A5C
:102190000000043B0000303B0000AC3A0000303B44
:1021A0000000883A000040B90000D4BA00000ABB21
:1021B000000098BA0000163B0000F63B0000343CDB
:1021C0000000253C00800E3C0000873B000018BA50
:1021D000000083BB0000FDBB00000ABC000008BC7F
:1021E00000000BBC0000BCBB000062BB000060BA7A
:1021F00000005E3B0000D43B00803F3C0000703C90
:102200000040823C00007C3C00004F3C0000F23B60
:102210000000003B00000ABB0000A7BB0000CBBBD6
:102220000000A9BB00008BBB0000E0BA000000006A
:102230000000F83A0000CC3A0000523B0000B83BE6
:102240000000743B0000C43A000008BA0000A5BBBF
:102250000000AEBB000070BB0000F0BA0000903977
:102260000000AC3A0000123B0000303B0000CC3ACA
:102270000000B0390000D0B9000088BA0000D0B921
:10228000000050BA0000C43A0000903900009CBA27
:10229000000012BB0000F0BA0000403A00008F3B83
:1022A00000800B3C0080293C0000193C00000A3CE7
:1022B0000000B23B0000503A000083BB008000BC2D
:1022C00000802CBC000017BC0000E5BB000094BBE4
:1022D0000000503A0000853B0000143C0000443CE4
:1022E0000000613C0080863C0080803C0080593CBE
:1022F00000800C3C0000943B000080390000A4BA30
:1023000000003CBB0000D8BA0000CCBA0000C4BA40
:10231000000090390000F039000000390000000092
:102320000000163B00000A3B00009C3A000026BB60
:102330000000BFBB0000ECBB000009BC000098BB64
:10234000000012BB0000803A0000283B0000F83A71
:1023500000000E3B0000703A0000D0390000083A3F
:102360000000163B00006C3B00005A3B0000623B43
:102370000000B03900003CBB000064BB000030BB73
:10238000000000BB00002C3B0000B23B0000F93B0A
:102390000000173C0080023C00003C3B000004BBF6
:1023A0000000A5BB00800CBC0000FBBB0000DDBB37
:1023B0000000A5BB000016BB0000BC3A00006C3B4F
:1023C0000000BF3B0080033C00802D3C00801A3C95
:1023D0000000223C0000133C0000FB3B0000AE3B31
:1023E0000000783B0000D83A0000AC3A0000883A80
:1023F0000000883A0000383A0000183A0000F83A25
:102400000000463B0000783B0000A13B00008B3BF6
:102410000000703A0000D4BA00009CBB0000A1BBD1
:102420000000A5BB00000ABB0000983A0000523B28
:1024300000008B3B00004E3B0000F03A00000039EA
:10244000000038BA0000D0B9000080B900009C3A02
:1024500000009039000028BA00009CBA0000B4BA0D
:10246000000070BB000074BB000038BB000040B926
:1024700000009C3A00002C3B00005A3B0000D03981
:102480000000A4BA00008DBB000014BC00000ABC10
:10249000008003BC0000CBBB000070BB000080BA12
:1024A0000000CC3A0000B43B0000DD3B0000F93BEB
:1024B0000000F43B0000DF3B0000CB3B0000783B1A
:1024C0000000463B00003C3B0000CC3A0000AC3A28
:1024D0000000C43A0000223B00000E3B00003C3BE1
:1024E0000000123B00009F3B0000BF3B0000DB3BB5
:1024F0000000F03B0000943B00000E3B0000F0BAEF
:10250000000026BB000052BB00009C3A00008F3B3D
:102510000000DB3B0000E93B0000DB3B00009A3B96
:1025200000005A3B0000BC3A0000000000009C3A4A
:1025300000003C3B0000403B0000463B0000E03A0E
:10254000000090390000D4BA000080BA00000EBB31
:102550000000E8BA0000C4BA0000CCBA00000EBB0C
:1025600000005ABB000098BB0000D8BB00801FBC15
:1025700000803DBC00804ABC00804DBC000016BC01
:102580000000DFBB000078BB000022BB000098BA4F
:10259000000080380000BC3A0000283A0000403AB1
:1025A000000080B8000080B9000028BB00008DBB8F
:1025B000000052BB000016BB0000F0390000E03AFA
:1025C0000000343B0000A13B00006C3B0000AB3B33
:1025D0000000CC3B00800D3C0000273C00000B3C81
:1025E0000000DB3B0000B03B0000523B0000813BA1
:1025F0000000CC3B00800D3C00803E3C0000533C82
:1026000000007F3C0080693C0000523C0080383C68
:1026100000802F3C00801A3C0000333C0000283C26
:1026200000801D3C0080203C00000B3C0000EC3B87
:102630000000BF3B0000743B0000F03A0000F83A95
:1026400000000A3B0000AC3A000080B900002CBB3F
:1026500000009FBB008002BC00802DBC000033BC8A
:1026600000802ABC000014BC0000F6BB0000C5BB03
:102670000000C5BB000087BB000038BB000008BBE2
:102680000000F0B90000D0B9000040BA000038BA2C
:10269000000004BB000062BB00005EBB00007CBB0E
:1026A0000000E8BA000040BA0000E0BA0000E0BA5A
:1026B0000000F0BA0000D0B90000903900004E3B95
:1026C0000000873B00009E3B0000963B0000D83A8C
:1026D000000080380000B0B9000040B90000403967
:1026E00000004A3B0000C33B0000FF3B0000093CE8
:1026F0000000E73B0000B63B0000AD3B0000403B64
:1027000000005E3B0000813B0000A13B0000B83BA5
:102710000000BD3B00009E3B0000873B0000003BEB
:102720000000B43A0000743B0000E73B00800C3C22
:102730000000093C0000F93B0000B43B0000683B8E
:102740000000903A000060BA000030BB00008FBB70
:10275000000070BB000087BB00005ABB00003CBB00
:10276000000038BB000026BB000038BB0000B4BA34
:10277000000070BA000028BA0000ACBA0000E8BA45
:1027800000000EBB000068BB00005ABB00003CBB51
:102790000000E0BA000000BB000000BB00000EBB60
:1027A000000070BA0000B0390000223B0000683B16
:1027B0000000803B0000783B0000403B0000F83AFE
:1027C0000000603A000090390000D83A0000AC3AAE
:1027D00000000A3B00004E3B0000D83A0000803960
:1027E000000000000000C4BA000098BA000012BB4C
:1027F00000000ABB000016BB000068BB0000ADBBB8
:102800000000A9BB00005ABB000040BB00009CBAFE
:102810000000123B0000903B0000E13B0000EC3B5D
:102820000000E53B0000BA3B00002C3B0000803973
:1028300000000EBB000016BB000040BA000008BA42
:102840000000383A000000390000A43A0000AC3A19
:102850000000D0390000703A0000283B0000383BEF
:102860000000D43A0000D83A0000903A00008038C6
:10287000000080380000703A0000903A000060BA12
:10288000000060BA000040BA000080BA000060BAE0
:102890000000F0390000383A0000B0390000403A3A
:1028A0000000403A0000403A0000F0390000B43A1D
:1028B0000000A43A0000603A0000D0B90000B0B9AE
:1028C0000000D4BA000040BB00003CBB000044BB89
:1028D0000000A1BB00009EBB0000E7BB008003BC62
:1028E000008003BC000004BC0000E1BB008000BC11
:1028F0000000F0BB0000DFBB00009FBB000026BB58
:10290000000008BA000008BA000012BB000052BB69
:102910000000A3BB0000CBBB0000D8BB0000E9BB9C
:102920000000E3BB0000ADBB000080BB00005ABB51
:10293000000022BB0000B4BA000080BA0000E0BA78
:102940000000F0BA0000D0B9000028BA000000B9B9
:10295000000000B90000183A0000003B00004A3BAC
:102960000000703B0000A73B0000A53B0000B43B0B
:1029700000009C3B0000B83B0000B23B0000CC3B99
:102980000000E73B0080013C00800C3C0000173C4D
:1029900000802C3C0080383C0000453C0000243C7A
:1029A0000000083C0000C53B0000893B0000983B4C
:1029B00000001A3B0000803A0000B4BA000034BBAB
:1029C000000096BB00009ABB000004BB000088BA60
:1029D0000000ACBA000098BA000080BA000080BACB
:1029E00000004039000040390000F039000080BA92
:1029F000000000BB00009EBB0000C3BB0000C7BBC3
:102A00000000D0BB00009ABB000094BB000026BBB6
:102A10000000BCBA0000D4BA0000BCBA000008BB79
:102A20000000F0BA00004EBB00008DBB00009EBB52
:102A30000000C7BB0000B8BB0000A9BB000038BB4A
:102A4000000018BA0000403A0000123B00009E3B14
:102A50000000AB3B0000D43B0000FB3B0080103C7F
:102A600000000A3C0000183C0080293C0000463C65
:102A70000000653C00806A3C0040893C00C0833C0B
:102A80000080803C0000743C00805C3C0080383C4E
:102A90000080293C0080103C0000D23B0000443BF9
:102AA0000000883A0000703A0000AC3A0000563B43
:102AB0000000B23B0000DA3B0000FF3B0080013C1D
:102AC0000080013C0000B03B00005A3B0000263B68
:102AD0000000B43A000000B9000028BB0000C9BBE8
:102AE0000000E7BB00800CBC00000BBC0000D4BBA6
:102AF0000000B4BB00004ABB000080B9000008BA67
:102B0000000070BA000070BA00005EBB0000A9BBF4
:102B1000008002BC000035BC000062BC00806BBCC1
:102B200000806CBC008049BC00802FBC000008BC49
:102B30000000C3BB00008FBB0000ACBA0000B4BAF9
:102B40000000903A0000B0390000B0390000383B76
:102B500000008B3B0000B43B0000F23B00800D3CCA
:102B60000000163C0000223C0000153C00801A3C8E
:102B70000000FB3B0000F83B0000DB3B0000BA3BE1
:102B80000000893B00000A3B00008039000040B98A
:102B90000000603A0000783B0000EE3B00802C3CD7
:102BA0000000543C0000433C00804A3C00801D3C37
:102BB0000080013C0000E53B0000C73B0000893B72
:102BC0000000263B000040390000C4BA000030BBC2
:102BD000000083BB00005EBB00002CBB0000F8BA05
:102BE000000098BA0000A43A0000503A0000703A81
:102BF000000038BA000028BB000090BB0000C1BB39
:102C00000000F4BB000016BC00801ABC000018BC19
:102C10000000F9BB0000DABB0000A9BB000046BB06
:102C20000000BCBA0000BC3A00006C3B0000B63BA0
:102C30000000F03B00800E3C00801F3C0000413C47
:102C400000805A3C0080783C0000743C00805A3C74
:102C50000000373C0000EA3B0000B23B00006C3B48
:102C60000000043B0000503A000038BA00009ABB54
:102C70000000C7BB000007BC0000CCBB000074BB59
:102C80000000D0390000263B0000443B0000003B20
:102C90000000463B0000123B0000463B0000283B82
:102CA0000000E83A0000F83A0000603A000008BA74
:102CB000000028BA000028BA0000403A0000403B5B
:102CC0000000A93B00800D3C0080393C0000463CE0
:102CD0000080493C00804C3C00802D3C0000EA3BD9
:102CE0000000643B0000B039000028BB000085BB39
:102CF0000000FDBB00802FBC008065BC000074BCE0
:102D000000006DBC008068BC00802DBC008002BC4F
:102D10000000ABBB0000A5BB0000B2BB000092BB33
:102D2000000022BB000000390000873B0000C33BCD
:102D30000000E13B0000B43B0000803B0000223B70
:102D40000000523B0000903B0000BC3B0000D03B29
:102D50000000083C0000F93B00800E3C00804C3C29
:102D600000806B3C00808E3C0040A73C00C0B93C1A
:102D70000000BC3C0000A63C0080863C0000223CD9
:102D800000004E3B000098BB000043BC00C08BBC61
:102D90000000AEBC0040CDBC0040DDBC0040DDBC4E
:102DA00000C0CEBC0040A8BC00806CBC0000F0BBE2
:102DB0000000E0BA0000AC3A0000643B0000463B73
:102DC0000000703A000060BA0000CCBA0000A4BA5B
:102DD000000046BB000090BB0000F0BB0000F8BB49
:102DE0000000D6BB000034BB0000083B0000083CDC
:102DF0000040853C00C0AE3C0000CA3C00C0C53C61
:102E00000040C13C0040A93C0080803C0080303C38
:102E10000000CB3B0000183A000038BB0000DBBBD1
:102E200000802EBC000041BC00805BBC000040BCA8
:102E300000801CBC0000ECBB00009CBB00000ABB77
:102E40000000003900009039000080380000183A76
:102E50000000703A0000D43A0000043B0000183A29
:102E60000000F0B900009CBA0000E0BA0000903AFF
:102E70000000223B00006C3B00008D3B0000A73BA4
:102E80000000B63B0000DA3B00801F3C0000553CD0
:102E90000000883C00009C3C00C0913C0000523C7B
:102EA0000000F03B0000AC3A000096BB000005BCFF
:102EB000008059BC004084BC00C098BC00809DBC10
:102EC00000008DBC008085BC008047BC000005BCB4
:102ED00000009ABB000090B90000903B0000F93B55
:102EE00000800B3C0000C93B0000283B0000F0BA0A
:102EF0000000B4BB0000DABB0000B4BB0000B0BBF4
:102F00000000A9BB00000EBB000000B90000883A19
:102F10000000643B0000D43B0000F63B00801D3CF9
:102F20000000293C00801D3C0000C93B0000B03B74
:102F300000004A3B0000603A0000B0B9000060BAEF
:102F40000000003900000A3B0000043B0000BC3ACE
:102F50000000B0390000003B00000A3B0000813B4C
:102F600000008B3B0000643B00002C3B0000C43A97
:102F70000000383A0000383A00009CBA00004ABB12
:102F8000000090BB0000A5BB0000D8BB00000ABC3D
:102F9000000043BC008077BC00808FBC000080BC78
:102FA000000045BC0000E1BB00001ABB0000903AE5
:102FB00000008F3B0000F83B0000143C00801E3CEA
:102FC00000802D3C0080213C0080003C0000703BD4
:102FD0000000B0B900005EBB0000D4BB0000ECBB39
:102FE0000000ABBB000090BB000088BA0000883A2C
:102FF0000000003B0000703A0000083A000050BAA0
:10300000000028BB000090BB0000ECBB008048BC67
:10301000000062BC000072BC000063BC00802BBCDE
:103020000000DDBB000064BB0000803A0000C13B33
:1030300000802D3C0080693C00808D3C0080963CE7
:1030400000009F3C00C0923C0080903C00007F3C10
:103050000000413C0000FD3B0000C93B0000CB3BB1
:103060000000B63B0000BA3B00004E3B0000643B52
:103070000000383B00001A3B000080B9000004BB90
:10308000000046BB000030BB000000BB00002CBBB2
:10309000000085BB0000EABB008010BC0000F6BB4E
:1030A00000800DBC00801BBC008001BC0000C9BBBF
:1030B00000009EBB00000EBB000008BA0000383ABA
:1030C0000000783B0080003C00001A3C0000253CDA
:1030D0000080103C0000AB3B0000B0390000D6BBC4
:1030E00000803ABC00807BBC000090BC008095BC96
:1030F000008097BC00C089BC000054BC0000FFBB2E
:10310000000000000000E33B0080563C00C0813C12
:1031100000409A3C0080B23C00C0B13C0040AF3C53
:103120000080A43C0040823C0080473C0000293CD9
:103130000000F63B0000703B0000CC3A000028BACB
:10314000000008BA0000883A0000803B0000303BD5
:103150000000283B0000813B0000813B00001E3B3B
:103160000000003900000ABB00005ABB000056BB3B
:10317000000096BB0000A7BB00009FBB00003CBB4B
:10318000000044BB000090B90000283B0000CB3B8E
:103190000000383C00005E3C00805A3C00004F3C80
:1031A0000000353C0000EC3B00000A3B0000F0BA98
:1031B0000000A1BB0000ECBB000019BC000015BC66
:1031C000000038BC00803FBC00801BBC0000DABBA4
:1031D00000008FBB000034BB000008BA00009C3A1E
:1031E00000002C3B0000A73B0000A73B0000B23BC7
:1031F0000000AB3B0000CB3B0000E93B00008B3BF9
:1032000000003C3B0000E03A000008BA0000B0B902
:103210000000403A0000503A000038BA0000D43AAA
:10322000000018BA0000983A0000303B0000803BD4
:1032300000000E3B000000000000B0B9000081BBA0
:103240000000B2BB00006CBB00006CBB0000F0B91A
:103250000000E83A0000FF3B0000453C00008D3CC8
:103260000000AD3C0080B33C0040B63C0080BD3C5B
:103270000080A33C0080783C00005F3C0080483C1C
:1032800000803D3C00802E3C00000B3C0000CC3B0D
:103290000000923B0000743B0000D039000040BBAE
:1032A0000000DDBB00805ABC00009EBC0000C2BC18
:1032B0000080E9BC0000F8BC0000EFBC00C0C5BC49
:1032C00000C091BC008029BC0000D0BB000060BAE7
:1032D0000000A73B0080113C0000353C00801D3CF5
:1032E0000000C93B0000803B0000703B00002C3B0D
:1032F0000000A43A00003C3B000040BA000018BAAD
:103300000000683B0000AB3B0000943B0000FB3B2F
:103310000000223C0000E93B0000FD3B00800B3C2C
:1033200000801C3C0000333C00803D3C0080483C59
:103330000080303C0000FB3B0000A93B0000383A15
:1033400000000ABB00008DBB00009EBB0000C1BB9B
:103350000000DFBB0000DFBB0000BCBB000070BB97
:10336000000016BB000080380000503A000080B812
:1033700000009CBA000096BB00800CBC008030BCF2
:10338000000040BC00801BBC0000B2BB00005EBB64
:10339000000088BA0000043B0000B03B00801E3CE7
:1033A00000804B3C00803A3C0000423C0000643C02
:1033B0000000713C0000603C00806B3C0000433C1E
:1033C0000080383C0000703C0000A43C0000D13C70
:1033D0000080023D0040253D0060323D00C0383D88
:1033E0000080303D00400A3D0080C33C0000333C7B
:1033F0000000C1BB00C0BDBC008016BD000040BDC8
:1034000000805CBD00405EBD000052BD00E040BDDC
:1034100000201CBD0040D6BC00804DBC00009CBA02
:103420000000333C0000973C0040B83C00C0CF3C5B
:1034300000C0C83C0040A23C0080483C00009F3BCC
:103440000000F83A000080BA00005EBB0000D8BB64
:10345000000024BC008048BC008012BC0000FFBB00
:1034600000000ABC008012BC0000DDBB000040BBB5
:10347000000060BA0000D4BA000034BB0000DABB20
:10348000008000BC0000B4BB0000F0BB0000E3BB48
:10349000000008BB0000F0390000E83A00800F3C53
:1034A0000000413C00804B3C0040833C0040A33C7A
:1034B00000008D3C0080873C0000723C0000F03B27
:1034C0000000873B0000CC3A000092BB0000F4BB38
:1034D00000009EBB000081BB00008FBB0000D83AFB
:1034E00000008F3B00005A3B0000B83B0000D03B7F
:1034F0000000FB3B0000CB3B0000EA3B0000E73B49
:103500000000BC3B00800D3C0000313C0080303CA2
:103510000000443C0000323C0000543C0080563C1B
:1035200000805C3C0000433C0000143C0080023CF6
:103530000000623B000080B80000C1BB00801CBCE2
:10354000008039BC000045BC00802EBC000027BCB8
:10355000008010BC0000EEBB000016BB0000603A0B
:103560000000A4BA000028BB000085BB0000AEBB71
:10357000000092BB000096BB0000D6BB0000C1BBA0
:10358000000056BB0000ACBA0000283A00001A3B0D
:1035900000007C3B0000563B0000A13B0000DB3BF1
:1035A0000000D63B00008F3B0000163B0000B0B986
:1035B00000001EBB000056BB000092BB000090BB89
:1035C000000022BB0000B0B900001A3B0000FB3B2A
:1035D00000804B3C0080653C00808F3C00C0913CEB
:1035E0000000873C0080693C00006F3C0080653C27
:1035F0000000183C0000253C0080383C00802C3C3A
:103600000000343C00005E3C0000333C0000353CD0
:103610000000563C00803B3C0000F83B0000A53B0E
:103620000000F03A000089BB000024BC000046BC4A
:10363000008068BC008077BC00803EBC00803ABC43
:10364000000033BC008001BC0000E5BB000096BB5D
:1036500000009ABB0000DFBB00803ABC00804EBC7B
:10366000004085BC00C0AFBC0000D1BC00C0DEBCC7
:103670000080EFBC00C0D5BC0000ADBC00408ABCDF
:10368000000043BC0000ABBB000090390000B23B1F
:1036900000802A3C00006D3C0080A53C0080C33CBB
:1036A0000000DB3C0040ED3C00C0FA3C0040F53C33
:1036B00000400B3D00002C3D00C0423D00C04E3D8F
:1036C0000080613D00E0623D0080603D00E04B3DD8
:1036D00000C0243D0080B43C0000743B008038BC36
:1036E0000080EABC002039BD000071BD00108EBD15
:1036F000009095BD000087BD00606EBD00604CBDB0
:10370000000013BD0080CBBC000031BC00005A3B60
:1037100000806C3C0080AC3C0040C63C0000DB3CC0
:1037200000C0C03C00C0833C0000FF3B000062BB07
:10373000008085BC0040C8BC0080EFBC00A000BD7C
:1037400000E000BD0000CCBC008081BC00000BBCD0
:103750000000D0B90000E73B00803D3C0080803C89
:103760000040833C00806A3C0000273C0000043C91
:103770000000D23B0000AD3B0000D03B0080203C6D
:1037800000803A3C0000813C0080BD3C0040ED3CA4
:103790000040073D00A0133D0080203D00A0273DD4
:1037A00000202E3D00C0303D00A0233D00E0093D3B
:1037B0000000D43C00007E3C0000CC3B00009ABBE3
:1037C00000808DBC0080E2BC000012BD00E02EBD78
:1037D000000038BD002035BD00002DBD00E01BBD40
:1037E000006009BD00C0CCBC00808EBC008039BC2C
:1037F0000000BABB00000ABB000000000000853BCF
:103800000000073C0000433C0000713C0000723C9B
:103810000000713C0000653C0000433C0080123C0D
:103820000000873B000028BA0000DABB008020BC03
:10383000000028BC008057BC00804ABC008011BC3E
:103840000000B0BB0000183A0000C93B00802D3CCE
:103850000000713C0040833C00C08B3C0000893C70
:103860000080763C00006F3C0000873C00009D3CDF
:103870000080A43C00C0BE3C0000EF3C0020083D9E
:103880000080193D00E0223D00201C3D00000B3D62
:1038900000C0E53C0000963C00000A3C000016BB5E
:1038A00000C083BC0040E3BC008012BD00802FBD7F
:1038B000002048BD002054BD00C058BD00804EBD52
:1038C00000E035BD006017BD00C0E4BC0080ACBCAA
:1038D000000038BC0000F0B90000D23B00801E3C64
:1038E0000000313C00803B3C0000413C0080293C12
:1038F0000000EC3B00001A3B0000E8BA000080BA70
:1039000000000000000080BB0000B8BB000016BC37
:10391000008000BC0000B0BB000068BB0000F0B934
:103920000000883A0000C73B0080203C0000563C65
:103930000080853C0000983C0000BC3C0080DF3CDF
:1039400000C0ED3C0080F73C0080003D00A0133D2E
:103950000040253D00A02E3D0040303D0080293D27
:1039600000A01C3D00E00C3D00C0BE3C00801F3CA0
:103970000000ECBB0000B5BC00C006BD006035BD5A
:10398000000059BD00C065BD004068BD004055BD88
:1039900000C034BD00E00BBD00C0CFBC008079BCCE
:1039A0000000D2BB0000903A0000C33B0080033C03
:1039B0000000133C0000193C0000263C00802A3C1B
:1039C0000000FB3B0000AB3B0000803A000040BA27
:1039D0000000E7BB00802BBC000042BC000062BCC2
:1039E000000036BC008048BC000033BC0000F6BBC1
:1039F000000089BB0000083A0000403A0000F03A9D
:103A00000000D83A0000563B0000AD3B0000B23B3E
:103A10000000963B0000C53B0080213C00C08A3C72
:103A20000080BA3C00C0F43C00A0173D00C0433DFC
:103A30000040683D00C0813D00608C3D0020873D16
:103A400000607C3D00404F3D0020063D0080493C29
:103A500000803CBC002002BD002045BD00007BBDB5
:103A6000000089BD00608ABD00108ABD00C06CBD29
:103A700000C03FBD002018BD0080D0BC008067BCE6
:103A8000000080BB0000563B0080033C0000343C3B
:103A900000802F3C0000193C0000043C0000C33BA8
:103AA0000000083A000000BB000064BB0000B0BB8F
:103AB0000000ADBB0000ABBB0000C7BB0000C3BB38
:103AC0000000DABB0000C7BB0000FBBB000007BC66
:103AD000000035BC000065BC004084BC008086BC92
:103AE00000408ABC004082BC000050BC008002BC88
:103AF000000040BA0000093C0040A93C0040EE3CF8
:103B000000A0223D00A0403D0000593D00C0683D9E
:103B100000806B3D00A0783D00E0783D0000653DF1
:103B20000080563D00803E3D00E0043D00C0833CE7
:103B30000000B4BA0040A1BC00E017BD00003FBDCA
:103B4000000078BD00D082BD006081BD000077BD5F
:103B500000A04CBD00E031BD00A009BD00C0B0BC5C
:103B600000005EBC00009CBA0000A33B00801F3C2C
:103B70000000703C0080653C0000893C00007F3CF8
:103B80000000373C0000403C00800D3C0000BC3B86
:103B90000000B0B900800DBC000043BC000096BC22
:103BA00000C0A7BC0080BABC0040C8BC00C0B8BC04
:103BB00000C0AEBC00C08ABC008047BC00802EBCE8
:103BC00000006CBB000004BB0000D83A0000E33BDF
:103BD0000080103C00802B3C0000813C0040AA3C4F
:103BE00000C0DE3C0040043D0080113D0020273D28
:103BF00000202E3D00C0423D00A04B3D0060533DE3
:103C00000000653D00A04C3D00A03A3D00E01E3D97
:103C100000C0AA3C0000043C00804BBC0080F8BC03
:103C2000002036BD004077BD00D082BD004087BD7A
:103C3000000080BD00E054BD00A026BD00C0DEBC79
:103C4000008030BC0000D0390000643C0080B23CF1
:103C500000C0D73C00C0CD3C00009D3C0080573CDC
:103C60000000893B000094BB008048BC0000A6BC5B
:103C70000080DBBC0040E6BC0080F8BC0040EEBC2D
:103C800000C0D6BC0000ADBC00C08CBC00803BBCFA
:103C9000000089BB00009CBA0000283B0000BA3B32
:103CA0000000923B0000523B00000E3B0000B43A83
:103CB0000000183A0000083A0000E33B0000373CDF
:103CC00000409A3C0040C03C0000E33C00C0023D84
:103CD0000060053D00201C3D00C01A3D00C01A3D9B
:103CE0000020273D0000303D0020413D00A05A3D0E
:103CF0000000553D0060493D00E01F3D0040CE3CC6
:103D00000080113C00802FBC0080D3BC002017BD78
:103D1000002049BD00605BBD000061BD004051BD99
:103D2000004033BD000007BD0080CBBC00005FBC7D
:103D30000000D8BB000060BA0000403A0000A43A7E
:103D400000000ABB0000D8BB00801ABC008066BC23
:103D500000009EBC0080C9BC0000E2BC00C0E5BC05
:103D600000C0CFBC0080BBBC00408BBC000064BC6A
:103D700000800EBC0000A3BB0000C43A00007C3BE6
:103D800000009C3B0000AB3B0000813B000028BAD8
:103D9000000012BB0000F4BB008000BC008010BC1F
:103DA0000000E5BB0000183A0000853B00804B3C5A
:103DB0000040A73C0040ED3C00000E3D00A0263D29
:103DC00000A0313D00203E3D0020443D0000593D13
:103DD00000A06A3D00807F3D0070843D00F0813D81
:103DE00000C0653D0020333D00C0CD3C0000703B6D
:103DF000008095BC008020BD00A062BD007086BD23
:103E000000E08CBD009084BD004069BD000040BD55
:103E1000000013BD0040DDBC00805BBC00005ABB4D
:103E20000000923B0000283C0000723C00806A3C8D
:103E30000000403C0000093C0000883A000005BC3E
:103E4000000065BC00C0C0BC0000E1BC0000E7BCD5
:103E50000080CABC0080ABBC00408CBC000013BC1E
:103E600000009ABB000040B90000643B0000163B14
:103E70000000163B00008D3B0000903900005A3BCB
:103E8000000018BA00005ABB000040BB000046BB4F
:103E900000009CBA0000833B0000BD3B00805A3C00
:103EA0000080883C00C0B73C0000E73C0040EE3C8E
:103EB00000000F3D00401A3D00602F3D0000563DC0
:103EC0000000773D00808C3D0030883D0010823D31
:103ED0000040563D0040043D0000223C00C081BC33
:103EE00000E01ABD00806BBD003086BD00E090BDD3
:103EF00000F085BD00E062BD008033BD0040FABC2B
:103F000000809CBC0000E7BB0000F83A00802A3C1F
:103F10000040923C0000A43C00C0A83C00C0823C91
:103F20000080023C000034BB000087BC0000BBBC2A
:103F300000C0FABC00400BBD00C0EBBC0040B0BCF0
:103F4000000027BC0000E83A0000373C00408B3CF2
:103F50000080813C00804D3C0000CE3B000085BBD2
:103F600000803ABC0040A2BC0040DFBC0080F0BC36
:103F700000200DBD0080FEBC0080C9BC004084BC98
:103F800000006CBB0000073C0080B33C00A0053D76
:103F90000040333D00A0573D00206A3D00207E3D9B
:103FA0000020853D00B0873D00108E3D00A08C3D77
:103FB00000E0913D0020923D0000803D00A03A3D90
:103FC0000080A33C00800EBC000021BD000085BD28
:103FD00000E0A6BD00C0B1BD00A0AABD00B093BD69
:103FE000004056BD00C0ECBC00806CBC0000CC3A68
:103FF00000804D3C0080AD3C00C0CE3C00E0013D67
:104000000080FF3C00C0ED3C0000AD3C00802D3C3A
:1040100000008FBB0080BBBC002018BD00E054BD79
:1040200000206BBD00A062BD00A03ABD0000E1BC55
:1040300000804BBC0000983B0080683C00808E3CB8
:1040400000808F3C00800B3C0000CC3B00004ABB52
:104050000000FFBB000055BC00C084BC000033BCA6
:1040600000803DBC0000C9BB0000283A0000963B20
:1040700000808D3C0000B53C0040F43C00401D3DFC
:104080000060453D00E0633D00C0743D0040873D59
:104090000000833D0050883D00B08F3D00F0963D0C
:1040A0000000A93D00509A3D0050843D00E02E3DA7
:1040B00000001A3C0080C3BC00E069BD00B0A5BD93
:1040C00000F0C3BD0000C5BD00C0A6BD00608ABD34
:1040D00000202EBD0080D3BC000045BC0000BCBA4F
:1040E0000000903B00800C3C00006E3C00C0A23CF5
:1040F0000080D33C0080E23C0040993C00001A3B29
:104100000080A4BC00A027BD00006DBD00C084BD20
:10411000004069BD000025BD000095BC0000833B48
:104120000040A93C0040EE3C0080F03C0000BC3C5C
:1041300000801C3C0000B4BB00C0A8BC00C0FABC9E
:10414000002011BD00601BBD00E004BD0040CEBCDE
:1041500000802BBC00004A3B0040913C00C0EB3C7F
:1041600000E0223D00004B3D00A06D3D0010823D6F
:1041700000E08C3D00D08D3D00008D3D00407B3D3A
:1041800000205B3D00604D3D0060493D0080603D8A
:104190000080853D00C06B3D00802C3D00809C3C34
:1041A0000040C5BC00606EBD0020B4BD0070CBBD3A
:1041B0000070CBBD00D0A3BD000061BD0040F5BCC8
:1041C0000000803A0000283C00C0813C00807A3C1E
:1041D00000800D3C00802B3C00802D3C00C0A13CA9
:1041E0000000BA3C0000A63C0000293C00808EBCC8
:1041F00000A039BD00D092BD0060ACBD00E0A2BD02
:1042000000606EBD0000D3BC0000D83B00A0103D94
:1042100000403F3D00E0393D00C0ED3C0080113CD6
:10422000008066BC00E017BD008046BD00605FBD39
:1042300000C055BD00E036BD002005BD0080ABBC10
:10424000000046BC0000643B00806A3C0080D33C18
:1042500000E0183D00A0413D0000623D00407F3D70
:1042600000D0873D00E0883D0080833D00007B3D1D
:1042700000206F3D00606D3D00F0833D0040A53D96
:1042800000C0B93D00609B3D00604F3D0000D23B47
:1042900000204DBD0070C0BD0030F8BD0090FFBDD6
:1042A0000030D3BD00606ABD0080A6BC00803C3CED
:1042B00000000A3D00E00C3D0000EF3C0040A83C3F
:1042C0000000533C00805A3C0000D33C0060083D95
:1042D0000080F83C0080943C00C093BC00C060BDEE
:1042E00000B0B6BD0030D3BD00B0C0BD001084BD6D
:1042F00000C0A1BC0000903C00003B3D00E0503DF0
:1043000000801D3D0080673C00409BBC00A02ABD92
:10431000000056BD00C059BD00C042BD00C01ABD5E
:104320000040C5BC008067BC00008FBB0000B0B976
:1043300000007C3B0000363C00C0893C0000D13CC2
:104340000020063D00001E3D0040253D0080203D30
:104350000040163D0000073D00C01A3D0000293D09
:1043600000803C3D00A0723D0000B03D0040E83DB3
:1043700000A8073E00C0B73D0060363D0080F9BC94
:104380000030D7BD00481ABE00D024BE005004BE85
:1043900000F09ABD00009CBB00E0143D00A0713D00
:1043A0000040683D00C0E43C0000223B00803EBC71
:1043B000000014BC0000893B0040A73C0040B93C11
:1043C00000009A3B00C09BBC008087BD0030C2BD8E
:1043D0000010D3BD00F09FBD000003BD00C0A73C8E
:1043E00000D0803D00509C3D00B08F3D00C0F93CA6
:1043F000008020BC00003FBD00408BBD00A090BDF0
:1044000000407BBD00E031BD0000E1BC000019BCF4
:1044100000009ABB0000EEBB008002BC00803DBCE7
:1044200000001ABB0000DB3B0000953C0000E93CAB
:1044300000000B3D0080063D0040B73C0080B23CD0
:104440000040A33C00C0EA3C00803B3D0000893DA9
:1044500000B0BA3D0000E73D00700D3E00B0193ECF
:104460000050BA3D0000613C002094BD00F026BE23
:1044700000084EBE004041BE00E0F1BD00000EBD90
:104480000020583D0070B63D0060B23D0000773D11
:1044900000800D3C0000B5BC0080DFBC00000ABC01
:1044A0000000223C0040C13C0000953C000056BC8E
:1044B000002026BD00D092BD0080AEBD00B087BDFB
:1044C0000040E5BC0000743C00A0413D0020713D6F
:1044D0000080243D0000643C0040AFBC00A04FBD04
:1044E00000E071BD000059BD00E02ABD0000D9BC4C
:1044F000000089BC00801CBC00005EBB000090BABC
:104500000000B6BB000040BA00009A3B0000FB3B35
:1045100000804C3C00005F3C0000473C0000463CF3
:1045200000807A3C0080663C0080BA3C0040133D2D
:104530000040563D0050953D0020AE3D00F0C13D8D
:1045400000A0CA3D00D0E93D0078083E0030993D0A
:1045500000004EBB00A0B3BD00A82EBE00C048BEE8
:1045600000501FBE006076BD0040DD3C0080E43D91
:1045700000F0F23D00709C3D00809D3C00E03CBDA1
:1045800000708BBD00A05ABD004084BC0000AD3B54
:104590000040A73C0000BD3B0040AABC00A01FBDDE
:1045A00000E02DBD00E001BD00807ABC0000853B2D
:1045B00000801B3C0000883C0000743B000062BB94
:1045C0000000EEBB000070BC004083BC004092BC09
:1045D00000C08BBC0080C2BC008090BC0040A7BC67
:1045E0000080A6BC0040A2BC0000B5BC0000B5BC69
:1045F00000805CBC0000B0BB0000E8BA0000943B47
:104600000000E13B0000643B0000D83B0080393CE7
:1046100000C08B3C00400E3D00A06D3D00409B3D26
:104620000080B53D00C0BB3D0050BE3D0050C93DBF
:104630000010F83D00B8013E00401A3D00C056BDD4
:1046400000B815BE00B84EBE001040BE0050D8BD28
:104650000000D43A00C0A43D00B0EE3D0010863DFD
:104660000000603A000073BD0060A1BD00C04EBDF7
:10467000000040BB00800E3D00601F3D0080D03C2C
:10468000000053BC00C0F2BC0040C8BC0000E1BB4D
:104690000000903B000090390080E1BC00A01EBDEE
:1046A00000C021BD0080E7BC000038BB0000803C9A
:1046B0000080743C00002C3B000029BC0000E0BCE2
:1046C0000080B2BC00803DBC000074BB0000D0B9CB
:1046D00000004039000094BB0000EABB000070BA43
:1046E000000070BB00009EBB0000A9BB000016BC10
:1046F0000000C9BB00009A3B00805C3C0040C63C07
:104700000040223D00003B3D00405D3D0090893D62
:1047100000E08E3D0070A73D00F0D63D0000FD3D5D
:104720000088043E0080F63C00E091BD00081EBEFB
:1047300000403EBE009818BE00A066BD0040283D67
:104740000000AD3D0020A73D00801F3C00004ABD99
:104750000050B3BD00A083BD00C0D7BC0040853C65
:104760000000E73C0000563C0000703A0000F2BB3D
:104770000000C53B00C0023D0080373D0000E33C27
:10478000000054BC00E081BD00B094BD004030BDCD
:104790000000A53B00E0293D00804D3D0000B43CF9
:1047A00000C098BC00E041BD008078BD00A03ABDCB
:1047B00000C0CEBC000080BB0000123B0000AC3A41
:1047C000000022BB000000BB0000463B000000BB15
:1047D0000000A9BB000062BC0000A1BB0000083AB9
:1047E00000805C3C00C0A93C0080F93C00802F3D6B
:1047F0000020583D00608E3D0090A73D0020C33D45
:104800000030D13D00D0EB3D00500F3E0030C63DA2
:10481000004033BD007022BE00806BBE003052BE2F
:104820000090E0BD0040D53C0060D73D00D0FF3D8A
:104830000060873D0040C7BC009089BD00009ABD64
:1048400000C0E5BC00804A3C0080073D0000263BDC
:10485000000034BC00805ABC0080593C0060233DFD
:1048600000E05A3D00807B3C00C00EBD00B0A3BDFF
:104870000040D0BD00D08BBD0040B8BC00C0BD3CE6
:1048800000A0143D00C0CD3C00008FBC0040F2BC35
:1048900000C00EBD0040E4BC0000F0BB0000803949
:1048A0000000AD3B0000643C0040B13C00805D3C3A
:1048B0000000B83B00806BBC000007BD00801DBD40
:1048C0000040DEBC00000EBB0040A03C00401D3D8F
:1048D00000C0E53C0000D13C0080B53C0000003D3C
:1048E00000C0813D0080BB3D0070D13D0000D43D43
:1048F0000040DD3D0008033E00E0FC3D00005EBCE2
:1049000000E80DBE00C058BE00704CBE00A0FBBD4C
:104910000000083C00B0CB3D00C0F53D0060833D89
:10492000008003BD00E0A8BD00D0AFBD000013BDF6
:104930000000383B00C0D63C0080383C0000A43A60
:104940000080573C0040153D00A0483D0060483DB8
:104950000000E13B00605FBD0020CCBD0040CEBD4B
:1049600000806FBD0000AEBB00A0103D0000F93C10
:104970000000F03B0040CFBC00C021BD0040F5BCB2
:1049800000806CBC0000403A0000EE3B0000603C40
:104990000000703C0040DF3C0000AD3C0000C93B23
:1049A000000080BC008007BD0000E3BC000045BCE7
:1049B0000000653C0000E83C0020183D0040FD3C44
:1049C0000000553C0000233C0080E13C00E06E3DCF
:1049D0000050A43D0090B33D00E0BE3D00A0E23D8C
:1049E00000680A3E0030803D0050A2BD002040BE5D
:1049F00000E857BE00E015BE006013BD0000983D02
:104A00000090E03D0070A43D008049BC0080A1BD45
:104A10000030A0BD002039BD000070BB00803C3CD0
:104A20000000E03A00C0B6BC00001EBB0040B63C2F
:104A300000E0413D0000F83C000061BC001086BD74
:104A400000D0D4BD0020CEBD00A049BD0000E13B98
:104A50000000083D0040ED3C00804B3C008011BC54
:104A60000000BCBC000043BC000017BC0000983A2A
:104A70000000D83B00005F3C0080D83C00A01B3DFC
:104A80000000133D00804C3C00007EBC008021BD36
:104A900000C015BD0080B5BC000000390000FB3B24
:104AA0000000E33B0000D0B90000F0B90000E73B94
:104AB0000040C53C00202A3D00A0753D0040943DCB
:104AC0000030973D0080963D00C0BD3D0040023E55
:104AD0000088063E0000F2BB00701CBE004864BEA9
:104AE00000C83FBE0060A7BD0000123D0030BC3DC5
:104AF0000000A53D0000FB3B004094BD0010B3BD8D
:104B0000008052BD0000B6BB00805C3C0000C13B91
:104B1000000052BC000005BC00C0B73C0020243D92
:104B200000C00E3D0000003B00C03BBD0030ABBDEF
:104B30000020C1BD00B08DBD008047BC00C0B63CA8
:104B40000060023D00C0913C0000373C0000B0BB5B
:104B500000802FBC0000F2BB000092BB0000623B53
:104B600000C0893C0040E63C00E00C3D0080F63C83
:104B70000000173C00408CBC002001BD004019BD66
:104B80000040B9BC0000D8BB0000B03B0000443C72
:104B90000080673C0080973C0080CC3C00A00D3D2D
:104BA00000C0583D0050843D00B08D3D00F0963D62
:104BB00000D0C13D0030023E00F8103E00804B3D69
:104BC0000050D1BD00704FBE00F043BE0040D2BDCA
:104BD0000000603A00A0863D0010843D00007D3C4E
:104BE00000806CBD0090A7BD008055BD008039BC21
:104BF0000000B039000023BC0000CBBC0040A0BCCA
:104C00000080A43C00C0473D0080523D00005F3C56
:104C100000E000BD00406DBD00E08CBD00A06DBD9A
:104C200000C0B1BC0000263B00801F3C0000683B78
:104C30000000833B00004EBB00C082BC0040C5BCEE
:104C40000080CCBC000035BC0000D63B0040C53C19
:104C500000E0083D0000E93C0080013C00803DBCD4
:104C600000C0CDBC000008BD0000B6BC000035BCD3
:104C700000000A3B0000293C00C0A93C00C0FA3CEF
:104C800000A00D3D00E00C3D0000253D00604D3DC5
:104C90000030843D0030A43D00E0BD3D0040CC3DEF
:104CA00000D0DF3D00B0003E0070E33D004089BC15
:104CB00000901DBE006856BE00801FBE000062BD91
:104CC0000080F93C00A06A3D00C0303D00804EBC31
:104CD000004087BD00C07ABD00C0B8BC0000D63B14
:104CE0000000853B008068BC004082BC0000EC3BBB
:104CF00000A02E3D0060543D00C00D3D00008DBB66
:104D0000000059BD003099BD004090BD00402DBD50
:104D1000000078BB0040843C0080863C0000AD3B36
:104D2000000098BA000063BC0080B2BC0000C4BCA4
:104D3000000064BC0000223B0080653C00408C3CCD
:104D400000803A3C000040BA008076BC00C0CFBC76
:104D50000080D0BC004099BC0000ABBB0000B43B5D
:104D600000C0823C0040DF3C0060053D00800A3D01
:104D70000040243D00E04F3D0000833D00809B3D0E
:104D80000090B13D00D0BC3D0040D63D0000F63D56
:104D90000040053E00E0393D00D0CBBD00D047BE0D
:104DA000004032BE0070A4BD0000D83B00E03D3D95
:104DB00000800B3D000085BB00004BBD00E066BDE0
:104DC0000080B3BC0000BA3B0000903900C0A7BC13
:104DD0000080D3BC00001A3B00E0363D00606D3D12
:104DE00000E02A3D0000D0B9002014BD00A069BD3C
:104DF000002076BD00605FBD00C0EBBC008020BC21
:104E0000000090390000A1BB00006CBB00805DBCBD
:104E10000080C1BC00C0C8BC000072BC0000043CE3
:104E20000000CB3C0040E43C00C0BD3C00809F3C07
:104E300000802C3C00000000000070BC0040CDBC95
:104E40000000F9BC0000B4BC000094BB0000453C6D
:104E500000C0C53C00C0D43C0080CB3C00E01E3DFF
:104E60000080693D00A0953D0030AF3D00F0A93DB8
:104E700000F0BA3D0030E73D00680A3E0070C43DD6
:104E800000605BBD002839BE00404EBE0000EEBD94
:104E900000C0B1BC0000F93C0080B33C00004EBB38
:104EA00000E01BBD00803BBD004099BC0000B83B4A
:104EB00000000E3B0080ACBC0040C5BC0000F83ACE
:104EC0000020423D00607A3D00E0273D000046BBE7
:104ED000006001BD006045BD00E04CBD00E071BD5B
:104EE00000A081BD00002CBD00006DBC0000083C8E
:104EF00000C0913C0080293C000038BC0000C4BCCC
:104F00000000B3BC0000B0B90000643C0040923C1B
:104F10000080483C0000E93B0000DF3B0000703AA5
:104F200000005ABB000060BC0000A4BC000006BC2E
:104F30000000143C00C0D63C00000E3D0000F03CD8
:104F40000040D73C0080153D00E0483D00606B3DCF
:104F500000006C3D00C0733D0020833D0020A73D54
:104F60000050E93D00280E3E00F0B23D009091BD9A
:104F7000008843BE007835BE00F09ABD0000A93B12
:104F80000000F13C0000F0B9004082BC00C0E4BC6D
:104F90000000A7BC0000AB3B00006C3B0040A9BC7C
:104FA00000002CBD00C0CDBC0000343C0060483D7A
:104FB00000203D3D00C0993C000086BC0040D0BCB4
:104FC00000600CBD00603EBD008092BD00708BBDD6
:104FD0000080DABC0000603C0040F33C0080BC3C38
:104FE0000000DD3B000015BC0000FBBB000050BA18
:104FF00000807B3C00C0813C0080583C00807A3CB3
:1050000000C08B3C0000623C000044BB00C0AABC56
:105010000080F6BC00C0CFBC00806ABC0000D43A5F
:105020000080203C0080593C0000543C00409B3CE8
:1050300000C00A3D0060443D00E07C3D0050863DDC
:1050400000908F3D0010A23D0030C03D0040F53D76
:105050000008103E00D80D3E0040D73C00A0F9BD2E
:1050600000503CBE00A001BE0040FABC0000353C30
:10507000000098BA0000C9BC0040BEBC00C0BFBC64
:105080000000DBBB0000403B00C093BC00201CBD07
:10509000000012BD000009BC0040F53C0040303D5E
:1050A00000C0D43C0000FB3B0000F6BB004089BCC4
:1050B000008003BD001086BD0030ABBD006048BD60
:1050C00000000ABC00806C3C0000BF3B0000B0BB8D
:1050D000008088BC008011BC000000000080003C03
:1050E00000802F3C0000063C0000383C00C0A13C82
:1050F00000C0B83C0000CB3B008038BC00C0B7BC4F
:1051000000009FBC0000BABB0000623B0000D63B21
:1051100000800C3C0000613C0000BC3C0080073D6E
:1051200000401A3D0020273D00A04F3D0060663D35
:1051300000008F3D0060B43D0090E13D00F8023E6C
:1051400000A0E63D0000AEBB00F80CBE00B830BECB
:105150000040E1BD0040C1BC0000FF3B0000E5BBDA
:1051600000008FBC000036BC0000B8BB0000DB3B79
:1051700000009E3B0000C4BC004030BD006001BD8B
:105180000000BCBB0000CC3C0040F53C0000343CBF
:10519000000008BB0000FBBB008057BC00C0CDBCBA
:1051A00000C04DBD00A086BD00C02FBD000005BCE5
:1051B0000000F83B0000603A008058BC00409ABCF8
:1051C0000000E7BB00009E3B00801C3C0080003CD0
:1051D0000000D0390000CC3A00001A3C0000B03B7F
:1051E000000036BC0040F3BC002024BD004000BDE0
:1051F000008075BC000012BB00009F3B0000263CF5
:105200000080853C0080DA3C0060173D00A0263D10
:105210000060453D0000693D00D0893D0050A43D3F
:1052200000D0B43D00A0CC3D0080E63D0030FE3D06
:1052300000709C3D004096BD00C035BE005829BEA0
:105240000050A0BD000074BC004099BC008042BD6D
:1052500000E017BD00408BBC00001E3B00006F3C0F
:1052600000801CBC00A013BD00801ABD000014BC4F
:105270000080D23C0020333D0060083D00809F3C10
:1052800000803A3C0000053C0000A4BA00C0FABC13
:1052900000806BBD002050BD000088BC0000983A23
:1052A000000006BC00C0AEBC00C0A0BC000096BBA5
:1052B0000000E33B0000B23B0000163B0000A4BA34
:1052C0000000883A0080103C0000D03B008029BCE0
:1052D0000080DBBC0000F2BC0000ACBC00803EBC27
:1052E0000000A7BB000030BB0000AD3B0080293CA4
:1052F00000007E3C0000BA3C00C0CD3C0040F33CC6
:1053000000C0163D0080373D00C0673D0090953DD0
:1053100000F0A53D00D0B63D0050D63D00A0E83DD0
:1053200000C0863D00308CBD004819BE00A0FBBD0A
:1053300000004FBD000009BC0000EABC00804DBD6C
:1053400000C0ECBC000098BA00808D3C0000443CDA
:10535000000080BC000030BD00C00EBD0000BDBB21
:1053600000804D3C0080963C0080103C00801E3C3C
:105370000080783C00805D3C00001ABB0040DCBC33
:1053800000A04CBD002027BD00809DBC000070BC6B
:1053900000C0EBBC002005BD00C090BC00008B3BF2
:1053A0000080973C00803B3C00007C3B00006CBBD5
:1053B00000006C3B0080393C0000083C000070BBE2
:1053C00000805ABC000044BC0000A9BB0000AC3AFD
:1053D0000000383A0000343B0000D43B0000043C9D
:1053E0000000423C0000543C0000463C0040983C19
:1053F00000C0CC3C00400B3D00203A3D0000643D25
:1054000000E08A3D0080943D00C0B03D0090D43D56
:1054100000F0D03D0000D03B00C0D9BD00F009BE77
:1054200000D096BD0080ABBC004094BC004034BDB1
:1054300000A01FBD000092BB0080653C0080683C5E
:105440000000A3BB006009BD00A009BD000046BB71
:105450000000893C0000DB3C0080A63C00809E3CB4
:105460000080C43C0000863C000098BA0080BABCB2
:1054700000C06BBD00607CBD00C02BBD00C0CEBCB9
:10548000008003BD00201CBD00809EBC0080103C3D
:1054900000008F3C0000F03B000094BB00001ABBF2
:1054A0000000DB3B00803A3C0000FD3B0000FBBB02
:1054B000000095BC000072BC000038BB0000983AA8
:1054C000000094BB000016BC000000BB0000183CAC
:1054D0000000903C00808E3C00804C3C0040B83C7A
:1054E00000001A3D00006C3D00E0883D00D0923D78
:1054F0000060963D0010A63D00D0C13D0070DE3D2D
:105500000070BE3D00C0E5BC00800BBE00E00ABEDE
:1055100000508FBD004000BD002023BD00D08BBDDA
:10552000006032BD000030BB00805A3C0000D43B1C
:10553000008065BC00A001BD00007CBC00408C3C2C
:105540000040123D0040153D0080F93C00E0003D68
:105550000080033D0000C53C0000563B00C0AABCD3
:1055600000E04BBD00C056BD000021BD00E00BBDFA
:1055700000C012BD00000ABD00804EBC0000BF3B51
:105580000000123B00801CBC008077BC008069BC1E
:105590000000F0BB0000C4BA0000ECBB000017BC68
:1055A000008077BC004082BC000027BC00000ABC21
:1055B0000000F8BB00005EBB00000ABB0000D8BAC8
:1055C0000000563B000008BB0000BCBA0000DF3BF7
:1055D0000040A73C00E0183D00C03A3D00404E3D71
:1055E00000A0723D00C0973D0080BB3D0040D43D0F
:1055F00000C0E43D0060BD3D00009EBB0060B6BD44
:105600000070C7BD006049BD0040B9BC00E02ABDC4
:10561000001086BD000044BD004091BC000013BCDA
:10562000008059BC0040C8BC0000E1BC000051BC77
:105630000000343C00C0B73C00C0B93C0000B53CA1
:105640000040CE3C0080EA3C0000903C00802FBC33
:10565000000008BD002045BD00000FBD000046BC95
:10566000008075BC0080ABBC00C099BC000038BB9A
:105670000000C33B008000BC004091BC008077BCB0
:10568000000085BB0000743B0000B43B0000D4BAAE
:10569000000090BB0000F0BA0000703A00009FBB11
:1056A000008068BC0080A4BC00C08BBC008011BC22
:1056B0000000E3BB008029BC000034BB0000193CA3
:1056C0000080EF3C0000253D0060363D00202F3D6E
:1056D0000000653D00F0903D0080AE3D0040C73DBC
:1056E00000E0DE3D0090E33D0040473D00D080BD3E
:1056F00000B0C9BD000068BD0080C2BC0000F8BC9D
:1057000000407FBD005086BD0000E1BC0000C5BB6D
:105710000000D83A00000EBB00803FBC00000ABC6D
:105720000080763C0040E33C0000EF3C00009F3CE2
:1057300000006E3C0080B53C00804B3C0000C3BBC9
:105740000080D9BC00803EBD00003CBD0080E9BCAB
:10575000008086BC0040C8BC00A018BD002001BD70
:10576000004085BC00805ABC000090BC0000B6BC64
:105770000000E5BB0000BC3B0000813C00004F3C4A
:1057800000008B3B000080BA0000F0BA000056BB5E
:105790000000C3BB00803BBC004094BC00808EBCBA
:1057A00000804DBC0000F8BB00002CBB00008D3B0E
:1057B00000805D3C0000F73C00A0143D00401D3D12
:1057C00000E03C3D00E05A3D0000833D0050933D29
:1057D0000060A33D0060B63D0080CA3D0060983D7A
:1057E0000040A1BC00C0AABD00609BBD006036BDEA
:1057F00000E02DBD009087BD00A0A4BD00202BBD02
:1058000000808DBC0000B0B90000AB3B0000803AC6
:105810000000B4BA00807B3C0040DE3C00800B3DC1
:1058200000C0CF3C0000A73C0040C03C00C0B83CDA
:105830000080383C000046BB000052BC00C0C7BC22
:105840000040E3BC0000D2BC002015BD00603DBD9F
:10585000004043BD006022BD00C0FCBC006009BD2B
:10586000002005BD004093BC008002BC00008FBB3F
:105870000000DBBB000074BC000064BC00800EBCF8
:10588000000098BB00800BBC0000CABC0080E1BCDB
:10589000004094BC0000B2BB000028BA000090B9E0
:1058A000000080380080113C0000A53C0060173DDE
:1058B00000402C3D00A0403D0060573D00A05E3DF3
:1058C0000080703D00A0853D00E09F3D00A0C43DEC
:1058D00000B0D63D0040CA3D00C0A03C004073BDB2
:1058E00000409FBD002039BD0080EEBC006031BD8E
:1058F000001080BD00203EBD0040C0BC000038BC90
:105900000000F4BB0000ADBB008059BC00804CBC63
:1059100000009C3A00007D3C0040B63C0080CA3C40
:105920000040033D0060173D00A0013D0040823C67
:1059300000009C3B00806BBC0040CDBC00C0DBBCC9
:1059400000C0FBBC00801ABD002027BD00C0F5BC14
:105950000080BDBC00C0B9BC0080CBBC0000ACBCAA
:10596000008097BC0080A3BC0000B3BC008097BC43
:10597000008076BC00802CBC00802ABC00004FBC9C
:1059800000805ABC000019BC0000D2BB00008BBBD9
:1059900000800DBC008012BC0000F0B900802C3CDF
:1059A0000040A83C0020053D0060143D00E0273D7C
:1059B00000603D3D0020543D00805C3D0000743D92
:1059C0000050843D0060A33D0040AC3D00D0AD3DA3
:1059D00000208D3D0000613C0000DABC00C0F2BC3C
:1059E000008030BC008047BC000004BD00C04EBD3C
:1059F00000E02EBD00C0F2BC0000C5BC0040B2BC3F
:105A000000C0B7BC00C0CEBC00C089BC0000B43A26
:105A10000080AB3C0000F03C0080E03C0000D43C47
:105A200000C0CC3C00007F3C0000C4BA00006DBC4C
:105A3000004006BD00400BBD00800ABD00E004BD73
:105A40000080FFBC0080FDBC008007BD0040ECBCB6
:105A50000080F9BC000004BD0000F0BC0080F6BC72
:105A600000C002BD0000DABC000071BC00000BBC2D
:105A70000000ABBB000004BB000004BB0000F0B999
:105A80000000D8BA0000B4BA00008F3B0080023C8E
:105A900000802A3C0080813C00C0833C0040B13C37
:105AA00000C0E33C0000043D0080153D0040123D75
:105AB00000400A3D00E0053D0000FF3C00A0103D15
:105AC00000C0493D0020893D00A0AA3D0080B23DB4
:105AD00000708D3D0080BB3C000012BB0000B03B5D
:105AE0000000743C0000683B008076BC00800BBD69
:105AF000004003BD0000D9BC00C083BC008039BC9D
:105B000000802FBC008078BC000042BC000070BA4E
:105B100000801E3C0080753C0000EC3B00003C3BDC
:105B2000000040B900000EBB000045BC0040A3BC13
:105B3000002001BD002010BD008011BD00E001BDAE
:105B400000E00BBD006010BD00A014BD004006BD0C
:105B50000040EBBC0080CCBC0000B3BC00C089BCE2
:105B6000000060BC000036BC0000D0BB000056BB8B
:105B700000000ABB000000B90000B2BB000034BB4B
:105B80000000BCBB00004EBB0000603A0000093CB6
:105B90000080773C0080B43C0040C73C00C0E63C3D
:105BA0000080E83C0000E83C00C0FA3C0080FD3C7E
:105BB00000600C3D00202B3D0060573D0060893D9A
:105BC0000090A03D0090BA3D00C0BD3D00B0983DA2
:105BD0000000283D0060103D00A00F3D00C0ED3CDE
:105BE0000080013C000024BC0080D2BC0040EBBC23
:105BF000002011BD000012BD00E00FBD006010BD0F
:105C000000C034BD00803BBD000025BD0080E7BC66
:105C10000040AFBC0000A6BC0040D6BC0040B8BCF1
:105C20000000ACBC00803CBC0000F2BB000006BC25
:105C3000008000BC000089BB00002CBB00009CBBA6
:105C4000000025BC00805CBC008087BC0000A6BCB6
:105C500000C0B8BC0000E1BC00800EBD0040FCBC30
:105C600000C0DCBC0040B2BC0000AEBC0000BBBC4D
:105C70000080CCBC0000A4BC008088BC000046BCF6
:105C8000008010BC000013BC0000CEBB0000083B2D
:105C90000080563C0000D43C0020113D0080383D7F
:105CA00000C04E3D0080593D00006D3D0030803DFC
:105CB00000C0933D0000A33D00B0AD3D0020B83DC5
:105CC00000E0B93D00B0B83D0040743D00001D3D0E
:105CD00000E0273D0000193D0000813C000008BCA9
:105CE00000C003BD000029BD00003CBD00204CBD2C
:105CF00000E048BD00A03DBD002045BD00A040BD66
:105D000000601BBD0000E2BC000062BC000031BCB2
:105D1000000031BC0000ABBB0000463B00805A3C99
:105D20000000963C00001A3C000050BA0000D0B9B8
:105D300000000A3B0000CC3A0000B4BA00800EBC60
:105D40000040A0BC0080ACBC0080ACBC0000C2BC69
:105D50000080EABC00C02FBD00C047BD00803CBD34
:105D6000008025BD000017BD006014BD000019BDF6
:105D7000008003BD0000DBBC008090BC00803BBC09
:105D80000000DFBB000092BB0000263C0000B63CD8
:105D90000040F53C0060143D00201C3D00E0383D13
:105DA0000080603D00A06A3D00C05C3D0080603D19
:105DB00000606D3D0060813D00708D3D00B09A3DFA
:105DC0000020A13D0010A43D0070983D0060533DAF
:105DD0000080C33C00809C3C0040983C0000F93BA4
:105DE000008029BC0000C9BC000004BD00000ABD41
:105DF00000C01DBD00001ABD000021BD00E02EBD89
:105E000000602BBD0080DFBC00006DBC00007CBBCF
:105E10000000ACBA000012BB000090B90000963B35
:105E20000000AB3B0000223B000027BC008087BC89
