:020000042000DA
:04035C0000787FBFE7
:100360000028DEBE0050B13D00B0E53D0060E13D3B
:100370000020D93D0070CF3D0010CA3D00F0C53DC2
:100380000090C23D00E0BE3D0030BC3D00B0B83D35
:100390000090B63D0070B33D00A0B03D0030AD3DD3
:1003A0000080AA3D00C0A83D0060A53D0000A33D1F
:1003B0000030A03D00809D3D00D09A3D0080993DD9
:1003C0000060963D00D0923D00C0903D00A08E3D63
:1003D00000808C3D00508A3D0030883D00A0813D6A
:1003E00000E0813D0080813D00807F3D00C07A3D7E
:1003F00000E0743D0020723D00A06E3D00C0673DEE
:100400000040643D0000623D00805C3D00C0593DFD
:1004100000A0573D00A0543D00004F3D00E04B3D83
:100420000020483D0040463D00E0403D00C03F3DCB
:1004300000403C3D0080383D00A0363D0080343D0A
:100440000000313D00202E3D00C0293D0060273DC9
:100450000080243D0080213D00401E3D00C01C3D29
:1004600000801A3D0000163D0000133D0000123DC3
:1004700000E00B3D00400B3D00A0093D00E0093DC0
:1004800000C0063D0080033D00C0FC3C00C0FB3CBA
:100490000000F63C0000F23C0040EE3C0040ED3C29
:1004A0000000E83C0040E43C00C0DB3C0040DE3C97
:1004B00000C0DD3C00C0D43C00004ABD0080C4BD8B
:1004C0000020ACBD00E093BD00C065BD006045BD2F
:1004D000004016BD0040E4BC00408CBC000025BCC0
:1004E000000080BB00009C3B0040993C00C0C83C21
:1004F0000040003D0040223D00803F3D0020603D27
:1005000000007C3D00B08D3D0000963D00C0A63D42
:1005100000B0AB3D0090B13D0090B83D0060BB3DE8
:100520000010BE3D00E0C83D0030DC3D00A0E03DD5
:100530000070E53D0000E73D00C0EA3D0070F43D7D
:1005400000D0F43D0050ED3D00A0F33D0040EE3DF5
:100550000040EE3D0050ED3D0070F13D0050F63D95
:100560000000F93D0080FB3D0000FB3D00F8033E2C
:1005700000D0073E00480A3E00780B3E00900B3E3C
:1005800000C00E3E00A8103E00E8113E0078193E63
:1005900000A81F3E00701B3E0010183E00581C3E75
:1005A00000D8203E00301F3E00E01B3E00F0193E08
:1005B00000B01C3E00F81D3E00901A3E00C0163EE2
:1005C00000B0173E0020133E00580C3E00B00B3E1A
:1005D0000020083E00E8033E00D0FF3D00C0FC3D87
:1005E0000090F43D0050F43D0060EE3D0040EE3DD3
:1005F0000060EE3D0070E93D00E0D93D0080DD3D4A
:1006000000E0E03D00C0E03D0000D43D0050C93DA9
:100610000050C23D0020C73D0070C43D0050C23DA7
:100620000010C03D0010C63D00F0BF3D0070C23D4F
:100630000010BC3D0030BA3D00D0B83D00F0B03DE8
:100640000060A83D0080B03D0020AE3D0030A83DD8
:100650000000A13D0070A43D0070A03D0090A23DAF
:1006600000009C3D00308F3D00108A3D00B0803D71
:100670000040693D00C0703D0070823D0070823DC9
:100680000090843D0080783D0050823D00E0843D34
:1006900000308C3D0070893D00C0933D0030913D9D
:1006A00000109B3D00509E3D0060A73D0040A93DCD
:1006B0000020AB3D0050A03D0030993D0020923D10
:1006C00000D08D3D0050823D00607A3D0040693D84
:1006D0000080613D00E0563D0060503D00404E3DD1
:1006E00000C03E3D0040383D00202F3D00A02B3D86
:1006F00000E02A3D0060223D00E0143D00601C3D0A
:1007000000000E3D00E0083D0000F13C00C0E63C6A
:100710000000E03C0000D93C0000E03C0000F03C60
:1007200000C00B3D0040003D0000043D00800A3D3C
:1007300000400B3D0080F93C0000D13C0000CA3C69
:100740000040C53C0040C53C00C0BE3C0080D83CD9
:1007500000C0CE3C0080AB3C0000A73C00008D3CBC
:1007600000C0823C00805C3C0080583C00007D3C26
:100770000080783C00C0833C0080853C0040B03C59
:100780000040B63C0000B43C00C0BD3C00C0C63CCC
:100790000040E43C0040F53C00C0063D00E0103D58
:1007A00000E0233D00802C3D0080153D0060113DA0
:1007B00000C0FA3C0040EC3C0000DA3C0080AB3C5E
:1007C0000000953C0000AD3C0040C83C00C0B63C79
:1007D0000000AC3C0000AD3C0000A43C00C0993CD3
:1007E0000080563C0080573C0080293C0080293C1A
:1007F0000000E93B0080023C0080293C00802B3C4B
:100800000080483C0080593C00805A3C0080483CB5
:100810000000473C0000333C0000233C0000073C44
:100820000000EC3B0000AE3B00001E3B0000B4BAF1
:100830000000CCBB008038BC00806CBC00008DBCCC
:1008400000C092BC0080B5BC00C0B0BC004098BCE9
:10085000000080BC00005EBC00004FBC000094BBE8
:10086000000000390000813B0000853B00800F3C08
:100870000000453C0080903C00009D3C0000A73CEF
:100880000000AE3C0080A43C0040C03C00C0DE3C08
:100890000040CD3C0040DD3C0080CB3C0000D43C1F
:1008A0000000BA3C0040A83C0040AA3C0080943CB8
:1008B0000080783C0000173C0000DB3B0000AE3BB2
:1008C0000000163B0000223B000026BB000098BB46
:1008D0000000D4BB000038BB0000AC3A00000000B0
:1008E0000000F0BA0000B0390000163B00006C3B7D
:1008F0000000DA3B00801F3C00804C3C0000283C9C
:100900000000F83B0000DF3B0000073C00803C3C5F
:100910000000DF3B0000383A000026BB000090BB1F
:100920000000E9BB00802DBC00007EBC000095BC2F
:1009300000C0A9BC0000C4BC0000D2BC006001BD66
:10094000006017BD000013BD000016BD00A00DBD66
:10095000008006BD0040F5BC0080C4BC000088BC1F
:10096000008039BC00801CBC00009CBB0000A4BA05
:100970000000A43A0000D63B0000553C0000A63C15
:100980000040D73C0080EE3C00A0043D00400B3D01
:1009900000800F3D00A0083D00C0033D0040EB3C3F
:1009A0000080C43C00C0AE3C0080BA3C0000B43CB7
:1009B00000C0AF3C0080853C00802E3C0000B63B70
:1009C0000000AE3B0000C43A0000803A0000F0B9DD
:1009D0000000F0B9000028BB000089BB000046BB46
:1009E0000000D8BA000034BB0000FFBB0000EEBB23
:1009F0000000BFBB000007BC000004BC000015BC29
:100A00000000ADBB0000F0BB0000E3BB0000C3BBB7
:100A10000000B8BB00008FBB0000C1BB000006BCDB
:100A20000000E9BB0000A3BB0000E1BB00800FBCDD
:100A3000000027BC00802BBC000038BC000033BC89
:100A4000008047BC008047BC000034BC000047BCAD
:100A5000000022BC00801BBC00800BBC008010BCCE
:100A6000000005BC0000C5BB000005BC0000E3BBE6
:100A70000000D0BB000028BB000040390000E03A75
:100A80000000643B0000403B00006C3B0000E33B87
:100A90000000F23B00801C3C0000EC3B0080213C4D
:100AA0000080673C00C0A13C0000BC3C0000BC3C96
:100AB0000080CC3C0000E03C0040E63C00C0EC3C48
:100AC0000080EA3C0040DE3C0040D43C0040DE3C7C
:100AD0000000E73C00C0DD3C0080CB3C0080AC3C2B
:100AE0000040933C0000613C0000133C000008BA49
:100AF0000000BDBB008059BC0080ABBC0080DABCEC
:100B00000040FABC00C003BD00E00BBD006010BD9A
:100B1000008015BD006011BD00800ABD00C003BD8E
:100B20000000F8BC0040FBBC0080F9BC0000E7BC42
:100B30000040D6BC0080ACBC004093BC00802BBC05
:100B4000000028BB0000223B0000143C0080383C21
:100B50000080873C00C0AA3C0000BA3C0000CA3CB0
:100B60000080BA3C0080B33C0000AC3C0080B23C4A
:100B700000C0B63C0040A33C0080873C0000433CE2
:100B800000800C3C0000BA3B00001E3B0000F03A25
:100B900000009CBA0000ACBA000038BB000081BB6A
:100BA000000070BB000030BB0000B6BB000085BB7E
:100BB00000009CBB000052BB0000F0BA0000ACBAC1
:100BC000000098BA0000303B0080033C0000363C37
:100BD00000C0833C00408C3C0080963C00C0A03CA0
:100BE0000080A63C00C0A23C0040913C00005E3C5E
:100BF0000000083C00000E3B000080B8000000BB75
:100C000000004ABB000092BB00800CBC00800FBCFF
:100C100000802ABC000070BC00009EBC0000C3BC69
:100C20000000DABC0080F8BC0040F5BC0080F7BCD6
:100C30000040FBBC0000E7BC0080DFBC0080D8BCEB
:100C40000000D3BC00C0B1BC00409BBC00408BBCCA
:100C500000804CBC00000ABC00004ABB0000F0B998
:100C60000000833B0000073C00802C3C0000343C2B
:100C70000080693C00408C3C00C0A93C0080BA3C2C
:100C80000040D63C0080DF3C0000E33C0000D83C44
:100C90000080CA3C00C0AF3C0040A33C0000883C40
:100CA0000000703C0000413C00801B3C0000FF3B0A
:100CB0000000BC3B0000FB3B0000183C0000DD3B9B
:100CC0000000923B0000E83A0000B039000000B993
:100CD00000000000000088BA000022BB00009ABBA0
:100CE0000000A1BB00008DBB00009ABB0000B0BBA0
:100CF0000000AEBB0000ADBB0000C1BB00009ABB52
:100D000000009EBB00800CBC00800BBC000035BC0A
:100D1000000033BC000045BC004083BC00007EBC2A
:100D2000008087BC008088BC0000A7BC00C09FBCBE
:100D3000008077BC00009FBC00C09BBC0080A3BCAF
:100D400000008DBC00C089BC00009FBC004091BC6D
:100D5000008058BC00801FBC0000E1BB00004EBBFF
:100D6000000008BA0000E8BA0000A73B00009A3B68
:100D70000000313C00007D3C00807A3C0040993C02
:100D800000809E3C00C0E33C0040FA3C00C00A3DAD
:100D90000060043D0020013D00E0013D0000003DF9
:100DA0000000033D0020023D0080EA3C0000C93CF9
:100DB0000000A43C0000883C0000263C00000A3CE7
:100DC0000000983A0000083B0000ACBA0000C7BB26
:100DD0000000B4BB00000ABC0000EEBB000098BBE2
:100DE0000000F9BB0000B8BB00801ABC008047BC03
:100DF000000041BC00802BBC000051BC00005FBC67
:100E0000008058BC004085BC00C0B0BC00C09BBC8A
:100E10000040A1BC008077BC00C083BC000050BC77
:100E2000008047BC00803EBC000008BC00801BBCAA
:100E30000000BFBB0000BDBB00800FBC0000E9BBD1
:100E40000000FFBB000026BC00001ABC000014BC60
:100E5000000009BC0000C9BB0000F4BB008000BC5E
:100E60000000B2BB000090BB000034BB000028BAF9
:100E70000000383A0000873B0000DD3B0000FD3BEE
:100E80000000273C0080743C00809F3C0000B53C83
:100E90000040C63C00C0DD3C0080E93C00C0F43CA2
:100EA0000020023D0020103D00A0083D00E00F3D65
:100EB0000060113D00A0003D0080F83C0040E53C92
:100EC0000080D93C00C0BF3C00409A3C0000503C30
:100ED0000000153C0000A33B000080390000ACBAC4
:100EE000000089BB0000FFBB000044BC00806BBC5D
:100EF000004094BC008090BC000095BC0040A2BCA7
:100F000000C0B1BC00C0BDBC0000B5BC0080A4BC2A
:100F10000080ADBC00C09FBC008086BC00808FBC40
:100F200000C09ABC0080A4BC008096BC00007FBCBE
:100F3000008059BC000016BC008021BC000017BC1A
:100F4000000080BA0000803900008D3B0080023C28
:100F50000000FF3B0000093C0000153C0000163C6F
:100F60000000323C00802E3C0000343C0000DF3B9F
:100F70000000FB3B0000243C0080293C0000473C73
:100F80000000713C00803F3C0000383C00805D3C2C
:100F90000000603C0040943C0080973C0000B33C63
:100FA0000080B23C0080A43C0040B73C00C0B93C8B
:100FB0000000C53C0000A63C00C0A83C00408A3CA4
:100FC0000080653C00801C3C0000E73B0000B03B1B
:100FD00000009C3B0000F03A000040BA000080BADC
:100FE000000080BB0000E7BB000019BC00004FBC44
:100FF000000065BC004085BC00808FBC00C099BC6F
:1010000000009DBC00408BBC00809EBC004098BC92
:101010000040B6BC0000BDBC0000ACBC0040AABC97
:101020000040AABC00009DBC008088BC00806CBC55
:10103000000061BC000027BC000094BB000090BB16
:10104000000046BB0000F0BA000090390000563B9B
:101050000000A93B0000CE3B00800F3C00801A3C02
:101060000000173C00801B3C0000363C00802D3CFB
:1010700000804B3C0000523C00005F3C0080793C0B
:101080000000553C0080753C0000813C0040853CE0
:1010900000009E3C00C0903C00C08A3C0080803C28
:1010A0000080803C0080873C0000623C00803D3C2A
:1010B0000080203C00801F3C0080473C0000463CF4
:1010C0000000383C0000373C0080103C0000C93B69
:1010D0000000443B0000CC3A000090B9000040BB47
:1010E0000000A1BB00800BBC008010BC000031BC24
:1010F000008039BC000046BC00804BBC000027BC0F
:10110000000054BC00408CBC0000ADBC0000A4BC7E
:1011100000009CBC00009DBC000097BC00C0A1BCAE
:10112000008094BC00408ABC008068BC00802DBC5C
:10113000000019BC0000EABB000044BB0000C4BAB8
:101140000000F0B900002C3B0000383B00004E3B93
:1011500000009C3B0000DD3B0000F93B00801B3C95
:101160000000233C0000473C0000813C0080863C9E
:101170000000743C0040843C0080683C00807B3C64
:1011800000804E3C00806C3C00803D3C0000423CB6
:101190000000433C00803F3C0000323C0000323CF9
:1011A0000000143C0080293C0000133C0000193C66
:1011B0000000053C0000C53B0000A33B0000D83BFD
:1011C0000000D63B0000223B0000803A00000000F7
:1011D000000038BA000008BA0000383A0000883A27
:1011E00000003CBB0000A1BB0000A3BB0000ADBBE6
:1011F000000004BC00801EBC000034BC000046BCE3
:10120000000050BC008069BC00006FBC00005EBCE8
:10121000008068BC008065BC00804ABC000040BC07
:1012200000804BBC000033BC000014BC0000F4BBC9
:101230000000C5BB000068BB000089BB0000C4BA49
:10124000000000000000BC3A00009A3B0000903B08
:1012500000008B3B0000DD3B0000E13B0000273C31
:101260000000413C0080493C0000503C00806A3C4A
:1012700000408A3C00C0923C0080A43C00C0AA3CD4
:101280000000AC3C00C0A83C0000AE3C00009D3C0F
:1012900000809C3C00C0923C0000643C0000553C37
:1012A00000801F3C00801B3C0000073C0000CC3B42
:1012B00000005E3B0000903A000090BA000070BA57
:1012C000000026BB000096BB000070BB00009ABB6C
:1012D0000000E9BB000008BC00800EBC00800DBC13
:1012E000008020BC000019BC008029BC00000BBCA1
:1012F000000004BC000029BC000018BC0000F9BBC1
:101300000000EEBB0000EEBB000006BC0000DDBB31
:1013100000008FBB00008FBB00008FBB0000BDBB77
:10132000000090BB00007CBB000012BB00006CBB47
:10133000000038BB000022BB000038BA0000C43AED
:101340000000983A000040390000083A0000403997
:101350000000CC3A0000D43A0000703B0000703A24
:101360000000123B00008D3B0000A93B0000E33B66
:101370000000223C00805A3C0000613C0040823C5E
:1013800000808D3C0080A43C0040C13C0040C03C3B
:1013900000C0BF3C0080B53C0080C43C00C0BF3CE6
:1013A0000080BA3C0000B63C00C0913C00C08C3CC0
:1013B0000080583C0000383C0000C93B0000223B44
:1013C0000000E8BA0000C5BB008002BC000028BCD9
:1013D000008069BC00806CBC000071BC008066BCF1
:1013E000000052BC008069BC00804EBC00801FBC65
:1013F000000035BC000029BC008012BC000015BCF8
:1014000000801EBC000013BC00000ABC000009BC28
:101410000000FDBB0000CEBB0000CCBB0000DBBB6E
:101420000000D4BB000062BB000060BA0000B4BA88
:10143000000080BA000080390000F0B90000503A86
:101440000000263B00009C3A0000D43A000018BA85
:10145000000000390000123B0000F83A0000743B25
:101460000000A73B0000073C0080383C00806C3C3B
:1014700000008D3C0080943C0040AA3C0080AE3CC3
:101480000040A03C0040983C0040933C00809E3CC3
:101490000040B23C0080953C0080803C00806C3C69
:1014A00000804B3C00802B3C0000143C0000183CAA
:1014B0000000E73B0000B03B00000A3B0000C43ADC
:1014C0000000AC3A000000B9000098BA000046BB2A
:1014D0000000C3BB008020BC00802CBC000055BCB9
:1014E000004085BC004083BC008085BC000081BCFE
:1014F000008086BC008081BC008081BC008075BCFF
:10150000000080BC000040BC00803ABC00803BBCB6
:10151000000046BC000017BC00001ABC0000F6BB6F
:101520000000E7BB0000B6BB000090BB0000CCBAD7
:101530000000F0390000303B0000923B0000D83B37
:101540000000F93B00802F3C0080123C00800F3CE3
:1015500000802B3C00801C3C0000DD3B0000053C73
:101560000080033C0000E93B0000EC3B0000D63B60
:101570000000BA3B0000DA3B0000073C0000383CAA
:1015800000805A3C0000553C0000353C00801B3C6C
:1015900000800E3C00000A3C0000E13B0000E53BFF
:1015A0000000FD3B0000FD3B00000A3C0000143C35
:1015B0000080393C00006D3C0080663C0000743CBB
:1015C00000804D3C00802D3C0000083C0000DB3BCF
:1015D00000006C3B0000000000005ABB0000BFBBD5
:1015E0000000DBBB008021BC000029BC00005EBC09
:1015F00000007CBC008079BC00408BBC004098BCE3
:101600000080A6BC0040A8BC0000B3BC0000BDBC6C
:101610000040A9BC00C0A1BC008095BC00C090BC2B
:10162000008076BC00801DBC0000ADBB0000A4BAE9
:101630000000983A0000BF3B0000E93B0000183C66
:1016400000005F3C0080653C0000713C0000813C74
:101650000080753C0080673C0000373C00801F3CE8
:101660000000283C0000143C0080003C0000DD3BF2
:101670000000FF3B0000D63B00009F3B0000A73B63
:101680000000893B00008F3B0000A93B0000B83BF5
:1016900000008F3B0000943B00009A3B00009C3B05
:1016A0000000DB3B0000F63B0080113C0000053CE5
:1016B0000000FD3B0000FF3B0000B43B0000A53BE9
:1016C0000000743B0000803B0000893B0000943B1D
:1016D0000000963B00001E3B0000383A000040BB73
:1016E000000053BC0000B0BB0000643B000031BCF4
:1016F00000409ABC0000FDBB004082BC008096BC4C
:10170000000094BB000041BC00C0A9BC0040A8BCC4
:101710000040B7BC00804CBC0000BABB00805CBC81
:1017200000C0A8BC00C091BC00006FBC0000923B90
:101730000000683B00008DBB0000BDBB0000283BE3
:1017400000803CBC0000043C0040DF3C0000CB3C7F
:101750000000CEBB0000FD3B0040A93C0080773C70
:101760000080AD3C0040B63C0000DD3B000030BBDB
:101770000000853B0040C83C00809D3C0040993CF7
:10178000000090B9008021BC0000F0BB0040A73CE5
:101790000000643C0000D83B0000343B000080B9EE
:1017A0000000F6BB000004BC0000353C0000703CAB
:1017B0000080003C0000FFBB0000C9BB0080293C4A
:1017C0000000223C0000253C0000E13B008068BC9A
:1017D00000008B3B00409B3C0000A93B00007CBB11
:1017E0000000563C00008D3B00005ABB0000B8BB17
:1017F0000000083C000062BB00408BBC0080023C43
:101800000000853B000008BC0000803B000017BCC6
:10181000000074BC000094BB0000563B0000983BE5
:10182000000027BC0040A0BC00001ABC000051BC56
:10183000000044BB0000D0B900009CBB0000173C76
:1018400000C0AA3C0000BD3B000080380000A73B60
:1018500000801A3C0000EA3B0000143C00C0F93C48
:101860000080BD3C0000DABC00000ABC0080063DE0
:101870000080783C000000BB00805C3C00806B3C3A
:101880000000BA3B0000E73B000070BA0000C5BB97
:10189000000029BC0000B23B0000F23B00801D3C70
:1018A0000000C43A00806ABC008095BC00C0A83C1F
:1018B00000C0113D0000283C00009EBB000083BB1F
:1018C0000000003B0000B83B000096BB00009CBA43
:1018D000000098BA0080693C0000513C0000A13B28
:1018E000000090BB0000F0B90080213C0000363CB5
:1018F0000000BFBB0000083B00802B3C0000A4BCE4
:10190000000088BC0000D83A0000F83A00009A3B7A
:1019100000C08B3C0000623B0000F0BA0000ABBB93
:10192000000052BB0000A7BB0000E5BB0000093C63
:1019300000807A3C000012BB000038BB00001A3C5B
:101940000000383B0000563B00800F3C0000873B06
:101950000000E33B0080303C000040390000CCBA7E
:101960000000BA3B0080683C0080493C00007C3BA2
:1019700000802D3C0040B03C0000F63B00802DBCB8
:1019800000802DBC0000C4BA0080213C00800C3CCB
:1019900000006E3C0000883A000090BC000023BCB0
:1019A0000000A7BB00008038000009BC008058BCC4
:1019B000000022BB00000B3C0000BA3B000068BBEB
:1019C00000005EBB0000A5BB00804EBC00004ABB0F
:1019D00000804E3C0000CB3B0000C13B0000C53BFB
:1019E0000000B83B000050BA00800D3C0000FF3BF7
:1019F0000000B2BB0000503A0000F83B0080693C98
:101A00000000423C00009F3B0000DF3B00008B3B9E
:101A100000009CBA00004EBB0000EE3B0080BA3CC8
:101A200000803F3C0000B0B90000CC3A000080BB11
:101A3000000090B90000BA3B0000443C0000C93BE4
:101A400000009C3B0000D4BA000028BB0000403BD3
:101A500000007F3C0000E93B0000903B0000B039F3
:101A60000000A13B0000523B0000D4BA0000983AAD
:101A70000000B0BB00803ABC0000F23B0080773C25
:101A800000805D3C0000303B000037BC00C0EABC79
:101A9000000095BC00006C3B0000983B0000283A19
:101AA000000038BB0000A7BB000050BA0000DF3BBD
:101AB0000000BCBB004098BC0000343B00009D3CD3
:101AC0000000273C0000BD3B0000343B00808DBC83
:101AD000000006BC0000193C0080123C0000623B84
:101AE00000000E3B0000283A0000813C00802C3CA6
:101AF000008012BC00807BBC0000F8BA0000853B6F
:101B00000000B23B00009D3C0000283A000040BCB1
:101B100000008DBB000090B90000D0B900008DBB63
:101B2000000000000000003B0000C5BB000044BBFB
:101B30000080693C0000983B00804BBC000080BAEC
:101B400000804E3C0080653C00004F3C0000F03BB4
:101B50000000DDBB000030BB00804E3C0000D23CEA
:101B60000000403C00009C3B00008B3B0000613CBF
:101B700000803B3C0000783B0000D03900001A3B5D
:101B80000000943B000080390000853B00000ABB48
:101B90000000803900008F3B000000B9000074BBDA
:101BA000000024BC00808FBC000016BC000040BABE
:101BB000000034BB00004FBC0000FFBB000096BB20
:101BC00000001A3B0000B03B0000283B00800FBC27
:101BD000008011BC0000B4BA00003CBB00005ABB3E
:101BE0000000E1BB00805A3C0040DC3C00807B3CB4
:101BF0000000AD3B00004A3B0000BABB0000123BB6
:101C000000802F3C0000443C0000FB3B0000093CEE
:101C10000000CC3B0000643B0000983A0000DBBBB6
:101C20000000C9BB000092BB00006CBB0000CC3BB5
:101C30000000B43B00009A3B0000CC3B0000BC3AE3
:101C400000005E3B00004A3B0000893B0000A33BD4
:101C50000000F83A000080B80000813B0000963B8D
:101C60000000A13B0000083B0000303B0000603A50
:101C7000000096BB0000B0B90000BA3B0000F03B8A
:101C80000000923B0000F03A00000BBC0000D8BB03
:101C900000001A3B0080123C0000283A000028BADD
:101CA00000008DBB0000383A0000353C0000BC3B12
:101CB00000005ABB0000A3BB0000783B00806C3CD6
:101CC00000007D3C00408C3C0000363C0000AB3BFB
:101CD0000000F8BB0000FDBB0000043C0080033C9A
:101CE000000090B90000A33B00008FBB000046BB82
:101CF00000000ABB0000DBBB000041BC0000BCBC14
:101D00000080A6BC00005EBB0000BDBB000089BB1C
:101D10000000BCBB000040BC00805ABC000081BB7E
:101D200000008BBB0000043B0000C33B0000923B63
:101D30000000FDBB00009FBB000038BB0000403C22
:101D40000040933C0000653C0000403900802EBC00
:101D5000000028BB0000E93B0080293C00800B3CD0
:101D60000000ACBA000000B90000783B0000313C34
:101D70000000AD3B000008BA000038BA00004A3B42
:101D80000040853C00C09F3C0000E33B0000D03990
:101D9000000040B90000B23B0000193C0080583CF4
:101DA0000000723C0080473C0000123B00000A3CEF
:101DB00000800F3C00009A3B0000893B0000B43BD0
:101DC000000040BA0000403B0000D83B0000DD3B73
:101DD00000001A3C0000FB3B0000C53B00800DBC2E
:101DE00000009CBB0000D0390000043C0000B03B68
:101DF0000000563B000080B800008BBB0000A7BB72
:101E00000000B8BB00800DBC0000983A000050BA3A
:101E1000000098BA000008BB0000F9BB00000ABB34
:101E2000000098BA000024BC008038BC000092BBBF
:101E30000000EABB00801ABC0000623B0000AB3B24
:101E40000000003900009ABB000030BB0000813B5D
:101E500000008B3B0000C5BB0000DABB008010BC5B
:101E60000080023C0000953C00803D3C00005F3C4F
:101E700000802F3C00001A3B00004F3C0000323C29
:101E800000008B3B000040BA00001E3B00008E3C6F
:101E900000C0B03C00808D3C00006F3C00803A3CAC
:101EA0000000053C00802C3C0000BC3B000085BBD2
:101EB000000083BB000080BA0000813B0080383CFA
:101EC0000000173C000060BA00801BBC00005ABB39
:101ED0000000ACBA0000E83A00009A3B00000ABBE0
:101EE0000000683B00000039000038BB000018BA51
:101EF0000000383A00000ABB0000F8BA0000DDBB61
:101F0000000005BC0000ECBB0000D63B0080583C44
:101F100000800E3C0000C33B00001E3B0000083A5E
:101F2000000096BB000000390080003C00802B3C84
:101F3000000080B80000AE3B0000AE3B0000343B28
:101F40000000803800004A3B00000039000088BAD9
:101F50000000F0BB0000BABB000046BB0000883A9E
:101F60000000303B0000BCBA000030BB0000D43B96
:101F70000000833B0000E5BB0000D6BB00004039F9
:101F80000080123C0000383C0000AB3B0000853B69
:101F90000000983A0000C93B0080113C0080123CD0
:101FA0000000F93B00801B3C0000233C0000B63BD6
:101FB0000000BD3B0000813B000040BA00008D3BAB
:101FC0000080693C00002C3B000000B90000813B10
:101FD0000000B43B000060BA0000883A0000F03B0B
:101FE00000803B3C0000063C0000F83B0000C4BA07
:101FF00000800FBC0000B4BB00004EBB0000B43A30
:102000000000263B0000803A0000F0B90000BCBA96
:1020100000005ABB00005E3B0000003B00007CBBA0
:102020000000AEBB0000BCBA00003CBB000000B921
:102030000000803900801ABC0000E1BB0000D23BE8
:1020400000802C3C0000F03A0000CCBA0000803B3D
:1020500000006C3B0000223B00801D3C0000B23BB6
:102060000000603A0000D63B00005F3C0080303C3E
:102070000080213C00802E3C0000323C0000CE3B22
:102080000000D43A0000353C0000E53B0000983BDE
:1020900000004ABB00801BBC000035BC000040BAF9
:1020A0000000983B0000603A0000803800802EBCA1
:1020B00000806CBC00001ABB0000F0B90000383A88
:1020C000000012BB000087BB000078BB0000CB3BC8
:1020D0000000443C0080203C0000B83B0000A13BD5
:1020E00000009C3A0000F83A0000073C0000253C44
:1020F00000002C3B0000000000008F3B0000D83A9D
:10210000000038BA0000453C00800F3C008002BC53
:102110000000E9BB0000C43A000090BB0000ABBB6C
:10212000000040390000ADBB0000DDBB00003CBB3F
:10213000000087BB0000BFBB0000903A0000283BB6
:102140000000403A00000ABC000094BB0000C53B00
:102150000000223C0080883C0080743C0000623B10
:10216000000038BA000056BB0000523B0000AB3BF9
:102170000000083A0000043B0000243C0000813CC1
:102180000000143C000000B90000EEBB00006CBB76
:102190000000813B00008F3B000080BA0000BCBB08
:1021A0000000ABBB0000A33B0000463C00004A3BE4
:1021B000000038BC008012BC0000903A0000C73B11
:1021C0000000EE3B000080B9000007BC0000EABB45
:1021D00000003C3B00801C3C0000C73B0000C4BA30
:1021E000000013BC00009FBB0000BABB000083BB13
:1021F0000000E8BA00009E3B0000BA3B0000883AAD
:102200000000B0B9000022BB000008BB0000F83A93
:102210000000943B0000B4BA0000F0BA0000F83BA4
:102220000000CE3B0000EC3B00802E3C00803E3C9A
:102230000000E13B0000FD3B0000E73B0000253CC7
:102240000080033C00800C3C00803F3C0000DB3BF6
:1022500000009A3B0000783B0000CC3A0000183A9E
:102260000000283A000060BA00801ABC0000F9BBE8
:102270000000F6BB000038BB0000E83A0000283A36
:10228000000070BB0000D6BB00008BBB0000703BA1
:102290000000C13B0000833B00000E3B000050BA31
:1022A00000000E3B0080773C00408A3C0000AE3BC3
:1022B000000056BB0000E03A0000AE3B0000F43BDB
:1022C0000080123C0000283B00000A3B0000703BED
:1022D0000000B43B0000F8BA0000ADBB0000D4BA67
:1022E0000000BA3B0000623B0000C7BB0000D4BA4C
:1022F00000005E3B00008F3B00009E3B0000853BE2
:10230000000028BA000087BB000087BB0000383BF4
:102310000000133C00801C3C000000B9000064BBBE
:102320000000043C0000963C0000273C0000263BD7
:10233000000090B90000B4BA0000923B00802B3C32
:102340000000CC3A00004ABB0000D6BB0000E8BA4F
:1023500000008F3B0000503A0000B6BB0000B4BB49
:10236000008038BC000040BC000081BB0000883AFF
:102370000080023C000040390000000000802B3C3F
:102380000080653C00001E3B0000F03A0000BF3BAF
:102390000000D23B0000383C00801D3C0000E93BBF
:1023A0000000743B0000083A0000CCBA00007C3BFF
:1023B00000001A3C0000EC3B0000563B0000CC3A09
:1023C0000000B0B9000040BA0000003B0000CE3B66
:1023D00000005E3B0000E0BA0000CC3B0000713C16
:1023E00000802D3C0000EE3B0000C73B0000C33BDB
:1023F00000006C3B0000AB3B0000463C00804E3CC4
:102400000000F03B0000B03B0000BF3B0000F43B8D
:102410000000813B0000883A00004A3B0000983BE6
:10242000000046BB0000ECBB0000C1BB0000D2BBFB
:10243000000026BC00805BBC000034BC000026BC51
:1024400000000BBC00008DBB0000C3BB000027BC1C
:1024500000805BBC000004BC0000E8BA0080103CB7
:10246000000038BA0000FFBB0000923B00805B3CDC
:102470000000DA3B0000983A0000D8BA0000D039DA
:1024800000004F3C0080CA3C0080783C000080384F
:10249000000000BB0000043C0000A43C0080863C1F
:1024A0000000063C0000B63B0000233C00802B3CB3
:1024B0000000AD3B0000D83A00000A3B00005E3B44
:1024C0000000D43B0000723C0000193C0000D0B971
:1024D0000000B2BB0000D63B0000743C0000233C6F
:1024E0000000983A0000523B0000F0B90000683B41
:1024F0000000FB3B0000343B000090390000A53B8E
:102500000000EA3B0000A93B0000E83A0000003967
:1025100000801DBC00806ABC000085BB00004EBB73
:102520000000BDBB000004BC0000D0BB008047BC65
:10253000000043BC0000BABB0000A1BB00000BBC04
:10254000000037BC0000F0BB0000D2BB0000F9BBAC
:102550000000A3BB0000D8BA000046BB000044BB8B
:102560000000B0390000983B0000F03900001EBBAD
:102570000000383A0000BD3B00006E3C00C08A3CC1
:1025800000801D3C0000193C0000F93B0000D03BDE
:102590000080393C00804C3C00802C3C0000DD3B3E
:1025A0000000C53B0000533C0080303C00801B3CD9
:1025B0000080003C00803B3C00800B3C0000833BE3
:1025C0000000923B0000193C0000BF3B0000263C8D
:1025D0000000B63B0000463B0000A43A00004E3B22
:1025E0000000853B0000AE3B0000D83A000028BA4E
:1025F00000802CBC00802EBC0000CCBB008003BC43
:10260000008056BC00806BBC008076BC0080C2BCE1
:1026100000C0C5BC00C0AFBC00809EBC000053BC65
:10262000000004BC008030BC008059BC0000DDBB51
:1026300000005EBB000090B900005ABB00008FBBD9
:102640000000183A00009A3B0000813B0000DA3B92
:102650000000EC3B00005A3B0000703A0000043CD4
:1026600000002C3B0000303B0000CB3B0000F03B67
:102670000000043B00003C3B0000523C0000523C88
:102680000000173C00800C3C0000193C0000533C4B
:1026900000C09F3C0000963C00806B3C0000343C36
:1026A0000080653C00C0823C0000903C0040983CAB
:1026B0000080763C00801B3C0000743B00002C3BFB
:1026C0000000003B0000943B0000703B0000043B16
:1026D00000001EBB000083BB0000F0BB00804CBCB0
:1026E000000080BC00803BBC000016BC008021BC08
:1026F000008069BC0040B2BC0000BDBC00C083BC0F
:10270000008003BC000014BC00803CBC000053BC33
:10271000008056BC000080BB0000D0390000FBBB2D
:10272000000029BC000087BB0000983A0000193C5B
:102730000000EA3B0000803A00000E3B0000E83A4F
:102740000000E13B0000A53B0000AC3A00000000A7
:102750000000D83B00804D3C0000413C0000F23BB3
:102760000000803B0000C93B0080383C0000803CFA
:1027700000802F3C0080103C0000F43B0000EE3B4A
:102780000000923B0080023C0000163C0080103CA0
:102790000000643B0000AD3B0000EA3B0080113CC0
:1027A0000080103C0000E73B0000F43B0000DA3BF7
:1027B0000000643B00009C3B0000AE3B0000D03BAF
:1027C00000804D3C0000133C0000D23B0000C43AA6
:1027D000000060BA00001A3B00009C3A00002CBBCD
:1027E000000019BC000042BC00008DBB000038BBDB
:1027F0000000B2BB00803DBC00005EBC00803CBC61
:10280000008002BC00801BBC008038BC00802BBC58
:1028100000802BBC000016BC008003BC000015BC6F
:102820000000DDBB000090BB00000EBB0000463B7B
:102830000000083A0000BCBA00000EBB000080395E
:102840000000163B0000F83A0000743B0000F23B29
:102850000080023C0000193C0000533C0000803C1A
:102860000080563C0000313C00001A3C0000073C50
:102870000000233C00804B3C00805C3C0080303CEE
:102880000000C33B0000173C0000DA3B00009F3B08
:1028900000800E3C00805C3C0000F63B0000963B54
:1028A0000000403B00800F3C0000623C0000FB3B0E
:1028B0000000853B0000A4BA000085BB00000EBBF1
:1028C000000090390000E03A000070BA0000E7BB59
:1028D0000000D6BB000062BB0000D0B90000BCBA4B
:1028E00000005EBB000096BB000070BB000094BB04
:1028F00000008BBB00005EBB000080BA0000B6BBCE
:102900000000E9BB000034BB0000F0B90000D43A7D
:102910000000263B00009CBA0000C5BB00001ABCAA
:102920000000DABB000062BB000080B9000026BBDB
:10293000000088BA0000803A0000183A0000743B9A
:102940000000703B000050BA00000A3B0000B83B9A
:102950000000F23B0080303C00802D3C0000283C11
:102960000080773C00803C3C00802F3C0080663C2F
:102970000080583C00800D3C0000983B00801A3CD1
:102980000000513C0000463C0000DB3B0000903B57
:10299000000080B80000343B0000CC3B00008F3BBF
:1029A0000000703A0000903A0000283A000040B958
:1029B0000000803A000090B9000083BB000015BC05
:1029C0000000ECBB0000C4BA0000083A000040BBA5
:1029D0000000D4BA000000000000D03900004EBB57
:1029E000000070BB0000743B0000503A0000F8BAD1
:1029F0000000B0B900003C3B0000963B0000603A8C
:102A000000000E3B0000813B0000C53B0000A53BE1
:102A1000000080B800009A3B0000BF3B0000BA3BBA
:102A200000001E3B00000000000090BA0000003BC8
:102A30000000AE3B0000923B0000303B0000603ADB
:102A40000000F03A0000523B0000803B0000303BA9
:102A50000000403B0000A13B0000703A0000043B36
:102A60000000563B0000FF3B0000FD3B0000643BC4
:102A70000000643B0000803B0000253C0000293C36
:102A80000000B43B000000B9000098BA0000F03923
:102A90000000C43A0000C43A0000BCBB00006CBB9C
:102AA0000000BDBB0000E5BB0000AEBB000081BB69
:102AB0000000B4BA00000EBB000028BA00008FBBB3
:102AC0000000F8BB0000C5BB000040BB000092BB8B
:102AD0000000F8BA000060BA0000CCBA00009CBA4E
:102AE000000040BA0000783B0000F03A0000303BA4
:102AF0000000B03B0000E03A00004E3B0000F43B19
:102B000000802C3C0000273C00000B3C00800B3C6C
:102B10000000543C0000363C0000E13B0080213CBA
:102B20000000D83B0000EA3B00004039000064BBD5
:102B30000000A43A00002C3B0000963B00004E3BF6
:102B40000000523B0000563B0000D8BA0000BCBA5F
:102B5000000016BB000034BB0000ACBA0000F8BA9D
:102B600000000039000062BB000044BB0000C4BA92
:102B7000000026BB0000803A000040BA0000D0B937
:102B80000000283A0000F0390000B23B0000E53BAD
:102B900000005E3B0000CC3A00009F3B0000D63BAB
:102BA00000001A3B0000B43B00802A3C00804A3CF5
:102BB00000800F3C0000B83B0000263B00008D3B2E
:102BC00000008F3B00005E3B0000643B0000563B72
:102BD00000009C3B0000443B000083BB0000B0BBF6
:102BE000000040BA0000D83A00002C3B0000623BD5
:102BF0000000283A000090BA0000ACBA0000283A61
:102C000000002C3B0000AD3B0000983B00008038EA
:102C1000000080B90000003B0000283A000090BA94
:102C2000000092BB0000B0390000983B00004A3B16
:102C3000000060BA00009FBB000085BB000008BA1E
:102C40000000C43A0000F039000060BA0000D4BAB5
:102C50000000B43A0000F03900000000000060BA43
:102C6000000074BB000062BB000030BB000012BB60
:102C7000000038BA000026BB000038BB000040BA94
:102C800000001EBB0000B43A0000DA3B0000FF3B2E
:102C90000000C33B0000FB3B0000063C0000163C6C
:102CA00000802F3C0000253C0000293C0000153C22
:102CB00000803C3C00807A3C0040853C0000073CA2
:102CC0000000D83A00009A3B0000CB3B0000EA3BF2
:102CD0000080003C0000283B0000F0390000D83A9A
:102CE000000000BB0000E5BB0000B6BB0000D4BA8A
:102CF000000000BB000085BB00009CBA000040BA89
:102D0000000083BB00801EBC000017BC008030BCEC
:102D1000000034BC000098BB0000E9BB008000BC90
:102D2000000029BC000019BC0000E3BB0000A7BBE9
:102D3000000090BB00008DBB00005EBB00009EBB8E
:102D40000000C9BB000004BC000080BB000022BB27
:102D5000000074BB0000403900004E3B0000D83A30
:102D60000000083B0000303B0000263B0000853B94
:102D70000080033C00801F3C0080203C00805D3CC4
:102D800000801C3C0000083C0080023C00802A3C83
:102D90000000723C00005F3C00800B3C00000A3CDD
:102DA0000000173C00802C3C0080003C0000F03B01
:102DB0000000F63B0000923B0000183A00004A3B3E
:102DC0000000083C0000F0390000A7BB000064BB15
:102DD000000040B90000B03900001EBB00008FBBEE
:102DE0000000CEBB00009CBB000052BB0000A1BB9A
:102DF0000000C5BB0000BABB0000B2BB0000CBBBEB
:102E00000000B8BB008011BC0000F0BB0000D6BBC6
:102E1000000028BC00805BBC008049BC00801EBC58
:102E2000008003BC000080BB0000ACBA000070BB97
:102E300000003CBB0000083A0000CE3B0000963B7F
:102E40000000B23B0000643B0000943B0000D23B1A
:102E500000007C3B0000DB3B00801A3C00004F3C44
:102E60000080393C00000A3C0000293C0000523C34
:102E700000805D3C00803D3C0000093C00800E3C31
:102E80000000063C0000DF3B00000A3C00801D3CC7
:102E90000000D23B0000173C0080123C0000173CB1
:102EA0000000FB3B00802B3C0000F93B00005E3B38
:102EB0000000123B000080BA000040BA0000603AF7
:102EC0000000463B000040B90000BCBB0000DFBB77
:102ED000000090BB00005EBB00009FBB008030BCC8
:102EE000000035BC000043BC000007BC000013BC60
:102EF00000804CBC008067BC000065BC00000ABCC0
:102F000000800FBC0000C3BB000074BB000094BB7A
:102F10000000BDBB0000D8BB0000A7BB0000D4BAB6
:102F2000000022BB000050BA0000343B0000B03B60
:102F30000000523B0000E83A0000E93B0000053C7D
:102F40000000D63B0000303B0000283B0000133C53
:102F50000000293C0000273C0000F23B0000A53B9C
:102F60000000623B0000EC3B0000463C0000503C8F
:102F70000000243C0000373C0000653C00004F3C52
:102F80000000EA3B0000E93B0000053C00801E3CDD
:102F90000080103C0080013C00008F3B0000A73BFC
:102FA0000000923B0000083B0000F8BA000000005F
:102FB000000038BA00009FBB00800DBC00803EBC02
:102FC000000024BC0000B6BB00800BBC000008BCA5
:102FD000000085BB0000C9BB0000F8BB0000BDBB02
:102FE000000096BB000094BB0000E9BB0000ABBB37
:102FF0000000D4BA0000BFBB000007BC00009ABBB1
:103000000000C4BA00006CBB000080BB0000D83ACE
:103010000000E13B0000873B000050BA000018BAF6
:10302000000022BB000040B90000643B0000C13B2F
:103030000000123B0000AD3B0080033C0000F93B68
:103040000080213C0000353C00803B3C0000FF3B01
:103050000000AB3B0000F03B0000323C0000E93BCD
:103060000000A93B0000083B0000B43A0000A13B6F
:103070000000DA3B00001A3C0000F23B00009A3BE3
:103080000000703B0000853B0000563B0000383AD2
:103090000000403B00008D3B0000CC3B00007C3B2F
:1030A0000000643B0000743B0000743B0000F83AF1
:1030B0000000263B0000343B0000603A000000BBEB
:1030C000000008BB0000000000005ABB0000BABBB3
:1030D0000000B8BB000046BB00009FBB00800DBCD9
:1030E000000024BC0000E3BB00006CBB00005EBB22
:1030F0000000D4BB000094BB000098BA000030BBB5
:10310000000080BB0000E8BA0000B43A0000CC3AEE
:103110000000443B0000C13B0000D03B0000AE3B40
:103120000000CC3B0000A73B0000383B000088BA01
:103130000000403A0000883A0000E83A00004E3BA8
:103140000000AB3B0000D63B0000F23B0000C13B5F
:103150000000C13B00006C3B0000E03A0000C43AB4
:103160000000C93B0000B83B0000A13B0000BD3B94
:1031700000009F3B0000623B00009E3B0000EE3BD6
:103180000000DB3B00006C3B0000A13B0000C53BA6
:103190000000523B000040B900000E3B00005E3BC7
:1031A000000050BA0000C4BA0000833B0000DD3BC1
:1031B000000090BA000090BA0000803A00006C3B1A
:1031C0000000123B000040B90000D8BA0000ACBAC1
:1031D000000080BB000034BB0000183A0000C43A75
:1031E000000080BB0000A1BB0000BCBA000004BB13
:1031F0000000F8BA0000C4BA00008038000008BB24
:103200000000C9BB00008DBB000085BB000092BB65
:103210000000ADBB00001ABB000090B90000603A8E
:103220000000983A000008BA0000B0B90000A53BC1
:1032300000008F3B0000A13B0000A93B00800E3C3A
:103240000000343C0000353C0000563C0000413C8E
:103250000000283C00801F3C00802D3C0000083C02
:103260000000343C0000223C00000E3B000080B90E
:103270000000563B00009F3B0000D039000008BA18
:103280000000D0390000403B0000003900008038C9
:103290000000A93B0000783B00007CBB0000BFBBE6
:1032A0000000803800004E3B0000F0B9000026BB53
:1032B0000000C43A0000873B000050BA000038BB51
:1032C0000000403900005E3B00008039000030BB48
:1032D0000000043B0000683B0000AC3A0000603A8C
:1032E000000060BA0000403A000034BB000062BB3E
:1032F0000000D43A00009039000016BB0000F0BA7C
:10330000000050BA00000ABB000040B90000283A93
:10331000000056BB000080BB000050BA000018BA85
:103320000000A4BA000040390000163B0000623BD8
:1033300000001A3B0000643B0000B23B00006C3B05
:103340000000683B0000403B00006C3B0000AE3BCF
:103350000000073C0000AD3B00008B3B0000AE3B93
:103360000000CC3B0000BF3B0000D83B0000093C04
:103370000000E53B00800F3C0000053C0000F93BED
:103380000000F03B0000C73B0000AD3B0000983B55
:103390000000003B00004E3B0000C43A0000303B00
:1033A00000001E3B00002CBB000078BB000074BB7B
:1033B000000060BA000026BB000094BB0000B039DA
:1033C0000000A33B0000303B000080380000ACBA96
:1033D0000000303B0000A93B0000E83A0000E83A5A
:1033E000000080BA0000883A0000003B00000000A6
:1033F000000038BA00001E3B00001A3B0000F8BA7B
:103400000000ADBB000087BB00005ABB000092BBB0
:1034100000005EBB00006CBB0000B0390000383B10
:10342000000052BB000052BB000070BA0000D83A46
:103430000000D4BA000088BA0000403A0000943B73
:103440000000A33B0000163B0000AC3A0000E73B45
:1034500000000A3C0000833B0000893B0000E53B84
:103460000000083C00006C3B0000963B00801A3CCA
:1034700000802E3C0000EC3B0000003B0000343B91
:103480000000523B0000B03B0000BD3B0000D83BB9
:103490000000E33B0000A33B00008F3B0000B23B79
:1034A0000000963B0000B0390000343B0000B0B98A
:1034B0000000F0BA0000D83A00009C3A00009039B1
:1034C0000000F0B900000000000090BB0000A3BBAA
:1034D00000003CBB000081BB0000F6BB00000BBC41
:1034E00000802FBC00801EBC000008BC008012BC05
:1034F000000007BC0000D0BB000087BB0000B2BBCF
:103500000000B4BB000052BB0000883A0000F0B9D4
:10351000000016BB0000F0B90000123B0000163B93
:10352000000040B90000443B0000343B0000D43AA6
:10353000000090390000623B0000383B0000703B07
:1035400000009F3B0000B43B0000B63B0000F03B96
:103550000000053C00802C3C0000153C0000D63BE0
:103560000000063C0000963B00002CBB0000F03938
:103570000000A4BA0000F03A00001EBB000080BAB0
:103580000000083A0000643B000008BB000080BA5D
:103590000000503A000000000000C4BA0000283BC0
:1035A0000000F03900001EBB0000ACBA0000E83A91
:1035B000000090390000F03A000080390000403AE5
:1035C0000000CC3A000088BA000098BA00009ABB0C
:1035D000008003BC0000ADBB00009CBB000015BC1C
:1035E000000056BB0000B2BB000094BB0000603A74
:1035F00000009C3A0000803900004E3B0000BCBA3D
:10360000000085BB00001ABB0000AC3A0000FBBB09
:10361000008001BC000000B90000D0390000AEBB42
:10362000000022BB00004039000098BA0000D0BB67
:10363000000090BB0000983A0000E8BA000022BBEE
:10364000000040BB000094BB000044BB0000F0B988
:103650000000183A0000ACBA0000BFBB0000163BE7
:103660000000AB3B0000C53B0000C73B0000F03B47
:103670000000D03B0000D83B0080013C0000153C1E
:103680000000E73B00801A3C0000AD3B00001A3B05
:103690000000CC3A00006C3B0000883A00002CBBD4
:1036A000000090BB000038BA0000D8BA0000D43A3D
:1036B00000005E3B00008B3B0000A33B00006C3B26
:1036C0000000AE3B0000253C0000563C0080013C61
:1036D0000000B03B0000043C00800B3C00008D3B30
:1036E00000000E3B0000BC3A0000083A000064BB3A
:1036F0000000ECBB00800BBC000038BC000018BC14
:103700000000E9BB0000AEBB0000E5BB000040BB11
:1037100000009EBB0000C1BB00000EBB0000C4BA8D
:1037200000003CBB00003C3B0000F03B0000F93BCC
:103730000000AD3B00009E3B0000143C0080393C83
:103740000000D63B0000E33B0000C33B0000183CF8
:103750000000783B00005A3B0000C13B00008B3B5F
:103760000000283B000000000000983A0000C53B24
:103770000000083C0000083A0000443B0000B43B55
:1037800000008D3B0000263B0000F83A0000903A14
:10379000000080B80000D0B90000B0390000043B40
:1037A0000000703B00009F3B00001A3B0000463BBE
:1037B0000000073C0000F83B0000603A0000123BAC
:1037C0000000923B0000983B0000123B000040BB11
:1037D000000044BB0000D8BB00000BBC00801ABC3A
:1037E000008049BC00807BBC008020BC00000BBC7A
:1037F0000000CCBB0000E7BB0000C5BB0000903957
:1038000000000EBB000028BB000000B900001A3BFE
:103810000000563B0000AE3B0000E13B0000A13B36
:1038200000006C3B0000043C0000163B00001E3B07
:1038300000009E3B00004A3B000074BB0000803A41
:1038400000008D3B0000803B0000AE3B0000223BAF
:103850000000F03B00803F3C00800B3C0000E13B5F
:103860000000E33B0000D63B0000403B0000C73BAC
:103870000000223B0000303B0000903A0000BC3AC0
:10388000000088BA0000383A0000B43A0000DF3B7C
:103890000000EA3B0000AD3B0000463B0000E13B7E
:1038A0000000003B0000903A0000D039000000BB4F
:1038B000000092BB0000AEBB008002BC000017BC41
:1038C000008038BC000050BC000015BC000018BCD3
:1038D000008000BC000038BB0000DABB00001ABB4F
:1038E0000000703A00001E3B0000703A0000A4BACD
:1038F0000000E83A0000C13B0000BC3B000070BA89
:103900000000000000000039000090BB00009ABBDE
:10391000000074BB00004ABB000000390000893B76
:1039200000001A3B0000E83A0000003B0000AD3BFD
:103930000080013C0000A93B0000043B0000DF3B8D
:103940000000093C0000043C0000D23B0000163C93
:103950000000A53B0000003B000000B90000873BD1
:103960000000E93B0000F43B0000433C0000643CE5
:1039700000804E3C00801E3C00C0833C0080953C93
:1039800000801D3C0000BC3B000040BB0000FBBBB6
:103990000000F6BB000027BC008059BC00804DBC75
:1039A00000004FBC008056BC00001ABC0000BABB2F
:1039B000000015BC008003BC000062BB00009CBA84
:1039C00000009E3B0000EC3B00000A3B0000F8BA00
:1039D0000000123B0000403A00001E3B00000EBBFE
:1039E0000000A1BB000056BB0000D43A0000803AA2
:1039F0000000F0390000803800003C3B000074BB40
:103A00000000A5BB000044BB000012BB0000A4BA2C
:103A10000000703A0000043B0000783B0000D0B981
:103A2000000070BA0000B0390000D43A0000343B06
:103A30000000503A0000F0B90000CC3A00800D3C84
:103A400000806B3C0000533C0000413C00007F3C88
:103A500000805A3C00806B3C0080673C0000FD3BCE
:103A60000080013C0000163B0000ECBB00000BBCDA
:103A700000802CBC000090BC00C083BC008011BC46
:103A8000008001BC0000CCBB000074BB0000EA3B1E
:103A90000080293C0000E93B0000333C00C0913C21
:103AA0000040823C0040833C00C0923C0000403C0F
:103AB0000000313C0000463B0000F0B9000034BB80
:103AC000000028BB0000B2BB0000DDBB0000CBBB88
:103AD00000005EBB00008DBB0000A7BB000027BC40
:103AE000000032BC000046BB0000B2BB0000DFBBE0
:103AF0000000803800801A3C0000F83B0000043BC6
:103B00000000A73B00008F3B000080BA00801EBC75
:103B100000801FBC00009ABB000074BB0000ECBB1F
:103B20000000EEBB000062BB000080B8000080B85F
:103B30000000A93B0000063C00001E3B0000E53BE6
:103B40000000443C0000703B0000E83A00008BBBE2
:103B50000000A3BB000024BC000090BB0000AEBB73
:103B60000000D4BA00006C3B00005A3B00008D3CC2
:103B70000040AF3C0000963C00008D3C00008F3CB4
:103B80000000343C0000303B0000833B00006C3BF5
:103B9000000090B90000B8BB0000F2BB0000DABB27
:103BA000000030BB000040BA00000A3B0000183A99
:103BB0000000163B0000E33B0000E53B00800D3CAD
:103BC0000000D63B0000CB3B00009A3B0000F03ADF
:103BD0000000283B0000853B0000523B000088BAF3
:103BE000000050BA0000223B0000F0390000F2BB98
:103BF0000000B0BB00800CBC00803ABC000080BC60
:103C0000000062BC008011BC000098BB000000B93D
:103C100000009C3A0000083C0000293C00802A3C3F
:103C20000000433C0080303C0080023C0000DA3B56
:103C30000000283B000038BB0000BDBB00805ABC20
:103C400000807ABC008088BC000026BC008000BCDC
:103C50000000CEBB000028BA00801D3C0080383C2C
:103C600000802E3C00C08B3C0080773C00806C3C88
:103C70000000BF3B00001E3B0000903A0000000027
:103C8000000008BA000038BB0000303B000088BAD2
:103C900000001E3B0000E13B0000AD3B0000293C62
:103CA0000000643C0000AE3B00008D3B0000E53BA3
:103CB000000012BB000080BB0000D8BA00004EBB61
:103CC000000074BB000004BB000085BB000080380E
:103CD00000004ABB000004BB0000A4BA00000000C2
:103CE0000000603A00008BBB000040BB0000A9BB95
:103CF0000000ABBB0000F0B9000040B90000FF3B82
:103D00000000063C0000C33B0000FD3B00802A3C55
:103D10000000963B0000903B00009C3B0000EC3B09
:103D20000000D4BA000022BC0000ECBB00009CBA2A
:103D3000000005BC000005BC000028BB000008BA5C
:103D40000000F0B90000A13B00803F3C0000723C45
:103D50000080783C0080903C00C0823C00803A3C6F
:103D60000000703A000028BB000008BB00001ABC2D
:103D7000000035BC008011BC0000C7BB00009ABB2E
:103D80000000E33B0080573C0080673C0080693CBA
:103D90000080683C0000803C00803D3C0080583C36
:103DA0000000F23B000070BA0000B4BB000083BB0F
:103DB0000000B8BB000019BC000026BC00801ABC83
:103DC000000000000000BA3B000080B8000044BBC7
:103DD0000000F83A0000283A00008FBB00000ABB40
:103DE000000046BB0000B0B9000081BB000050BA23
:103DF0000000DB3B00807B3C0080213C0000DB3B83
:103E00000000F93B0080213C0000D63B00004A3B0B
:103E1000000088BA000040BB00003CBB000007BCAB
:103E200000802FBC0000D8BB008000BC000028BB75
:103E300000009CBA000008BA000090B9000080B9E8
:103E40000000833B0000BA3B00007C3B0000343B99
:103E5000000008BA000052BB0000B4BA000070BAFB
:103E60000000BCBA0000603A0000A33B0000D83B51
:103E70000000373C0080493C00408C3C0000263C60
:103E80000000A33B0000383B00007C3B000090BAE0
:103E90000000A7BB000050BA0000F0390000FFBBD3
:103EA0000000FDBB00000000000012BB0000F0BAE3
:103EB0000000003900009C3A0000E33B00000000D5
:103EC0000000563B0000B0B90000F0B90000ABBBE9
:103ED000000012BB00002CBB00001EBB0000F83A23
:103EE0000000853B0000C33B00007C3B0000743BAE
:103EF000000038BB0000403A00009039000000BBD1
:103F00000000783B000038BB0000ACBA0000ACBA3F
:103F100000007CBB0000F0BB0000ABBB000087BB17
:103F200000008DBB0000A5BB0000B4BA0000BC3A85
:103F30000000BA3B0000A53B0080383C0000223C5A
:103F40000000A73B0000923B0000503A00802EBCCE
:103F5000000035BC000019BC000016BC000014BCF9
:103F6000000092BB0000403A0000DD3B0000E93B4E
:103F70000000253C0000523C00802A3C0000DD3B54
:103F80000000FD3B0000B83B0000903B0000883A79
:103F900000005A3B0000D0390000CB3B0000E03A63
:103FA0000000003B0000E03A00000A3C0080023CB8
:103FB0000000043C00009A3B0000B03B000004BB42
:103FC0000000703A0000A5BB0000DBBB0000EEBBA8
:103FD00000005ABB000085BB000087BB0000183AF8
:103FE0000000803A000040B90000703A00009C3A9E
:103FF0000000963B0000223C0000F93B0000F03B33
:104000000080013C0000853B0000903B0000A13B8C
:104010000000083B0000883A0000F0B9000018BA20
:10402000000040390000F039000074BB000012BBF2
:10403000000044BB000052BB0000C3BB000078BBC3
:1040400000000BBC0000E1BB000019BC008003BCF9
:10405000000098BB0000703A0000C43A0000003B2A
:1040600000009F3B00800B3C00008039000040BBFB
:10407000000080B9000040390000CEBB00800CBCBD
:104080000000D4BA0000E03A0000E8BA000007BC23
:10409000000068BB0000883A000004BB008000BC40
:1040A0000000AEBB000064BB0000DFBB0000BDBB76
:1040B0000000BCBB008010BC000009BC00804CBCF0
:1040C000000006BC0000CCBB000062BB000052BB7D
:1040D0000000463B0000293C0080653C0000633C3A
:1040E00000408B3C00C0983C00C0C83C0080CA3CEB
:1040F00000C0A23C00C09F3C00C0823C0080123C3B
:104100000000E03A0000B8BB000022BC00004FBC39
:10411000000071BC000045BC00801ABC0000DABB86
:1041200000000EBB00006C3B0000623B0000903AB8
:104130000000893B0000043B000078BB00002CBB62
:1041400000008FBB0000D2BB0000BDBB0000E7BB7E
:10415000000070BB0000703B0000E83A00000A3B22
:104160000000703B0000373C0000BA3B0000803B81
:1041700000005E3B0000223C0000D83B0000223BD8
:104180000000CCBA000000BB000018BC00C08BBC13
:1041900000C081BC000072BC008049BC00001ABC99
:1041A00000802BBC000092BB000094BB000070BBE1
:1041B00000008FBB0000C9BB0000A9BB000080B994
:1041C000000000000000B83B00801E3C0040823C24
:1041D0000080AB3C0000CC3C0000BB3C0000D83C65
:1041E0000040CE3C00C0C63C00007E3C0000243CA9
:1041F0000000F83A0000883A0000B8BB000041BC5B
:1042000000801FBC000081BB000040B90000D63B0D
:104210000000DA3B0000133C0080813C00807A3CC7
:104220000000363C00801B3C0000B83B0000B03969
:1042300000009ABB000096BB00004ABB0000BCBA5D
:104240000000893B0000D43A0000E03A0000DD3B6A
:104250000080293C0000193C0000803B00009C3A93
:1042600000009CBA0000F0BA0000BABB0000A5BB79
:10427000000028BB0000B2BB0000E1BB00803BBCDB
:10428000008079BC004085BC008078BC00802BBCDD
:104290000000ADBB000078BB000028BA000016BBD0
:1042A0000000803A0000E03A000050BA0000803B75
:1042B0000000D83A0000703A0080113C0000243C15
:1042C0000000F63B0080013C0000AD3B0000AE3B2F
:1042D0000000803B0000F83A0000ACBA000040B992
:1042E000000050BA000087BB000046BB000070BA57
:1042F0000000A1BB0000C1BB00002C3B00000E3B36
:104300000000F03B00808D3C00C0A13C0000873CD9
:1043100000408C3C0000733C0000F23B0000A73BD7
:104320000000343B000040BA000062BB00008DBBBF
:104330000000F0BB000062BB00005A3B0000D83B0D
:104340000000DB3B0000BA3B0000E53B0000BA3B4D
:104350000000AD3B0000E13B0000603A0000A4BA61
:104360000000163B0000A5BB000068BB000068BB56
:104370000000FFBB000053BC00C082BC00007EBC3C
:10438000000025BC000012BB0000F0B90000163B85
:104390000000983A000052BB000078BB0000BFBB91
:1043A000000017BC008049BC000074BB000022BBA9
:1043B000000040BB0000183A00001E3B0000F03A2D
:1043C0000000603A0000F0390000303B00008F3BF5
:1043D0000000783B00000E3B0000B23B0000A33B16
:1043E000000090B90000563B0000043B00009039EB
:1043F0000000803B0000403B0000A13B0000173C58
:104400000080593C0000CE3B0000D03B0000AE3B9A
:104410000000F0B900004EBB0000183A0000083A56
:104420000000ACBA0000F0B900009C3A00009C3AD1
:104430000000C33B00009E3B0000F03A0000C13B7F
:1044400000800E3C0000DF3B0000C93B0000C53B84
:104450000000CC3B0080213C0000183C0000CE3B1B
:1044600000000A3C0000B43B0000083A00000ABC0F
:104470000000B0BB00009CBA00005E3B0000E13BC6
:104480000080483C00806C3C0000D23B0000D039EA
:1044900000005ABB0000B4BB000032BC00006EBC80
:1044A000008074BC00800CBC000040BB00001EBB40
:1044B0000000D0B9000040390000C13B0000A13B22
:1044C0000000703A00005A3B0000563B0000B83B29
:1044D0000000163B0000ABBB0000B0BB0000DDBB22
:1044E000000027BC0000FBBB00002CBB000050BA42
:1044F00000001E3B0080003C00805D3C00001A3C38
:104500000000043C00804B3C0000273C0000B43A13
:104510000000B4BA0000043B0000EE3B0000FF3B8B
:1045200000802B3C00802D3C0000873C0000A73C15
:104530000080793C0000513C00805B3C00803B3CAB
:104540000000F23B0000F93B00000B3C0000233C64
:104550000000453C0000073C0000223B0000E03A20
:10456000000030BB00801DBC00804EBC0000FBBBC7
:10457000000090BB0000F0BA000090B9000038BB0A
:1045800000800BBC0000C9BB00800FBC00802ABCAF
:10459000000036BC000047BC00803CBC000078BB7B
:1045A00000000E3B0000403B0000AE3B0000CC3B57
:1045B0000000D23B00801E3C00004F3C0000193C34
:1045C0000000A53B0000463B00008BBB0000ECBB9D
:1045D000000014BC0000E5BB0000B4BA0000523B70
:1045E0000000D23B0080573C00C0983C0040923C09
:1045F00000009E3C0040823C0000533C0000423CD6
:104600000000DD3B0000303B0000833B00009C3B92
:104610000000E03A00006C3B0000AD3B0000403A77
:104620000000223B000040BA0000CCBB0000E3BB0E
:104630000000D2BB00800FBC0000E1BB00009CBBAF
:1046400000001EBB000004BB00000039000004BBDA
:104650000000CBBB000060BC008074BC00C08ABC02
:1046600000C083BC00006FBC008047BC000092BB50
:104670000000F4BB000064BB0000D0B90000BF3BE9
:104680000000383B0000283A0000743B0000A33BC8
:104690000000A93B0000193C0000193C0000263C2A
:1046A00000805C3C0000953C0040843C0000623C83
:1046B00000805B3C0000F83B00009CBA000037BC67
:1046C000008011BC0000BFBB0000DBBB000070BB62
:1046D0000000153C0000313C00801B3C0000E33B27
:1046E0000000F93B0000D03B0000A3BB00802DBCC4
:1046F000008057BC000032BC00803EBC00805CBC27
:10470000008059BC00801BBC000006BC000025BC1A
:10471000000035BC0000CBBB0000ADBB0000F0BB0F
:1047200000008DBB00004ABB00002C3B0000A73BF3
:104730000000143C00805B3C00408A3C0040993CF7
:1047400000408A3C00807B3C00009E3C00808E3C08
:1047500000C0833C0000233C00805A3C0000743CB5
:104760000040823C0000403C0000263C0080743C3D
:1047700000007F3C00803A3C0000C53B0000E33B6A
:104780000000DABB00C0A9BC0040DCBC0040FBBCA0
:1047900000E004BD0040FDBC00C0FBBC0000F8BC54
:1047A00000C0F2BC0000EFBC00C0F2BC00C0F5BC11
:1047B00000000ABD00C0DBBC00408BBC00805ABCBE
:1047C000000004BC00000A3B00001A3C0080753C5D
:1047D00000C0AF3C0040A73C0080A53C0000BA3CB4
:1047E0000000BA3C00C0AE3C0040B83C0040B23CC7
:1047F0000040B83C00C0CE3C0040CE3C0000083D2C
:1048000000C02B3D00202F3D00803B3D00C0493DB6
:104810000040313D0060043D0080CA3C0000A43CE3
:1048200000C09A3C0000813C0000613C0000963BC7
:104830000000043B0000EABB00007EBC0040B9BCA5
:104840000080F7BC00C016BD008029BD00802DBDD2
:10485000002015BD0080E2BC00C0B1BC004091BC8E
:10486000000050BC0000A5BB0000E3BB000028BC5A
:1048700000804ABC000032BC00803EBC008039BCD5
:10488000000028BC000022BC0000B4BB0000C3BB79
:104890000000D8BB0000EABB000081BB000089BB60
:1048A0000000C1BB000023BC008010BC000090BB16
:1048B0000000B0BB0000A1BB00004EBB00000039EF
:1048C0000000463B0000423C00808E3C0080B53C2E
:1048D0000000CA3C00C0AF3C0040B03C0000DA3CE5
:1048E0000000F93C0000033D00E0093D00E01A3DF6
:1048F00000C02B3D00A0223D0000033D0040E43CF1
:104900000040C13C00C08B3C00000A3C0000E13B81
:104910000000A73B0000CCBA000045BC00808DBC65
:104920000040A2BC0000E1BC002011BD000026BD7B
:1049300000A01BBD00200DBD0080F0BC0080D3BCDA
:104940000080A5BC000074BC000013BC008001BC4A
:104950000000D0BB00000ABC0000ECBB000029BC7A
:10496000004091BC00C092BC00804CBC000050BC18
:1049700000803CBC00006CBB000018BA0000BCBA50
:104980000000403B0000E33B0000C53B0000E93B6A
:104990000000223C00807A3C00C0A13C0040A23CC8
:1049A0000040A03C0040DD3C00000E3D00C02C3D1E
:1049B00000C03B3D00604C3D0060503D00603D3D0F
:1049C00000A0103D0040DD3C0080B43C0040943C21
:1049D0000000323C0000143C0000CB3B0000F0BA69
:1049E000000018BC0000B3BC0040E6BC00800ABD5B
:1049F000000022BD002026BD00C015BD00A008BDDE
:104A000000400ABD00400BBD00E00BBD00000EBD24
:104A100000E010BD00E000BD0000DBBC000071BC88
:104A2000000006BC000090B900009E3B0000143C52
:104A30000000513C0080673C0000163C0000903AAA
:104A40000000903900005EBB00801FBC000064BC09
:104A500000801BBC000004BB0000000000009E3B67
:104A60000000243C0080873C0000623C00006F3C5A
:104A700000809E3C0040C53C00C00D3D00E01A3D5A
:104A800000E0383D00A04F3D00E05A3D00C04A3DE7
:104A900000E0323D0080193D0040C83C00008F3CE2
:104AA0000000613C0000433C0000DA3B0000303B6A
:104AB000000026BB0000C1BB00005FBC0040B1BCD1
:104AC0000080E2BC0080F1BC002005BD00800ABD72
:104AD00000A00DBD006004BD0080D0BC0040A0BCA3
:104AE00000807BBC00807ABC000062BC000046BC39
:104AF00000806ABC008075BC000046BC0000BFBBE3
:104B000000005ABB0000D0390000B63B0000153C45
:104B10000000F83B00001A3C0000783B000092BB0C
:104B2000000028BC000053BC00802EBC000038BB35
:104B3000000012BB000004BB000000390000F63B7F
:104B40000080693C00C0A73C00C0D53C0000DA3CB6
:104B50000020143D00A02D3D00C02F3D00A0453D8C
:104B600000E0443D00A04C3D00602F3D00A02B3DE7
:104B70000020263D00800B3D0080C43C0080793C35
:104B80000000A93B00805CBC0000C2BC00E022BD6C
:104B9000002032BD00A036BD00A032BD00601FBDA8
:104BA00000201CBD0040B6BC0000B6BC004083BC69
:104BB00000809FBC00804ABC000073BC000038BC71
:104BC000000034BC0000F8BB000016BB0000F0BAC7
:104BD000000096BB00009C3B00008B3B000080382F
:104BE000000000000000F23B0000163C0000F63B15
:104BF0000000283C00004F3C00806B3C00808E3C55
:104C00000080033C0000803A000040B900000039F9
:104C10000000D4BA00000A3B0000613C0040D03CD8
:104C20000020203D00E02E3D00802F3D0080383DDB
:104C30000000213D0080F93C0000AB3C0040833C7B
:104C40000080473C00804A3C0080AC3C00806A3CCD
:104C50000000EA3B0000A73B000028BA00806ABCC5
:104C60000040FCBC000038BD00004FBD002051BD1D
:104C7000006041BD004055BD008043BD00601FBDC8
:104C80000000EABC0080C2BC00809CBC00007CBC70
:104C9000008010BC0000D8BB0000563B00807A3C6E
:104CA0000000553C0000293C00008D3B0000283AE4
:104CB0000000883A00008D3B0000BC3B0000143C23
:104CC0000080873C0040893C00807B3C00C09B3CCE
:104CD0000000AC3C0000863C0080103C00804C3C56
:104CE00000C0813C0080863C0080973C0040A83C8E
:104CF0000080943C0040BF3C0000D23C00200C3DB2
:104D000000C0063D00400A3D0040213D00201B3D03
:104D10000000EA3C00408B3C0080303C0080103CAE
:104D2000000080380000B0B90000F0BA00801DBC5F
:104D300000809CBC0080B5BC000004BD004022BDCA
:104D4000006041BD004047BD00C049BD000035BD09
:104D500000A02EBD00A01FBD00C00ABD0000C4BC45
:104D6000000081BC00007CBC000045BC0000F0BB22
:104D70000000DDBB0000F0BA0000C13B00804A3CEF
:104D80000000623C0000873B00008038000026BB2A
:104D900000004EBB000030BB0000383A0000813BF1
:104DA00000800E3C0000273C0000643C00C0903CAA
:104DB00000808E3C0080B53C0040B93C0040CE3CB9
:104DC0000000B53C0080C23C0080F83C00201C3D47
:104DD00000602A3D00E0403D00A04F3D00C0613D25
:104DE00000E0453D00403B3D0000193D0040D63C01
:104DF0000040843C0000C13B0000E8BA0000A1BBB9
:104E0000008068BC008095BC0040C0BC00C0DEBC17
:104E100000A000BD00C003BD008003BD002032BD66
:104E200000C061BD002050BD006039BD00C019BD8B
:104E300000402CBD000012BD0080F9BC0080E2BC27
:104E40000000E7BC0000C9BC00C0AFBC00007EBCD5
:104E500000803FBC00803EBC000065BC00806CBC94
:104E6000000062BC008049BC0000ECBB0000A3BB9A
:104E70000000A33B00802C3C0000973C0080593C84
:104E80000040843C0040B63C0000AB3C0000BA3C13
:104E90000040ED3C0020153D0040153D00E02A3D5E
:104EA00000C0283D00E0403D0080643D0000693DB9
:104EB00000A0723D0090803D0000833D00406C3DAD
:104EC0000060483D00001D3D0000F93C00C0B13CC1
:104ED00000000B3C0000AEBB008097BC0080EFBC24
:104EE000002014BD00A039BD00C03ABD000059BD6E
:104EF00000007FBD005091BD00108ABD002053BD51
:104F000000C02CBD00E023BD00C0DDBC00809CBC07
:104F1000000036BC000097BC004093BC00801ABC67
:104F20000000ECBB000032BC00005ABB0000983B04
:104F300000005A3B0000A93B0000803A00009CBAE8
:104F40000000ACBA000062BB000028BB0000ADBB93
:104F50000000D0B90000AC3A00801F3C0080583CF3
:104F60000080753C00805D3C00807B3C0080783C8C
:104F70000080583C0000AD3C0080C43C0080CA3C2E
:104F800000C0E43C0020053D0060273D00401A3D84
:104F900000203D3D00202F3D00000F3D00C0FC3CA7
:104FA00000C0EB3C0080AE3C00804C3C0000233C49
:104FB0000000833B0000BDBB00C082BC0040C6BCFB
:104FC00000C09ABC0000A6BC0080F7BC00803EBDBB
:104FD000004046BD008030BD00C011BD0000BDBC1A
:104FE000000013BC000022BB000090B9000098BA7A
:104FF0000000AEBB0000E1BB0000A9BB0000883A86
:105000000000C3BB000008BA0000A5BB008003BCC1
:10501000000038BC008059BC004082BC00C084BC89
:1050200000807ABC000095BC00007DBC008059BCAB
:105030000040CDBC0000C5BC00809FBC00803DBCD2
:105040000000F6BB000034BB0000B63B00806C3CA7
:105050000080963C0000623C0040A13C00C0B73C90
:1050600000C0F23C0080213D00E0473D00605F3D14
:1050700000E06A3D00406C3D0040653D00C04E3D93
:105080000000343D00800E3D0080073D0080E93C7B
:105090000000D83C0080AD3C0080C33C0080A33CB5
:1050A0000080963C0000D43A00C081BC00000ABDDC
:1050B000004004BD002005BD0080E1BC00C090BCE4
:1050C00000007EBC0000F2BB0000A3BB00009CBB44
:1050D0000000BCBB008002BC00800CBC004099BC3E
:1050E000000087BC0000F6BB0000EABB000073BCF8
:1050F000000071BC000089BB000027BC0000BABCE6
:105100000040ECBC00E009BD0080D9BC0040DDBC23
:105110000080F7BC00C0BEBC00007FBC008029BC82
:10512000000027BC000032BC00801FBC008001BC16
:1051300000004A3B0000E73B0000743C0080BA3CA2
:1051400000C0073D00404E3D00A0753D00F0813D90
:105150000010823D00A0853D00E06D3D00A0413D76
:105160000000163D0040E33C0000C23C0000AE3CA5
:105170000000883C00001A3C0000703A0000E83A49
:1051800000003CBB008058BC0080AEBC00E010BDFD
:1051900000602ABD00000BBD0040B0BC00007CBC1C
:1051A0000000A4BA0000A93B0000093C0000D43B69
:1051B0000000EC3B000026BB00802DBC0000F2BBD1
:1051C000000032BC000089BC0040A8BC00C0C0BCCC
:1051D000008090BC0040BEBC004093BC0080DBBCA3
:1051E0000000CCBC0000EFBC00000EBD006002BDA2
:1051F000002008BD00C092BC00000EBB0000173CA0
:105200000000273C0080753C0040B63C0080F93C23
:1052100000C0FC3C00A0143D0000263D00A0353D30
:105220000000263D0000123D0000313D00004E3DD3
:105230000020573D00A0363D00E0233D00C0123D58
:105240000040003D0000C93C0000073C0000223B3C
:105250000000EEBB00C08BBC000055BC00809FBCB2
:105260000040B1BC00C0FCBC00E022BD008051BDCC
:1052700000A057BD00204CBD00C011BD0000C2BC45
:10528000008038BC000040BC0000CBBB0000AEBBBF
:105290000000A1BB00805BBC00004FBC0000D6BB7F
:1052A000008002BC0000ACBA000028BA0000F0394F
:1052B00000008F3B00009ABB008077BC0040D4BC4C
:1052C0000000B6BC0040C6BC0000AEBC000047BC3D
:1052D000000005BC0000CCBA0000303B000008BA5A
:1052E0000000D23B00803F3C0000563C0040B23CF6
:1052F0000040E43C00A02B3D00C03E3D00803F3D0F
:1053000000404E3D0060873D00C0A23D00D0963D6C
:1053100000408C3D00708F3D00607C3D00202E3DA4
:1053200000C0CD3C0000353C000000BB00806CBCE0
:105330000040BEBC00C0FBBC00400FBD000012BD61
:1053400000E009BD00C047BD00E071BD000092BD96
:10535000007097BD00B091BD000059BD004028BD50
:105360000080ADBC00005EBB0000D43B0000C53B2C
:105370000000083B0000DA3B00006C3B0000123BE1
:1053800000801B3C00C0933C0000AD3C0000973CFB
:105390000080593C00801F3C000018BA000074BB1C
:1053A00000000BBC0000E2BC0000E3BC0000B5BC88
:1053B00000805CBC00804ABC00C093BC00806ABC1A
:1053C000008056BC0000F4BB00008F3B0000623C34
:1053D00000C0993C00C0CC3C0020093D00E0533D9A
:1053E00000206E3D00008B3D0030A03D0010BC3D14
:1053F0000090AF3D00109E3D00A0923D00605B3DDF
:105400000080D23C0000623B00803EBC00C09ABCE1
:10541000002011BD006022BD00C020BD0000FFBC07
:1054200000C0F9BC002010BD00402DBD00605FBD74
:1054300000A088BD00208BBD00E01EBD0040B7BCB1
:105440000000C4BA00C0C03C00800F3D0060013DB8
:1054500000C0E33C00C0A23C00000E3B000036BC94
:1054600000C089BC0040B6BC00C0B0BC0000BABCE3
:1054700000C0B0BC00C0FCBC006018BD004040BD16
:1054800000C05DBD00E07CBD00606BBD006048BD3C
:1054900000E004BD000028BC0000623B0080973C97
:1054A0000080F93C00E0173D00E02E3D0080293DE2
:1054B00000202F3D00601B3D00202B3D00E04C3DB7
:1054C0000060623D00A0693D00708B3D00308F3D63
:1054D00000308A3D00F0853D00007C3D00E0313D1C
:1054E0000000813C00800B3C0000A1BB0040C8BC18
:1054F00000C0FABC00201BBD00800FBD00200CBD09
:105500000000BABC0000ABBC008075BC000065BCEC
:105510000040EBBC006011BD002026BD0080F8BC3F
:105520000080BDBC0000F03A00C0B93C0040C03C67
:1055300000C0E63C0040C63C0000463C00803FBC4A
:105540000000C3BC006010BD002017BD00809DBCE2
:1055500000801FBC000046BB000008BC000032BC3D
:1055600000809DBC006011BD008029BD00E031BD00
:1055700000E000BD004082BC0000CCBB0000743BDA
:1055800000409A3C0000E33C00C0C03C00C0CD3C61
:1055900000809E3C0080793C00C0893C0000903C2B
:1055A0000040BF3C00A0003D0080033D0080333D33
:1055B00000A0753D0010933D00108A3D0000683D3D
:1055C00000004B3D0000083D0000523C0000CBBBFA
:1055D00000C0A1BC0040FDBC00600DBD00C0FCBC13
:1055E00000C0AABC00803DBC0000B8BB000000BBEE
:1055F000000074BB000005BC008090BC00C098BCDB
:10560000000094BB00801A3C0000F13C0080463D45
:1056100000004E3D00A0443D00A0183D0080293C04
:105620000000CCBC004030BD000062BD008069BD00
:1056300000A06ABD008046BD006031BD0080FFBC97
:10564000008002BD00603EBD00C06CBD00406DBD6D
:10565000004047BD00E001BD000023BC00004E3B00
:1056600000006E3C0080FD3C0080113D0060143D58
:105670000020103D0080F63C0080023D00000F3D00
:105680000040213D0080283D00202E3D00E0623D8D
:105690000020903D00D0923D00A08A3D00A0663DD4
:1056A00000E0393D0080E23C0000283A000097BC51
:1056B0000040FCBC00E027BD00001ABD0000AEBCED
:1056C00000802FBC0000083B00C0843C0040A93C87
:1056D00000C08B3C0000DF3B00001A3B0000A3BB76
:1056E000000068BB0000613C00C0DB3C00400A3D9C
:1056F0000080163D00C0FA3C0080673C00808EBCF4
:1057000000E039BD00F08FBD0000A5BD00A0B3BD15
:10571000004098BD004073BD008034BD0080CABC0D
:105720000000ADBC00A001BD00E026BD00004BBDE7
:1057300000A057BD00404FBD008020BD0080B3BC1D
:105740000000CBBB0000BD3B0080A53C0080D13CED
:105750000080C43C00C0993C00809C3C0040CF3C91
:105760000020053D0000353D0060853D0080AC3DDA
:1057700000A0DB3D0030013E0040043E0030F53D1E
:1057800000E0CA3D00A05F3D00807B3C00804CBC37
:105790000080F8BC00A010BD00E00BBD00805BBC29
:1057A000000074BB0000983A0000983A000012BB59
:1057B000008011BC0040C0BC00000BBD0040D0BC4C
:1057C000004083BC0000D4BA0040983C00A0003DDB
:1057D0000040CD3C00C0833C00800FBC00C02FBD0A
:1057E000005091BD0010BBBD0000CEBD0070BEBD1D
:1057F00000B09ABD00806BBD006020BD00809DBCE4
:105800000000D9BC00C019BD00A040BD008077BD1C
:1058100000C086BD000074BD002033BD0000B4BCD4
:105820000000C73B0000EA3C0040313D00007C3DE9
:105830000040853D00807F3D00C08C3D0000963DCE
:105840000060AC3D0070D33D0010F53D0030113ECE
:1058500000F8213E00F81E3E00C0FB3D0030AF3D89
:105860000080CC3C00801ABD0060AABD0080CEBD87
:1058700000B0BCBD00008FBD006018BD00804ABCF8
:105880000000143C0080203C0000FFBB0040F5BC41
:1058900000E04CBD000073BD00806FBD00201CBD4A
:1058A000000008BC00408B3C00A0173D00400E3DAE
:1058B00000809D3C008003BC004025BD005080BDA1
:1058C00000A090BD009089BD002063BD00202BBDCD
:1058D0000040DEBC00C0B6BC0000A7BC008021BDFB
:1058E00000005ABD001084BD00D089BD003080BDCD
:1058F000000035BD000026BC0040B13C00A0413D89
:1059000000D0823D00E0A83D00D0B03D0030B73D62
:1059100000A0B03D00C0AE3D0090B83D0050CD3D70
:1059200000C0DE3D0010FC3D00A00E3E00700F3EAA
:105930000030D33D0000563D0000A5BB00909EBD49
:1059400000F0FBBD003015BE00C806BE0050C6BD4D
:10595000008012BD00805C3C00E0313D00C0563D3F
:1059600000C0BD3C00804DBC004038BD00C08CBDB7
:10597000002087BD002058BD0000B4BC0000AC3A38
:105980000040AF3C0040913C0000D83B0000CCBB45
:105990000080DBBC00C024BD000034BD00E00BBDB6
:1059A0000080F1BC0080EABC0080D9BC00802FBD23
:1059B00000C068BD00F09FBD00F0B8BD00E0ACBD08
:1059C000009084BD00E022BD000032BC0000B53C68
:1059D0000000443D00809B3D0000B63D0090BE3D70
:1059E00000B0BE3D00E0BE3D0050C43D0060C33D80
:1059F00000E0DB3D0040E83D00B8023E00B8063E56
:105A000000900B3E00C00A3E00B0C93D0040193D69
:105A10000080F8BC00F0D0BD007012BE00901BBE2C
:105A200000A0F1BD00E084BD000070BA00A02B3DD5
:105A30000020453D0000303D0000F0BA004034BD7C
:105A4000004098BD0000B8BD0090A0BD006050BDF2
:105A500000806ABC00802E3C0080D83C00C0D53C51
:105A60000080693C00002CBB000089BC0000CCBC5D
:105A700000C0EABC00E022BD008077BD0080A6BD6A
:105A800000F0D0BD00E800BE006004BE0080E2BDB2
:105A90000000AEBD004052BD000053BC0040DF3CE2
:105AA0000040343D0040523D00003B3D00404F3D32
:105AB00000C0303D00E0353D00807B3D00C0B13D81
:105AC0000090E13D0078043E0088183E00E8223E48
:105AD00000C0283E00C0293E00181C3E00E0EB3DFF
:105AE00000A0053D00602ABD004007BE00C034BED6
:105AF00000582BBE0050D1BD0080BCBC00A06E3D44
:105B00000040DD3D0050D53D0000983D0000B63B13
:105B100000005EBD00B0C3BD0040D9BD00C0AABD3D
:105B2000002036BD0000403A0080F63C00A04C3D0D
:105B300000E0393D00C0123D0080DA3C0000403CEE
:105B40000000A43A0000E2BC006062BD00C0D3BD0A
:105B5000002015BE006032BE00902FBE002013BE94
:105B600000B0B6BD0000D8BC0000373C0080113D3D
:105B70000080DA3C0000283B00C0D4BC00605EBD61
:105B800000E071BD00602BBD000040BA0020443D24
:105B900000C0C23D0010063E00C81E3E0008213E67
:105BA00000A81F3E00181E3E00A8213E00781A3EA5
:105BB0000090B13D000030BB0040CABD00903DBE2A
:105BC00000284BBE00280FBE0080A5BC00F0B03DF1
:105BD0000000383E0050413E00600D3E00402D3D2B
:105BE00000E078BD00D0FFBD00D81DBE001801BE8A
:105BF000009096BD0000BDBB0060533D00B0B13DBC
:105C000000E0CA3D0030B73D0010AC3D00806B3D68
:105C100000E01E3D000022BB00A078BD001800BEC1
:105C200000303DBE009853BE00F848BE005002BE92
:105C300000A027BD0000353D00C0BB3D0020A93DB0
:105C400000C0023D0000F6BC0000B6BD00B0F2BDD1
:105C50000070D4BD003082BD00000ABC0020573D5A
:105C60000020E33D0090113E00B80F3E00C0073E0B
:105C700000B8063E0008103E00D0253E00383C3EED
:105C800000381C3E0000333C0040DBBD00105FBE0E
:105C900000D879BE00483ABE0080F0BC0010043E37
:105CA00000385A3E0028673E0000DD3D0040CDBC74
:105CB000008029BE00306DBE008864BE001027BE83
:105CC000006096BD0000623B0030863D0020CC3D68
:105CD00000A0F93D0030F53D00B0DA3D0010B93DBF
:105CE00000A02B3D004091BC00F0C9BD00A81FBE24
:105CF00000E045BE007832BE00E0E2BD00803FBC5F
:105D000000409D3D0010F53D0040F53D0020673D01
:105D100000C00DBD0090E0BD002011BE00800EBE91
:105D20000000ADBD00006FBC00603E3D0050AB3DCB
:105D300000A0D03D0040D63D00C0BD3D0010AC3DB0
:105D400000A0D73D0000053E00C8243E0020433E91
:105D500000D83A3E00108F3D0090BEBD00E84DBE19
:105D600000587EBE00F83BBE004019BD00B01A3E90
:105D700000B86F3E00C8603E00F0CE3D00E066BD5A
:105D800000D83EBE00507EBE003858BE00581BBE34
:105D9000000098BD008020BC0040133D0040893DBC
:105DA0000010E43D0048183E0090193E00E0FE3D22
:105DB00000C0383D00A045BD00E009BE000027BE80
:105DC00000181ABE0010BBBD000056BC00C0743DD8
:105DD0000000D83D00A0BF3D0060663D00C0CEBCC5
:105DE0000090BABD006815BE004818BE00E0F7BDBF
:105DF000002087BD0000C9BB0020013D00602B3D95
:105E00000040043D0020013D0040063D0060723D21
:105E100000D0B03D0030ED3D0040073E00F00A3EAE
:105E200000D8023E0040C13D00201FBD009826BEA4
