:020000042000DA
:04035C0000787FBFE7
:100360000080E8BE0090AF3D0030E73D0080E23DF8
:1003700000A0D93D00B0D03D00E0CA3D0040C73DDF
:100380000060C33D0090C03D00F0BC3D00C0B93DE1
:100390000060B73D0020B63D0030B13D0080AE3D6D
:1003A00000B0AB3D00B0A93D0060A73D0000A53DF9
:1003B0000020A13D00F09E3D00C09B3D0060983DA7
:1003C0000070953D0020943D00D0913D00708F3D20
:1003D00000C08C3D00208B3D0080883D0020833D87
:1003E0000010823D0050823D00007F3D00807B3D3B
:1003F00000C0773D0060723D00606D3D00206A3DA9
:100400000060673D0060633D00A05F3D00A05A3D75
:100410000020583D00E0543D0000523D00C04D3DDD
:1004200000404A3D00C0473D00A0443D0080423DA1
:1004300000803E3D0060393D0020363D0020323DC9
:100440000040303D00602E3D00E02A3D0020273D69
:100450000060263D0060233D00A01F3D00C01D3D03
:1004600000A01B3D00E0183D00A0143D0060133DBE
:1004700000000F3D00A00D3D00800B3D00E0093D58
:100480000020063D0080033D0060023D00A0003DCD
:100490000080F63C0000F23C0080EE3C00C0EB3CEB
:1004A0000000E83C00C0E53C0040E43C0040DD3C8E
:1004B00000C0D73C0080D83C00C052BD0010BBBD7E
:1004C0000030A0BD003082BD004037BD004030BDCF
:1004D00000C058BD000069BD00804EBD0080FEBC5C
:1004E00000C082BC000090BA00802B3C0000A53CFC
:1004F0000000D33C00E01B3D00004B3D0020833D4D
:1005000000F0983D0070A73D0070B13D00C0C03DB7
:1005100000C0C83D00C0D53D0050E03D0050E93D61
:1005200000A0F13D0060F03D00E0ED3D0060FD3DCC
:1005300000180B3E0048183E00381D3E0020183EB3
:1005400000A8053E0090ED3D0010E43D0070F63D32
:100550000020F43D0020F63D0050E23D0000DB3D70
:1005600000E0CA3D0050CF3D00B0E93D00E0053E4F
:100570000070113E0030173E0088193E0078153E8D
:1005800000B0183E00581B3E0070203E0088193E07
:1005900000F80F3E0008123E0018203E00B8253E2D
:1005A00000702A3E0068273E0068243E00F0153E99
:1005B0000010033E0050F33D0070F13D0010EF3D90
:1005C00000F0DF3D00B0DC3D00B0D43D0060CC3D2C
:1005D00000E0CF3D0040DD3D0000EA3D00B0DE3DE3
:1005E0000030E43D0030F53D0008003E0078043E58
:1005F00000C8023E00E0FC3D0060F93D0060F33DB4
:100600000080F03D0060F03D0000F03D0060023EE3
:100610000078093E00600E3E00700D3E00B0FF3DC8
:100620000040D93D0040C53D0010C03D00E0C63D42
:100630000010B73D0050A83D0090933D00D08F3D85
:1006400000808A3D0030973D0010A83D0080A33D0A
:100650000070A43D00F0A53D0000B83D00D0B63DBF
:100660000090AB3D00209A3D00C0923D00C0933DFC
:1006700000309E3D0010B13D00D0BC3D0070BE3D3D
:100680000070C23D0010CB3D0070AD3D00C0883D04
:1006900000205B3D0080643D0060763D00C0583D19
:1006A0000060453D0000213D0020273D00A04B3D5E
:1006B00000205F3D0060673D00A0443D00401E3DBE
:1006C00000801E3D00602B3D00601F3D00E01A3D94
:1006D0000080163D0000283D00002C3D00C0463D36
:1006E00000D0823D00D0893D00F0813D00207A3D60
:1006F0000050803D00D0823D00B0853D00E06D3D62
:1007000000804D3D00E04F3D00C04D3D0060403D4C
:1007100000003F3D00E02E3D0080193D00400A3DB5
:100720000020053D0080F93C0080F03C00000A3DBF
:1007300000C02B3D00A03A3D00403C3D00C02B3D99
:1007400000400B3D0080DF3C0040C13C00C0D43C79
:100750000040073D00E01E3D00401A3D00E0173D0F
:1007600000800B3D00C0A93C00802E3C0000363CC0
:100770000000953C00808D3C00804D3C0000123B09
:10078000000088BA0000D03900803F3C00007D3C6A
:1007900000009D3C00803F3C00003C3B00009C3B37
:1007A00000802D3C0040823C00802D3C00002C3B12
:1007B0000000083B0000333C00809C3C00000E3DE4
:1007C0000020103D0000F63C0080A33C00408B3C24
:1007D0000080783C0000443C0000443B000081BBAA
:1007E000000028BA0000D63B0080943C0040D03C7A
:1007F0000000E73C00C0AE3C0080803C0000403C74
:100800000000FF3B0000C33B000008BB000018BA1B
:100810000000B83B0080303C0080693C0000883C10
:1008200000C0B83C0040D73C0040153D00C0283D0A
:1008300000602A3D00803C3D00802C3D00C0253DED
:100840000000C53C0000283C0000003B0000923B3B
:100850000000A3BB004093BC0040C0BC004083BC70
:1008600000005EBB0080033C0080213C0000853B13
:100870000000F03A0000D83A0000E13B0080023C62
:1008800000000EBB0040B2BC00A013BD00C0E4BC21
:10089000000063BC000008BB0000983B0000963BD2
:1008A0000000F43B0080763C0000B53C0080863CB4
:1008B000000080B800006DBC00C0B1BC00804CBC22
:1008C0000000ADBB0000EABB008010BC0000FBBB19
:1008D00000005ABB0000083A000038BA000052BBC2
:1008E0000000A3BB000030BB00004A3B00801B3C63
:1008F0000000703C00805D3C0000423C00C08B3C2E
:1009000000C0923C0080C23C0040BE3C0080EE3CF7
:100910000080113D00C0163D0040F53C0000893CC0
:100920000000543C0000613C0000953C0000F43B9A
:10093000000006BC0080B5BC008077BC000074BB22
:100940000000D03900801CBC00803EBC000017BCF9
:100950000000083A0000A53B0000443B0000CCBB6F
:100960000080B4BC0000CCBC0040C0BC00808DBC8A
:10097000008066BC000042BC0000D2BB0000503AC0
:100980000000A93B0000A53B000026BB000004BC02
:10099000000024BC0000CEBB0000F8BA0000A1BBE0
:1009A00000004FBC0040A7BC0080B2BC008080BCEF
:1009B00000803FBC00001ABC000014BC000062BBF9
:1009C00000800C3C00008F3C0000CC3C0000C33C8D
:1009D00000808D3C0000DF3B0000D83B0080203CC5
:1009E0000000543C0000B03B0000FB3B0000893C91
:1009F0000040A23C0000B63C00C0EA3C00C02F3DD5
:100A00000080253D0000BB3C0000003B008048BC4E
:100A1000004085BC000017BC000071BC00C0AEBC2B
:100A200000C0FBBC0040E5BC000016BC0000123B4F
:100A30000000D23B0000603A000008BB000030BB61
:100A40000000283B0000CCBA00000ABC000098BCA3
:100A50000040B2BC00C0CFBC004084BC000015BC4C
:100A60000000B6BB000004BC0000F0B900001A3C56
:100A700000C0843C00C0A13C0040913C0000E53B2C
:100A8000000008BB000092BB000006BC000074BC64
:100A90000040D0BC0040DDBC00C090BC00004EBB9C
:100AA0000000743C0000EA3C0080F03C0000AC3CDC
:100AB00000805A3C00806A3C0080573C00801F3C0C
:100AC0000000C4BA000080BB0000DABB000088BA96
:100AD00000000A3C0080973C00C0BD3C0000BA3CCE
:100AE0000000633C0000853B0000263B00009EBBED
:100AF000000043BC0000C2BC00800FBD000016BD5A
:100B00000040CEBC000006BC0000B23B0000EC3B45
:100B10000000BC3A000007BC00800FBC000026BCEF
:100B2000000055BC00009FBC000097BC008094BC36
:100B3000000080BC000043BC004082BC000088BCB8
:100B400000802CBC0000943B0000803C0040CE3C68
:100B500000C0DD3C0080AB3C0080213C0000E8BAD6
:100B600000803ABC008086BC0000BDBC00C0AABCAE
:100B700000001ABC0000C33B0040A13C00C0C63CC2
:100B80000080D23C0000E03C0040E43C0000F73C28
:100B90000000E73C00C0AE3C0000C33B00009FBB30
:100BA00000807BBC0000C2BC0080F6BC00C0F4BC6E
:100BB00000008DBC000008BB00008B3B0000923B96
:100BC0000000CC3B0000303B0000C7BB00005EBC17
:100BD00000C093BC0040BEBC0040A2BC000080BB73
:100BE0000000C13B0080383C0000133C0080693CA1
:100BF0000040993C0080AD3C0040A93C00009E3C78
:100C00000080573C0000293C0000D63B000000005B
:100C10000000C9BB000018BC000090BB00004A3BAC
:100C20000000D83B00802D3C0000163B00004ABB72
:100C3000000051BC004093BC0000BCBC0040EBBCB9
:100C4000008015BD00800EBD0040F2BC008096BC47
:100C50000000C5BB0000223B0000093C0080663C50
:100C60000080CC3C00C0CF3C0080A43C0000403C55
:100C70000000333C0000A53B000092BB000027BCF5
:100C8000000035BC000024BC0000B4BA0000B43B36
:100C90000080013C0080213C0000433C0080483C37
:100CA00000005A3B0000E1BB00C0BFBC000007BD14
:100CB000002006BD00C0F5BC0080BDBC004082BC69
:100CC0000000DBBB00800B3C0000AE3C0040EE3C73
:100CD00000200C3D00C00D3D0040DD3C00408B3C41
:100CE00000802F3C0000E53B0000AD3B00009ABBBC
:100CF000000018BC00800FBC00008BBB0000403A15
:100D000000000E3B0000803A0000983B00007C3B56
:100D1000000060BA00408BBC00E008BD00A035BDFB
:100D200000E040BD008028BD0080F7BC0000C3BCCF
:100D3000000045BC0000E83A0040983C0040D73C29
:100D40000040A33C0000623C00C0A23C00C0A23CAA
:100D500000806B3C0000803B00001ABB0000083A9A
:100D60000000AB3B00803E3C00005E3C00C0AE3C5F
:100D70000080D33C0080FF3C00C0CD3C0000713CB3
:100D80000000F0B900801ABC00804BBC0040A8BC39
:100D90000080DFBC00C0FBBC0080E1BC004089BC1F
:100DA0000000CEBB0000D83A0000FB3B00806C3C4A
:100DB0000000BC3C0040CE3C00007C3C0000E83A17
:100DC000008081BC0000C9BC0000F0BC00C0C5BCF4
:100DD00000408BBC000019BC000013BC00005ABBD3
:100DE0000000223B00801B3C0000FD3B00001E3B3E
:100DF0000000F2BB00C082BC00805DBC000046BCAD
:100E000000803ABC008049BC000013BC000040B91F
:100E10000000153C0080B43C0040AF3C0000A73C03
:100E20000080B33C00C0AF3C00809C3C0080483C4C
:100E30000000C93B0080383C0000B43C0000D33CBB
:100E40000040CE3C00C0CF3C0080FF3C0040BF3C97
:100E500000006D3C0000DB3B00001A3B0000CBBBF8
:100E6000000053BC00C0E3BC00E001BD0000F8BCC2
:100E70000040B9BC000054BC0000ECBB0000D4BB77
:100E800000801ABC000038BB0000523C00C0823C0D
:100E90000080123C0000083B008065BC00C0BEBC66
:100EA0000000D9BC008003BD00E017BD008012BD6A
:100EB0000040DDBC00806CBC000098BB0000283CFA
:100EC00000804B3C0000083B0000853B0000BCBBA1
:100ED0000000CCBB00804CBC000043BC008002BCC6
:100EE00000008BBB0000BC3B00009C3C0040B23CBF
:100EF00000C0073D0000293D0060263D00403C3D0C
:100F000000A01C3D0000043D0040B83C0000AC3C8B
:100F10000080C23C0080A33C0040923C00006F3C3B
:100F200000006E3C0000133C0000403900000EBB86
:100F3000000028BB0000083A0000B4BA000028BC3A
:100F400000803ABC000081BC000040BC000089BBAE
:100F5000008002BC00803FBC000089BC000061BC76
:100F60000000A7BB00000E3B0000283B0000F6BBC2
:100F7000000031BC00C091BC00C0B0BC00804ABCC5
:100F800000C0A0BC00808DBC00804EBC00801BBC9B
:100F9000000004BC0000643B00008D3B0000E13B0E
:100FA0000000AE3B0000E83A0000BA3B0000BD3B49
:100FB00000009A3B0000963B0000623B00800B3C27
:100FC0000040A23C0000CB3C00C00B3D00C0283DCF
:100FD00000400A3D0040123D0080D13C0040833C6F
:100FE0000000173C00801BBC00806BBC000041BCB3
:100FF0000000BABB0000AC3A0000B63B0000EE3B7C
:101000000000343C0000B83B0080773C00C0B13C9D
:1010100000007C3C0000463B00804ABC0080ABBC2A
:101020000000B6BC00409ABC004092BC00006FBCFF
:10103000008094BC00006EBC000070BC00005EBC70
:1010400000009CBB0000F9BB0000FFBB0000CCBB54
:10105000000015BC0000F4BB0000B6BB004085BC1E
:1010600000805BBC0040C1BC00801ABC0000383A64
:101070000000CC3B0080C23C00C0A13C00006D3CA5
:101080000000643C0000893B0000D83B0000AE3B00
:10109000000098BA0000383C00806B3C0040A13C46
:1010A0000080DF3C0000723C00C0B03C0080593C36
:1010B00000801C3C0080573C00009ABB000063BCD1
:1010C00000809CBC00C0E3BC00C090BC000074BCAD
:1010D000000014BC0000B0390000D4BA0000413C4C
:1010E0000000283C0000E33B0080213C0000F0BAF7
:1010F00000803EBC00006DBC0080BBBC00805BBCBF
:10110000000043BC000096BB0000CC3A0000F8BAD7
:101110000000943B0080383C0000173C00809C3C61
:101120000080383C00801F3C0000B23B00008F3B39
:101130000000F83A000040BB00001ABC0000CEBB23
:10114000000035BC0000D6BB0000C7BB00801EBC41
:10115000000096BB0000ABBB0000003900001A3B4A
:101160000000853B0000CC3B000044BB000051BCAC
:10117000000061BC0000C9BB000062BB0080013CF4
:101180000040943C0000A43C0040C53C00C0833CAF
:101190000000BD3B0000000000801BBC000037BC0D
:1011A000000004BC00800CBC000090BB008001BCAF
:1011B000000052BB000090BB0000C3BB000080B821
:1011C0000000B2BB000050BA0000F0390000ACBA19
:1011D0000000CCBB000063BC00803FBC00800CBCA6
:1011E00000002CBB0000313C0080683C00C0C03CCB
:1011F0000080CC3C0040C63C0080D13C0040A73C75
:101200000000D13C0080D03C0080BD3C00809F3C71
:101210000000503C0000D83A0000D43A0000123BD5
:10122000000080380000BCBB000034BB0000CCBB19
:10123000000080B80000B6BB00800DBC0000E5BB1C
:1012400000803CBC008021BC008049BC008075BC93
:10125000000005BC000063BC008039BC0000FFBB7F
:101260000000BDBB0080033C0000003B0000293CA7
:1012700000803E3C00004039000085BB0000E7BB19
:10128000008002BC0000DBBB00802DBC00009FBBC7
:1012900000801ABC00803DBC000081BB00005EBB2A
:1012A0000000263B0000D43B00003C3B0000E93B33
:1012B0000000A73B0000BA3B0000AD3B0000003B34
:1012C0000000E0BA0000B0B90000BD3B00C0993C8E
:1012D00000C0D43C00C0C83C0040DE3C00808F3CD5
:1012E0000080653C0000423C0000463B0000263C7C
:1012F0000000F63B0000243C0000EE3B000050BA2A
:101300000000183A0000E8BA0000783B00004ABB31
:10131000000042BC00802BBC000061BC00804ABCC5
:10132000000004BC00000BBC00007CBC00805BBC67
:10133000000054BC008039BC0000AEBB000016BBEE
:10134000000028BB0000E8BA000090BB000090BA83
:101350000000883A00000E3B0000893B0000383A4C
:101360000000443B00000039000070BA000068BB78
:101370000000C4BA00001EBB0000B43B0000DF3B0D
:101380000080123C0000A93B0000963B0000923B0D
:101390000000523B00008F3B0000803A0000163BEB
:1013A0000000D43B00807A3C00806A3C0000423C54
:1013B0000000923B00009F3B0000233C0080013C6A
:1013C0000000CB3B00001E3B0000303B000004BB94
:1013D0000000703A008020BC0000D83A00008BBBAF
:1013E00000000BBC000051BC00C0A2BC004098BC77
:1013F0000000B3BC0040C1BC000073BC00C092BC84
:101400000000CEBB000038BB0000E13B0000473CC1
:101410000080393C0080653C0080793C0000183C2D
:1014200000008D3C0000463C00C09A3C00009E3C01
:1014300000807B3C0080863C0080383C0000F43B10
:1014400000005E3B0000D03900008BBB0000303B49
:101450000000A1BB0000F83A0000ACBA008012BC4A
:10146000000080B900007CBB0000BC3A0000D83A04
:101470000000BCBB000028BB0000D0BB00000EBBBE
:101480000000903B0000F4BB0000283B0000F0BAD5
:10149000000092BB0000D03B0000CBBB000044BB6F
:1014A0000000C3BB000056BB000004BB0000CBBB68
:1014B00000803FBC000036BC008067BC008066BC7A
:1014C00000409BBC0000C5BC00409ABC004099BCD9
:1014D000008039BC0000C1BB0000C3BB000080BA63
:1014E0000000AD3B0080873C00C0AE3C0040A23C09
:1014F0000040A03C00C08B3C0080963C0040ED3C8E
:1015000000C0BD3C0000FE3C0040B13C00C0A03C1F
:1015100000C0933C0000343C0000403C00009E3B77
:101520000000133C00002C3B0000E13B0000A4BA8B
:101530000000883A00008FBB0000403A008011BCD8
:10154000000062BB00801DBC000043BC00C08BBC1F
:10155000000060BC000053BC008011BC00008FBBC9
:1015600000004ABB0000183A0000383A0000B43AC4
:1015700000009C3A00003C3B0000163B0000C4BA4F
:10158000000034BC00807BBC00C0CCBC000097BC19
:10159000008012BC000098BB000000B900802ABC8B
:1015A0000000DDBB0000A9BB000040B90000B43A58
:1015B0000000083B00000ABB0000373C0000043C70
:1015C0000000C23C0080953C0040943C0000563C2A
:1015D0000000863C0040B03C0000EA3C00C0F53C06
:1015E00000A0053D0040923C0080963C0000BA3BC4
:1015F0000000A53B0000403A000090BB000078BB13
:101600000000F4BB0000F2BB008001BC000016BC6F
:1016100000009EBB000088BA0000F8BA0000C43A7F
:1016200000801CBC0000D4BA00006FBC0000F2BBFC
:101630000000F8BB0000E8BA000040BB0000E83A38
:101640000000263B000070BA0000D03B0080003C48
:101650000000E93B00004ABB000028BB000037BC8B
:10166000000026BC00802EBC000016BC000054BC4C
:101670000000EEBB000051BC00004EBB0000003B70
:101680000000A93B00003C3B0000463B0000223B21
:10169000000000000000173C00C0913C0080A43C0A
:1016A0000040843C0000613C0080653C00C0923CEE
:1016B00000C0833C0080863C0080773C0000533CA7
:1016C00000801E3C0000BF3B0000083A000026BC22
:1016D000008080BC000089BC00809EBC00808EBC65
:1016E000008048BC000068BB0080003C0080113CCA
:1016F00000802A3C0000E33B0000263C00005A3BEF
:10170000000000390000903A0000503A0000F83A1A
:1017100000800B3C000080380000DF3B0000303BC5
:101720000000B23B0080213C0000273C0000653CEB
:101730000000D03B0000523B000070BB0000ECBB3F
:10174000000007BC000009BC008012BC0000B2BB56
:101750000000903900004A3B0000623B00001EBBC5
:10176000000083BB000074BB0000E03A0000C43AF4
:101770000000E13B0000F0B90000343B0000C7BBB3
:101780000000703A0000443B0000543C0080873C5D
:1017900000803D3C00801A3C0000E33B000098BA0A
:1017A000000040BB000098BB0000D0BB000013BC91
:1017B000000062BC008029BC004089BC008000BCE5
:1017C00000800DBC0000D0B9000000000000083B04
:1017D000000000BB0000983B000092BB0080013C71
:1017E0000000B6BB0000FB3B000090B90000EC3BE2
:1017F0000000FB3B0000453C00804E3C0040BF3CED
:101800000000A73C0000F23C0040A83C0040CF3C58
:1018100000C0B03C0080813C0000563C0000BA3B58
:10182000000080BA00000039000000000000523BB8
:101830000000833B0000853B0000703B0000683BDC
:101840000000F8BA0000E5BB00801CBC00000BBC27
:10185000000074BC000034BB000023BC0000893BC6
:101860000000EC3B0000323C0000313C0000333C07
:101870000000E13B0000B03B0000983A0000303B24
:101880000000ADBB000078BB0000F0BB000013BC43
:10189000000023BC000007BC000017BC000004BB14
:1018A0000000B4BB00001ABB000074BB00009FBB6B
:1018B000000080BB0000A9BB0000D43A0000683BD8
:1018C0000000153C0000F93B0000063C00009C3B7A
:1018D00000801D3C00802B3C00007E3C00408B3C87
:1018E0000040823C0000293C0000503C0000B43B1A
:1018F00000009F3B0000083A000004BB00005ABBF8
:101900000000F0BA000080380000983A00000000A3
:101910000000CC3A00000E3B0000183A0000083AE4
:101920000000E8BA00005E3B000000390000083B00
:10193000000038BA0000F23B0000423C0000623C6C
:101940000000453C00800F3C0000623B0000523B21
:101950000000A43A0000183A00006CBB000090B9E7
:10196000000034BB000040B9000015BC000026BBDD
:101970000000D6BB000080B90000ABBB0000083BF4
:101980000000703A0000623B0000F03900000A3BA2
:1019900000001A3B0000E13B0000423C00805A3C42
:1019A0000000553C00808F3C0000383C00805A3CD1
:1019B00000801C3C0000783B00009C3A000026BBE5
:1019C0000000D0BB0000C3BB000032BC00800BBCD9
:1019D00000C081BC0000E5BB0000DBBB0000F9BB20
:1019E000000078BB0000AEBB0000C7BB0000CC3AD3
:1019F000000034BB000022BB00001EBB000040BA48
:101A00000000A43A0000163B0000E73B0000253C24
:101A10000000553C0000343C00800C3C0000083BBA
:101A20000000743B0000F03B00004E3B0000683BB0
:101A30000000523B00008B3B00004A3B000040BAD4
:101A4000000040B90000D0B90000603A0000A43A9C
:101A50000000003900000ABB000018BA000028BBD3
:101A60000000903A0000563B0000163C0000B23BDC
:101A70000080303C0000143C0000043C00001A3B95
:101A800000001E3B0000083A0000283B0000C13B5C
:101A90000000383B00000A3B0000183A000081BB00
:101AA000000078BB0000ADBB0000283A0000D03930
:101AB00000007C3B000090BA000040390000C1BB30
:101AC000000089BB000023BC0000F4BB0000B8BBD1
:101AD0000000C7BB0000BCBB00009FBB0000E5BB13
:101AE000000018BA000085BB0000083A000080BA68
:101AF000000080390000D23B0000B63B00803D3C36
:101B000000807A3C0040853C0000803C00C08C3C5A
:101B100000803F3C0080813C0000DB3B0000283C13
:101B20000000703B0000043C000050BA0000BCBA4A
:101B30000000B6BB0000DDBB00009FBB000028BB5F
:101B4000000060BA000090BA000088BA0080003C33
:101B50000000503A000012BB000045BC00802EBCC3
:101B6000000006BC000062BB0000D4BA0000B0B99F
:101B70000000F0390000D8BA000050BA0000D0B917
:101B80000000403B000087BB0000D8BB008056BC73
:101B900000802DBC00803FBC00801EBC0000CBBB81
:101BA0000000A7BB0000803900007CBB0000223B86
:101BB00000009CBA00002C3B00005E3B0080003C13
:101BC0000000E33B0000813C00C0A13C0040B03C71
:101BD00000C0A73C0080743C0000453C0000863CEF
:101BE00000008E3C0000A53C00007D3C0000183C3D
:101BF0000080033C000000390000263B0000D8BAFA
:101C00000000D8BA00009C3A0000053C0000C53B2B
:101C10000000D83B00000ABB0000D2BB0000ACBAF9
:101C20000000F0BA0000D6BB0000C1BB000022BC1F
:101C3000000007BC00803FBC008029BC000008BC3D
:101C4000008075BC000042BC000043BC008047BC63
:101C5000000062BC00C089BC008057BC00804ABC48
:101C600000800FBC000019BC000028BC00801DBC17
:101C70000000B6BB0000AC3A0000D43A0000813B43
:101C80000000163B00007C3B00005F3C0080593C9C
:101C90000080873C00007D3C00408A3C0080B43CD2
:101CA0000040B13C0080873C00805B3C0000503C21
:101CB0000080853C0080793C0000363C0000A93B58
:101CC0000000813B00006C3B00000039000034BB89
:101CD0000000F0BA000016BB000018BA00800B3CF0
:101CE0000080563C0080593C0000BF3B0000803B18
:101CF000000028BB0000403B0000CE3B0000A33B9F
:101D00000000403B0000E0BA000092BB0000B0BB06
:101D10000000DABB008012BC00803ABC008038BCF6
:101D200000801ABC008075BC000051BC008011BC52
:101D3000000008BC0000A5BB000064BB00008BBB1A
:101D4000000034BB000090390000343B0000983A9A
:101D50000000623B0000D83A0000DD3B0000983BE9
:101D60000000093C00804B3C00007E3C0000A63C8B
:101D70000080B23C0080CB3C0000AE3C00808E3C3A
:101D80000000603C0000613C0080483C00805B3CFF
:101D90000000F23B0000B83B0000FFBB0000BCBBF2
:101DA00000801FBC000044BC008049BC008048BCCF
:101DB00000000ABC0000F0BA00008D3B0000FD3BB3
:101DC0000000DA3B0000873B0000703B0000813BD5
:101DD00000801A3C0000D63B0000043B00800EBC93
:101DE000008030BC000044BC00800EBC008010BCF1
:101DF000008039BC00803BBC0000ABBB000026BBB0
:101E00000000CC3A00000EBB000064BB000078BBB1
:101E100000004EBB000040B9000089BB00000EBBB3
:101E20000000F0B9000090BA00003C3B0000143CF8
:101E30000000623C0040A13C0000A73C0000A43C24
:101E40000040C13C00C0C83C00C0D63C0040C03C83
:101E50000000B43C0040EB3C0040EE3C00C0FA3CCB
:101E60000080BB3C0080A43C0000953C00806A3CA4
:101E70000000F03B000026BB0000E3BB008030BC4C
:101E8000000040BC0000C2BC0000D2BC0040CEBC80
:101E900000809FBC008074BC008011BC00802EBC00
:101EA0000000D4BA0000923B0000383C0000073C20
:101EB0000000873B0000083B00008039000090BA1A
:101EC0000000F0B9000074BB00002C3B0000D43AC5
:101ED0000000ADBB0000ACBA0000F0BA000040BA90
:101EE00000004ABB0000B4BB00802DBC008003BCD6
:101EF0000000ECBB0000F2BB000013BC00007CBB88
:101F00000000D4BA0000B63B0000083C0000363C9C
:101F100000808F3C0000A43C0000D13C0040D03C3D
:101F200000C0FB3C0000E33C00600D3D00A00D3D07
:101F300000C00E3D0000E23C0040DC3C0080AC3CB8
:101F40000080BB3C0080123C00009C3B000028BB92
:101F5000000078BB0000BDBB0000F8BB00806CBC7B
:101F600000C09BBC00C083BC008090BC000098BC3B
:101F700000C084BC000043BC008020BC00004EBBFD
:101F8000000008BA0000F23B00800C3C0000F43B6B
:101F90000000D83B0000383A0000383A0000C43A4C
:101FA000000090BA0000AC3A0000883A000078BB0C
:101FB0000000C3BB000035BC008048BC00801BBCD7
:101FC00000801BBC0000EEBB0000ECBB000023BC8B
:101FD0000000D4BB00006EBC000014BC000004BCB8
:101FE0000000F0BA0000443B0000A53B0000DF3BCE
:101FF0000080783C0080813C0080A43C0080663CEE
:102000000080583C00C08A3C0000553C0000233C46
:1020100000803D3C0000513C0000513C0000B23BC0
:102020000000C13B0080113C00805D3C0080033C0F
:1020300000002C3B000040B90000ACBA000080B9A1
:10204000000090390000383B0000183A00000A3BBD
:10205000000078BB00009FBB0000C1BB00004E3BEE
:102060000000FB3B0000FD3B0080213C00803E3C2B
:1020700000006D3C00C09F3C0080883C0000FD3BA0
:10208000000050BA0000003B000050BA0000000001
:10209000000068BB00800FBC000068BB000038BBBC
:1020A000000004BB000090BB0000F9BB00804ABCEC
:1020B000008080BC004094BC00804CBC008069BCA7
:1020C00000804CBC008002BC00009ABB00009CBB9E
:1020D00000008FBB0000A7BB0000D43A000044BB47
:1020E000000000390000883A000088BA0000F03A89
:1020F00000002C3B0000C53B0000513C0080773CB9
:102100000000893C00C09B3C00C0923C00009F3C0A
:102110000000883C00804B3C0000063C00800B3CEB
:102120000000143C0000D83A0000F8BA000090B952
:102130000000E03A0000FB3B0000133C0000223CA2
:1021400000006D3C0080973C0080B33C00C09B3C8D
:1021500000809C3C0080653C00000B3C0000F03A95
:10216000000090BA0000C1BB0000F6BB00804ABC72
:10217000008058BC00005EBC00801BBC0000ECBBB3
:102180000000C3BB000013BC000007BC000013BC70
:102190000000FFBB000038BC00000ABC000006BC09
:1021A000000015BC000035BC000046BC000028BC87
:1021B000000033BC008058BC000052BC0000DFBBF4
:1021C0000000D8BB0000BFBB000026BB0000403BA6
:1021D000000038BA00000A3B0000083B0080113CB8
:1021E0000000433C0000C93B0000B63B0000183C27
:1021F0000000563C00408B3C00808D3C0080AD3C94
:102200000080BC3C0080963C0000653C0000523CD5
:102210000040843C0080123C0000A93B0000253CAB
:1022200000C0AE3C00007D3C0000D43B0000B43B4D
:1022300000806A3C0080743C0000EC3B00008B3B5B
:102240000000783B0000A73B0000783B0000B0395D
:102250000000B0B9000040BB000056BB0000C7BB87
:1022600000804ABC0040B1BC00808DBC000047BC6F
:10227000008003BC0000F4BB008000BC0000F6BB83
:102280000000283A0000923B0000853B0000BFBBE5
:1022900000006FBC00802DBC00803EBC004085BCAF
:1022A0000000B5BC000086BC0000B2BB0000BCBB97
:1022B0000000503A0000A13B00009F3B0000643B3F
:1022C0000080023C0000353C00802E3C0000923B28
:1022D0000000B43A000062BB0000C7BB0000A5BB11
:1022E0000000A73B0000EA3B00802E3C0000963C2B
:1022F00000C0993C0040823C0000333C0000F83BA9
:102300000080303C00008D3B00000EBB0000E0BAB6
:10231000000040BB00000A3B0000B23B0000EA3B6B
:102320000000C53B0000623B0000DB3B0000533C6B
:1023300000801D3C0000B43A0000BCBA0000123B13
:10234000000098BB00800FBC00000ABC0000A4BACB
:102350000000803B00001A3C0000503C0000403C64
:102360000000373C0000293C0000503C0000923B3C
:1023700000002CBB000051BC00C08BBC004089BCDD
:10238000000029BC0000DBBB0000A7BB000030BB85
:10239000000040BA0000D23B0000983B0000623BC6
:1023A0000000FFBB00801BBC000047BC008047BC96
:1023B000000060BC00805ABC00807ABC000090BA6B
:1023C0000000B0BB000008BA0000E93B00804D3CB3
:1023D0000080103C00009ABB000081BB00009039D7
:1023E000000092BB0000FDBB000000BB0000383CB9
:1023F0000080813C0080663C00804B3C0000233C18
:102400000000733C00007D3C0000173C00801C3C39
:10241000000098BA008001BC00008DBB0000383B72
:1024200000009C3B0000CCBA00009E3B00C0A13CD9
:1024300000C0DD3C00C0BE3C0040833C0080683CE6
:102440000080903C0000873C0000B03B0000A5BB32
:102450000000A5BB00009F3B0000D43A00001EBB5B
:10246000000015BC0000FFBB0000C7BB00008FBB15
:10247000008001BC000006BC00803BBC000043BCE7
:10248000008074BC008066BC000064BC008077BC27
:10249000008096BC0040B1BC000088BC000022BC9B
:1024A000000023BC000028BC00800CBC0000263BC0
:1024B0000080023C0000A33B00004A3B000080B8C3
:1024C000000080380000B4BA00001EBB0000D4BA7F
:1024D0000000E83A0000343C0080A33C00C0903C7F
:1024E0000000A73C0080C93C0080E93C0040D43C8F
:1024F0000040AA3C0000863C00803A3C00009F3B24
:102500000000B43A0000783B000000000000503AA0
:1025100000001A3B0000873B0000443B0080013C68
:102520000000603C0000093C000070BA0000E8BAFE
:10253000000056BB00009CBA00000EBB000098BB18
:102540000000D0B90000BF3B00004E3B000000BBC4
:10255000000040BB000090BB000083BB0000A9BB93
:10256000000025BC008077BC008059BC004084BCC2
:10257000008095BC000055BC000083BB0000BCBAC5
:102580000000B2BB0000B6BB000064BB0000803A94
:1025900000008038000004BB00008BBB0000D6BBED
:1025A00000009FBB0000B0390000A1BB0000B0BB21
:1025B00000002CBB0000803B0000EA3B0000093C0F
:1025C0000080803C00C0A83C0000D13C00C0DC3C46
:1025D00000A00D3D0000CB3C00C08B3C0000723CD5
:1025E0000080383C0000833B000050BA0000703A85
:1025F00000006C3B00004E3B0080013C0000653C4D
:1026000000802B3C0000423C00006E3C0000743C0B
:1026100000009C3A000029BC00807ABC000016BC77
:1026200000001ABC000028BC000081BB00009C3BDD
:102630000080123C0000613C0080813C0080383CFE
:102640000000D43B0000F2BB00C098BC008097BCE7
:10265000004094BC00C0CFBC0080C3BC00005FBC85
:102660000000A1BB000008BB0000AC3A0080203C89
:102670000080583C0000D03B0000F0B9000088BA50
:102680000000F8BA00008BBB000062BC000043BC35
:102690000000DBBB000026BB000038BA0000703A27
:1026A0000000873B0000B43B0000053C0000283CD4
:1026B0000000803B000016BB0000283B00003C3BB4
:1026C0000000D83A000016BB000028BA0000F0B99C
:1026D0000000A73B0080123C0000723C0040843C9C
:1026E00000C09A3C00C0D53C00C0F53C00E0003D75
:1026F00000C0B73C00C0843C00800B3C0000223C82
:102700000000403B0000CC3A0000CCBA0000003B87
:102710000000BC3B0000463C0000353C0000083C8B
:102720000000253C0000B03B0000BA3B0000F43B39
:102730000000F0BA008087BC00C0E5BC00C0B8BC97
:1027400000408BBC008068BC00802CBC000012BB29
:102750000000B23B00C0813C00C0A93C00809F3C0F
:102760000000403B00007CBB0000523B000017BC57
:102770000040C1BC00C0BFBC000096BC008086BC4D
:1027800000C0AFBC000023BC0000BDBB008010BC7B
:1027900000800CBC0000ACBA00000A3B0000B0B9DD
:1027A00000804BBC0000B8BB000026BB00005ABB39
:1027B0000000BCBA0080003C0000263C0080113CB8
:1027C0000080593C0040C03C0000903C0000713C3F
:1027D00000C0833C0000613C0000733C00804A3C28
:1027E0000000383C00001A3C0000813B00005A3BCE
:1027F0000000B63B0000263C0000223C0080103C5C
:102800000000433C0080C23C0080A63C00C08C3CE1
:102810000080593C0000163C0000223C00008F3B29
:102820000000D0B90000D8BA0000A73B0000F23B7E
:102830000000623B0000F0B9000012BB0000F0395C
:102840000000603A0000A7BB0000C3BB000032BC20
:1028500000C083BC00809FBC00C082BC000073BC71
:1028600000805ABC00808EBC000060BC0000FDBB34
:1028700000007CBB00003CBB00009EBB00008B3B0B
:102880000000EE3B0000CB3B00004039000008BADE
:10289000000016BB00000EBB000060BA000040B98B
:1028A0000000D0390000F0B90000CC3A00000EBBA7
:1028B00000004E3B0000803A00008DBB0000BABB18
:1028C000000088BA0000873B00007C3B0080013C90
:1028D0000040923C00C0A93C00C0B03C00809C3C41
:1028E00000808F3C0080853C0080653C0000893C76
:1028F0000080663C00007C3C0000433C0080033CC0
:102900000000F03B0080763C0080683C0000273CE3
:1029100000000B3C00008D3B0000703B0000E8BA5B
:102920000000B4BB00008FBB0000CEBB000051BC58
:10293000000056BC008056BC00009ABB000028BBBB
:102940000000A4BA0000A5BB0000DBBB000034BB44
:102950000000263B0000F63B000004BB0000F8BB73
:10296000000068BB00009C3A0000F8BA00802ABC56
:10297000008075BC000060BC0000DBBB000034BB05
:10298000000080BB0000BDBB000092BB00005E3BAE
:102990000000A13B00004039000080B8000068BB87
:1029A0000000A5BB0000983A0000A33B0000F03AED
:1029B0000000963B00801B3C00C09F3C00C0D53C03
:1029C0000000C33C00807A3C0080573C00807A3C89
:1029D00000000B3C0000AC3A00004039000008BB8E
:1029E000000094BB00007CBB0000B03B0000243C16
:1029F0000000E93B0000F03B0000723C00809D3C81
:102A00000080653C0000DB3B00009C3B0000783B05
:102A10000000803900007CBB0000B0B90000163B0C
:102A2000000028BA0000D4BB000080BB00001EBB21
:102A3000000050BA0000F83A00007C3B0000D63B92
:102A40000000AC3A0000D43A00002C3B0000E93B07
:102A50000000B0B900004EBB000000000000E93BE0
:102A600000009F3B000088BA000030BB00004ABB5A
:102A70000000F9BB000014BC0000B2BB00001ABC8F
:102A8000000045BC000022BC0000A5BB000000B94E
:102A9000000012BB0000AEBB000078BB0000123B80
:102AA0000000943B0000503A0000AC3A0000BCBA71
:102AB000000080B90000403B0000D43B00007C3B9C
:102AC0000000E93B0000143C0080583C00803F3C83
:102AD0000000C73B0000B63B0000BA3B0000403B93
:102AE0000000C43A0000F03A00005E3B0000743B76
:102AF0000000D83B0000293C0080003C00800D3CD9
:102B00000080293C0000383C00804A3C00800B3C9F
:102B100000003C3B0000A73B0000683B0000D0B930
:102B20000000383A00002C3B0000D43B0000283B5A
:102B3000000062BB00001A3B00004A3B000040B9A5
:102B400000009FBB000087BB0000A5BB000017BCB6
:102B50000000F4BB000026BB0000E3BB00802FBCDC
:102B600000000BBC0000F8BA000078BB008001BC7C
:102B700000801FBC0000B8BB000078BB0000E0BABA
:102B800000005EBB000096BB0000DDBB0000F8BB90
:102B9000000038BB000088BA0000AEBB00801FBC3C
:102BA0000000BABB000008BB000088BA000089BB67
:102BB000000038BB000038BA0000443B0000B23BC4
:102BC0000080003C0000283C0000373C0080693C4D
:102BD00000C08A3C0040853C0080783C0040843C3A
:102BE00000805C3C00806C3C0000503C00804D3C10
:102BF0000080693C0080683C0080493C0080683C63
:102C00000080693C00803F3C00C0843C00C0823CA6
:102C10000000253C0080013C00004A3B00004ABB0C
:102C2000000007BC000023BC000004BC00008BBBFC
:102C3000000083BB000004BB0000D2BB0000D0BB7F
:102C400000000ABB00004EBB0000FFBB008048BC78
:102C500000006DBC00803DBC0000FFBB0000FFBB5E
:102C600000802FBC00802BBC0000F2BB000068BBC2
:102C7000000008BB00009EBB00009FBB000008BA1C
:102C80000000BCBA0000A5BB0000BFBB000008BA32
:102C900000008038000080B80000E03A0000CB3B24
:102CA0000000DA3B0000143C00802C3C0000513C4A
:102CB00000803B3C0000233C00000A3C0000233C19
:102CC0000080013C00000B3C0000983B0000383ABB
:102CD0000000803A0000BA3B0000533C00C0843C36
:102CE0000000633C00803A3C00806C3C00006D3C7E
:102CF0000080653C00802C3C0000E53B00008B3BE5
:102D00000000CC3A0000D0B90000B4BA00000000C6
:102D1000000080B8000022BB0000BFBB0000B4BBB5
:102D200000005ABB000050BA000034BB000012BBC8
:102D300000007CBB0000F2BB00800CBC00006CBB40
:102D4000000060BA0000C7BB0000F2BB0000F0BA90
:102D50000000283B000004BB000096BB0000F4BB51
:102D6000000052BB000090390000CC3A0000883AC5
:102D7000000070BA00004EBB0000703A0000163B25
:102D80000000E53B0000E33B00003C3B0000083B4B
:102D90000000EC3B0000163C0000D63B0000C93BA5
:102DA00000000B3C0000CC3B0000E13B0000163C67
:102DB0000000243C0000283C00802A3C00802A3C83
:102DC0000080033C0000D23B0000053C0000E33BD8
:102DD0000000B83B0000403A000034BB000074BB68
:102DE000000038BB000087BB000064BB00006CBB68
:102DF0000000D4BA0000123B0000463B0000083B34
:102E00000000C4BA00000000000026BB00009ABB0E
:102E100000009FBB000022BB000085BB0000E3BB9D
:102E20000000D2BB0000D8BA00003C3B00008B3B46
:102E30000000B23B00008D3B0000C53B0000743B2E
:102E400000004E3B0000403A000080B8000080398E
:102E50000000ACBA0000E0BA000012BB000018BAD3
:102E60000000403B0000153C0000173C0000A93B5F
:102E700000009F3B0000BC3B0080013C0000B63BD3
:102E80000000AB3B00009F3B0000043B0000083A01
:102E90000000853B0000BC3A000090BA0000403AB8
:102EA000000008BA000038BA0000000000008F3BA4
:102EB00000008D3B0000893B00009A3B0000903AE7
:102EC0000000B4BA000012BB0000B4BB0000F4BBA9
:102ED00000804EBC00801BBC0000E1BB000064BB56
:102EE00000002C3B0000CC3B00801A3C00802C3CB6
:102EF00000800C3C0000F93B0000CE3B0000D8BA3B
:102F00000000BABB0000C3BB008001BC0000F2BBE4
:102F10000000B0BB000022BB00001E3B0000E13BF4
:102F200000801A3C0000243C0000B83B00002C3B11
:102F300000009039000008BB000089BB00008DBB79
:102F400000005EBB000000390000B23B0000433CC3
:102F50000000813C0040853C0080593C00802C3CB6
:102F60000000AB3B0000283B0000F8BA0000B0BBFB
:102F70000000A9BB0000C5BB0000A9BB000028BA27
:102F800000009C3A0000D83A0000AC3A00009C3A9D
:102F90000000E0BA000074BB0000CCBB0000F8BB2E
:102FA0000000CEBB0000F4BB00800DBC0000F9BBEC
:102FB0000000B0BB0000F8BA00002C3B0000F83A5B
:102FC0000000D43A0000BC3B0000C53B0000563B6B
:102FD00000008B3B0000503A000038BB0000A4BA50
:102FE0000000983A0000D43A0000A4BA00008039EA
:102FF0000000B43A00009C3B0000683B0000183A17
:10300000000004BB0000883A0000703B0000A53BB4
:103010000000523B0000903B0000343B0000783B36
:103020000000F93B0000FD3B0000623B000080B85F
:10303000000080B80000703A000080BA0000A1BB18
:10304000000016BC008038BC008012BC0000F9BB38
:10305000000074BB000040BB000034BB0000B0396E
:1030600000006C3B0000883A0000E8BA000090B90C
:1030700000000ABB000062BB0000EEBB0000CCBB3E
:1030800000004EBB000008BA0000043B0000CE3B2D
:103090000000143C0000183C0000A93B0000403B2D
:1030A0000000D0390000C3BB0000C7BB0000B2BBAA
:1030B000000014BC000036BC0000F4BB000034BBB0
:1030C0000000383A0000D0390000383A000040399A
:1030D00000005ABB0000DABB0000B2BB0000BFBB5F
:1030E00000801BBC0000E3BB000080B800006C3B0C
:1030F0000000E83A0000C53B0000543C0040853C1D
:103100000080483C00802A3C0000093C00800F3CC5
:103110000080013C0080023C0000EC3B0080033C4E
:103120000000143C0000293C0080393C00801E3C1B
:103130000080023C0000E53B0000AB3B000080BA91
:103140000000BABB008011BC00803ABC008048BCC3
:10315000008003BC000087BB0000123B00009F3BC7
:103160000000D03B00800B3C0000C13B00001A3B3C
:10317000000070BB00801CBC00801CBC008039BCFF
:10318000000034BC000032BC000070BB0000943B67
:103190000000F03A00000039000018BA000088BAB8
:1031A0000000C5BB008001BC00800CBC0000EABB75
:1031B0000000EEBB0000B0BB00000EBB0000983A60
:1031C0000000703A0000D43A00005A3B0000403A38
:1031D000000088BA000070BA0000F0B900003CBBE3
:1031E000000094BB0000AC3A0000F03B00800F3CB4
:1031F0000000333C0000383C0000263C0000F83B57
:1032000000000B3C0000183C0000BD3B0000703B80
:103210000000AE3B0000163C00804A3C00005E3CD3
:1032200000807A3C00807A3C0000633C00800E3CC9
:103230000080113C0000383B000080390000F03A6B
:103240000000943B0000DF3B0000DB3B0000E73B5D
:1032500000001A3C0000293C0000BC3B000038BACA
:10326000000092BB0000F4BB00803CBC00803CBC72
:10327000000041BC00803DBC0000FDBB0000BCBAAA
:103280000000603A0000E8BA0000A5BB0000ECBBFB
:10329000000018BC000036BC000054BC000070BC2C
:1032A000000073BC000050BC000013BC0000C3BB96
:1032B00000001ABB000090BB0000ADBB000087BB44
:1032C000000085BB00009FBB0000B2BB0000D8BB64
:1032D00000009EBB00000A3B0000F83B0000073CDA
:1032E0000000E73B0000EC3B0000EC3B0000AE3B85
:1032F00000007C3B0000A33B0080033C0000353C09
:103300000000603C00007D3C00C0A03C0000A63CEA
:103310000000B33C0080903C0080593C0000FD3B25
:103320000000D0B9000028BA0000163B00009F3B07
:103330000000A73B0000E73B0000063C0000363CD5
:103340000000603C00804E3C0000B63B000060BACC
:103350000000C9BB008039BC000052BC008039BCF1
:10336000000004BC000013BC000004BC000026BB2D
:1033700000008D3B0000133C0000053C0000813B39
:1033800000000ABB0000BFBB0000F4BB00803FBCD4
:10339000000072BC000074BC000034BC0000A5BB7F
:1033A000000070BA000000B900001A3B0000703A3B
:1033B00000000EBB000094BB0000CEBB000007BCA9
:1033C00000801FBC008012BC0000DABB000087BB7D
:1033D0000000BC3A0000463B0000D43B0080013CAA
:1033E0000000D83B0000DB3B0000F23B0000F63B56
:1033F0000000983B0000903B0000A93B00000A3C05
:103400000000623C0080793C00C0833C00C0843CEA
:103410000040943C00408B3C0000403C0000C73B17
:1034200000001A3B0000E8BA0000CCBA0000F0B976
:1034300000008BBB0000CBBB000088BA00008D3BB6
:1034400000009F3B0000BD3B0000813B0000903B23
:1034500000800B3C00802C3C00801C3C00009A3B10
:103460000000F0B9000068BB000016BB000022BBE2
:103470000000ADBB008010BC000015BC0000F8BB14
:10348000000094BB00009FBB0000FDBB000046BCD9
:1034900000802FBC0000A9BB0000C4BA000070BAB5
:1034A000000094BB000031BC000047BC000027BCFA
:1034B000008021BC00802ABC000025BC00800EBC1E
:1034C0000000D2BB000040B90000C33B0000153C27
:1034D0000000173C0000443C00803F3C00804E3C14
:1034E0000000603C0000803C00804D3C0080303C8F
:1034F00000803B3C0040833C0040AF3C00C0AA3C05
:103500000000803C0000FB3B0000F23B00800D3CD3
:103510000000EC3B0000D43A0000B4BB0000B4BB98
:10352000000000000000D63B00804C3C00804E3C78
:1035300000802F3C00806A3C00408C3C0080883C2E
:1035400000801B3C00001E3B000018BA000028BA97
:103550000000D8BA0000DDBB000025BC000009BC9B
:10356000000080B80000A33B0000853B0000F0395C
:103570000000883A00005EBB0000EEBB000024BCE7
:10358000008095BC0080BDBC00C0A7BC00009CBCF6
:1035900000C093BC0080ABBC0080A6BC008075BCA2
:1035A000008003BC0000CCBB000013BC0000ECBBDF
:1035B00000000EBB0000703B0080103C0000463C49
:1035C0000000513C0000863C00C0BE3C00C0C53C31
:1035D0000000A73C00009C3C00806A3C0000473C87
:1035E0000000733C00805C3C0000743B0000383AF3
:1035F0000000C53B00801B3C0000F93B0000943BF1
:103600000000983A0000D83A0000F43B0000293C42
:103610000000073C0000B83B0000153C0080653C02
:103620000080973C00C09B3C00803D3C0000DB3BA1
:1036300000009E3B00008D3B00001ABB00801BBCBD
:1036400000803EBC000029BC0000B4BB000056BB9B
:10365000000080B80000D4BA000012BB0000F9BB23
:10366000000014BC000061BC00C0A9BC0040E5BC67
:103670000040EBBC002002BD008007BD0080D8BC2C
:1036800000C0B0BC000074BC0000B8BB000080B932
:10369000000070BA0000893B0000E73B0000CC3B13
:1036A00000005E3B0000ACBA000096BB0000873B08
:1036B0000080593C0040893C00C0903C00C0B03CB8
:1036C0000080E03C0080FE3C0040FD3C0040C73CE8
:1036D00000804D3C0000523B0000D0B900002CBBE4
:1036E000000074BB0000C3BB0000F8BB0000EABBD5
:1036F000000028BA0000193C0040833C0080973C41
:103700000000A63C0080963C00C0843C0000453C84
:103710000000623B0000B0BB008021BC00802BBCDD
:10372000000029BC000037BC000014BC0000F8BB3E
:10373000000030BB0000703B0000EE3B0000703B1F
:103740000000703A00800BBC00803FBC000080BCD1
:103750000080B5BC0000E1BC0080C2BC0040B2BC2F
:103760000040B9BC000097BC000086BC000015BC3E
:1037700000005ABB0000043B0000F0B90000F63B1B
:103780000000283C0080293C0000053C0000FB3B79
:1037900000005A3B0000C73B0000233C0000193CDE
:1037A00000000A3C00805C3C0080963C00C0A03CCD
:1037B0000080A63C0080903C00807A3C0000413CA8
:1037C0000000A33B0000A3BB0000D8BB008011BCDD
:1037D000000045BC008038BC000007BC000074BB82
:1037E0000000BA3B0040843C0000AE3C00C0AE3C50
:1037F0000080873C00806B3C0000153C0000AE3B25
:103800000000D0B900005EBB0000C7BB00008DBB4C
:10381000000094BB000030BB000000000000EA3B49
:1038200000805C3C0000613C0000153C0000923BC5
:1038300000004ABB0000DABB00808EBC0040D0BC58
:103840000000E3BC00C0BEBC0000CCBC0000CBBC90
:1038500000C0B8BC00007DBC0000D6BB0000A43A8C
:103860000000D0390000703A0000093C0080653C3F
:103870000000813C0000313C0000A43A000056BB2F
:1038800000000A3B00008B3B000080390000083A32
:103890000080033C00C0813C0000AC3C0040A93CDF
:1038A0000080763C00C0933C00007D3C0000F03975
:1038B00000804ABC00804CBC000081BC000070BC91
:1038C00000001ABC0000A3BB0000963B0000A53C12
:1038D0000040F43C0080CC3C00809E3C0080793C61
:1038E0000080683C00000B3C0000883A0000ADBB43
:1038F0000000FBBB00005ABB00004E3B0000123B27
:103900000000A43A0000133C00C0A23C0080B53C7B
:1039100000805A3C0000623B0000D8BA000008BC9E
:10392000008047BC00C089BC0080B3BC0000A7BCBD
:1039300000007FBC008048BC000046BC0000CCBB3F
:10394000000052BB0000BCBA0000CCBA0000E8BACC
:10395000000028BB000018BA000080B800009CBB23
:10396000000014BC000009BC000034BB0000403A59
:1039700000000000000022BB0000A33B00800F3CC1
:103980000000443C0000343C0000283C0080393CEE
:1039900000809F3C0000903C0000043B000025BCE0
:1039A00000800FBC00001ABB00003CBB000040BB05
:1039B000000090B90000B43B0040853C0040B73C9B
:1039C00000805A3C0000313C0000373C00C0823C83
:1039D00000803F3C0000F03B0000C53B00800C3CF9
:1039E0000000283C00802F3C0000623B00008D3B23
:1039F00000805B3C0080BD3C0080963C0000C33BE7
:103A00000000D4BA00000EBB00009FBB00C099BCF0
:103A10000040E6BC00A001BD0080CBBC000090BC13
:103A200000004FBC004089BC000050BC000096BBA9
:103A300000002C3B0000343B0000B0B90000A3BBE9
:103A40000000A1BB000000BB000046BB000060BA44
:103A50000000003B0000C93B00800C3C00C0823CE1
:103A600000408C3C0040C83C0080E03C00C0DE3C94
:103A70000080BD3C00C0AF3C00808E3C0080973C85
:103A80000000553C000064BB000098BC00004FBC27
:103A9000000005BC00805DBC008069BC00005FBC0C
:103AA000000036BC0000AEBB0000C43A0000CCBB36
:103AB000000015BC000009BC00801ABC000026BC38
:103AC0000000FDBB00009CBB0000003B0000B43BBD
:103AD0000080023C0000FB3B0000F63B0000603C25
:103AE0000040913C00804B3C0000BC3A0000B43ADE
:103AF0000000813B000008BA00803DBC000055BCBE
:103B0000000028BC0000523B00005E3C00C08B3C23
:103B100000809D3C0000F23C00A01F3D00003B3DAA
:103B20000000353D00401D3D0060093D00C0EB3CFC
:103B300000C0993C0000703A0000FDBB000045BC8D
:103B4000000014BC00807ABC00008EBC00C0A9BC80
:103B500000805DBC00803CBC00408BBC0040EDBCE4
:103B6000000008BD00C00ABD008000BD0080EEBCA2
:103B7000008006BD00A010BD0080C4BC0000E5BBF5
:103B80000000BCBB0000E9BB0000F8BB0000CBBBE1
:103B9000000089BB0000703A000080BA0000BCBB86
:103BA0000000D6BB0000083A00006C3B0000FB3B65
:103BB0000000343C0080653C0000353C0000383C8F
:103BC00000C0923C0040D03C0060023D00E01F3D40
:103BD00000E0403D0040523D0020833D00F08D3D1F
:103BE0000080903D00805D3D0020263D0020023D8C
:103BF00000C0933C0000183A00809DBC0040F4BC1B
:103C0000008006BD0080EABC0040EEBC00A00CBDF8
:103C100000E023BD00A026BD00003BBD00A045BDC7
:103C2000002041BD000021BD0000D1BC000040BB10
:103C300000806A3C0040E43C00000E3D0040343D02
:103C40000040333D00E0003D00807A3C000060BA57
:103C500000802DBC008067BC000026BC008086BCB4
:103C6000004083BC0000EEBB000044BB00803FBCB2
:103C700000C0C8BC00E022BD00A03ABD00C02CBD01
:103C8000002008BD0000C9BC00006FBC000089BB5B
:103C900000801A3C0000CC3C00E0043D0060143D74
:103CA0000000283D00A0363D00804D3D00A0783D3D
:103CB00000008B3D00C0973D0060AE3D0020BD3D43
:103CC0000050A93D0030863D00803F3D00C0893C4A
:103CD000004098BC008024BD00A05FBD00006CBD0A
:103CE000002063BD00403BBD004037BD00E018BD73
:103CF00000A00DBD006017BD00C02FBD006039BD24
:103D0000002045BD00E02ABD0000BCBC000098BBFF
:103D10000080863C0000283D00605E3D00E05E3D86
:103D200000404A3D00C0293D0080E03C00C0A13C6D
:103D30000000FF3B0000E5BB008020BC000032BC5F
:103D4000008057BC00006FBC0080D3BC000013BDD6
:103D5000000034BD00C03FBD003080BD008087BD85
:103D600000E088BD00A054BD0040EDBC0000ECBBED
:103D70000000C33B0040913C0000CA3C00E0053D10
:103D800000C0243D00802D3D00A03C3D0080733DDF
:103D900000108C3D00F0963D00A0B23D00D0C73D24
:103DA0000030D33D00E0D73D00C0C03D0050823D13
:103DB0000000193D0000463B0080E2BC000071BDE0
:103DC000008090BD00D0A7BD001095BD005084BDFF
:103DD000006087BD00E084BD008069BD008059BDE2
:103DE000006053BD00A041BD00E027BD00C0C6BCBF
:103DF0000000883A0080F73C0040433D00E06E3D03
:103E000000C08C3D00A0813D0040643D00A0183DF5
:103E10000040993C00000A3C0000E93B0000263BC2
:103E200000008FBB000007BC00806CBC0040DEBC03
:103E300000400ABD00803EBD00E07CBD00F085BDB5
:103E4000006075BD00005ABD00E03DBD00200CBD06
:103E500000C0E4BC000063BC000050BA0000F83BA6
:103E60000000293C0000FF3B0080103C0080563CD5
:103E70000000443C0080383C00806A3C0000B53CB7
:103E80000000983C0000D93C0080DA3C0000F93C7E
:103E900000A01C3D0080463D00604D3D0000693D96
:103EA00000A09D3D00B0A93D0080AA3D00607D3D81
:103EB00000403C3D0000653C008003BC00200DBD7F
:103EC00000805ABD00C067BD00C059BD00400ABD9A
:103ED0000000E7BC0080A3BC0080A6BC00804ABCF8
:103EE0000040DDBC006004BD00C01ABD002008BD5C
:103EF000000088BC00800E3C00C0FA3C0060503DD1
:103F000000208D3D00B0A23D00B0843D0080303DDA
:103F10000080813C008003BC0000DABC00E023BDCF
:103F200000C04DBD00605BBD00C046BD004019BD76
:103F30000040FDBC006005BD00A01CBD004031BDBF
:103F400000603ABD00A041BD00804BBD00403FBDB8
:103F5000000031BD000008BD00C0A2BC0000DABBFB
:103F60000000E93B0000733C00C0C73C0040D63C69
:103F700000200C3D0020333D0000613D00B0873D36
:103F800000B0A73D0060B63D00D0C33D0010DE3D4F
:103F900000A0E83D0020C53D00C08C3D00C00A3DAA
:103FA00000008BBB00A00CBD00807BBD0020A5BD28
:103FB00000F09FBD00B085BD00C04DBD00C019BD63
:103FC00000C0FCBC00800ABD00C007BD00C00DBD24
:103FD00000C015BD0040F3BC000015BC00808F3C44
:103FE00000E0403D0070913D00D0A33D0070AB3D2E
:103FF00000509A3D00004F3D0080A43C000040BBB3
:10400000000097BC0040D4BC0000D8BC0000E0BC5D
:1040100000C00ABD00E014BD004034BD00406CBDCE
:10402000008097BD007098BD00109BBD006071BD01
:1040300000C03FBD004016BD00C0B6BC00805BBCE8
:10404000008021BC000035BC008058BC008090BCC2
:10405000008069BC000070BA0000473C00A0053D2C
:104060000020513D0070883D00A09D3D00E0B13D25
:104070000000A53D0090983D0020A93D0040B93DBD
:1040800000A0DF3D0050EB3D00C0C23D00F0903D80
:104090000060133D008078BC00D08DBD0070CDBDA8
:1040A00000A0EABD0080DDBD0060A1BD00E06ABDEA
:1040B00000E014BD004084BC0000A3BB0000CBBBEB
:1040C0000000E3BB0000DDBB000015BC0080693CC4
:1040D0000040283D0000803D00709A3D00C0A43D96
:1040E0000010843D0000193D0000E33B0080D8BC77
:1040F000006040BD004042BD002027BD006005BDFE
:1041000000C08ABC00C081BC0000F0BC004037BDCC
:1041100000C086BD00C0A2BD0050A6BD006096BD17
:10412000009082BD00A032BD0000ADBC00004FBCBD
:104130000000893B00C0823C00C0B83C0040E53C28
:1041400000A01E3D00C01D3D0000353D0000783D33
:104150000010933D0010AF3D0070C93D0060D23D9E
:104160000060D93D00B0EB3D0028013E00D8033E81
:104170000050EB3D0060993D0000F73C004003BD5E
:104180000040BBBD00480ABE00B80FBE0010FEBD17
:104190000010B7BD00E036BD008039BC00803C3C5B
:1041A0000080BB3C0040843C000030BB000081BC70
:1041B000008096BC00C089BC00009F3B0080BC3CD6
:1041C00000A0183D00E00C3D0000C53C000044BBD1
:1041D0000000F0BC00C03FBD00004BBD00000ABDA8
:1041E00000800CBC00C0993C0080F73C0040CE3CF5
:1041F0000000503A00A013BD00C0A1BD0020E1BDE9
:104200000050F8BD0000DABD003097BD00400BBD86
:10421000000080B80000BD3C0000073D0020183DB4
:104220000080163D00C0F23C00C0AE3C0080D93C8E
:1042300000A0053D0000473D00208B3D0090AD3DB6
:104240000020C93D0030E03D0010EB3D00B0F43DE2
:1042500000A8053E0048163E00F0043E0080B53D33
:1042600000C0EB3C00C064BD00F0F9BD002827BED3
:1042700000C02CBE006014BE0010AFBD00C0E5BC85
:1042800000807A3C00203A3D00E01F3D0080753CF4
:1042900000809DBC00A018BD00204CBD00C02CBDFE
:1042A0000080B5BC00001EBB0000AC3C0080B23CEE
:1042B00000800D3C00004FBC0000BABC0040DEBCDA
:1042C000000054BC0000A53C00403F3D0020813D63
:1042D00000E0563D0040A83C000004BD0030AABDEF
:1042E000007000BE00D80EBE00A0FEBD0010ADBD27
:1042F0000080EABC0000A43C00A0573D0040783D8F
:104300000000563D0000A63C000052BB00C0A0BC0F
:1043100000C0D7BC00C082BC00805C3C00E04F3DC8
:104320000060A83D00C0E63D00E8003E0058073EA2
:104330000080103E0018203E00E0393E00183E3E4E
:104340000010073E00A05E3D004052BD00082ABE9E
:1043500000C073BE005077BE00D840BE00B0CFBDD5
:1043600000803D3C00809D3D0040D93D0010BB3D9C
:1043700000602F3D0000C5BC00408EBD0070ADBD8B
:1043800000A0B5BD008052BD00C0BDBC000004BB94
:104390000000343C00803E3C0000263B00009E3B79
:1043A0000040DC3C00603A3D00808E3D00809D3D39
:1043B00000A05B3D000022BB005088BD003006BE5F
:1043C000008831BE007834BE00A812BE00209ABD1D
:1043D0000000AEBB00605B3D0040A93D0070AD3DFC
:1043E00000E0533D0080113C00400FBD00508DBDEA
:1043F00000F09CBD002079BD00809DBC0000E73C22
:104400000030A23D0070ED3D00680A3E0000143E01
:1044100000E80F3E0010143E0010223E0018493EF6
:1044200000105E3E0078263E0020413D0050BEBD9B
:1044300000A073BE00DC9BBE00248FBE00282BBEF4
:1044400000809DBC00480D3E0048543E00283A3E86
:104450000040CA3D000074BC0090F2BD00482BBE75
:1044600000581BBE0070FABD006094BD0080E0BC27
:1044700000006CBB0000513C0040CF3C00403F3D81
:1044800000F0983D0090D83D00F0D23D00D0923D24
:104490000000623B0020ACBD009029BE00B054BEBD
:1044A000008056BE000025BE0020A5BD000016BB42
:1044B0000020603D00F0A73D0020943D00C00B3D72
:1044C0000000F8BB00C047BD00B096BD007095BDB0
:1044D00000607ABD00C006BD00007C3B00E0313DBD
:1044E0000090873D00E0C43D0020EE3D0020023EEC
:1044F00000B8103E0050223E00C0293E00C0353EAC
:1045000000D8503E00284A3E0020EC3D0040DEBC72
:10451000001022BE00648DBE00B892BE00F045BE01
:104520000080B2BC0040073E00B0753E0038713ECE
:104530000090EF3D0000A6BC00500FBE00E84BBE4F
:1045400000D850BE00B803BE00C099BD002014BD05
:1045500000008BBB0080773C0000383D0060B43D1C
:104560000020053E00C0FE3D00A0B73D00009A3B84
:104570000040CEBD00E83EBE00D85FBE003043BE66
:104580000050EDBD0000D3BC00C0FC3C00A03C3D91
:104590000080D03C008088BC00A05BBD00F094BDD2
:1045A000007097BD00C060BD00800BBD0000B5BCB1
:1045B000008095BC008001BC00009FBB00800C3CCB
:1045C0000040DD3C00E0453D00009A3D00A0D93DA3
:1045D00000600E3E00E81D3E0088233E0068173E46
:1045E00000180F3E0010243E00884F3E0060223E1F
:1045F00000008F3C00E0EABD00E06FBE00FC89BE19
:1046000000B03BBE0000F2BB00B8163E00E07F3EAB
:1046100000606B3E00908F3D00C0BDBD00384ABEBB
:1046200000B85BBE004829BE00E054BD000090BA4F
:104630000000973C0040B63C0000BC3C0080613D5F
:104640000080C33D0030E73D0080A33D0000873C73
:104650000020BFBD002837BE007840BE00080EBE57
:1046600000A01EBD0040783D00E0C63D00A0833D97
:1046700000800BBC00F0BDBD00800DBE005807BE21
:1046800000D0CEBD00E06EBD00008DBC008000BC3F
:1046900000801ABC000019BC000080BC0080AEBCC9
:1046A0000000F9BB00008D3B0080BB3C00006C3D6E
:1046B0000050C43D0070FE3D00380F3E00A00B3E90
:1046C0000030053E0038193E00C8423E00E8803EFA
:1046D00000E84B3E0000B33C00C81FBE006092BE25
:1046E000002893BE00181DBE0010883D00F0643EF7
:1046F00000848C3E00C8213E002050BD00804DBE8D
:1047000000987ABE00F027BE00A063BD00E0633DC4
:1047100000A0483D0080B53C00C08BBC000034BB0D
:1047200000308C3D00E0093E00D8003E0000F73C20
:1047300000B0ADBD00C049BE00604EBE0010FEBD61
:104740000000F63B0020D93D00900A3E00E08E3D7F
:104750000080BABC00C0D5BD00180FBE0070E0BD1F
:1047600000E099BD000046BD008024BD00200CBDC6
:1047700000C0F4BC00000A3B0000873C0000423C43
:10478000000080BC00C03FBD00E079BD000019BD45
:1047900000809C3C00F0813D0020CA3D0050CF3D90
:1047A00000B0C73D00C0C63D00D00B3E00F84C3EF7
:1047B0000030933E00088F3E00C09F3D00901ABE1F
:1047C00000D8A1BE0068A5BE00902EBE0020983D76
:1047D0000024823E0078953E00F82C3E00A079BD72
:1047E000008852BE003062BE0040D4BD0000193CBB
:1047F0000020923D0000C43C002002BD00A04CBD42
:1048000000006CBB0000E33D0058353E00000B3E4D
:10481000008001BC009806BE00F85CBE005837BEA0
:1048200000A078BD00607D3D0020EE3D0080C33DCE
:1048300000006E3C00007CBD0090A5BD000098BD4E
:1048400000405EBD009089BD0080B5BD0060C6BD62
:1048500000A06DBD00009EBB0000313D00C03A3D90
:104860000000183A008064BD0040B0BD00D094BD87
:1048700000C083BC00005D3D0040B93D0020C53D47
:104880000060AA3D00B09C3D0010C23D00E8123E11
:1048900000184D3E001C813E0018863E0030033E4D
:1048A0000000E5BD005891BE0048A1BE000040BE1A
:1048B00000C0833C00D0563E00DC853E00703A3E8E
:1048C000000087BC00F830BE00C049BE00B0EEBD9D
:1048D0000000A9BB0080003D0000723C00E05FBD0D
:1048E00000C043BD00001A3C0008023E00504C3E90
:1048F00000482B3E0080583C006808BE00E84CBED3
:10490000006825BE00E02DBD00A0393D00D0AF3DC0
:104910000020663D0000A13B00A050BD004069BDE5
:1049200000C04ABD00C03EBD000094BD0020D6BD01
:104930000040E3BD009091BD0000003B0060453D9C
:1049400000603D3D008047BC008087BD0050BCBD7D
:10495000008083BD0000ECBB0040303D00E0663DC0
:1049600000A04F3D00A0133D0020273D0020923DB8
:104970000010ED3D00702A3E00E0563E00B0833E40
:1049800000086C3E00C01C3D00D036BE009497BEAF
:1049900000DC84BE0080CABD0090C33D00F0613ED3
:1049A00000C0563E0000873D002002BE007048BE99
:1049B000008010BE00801ABC0060713D0000FE3C0B
:1049C000002049BD00F089BD00409BBC00F08B3D3C
:1049D0000068353E0078343E00E05B3D00E0DEBD1F
:1049E00000E83FBE00282DBE008052BD00207D3D66
:1049F00000B0C73D00F0813D0000273C0040FDBCF9
:104A000000A004BD000038BC0080BABC00804EBDD0
:104A10000070C5BD00B0D8BD00B094BD0000D8BBCB
:104A200000E01A3D00C02F3D0000B43B006020BDF7
:104A3000004089BD00E07CBD0080E9BC0000813BF6
:104A400000809E3C0080A63C0000F23C0000373D08
:104A50000040A33D00C0E43D0060053E00E0173E7D
:104A600000484A3E0040843E00185C3E000051BCB5
:104A700000606CBE00DCA2BE00E86CBE00E041BD80
:104A800000880A3E0038553E0048163E0040C1BC32
:104A900000E82EBE00702FBE00A09BBD00801A3D16
:104AA00000802D3D00400EBD0020F4BD0000ABBDD8
:104AB0000040933C0038083E00D0493E0020053EAF
:104AC0000000E9BC007020BE00A027BE006098BDB9
:104AD00000C0113D0070983D00004B3D0000A1BB9F
:104AE00000A005BD00C0E4BC000044BB0000C4BA87
:104AF000006008BD00A0ACBD0090E1BD00A095BD68
:104B00000000B6BB0080513D00005D3D0080A33C2D
:104B10000000FFBC002051BD008042BD0040FABC37
:104B200000006FBC00009EBB000089BB0000173C6A
:104B300000001A3D00E0953D0050C93D0060DD3D9C
:104B400000C0FC3D0098203E00C85F3E0050893EFA
:104B500000B02C3E0050ADBD008491BE001C9FBE35
:104B600000D832BE0080473C0098173E00E81E3E49
:104B700000008D3D00409ABD00B811BE00E0C0BDF0
:104B8000000080390060263D0000E9BC00C0F1BD96
:104B9000009010BE000043BD00D0803D00E80F3EF5
:104BA0000058073E0080F03C0060C1BD008804BE94
:104BB00000E09FBD0000323C00A06E3D0040DE3CA6
:104BC00000C092BC00000BBD00C098BC0000D0B972
:104BD00000000ABB00200DBD00808ABD0060B0BD92
:104BE00000F08FBD00C0A0BC00201F3D0090803DA4
:104BF00000E0413D0080003C0040FABC00203DBD8B
:104C0000006031BD00A010BD00807ABC0000F93BFF
:104C10000000F73C0080613D00F09A3D0050B83D37
:104C200000D0D43D00A0F13D00280E3E00E83E3EFD
:104C300000607D3E00205C3E0000F23B00185BBE41
:104C400000E49BBE00C85FBE00803BBD00A0D03D1D
:104C500000F0173E00D0D03D008075BC00E0E0BD04
:104C600000F0D0BD00A00DBD0040C53C00802ABCB6
:104C70000000D6BD00B816BE00D096BD0040E33C93
:104C800000A0CE3D00E0FE3D00607C3D004016BD32
:104C90000010CFBD00D0A5BD00C0A8BC00C0B13C75
:104CA0000000DA3B0080D2BC00801EBD0040A2BCE8
:104CB000000031BC00009FBC00403FBD004090BDE3
:104CC000009096BD00A07DBD0000CCBC0080303CB3
:104CD0000040B73C0040943C00000A3C00000ABB86
:104CE000000052BB00801CBC000088BC008067BC78
:104CF0000000063C0060023D00E0573D00F0853DAD
:104D00000050993D0090AB3D0050C73D00C0FE3DB6
:104D100000D8233E0080563E00C0763E00B01A3ECA
:104D200000D0A3BD00FC82BE00308DBE00081EBEB8
:104D300000007C3B0050C93D00B0CD3D00A03A3D95
:104D4000004030BD00C0A8BD000029BD0000143CDB
:104D50000000713C000069BD009002BE0020FFBD54
:104D60000080B3BC0090873D0020C73D0030AB3DC4
:104D700000C0933C004074BD0080A5BD006053BDE1
:104D800000006FBC0000E1BB00A005BD00003FBDFE
:104D900000C0FCBC0000F9BB008069BC006014BD11
:104DA00000E072BD009086BD00804BBD0000E9BCF4
:104DB000008080BC00801CBC0000B0390000333C87
:104DC0000080CB3C0000C93C00805B3C0000C13B44
:104DD000000044BB0000053C0000F13C00A0483D41
:104DE0000020753D00A0903D00E0A83D0030CB3D87
:104DF0000080FF3D0068173E0048343E0008653ED5
:104E00000080673E0060A33D006023BE009896BE10
:104E100000307DBE0070BABD0020353D0010D53D8C
:104E20000060943D0000383C00C049BD000046BD14
:104E30000000D0BB00007C3C00C0F2BC0060F3BDB1
:104E4000007010BE00C08CBD00A0223D00E0C43D3B
:104E500000D0CE3D00205B3D00803CBC00806CBD9E
:104E6000002060BD008024BD00A001BD004047BD02
:104E700000308DBD00A04CBD00C083BC00801FBCB5
:104E8000000012BD007089BD00E093BD00E06ABD66
:104E900000803FBD00E018BD0000C9BC00000BBC95
:104EA00000800F3C00C0BF3C0040BE3C0000563CB0
:104EB0000000C4BA000080390080793C00801A3DAF
:104EC0000060633D0020673D0040733D00809F3DD2
:104ED0000060D23D0070043E00B8163E0098233EAC
:104EE00000B8333E00505D3E0068503E0080D83C24
:104EF00000B84BBE00B09ABE00C85FBE00E02EBD39
:104F00000070A73D0030E03D00808C3D00804E3CAD
:104F10000040B1BC000083BB00408A3C000006BCDE
:104F20000000A1BD00E81FBE00280DBE0040DEBC91
:104F300000A0883D00B0B13D0020853D00C0D53CBB
:104F4000000096BC00C024BD00C02FBD006049BD5C
:104F500000608ABD00609FBD00A09BBD00803FBD7A
:104F600000007EBC0080A5BC00E048BD00009CBDE8
:104F700000E093BD004065BD004068BD00807BBD82
:104F800000C061BD006005BD0000A5BB00009C3BEA
:104F90000000CEBB008067BC000065BC0000AE3BDB
:104FA0000080073D0040613D00807E3D0070823DF5
:104FB00000E0883D0060B93D00D0F83D0048173E54
:104FC00000C8223E0080293E0078463E0008743E1C
:104FD0000010543E0000C93B000868BE008C97BE1C
:104FE00000603DBE000051BC00A0AC3D00B0B13D32
:104FF00000A0353D0040843C0000E83A00C0823CFF
:105000000080813C0080C1BC0060CCBD00C016BEE9
:105010000060CABD0000253C00C09D3D00709A3D67
:1050200000F0803D00001D3D0000233C00C09BBC03
:1050300000C029BD007084BD00C099BD002096BD90
:1050400000E07CBD004000BD0000B6BC002015BDE6
:1050500000A045BD00404FBD00A076BD00B08FBD93
:1050600000C0B1BD00E0AABD008073BD006010BDEE
:10507000008056BC00005EBB000041BC0080ADBC9F
:105080000040A1BC0000DDBB0080473C0040D73C95
:105090000080DA3C0000F83C0040423D0070983D42
:1050A00000B0D63D00C8043E00681B3E00D0293E3B
:1050B0000000423E00A0673E00D0763E00C0E63DC4
:1050C00000D821BE00F09CBE00A480BE00B0AFBDE1
:1050D00000803C3D00A0B73D00807E3D0080853DC6
:1050E00000C07E3D0060533D0000283D0000ADBB88
:1050F000003091BD004001BE00C0EABD004031BD9E
:1051000000C03E3D00808A3D00407B3D0060893DFF
:105110000080373D000062BB00A010BD00606EBD86
:1051200000D082BD00A063BD00605CBD008021BDD9
:105130000000A5BC00006EBC00C0E4BC004030BD57
:1051400000E045BD006089BD0090A7BD00C0A4BDC2
:1051500000E063BD0080E1BC00802ABC0000B6BB5B
:1051600000005ABB00803DBC00802CBC0000D2BBBC
:1051700000800FBC00009CBB0000183A0000D43A2D
:105180000080203C0000043D0030803D0020D03DE8
:105190000028003E00B00B3E00A8153E00D0273E80
:1051A0000018493E00905C3E00E0E83D006013BE00
:1051B00000009CBE00A88ABE0050F1BD0080153DD5
:1051C00000F0BD3D00D0B03D0020B43D0080B03DBA
:1051D00000D0873D00403B3D00802BBC009087BD48
:1051E00000B0E3BD0040E5BD00003FBD0080553D7F
:1051F0000080993D00807B3D00308C3D0020533D78
:105200000000233C0080D3BC004034BD00A04CBD56
:10521000000052BD00E078BD003082BD000025BD19
:1052200000805ABC008059BC0080BDBC00C019BDC4
:1052300000006DBD00D096BD00F092BD00C065BD00
:1052400000C003BD00C0BEBC0040B0BC000027BC15
:10525000000022BC00802BBC00C08CBC0040A0BC65
:1052600000804CBC0000043B0000813B0000B23BCE
:105270000080E13C0060573D0070A03D0070C53DDE
:105280000050E73D0050FE3D00B8143E00082F3EA0
:105290000038463E00202F3E0000533C00805DBE9B
:1052A000005898BE005844BE002006BD0000593D7D
:1052B0000080733D00200D3D0060623D00A0713D07
:1052C0000080343D0080103C00C02FBD00D0A5BD43
:1052D00000E0CCBD006067BD0000963C00C07A3D98
:1052E00000C0433D00E0093D00C0563D00204D3D5B
:1052F0000040B63C000030BB00C09ABC0080BBBC84
:1053000000C0F4BC00E04FBD00E023BD0000AEBB18
:105310000000133C0000D2BB00A018BD00D082BD2D
:1053200000A09DBD00E095BD004074BD00A039BD4A
:10533000002002BD0040A9BC00801FBC0000E5BBEE
:10534000004099BC002002BD0080F6BC00809CBCDF
:10535000000081BB00009C3A00802ABC008081BC18
:1053600000805D3C0060393D00108C3D0090A53D03
:1053700000C0BD3D00C0E63D0058093E00B01E3EE5
:1053800000B8343E0030303E00D0943D006014BE82
:10539000000482BE001041BE00C070BD00809D3C74
:1053A0000080EF3C0080683C00A0393D00A0623DD9
:1053B0000000FF3C00801C3C00C0AABC00E054BDC3
:1053C000008096BD000074BD0040A2BC0000723C8D
:1053D0000080873C0080AC3C0070823D0060903DC6
:1053E00000A0223D0000523B00806BBC00006FBC5F
:1053F0000040C0BC00E050BD002026BD000028BA1F
:1054000000804C3C0000E9BB000007BD00A01FBDB0
:10541000006017BD000012BD00801DBD00C01CBD96
:105420000080D8BC0000B5BC0040B0BC0080E8BC27
:1054300000601FBD00C021BD0080FDBC008047BCD6
:105440000000383B00006CBB004085BC000063BC22
:105450000000D4BA00C0923C0000C93C00C0CC3C63
:1054600000004F3D0020B23D00E0E63D0088083ED0
:1054700000A8243E00B8523E00604B3E00201C3D78
:1054800000B832BE00186ABE0010F7BD00000ABBAB
:105490000000C23C00801C3C0000C73B0060543D43
:1054A00000708D3D00E0663D0000973C0040E5BC8B
:1054B00000A08EBD00A0B5BD007084BD008068BC9A
:1054C0000000D83B00008E3C0000343D00109D3DA4
:1054D00000C0673D0000DB3B0040A2BC0080CBBCAD
:1054E000004021BD004051BD005086BD00801DBD63
:1054F000000050BA0080383C0000563B00803ABCA7
:105500000080ABBC00C0A0BC00C0BFBC0000F2BCAF
:1055100000601CBD002048BD00202EBD00C0DCBCCA
:1055200000008DBC00006CBB0000F0B90080583C4E
:1055300000C0A23C00000A3B00C0BFBC0000F9BC98
:105540000040AABC00C091BC000073BC000017BCA6
:105550000000DA3B0060453D0010CB3D00B0F03D5F
:1055600000B0FF3D00C80F3E0030243E00B8313E81
:105570000010E43D0090B1BD001855BE00802CBE67
:10558000000089BD000081BB0000383B00802EBCBC
:105590000040FD3C00C0813D0060483D0000E33B11
:1055A000004003BD008052BD004046BD002026BD26
:1055B0000000E3BC00004A3B0080B23C0040163DC6
:1055C0000080963D0020753D00409B3C00803FBC24
:1055D0000000C7BB000083BB00C0A0BC00A009BD89
:1055E0000080CBBC0000303B0040D53C0080663CD6
:1055F000000035BC0040F2BC000012BD00601FBDC1
:1056000000603ABD00C074BD006089BD00C058BDD7
:1056100000C0BDBC000029BC008047BC0040B7BC36
:1056200000C0D6BC00008FBC00C08CBC00800ABD8E
:1056300000A02BBD008000BD000023BC00008B3B00
:105640000000513C0000183C0040893C0020273DF0
:1056500000F09E3D0070D63D0080E83D0030053EE4
:105660000078223E00A83E3E0098203E0080483C44
:1056700000A801BE00C811BE00B096BD00E004BD88
:1056800000403BBD002072BD0000D3BC0080EF3C59
:105690000080283D00A0043D0000A53B00008DBC1B
:1056A0000080EFBC000022BD00E035BD0080A4BC3E
:1056B000000000000040AA3C00403C3D0030883D16
:1056C00000E0723D00003B3D00E0623D00804D3D4A
:1056D00000C0FC3C000030BB0040EBBC0040BFBC45
:1056E000000033BC004093BC006031BD00C056BD1B
:1056F000008016BD008039BC00802FBC00800EBD2C
:1057000000E071BD006072BD00E035BD00A048BD85
:10571000008099BD0000B8BD0080A5BD00E040BD7F
:10572000000071BC000092BB00802EBC00801CBC3D
:105730000000283B0080023C00008F3B008066BCDC
:10574000008090BC0000AEBB00408B3C00805C3D04
:1057500000B0AD3D0000F03D0000173E0040403E6F
:105760000058563E0078463E00E0CA3D00809BBD92
:10577000004818BE0090D1BD000016BD0040DCBC42
:1057800000A008BD00A01BBD0040A83C00C0243DF7
:105790000080293D0040B73C0000803A00408ABCB0
:1057A000006008BD00002DBD0040BEBC00C08A3CAA
:1057B00000C02C3D0000653D00B0AF3D0020A13D84
:1057C0000020633D00E01A3D0080BB3C0000CB3B65
:1057D0000040A1BC006039BD000022BD0040E4BC17
:1057E0000080BABC006008BD004033BD002060BD31
:1057F000000030BD006035BD00E069BD00709CBD9B
:1058000000209FBD00A07CBD00E02DBD00404EBD2E
:1058100000207ABD00606BBD0080E9BC008001BC47
:1058200000802C3C0000CC3B0000403A000013BC40
:10583000008057BC000062BC008077BC000035BC13
:1058400000006CBB0000183C0060013D00C04D3DF5
:1058500000108A3D00F0B63D00B0FD3D00F81C3E52
:1058600000C0343E00702A3E0040073E0080023CEB
:1058700000F0A5BD0070C5BD00A075BD00C043BD52
:10588000004037BD00E057BD0000C3BC00007C3BBA
:105890000080D03C0000123D0040133D00C0AE3CF3
:1058A0000000743C0000AC3A0080113C0080B53C24
:1058B0000000B43C0080573C00E0043D00C0493D7E
:1058C00000E07D3D00007C3D0070823D0060633D56
:1058D0000020113D0000B4BA0080F9BC002060BD7A
:1058E00000B080BD00E08ABD00D094BD00B091BD85
:1058F000004085BD00E07DBD002072BD00D087BDA9
:10590000001082BD004064BD00E038BD00C043BD52
:1059100000005ABD00C06CBD006039BD0040C1BC74
:105920000000D8BA0000873B000000B900C098BC56
:105930000040DCBC0000EABC0080E1BC008011BD7E
:105940000080FDBC0000A7BC0080023C00601B3D45
:1059500000A07C3D00B09A3D00C0A63D0040D63D71
:105960000090F83D00D00A3E0098053E0090FC3DB6
:1059700000408C3D0000283B00803EBC00C0923CB3
:105980000080FE3C0000C93C0000903B000098BC39
:105990000040A1BC000046BC000081BB000044BB2D
:1059A00000C082BC00C0D4BC002001BD00C084BCCB
:1059B0000080803C0020113D0080EA3C00A0003DBA
:1059C0000040033D00C0293D0040293D0060533D9B
:1059D00000C0373D0080D93C000022BB0080C9BC1C
:1059E0000040DFBC00C0E3BC00403BBD007080BD98
:1059F000005093BD000094BD00C095BD00F0A3BD54
:105A000000F0ADBD00F09FBD00108FBD00E07CBD7B
:105A100000E069BD00C06CBD004068BD004061BDD4
:105A200000C052BD00800BBD0080A5BC000018BAAC
:105A30000000DF3B0000B43B0000A33B0000F83A4D
:105A4000000034BB0000EABB00000A3B0080123CAF
:105A500000007F3C0080EE3C0000523D0090933DF2
:105A60000080C13D0040E53D00B8023E00480A3ECE
:105A70000038093E0030FE3D00B0B13D0030863DAB
:105A800000C0813D00A0663D00A02D3D0000043D0A
:105A90000000FB3B00000ABC00009FBC0080E9BC8A
:105AA00000202BBD00E041BD00B08BBD00A095BD26
:105AB000006081BD006023BD0040AABC00C0B8BC2E
:105AC0000000ABBC00001ABC00000A3B0000883C90
:105AD00000C0CD3C00C09B3C00802F3C0000FF3B41
:105AE0000000D23B0000513C00008F3C0000703CA5
:105AF0000000A33B0000ADBB0000D1BC00E05FBDD7
:105B00000080A5BD0040C5BD0070CBBD00B0C3BDC9
:105B10000010B5BD008097BD00008BBD00E074BDD6
:105B200000203ABD00201FBD00200DBD00000ABDB1
:105B300000A001BD00C0B7BC000070BC00000BBCE1
:105B400000000E3B0080E83C00C0563D00F08F3D59
:105B50000010993D0010933D00B08B3D00309C3DFE
:105B600000F0AE3D0090CB3D00D0E33D0090E73D1E
:105B70000010FA3D00A0013E00D0CB3D0080A53DC5
:105B800000C09D3D00A04C3D0000BD3C0000883A97
:105B9000004084BC006001BD000029BD00A044BDE0
:105BA000008055BD002076BD00D08FBD00C09BBDDC
:105BB00000C0A1BD00406FBD006013BD0000D2BC9D
:105BC0000040C8BC00C082BC000025BC0000C73B30
:105BD0000000873C0080BD3C0000D93C0000CC3C6C
:105BE0000000B33C0040D53C0000DA3C0000803CA3
:105BF0000000B63B0000C3BB000080BC0080B5BC09
:105C000000202EBD00607ABD00A088BD00D092BDEE
:105C10000080A1BD0080A6BD0080AABD0080ACBDF3
:105C20000060A7BD003091BD00806CBD00001DBDAF
:105C300000C0A7BC0000F0BB000000BB00007C3B24
:105C40000000163C00804D3C00C0B93C0080123D75
:105C50000000403D00E04B3D00207A3D0070983D43
:105C60000060BB3D0040D23D0010E03D0050EB3DE8
:105C70000080EE3D0080E83D00B0E93D00B0D03D41
:105C800000E0863D00607D3D00604C3D0040D43C1E
:105C900000005E3B00009EBC00A03CBD00205FBD3C
:105CA00000F081BD00108FBD00A092BD00C081BD7D
:105CB00000D080BD008077BD004055BD002001BDF3
:105CC000008096BC00007DBC00409ABC00809DBC5A
:105CD000004082BC00004A3B0080863C0080C43CFF
:105CE0000080CA3C0080B23C0040A83C0080B43C2C
:105CF00000807A3C0000F03900C090BC006001BD1B
:105D000000C025BD00E039BD00A062BD00A079BD86
:105D1000002089BD005095BD00408CBD00308ABD7B
:105D2000005093BD006099BD00807FBD00E050BD74
:105D3000004016BD00C09BBC000070BC0000B6BB9C
:105D40000000603C0000FE3C0040223D00404B3D16
:105D500000404B3D00805D3D00606E3D00407F3D5A
:105D60000090953D0090AF3D0080B23D00D0C13D18
:105D70000080CE3D0070D63D0000E53D0090DE3D48
:105D80000070E93D0020C13D00E04F3D0080203D16
:105D900000E0003D00004F3C00804ABC0080FFBC9A
:105DA00000A041BD006045BD000043BD004042BDB4
:105DB00000C073BD00607ABD00708DBD007088BDED
:105DC00000207DBD00803BBD00C0EDBC00809CBCC0
:105DD00000808DBC00800DBC000027BC00005ABBB9
:105DE000000056BB0000C13B00C0813C0000893C64
:105DF0000080653C0040843C0000D83C0040C13C31
:105E00000000233C0000D8BA00C0B7BC00803BBDF6
:105E100000708FBD007093BD001091BD00D08DBD8E
:105E2000007088BD00C077BD00404FBD000028BD98
