:020000042000DA
:04035C0000787FBFE7
:100360000020DEBE0030B13D0070E73D00B0E13D51
:1003700000C0D73D0060D03D0010CA3D0020C73D01
:100380000010C23D00C0BF3D00A0BD3D0000BA3D11
:100390000070B63D00E0B33D00A0B03D00F0AD3DC3
:1003A0000000AB3D0030A83D0080A53D0010A43DFD
:1003B0000070A03D00609D3D00F09A3D0070983DAA
:1003C0000060963D00B0933D00D0913D00508F3DC0
:1003D00000508D3D00E08A3D0030883D00C0813DE9
:1003E0000050823D0020813D00407F3D0020793D4E
:1003F0000020763D0060723D00606E3D00E0693D8A
:1004000000A0663D0080603D00005D3D00005A3D5B
:100410000080563D00C0523D00A0503D00404B3D85
:1004200000C0473D0080463D00E0413D0000403DAA
:1004300000E03D3D00E0383D00E0353D0020353D29
:1004400000C0303D00E02D3D00C02B3D0080283D28
:1004500000C0243D00C0213D00801E3D00C01C3D69
:100460000000193D0000173D0000133D0040123D03
:1004700000600D3D00E00B3D00E0083D00A0083DA0
:100480000040073D0000033D00A0013D0000FE3C90
:100490000000F63C00C0F43C00C0EB3C0040EB3CEC
:1004A00000C0E53C0080E23C0000E03C00C0D53CE0
:1004B0000000D83C0000D23C00C03EBD0090ABBD67
:1004C000006092BD00E063BD000030BD0040E5BCAF
:1004D000000060BC000080BB0000FB3B00C0983CFB
:1004E0000000E13C0040133D0080383D0080593D54
:1004F0000080733D0040853D0060963D00D0A53DE5
:100500000010B33D00A0C43D0040D03D00C0D33D2D
:100510000040E33D00D0EE3D0070EF3D00F0F83DBF
:1005200000C0FE3D0050013E00C8063E00800C3E6B
:1005300000180B3E00500F3E0040113E00E8133EF5
:1005400000D0163E0038183E0088173E00181C3EAA
:1005500000081B3E00F01A3E00781A3E00401F3E85
:1005600000D81E3E00081C3E00D81F3E00F8213E69
:1005700000281E3E0040203E0050233E00E8203E62
:1005800000F01A3E00E81D3E00F0183E0000193E43
:1005900000B0193E00E81B3E0068183E0068183E97
:1005A00000181B3E00C0183E0068183E00C01B3EED
:1005B0000048173E0070103E00C8133E00E8113E90
:1005C00000580D3E00080C3E00900C3E0088093E8D
:1005D0000068063E00380C3E00C0093E00A8073EF9
:1005E00000C0073E0048073E00A8013E0040FD3D18
:1005F0000010033E0060F53D0020EC3D00F0EE3DB4
:100600000020E73D00F0E53D00D0E93D00D0EC3DA5
:100610000050E73D0080E43D0010E83D0060D93D1A
:100620000060D53D00A0CE3D0060D03D0080C83DBB
:1006300000B0CD3D0020CE3D00C0C43D00A0CC3D6B
:100640000000CB3D0040BF3D0010C43D0010C03D48
:1006500000A0B23D0060B23D00B0B83D0090AD3D9D
:1006600000E0A43D00D0A53D0030A83D0030A23DF3
:1006700000009F3D0070AB3D00F0A73D0090A23D03
:1006800000A09D3D0070A03D00A0993D0050953D0B
:1006900000008F3D00D08D3D00F0893D00E08A3D97
:1006A00000408B3D0090873D00A0853D0020853DAA
:1006B00000A0813D00C0743D00A0753D0040733D29
:1006C0000020633D00A0633D0000653D00C0563D35
:1006D00000C0583D0000653D00405D3D0040593D73
:1006E00000804E3D00205C3D00A0453D00803E3D29
:1006F00000C0463D00202F3D00802C3D00403B3D8A
:1007000000603A3D00E0263D0060313D00C0343DD0
:100710000080283D00C0203D00002D3D00C0193D57
:1007200000E0173D00E0183D00A01E3D0000FE3C2B
:1007300000C0073D0020183D0000003D0080F83C4F
:1007400000A0083D00C0FB3C0040E53C0080F93CB7
:100750000080073D00C0D43C0040C03C0000E73CA6
:100760000000D93C0000C23C0000DA3C00C0D73C8D
:100770000000AC3C0000B63C0080BA3C0000983C55
:100780000040B03C0000B43C0000AD3C0040A13C47
:100790000040AA3C0040B93C0080B33C0080AB3C28
:1007A0000000B63C0080B43C00809F3C0040B23C5E
:1007B0000040943C00C0823C00808F3C0000983C8C
:1007C0000000983C0080673C0040853C00C0813CB4
:1007D00000007D3C0000743C00807A3C0080763C48
:1007E00000806B3C00C0823C0080883C00805A3C0A
:1007F0000000443C0000553C00802E3C00802D3C15
:100800000000293C0080113C0000F23B0000EE3B60
:100810000000223C0000093C0000083C00804E3CE7
:100820000080013C0000AE3B0000C93B0000C33B20
:100830000000743B00009F3B0000BD3B0000AB3B51
:1008400000002C3B00000B3C0000B23B0000F83ADB
:100850000000AE3B00009A3B0000BC3A0000B43AF6
:100860000000833B0000E93B00005A3B0000813B55
:100870000000833B0000813B0000BD3B0000A53B26
:100880000000083B0000923B0000A73B0000383B03
:10089000000000000000A43A0000AC3A0000083A52
:1008A000000000000000BC3A0000E8BA0000B0B947
:1008B00000009A3B000088BA000008BA00008B3B99
:1008C0000000AC3A0000B4BA0000F83A0000463B21
:1008D000000080BA0000F8BA00000E3B000008BB20
:1008E0000000A4BA0000893B00009C3A0000D03907
:1008F0000000643B0000983A0000A43A00008039F0
:100900000000383B000008BA000016BB000000B928
:100910000000883A000052BB00004ABB0000F83AD1
:10092000000008BA00008DBB0000F0BA00009CBABD
:100930000000ACBA00000EBB0000D83A00005ABB61
:100940000000C9BB0000083A0000CCBA000085BB1B
:10095000000034BB000080390000C4BA00001ABB9C
:10096000000040B900004ABB000080BA0000603AB5
:100970000000ACBA00003CBB00002CBB000000B97A
:1009800000009CBA0000F0BA0000043B000028BB45
:10099000000062BB000016BB00003CBB000085BB32
:1009A00000005ABB0000403900004EBB00008FBB66
:1009B0000000E03A0000283A000090BA00003CBB7A
:1009C0000000983A0000F0B9000060BA0000283A30
:1009D000000052BB0000A3BB0000503A000018BA50
:1009E000000040BA0000ACBA00000000000090B95E
:1009F0000000283A000040B90000CCBA0000000016
:100A0000000080B90000D0B9000040BA0000903A60
:100A10000000B63B0000963B0000703B00005A3BD4
:100A20000000223B0000D0B90000603A0000303BDB
:100A30000000D83A000060BA0000D0390000F83A4F
:100A4000000090B9000098BA000090390000F8BA90
:100A50000000E8BA0000E8BA0000D8BA00003CBBC9
:100A600000005EBB00005ABB000038BB0000ABBBFF
:100A7000000080BA0000F0B900009ABB000090BAF4
:100A80000000B039000056BB000034BB0000003944
:100A90000000D8BA000016BB00003CBB000028BB19
:100AA0000000DDBB0000BCBB0000F0BA0000E0BAF3
:100AB000000038BB00001A3B0000F8BA0000B4BACE
:100AC000000000B90000F03A00000ABB00004EBB75
:100AD0000000283A00000ABB000022BB0000F0BA68
:100AE00000009CBA000052BB000018BA00009C3AFB
:100AF000000040B900008039000090BA000078BBC7
:100B00000000F8BB00009EBB00008FBB00008FBB45
:100B10000000D0B90000CCBA000050BA0000C43ABE
:100B20000000F0B9000028BB0000F0B90000ACBA2A
:100B3000000016BB0000BCBA0000B43A0000D03977
:100B40000000C43A0000503A0000833B0000703AB5
:100B50000000983A0000463B0000083B0000703A55
:100B60000000983A00001E3B0000283A0000A4BA9A
:100B70000000183A0000AC3A000090B9000080B9BB
:100B8000000026BB000008BA000030BB0000A9BB73
:100B90000000BCBA000080380000D03900009CBAC8
:100BA0000000B4BA000008BA0000F8BA0000F0393A
:100BB0000000CCBA0000F039000008BA0000BC3ACE
:100BC0000000B43A0000383A0000603A00009C3A55
:100BD000000016BB00002CBB00004EBB0000C4BAD6
:100BE0000000CCBA0000F0B900002CBB000085BBAF
:100BF000000046BB0000C1BB000070BA000090BB03
:100C0000000038BB0000C4BA000040BA00000EBBB0
:100C1000000026BB000068BB000085BB0000A5BB30
:100C20000000E9BB000070BB000004BB000090BAEC
:100C3000000038BA000064BB0000B4BA0000D83A23
:100C40000000043B0000C43A0000B0B90000BCBA88
:100C5000000000000000C4BA0000383A0000383A32
:100C60000000CC3A00000E3B00003C3B00004A3B39
:100C70000000D43A00000E3B0000043B0000E03AC4
:100C80000000083A0000903B0000263B0000383B83
:100C900000004A3B0000043B00000A3B0000703AA1
:100CA0000000D0390000F039000070BA0000803A2E
:100CB000000040B9000040BA0000F0BA00009CBA41
:100CC0000000D0390000083A0000C4BA000080B823
:100CD00000000ABB000034BB000064BB000012BB74
:100CE000000081BB00009EBB000096BB000052BB11
:100CF000000016BB000012BB000056BB000090BAFB
:100D0000000000BB0000D4BA000040BB00003CBBA8
:100D1000000004BB00003CBB000034BB00008DBBE6
:100D2000000044BB000088BA000098BA0000BC3A3A
:100D3000000008BA000028BB0000A4BA0000C4BA32
:100D4000000012BB00009039000090BA0000F0B91A
:100D5000000000B900000039000080B80000563BD8
:100D60000000BC3A00000A3B0000F83A0000A43A38
:100D70000000A43A0000B0B9000008BA000080B832
:100D80000000F83A0000903900001E3B0000403A95
:100D90000000ACBA000000B90000D8BA00000000A2
:100DA000000080B90000B43A0000283A0000D8BA28
:100DB000000018BA0000D0B900008BBB0000F8BAE0
:100DC0000000403A000080380000B0390000B43A1A
:100DD0000000083B0000B0390000ACBA0000E8BADF
:100DE000000083BB000083BB000040BB000018BABA
:100DF0000000C4BA0000ACBA0000B4BA000000BBE6
:100E000000005EBB000087BB000087BB0000C4BAC7
:100E1000000040B90000A4BA000008BA000070BA8F
:100E2000000092BB000004BB00002CBB000080B897
:100E300000000E3B0000563B0000F83A0000B0B93D
:100E400000005ABB000088BA0000D0B90000003989
:100E5000000060BA000088BA0000803A00009C3AA6
:100E6000000050BA00001A3B0000263B00009C3AEC
:100E70000000F0B9000098BA00000000000080BA3D
:100E8000000044BB0000603A00001EBB000008BB2D
:100E9000000080BA000080BA0000F0B9000038BA43
:100EA000000098BA0000B0B90000D4BA0000AC3A13
:100EB0000000503A000080B8000060BA000090B90D
:100EC000000080B80000803A0000223B0000E03AB9
:100ED0000000703A0000043B00004E3B0000B039B7
:100EE0000000343B0000C43A000008BB000070BAA8
:100EF0000000000000000E3B0000123B0000C43A5E
:100F00000000A13B0000163B0000D0B900009CBAD5
:100F10000000D0B9000022BB000098BA000028BB36
:100F20000000F8BA000040390000983A00004E3B3B
:100F30000000083B00009C3A000008BA000040B9DD
:100F40000000CC3A000018BA0000B0390000903B15
:100F500000006C3B00008F3B00008D3B0000D63B47
:100F60000000383B00008D3B0000523B0000503A2F
:100F7000000090B90000083B0000853B0000003BEA
:100F80000000083B0000403B0000163B0000D8BAC0
:100F900000008038000028BA00002CBB000090B987
:100FA000000008BB000012BB0000D0390000383A36
:100FB0000000903900004039000000B90000603A9C
:100FC000000080BA000008BB000000BB000012BB9C
:100FD0000000603A0000283A0000D83A0000123BB6
:100FE00000004039000050BA000000000000B0B915
:100FF000000038BA0000E0BA0000ACBA0000903936
:10100000000038BB000022BB0000183A0000F0BA14
:10101000000050BA0000E8BA0000B4BA000040B9BD
:10102000000018BA00005E3B00000E3B0000C43A0E
:101030000000A43A0000383A000090BB00001EBB3C
:101040000000403A0000983A0000983A0000F83A50
:101050000000903B0000BC3B00008B3B0000AE3B1F
:1010600000000E3B00005E3B0000C43A0000303B35
:10107000000080BA000090390000A43A0000803BD4
:10108000000000390000E83A0000D83A0000AC3A0D
:101090000000123B0000883A0000C4BA000090BA79
:1010A000000040B90000A43A0000BCBA0000883A31
:1010B000000080380000503A000060BA0000A4BA76
:1010C0000000003B0000D039000000000000743B2D
:1010D0000000D0B90000983A0000983A000090391A
:1010E0000000BCBA0000B4BA000044BB000026BB3C
:1010F00000009EBB0000D8BA000038BB0000F8BA60
:10110000000034BB0000D8BA0000BCBA000098BA96
:1011100000001EBB000040B90000ACBA000028BBB4
:101120000000A4BA0000B4BA0000BCBA000000BBC2
:101130000000000000003CBB00009039000052BBE2
:101140000000B4BA000080B900009CBA0000183A50
:101150000000D43A00004E3B0000643B00006C3BB2
:1011600000002C3B000080B9000090B90000C43A98
:101170000000123B0000523B0000083A0000983A81
:101180000000E03A0000F83A00001A3B0000123B71
:1011900000000000000080BA000078BB000068BBBF
:1011A000000008BB00000A3B0000813B0000603AE1
:1011B000000090B90000F0BA0000D0B900001ABBDE
:1011C000000030BB0000ACBA000080B9000040391C
:1011D000000080BA000090390000123B000088BA7D
:1011E0000000F0BA000070BA00005ABB000096BBC5
:1011F000000060BA000087BB000060BA000028BB96
:10120000000098BA0000F8BA00009CBB0000C4BA05
:1012100000005EBB0000A3BB000038BB000022BB87
:10122000000008BA0000BCBA0000283B0000803A69
:10123000000012BB000028BB000081BB000038BAD0
:1012400000000000000090B900008039000080B864
:101250000000983B0000163B0000403B00003C3B78
:101260000000D43A0000283A000098BA00000E3B73
:101270000000283B0000B0B90000803A0000D4BA5A
:10128000000062BB000056BB0000183A0000F8BA2C
:10129000000056BB000068BB000038BB000004BB68
:1012A0000000000000001A3B0000463B0000AC3A82
:1012B0000000D0390000AC3A0000903A0000F03A4B
:1012C0000000083A0000383B0000E93B0000E33B27
:1012D0000000053C0000D63B0000D43A0000E83A8C
:1012E0000000D4BA0000403B000040B90000563B6B
:1012F0000000B0390000F03A000080380000CC3A1D
:101300000000883A000088BA000040B900000039A7
:10131000000016BB0000D0B90000403B0000C43AFA
:101320000000703A0000D4BA0000E0BA000018BA19
:10133000000088BA0000B43A0000383A0000223BAE
:101340000000643B0000983B00001E3B0000803B17
:101350000000D83A00001ABB0000A7BB000022BB67
:10136000000070BA000000390000B43A0000883A6A
:101370000000B43A00000000000030BB000038BBA1
:1013800000004ABB000022BB000018BA000018BAD7
:10139000000000B90000123B000080390000D0B905
:1013A0000000803800009EBB000008BA000028BA88
:1013B0000000AC3A00005A3B0000B43B0000DA3BAE
:1013C0000000C13B0000B03B0000F0390000B4BA9F
:1013D0000000403900000ABB0000D03900009CBA70
:1013E0000000043B0000703B0000523B0000503AFC
:1013F0000000503A000098BA000068BB000000B935
:101400000000B03900009C3B0000AB3B0000A53B56
:101410000000A13B0000403B0000000000008038BD
:1014200000000039000060BA0000883A0000D43A99
:101430000000873B0000743B0000383B0000803B0D
:101440000000803A00000000000008BB000008BB5C
:101450000000E8BA000046BB0000A4BA000080B952
:10146000000040B90000983A00000000000030BBC6
:101470000000ABBB0000A9BB000000BB000040BAED
:101480000000383A0000403A000090B90000D0B99E
:101490000000A4BA0000F0390000E0BA0000ACBAC5
:1014A000000000390000503A0000D43A0000123B1E
:1014B0000000B63B0000C43A0000283A000098BA89
:1014C000000000BB000040BA0000F0BA00009CBB66
:1014D0000000ACBA000088BA0000D039000038BB68
:1014E000000089BB000034BB0000F6BB0000A3BBBA
:1014F0000000A7BB000098BB0000873B0000F0B9CC
:101500000000683B0000D0B90000163B00009C3A88
:10151000000016BB000090BA000038BB0000F03994
:10152000000088BA0000E03A00000A3C0080013C5C
:101530000000E33B0000A33B00005A3B00008F3B50
:101540000000B0390000183A0000183A000090BAC4
:1015500000000E3B0000B0B90000803A0000B43A31
:10156000000038BB0000F039000008BB0000903AD2
:10157000000090BA0000F83A0000B23B0000D0B979
:1015800000007C3B0000303B0000003B00000E3BB5
:10159000000000390000303B000026BB000000B90D
:1015A00000002C3B0000003B0000153C000000390F
:1015B0000000BC3A000028BA0000CCBB0000C43ACE
:1015C0000000BCBA0000603A000090B90000F0B919
:1015D0000000B0B900006CBB000090B9000040BA38
:1015E00000000ABB000004BB00003CBB000040B987
:1015F000000090BA0000D0B90000703A0000703AC4
:101600000000D0390000B0390000B0B9000000B9C6
:10161000000016BB00004A3B0000B43A0000853BC6
:101620000000EE3B0000DF3B0000E73B00000E3B0C
:1016300000008039000034BB000090BA0000043B79
:101640000000883A00000000000026BB000098BAA5
:101650000000183A000022BB0000283B000026BB17
:101660000000403900000000000060BA0000F03ABD
:101670000000CC3A0000C43A0000503A000038BBE9
:10168000000062BB00005ABB000040390000083A6D
:101690000000B03B0080033C0080013C0000093C9E
:1016A0000000F03B0000BA3B0000283B00009CBA61
:1016B0000000043B000034BB0000603A00000A3B1D
:1016C000000090B900006C3B0000D039000040BA27
:1016D000000004BB000087BB0000003900001ABBFB
:1016E0000000F0BA0000ACBA000080BA0000603A16
:1016F000000090B90000A43A000008BB000009BC3B
:101700000000A7BB0000DDBB00002CBB0000803840
:101710000000A73B00009C3A0000163B0000E83A9E
:10172000000090390000983A000098BA00000ABB07
:10173000000080B8000034BB0000283B0000283ABD
:10174000000090BA0000AC3A000056BB0000E8BAB6
:10175000000070BA000050BA0000B0B9000089BBA8
:1017600000000E3B0000983A0000403A00006C3B3D
:10177000000094BB000000390000E7BB000028BB5C
:1017800000002C3B0000B0B90000C73B0000623BEA
:101790000000123B0000803A000080390000403B0E
:1017A0000000E83A0000283A0000D039000060BA92
:1017B00000001A3B0000803A00004E3B0000683BEE
:1017C0000000BC3A00000A3B0000803A00007C3B6D
:1017D0000000903B0000263B0000CCBA000040BB5C
:1017E0000000D43A000026BB000018BA000080B800
:1017F000000040BB000008BA0000D4BA0000F83A6C
:101800000000043B000050BA00009CBA0000CBBBB3
:101810000000D4BA0000A9BB000016BB00009CBAAF
:10182000000044BB0000F8BA0000E0BA000080BA33
:10183000000030BB000074BB0000A7BB0000B8BBB9
:10184000000090BB0000883A0000983A00001E3B60
:10185000000050BA000016BB0000ADBB0000A9BBE1
:10186000000040B9000089BB000026BB0000F0B9B1
:10187000000028BA0000A4BA0000903900009A3B8A
:1018800000009CBA0000183A0000D43A0000F0B9F9
:10189000000080390000183A0000003B0000E83AE0
:1018A0000000303B00001A3B0000D83A0000603ACC
:1018B0000000B03900009C3A000040BA0000E0BAD5
:1018C00000009CBB00009039000018BA00009C3B4F
:1018D00000001A3B0000923B0000043B0000D43A99
:1018E0000000B4BA0000C4BA0000F0B900004039EA
:1018F000000000000000983A0000F83A0000D43AD6
:101900000000703A00000E3B0000D83A0000F0B929
:10191000000080B9000030BB00001EBB0000C3BB4C
:10192000000038BB00009CBA000090B900000039EC
:10193000000090390000ACBA000050BA000078BB3B
:101940000000603A0000D43A0000183A0000E0BA03
:10195000000004BB000080BB00004EBB000000394B
:10196000000046BB000074BB00008FBB000044BBFE
:1019700000009CBA000090390000903B000000007D
:101980000000B43A000056BB000022BB000090BA31
:10199000000090B9000000B90000BCBA0000F8BA1D
:1019A000000060BA000052BB0000F8BA000064BB3F
:1019B0000000D0B90000263B0000083A0000D43AED
:1019C0000000883A0000F039000090390000F0BAB9
:1019D000000090BA0000403A000018BA000070BA47
:1019E0000000BCBA000040B90000D0B9000040BB04
:1019F0000000BC3A000000B90000403B0000183A6B
:101A00000000563B0000893B0000703B00005E3B3D
:101A10000000B63B000050BA000074BB0000E0BA02
:101A200000005ABB000000B90000A43A0000D43BFB
:101A300000008D3B0000963B0000903B0000BC3A4C
:101A4000000090390000BC3A0000383B0000523BD7
:101A50000000F03A00009F3B0000123B0000903B6A
:101A600000008F3B0000853B0000963B0000343BAC
:101A700000006C3B0000383B000080390000E03A79
:101A80000000223B0000923B00009A3B0000E83A35
:101A90000000F03900005EBB000056BB0000A5BB93
:101AA0000000CCBA00009CBA0000CC3A000090398B
:101AB000000080B9000034BB000004BB0000E8BA9D
:101AC0000000ACBA0000D83A0000803900000000E5
:101AD000000080BA00009CBA0000283A0000403A9A
:101AE00000005A3B000000B90000403B00004039B4
:101AF0000000123B0000343B00001ABB000008BB92
:101B0000000080BA00001EBB000070BA000080BA5E
:101B1000000040BA000098BA0000983A0000703AFD
:101B200000002C3B000038BB000098BA00009CBAB3
:101B3000000038BA0000C4BA00000A3B0000CC3AEA
:101B40000000F8BA00000000000008BA00000039E8
:101B50000000B43A0000183A000098BA000060BAD9
:101B600000009CBA0000AC3A0000CE3B0000AE3B47
:101B70000000B63B0000083B000040BA00004039BE
:101B80000000D0B900009F3B0000C43A0000803B39
:101B90000000B63B0000833B0000923B0000403B4E
:101BA0000000923B00000A3B000040390000683B07
:101BB0000000703B0000263B0000383A0000D0399E
:101BC0000000F0BA00007CBB0000F8BA000040B989
:101BD000000000B90000083B0000D8BA000028BA95
:101BE000000022BB0000D8BA0000000000001EBBAD
:101BF0000000003B0000263B0000183A000080B8BF
:101C000000004ABB0000BCBA00003CBB000083BB24
:101C100000000ABB0000E0BA000008BA000000B9EA
:101C20000000F0B900000EBB000016BB00004039F8
:101C3000000068BB0000703A00004039000088BA1C
:101C40000000503A0000BC3A0000163B0000643B24
:101C50000000043B00009CBA00008039000060BA1C
:101C6000000000B900005A3B0000403B0000303B40
:101C70000000893B0000D4BA000004BB000018BA81
:101C8000000081BB00008038000080BA000090BADC
:101C90000000B0B90000283B0000893B00000000B4
:101CA0000000223B0000183A0000B0B900004039A3
:101CB000000016BB0000A4BA00004039000070BA52
:101CC00000001A3B0000263B000080390000C43AA7
:101CD0000000463B0000903B0000F83B0000D03B7A
:101CE00000009F3B0000A73B0000F03A0000403995
:101CF00000000A3B000050BA000012BB000078BB95
:101D000000005EBB0000D8BA0000083B0000BD3BED
:101D100000004A3B0000803A000000390000ADBBE3
:101D200000009CBA000052BB000012BB000008BBC0
:101D3000000000BB0000BC3A0000E8BA0000E03A36
:101D4000000022BB000022BB0000BC3A000040B9EA
:101D50000000463B0000003B0000403A0000303BE2
:101D600000007CBB000090BA000044BB0000D8BA61
:101D70000000123B0000403A00009C3A000060BAAC
:101D8000000052BB000090B9000046BB0000B0B993
:101D90000000B0390000383A0000803B00000E3BE4
:101DA0000000943B0000783B00002C3B0000743B9B
:101DB0000000403A0000D83A0000BCBA0000D0B998
:101DC0000000D0390000C43A00008F3B0000283AE0
:101DD00000004A3B0000B43B0000443B0000A33B32
:101DE0000000BD3B0000E93B0000E33B00009F3BDF
:101DF00000007C3B00002CBB0000383A00009CBA7D
:101E00000000B0390000183A0000F0B90000563B5D
:101E10000000D0B900001A3B0000C73B0000B63BF1
:101E200000004E3B0000803A0000D43A0000B4BAF3
:101E30000000D4BA0000283A000018BA0000603A46
:101E400000000000000090B9000008BA0000000087
:101E500000006C3B00005E3B0000923B00009A3BA0
:101E60000000263B0000D83A000070BA000050BACB
:101E70000000003900002CBB0000703A0000E8BAF6
:101E8000000040BA0000083A000038BA0000BC3A2E
:101E90000000603A0000B039000000000000803906
:101EA000000080B80000F0390000283A000080B837
:101EB0000000503A0000BCBA000000BB00008038AF
:101EC000000080B80000223B0000BC3A00004E3BFE
:101ED0000000943B0000CE3B00000E3B00006C3B3A
:101EE00000000E3B0000083B0000263B0000783B52
:101EF000000090B9000008BA0000F039000098BA5C
:101F00000000403B0000883A000040390000703A71
:101F1000000090390000D43A0000083A0000E83A86
:101F20000000F03A000000000000F03900008039A5
:101F30000000603A0000CC3A0000D0B90000703ACE
:101F40000000F0BA000018BA0000703A0000803AB1
:101F50000000A43A0000A53B00003C3B00003C3BD5
:101F60000000083A00009CBA000080390000B0B9B7
:101F7000000038BA000080BA000080BB00004ABBF5
:101F8000000056BB0000D43A0000873B0000F03A46
:101F900000006C3B000034BB000012BB0000CCBA58
:101FA00000003CBB000000000000803800008039C9
:101FB000000080380000B03900005A3B0000F03AC1
:101FC0000000903900000A3B000080B80000263B6A
:101FD00000005A3B00002C3B0000623B0000F0B9BF
:101FE0000000223B0000903A00000000000088BA88
:101FF000000070BA00004ABB0000CCBA000080BAF2
:1020000000000A3B0000443B0000E83A0000D43ADC
:1020100000001E3B000000390000C43A0000003BF5
:102020000000503A0000CC3A0000CCBA0000F0B9F1
:10203000000000B90000403B0000123B000070BAF5
:102040000000B43A000000000000E03A00008F3BBE
:102050000000D83A0000A93B0000903B0000983AED
:1020600000009A3B0000E03A00009C3B0000803BEF
:102070000000AC3A0000873B0000BC3A0000043B83
:102080000000123B0000F0390000E83A000090B96F
:102090000000D0390000853B000090BA0000BCBAB7
:1020A00000007CBB0000F0390000383A0000003925
:1020B0000000D83A0000003B0000813B0000E73BF5
:1020C0000000BC3B0000383B0000A43A000038BAD6
:1020D000000094BB000000BB000040BA0000083BB9
:1020E0000000833B0000E03A0000E03A0000403985
:1020F0000000703A00004E3B0000183A000008BA99
:10210000000046BB000000000000523B00004E3BB8
:102110000000A33B00001E3B0000E83A0000503ADC
:10212000000080B80000163B0000F0B90000003944
:102130000000463B000080B800001E3B0000B4BA1F
:10214000000038BA0000903A0000783B0000923B53
:102150000000B63B0000D63B0000873B0000223B5E
:10216000000098BA000080BB000040BB0000BC3AF1
:102170000000E03A00000000000018BA00004039FA
:10218000000038BB000080BB0000CEBB00005EBB7F
:10219000000050BA000080B90000263B0000043B5C
:1021A00000000A3B00005A3B0000D83B0000EC3B1B
:1021B00000006C3B0000123B00009A3B0000343BE7
:1021C0000000463B0000343B0000123B00002C3B6B
:1021D000000080380000F03A0000B0B90000803AFA
:1021E0000000523B0000853B0000383B0000803976
:1021F00000000ABB0000CCBA00006CBB0000B0B904
:102200000000503A000040BA000026BB000004BBAA
:102210000000F8BA00005EBB000000000000183AA1
:10222000000098BA000060BA000060BA000090BADE
:102230000000BCBA000080B80000883A000008BA6C
:10224000000000000000D0B90000123B0000123B6B
:102250000000833B0000A13B00009A3B0000B83B1C
:102260000000943B0000C43A000038BA00008BBB69
:10227000000026BB000004BB000008BA0000803943
:102280000000883A0000803A000050BA000028BAE6
:10229000000000B9000088BA00001E3B00000A3BA5
:1022A0000000383B0000C33B0080023C0000F03BD4
:1022B0000000F63B0000BC3A000080BA000030BBD2
:1022C000000080BB000008BB0000F0B90000B0397E
:1022D0000000D83A0000123B0000D8BA0000883A4B
:1022E000000000000000903A0000803A0000D0B9E1
:1022F000000088BA0000000000009C3A00007C3B0F
:1023000000008D3B0000083B000040BA000012BBFB
:102310000000A9BB00006CBB000040BA00000A3BF3
:102320000000A13B0000903B0000123B0000D039B0
:1023300000001ABB0000F03900008038000050BADD
:10234000000060BA000008BA0000B0390000CC3AC2
:10235000000080390000163B00002C3B00004A3B87
:102360000000403A0000703A00000039000028BA2E
:10237000000038BA0000ACBA0000B6BB000004BBD5
:102380000000D0390000283A0000383A0000000070
:102390000000903A0000403A0000603A0000283AFD
:1023A0000000883A0000D0B9000080B8000028BBC7
:1023B000000080B80000083B0000C43A0000083A62
:1023C0000000E03A000098BA0000A4BA0000E8BAA1
:1023D000000088BA000022BB000040BA0000B43AF6
:1023E0000000283B0000383A00000039000056BBCE
:1023F000000034BB000034BB0000ACBA00008039E0
:10240000000080B9000040B900009039000004BB12
:10241000000028BA000090BA000016BB0000CCBA39
:1024200000003CBB0000B0B90000A4BA00001E3B95
:102430000000043B000098BA000060BA0000F0BA47
:10244000000064BB000040BA0000C4BA0000803A3B
:102450000000F0BA0000D8BA000080380000503AFE
:10246000000028BA0000B0390000CCBA000000B962
:10247000000008BB00000ABB0000F03A00009C3AD4
:10248000000050BA0000B0B9000028BA0000983A25
:102490000000F03A00005E3B0000CC3A0000000073
:1024A00000001E3B0000F03900000E3B0000D43A53
:1024B00000009C3A0000853B00008F3B0000893BF8
:1024C0000000343B000000000000803A0000A4BA85
:1024D000000008BA0000F0B9000080390000E83AB6
:1024E0000000D0B9000008BA0000D83A0000803AD5
:1024F0000000A43A0000003900000E3B0000B43A8E
:10250000000000000000B0390000603A000000390F
:102510000000B0B90000E03A0000743B00001E3B30
:102520000000463B0000903A000038BA0000C4BAF0
:10253000000000390000AC3A0000883A0000F03991
:102540000000703A0000D039000028BA000004BB37
:10255000000000B90000803900006C3B0000893B9E
:102560000000343B0000803B0000003B000080B9CD
:1025700000009CBA0000A4BA0000E03A0000503A03
:102580000000043B0000D83A000090390000803978
:10259000000016BB0000BC3A0000623B00008D3B0F
:1025A0000000B43B0000813B0000643B0000AC3AFB
:1025B000000080B90000503A000090390000283B2C
:1025C0000000683B0000123B0000683B0000443BF9
:1025D0000000603A000052BB0000ABBB000083BBB0
:1025E000000062BB000068BB000012BB000028BAFC
:1025F000000080B90000183A0000853B0000163B3F
:10260000000028BA0000D8BA0000E0BA0000803903
:102610000000703A0000383A0000503A0000343BA5
:102620000000BC3A0000D0B9000000B90000ACBA0C
:10263000000070BA000018BA000080390000F039BC
:10264000000080390000903A0000D83A0000ACBA8F
:102650000000503A0000F83A000040BA0000AC3ADE
:102660000000083A00009039000038BA0000C4BAEF
:1026700000000039000080380000083A0000183AD5
:1026800000002C3B0000F83A0000B0390000163B77
:102690000000503A0000803A0000043B00000A3B72
:1026A00000007C3B0000163B00000A3B0000003BA2
:1026B0000000123B00007C3B00009A3B0000983B6E
:1026C0000000813B00001A3B0000003B0000E83A9C
:1026D0000000983A0000883A0000383A000090B9AB
:1026E000000038BB000000BB0000D8BA0000B43ABC
:1026F0000000743B00007C3B0000BA3B0000923BB2
:102700000000463B0000CC3A0000AC3A000040BA62
:10271000000098BA0000D039000090B90000CC3A0F
:102720000000283A00008038000060BA000098BA23
:10273000000090390000BCBA0000883A0000CC3A92
:102740000000F83A00000A3B0000C43A0000903A4A
:102750000000D83A0000263B0000883A0000163BF3
:102760000000083A0000D0B9000040390000B43A37
:1027700000009039000000000000383A0000043BDF
:102780000000383B00001A3B00006C3B0000D43ACC
:102790000000F03A0000083B000018BA000070BAD0
:1027A00000000ABB0000C4BA000080B90000A4BA4F
:1027B000000090390000383A0000163B0000343B1E
:1027C00000001E3B00004039000098BA000085BBA5
:1027D00000001EBB00001EBB000090BA000028BA1B
:1027E000000000000000F0B9000090390000E83A55
:1027F000000040BA000040B9000018BA000060BAFA
:102800000000D0390000B0B90000ACBA000098BA9E
:102810000000383A0000183A00002CBB000083BBCF
:10282000000026BB0000A4BA0000403A0000B43A01
:102830000000083B0000403A00009CBA000000394C
:10284000000088BA0000E8BA0000CCBA000098BACC
:10285000000062BB000046BB000008BA000090B94F
:102860000000263B0000443B000000B9000070BAA5
:10287000000040BB0000CCBA0000803800009C3A49
:102880000000403A0000703A0000BC3A0000003BF3
:102890000000AC3A00000A3B0000403B0000163B41
:1028A0000000603A000080B9000038BA000080BA29
:1028B0000000D0B90000AC3A0000E83A000040390E
:1028C0000000D03900008038000080B900002CBB27
:1028D0000000E8BA0000BCBA0000E8BA000008BB7B
:1028E0000000F0B9000080BA0000083A000080380B
:1028F000000080390000E0BA000004BB00003CBBCF
:10290000000022BB0000BCBA000000390000F03912
:10291000000080B80000D83A000018BA000000009B
:1029200000000ABB00002CBB000028BB000080BBDD
:102930000000E0BA000080B80000183A00000A3B2E
:102940000000CC3A0000563B0000603A000080389E
:10295000000088BA0000B0B90000A43A0000E83ACC
:1029600000008F3B0000B03B0000BA3B00004A3B38
:102970000000223B0000183A0000CCBA000080B9E9
:102980000000903A0000043B00002C3B00000A3B92
:102990000000CC3A0000A43A0000F03900000E3BE1
:1029A0000000803800000000000018BA000038BAAB
:1029B0000000D039000038BA0000083A0000403961
:1029C000000080B8000050BA0000CCBA000000003F
:1029D0000000403A000080B9000018BA000070BA48
:1029E0000000D0B90000E8BA0000CCBA0000183AE4
:1029F0000000CCBA000098BA00009CBA000070BB7E
:102A00000000A4BA000000390000A43A0000443BD2
:102A10000000123B0000E03A000008BA000038BA9B
:102A2000000040BB0000E8BA000000BB00000ABB89
:102A3000000070BA000090BA000040B90000A43A4B
:102A40000000803A0000803A00008038000060BA40
:102A50000000D8BA0000883A0000B0390000D03930
:102A600000003C3B0000AC3A0000AC3A00005A3B8E
:102A70000000343B0000263B0000123B0000CC3A33
:102A80000000083B0000283A00000A3B0000043B1D
:102A90000000563B0000463B0000443B0000643B06
:102AA00000001A3B0000F83A0000F03A0000000075
:102AB0000000883A0000B039000008BA0000F03980
:102AC00000005A3B0000D83A00000A3B00009C3A44
:102AD0000000B43A0000503A000028BA000040BAA2
:102AE000000088BA000028BB000046BB000008BBFD
:102AF0000000F8BA0000C4BA000090BA000028BA7A
:102B00000000ACBA0000883A0000603A000080BAC9
:102B100000004039000018BA0000F0B90000C4BA43
:102B20000000C4BA000070BA00002CBB000044BB17
:102B3000000078BB000044BB00009CBA0000F0B964
:102B40000000ACBA0000F0BA000004BB000022BBD9
:102B5000000062BB0000D2BB0000BABB0000B2BBE9
:102B6000000094BB00009FBB00004ABB0000183A65
:102B70000000283A00008F3B0000C73B0000E93B03
:102B80000080033C0000DB3B0000A13B00008F3BCA
:102B900000008D3B0000783B0000223B0000D43A4F
:102BA0000000283B00001EBB000080BB00004ABBA9
:102BB0000000CEBB0000DABB000078BB0000D0B93B
:102BC0000000C43A0000CC3B00801F3C0000373CB2
:102BD0000000373C0000443C0000353C0000043C51
:102BE0000000EA3B0000B43B00002C3B000000006A
:102BF0000000CCBA0000D8BA00009CBA0000C4BAE9
:102C000000009CBA000004BB000088BA0000F0B9C4
:102C1000000018BA0000903A00005A3B0000703BD8
:102C20000000AB3B0000CB3B0000E13B0000EE3B73
:102C30000000F23B0000E33B0000C73B00009A3B72
:102C400000005A3B0000813B00003C3B00005E3B23
:102C50000000383B0000623B0000783B0000963BE0
:102C60000000903B00001E3B0000263B0000183A8D
:102C700000004039000080B80000D0390000043B5B
:102C80000000223B0000043B0000E03A0000C43A90
:102C900000004E3B0000043B00005E3B0000E83AB1
:102CA0000000F03A0000AC3A0000403A0000403921
:102CB0000000D0390000B4BA000026BB00001ABBE7
:102CC0000000D4BA000000B90000703A0000F0B96A
:102CD000000090BA000038BA000070BA0000B4BA20
:102CE000000026BB000050BA0000F0B90000000050
:102CF000000000B90000D0B9000098BA0000ACBADA
:102D0000000070BA000040BA0000D039000040391D
:102D1000000080BA00000000000008BA0000B4BA49
:102D2000000000390000803A0000183A0000F03A34
:102D30000000BC3A0000903A0000CC3A0000F03AA3
:102D4000000050BA0000703A00000E3B0000283B23
:102D500000005A3B00007C3B0000403B0000623B0F
:102D60000000BC3A0000AC3A0000F0B9000090B995
:102D7000000060BA000008BB0000B0B90000B03924
:102D8000000000000000BC3A0000383B0000163B89
:102D90000000183A00009C3A0000B0B9000080B86A
:102DA000000040BA000000000000B0B9000000B907
:102DB000000080B9000028BA00009CBA0000CCBA1C
:102DC000000090BA000040B90000E8BA000090BAD4
:102DD0000000B0B90000B0B90000BC3A0000563B9A
:102DE00000001E3B0000803A00009C3A00001A3BA5
:102DF0000000C43A0000403A0000983A0000043B4A
:102E00000000283A000088BA000008BA0000D8BACA
:102E10000000ACBA0000BCBA000090BA0000F0BAE2
:102E2000000070BA0000CCBA000070BA0000B0B95F
:102E30000000D0B9000080390000903900009C3AB1
:102E40000000503A000040390000083A0000B43A4F
:102E5000000080380000803A0000C43A0000B43A14
:102E60000000E83A0000403A0000B0390000503A53
:102E70000000F0B90000803A00009039000080396D
:102E80000000383A0000303B00000E3B0000003BE1
:102E90000000A43A000040BA0000D8BA0000883A06
:102EA0000000A43A0000623B0000523B0000383AA8
:102EB0000000F0390000B0B9000090B90000A4BAD9
:102EC0000000283A000040390000CCBA000000B9E8
:102ED00000003CBB00005ABB0000F0BA0000F0BA92
:102EE000000034BB00004EBB000028BB00004ABB02
:102EF000000070BB000089BB000034BB000092BB27
:102F000000001EBB000000BB0000F8BA0000F8BAC9
:102F100000001EBB0000E8BA000040B90000403AC3
:102F20000000E83A0000B0390000A43A0000A43ADA
:102F30000000A43A000080B80000F039000050BA48
:102F40000000F0B9000090BA000090B90000403ACB
:102F500000000E3B0000683B0000703B00004A3B55
:102F600000009E3B00009A3B00008F3B00002C3B82
:102F70000000163B0000F83A0000B0390000803A2B
:102F80000000F039000000000000D83A0000903A3C
:102F90000000803A0000AC3A0000C43A0000603AF9
:102FA0000000603A0000A43A0000183A00004039DE
:102FB000000088BA000000000000883A0000803954
:102FC0000000403A0000703A0000163B0000783BD9
:102FD00000001E3B00000E3B0000083A0000283AAB
:102FE0000000D83A00000A3B000090390000D0B938
:102FF000000040B90000883A0000903A0000C43A4E
:103000000000383A000000000000000000001ABB79
:103010000000D4BA00000ABB000018BA000018BAB9
:103020000000B0B9000040390000F0B90000D8BA83
:10303000000070BA000088BA000090BA000030BBEF
:1030400000004EBB000038BB00000ABB0000BCBA49
:10305000000040B9000050BA0000F0B90000F0BA1A
:10306000000018BA0000ACBA000000000000703A7E
:103070000000BC3A0000003B0000083A0000B43AEF
:103080000000AC3A0000B43A0000C43A0000623BD1
:103090000000563B0000B03B0000B43B0000E13BA9
:1030A0000000DD3B0000B43B0000743B00004A3BE5
:1030B00000003C3B0000463B0000163B0000703B1C
:1030C0000000223B00001A3B0000A43A00004039F7
:1030D000000008BA000000390000F0BA000040BA51
:1030E000000038BA000098BA000040BB0000D4BA13
:1030F00000009FBB000056BB00009FBB0000A7BBA9
:103100000000C1BB0000DDBB0000DFBB0000CBBB8B
:1031100000008DBB000078BB000046BB00002CBB4C
:10312000000000BB0000E8BA0000F0B90000B0B930
:103130000000A43A0000803A0000623B00007C3BA3
:103140000000123B00006C3B00008F3B0000623B24
:103150000000983B0000163B00008B3B0000643BE6
:103160000000903B0000943B00008F3B0000813B3F
:1031700000009F3B0000623B0000963B00005A3B72
:103180000000C43A00000039000000000000D039FF
:10319000000088BA0000B039000040B90000F0B962
:1031A000000000000000B03900000000000000B97D
:1031B0000000F0BA00001EBB000083BB00002CBB67
:1031C0000000F8BA0000F8BA000046BB00008DBB52
:1031D00000009CBB000044BB000034BB000030BBBF
:1031E000000038BA0000A4BA0000C4BA000060BAF7
:1031F0000000F0390000563B0000B63B0000923B57
:1032000000007C3B00008F3B0000963B0000B23B7F
:103210000000C33B0000AE3B0000CC3B0000DB3BAA
:103220000000B83B0000D03B0000BD3B0000E53B88
:103230000000E53B0000B63B0000E93B0000163C07
:103240000000133C0000253C0000193C0080033CBA
:103250000000083C00800D3C0080033C0000A73BC0
:1032600000000E3B000028BA0000A7BB0000E7BB2F
:1032700000802DBC000074BC00408BBC0040A1BC91
:103280000000A6BC00C0A7BC0040A3BC008094BC4A
:10329000000054BC00802DBC000009BC0000D8BB5D
:1032A0000000BDBB00009ABB00004ABB000038BB59
:1032B0000000F0390000463B0000AD3B0080113CAF
:1032C00000803E3C0080693C0080773C0040893CA7
:1032D00000C0893C0000883C00C09B3C0080AD3CA5
:1032E00000C0CC3C00C0E33C0000E73C00C0EC3C2C
:1032F00000C0E53C0000D93C0080B43C00809D3C0F
:103300000040833C0000283C0000BA3B000016BB94
:10331000000013BC000047BC004092BC0040B2BC9F
:103320000080C2BC0000D9BC00C0D7BC0040D7BCE4
:103330000000D4BC0040C5BC0000B4BC00C0A7BCA9
:1033400000008FBC00807BBC00805BBC008021BC87
:1033500000800BBC0000A7BB000052BB000056BBA6
:103360000000BCBB008012BC00801CBC000016BC6E
:10337000000015BC0000B2BB00000EBB0000523BB9
:103380000000DA3B0080103C00006F3C0000903CE5
:103390000000A63C0040DD3C00C0F53C00000E3DB6
:1033A00000E01B3D00C02B3D0080423D0040563DEB
:1033B00000205F3D0020583D0040403D00A01F3DE3
:1033C00000C0E53C00807A3C00009C3A00805CBC78
:1033D00000C0B9BC006009BD00E018BD004022BDBE
:1033E00000E026BD00C01CBD00E010BD002001BDF6
:1033F0000080D9BC00C0A2BC000060BC0000E3BBE0
:103400000000B0B90000383B0000C93B0000DA3BC7
:1034100000002C3B000016BB0000D2BB000063BCC8
:103420000040A1BC0000C9BC0040F4BC0040FCBC92
:103430000040EDBC0080BDBC00C089BC0000F9BBF1
:103440000000B4BA00008D3B0000FB3B0000073CCD
:103450000000253C0000253C0000433C0080683C07
:103460000000893C0000BD3C0000EA3C00E00C3D4F
:103470000000213D00C0343D00C0423D00605C3D85
:1034800000406F3D0000803D0060813D00C0733D05
:1034900000803C3D00C0F93C0080383C000013BC7B
:1034A00000C0EDBC00C033BD00005ABD006067BD68
:1034B00000C064BD00204DBD008037BD00400ABD86
:1034C00000C0D5BC008085BC0000DFBB0000B03967
:1034D0000000193C0080943C00C0CD3C0040DF3C23
:1034E0000000E83C0080BC3C0080813C0000AD3B1B
:1034F0000000F9BB0080A5BC00C0FABC004028BD9C
:1035000000A036BD00A039BD002035BD00001ABDA9
:103510000080FDBC0000B3BC00803CBC000030BBA0
:1035200000000A3B0000403B0000803B0000B03937
:103530000000903A0000D83A0000A93B0000E13BAF
:1035400000005F3C00008E3C00C0B03C0040D53C19
:103550000040DD3C0040F33C0040163D0060313D42
:103560000000523D00E06E3D00A0793D00C0763D78
:1035700000C04D3D00A00F3D0080683C008011BCA4
:103580000040F3BC00803EBD008068BD002071BDDE
:1035900000206ABD00C047BD00E01FBD0040E5BC83
:1035A000000086BC000007BC0000F0BA0000B03B81
:1035B00000801D3C00807A3C00009F3C0040C13CE4
:1035C0000040CD3C0000D33C00C0983C00802E3C25
:1035D00000008038000060BC0000D3BC00800EBD3D
:1035E00000602ABD00C034BD004037BD002020BDB2
:1035F0000040F2BC00809DBC0000FDBB0000003B11
:103600000000C53B0000C13B0000D43A0000E0BA16
:103610000000B6BB000044BB000080390000F63B50
:103620000080783C0080B23C0000E13C0000003D9E
:1036300000000B3D0080163D00E0293D0080433D29
:1036400000E05E3D00A07C3D0060813D0000783DD3
:1036500000405A3D0000133D0080743C0000BDBB9B
:1036600000C0ECBC00603ABD00E06DBD00B080BDA4
:10367000000077BD00805CBD006039BD00E00FBD7B
:103680000000D4BC00C092BC00800BBC0000603ABB
:103690000000D43B00803A3C00408C3C00009D3C44
:1036A0000080B43C0040A93C0080813C0000DA3B33
:1036B000000044BB000063BC00C0D5BC00A017BD27
:1036C00000E039BD00E048BD002045BD000038BD28
:1036D00000201BBD0080DBBC000064BC0000B4BA4D
:1036E0000000E73B0000373C00801D3C0000F23B3F
:1036F0000000703B0000683B0000C13B0000133C31
:103700000080563C0040943C0080BB3C0000D33C11
:103710000080D93C0040033D00800E3D00601F3D0D
:1037200000A03A3D00404F3D0020723D0060793DD1
:103730000000613D00003C3D0000F23C0000173CF1
:10374000000042BC000000BD00C03BBD00A05FBD4A
:10375000000064BD00C059BD00A041BD00C01CBD3B
:103760000040ECBC0000ACBC008077BC00800EBC0C
:10377000000016BB0000463B0000163C0080783C71
:103780000040913C00C0A93C00009C3C00804A3CA9
:103790000000A73B0000C5BB000098BC0040F4BC83
:1037A00000A01EBD00C03BBD006049BD00403FBD44
:1037B000002027BD0080F9BC000087BC00008FBB43
:1037C0000000943B0000FF3B0000E13B0000223B77
:1037D00000000ABB000089BB0000D4BA0000AC3A6C
:1037E0000000D23B0000453C0080873C0000AC3C20
:1037F00000C0C63C0040D63C0080E73C00E0053DF0
:103800000020173D00A02D3D00A04F3D00A05F3DD2
:103810000040683D00A0503D0020243D00C0CE3C4B
:103820000000CC3B000064BC0080F8BC000029BD57
:10383000006045BD000047BD002035BD00801DBDB6
:1038400000C0F2BC00C0B1BC000071BC008011BC63
:1038500000001ABB0000163B0000E73B0080563C0E
:103860000080853C0080A33C0040B03C00C0933CFD
:103870000000543C0000743B0000C9BB00008FBC3A
:103880000040EBBC008019BD00802FBD00A035BDFD
:1038900000A02ABD002011BD0000C3BC00800BBCED
:1038A0000000403A0000C73B0000C93B0000AC3AB2
:1038B00000001EBB0000A1BB00009ABB0000CCBAF8
:1038C00000001E3B0000FF3B00802A3C0000723CD1
:1038D0000080903C00C0A13C0080BC3C0000D23C79
:1038E00000C0EA3C0020083D0040253D00C0433DAB
:1038F00000805A3D00E0623D0080553D0040343D6F
:103900000060023D0080563C00008FBB0040B1BC0F
:1039100000C006BD00A02ABD00A03CBD00A039BD6E
:1039200000402CBD00400FBD00C0ECBC0040CEBC30
:10393000004098BC008074BC008003BC000098BAB2
:103940000000C53B0000553C00C0893C00009C3C89
:1039500000809E3C0000893C00800B3C000080BA47
:10396000000033BC0080BABC0040FABC00201FBD80
:1039700000802FBD00402DBD00000FBD0080C3BCE6
:10398000000041BC0000ACBA0000523B0000383BD4
:103990000000F0B9000085BB0000D6BB0000CBBB27
:1039A000000040BB0000043B0000073C0000443C1A
:1039B00000C0843C00809F3C00C0A83C0000BB3C91
:1039C0000000D33C0040EC3C00E00B3D00202A3DD1
:1039D0000020453D0040653D00407C3D00F0813DBC
:1039E0000040703D00804E3D0060103D0000883C6E
:1039F00000005ABB0040AABC00C00BBD00202EBD79
:103A000000003CBD00A036BD008030BD004016BDAA
:103A1000002008BD0040EBBC00C0B8BC000098BC52
:103A2000000044BC000089BB0000343B0000193C8E
:103A30000080773C00808D3C0080743C00802A3CF4
:103A400000009C3A000019BC0080AEBC000004BD20
:103A5000006027BD00003FBD00E044BD00E035BD73
:103A600000200DBD0040A8BC0000EEBB0000603A85
:103A70000000623B0000043B000080B8000026BB51
:103A8000000028BB000000000000523B0000E93BA2
:103A90000000353C0000643C00008D3C0000A73C69
:103AA0000040B73C0040CF3C0000F03C0060023DCD
:103AB0000060183D00002D3D0040513D00C06B3DB1
:103AC0000080833D00108A3D00D0823D00405D3D76
:103AD00000C0213D0080AD3C0000703A004085BC34
:103AE000000004BD00E036BD00C04ABD00004FBD6F
:103AF00000A048BD00A036BD004028BD00401ABD52
:103B0000000003BD0040D5BC008090BC008003BC19
:103B10000000303B00804A3C0040943C0080AE3CBA
:103B20000000A63C0000803C0000DD3B00007CBBA8
:103B3000008081BC0000D4BC00E009BD00801EBD37
:103B400000C025BD006014BD00C0EABC00008DBCF3
:103B50000000B2BB0000CC3A0000743B0000623BA6
:103B60000000D0B9000090BB000078BB000038BB5B
:103B70000000F0BA0000903A00006C3B0000CC3B23
:103B800000800C3C0000313C00005F3C0080763C33
:103B900000C0993C0080BC3C0040EE3C00200D3D44
:103BA00000002C3D00204C3D00006C3D00D0833DCA
:103BB00000508A3D0080833D0060623D00E0273D6B
:103BC00000C0A73C0000983A00409ABC00C00EBD5F
:103BD00000A03ABD00C051BD00C055BD00004BBDA6
:103BE00000A03ABD004024BD00800FBD00C0EDBC68
:103BF0000080B3BC00803FBC000000000080493C56
:103C00000040AF3C0040E33C0080003D00C0F43C7D
:103C10000040C03C0000473C000018BA00007FBCD8
:103C20000080F0BC00C01CBD00E035BD00403CBDC4
:103C300000E02ABD002001BD0040A0BC0000DABBAE
:103C40000000043B0000683B00000E3B0000000049
:103C500000004ABB000081BB000083BB0000B4BA77
:103C60000000603A00000E3B0000443B0000643B53
:103C70000000C33B0000F63B0000253C00006E3C0A
:103C80000040A03C0080D93C0020093D00C0253DFB
:103C900000A0483D00E06A3D0050843D0070893D31
:103CA00000008B3D0000783D00A0403D0080FF3CBF
:103CB0000000233C000019BC0000E8BC008025BDCA
:103CC00000E04BBD00A05ABD00A054BD00004ABD9D
:103CD000008030BD000019BD0000F9BC0040B7BC39
:103CE000000045BC0000D0390080473C0000BA3CD1
:103CF0000040FC3C0080033D00C0FC3C0000C23C96
:103D00000000503C00000ABB00C082BC0040EEBC7A
:103D100000C029BD00A03DBD00804ABD00C042BD1D
:103D200000E01BBD0080CCBC000018BC00005E3B66
:103D30000000273C0000323C0080023C0000803B39
:103D4000000008BA000078BB000085BB00007CBB07
:103D5000000034BB0000E0BA0000C4BA0000903A92
:103D60000000F03A0000B03B00803D3C00809D3CEC
:103D700000C0E33C00A0143D0000373D00A0533DCF
:103D80000000653D0060753D00D0823D0070863DBD
:103D90000030843D00806F3D0080383D00C0EC3C29
:103DA0000000F23B000062BC000003BD002039BDF2
:103DB00000405DBD00006DBD00805DBD004046BDA2
:103DC000004028BD00A008BD00C0CFBC00C090BC12
:103DD00000800FBC0000303B0080593C0080B43CA8
:103DE0000080E83C0080EA3C0040C63C0000813C8A
:103DF0000000A93B000016BC0000C4BC00801ABD36
:103E000000E044BD00E062BD00206FBD000061BD68
:103E1000004037BD0080E9BC00801ABC0000B43B04
:103E20000000603C00006E3C00802A3C0000743BB7
:103E300000008DBB0000F9BB008021BC000033BC3A
:103E400000801FBC0000F8BB0000B8BB00005ABBDC
:103E50000000803A0000DA3B0000613C0040A83CD2
:103E60000080F03C00E0173D0000303D0000403D88
:103E700000604F3D0060573D00C06B3D0060793DE4
:103E80000060713D00E05F3D00A0323D00C0EA3CB3
:103E90000080213C000035BC00C0FCBC00403FBDA0
:103EA00000405DBD00606EBD00C065BD00A041BDAD
:103EB000002026BD008002BD0000BCBC008080BC8C
:103EC0000000D8BB00004E3B0000613C0040B73C06
:103ED00000C0ED3C0040F23C0000D43C0080A33C1C
:103EE0000080013C0000CEBB0080B4BC00E010BDEF
:103EF000000040BD00E05ABD00605CBD00A04BBDAD
:103F000000801DBD0080ABBC000040BB0080693C50
:103F10000040BE3C0080CC3C00C09B3C00801D3C6F
:103F20000000B0B9000015BC00005EBC004083BCBE
:103F3000004085BC00807BBC00804BBC00800FBC77
:103F4000000092BB000080390000BF3B0080483C6D
:103F50000040B13C00C0F23C00A0143D00002C3DEC
:103F60000000383D0000473D00E0543D0060633DE7
:103F700000606A3D00A0623D00204C3D00E0133D22
:103F800000C0993C000000BB0000BDBC00A02DBDDE
:103F9000008059BD006063BD004055BD000035BDC7
:103FA00000800FBD00C0CDBC008074BC0000DDBB34
:103FB0000000603A00800D3C00C08A3C0040CF3CCD
:103FC0000000073D00801E3D00001E3D00E0043D56
:103FD0000000B53C0000DB3B000026BC00C0ECBC90
:103FE000002033BD008060BD002076BD00406CBD68
:103FF00000A04BBD00000FBD00007DBC0000833B56
:104000000040A33C0080CC3C0000CC3C00C0833C82
:104010000000CE3B0000BDBB008086BC0040B9BCA8
:104020000000D1BC0080BCBC0000A7BC004083BC29
:10403000008030BC0000BFBB0000F0B90000B23B04
:1040400000006D3C00C0BE3C0040073D00202A3D02
:104050000060443D0020543D00805D3D00C06B3D4C
:1040600000C0703D0040743D00E05F3D00A0313D68
:104070000000C23C0000D43A0000C9BC00003BBDB7
:1040800000007CBD007086BD00007FBD00E057BD14
:10409000004019BD0000BCBC000042BC0000BCBA1E
:1040A0000000B43B0080563C00009C3C0080DF3C9C
:1040B00000A00C3D00E0233D00E02A3D00800B3DC8
:1040C0000080BA3C0000C33B000064BC00C016BDC9
:1040D00000805DBD002083BD00D08DBD004081BD4E
:1040E000002058BD000013BD00C082BC00002C3B66
:1040F0000000A43C00C0EB3C0080033D0000D93C24
:1041000000C0843C0000CC3A008059BC0040E3BCB5
:1041100000001ABD000029BD006026BD00C00DBD15
:1041200000C0CFBC004083BC000081BB0000D83B76
:104130000080803C0080CC3C00000B3D0060313DA5
:104140000080463D00205B3D0040653D00006C3D29
:104150000020753D0000833D00207A3D00005E3D5B
:1041600000000F3D0000F63B0040B0BC00204CBDFD
:1041700000108CBD008099BD004089BD008055BDF8
:1041800000C0FBBC000031BC0000873B0080803CCD
:1041900000009F3C0000B43C0040B03C0040D73CD5
:1041A0000080023D00C0073D00C00D3D0080D83CAE
:1041B00000004F3C0000DFBB0040EEBC002044BDCF
:1041C000005080BD006089BD001080BD008051BDE1
:1041D000008007BD000072BC0000523B0040833CE1
:1041E00000C0B83C00C0B03C00C0833C0000FB3BBA
:1041F000000056BB00807ABC0000E7BC00E01ABD9E
:1042000000C034BD00E03DBD00C034BD002018BD7D
:104210000040DEBC000064BC000080390000703C3F
:104220000040DD3C00A01B3D00A03A3D0040523D57
:1042300000E05F3D0060623D0000613D00605F3D69
:1042400000E0633D00A0813D0000903D00C08E3D38
:1042500000607D3D0060103D000090B900A01BBDD6
:1042600000A08CBD0070A9BD00D0A3BD00006CBD36
:104270000040EEBC0000383B0080D93C00001D3DF2
:104280000080243D0060043D00C0C53C0000903C1F
:1042900000C0933C0080AE3C00C0C03C0080B43CF9
:1042A0000000253C0000F0BB0080E9BC00C046BD1A
:1042B000002079BD00F080BD002051BD002008BD68
:1042C00000802FBC0080293C00C0AA3C0040C03CBC
:1042D00000C0913C0000BA3B000016BC0000BDBC11
:1042E00000A00DBD000035BD00003FBD006040BD19
:1042F000006031BD006010BD00C0CEBC000070BCCD
:10430000000094BB0000BC3B0080663C0040A93C20
:104310000040D63C00C0023D00000B3D0060183D4F
:1043200000A0183D0040153D00A01E3D0000303D9E
:104330000060583D0070893D0050AF3D0090BC3D8D
:1043400000E09D3D0000383D0000E9BB008068BDF5
:1043500000A0C6BD00E0E2BD0020CCBD000081BDD4
:10436000008080BC00C0BD3C0020533D0060753D16
:1043700000005A3D00A01B3D0000D93C00C0AF3CEE
:104380000080AB3C0080DB3C0040D73C00808D3C93
:10439000000004BB0080F7BC002060BD00408CBD65
:1043A00000E081BD00003FBD00809DBC0000CC3B13
:1043B0000040CD3C0020023D0040BF3C0000CB3B14
:1043C00000C082BC00C006BD00C038BD00A045BD15
:1043D000002042BD00C02BBD000012BD0000F8BC93
:1043E0000040DCBC0080BCBC008097BC00004FBC1F
:1043F0000000ADBB0000E83A0000193C0080793CA9
:104400000080AC3C0000D23C0040E63C0080F63C22
:104410000040073D0060173D0060353D00C0643D31
:104420000060963D0000C13D0070DE3D0090C33D40
:104430000080653D00805DBC0080B0BD00F80DBE11
:1044400000381ABE0000F6BD000073BD0000883CB5
:1044500000A0923D0070C93D0090B63D0080693DCE
:104460000000983C0000D4BB008059BC0000E9BBB0
:104470000000293C0040943C00802B3C00800FBC95
:1044800000C00EBD00605EBD00A06ABD00C025BDBD
:1044900000806BBC0040933C00C01A3D00C01C3D36
:1044A0000080BC3C0000ADBB006017BD00C07ABD01
:1044B00000E088BD00007BBD00C034BD0000C9BC69
:1044C000000045BC0000F6BB008029BC008087BC12
:1044D0000080C4BC00C0C0BC000095BC0000F9BB9B
:1044E0000000893B0000653C0080863C0080753CF4
:1044F0000000433C0000453C00806B3C0000BD3C9C
:104500000000133D00A04C3D00808A3D00B0AB3D53
:104510000040D23D00F0E13D0050CB3D0000773D32
:10452000000062BB0020ABBD006010BE002024BEB6
:10453000006001BE00C061BD0040E33C00E0B73D4B
:104540000070DE3D0060B73D00C0213D00009ABB19
:104550000000F6BC0040E3BC008011BC00006F3CD2
:104560000080D33C0000703C008012BC00000ABDFB
:1045700000E047BD00A03ABD00C0DDBC000062BB4A
:104580000080683C0080AD3C0000333C0000F4BB80
:104590000000C5BC00C012BD00E027BD00C01CBDAE
:1045A0000080E8BC0080A3BC000053BC00803BBC82
:1045B000008068BC0000A4BC0040CDBC00C0D4BCDE
:1045C0000040B7BC00804ABC000022BB0000C13BD9
:1045D0000000423C0000243C00800D3C0000053CF3
:1045E00000007F3C00C0D73C00600C3D00E0353D42
:1045F00000605C3D0080853D0010993D0060B63D47
:1046000000A0CC3D00E0B13D00A0323D0000F0BC78
:104610000070DABD00801ABE00D811BE0020A7BD10
:10462000000028BA0040903D00C0C63D0060A33D98
:1046300000000A3D008066BC00C00DBD0000D3BC78
:104640000000403B00C0CD3C0020053D0000863C02
:10465000000009BC0080EABC000000BD0040B1BC05
:104660000000B4BB0000C73B0000FB3B0000D0B91A
:10467000000028BC000050BC000080BC00805CBC76
:10468000008074BC0000B5BC0000EFBC0040FBBC67
:1046900000C0CCBC0080ABBC008058BC000041BC5A
:1046A00000805CBC008078BC00806CBC00803FBC9B
:1046B0000000B2BB0000443B0000AE3B0080033C66
:1046C0000000043C00802F3C0080583C0080B23C3D
:1046D0000040EE3C00A0103D0080243D00604D3DB8
:1046E0000080743D0040983D0070C43D0000D03D06
:1046F0000020943D00800E3C00F0A3BD003014BEAD
:1047000000D81CBE0090D6BD0040C0BC0060413D3A
:104710000070A93D0090873D0040D03C00007EBC69
:104720000040D7BC00803FBC00C0913C0000073D6A
:104730000040D53C00006C3B00C0B9BC00A000BDEF
:104740000000BCBC00009FBB0000A53B00009E3BDE
:10475000000024BC0080BABC0040CFBC00006EBC8E
:10476000000038BA0000E83A0000D6BB0000C9BC1F
:1047700000401EBD006032BD000008BD00C098BCF6
:10478000000009BC008002BC008057BC00008EBC49
:10479000000073BC008000BC000038BA00009C3BE5
:1047A0000000BD3B0000A33B00000A3B0000C33BF0
:1047B00000802E3C0080903C0000D83C00E0183D7A
:1047C00000003F3D0000643D00607A3D00308C3DBC
:1047D00000C0AA3D0090C33D0040923D0000433C14
:1047E00000C095BD00D009BE006814BE0070C4BDF5
:1047F000004093BC00E0473D00C0953D0040433D74
:104800000000EA3B00C0CCBC0040BFBC000018BAAE
:104810000040E33C00A0003D0080563C000053BC3B
:104820000080E7BC0000C5BC0000E7BB0000F93B0E
:104830000000F03B0000CCBB0000C2BC0040E3BC69
:104840000080B2BC0000C5BB00009C3B0000383BB0
:10485000000042BC0000F0BC008019BD00801EBDFD
:1048600000C0C8BC00802FBC000070BA0000B6BBFE
:1048700000802FBC008049BC0000DABB000018BAE1
:104880000000903B0000D03B00802B3C00006F3CC0
:1048900000009D3C0000AB3C0080C13C0000D13CCE
:1048A0000000F03C00C0283D00805C3D0010863DCB
:1048B0000040983D0010A03D0020AE3D0030AD3DD1
:1048C00000205F3D0000A5BB00E0A4BD000004BEC9
:1048D00000B803BE0020A1BD000023BC0020243D81
:1048E00000404E3D0080C43C0000F9BB0040B0BC1D
:1048F000000041BC00800C3C00C0A83C0000613CB2
:104900000000CCBB00C0A1BC0000AEBC00801EBC3F
:104910000000AC3A0000983A008012BC0080B2BCA3
:1049200000C0E4BC0080A5BC008010BC0000E83AD8
:104930000000C43A0000B8BB008097BC0040E3BC54
:1049400000C0E4BC0000CCBC004099BC008056BC58
:104950000000C5BB0000A5BB0000B2BB0000EEBB61
:1049600000009EBB000096BB000034BB0000043B6F
:104970000000363C0000973C00C0A93C00C0993CB8
:1049800000009F3C00C0C83C00A00C3D00E04C3D36
:104990000080833D0080973D00409D3D0020A33D69
:1049A0000000B63D00D0B63D00A0313D0080E1BC26
:1049B00000E0E0BD00E014BE0050FABD00605BBD49
:1049C00000803A3C00203D3D0040043D000062BBB9
:1049D0000040DEBC0040B7BC0000E0BA00C08B3C29
:1049E0000000983C000080BA008088BC0040A8BC51
:1049F0000000C9BB0000383B0000A13B000074BCB4
:104A0000004007BD00400EBD00C0C0BC000070BB30
:104A10000000043C0000D83B000062BB000046BC24
:104A2000004098BC0000A5BC00409ABC008097BC28
:104A30000080ACBC008090BC00001ABC000074BBBD
:104A400000007CBB0000A9BB008003BC0000E1BBF0
:104A500000001ABB00000A3C00408C3C00C0A93C8E
:104A60000000AC3C00C0A83C0000C53C0080FF3CFE
:104A70000080343D00206A3D00208B3D0000983DC1
:104A800000F0A33D0020B03D00F0C53D0070953D15
:104A900000801D3C00D09EBD00600EBE00E80EBE32
:104AA00000C0ACBD000052BC0080FD3C00C0113D08
:104AB0000000F93B00C08CBC00C0A9BC0000CEBB0C
:104AC0000000293C0080303C000062BB0040A2BCDA
:104AD00000409BBC00004EBB0000F93B0000BF3B08
:104AE000000026BC0040E3BC00C00ABD0040C7BCBB
:104AF0000000E7BB0000D83A0000003B0000B6BB56
:104B0000000022BC000018BC000033BC00806BBC5D
:104B10000040A7BC00C0C5BC00808DBC0000C3BB6A
:104B2000000000B9000087BB000023BC000034BCBB
:104B3000000085BB0000A13B00800F3C00802D3CA5
:104B400000804A3C0080583C0040823C0080A53CEC
:104B50000040FB3C0060233D00C04E3D0020813DF5
:104B60000060983D0070A73D00C0B33D00A0D33D5C
:104B70000000CE3D00A02D3D002045BD008803BEB5
:104B8000001014BE00B0CDBD008000BD00C0923C3E
:104B90000080073D00802B3C000070BC0080A5BC5D
:104BA0000000B0BB00801A3C0000E73B0000EEBBF9
:104BB0000080CABC0080C3BC000017BC0000BD3B25
:104BC0000000163B00803BBC0040EEBC00A005BDD1
:104BD0000000B6BC0000F8BB000078BB0000F9BBC9
:104BE000000055BC00803FBC0000C5BB0000D4BB2A
:104BF00000006EBC0080C3BC0080C4BC000060BC70
:104C000000009CBA00000A3B000006BC0000A4BCE7
:104C100000C0B9BC008038BC0000A33B0080653CEC
:104C20000080793C0000353C0080293C0080953CA8
:104C30000040E43C00C00A3D00C01C3D0060393D1E
:104C40000040783D0070973D0030A83D0010B53D14
:104C50000000D23D00D0F63D00109E3D000031BC6A
:104C60000020E3BD002018BE0020E8BD006027BD85
:104C700000804D3C00C0FC3C00800F3C008069BCC3
:104C80000080B4BC000098BB00804C3C00800E3C0F
:104C90000000EABB0080D2BC0040D6BC00804DBC06
:104CA0000000B0390000ECBB00C09FBC000025BD77
:104CB00000E027BD0000B6BC0000A9BB000034BB6B
:104CC000000027BC0040D7BC0080D9BC008076BC67
:104CD000000074BB00001ABC0040A9BC0000ACBCC2
:104CE0000000DDBB0000F03B0000D83B00800BBCA7
:104CF0000080ABBC0040AFBC0000F9BB0000F43B3F
:104D00000000453C00006F3C00802F3C0080783C58
:104D10000000BA3C0020013D00C0193D00E01B3DF1
:104D20000020203D00C04E3D00A0883D00C0B13DA8
:104D30000040CE3D0050E23D00B8013E0010AA3DCB
:104D400000805ABC0090EDBD00901ABE0080D9BD15
:104D50000000F6BC00009C3C0000E83C0000063C63
:104D6000000007BC000037BC0000AC3A0000293C42
:104D70000000403B004083BC0000E3BC00C098BC86
:104D8000000074BB000080380040A0BC00801DBD46
:104D900000205CBD00202BBD00806CBC000085BBEA
:104DA000000023BC008087BC00C08CBC00804BBCD2
:104DB00000006DBC004085BC0080CCBC0000C9BCBC
:104DC000000027BC0000943B0080303C000038BA53
:104DD00000C08ABC004098BC00804BBC000080BB77
:104DE00000000E3B0000263B0000CE3B00803D3C17
:104DF0000000A73C0080E03C0080073D00400F3DE4
:104E00000080333D00405A3D0060833D0030913DBD
:104E100000E0A23D00D0BF3D00C0FB3D0060E33D8F
:104E20000000213D00E099BD004011BE0090F8BD9A
:104E300000A05BBD000040390080663C0000BC3A29
:104E4000000050BC00801BBC0000803B0000063C02
:104E50000000F8BA0080A3BC0040EDBC00C081BCDB
:104E60000000BCBA0000F83A000047BC00200DBDAD
:104E7000008046BD00A02EBD00C0CFBC000074BCA9
:104E8000004091BC00C09FBC000074BC008000BC0E
:104E90000000F0BB004099BC000008BD008011BDBF
:104EA00000C0C7BC0000C1BB00800B3C00009A3BA7
:104EB0000000A9BB000045BC0000D2BB00000E3BB7
:104EC0000000A73B0000803A0000ACBA0000A73BFE
:104ED0000000A63C0040FA3C0000F03C0000D33C3F
:104EE00000C0ED3C0000263D0060633D00B0893D00
:104EF0000010953D0060A53D0060D23D0020093EB8
:104F00000020C53D0000F6BB00F0E3BD00D00DBEA3
:104F100000B0B2BD004092BC0000D83B0000123B84
:104F2000000033BC0000BDBB0000333C00C0B13CFE
:104F30000000183C008076BC004004BD0000CCBCE2
:104F4000008003BC0000C43A0000CBBB0080FFBC63
:104F5000006027BD00402CBD0040FABC00C099BCD9
:104F60000000B5BC00C0D7BC00809DBC0000ADBB3C
:104F7000000038BA004083BC0040FBBC002020BDCC
:104F80000040FDBC008048BC0000003B0000AB3B83
:104F9000000000BB0000FDBB000094BB0000003B14
:104FA0000000303B0000183A00009CBA0000C53BEE
:104FB0000040A33C0040F53C0040DF3C0040AF3CDB
:104FC0000040A73C0040D03C00201C3D00A0493DD3
:104FD00000407E3D00B0933D00B0B83D00E0F33DA1
:104FE00000480A3E00A0923D00C04EBD001800BE21
:104FF0000030E2BD000044BD000060BA000085BB87
:1050000000804BBC00008BBB00C0983C00400A3DB8
:105010000080BD3C0000F8BA00C0A2BC00C0AEBC1D
:105020000000FFBB0000E0BA0000ECBB00C09FBC6A
:1050300000C016BD006014BD0040EBBC00009FBC6A
:1050400000007CBC0000B5BC0000CBBC000054BC20
:105050000000DDBB00803DBC0000DBBC00C011BD1A
:1050600000600DBD004003BD0000ACBC00800CBC66
:105070000000E3BB0000ECBB00801CBC00009ABB3E
:105080000000CC3A0000B0B9000040B90000A13BDC
:1050900000007D3C00C0E63C00E00C3D00200C3DE3
:1050A0000080EF3C0000EA3C00800F3D0000293DFD
:1050B0000060443D0040613D00008D3D0010BC3D5E
:1050C0000060013E0060FF3D0020053D0040B2BD94
:1050D00000E0FCBD00D098BD00005EBC0000403A7E
:1050E000000096BC0080A5BC0000263B0040E53CCB
:1050F0000060113D0000963C000078BB008069BC58
:105100000000FBBB0000123B0000BFBB0080C4BC22
:1051100000A005BD006013BD0000F6BC0000B3BCDC
:10512000008087BC004092BC00C0AEBC004082BC86
:10513000008048BC008095BC00C0E6BC00C012BD29
:10514000004013BD006009BD0000FFBC00008EBC24
:10515000000009BC000022BC000036BC00800BBC73
:10516000000052BB0000523B00000E3B0000943B8D
:105170000000413C0040CD3C00001D3D00C0343DDE
:1051800000A0363D00002D3D00A0363D00E04B3D27
:1051900000A0543D00C0603D00A07D3D0050AB3DEF
:1051A0000040F53D00F0EE3D0000E03C0080AEBD6B
:1051B0000090F0BD007086BD000035BC000080BAD4
:1051C00000C0A0BC00008EBC0000CE3B0040E43C10
:1051D0000080E23C0080033C00802BBC00801CBCB3
:1051E0000000883A00009A3B000006BC0080E7BC43
:1051F00000C006BD006009BD000013BD008011BDE8
:105200000000E2BC0040B2BC00006FBC0000FDBB6F
:10521000000006BC00808DBC0080DBBC0080F8BCB8
:105220000000E3BC0040F5BC006009BD0040DDBCEF
:1052300000006DBC00804DBC00C084BC00807BBC05
:10524000008030BC000046BB0000ACBA0000443B0C
:1052500000805A3C0080BD3C0000123D0000293D0A
:1052600000A02D3D00C03A3D0000593D00E0693DE1
:105270000020763D0000613D0000703D0070953DCE
:1052800000A0D03D0040F93D0050823D004043BDAC
:105290000090E1BD00C0AABD0080C4BC000074BB8A
:1052A000004099BC00C0CFBC000098BA0040D53C7B
:1052B0000040ED3C0000443C0000F4BB000029BC71
:1052C000000000B90000963B000040BB00807BBCA2
:1052D00000C0B6BC0040CFBC0040EEBC00C01DBD4D
:1052E000000000BD008096BC00800EBC000018BA13
:1052F000000008BB000050BC00C0D4BC0000F8BCDB
:1053000000C0BFBC0000BCBC0040DDBC0040A8BC6D
:10531000008021BC00007CBB000046BC000088BCB3
:1053200000806CBC000009BC00008FBB00000ABB01
:105330000000123B0080763C0080E03C00E00F3D26
:105340000040133D0040193D00E0483D00C07E3D57
:1053500000808A3D0020833D0020813D00A0943DD7
:1053600000B0BA3D00C0E43D00C0B73D0000F6BB50
:1053700000D0B8BD00E0BDBD000029BD000053BC99
:105380000080ADBC00C007BD00803EBC00809C3CDE
:105390000080EF3C00008D3C0000343B000028BA48
:1053A00000009F3B0000153C0000D8BA000032BC52
:1053B000008080BC008058BC000074BC0000F0BCC1
:1053C000004024BD0000E3BC008065BC000000007C
:1053D0000000D83A0000A3BB004093BC00009FBC73
:1053E00000C082BC0040A2BC0080F7BC00C0EABC88
:1053F000000045BC0000403A008021BC00C0BEBC9B
:1054000000008FBC0000CCBB000096BB000022BC9B
:10541000000026BC000040B90000A43C00C0E63CEF
:1054200000C0E43C0040E53C0080203D00805C3D45
:1054300000C0833D00A0713D0060623D00F0803DF2
:105440000070A63D0080CA3D00D0D63D00405A3DC8
:1054500000400FBD0050A2BD008073BD0000E1BC44
:10546000004091BC006002BD0000E1BC000030BB08
:1054700000C0823C00006E3C00004A3B000090BA35
:105480000000563B00801E3C0000563B000006BC5E
:1054900000805DBC00804EBC00C083BC0080F0BCBE
:1054A00000E029BD00C003BD008075BC000015BC34
:1054B0000000E9BB00803CBC0040A1BC00C0B9BCFE
:1054C00000809CBC00008FBC0040A7BC0080CABC10
:1054D00000008FBC000081BB00009CBB00806ABC48
:1054E000004092BC00005EBC00801ABC000025BCDD
:1054F00000801FBC000060BA00804C3C0000AB3C48
:105500000000B63C0000A43C00C0B83C00A02A3D0E
:1055100000005A3D0060633D00C0603D00E0723D08
:1055200000E0953D0080BB3D00E0D73D0010DE3D32
:1055300000A0323D002041BD00709CBD00A039BDDF
:1055400000809DBC00C0C8BC00401EBD00C0E5BCC2
:10555000000080B90000233C00004E3B000000002A
:10556000000070BA0000463B0000F23B00005A3BCE
:1055700000800DBC000061BC008002BC00C082BC89
:10558000006013BD008042BD008012BD0000AEBCB3
:10559000008074BC004084BC0040A2BC0080C2BC3F
:1055A00000C091BC00005FBC008067BC00009EBCD6
:1055B0000040B7BC000014BC00004039000032BC01
:1055C0000080B5BC00C09ABC000027BC000017BC1E
:1055D00000805BBC008010BC0000B03B00809C3CA5
:1055E0000080D33C0000C43C0000B63C0000E23C1C
:1055F0000080383D00205B3D00A03D3D0060443D03
:1056000000A06E3D00009A3D0040BB3D00E0D13D52
:105610000030D53D00C03A3D006010BD008083BD24
:1056200000803BBD0080DABC00C0F5BC00201BBD83
:105630000080F1BC008002BC0000B43A0000ACBAAB
:105640000000BC3A0000AC3A0000223B0000D03B16
:105650000000463B0000CBBB00800EBC008000BCBD
:1056600000C09BBC00400BBD00A03ABD008019BD2E
:105670000040DEBC00C0DBBC00C0DCBC0000D3BC12
:105680000000C3BC00C083BC008010BC008010BC04
:10569000000027BC000053BC000087BB0000893B12
:1056A000000009BC00809FBC00C093BC00802ABCE5
:1056B00000801FBC000035BC0000A5BB0000F43B0F
:1056C00000008E3C0040B03C00C0A03C0080C33CC9
:1056D00000C0FC3C00601C3D00E0263D00600C3D2D
:1056E0000000073D0040343D00C07E3D00409B3D32
:1056F00000B0B63D00C0D33D00D0AD3D00C08A3CF7
:1057000000E03DBD00805DBD00A010BD0040F3BCC9
:1057100000A027BD00C04EBD00C01CBD00004FBC96
:105720000000C9BB0000C7BB00801FBC00001ABC42
:105730000000F03900804B3C0000243C0000043B9A
:10574000000044BB008001BC008088BC00E001BDBB
:10575000004004BD00E001BD0000FEBC0000F1BC43
:10576000004000BD0080EFBC0040BFBC000061BC39
:105770000000B8BB0000DABB0000CEBB0000043B59
:105780000000073C0000833B00805BBC0080A6BC9F
:1057900000C08ABC000055BC00802FBC000006BCC5
:1057A0000000A1BB00009F3B0000273C0040893C5B
:1057B0000000B63C00C0DE3C00C0033D00C0253DFB
:1057C0000080153D0040033D00E0233D00805A3D30
:1057D00000B0933D00C0A83D00D0BF3D00D0DA3DF1
:1057E0000080A53D00007E3C00A026BD000044BD19
:1057F00000E013BD000013BD002041BD006072BD7C
:10580000000043BD0040FBBC00409ABC00C084BC0B
:1058100000807BBC00803FBC0000403A0000803C20
:105820000080B43C0080853C0000F43B0000D4BA0A
:1058300000007CBB0000A5BC0000E2BC00E00BBD8A
:10584000000022BD006014BD00C011BD008012BD6B
:10585000004006BD0040B8BC000044BC00000ABBCC
:10586000000080380000B0B90000683B000060BA5A
:1058700000800EBC000035BC00804DBC008068BCC0
:1058800000802BBC0000F2BB0000C4BA0000223B29
:105890000080203C00809F3C00C0E43C00C0DC3C19
:1058A0000000D43C0040CE3C0040D73C0040F33CDC
:1058B00000002C3D0080513D00A0693D0060833D0B
:1058C00000A0953D0050B53D0040C53D00207E3D07
:1058D0000080693C00804DBC00805CBC008087BCBF
:1058E00000C0CEBC00202ABD00204DBD00A03DBDA3
:1058F00000A01BBD0040FBBC0080D2BC0080D1BC1E
:1059000000C098BC00004FBC000080390000443C3F
:105910000080593C00806B3C00802A3C0000743BB6
:10592000000083BB0000F4BB000040BC00C0A9BC69
:105930000040E3BC00C0F9BC002006BD0040E6BC4E
:1059400000009CBC000015BC00801BBC000031BCEA
:10595000000056BC00806BBC000081BC00C081BC54
:1059600000408BBC00007FBC00C08CBC00C083BC6E
:10597000000064BC000004BC000088BA0000CE3BFC
:1059800000800D3C0000183C0000F83B0000333C58
:1059900000009E3C0040E33C0040FB3C0060083DB2
:1059A00000A01F3D0000433D00A0673D00F0813D89
:1059B00000508D3D00309C3D0050973D00E0533D30
:1059C00000C0EA3C00809E3C00802B3C0000D4BA22
:1059D00000C084BC002002BD00C019BD00E023BD92
:1059E00000402DBD008033BD002033BD00A036BD7A
:1059F00000E027BD00A01BBD00C0EBBC0040A8BC60
:105A0000000055BC000026BC00009CBB0000D03943
:105A10000000A43A0000AC3A0000B4BB0000E9BBAF
:105A20000000CEBB0000CCBB000018BC00802BBC2B
:105A3000000035BC008038BC00804ABC00805DBCE2
:105A4000000028BC00801ABC000040BC008059BC8B
:105A5000000050BC00803DBC00800EBC00802ABC11
:105A600000803ABC000006BC0000CBBB000028BB95
:105A7000000090390000873B0080303C00C0993C1A
:105A800000C0BE3C0080EA3C0040193D0060323D51
:105A900000603E3D00C0563D0080653D0050883DA1
:105AA0000070983D00E09D3D0040643D0040E43CB6
:105AB0000000553C0080383C0000833B000074BC73
:105AC0000040EEBC004021BD00C02FBD00E031BD54
:105AD00000C038BD006031BD00A032BD00002DBD4A
:105AE00000E01BBD0080E9BC00C0B1BC00804BBC25
:105AF0000000AEBB0000703B0000E13B00008B3BB0
:105B000000000E3B0000463B0000B43A000080B8A5
:105B10000000403A0000883A000044BB00000ABC84
:105B200000800DBC0000C7BB000096BB00800BBC12
:105B3000000046BC008065BC00802CBC00801DBC01
:105B4000008029BC008069BC000072BC000065BCFC
:105B5000008047BC0000FDBB00009ABB000040BBBA
:105B60000000403B00801C3C0080763C00C0A93C0B
:105B70000040AF3C0080C93C0040DF3C0040FA3CA4
:105B80000080063D00001E3D00E0323D0000443D27
:105B90000040593D00207D3D00C0813D00C0423D98
:105BA0000040EB3C0040A73C0080863C00009A3B54
:105BB0000000BDBB00008EBC0080D3BC0080F9BCDF
:105BC000008012BD00601CBD004025BD00602EBDE0
:105BD00000802FBD00800BBD00C0CEBC00C08ABCC1
:105BE000000027BC000074BB000080390000743B3B
:105BF0000000B83B0000BF3B0000443B0000F0B990
:105C0000000038BA0000503A0000BC3A000040BA28
:105C1000000008BB000012BB000081BB00009CBB61
:105C20000000F2BB008057BC000096BC00C099BCCD
:105C300000C093BC00009CBC00409BBC0080AEBC7C
:105C40000080AEBC004089BC00800DBC000000BBE1
:105C50000000263B0000743B0000F93B00802E3C16
:105C60000000603C00006F3C0080753C0080753C8B
:105C70000000953C0000C43C0000F63C0060143D70
:105C80000020333D00805D3D00C08A3D00B0963D60
:105C90000040773D0000193D0000E73C00C0C73CD4
:105CA00000C0993C0000AB3B008011BC00C098BC18
:105CB0000040DCBC0080F7BC008003BD00800FBD4D
:105CC00000001DBD00401ABD000008BD0040DEBC44
:105CD00000C0BFBC000080BC000004BC0000F8BADB
:105CE000000000B90000943B0000B23B0000D23B32
:105CF0000000833B0000F039000000000000403944
:105D0000000028BB000074BB008000BC008038BCD1
:105D100000805ABC00804EBC008069BC00008FBC73
:105D20000000B3BC0080AEBC00C0B0BC00C08CBCE6
:105D3000008085BC004094BC000087BC00804ABC49
:105D400000800CBC0000F4BB0000D6BB0000ECBB24
:105D5000000040BB000012BB000040B90000703AD8
:105D60000000623B00800D3C00808D3C0040C53C43
:105D700000200D3D0060263D00C03F3D00A0673D76
:105D800000108A3D00509C3D0070843D00E0293D9C
:105D900000C0E43C0000CA3C0000AC3C0000333CC6
:105DA0000000F0BA00806CBC00C0A8BC0080D0BC71
:105DB0000040FABC000007BD004013BD00801ABDC2
:105DC00000A00DBD0080E8BC0080ACBC008029BCF8
:105DD00000008BBB0000503A0000803B0000EC3B11
:105DE00000801E3C0080103C0000903B0000783B8F
:105DF0000000223B0000813B0000E83A00000ABBA3
:105E00000000FDBB00801ABC008047BC00802CBC99
:105E100000801DBC00806CBC000095BC00809DBC57
:105E20000040A1BC00C0A9BC0000BCBC0040CDBC6F
