:020000042000DA
:04035C0000787FBFE7
:1003600000D0DDBE0090B13D00A0E63D00C0E03D04
:1003700000F0D83D0090CF3D0010CA3D00A0C63D22
:100380000050C23D0030C03D0060BD3D0020BA3D80
:100390000050B73D0090B33D0010AF3D0050AD3D63
:1003A0000010AA3D0060A73D0020A53D00F0A33D40
:1003B00000E0A03D00F09C3D00909A3D00D0983DAB
:1003C0000020963D00B0933D0020923D00B08F3D4F
:1003D00000508D3D00508B3D00E0883D0000833D86
:1003E00000D0823D00B0803D00607C3D00C07A3D81
:1003F00000C0763D0080703D00606D3D00C0673DEF
:1004000000C0643D0080613D00005D3D00A0583D9E
:1004100000C0563D0000563D00604F3D00604C3D21
:1004200000A0483D0000463D00C0423D00A0413DC7
:1004300000C03B3D00003B3D0020363D0000353D07
:100440000040303D00E02E3D0080293D0020263D4B
:100450000040243D00E01F3D00401D3D00601C3D6C
:1004600000A0183D00E0173D0020153D0000123DA2
:1004700000800E3D00C00B3D00400B3D0020093DBB
:100480000040063D00A0043D0000003D00C0FB3CD4
:100490000000F83C0040F33C00C0ED3C0000EF3CA5
:1004A0000080EA3C0040E43C0000E13C0000DB3C12
:1004B0000040D63C0000D23C00604DBD0050B5BDB0
:1004C00000F0A1BD002085BD002066BD00C03BBD81
:1004D00000400EBD0080D0BC008068BC000098BB0E
:1004E0000080033C0040B13C00E00C3D00203D3D5D
:1004F0000040653D0070863D0090983D00B0A93DEC
:1005000000B0AD3D00C0B03D0000AE3D0010AC3DC0
:100510000010AF3D0050AD3D00B0A53D00309C3D0A
:1005200000009E3D0010AA3D0030BA3D00C0CE3D07
:100530000020DD3D0000EE3D00E0FA3D00A8053E54
:1005400000C00C3E00D8133E00C0163E00C0163E50
:1005500000F0173E00781A3E00081B3E00F81E3ED1
:1005600000901F3E00D81D3E00281D3E00801D3E0D
:1005700000181C3E00B01A3E00281B3E0048193EE1
:1005800000B0193E00A0193E0090193E00A8173E89
:1005900000D0153E00C8133E0050123E0030123EFF
:1005A0000060123E00900E3E00280A3E0040073ECA
:1005B0000070023E0080013E0018023E0030023E04
:1005C00000B8033E0068073E0078073E0058093E29
:1005D00000680A3E00680A3E00A8073E0030063E5A
:1005E0000078053E00E8003E0050FA3D0060F23D14
:1005F00000D0E73D00C0E03D0080DB3D0030D53D50
:1006000000D0D23D00B0CD3D0030CB3D0000CC3D10
:100610000050CF3D0000D83D0090DE3D0010E03D91
:100620000090E03D0040DB3D0080D53D00A0CA3D8C
:100630000010C23D0000B83D0000AE3D0040A53DA9
:1006400000009E3D00709A3D00E0953D0090933D76
:1006500000A0973D00A09B3D00509E3D00409B3D6B
:100660000030993D00709C3D00D0A33D00A0A83D06
:1006700000D0A73D00D0A93D00D0A33D00A0A43DDF
:1006800000A0A63D00B0AF3D00C0AC3D0080AA3D3B
:1006900000E09F3D0070973D00A08C3D0000893D2B
:1006A00000E0843D0000853D00207E3D00207A3D35
:1006B0000040733D0040733D00C0733D0020723D1B
:1006C00000C0683D0020673D00C0613D00405E3DC8
:1006D00000C0563D00A0503D00E04B3D0080473D2E
:1006E0000060493D0060533D0080553D0040553D50
:1006F0000080513D0020493D00803E3D0000303DDE
:1007000000401E3D0000123D00C00B3D00C00E3DEC
:100710000080113D00000E3D00200D3D00A00F3D6A
:1007200000C0123D0020143D00400E3D0020063D5B
:100730000000FE3C00C0F33C00C0FA3C0080EA3CF4
:100740000040F43C00C0EB3C0040EC3C0040DC3C92
:100750000000C43C0040C83C0000BB3C0080A63CFC
:1007600000C0A03C00C08A3C00007F3C00004F3C21
:100770000000473C0000173C0000E33B0000B63B94
:100780000000523B0000883A0000703A0000123B23
:100790000000523B0000163C0080593C00C09B3CCE
:1007A0000040AF3C00C0D73C0040EC3C0060053D41
:1007B0000000133D0060183D0040133D0020083D3F
:1007C0000040E63C0040B23C00808D3C0000723CA2
:1007D00000005E3C0080683C0000613C0080753C8D
:1007E0000080853C0040943C0080AC3C00C0BF3C95
:1007F00000C0D63C00C0EB3C0080003D0040ED3C1A
:100800000040F43C00C0CF3C0040C73C00C0AF3CBF
:100810000080A63C0040933C00C0823C0000553C58
:1008200000803C3C00801E3C0000073C00801C3CDB
:1008300000801E3C0000233C00802E3C0000313C28
:100840000080473C0000443C0080683C0000443C81
:100850000000363C00009F3B00009C3A0000A5BB16
:100860000000D2BB0000D2BB000090BB0000ADBBBB
:10087000000094BB000080BB000012BB00001EBB48
:10088000000038BA0000123B0000623B0000443B0D
:1008900000005E3B00004A3B0000983A000064BB49
:1008A0000000CCBB00800BBC000035BC008080BCCD
:1008B00000808FBC000095BC00007FBC00801FBC86
:1008C00000002CBB0000343B0000C13B0080103C0A
:1008D0000000473C0080803C0040A93C0000BC3C3C
:1008E00000C0AE3C00009D3C0000883C00805B3CAA
:1008F0000000233C0080123C0000053C0080113CBD
:1009000000801D3C00802A3C0000363C00805A3CA0
:100910000080593C0080743C0040833C00008D3CCA
:100920000080753C0080813C0080683C0080673C12
:100930000000513C0000273C0000BD3B0000E03AB5
:100940000000CCBA000083BB00000ABB000050BA14
:10095000000040BA0000123B0000C93B00802A3C66
:100960000000413C0080393C00800C3C0080003C91
:1009700000009C3B0000623B0000563B0000BCBAFC
:100980000000EEBB00804CBC00009EBC0040C6BC1A
:100990000040F3BC008003BD00000FBD006014BD2B
:1009A00000600CBD008002BD0000E1BC0080BBBC4B
:1009B000008097BC00805CBC00802BBC00800CBC1D
:1009C000008003BC0000DDBB0000CCBB0000D2BB3C
:1009D0000000E5BB008030BC008059BC000064BC56
:1009E000008047BC00800FBC0000B8BB000081BB8A
:1009F000000012BB0000F0B9000090B90000CC3A32
:100A00000000123B0000703B0000C73B0000173C99
:100A10000000183C00802B3C0000253C00802B3C53
:100A20000080203C0080203C0080033C0000F63B1E
:100A30000000093C00803E3C00007F3C0080A43C5C
:100A400000C0B13C0040BF3C00C0C63C0000E83CD8
:100A50000040D63C0000C43C00C0893C0000513C32
:100A600000801B3C0000193C0000E13B00008F3B74
:100A70000000D83A00005EBB0000E9BB0000DFBB0D
:100A80000000DBBB0000DBBB0000CCBB00008DBB6B
:100A9000000090BB0000000000002C3B0000833BE6
:100AA00000009A3B0000183A0000F0BA00009FBB1B
:100AB0000000F2BB00801EBC00805BBC000095BC47
:100AC0000040B7BC0000D3BC0080D8BC00C0D6BC7E
:100AD0000040CEBC0080ABBC000097BC00C08CBC0A
:100AE000008059BC00803CBC00801EBC0000BCBB28
:100AF00000000EBB0000903A0000DA3B0000CC3B47
:100B00000000D43B0000B23B0000F83A0000F83A85
:100B10000000003B00004E3B0000683B0000083B2B
:100B20000000853B0000AE3B00800E3C0000333CE3
:100B30000000433C00802C3C0000193C0000273C96
:100B40000000503C0000533C0000443C0080213C2D
:100B50000000093C0000FD3B0080003C0000DF3B42
:100B600000009E3B0000D43B00800E3C0000153C82
:100B70000000153C0080213C0000293C0000253C81
:100B80000080393C0080493C0000293C0000FB3BD0
:100B90000000943B0000AC3A000016BB000098BB7C
:100BA0000000FFBB000027BC00004FBC00806ABCF7
:100BB000008074BC000080BC000063BC000071BCFD
:100BC00000803EBC00800DBC0000F9BB0000A9BB4A
:100BD0000000ABBB0000C3BB0000F4BB00802FBC17
:100BE00000804DBC00804BBC000042BC000060BCDB
:100BF000008075BC00C090BC00808EBC008076BCBC
:100C000000803ABC000024BC00801EBC008038BCC0
:100C100000802FBC0000FFBB00007CBB0000D0B9EF
:100C20000000083A0000503A0000CC3A0000F03AC8
:100C30000000703A0000F0B9000080BA000044BB28
:100C4000000044BB0000D8BA00002CBB00004ABB27
:100C500000009EBB000089BB000078BB000080B98B
:100C60000000BC3A0000223B0000223B0000963B03
:100C70000000B63B0000A13B0000853B0000163B96
:100C80000000E03A0000503A0000603A00000A3BE1
:100C90000000F03A0000D43A0000183A0000CC3AC4
:100CA00000008F3B0000DD3B0080103C0000513C09
:100CB0000080493C00004F3C0000373C00800B3C6A
:100CC0000000833B00009C3A0000283A00009C3A58
:100CD0000000303B00001A3B00001E3B00000000FB
:100CE000000000B9000040BA0000283B0000F03AC4
:100CF0000000000000000ABB0000C4BA00004ABBAC
:100D0000000056BB000062BB000046BB0000B2BB47
:100D10000000E7BB0000FFBB000046BC004085BCF4
:100D200000C0A7BC00C0C0BC0080BCBC0080BABC76
:100D30000080B2BC0080BABC0080C2BC0000B5BC60
:100D40000040A7BC000080BC00801EBC0000CBBBE4
:100D5000000034BB000008BA000000390000703AFF
:100D60000000F03A0000F0390000983A0000A43A80
:100D70000000BC3A0000A43A00002C3B00002C3BD1
:100D8000000040B9000000000000503A0000C43AE2
:100D900000003C3B00009C3B0000CE3B0000E33BDE
:100DA0000000EA3B0000F23B0000EA3B0000383B59
:100DB0000000E83A00000E3B0000BC3B0000283C6D
:100DC0000080593C00005F3C0040853C0040A13C55
:100DD0000040B63C0040BE3C0080C43C0080B43CB7
:100DE0000000AC3C00C09F3C00408B3C0040833C7A
:100DF0000000803C00006F3C0080393C0000043C57
:100E00000000A73B0000563B0000B43A000070BB56
:100E10000000DBBB008021BC000051BC000055BCC1
:100E200000806ABC008058BC00006EBC008038BCEA
:100E3000000009BC0000E3BB00009CBB0000BDBB80
:100E4000008000BC00802BBC000025BC000044BC1E
:100E5000000040BC00803CBC008039BC000040BCAD
:100E6000000072BC008097BC004093BC00809EBC18
:100E7000004098BC000090BC00808FBC00807BBC10
:100E8000008059BC000046BC00801CBC000015BCA2
:100E90000000C3BB000056BB000012BB0000383B83
:100EA0000080013C00802F3C00005E3C0000743C50
:100EB00000C0923C0000973C0040A23C0040A33C94
:100EC0000040A23C0000963C00007F3C0000643CD7
:100ED0000000263C0000E33B0000B63B0000803BE6
:100EE0000000F03A0000983B00008B3B00008B3B79
:100EF00000009C3B0000C53B0000A13B0000643BA0
:100F000000009F3B0000E93B0000E73B00801E3CE7
:100F10000000413C0000743C0080873C0040843C61
:100F20000080593C0000263C0000073C00008B3B41
:100F30000000A43A0000CC3A000000B9000038BA22
:100F40000000E03A0000D43A00001ABB0000AEBB3B
:100F50000000F6BB00000ABC000017BC008029BCE2
:100F6000000028BC00803EBC00802FBC00005EBC9E
:100F700000805ABC000081BC00005EBC008067BCE1
:100F8000008066BC000051BC000050BC008065BC05
:100F9000000086BC008086BC00C093BC00007DBC05
:100FA000008075BC000047BC000044BC00800DBC44
:100FB00000801CBC00801EBC000007BC0000EEBB13
:100FC00000009ABB00008BBB0000CC3A00004A3BFB
:100FD0000000FF3B00800C3C0000263C0000343C3D
:100FE0000080303C0000193C0080023C0080033C43
:100FF0000000FD3B00803E3C00804B3C0080783C84
:101000000000423C0000543C0080113C0000093CC0
:1010100000009E3B00009F3B0000AE3B0000A33B56
:101020000000F03B0000373C0000373C0000413C32
:101030000000543C00803F3C0000383C00803C3CB9
:101040000000503C00804B3C0000503C0000323C13
:101050000000173C0080203C0000CC3B0000E53B3A
:101060000000EA3B0000163C0000DF3B00801B3C18
:101070000000E13B0000C93B00003C3B0000D43ACB
:1010800000000000000080BB000034BB00009CBBDF
:10109000000012BB00004EBB000068BB0000D4BBC8
:1010A0000000CCBB00800EBC008049BC00803DBC71
:1010B000000045BC00805BBC000065BC00806CBCCF
:1010C00000008DBC008080BC00807BBC008065BCC3
:1010D00000C093BC00409ABC0040B6BC0040B0BC0D
:1010E00000009CBC000088BC000062BC008038BCD2
:1010F0000000BDBB000040BB0080023C00802C3CD7
:1011000000007E3C0000903C00C0BF3C0000D13C91
:101110000000D43C0040DF3C0000CC3C0080D83CC8
:1011200000C0AF3C0080C23C0080973C0040A03C27
:101130000080573C0000733C0000243C0000F03B62
:101140000000813B0000283A000040BB0000BFBB0C
:101150000000B2BB0000DBBB00008BBB0000C5BBC6
:10116000000080B8000088BA00001E3B0000CC3AA6
:101170000000833B0080023C0000353C0000533CF3
:101180000080483C00004F3C0000323C0000313CF5
:101190000000FF3B0080013C0000873B0000893BD2
:1011A0000000383B000028BA000008BB000092BBDA
:1011B0000000A5BB008003BC00800FBC000042BC47
:1011C000000060BC008075BC00C081BC00009CBCFD
:1011D00000C098BC00C091BC000064BC008021BC71
:1011E0000000DABB00000EBB0000383A0000F03A05
:1011F0000000F03A0000903A0000D8BA0000CCBAE3
:10120000000092BB0000B4BB000007BC000018BC8B
:10121000000035BC00801BBC000019BC0000FFBBF7
:101220000000C7BB000070BB000040B9000040BA1E
:10123000000008BA000080380000B43A0000A93B62
:101240000000043C0000323C0080303C0000333C95
:101250000000153C0000F03B0000AD3B0000983B57
:101260000000283B00008D3B0000AE3B0000C43A6C
:10127000000008BB000090BB0000F9BB00000BBCE5
:10128000000043BC000061BC008065BC00005FBC86
:10129000000061BC00C08CBC008080BC000044BC6D
:1012A00000800EBC000087BB000088BA00003C3BF9
:1012B0000000AC3A0000383B0000AD3B00000A3CA7
:1012C0000000333C00805B3C0000A43C0000C43CB8
:1012D00000C0D63C00C0D53C0040B73C0040A83C14
:1012E00000808F3C00806B3C00001A3C0080123C68
:1012F0000000E73B0000C53B00007C3B0000B43A27
:101300000000A43A000040390000BCBA000008BB4D
:10131000000030BB0000A5BB0000F0BB000032BCE9
:10132000000024BC00802BBC00800CBC00803CBCB6
:1013300000802BBC00804DBC008059BC008074BC78
:10134000008075BC000072BC00805BBC000035BC36
:101350000000E9BB00004ABB0000D4BA000028BA74
:10136000000060BA000000390000CC3A00008B3B5E
:1013700000009C3B00009E3B00003C3B0000CC3A40
:101380000000983A0000503A0000903A0000000037
:10139000000088BA000034BB0000B2BB000009BCEA
:1013A00000803FBC00804ABC008056BC000026BCC8
:1013B0000000D8BB00000EBB0000443B0000BF3B58
:1013C0000000143C00800F3C0000293C0080293CB8
:1013D00000802A3C0000533C00006E3C00008F3C23
:1013E0000040A03C00C0B03C0000C33C0000CC3C2E
:1013F0000000CC3C0000CA3C0040C13C0040B63C70
:101400000000BC3C0040A13C00008D3C0000863C3C
:1014100000408A3C00C08A3C00C0903C00C09B3C1D
:101420000080883C00806C3C0000233C0000FF3BB7
:101430000000943B00001E3B0000603A000028BA08
:101440000000383A000022BB000083BB000016BC3D
:1014500000805DBC00807BBC00808FBC00808DBCA8
:1014600000009EBC0040B0BC0040B6BC0080D0BCB8
:101470000080D8BC00C0DCBC00C0BEBC00C0B0BC9A
:1014800000409ABC00809FBC004084BC004084BCEB
:1014900000005EBC00006EBC000035BC0000D6BB86
:1014A000000000BB000038BA0000D0B9000040BA0C
:1014B000000098BA000046BB000096BB000080BB4D
:1014C00000000EBB000000000000563B0000BC3BCB
:1014D0000080123C0000133C00801A3C00801E3C3F
:1014E00000802A3C0000223C00804C3C0000633C11
:1014F0000040823C0040A23C0000AE3C0000B43CF6
:101500000080A53C0080AB3C0040A73C00809F3C95
:101510000040A33C0080953C00808D3C00408A3C0C
:1015200000008E3C00C0893C00809F3C0040AF3CE6
:1015300000C0BE3C0080963C00C09B3C0080803CCC
:1015400000806C3C0000473C0000353C00802E3C95
:101550000000A93B0000283B000008BB0000ABBB1B
:10156000000026BC00804ABC008085BC000098BCFE
:101570000040B9BC0000D9BC004003BD0080F7BCEE
:101580000040F2BC006002BD0080F0BC0080CBBC1B
:101590000040A1BC00008EBC000074BC004083BCB5
:1015A00000408ABC00007CBC000065BC008012BC0E
:1015B0000000B2BB0000BCBA0000803800005E3BF7
:1015C0000000D23B0000B83B0000BA3B0000C73B24
:1015D0000000B83B0000A13B0000923B0000983B9C
:1015E0000000B23B0000D23B0000F23B0000043C94
:1015F00000801D3C00804E3C00802D3C0080483C1B
:101600000000603C00C0843C00007D3C00008D3C3C
:101610000000A73C0040B63C0080C43C00C0CC3C6D
:101620000040C13C0080B33C0080AD3C00008D3CDC
:101630000080783C00803E3C00804A3C0000333C07
:101640000080123C0000C33B0000C73B0000D63BBB
:101650000000DF3B0000CB3B0000983B0000563B06
:101660000000853B0000873B0000343B0000263B28
:101670000000CC3A0000BC3A0000503A0000D8BA52
:101680000000F8BA00009CBB0000DDBB00801BBC62
:10169000000038BC00802BBC000038BC00800CBCB3
:1016A0000000DDBB0000EABB0000DDBB0000F4BBB6
:1016B0000000DBBB000007BC000006BC0000F0BB64
:1016C0000000E5BB000096BB000090BA000080B9A6
:1016D0000000983A0000263B00006C3B0000003BF5
:1016E000000070BA0000F0BA000000BB0000CCBAE5
:1016F0000000A4BA000030BB00007CBB000056BB59
:101700000000D4BA000018BA000070BA0000503AC5
:101710000000D43A0000F83A000038BA00001ABBC2
:101720000000F0B90000283B0000623B0000A13B34
:101730000000F43B00801F3C0000403C00804D3C1A
:101740000000443C0000413C0000553C0080683CE7
:1017500000806B3C0080593C00804C3C0000263CE3
:101760000000083C0000EA3B0000DD3B0000873B36
:1017700000009A3B0000A13B0000563B00000A3BE2
:101780000000D43A0000D43A0000303B0000523B45
:101790000000B43A0000083B00001A3B0000F0399A
:1017A000000040B9000080B800009C3A0000083AF0
:1017B0000000403A0000183A000038BA000040B972
:1017C000000098BA000028BB000012BB0000000017
:1017D0000000263B0000C93B0000D03B0000DA3B84
:1017E0000000A53B0000DB3B00009E3B0000B03B3F
:1017F00000009C3B0000DF3B0000A33B0000803961
:10180000000098BA00002CBB000096BB0000EEBBA5
:10181000000026BC008047BC00800FBC008003BCD9
:10182000000007BC000033BC00802FBC00801DBC42
:10183000000022BC000008BC0000C7BB00002CBB9D
:101840000000F0B90000C43A0000463B0000923BA3
:101850000000563B0000BC3B0000CB3B0000AD3B12
:1018600000009C3B0000B03B0000D83B0000DB3B8D
:101870000000EA3B0000EC3B00000B3C0080203CF9
:101880000000143C0000133C00803B3C0000363C50
:1018900000804A3C0000233C0000413C00803A3C70
:1018A0000000253C0000C13B0000813B0000183ACD
:1018B000000080B9000040BA000016BB00005EBB0B
:1018C000000078BB00001EBB000030BB000052BB14
:1018D000000081BB000068BB0000B4BA0000CC3A35
:1018E0000000DF3B0000413C00C0833C00C0913C55
:1018F00000C0993C00809F3C00C0A83C00809D3CFB
:1019000000C09A3C00808F3C00C0843C00805D3C5D
:101910000000413C0000073C00004E3B00008038C6
:10192000000096BB00802ABC00007FBC00009DBC6C
:101930000040BEBC00C0CEBC0040D5BC0080C3BCD3
:101940000000C3BC00C0A8BC004093BC000055BC54
:10195000008021BC000008BC0000C7BB00004ABBDF
:10196000000090B90000F0B900008039000080B894
:10197000000080380000F0B900001EBB000074BBFE
:10198000000056BB000040BB000092BB000094BBAF
:101990000000AEBB000098BB000096BB00009CBBE3
:1019A000000098BB000038BA0000343B0000BA3B8E
:1019B0000080033C0000E33B0080013C0000F03B62
:1019C0000000BA3B0000813B00008B3B00008B3BDA
:1019D00000008D3B0000B03B0000D03B0000F83B16
:1019E0000080003C0000143C00803C3C00806B3CCC
:1019F0000000643C0040833C00408C3C0000AB3C59
:101A000000C0A73C00C0A73C0000AB3C00C0B13CFC
:101A100000C0B93C0080CB3C0000C53C0000AD3CA0
:101A20000040A33C00005E3C00001A3C0000443B28
:101A3000000080B80000B8BB000017BC000063BC09
:101A4000000089BC00809EBC0080ACBC0040BEBCD5
:101A500000C0BDBC0040B1BC00C0A0BC008081BCC7
:101A600000804ABC00800CBC0000E9BB000062BBE7
:101A70000000C3BB00008FBB000098BB0000C7BBC9
:101A80000000F8BB0000E9BB0000C5BB0000CEBBF6
:101A9000000064BB000080BA0000B0B9000008BAC2
:101AA0000000183A0000E0BA000018BA0000F0394F
:101AB000000000B90000283B0000903B0000283BDC
:101AC0000000223B0000B039000040BA0000ACBA70
:101AD000000000B9000000000000BC3A0000943B88
:101AE0000000AB3B00801A3C0000463C0000353C47
:101AF00000803C3C00803A3C00804E3C0000443C6E
:101B000000803F3C00801B3C0080293C00001A3CC8
:101B10000080003C0000043C0080123C0080493CF6
:101B200000805C3C00806B3C00408B3C0040943C5F
:101B300000809C3C00C0B03C0000AE3C00809F3C5C
:101B400000009D3C00809E3C00C0913C00809F3C7A
:101B500000C08A3C00007F3C0000613C00803C3CAF
:101B60000000503C0000513C00005E3C0000153C71
:101B70000000813B0000833B0000833B0000443BAE
:101B80000000F0B9000070BB0000F9BB000009BC08
:101B900000802EBC008047BC000040BC00802FBCF1
:101BA000000062BC00408CBC0040BFBC0000D3BC45
:101BB0000040E3BC0000EABC004000BD00A000BD46
:101BC00000C0EBBC0040B1BC008079BC008059BCB7
:101BD00000803FBC000037BC008001BC00006CBB33
:101BE000000080B90000283B0000283A0000B03B0C
:101BF00000802B3C0000623C0080813C00C0923C95
:101C000000C09F3C0040993C00409B3C0000AC3C25
:101C10000000A63C0000AB3C00008D3C0040823C34
:101C200000804D3C0000383C00803A3C0080103C75
:101C30000000163C0000273C0000DA3B0000C93BD6
:101C40000000063C0000463C00C0823C00C0993CBD
:101C50000080953C0080AD3C0080CC3C00C0D63C70
:101C60000080D33C0080C13C00C0AF3C00806C3C95
:101C70000000223C0000BC3B00004A3B000080B951
:101C8000000078BB0000F0BB00001ABC0000F9BBEC
:101C90000000A5BB0000ACBA00004039000090393C
:101CA000000040390000643B0080023C00800E3C94
:101CB0000000343B00005ABB00802EBC008077BC83
:101CC000000096BC0040A9BC0000DBBC006005BD64
:101CD000006002BD0080E2BC0080C3BC00C0AFBC9D
:101CE00000C0A7BC00809EBC00C0AEBC00006EBCA3
:101CF0000000C1BB000090B90000D83A0000683B6A
:101D000000801A3C0080673C00009D3C0040B23CD3
:101D100000C0D43C0080CC3C0040A93C0000AC3C5E
:101D20000040A33C00C0913C0080853C00803F3CCB
:101D300000009E3B0000F8BA000026BB0000D8BAA5
:101D40000000D4BA0000DDBB0000EEBB0000C1BB48
:101D5000000070BB0000043B0000DB3B00801A3C2D
:101D60000000603C0080753C00009E3C0080AE3C62
:101D70000080A53C0040A03C00009E3C0000803C50
:101D800000801E3C0080303C00803C3C0000363C23
:101D90000000C93B0000F039000068BB000080BBB8
:101DA000000090B90000E53B0000EC3B0000623B06
:101DB0000000F03A0000343C00C09B3C0040943CE2
:101DC00000805D3C0000653C0000263C0000EE3BCE
:101DD0000000853B0000BCBA000036BC00C090BCCF
:101DE0000040A1BC0000A4BC00C0D6BC00800ABD5D
:101DF000000017BD00C011BD002005BD006001BD81
:101E000000C0FABC00C0D6BC00C0B8BC00807BBC1F
:101E10000000E7BB000038BB0000883A0000E13B4F
:101E20000000413C0000813C00C0823C00008F3C2F
:101E300000008D3C0000863C0000803C00008F3C90
:101E40000000743C0000073C0000BD3B0000D23B9A
:101E500000800C3C0000DB3B0000A13B0000BC3BD1
:101E60000000A53B0000D63B0000A53B0000DF3B87
:101E70000000BF3B0000A73B0000083A000060BA2A
:101E80000000E8BA0000283A00009C3A0000AC3A92
:101E900000005ABB0000FFBB000081BB0000B0B9CE
:101EA000000026BB008000BC0000EEBB0000D0B9E3
:101EB00000009C3A0000943B0000AD3B0000B63BA4
:101EC0000000DB3B0000743C0000CA3C0040B83C12
:101ED0000000973C0080AE3C0080AE3C00C0913CCE
:101EE0000000893C0000EE3B0000D8BA0000CEBBE9
:101EF00000001ABC000032BC008030BC008080BCF6
:101F000000C098BC00006DBC008049BC00C08ABC09
:101F100000007FBC008077BC00805DBC0000D4BBAB
:101F2000000070BA000078BB0000E5BB0000403B39
:101F30000000403C0000873C0000743C0080123CE4
:101F40000000093C00804D3C00807B3C00804E3C02
:101F50000000003B0000A4BA0000443B00008B3BA3
:101F60000000083A0000E5BB00802EBC0000BCBBAE
:101F70000000443B0000883A0000B2BB000040BCB7
:101F80000000D0BB0000503A0000623B0000003966
:101F900000004039000090B90000AC3A0000403A1F
:101FA000000080BA0000A5BB0000D8BB000040BA0A
:101FB00000001ABB000033BC000034BC000014BC9D
:101FC00000009FBB000026BB00007CBB0000F0BBF4
:101FD0000000EEBB000080B80000083C00801C3C04
:101FE0000000283C0000563C00809C3C0040AF3C78
:101FF00000809C3C00803D3C0000373C0000523C8F
:102000000080873C0080563C0000073C0000B4BBC9
:102010000000A3BB0000223B00001A3B000052BBA3
:102020000000E9BB000070BB000030BB000000BB3B
:102030000000183A0000AEBB008020BC0000DFBBEF
:1020400000004A3B0000343B00008FBB00009FBBF8
:10205000000000B900803B3C0080653C0000B63BBE
:1020600000004E3B0000703A0000003B00803D3C09
:102070000080663C0000EC3B0000A1BB0000DFBB21
:1020800000005EBB00009FBB000025BC00409BBC65
:10209000004099BC000050BC00800BBC00008DBC0F
:1020A0000080B3BC00805ABC0000F4BB000038BB09
:1020B00000009CBB00802EBC00805CBC0000B8BB54
:1020C000000008BA000090BA0000A3BB0000603A0C
:1020D00000009E3B0000313C0000443C0000A53B5A
:1020E0000000E93B0000513C0040A83C0000983C47
:1020F00000804C3C0000D039000068BB0000373C39
:102100000080753C0000083C0000C73B0000AD3B70
:102110000000FB3B0000E13B00804E3C00801F3C88
:102120000000E73B0000253C0080563C0000333CAB
:102130000080293C0000553C0080853C0080A43C88
:1021400000C0813C00800E3C0000F23B00800E3C51
:102150000000293C00801D3C0080663C0080773CEC
:1021600000007E3C00C08B3C0000563C00006C3BF5
:102170000000E0BA0000303B0000C43A00009CBA06
:10218000000000B900802EBC00C0BEBC004098BC5E
:1021900000803EBC008069BC00C09FBC0000A6BCA3
:1021A000004094BC0000F4BB0000D8BA000022BB81
:1021B00000009CBB0000563B0000443C00007F3CFC
:1021C00000803D3C0000D63B00800F3C0080573C27
:1021D00000806A3C00009E3B000026BB0000A7BBBD
:1021E00000801EBC000004BC0000C7BB0000FFBB99
:1021F00000800CBC0000D6BB0000D6BB00000ABCAF
:102200000000BFBB000000BB0000B0B9000060BA16
:1022100000000ABB0000FD3B0080653C00007E3CE6
:1022200000C0903C0040C53C0040F23C0040BF3C38
:1022300000808F3C00809F3C0000A53C0000D03B0C
:102240000000303B00005E3B0000703A008010BC94
:1022500000803ABC000064BC004093BC000040BC5D
:1022600000008DBB0000F83A0000083C0000453C2F
:1022700000802C3C00804A3C0040CF3C0000D33C16
:1022800000009E3C00C0913C00C0BE3C00C0A13C90
:102290000000723C00007F3C00803A3C0000E33BC1
:1022A0000000DB3B0000A73B000034BB00005FBC2C
:1022B000004093BC000090BC00408ABC0040A0BC21
:1022C0000000B6BC0040AABC0000D1BC0080C9BC64
:1022D00000804DBC0000E7BB008003BC0000ABBB2E
:1022E0000000463B00009F3B0000403B00001E3BBF
:1022F00000001E3B00009A3B0000883A0000803836
:102300000000D0B900003C3B0000123B0000B43A92
:102310000000623B0000A53B0000D23B0000BC3B3C
:102320000000E83A0000183A0000923B0000183C18
:102330000000343C0000833B0000873B0080033CEE
:102340000000A93B0000703B0000983B0000AD3B43
:102350000000283A0000743B00009E3B000038BBA0
:10236000000008BB0000B0B9000080B8000040B910
:102370000000403A000000B90000E03A0000A13B34
:102380000080123C0000223C00001A3C00C0813C4E
:102390000000C53C00C0AE3C00C09B3C0040A83CD7
:1023A0000080B33C0040A33C00C0913C0000453C91
:1023B0000000AD3B0000CBBB000013BC008003BCA1
:1023C00000800BBC000024BC000016BC008001BCD7
:1023D000000033BC0000EEBB000030BB0000C4BAFC
:1023E0000000A43A0000AC3A000038BB00009FBBDC
:1023F000000040B900006C3B000074BB000038BB1B
:102400000000CCBA0000E3BB00004ABB00000000A3
:102410000000D6BB000031BC00009CBA0000FD3BB0
:102420000000343B0000A73B00008B3B0000DF3B7B
:102430000000643C0000B53C00809D3C0000713C05
:1024400000008F3C0080853C0000F63B0000833B91
:10245000000030BB00800FBC00804BBC0000FFBB05
:10246000000096BC0040DFBC008074BC00801ABC39
:10247000000035BC0000C9BB00004039000008BAAC
:102480000000B83B00004F3C00801D3C0000AD3B0D
:102490000080023C0000C53B00000A3B000018BA67
:1024A0000000B0BB000090BB0000403B0000463B7A
:1024B000000080B90000043B0000403900008DBBE3
:1024C000000070BB000089BB0000FFBB00802FBC78
:1024D000000074BC00009EBC000037BC00009FBB25
:1024E000008074BC000062BC0000D43A0000063CCE
:1024F0000000C93B0000863C0080AE3C0000B63CBA
:1025000000C0DB3C0080253D00A0173D0000E73CFB
:102510000080F73C00C0CE3C0040853C00804A3C37
:102520000080773C0000D83B000040BB000087BB28
:102530000000B6BB000063BC008086BC00805ABCB3
:10254000000060BC000072BC00C093BC008047BCAF
:1025500000009CBB0000083A000080380000D03921
:102560000000163B0000223B00800D3C0000D83BE1
:102570000000003900008FBB0000B0BB000090BB22
:10258000000087BB0000F4BB00007CBC00C0AEBCF8
:10259000004099BC000051BC008085BC00008EBC8E
:1025A000000056BC008074BC008067BC00803DBC4D
:1025B000000004BC00802DBC00804BBC00006EBC41
:1025C000000098BC008056BC008047BC000090BC56
:1025D000008078BC0000BCBB000088BA0000403915
:1025E0000080593C0000963C00C0C63C00E0183D0D
:1025F00000E04C3D00E04B3D00803E3D0020483D6A
:1026000000E0413D00C02F3D00801D3D0000073D22
:102610000080D83C00408A3C0080573C00801D3C34
:102620000000083B000080B900000A3B0000443B6A
:102630000000403B0000B63B0000A33B0000B63B5F
:102640000000073C0000073C0000283B000088BA5F
:102650000000A4BA0000C5BB008069BC0000B5BC86
:1026600000C0E3BC002006BD004013BD002008BD33
:10267000000019BD00A022BD00E018BD00C0C7BC0D
:1026800000809DBC0000ADBC008094BC008079BC83
:1026900000804ABC000024BC0000C9BB000032BC62
:1026A000008059BC0000BFBB00009EBB00001ABCEC
:1026B0000000A1BB000008BB00004ABB0000963B25
:1026C0000080483C0000133C00803B3C00C0AF3C15
:1026D0000000CC3C0080D13C0040FA3C0040EB3C88
:1026E00000409A3C0000D83C0000E73C0080673C7A
:1026F0000000DD3B00809E3C00808F3C00802E3C33
:102700000080653C00C09B3C0080853C00008F3C05
:102710000080943C00803C3C0040933C0000973C8F
:1027200000804E3C0000A73B00006C3B0000C93B12
:102730000000803A0000C9BB00800BBC008011BCC7
:10274000008003BC000040BC00000BBC000080BC4B
:10275000004091BC000055BC000028BC000055BCE6
:1027600000C093BC008069BC000055BC00804CBC1C
:10277000000061BC0040A2BC00C0C5BC0040B2BCAF
:1027800000007EBC00C08CBC00C081BC008057BC77
:10279000000050BC000036BC0000DFBB0000BCBA2B
:1027A000000080390000873B0000243C00804B3C47
:1027B00000C0913C00C0AF3C0000B33C0040C53CB1
:1027C00000C0FC3C0000F63C0040AA3C0080CA3C33
:1027D0000080EA3C0080C33C0000B63C0080AC3C7A
:1027E00000008F3C00C0893C0040DD3C0000A63C5E
:1027F0000000293C0000563C00006D3C0000F23B0C
:102800000000D83A0000D4BA000074BB00800EBCAF
:102810000000F2BB000035BC000043BC000060BCFF
:10282000000035BC000070BC00800FBC0000D2BBB3
:1028300000801EBC000015BC0000DFBB000034BBE4
:1028400000009ABB0000E0BA0000A7BB0000B0BBCC
:102850000000283A000060BA0000F6BB000040BC4F
:102860000000BDBB00801EBC008056BC0000BCBB8D
:102870000000A4BA0000F6BB000009BC000080B94B
:1028800000005EBB00009CBA0000BA3B0000A93B00
:102890000000803B0000043C00C0813C00007E3C06
:1028A0000040843C00808E3C00C0933C0080C13CD2
:1028B00000C0B73C00806A3C00005E3C00C09F3C0A
:1028C0000080B23C0080583C00008D3B0000453C3D
:1028D00000C0A13C0080883C0080593C0080583CEE
:1028E0000000523C00807A3C0080593C00800F3C44
:1028F0000000403B0000E13B0000DA3B00002C3BC5
:102900000000263B0000383B00004039000044BB7B
:10291000000022BB000087BB00800DBC000023BC70
:10292000004085BC004089BC00C093BC000090BC46
:102930000080BABC0040D0BC00C09BBC0000B4BC4E
:102940000080AEBC0080B2BC00C0A2BC008087BCCE
:1029500000806CBC000034BC00804CBC000007BC94
:10296000000092BB0000603A00003CBB00009CBB32
:102970000000703B00009F3B0000E33B0000F63B83
:1029800000800C3C00802B3C0080883C00C0A93CAF
:1029900000806A3C00806B3C0080773C0000423C39
:1029A00000800E3C0080593C0000733C00802B3CB2
:1029B00000800C3C0080113C00803A3C00806A3C66
:1029C0000000513C00802C3C00804E3C0080AB3C21
:1029D00000809E3C0000513C0080683C00007F3C31
:1029E0000000463C0000223C00802D3C0000D83B0B
:1029F0000000AD3B0080103C0080023C0000CE3B5C
:102A00000000EA3B0000EA3B00004E3B00000A3BAE
:102A10000000F039000098BB00800BBC0000FBBB3D
:102A2000000056BC00C089BC00C098BC008090BCAF
:102A300000809DBC0040A3BC0000A7BC0040CDBCF2
:102A40000080B2BC008065BC000031BC008085BC49
:102A500000408ABC000070BC008030BC000022BC7A
:102A6000000098BB000046BB000096BB0000AC3ADB
:102A70000000F43B00802C3C0000CE3B00003C3BBF
:102A80000000A33B0000003B000078BB0000FDBB42
:102A90000000B4BB000000BB00009ABB000081BB7B
:102AA0000000003B0000983B0000163C0080673CA3
:102AB00000408C3C0080963C0040CF3C0040EC3C09
:102AC0000040D73C0000E83C0020053D0040F23CBF
:102AD0000040C73C0040D73C0000DB3C0040A33C2A
:102AE00000C0833C0000283C0080113C0000CC3B2F
:102AF00000800B3C00008B3B0000BCBA0000BFBB59
:102B0000000094BB000098BB0000E1BB0000DFBBED
:102B1000000036BC00007EBC00408ABC00408CBC7B
:102B200000C0A7BC0000A7BC0000ADBC00409BBC1F
:102B300000804EBC00803DBC00007EBC00806BBCB1
:102B40000000EABB000013BC008021BC0000D8BB21
:102B50000000B6BB00007CBB0000B0B900001E3B0B
:102B600000009EBB0000C1BB000056BB00005ABB6A
:102B7000000009BC000028BC008000BC0000ADBB08
:102B800000004ABB000016BB0000083A0000DD3B15
:102B90000000C33B0000F23B0080763C0000813C1B
:102BA00000C0833C00C08A3C0000703C0000E93B50
:102BB00000800F3C0000233C0000893B0000D0B99E
:102BC0000000D43B0000CC3B0000B23B0000223BA5
:102BD0000000963B0000EC3B00004F3C0000803CB6
:102BE00000806C3C00804A3C00804A3C00802D3CC8
:102BF00000800F3C0000C33B0000683B0000B03980
:102C000000004EBB000083BB000046BB0000B4BB0D
:102C10000000C4BA000080B90000603A0000263B02
:102C20000000B0390000AC3A0000B0390000D0B963
:102C300000008DBB0000BCBA0000D0B9000089BB09
:102C400000009ABB000016BB00004EBB000040BB5A
:102C5000000028BB0000D2BB0000BDBB0000DFBBF2
:102C6000008010BC00804BBC000035BC00803ABC2A
:102C700000802CBC00802EBC00801FBC008001BCEA
:102C8000000094BB00005EBB000083BB000064BB7F
:102C9000000087BB000062BB0000B4BA0000BC3A71
:102CA0000000503A0000703A0000BC3B0000FD3BC1
:102CB0000080213C0000083C0000CC3B0000A73B0A
:102CC00000802A3C0000713C0000293C0000293CA7
:102CD0000000653C0080763C00806A3C0080483CF7
:102CE00000803C3C0080113C0000BD3B0000B63B36
:102CF0000000F83B0000AD3B0000783B0000943B37
:102D00000000E53B0000433C0080783C00802F3C05
:102D10000000EE3B00800F3C0000633C0000173CCD
:102D20000000563B0000F03900001E3B00009A3BBB
:102D30000000853B00005A3B0000443B0000AC3AD9
:102D40000000E83A0000983A00003CBB0000DFBBFE
:102D50000000A1BB0000CEBB008049BC00408CBC81
:102D600000008FBC00008EBC00C09BBC00C0AFBC8C
:102D70000040AFBC00C098BC00007CBC008077BCA9
:102D8000008030BC0000F0BB0000B0390000D83A31
:102D90000000903A0000283A0000CC3A0000503A77
:102DA000000030BB0000AEBB000090BB000062BB67
:102DB000000040B90000503A0000CC3A0000DF3B70
:102DC0000000253C0080773C00009C3C0080903C4B
:102DD0000040933C0000A63C0000AC3C0000803C5E
:102DE0000000293C00801B3C0080003C0000FD3BB3
:102DF0000000813B00004A3B0000443B0000943B44
:102E00000080113C0000DA3B0000463B0000003B24
:102E10000000CC3B00800B3C0000943B0000603A7B
:102E20000000383A0000A43A000062BB000044BB36
:102E300000800CBC000040BC00802DBC0000ECBB3E
:102E4000000028BC008081BC00804DBC000060BC3C
:102E5000004083BC00005EBC000028BC00804BBC6E
:102E600000803BBC0000BDBB0000C5BB000074BBC4
:102E70000000D83A0000983B0000B23B0000C73B7E
:102E80000000783B0000813B0000A33B0000403B7A
:102E90000000D43A0000343B0000523B0000503A9E
:102EA00000001E3B00008F3B0000A73B00008D3B55
:102EB0000000DB3B0000643B000080B9000092BBD7
:102EC000000068BB000034BB00005EBB0000D4BA49
:102ED00000008BBB0000E8BA0000E03A0000833B32
:102EE0000000E53B0000AB3B0000AB3B0000F83BC3
:102EF0000000B83B0000963B0000B63B0000323CAF
:102F00000080003C00802D3C00805D3C0000143CB3
:102F10000000063C0000BA3B0000AB3B0000503A0A
:102F200000009039000028BB000046BB000062BBD7
:102F30000000FBBB0000CCBB0000B8BB000080BBA6
:102F40000000D4BB0000B0BB0000D0BB0000A1BBA0
:102F50000000983A000000000000A43A000040BAC7
:102F600000009C3A000090B90000903900001ABBA4
:102F7000000028BA0000ACBA0000E5BB000064BB4A
:102F8000000038BA000008BB00007CBB000000BB9A
:102F9000000098BA00008FBB000012BB0000D4BA3A
:102FA000000096BB000074BB00004ABB00009C3AC6
:102FB00000009C3A0000523B00004E3B00000E3BDC
:102FC0000000DD3B0000DB3B0000C73B0000743B22
:102FD0000000983A0000083A0000A43A0000403A85
:102FE0000000B0B90000503A0000683B0000B63B5A
:102FF00000800C3C00001A3C00801D3C00001A3C84
:103000000080563C00806B3C00C0843C0000563C75
:1030100000806A3C00006F3C0000733C00802C3C48
:103020000000173C0000EA3B0000983B0000CC3A4F
:10303000000080B90000CCBA000046BB0000D8BA3E
:103040000000A7BB000008BB0000043B000000001C
:1030500000006CBB0000B8BB000087BB000044BB95
:103060000000D2BB00802ABC00802ABC000025BC26
:10307000008080BC004082BC000054BC000041BC09
:10308000008057BC00800FBC0000BDBB0000BABB75
:10309000000089BB00000ABB000070BA00001ABB28
:1030A0000000E0BA000038BA0000903A0000983AF8
:1030B0000000643B0000043B0000CC3A00008F3B62
:1030C0000000C73B0000CE3B0000463B0000063C32
:1030D0000000293C00807A3C00C0833C00C09A3C40
:1030E0000080943C00C09B3C0000BD3C0040A03CE4
:1030F0000000563C00007D3C00C0833C00803D3C0D
:103100000000253C00806A3C0040833C00007D3C80
:103110000080653C0000333C00802F3C0000BD3B3C
:1031200000000E3B0000D0390000A4BA00008FBBA5
:1031300000006CBB000078BB00805BBC008066BCFC
:1031400000408BBC004099BC0080A4BC00C0A1BC66
:1031500000009FBC000062BC00803ABC00803EBC06
:10316000000027BC00007CBB00000ABB00004ABB7B
:10317000000080BA00002CBB000012BB00000EBB98
:1031800000006CBB000080BB000038BB00006CBBC3
:1031900000009EBB0000A3BB0000A1BB000089BBD8
:1031A000000090BA0000CCBA000018BA0000123B30
:1031B0000000A53B0000FB3B00802B3C00804A3C0C
:1031C0000000623C0080793C00408A3C00006D3C7D
:1031D00000805C3C0000523C0080473C0000353CD5
:1031E0000000633C0000523C00805A3C0000703CF0
:1031F00000C08A3C00C0893C0080903C0080973C25
:103200000040983C0000983C0080793C00802E3CB7
:1032100000000A3C0000DF3B0000D039000085BB05
:1032200000803ABC004082BC0040A3BC00409ABC75
:1032300000809CBC0000A4BC004094BC00C081BCC9
:10324000000016BC000015BC00801EBC00800EBC37
:103250000000E9BB00800BBC000007BC008021BC63
:10326000008057BC008059BC00802ABC000008BC0C
:103270000000ECBB00004ABB000022BB0000123B78
:1032800000800E3C00806B3C0000503C0000333C52
:103290000080783C0000953C0080963C0000953C06
:1032A0000080853C0000733C0000613C0000133C42
:1032B00000000E3B0000C4BA000004BB0000D0B9FF
:1032C000000098BB0000FFBB0000F4BB000092BBF5
:1032D00000009ABB00003CBB000098BA0000AC3A6A
:1032E00000004A3B00005A3B0000303B0000AC3A73
:1032F000000090390000BCBA0000F83A0000403AE3
:10330000000068BB0000E9BB0000C7BB00009FBB1A
:103310000000A5BB0000DFBB00800BBC0000DFBBD2
:103320000000B4BB000022BB0000883A000040B996
:10333000000000B9000040390000A53B0000DA3B66
:103340000080113C0000193C0080583C0080763C15
:1033500000808D3C00007C3C00807A3C0080873CF3
:1033600000007D3C00006E3C0000423C00001A3C26
:103370000000F93B00009C3B00000000000092BBF5
:103380000000C7BB0000A7BB00008BBB00005EBBFA
:103390000000A4BA000080390000F0B9000038BA7B
:1033A000000018BA000090B9000038BA0000CCBA8A
:1033B0000000FDBB00800EBC00001ABC000052BC27
:1033C00000C091BC008094BC00809DBC00C090BC3B
:1033D00000805ABC0000F0BB0000D0BB0000B4BAB3
:1033E0000000BD3B00801C3C0080493C00007C3C50
:1033F0000000813C0000513C00004F3C0080483CF4
:103400000000A53B00000000000070BA000060BA98
:1034100000003CBB000090BB000087BB000080BBED
:1034200000001E3B00009C3B00008F3B0000743BF3
:103430000000F83B0080473C00805A3C00C0813CC3
:103440000080953C00C0913C00C0AA3C0040D63CA6
:103450000040CF3C0000AD3C0080A33C00009F3CFE
:1034600000807B3C0080493C0000DA3B0000D4BA7D
:103470000000B8BB000022BB000098BB008079BCF4
:1034800000C098BC008059BC008011BC008011BCF9
:10349000008066BC008074BC008057BC000081BB0B
:1034A00000004ABB008021BC000044BC0000BDBB42
:1034B00000005EBB0000D2BB00806CBC004083BC3F
:1034C000008059BC0000DDBB000029BC00C082BCEC
:1034D000000072BC00000ABC0000A7BB0000B8BB23
:1034E000000080BB0000B43A0000963B0000233C83
:1034F00000006E3C00008D3C0080903C00C0C03C51
:103500000080EA3C0040B13C0040983C0040A73CB1
:103510000040A13C0080853C0000313C00803E3CE6
:103520000080213C00000A3C0000A33B0000A53BBA
:103530000000073C0000263C0000053C00009F3BCB
:103540000000F23B00802E3C0000FB3B00001A3BD9
:103550000000B4BA0000F8BA0000ACBA000074BBB6
:10356000008021BC000008BC0000AEBB0000ADBB69
:103570000000EABB0000D8BB0000ABBB000040BBB2
:1035800000002CBB000044BB00000ABB000008BACE
:1035900000001EBB0000C7BB000064BB00006CBB8A
:1035A000000036BC000063BC000025BC00801CBCD1
:1035B00000802EBC000009BC0000E3BB0000A7BBDC
:1035C0000000603A0000B83B00008F3B0000343B35
:1035D0000000983B0000F23B0080203C0000F63BDE
:1035E00000800C3C00801E3C0000FF3B0080103C33
:1035F0000000413C00801B3C00801A3C0000613C04
:103600000000893C00007F3C0080793C00409A3CEF
:1036100000C09A3C00C0A13C00809E3C0000613C80
:103620000000603C0000703C00805C3C0080573C27
:1036300000007E3C00803B3C00008B3B00001E3BBA
:103640000000D23B0000A33B00009039000038BBD3
:103650000000C4BA0000853B00000000000023BC4D
:10366000000072BC000017BC0000DBBB00803FBC48
:1036700000C08CBC00806BBC00801DBC000037BC4F
:1036800000806BBC00806ABC008049BC0000A7BB06
:103690000000C43A0000D4BA000070BB0000DD3B5B
:1036A00000005F3C0000853B0000883A0000EA3BD8
:1036B00000803E3C0000B43B000000000000C4BAA3
:1036C0000000B4BA0000D43A0000343B000000000F
:1036D0000000983A0000373C00006F3C0000B43B0B
:1036E0000000E03A0000B63B0000233C0000833BB2
:1036F000000052BB000070BB000098BA000038BA4E
:1037000000003CBB0000E1BB000040BB0000743B7C
:103710000000463C0000323C00803C3C00408B3CBA
:103720000000C43C0040BF3C0000B33C0080AE3C05
:103730000000A43C0080A43C0040993C00C0823CB6
:1037400000804C3C0000273C0080213C0000153CE0
:103750000000FB3B0000DF3B0000E93B0000BD3BFD
:103760000000893B0000AB3B00008D3B000060BACD
:103770000000A3BB008000BC008039BC00409BBCA3
:103780000000BDBC0000BDBC0000C3BC00C0FBBC51
:1037900000E013BD00600DBD002002BD008003BD30
:1037A000002002BD0080F0BC0080E7BC0000B4BC7B
:1037B00000005FBC00803CBC00006DBC0000C3BBCF
:1037C0000000E33B0000233C00005A3B0000083CA3
:1037D0000080853C0080AB3C0080AE3C0040B23CA9
:1037E00000C0CC3C00C00A3D00202E3D00602A3DB8
:1037F00000401D3D00602F3D0040383D0040253D0C
:103800000040FA3C0040EC3C0040F43C0080DA3CD4
:103810000040893C00804C3C0080803C00C0903CD3
:103820000080493C0000A13B0000643B0000BD3B20
:103830000000E73B00001E3B0000D2BB0000ECBBD9
:10384000000005BC008003BC00C092BC0040C6BCA8
:1038500000809CBC00804DBC008086BC0040AFBC9A
:10386000004094BC000036BC008003BC000083BB59
:10387000000000BB0000083B0000243C0000433C6B
:103880000000E33B0000303B00009F3B000008BA13
:103890000000BABB0000F8BB00802ABC008048BC16
:1038A000004085BC0000ACBC00C099BC00004FBC0F
:1038B0000000F0BB00804BBC008030BC00000EBBA1
:1038C0000000903B0000343B000088BA0000F03953
:1038D0000000DA3B00801D3C0000BD3B0000000002
:1038E000000090BA0000BA3B0000CB3B00005E3BFA
:1038F0000000EC3B0080853C0080AC3C0080AB3C91
:103900000040CD3C0000E23C0000F83C00C0113D0E
:1039100000C0073D0040E53C0080EA3C00C0023D9D
:103920000080DF3C0080A33C0000973C0000803C0E
:1039300000803A3C00802D3C0080013C00009F3B11
:103940000000463B00004039000008BC00007EBC7F
:1039500000408BBC000081BC0080B3BC002005BDD2
:1039600000C011BD0040DEBC0040C0BC00C0DEBCD9
:103970000040DDBC008095BC008048BC004084BC99
:1039800000C0B0BC00009FBC000037BC00000ABCF7
:1039900000804ABC000055BC00008BBB0000703AA0
:1039A000000038BA00003C3B0000253C00C0823CCF
:1039B0000080C33C0040A23C0040893C0080AC3CFD
:1039C0000000DB3C0080C93C00C0903C0000C33CD0
:1039D00000800B3D0000E13C00C08C3C0000723CCC
:1039E00000008D3C0000163C000098BB0000FBBBB3
:1039F0000000ADBB0000D0390000E8BA00801BBC5D
:103A0000000054BC000019BC0000F2BB008001BCE7
:103A100000800EBC00801ABC008030BC000018BCC6
:103A2000008038BC00C093BC00007CBC0000FBBB25
:103A3000000009BC000042BC000023BC000092BB97
:103A4000000090BB000080BB000004BB000040BA37
:103A50000000DF3B0080693C0000803C0000333CFC
:103A60000000B43B00802A3C0000403C0000383C91
:103A70000000243C00801E3C00804D3C0080103C37
:103A80000000803B0000083C00C0823C0000A53CD8
:103A90000080593C0000433C0040853C0000893CCC
:103AA0000000363C000028BA00004EBB00008BBB73
:103AB00000001ABB0000E7BB00007DBC008057BCC3
:103AC0000000ECBB000018BC000034BC008021BC2E
:103AD0000000DABB00004FBC008088BC008078BCCE
:103AE00000801BBC00800BBC00801CBC0000B4BB71
:103AF0000000D83A0000083B000070BA000052BB3A
:103B000000000EBB0000D4BA00001ABB0000B039A0
:103B100000009C3B0000093C00801B3C0000233C53
:103B200000800F3C0000DB3B00804E3C0080863C68
:103B30000080203C0000AD3B00007C3B0000B43A1C
:103B40000000ABBB0000ECBB0000D4BB0000D6BB48
:103B50000000FDBB00005ABB0000B0B90000CCBBA8
:103B6000000024BC0000F0BB000026BB000070BABF
:103B70000000603A0000463B0000F83A000090BAAE
:103B80000000403A0000183A0000B03B00009E3BA5
:103B90000000CCBA00006CBB0000873B00801A3CE0
:103BA0000000FB3B0000243C0080953C00C0C83C6A
:103BB0000080E83C00C0023D0000F63C0040D73CDD
:103BC0000000D83C0080B53C0000603C0000723C26
:103BD00000409B3C00803C3C000080B90000D4BA0F
:103BE0000000ADBB000044BC00009FBC0000ADBCA9
:103BF0000000B5BC0000D4BC0040DEBC000000BD2D
:103C0000004000BD00C003BD0080F7BC0080E2BCE6
:103C10000080CCBC0000BCBC0080D3BC0040CFBC4A
:103C200000C0A1BC0080A3BC000072BC0000E3BBCC
:103C300000005E3B0000783B0000703B0000403C11
:103C40000000413C0000403C0000703C0000423C51
:103C50000000C93B00802A3C0000803C0000543C2E
:103C60000000E13B0040A13C0000E83C0040FC3C7F
:103C70000000E13C0040F23C0000F03C00C0BE3CD3
:103C80000080853C0000653C0080573C0000633CA0
:103C90000000A33B000090BA00008BBB0000D6BB25
:103CA000008065BC008096BC000074BC00007DBC38
:103CB000008085BC00805BBC008020BC00802BBCE9
:103CC0000000E1BB0000183A0000BF3B0080003C50
:103CD0000000613C00806B3C0000163C0000043C8E
:103CE0000000043C0000893B0000D43B00C08B3C3A
:103CF00000C0A23C0000713C0000283C0000623C77
:103D000000804D3C0000D03B0000803A0000903A1B
:103D100000008D3B0000B0B90000F0BB008069BC22
:103D2000008039BC000008BC000026BC00007FBC3D
:103D3000008068BC008067BC00C098BC0080C9BC23
:103D40000040E3BC0000D9BC0040BEBC00805ABCAF
:103D5000000074BC00C08ABC00802DBC0000DBBB2E
:103D6000000041BC008077BC0000ABBB0000803885
:103D700000002C3B00801F3C00006E3C0000613CBA
:103D800000809C3C0080EF3C00000B3D00A00D3DFE
:103D900000C0073D0040003D0080E03C0080D03C7A
:103DA0000000CA3C00C0C63C0080EF3C0080F83CEC
:103DB00000C0C73C00C09B3C0000503C0000B83B2A
:103DC000000092BB0000E5BB008020BC004085BC29
:103DD0000040A1BC00C0A2BC0000B6BC00008DBC6D
:103DE000000028BC0000F4BB008010BC000087BBB2
:103DF000000044BB000046BC000096BC004093BCE1
:103E0000008088BC008048BC0000CEBB0000B039F8
:103E10000000D43A0000183A0000283B00000E3B96
:103E20000000A33B0000A73B0000403B00008D3B8F
:103E30000000403A00009C3A0000E8BA0000F03967
:103E40000000943B0000E53B00803E3C0000443C09
:103E50000000D43B0000683B0000A93B0000253C6B
:103E60000000C33B0000E53B0000443C00802F3CC9
:103E7000000008BA000008BC000029BC000063BCB8
:103E800000C0A7BC0000C3BC00C0B1BC0000A5BC02
:103E900000C0B0BC0040B2BC000071BC0000E5BB7B
:103EA0000000AC3A00801A3C0080123C0000313C1B
:103EB0000000353C0000333C00802C3C0040823C3C
:103EC0000000AB3C00C0CC3C0000F23C0040DC3CBD
:103ED00000C0AF3C0080B43C00C0B73C0000653C73
:103EE0000000263C0000183C0000903B000098BAFF
:103EF000000050BA000088BA000046BB0000623BD8
:103F00000000B43B0000043B0000853B0000AD3BDB
:103F10000000183A0000BCBB008010BC0000DFBBF2
:103F2000000004BC00801CBC00804DBC00005EBCD6
:103F300000008EBC00C0AEBC00C0C8BC0080E2BCAB
:103F40000080F0BC0080DBBC0040DEBC0040E5BC73
:103F50000040DDBC0040A1BC0000E1BB0000223BF2
:103F60000000063C0000963B00803B3C00008E3C7D
:103F70000000313C00008D3B0080303C0000893C5B
:103F800000809D3C00008F3C0080A53C0080AE3C42
:103F90000080A63C0000B43C0000B43C00C0AA3C39
:103FA0000080973C0000893C0000873C00004F3CAB
:103FB0000000533C0040823C0040A33C0080B33CE6
:103FC0000080A43C00007E3C0000463C00800D3C8C
:103FD0000000403B0000D83A00009F3B0000C53B7A
:103FE0000000603A0000603A0000B0B90000C1BBB8
:103FF000008056BC00C081BC00C08CBC0040A3BC8B
:1040000000C0AABC0080EEBC006008BD0080F0BC0F
:104010000040EEBC0000F8BC00C0B0BC00C081BCD9
:104020000040A1BC00409ABC00008FBC000027BC2F
:10403000000016BC000089BB0000CCBA0000083AA2
:104040000000383B0000A13B0000873B0000B03976
:104050000000F8BA0000A43A000008BB000062BBF0
:104060000000FBBB000051BC000041BC00001ABCBA
:104070000000C1BB000088BA0080393C00809E3C33
:1040800000006E3C0000463C0040923C00C0AE3C4C
:104090000080AD3C0000983C0080BA3C00C0EC3C85
:1040A0000080EF3C0080F13C0080FF3C00C0ED3C14
:1040B0000040C73C00C0A73C0000713C0000703BC2
:1040C000000018BA000040BB000033BC00801DBCDB
:1040D000000028BC0000D6BB0000D0B90000E83AC0
:1040E000000000000000BC3A0000BD3B00009F3B08
:1040F000000028BA000088BA0000083A00003CBB63
:104100000000FBBB000050BC000090BC0040A7BCFE
:104110000080BCBC0000EABC00800ABD00E000BD1D
:1041200000E013BD00C03BBD00603ABD008025BD6E
:1041300000C025BD00A00DBD0000E9BC0040B6BC1C
:1041400000009CBC00801EBC0000E83A0000D83B88
:104150000000263C00008E3C0000A53C0040A23C34
:1041600000809E3C0000B33C00009C3C0080AD3CC5
:104170000080AD3C0080AE3C0080BA3C0000A73C13
:104180000080863C00804D3C0040A13C0080BD3C4E
:104190000040933C0080803C0040893C0000963CFD
:1041A00000408B3C0080883C00C0BD3C0000D23CFD
:1041B0000000D43C0040DD3C0080C93C00C0BD3C58
:1041C00000C0843C0000503C0000C13B000016BB16
:1041D000008003BC000025BC000097BC0000BABCF6
:1041E0000080E8BC00C0F4BC0080F7BC0040E6BC26
:1041F00000C0CEBC0000C4BC0040BFBC0080A4BC5A
:1042000000409ABC00805DBC0000E5BB000085BB9F
:1042100000008BBB000008BB0000D0B90000383A9A
:1042200000008FBB0000FBBB008029BC000040BC2D
:1042300000806CBC00808DBC00008DBC008094BCF4
:1042400000C0A0BC00C08ABC00006DBC000028BC3F
:104250000000D8BB0000163B0000A13B00801D3CC5
:1042600000006E3C0000A73C0000903C0080963CA3
:1042700000809C3C0000903C00807A3C0000513C57
:104280000000F83B0000A13B0000853B0000983B8C
:10429000000070BA000000390000D63B0000E53B8A
:1042A0000000683B0000AC3A0000FD3B0000313CE0
:1042B0000000563C00C0893C00C0BE3C00C0D43C5D
:1042C0000040D03C00C0DE3C0080E23C00C0CE3C60
:1042D00000009D3C0000503C0080003C0000643B1E
:1042E00000000ABB000026BC008068BC008059BCEE
:1042F000008078BC00008FBC000070BC00806BBCEC
:10430000008057BC00801FBC008000BC00009EBB2A
:1043100000008DBB000022BB0000A4BA000050BA10
:104320000000703B000060BA00009EBB0000BFBBF5
:104330000000F8BB000051BC004091BC008087BC6D
:104340000000ACBC0000D2BC0000C3BC0040C6BC36
:1043500000C0B1BC000051BC00008FBB00005ABBC4
:104360000000F8BA00000A3C0080803C0080803CDD
:1043700000008F3C00C0AF3C00C0B73C0040A03CF8
:1043800000007F3C0000903C0040923C00808D3C4F
:104390000080393C0000713C0080A33C0040893C17
:1043A0000080213C0080003C0000653C0000533C44
:1043B0000000323C0080203C0000D03B0000C33BAA
:1043C0000000E83A000080BA0000E8BA0000B03906
:1043D0000000403A0000E83A00007C3B0000923BBD
:1043E0000000383A000080B90000343B0000083A71
:1043F000000040BB0000ABBB000064BB00001ABB68
:10440000000074BB0000DDBB0000F4BB00006CBB0F
:10441000000046BB0000E8BA00001EBB00008FBBD6
:104420000000A7BB000026BB000000BB00009FBB34
:10443000000060BA000016BB0000C7BB000023BC30
:1044400000802FBC00800FBC0000EEBB0000CBBB87
:1044500000801BBC000009BC0000E9BB00804CBC14
:1044600000004FBC0000FBBB00009EBB0000C3BBB4
:104470000000E9BB0000B2BB000064BB0000E8BA6A
:1044800000008BBB0000F0B900005E3B0000D63B93
:104490000000093C0000223C0000273C00802F3C2B
:1044A00000804E3C00C0813C00C0AE3C0080D23C4D
:1044B0000080D33C00C0C53C0040CE3C0080C33CE3
:1044C00000C09A3C00408A3C0040823C00007C3C9A
:1044D0000080003C0000D83B00800F3C0000F43B13
:1044E00000008D3B00001A3B0000BD3B0000C93BB3
:1044F0000000D63B00003C3B000040B9000022BB5E
:104500000000A7BB008002BC000015BC0000F6BB89
:10451000000019BC008065BC00804ABC00804ABC19
:1045200000803DBC00803ABC000025BC000047BCB8
:10453000008056BC008067BC008079BC008081BCD4
:10454000008049BC0000DDBB0000D2BB0000C9BB3D
:1045500000000ABC000015BC008011BC00801FBC1C
:10456000008038BC008039BC00009CBB0000B8BB98
:104570000000C9BB0000D4BA0000703B0000BC3B87
:104580000000BC3B0080573C0040913C00008D3C4B
:104590000000873C0080853C0080863C00408A3CCF
:1045A00000808D3C0080903C00409A3C00007F3CA5
:1045B0000000383C0080033C0000CB3B0000603A28
:1045C0000000C4BA0000B0B90000F83A0000B0B969
:1045D000000008BA000080B800007C3B0000A53B4A
:1045E0000000C13B0000D83B00805C3C0000963CD2
:1045F00000008E3C0040893C00009C3C0080973CC1
:1046000000C0843C0000653C0000383C0000F63BE4
:104610000000643B000094BB00802CBC00804CBCBC
:1046200000806ABC00C0BEBC0080D2BC00C0E6BC3A
:104630000080EEBC0000E7BC0040CFBC00809EBC08
:10464000008081BC000029BC0000D0BB000022BB60
:104650000000463B0000923B0000963B0000C33B3D
:104660000000D83B0080023C0000B63B00004A3B03
:104670000000CCBA000083BB000046BB000094BB26
:10468000000074BB0000A5BB0000A1BB0000CCBBB8
:104690000000F6BB0000DABB0000B0B90000F03A41
:1046A0000000E53B0000553C0000883C0000863CD3
:1046B0000000883C0000893C0000963C00008D3CD6
:1046C00000C0843C0040983C0080BC3C0040B83CAA
:1046D00000009E3C0000AB3C0040BE3C00C0B03C33
:1046E0000080693C00804B3C00802C3C0000563B25
:1046F000000044BB0000FFBB00000BBC000023BC5B
:1047000000801CBC000032BC00800EBC0000D2BB8C
:1047100000801CBC000053BC000024BC008020BCF6
:1047200000802DBC00804BBC008059BC00803EBC8A
:1047300000000BBC0000A7BB0000E0BA0000F0398D
:1047400000008038000090B9000030BB0000A5BB1D
:10475000000006BC000037BC000037BC00803CBC39
:1047600000802DBC00803BBC008021BC008047BC89
:1047700000804ABC00802ABC000036BC00800CBC13
:104780000000DDBB000034BB000080B800008039B1
:104790000000173C0040913C0040D73C00C0F53C75
:1047A0000040073D00600C3D0020063D0000F13C4C
:1047B0000040BE3C00C0983C0080673C0000333C99
:1047C00000802F3C0000233C0000DB3B000080B851
:1047D0000000ECBB000009BC00800EBC00005FBC08
:1047E000000086BC000087BC000045BC000028BC5F
:1047F0000000C1BB00009C3A00000A3C0000523C93
:104800000080743C00C0933C0040AF3C00C0A83C1A
:104810000040B23C0040B03C00C0B83C0000B43C9A
:1048200000007E3C0000243C0000893B000088BA68
:104830000000FFBB000073BC0040B1BC00C0C6BCA0
:104840000000E0BC006008BD004015BD00801ABD3E
:10485000002010BD00C0FCBC00C0C6BC0080A6BCCF
:10486000008085BC00803BBC0000D4BB0000003948
:104870000000EA3B00807B3C0080BB3C00C0DB3C8E
:104880000000E23C00C0F23C0040EB3C00C0DB3CDE
:104890000040B93C00809F3C0080903C0080743C0C
:1048A00000805A3C0000FF3B000000B90000D6BB6E
:1048B000000006BC0000FBBB000016BC000032BCC0
:1048C000000005BC000034BB00000EBB00008038B7
:1048D00000008B3B0000343C00009D3C0040BF3C8E
:1048E0000000D33C0000E23C00E0093D00C0073D71
:1048F0000040E43C0040C13C00C0A83C0080593C62
:104900000000903B000000000000E5BB000047BC39
:1049100000807ABC00008EBC0000AEBC0000D1BCA0
:1049200000C0ECBC00A009BD00600DBD00400BBD87
:10493000006002BD0040EDBC0000B6BC008088BC39
:10494000000037BC000040BA0000963B0000403C2D
:104950000040933C0000BC3C00C0DD3C0040E53C16
:1049600000C0EC3C00C0DE3C00C0D43C0040CE3C6B
:104970000040B23C0040A13C00808F3C00006F3CF6
:1049800000801F3C0000F43B0000BD3B0000CC3A1F
:104990000000D0B9000012BB0000D4BB00801EBCD8
:1049A00000803CBC00804DBC000053BC008078BC43
:1049B000008059BC000016BC00005EBB0000263B16
:1049C0000000B23B00803B3C0080813C0000733C17
:1049D0000080663C00805B3C0000503C0000BA3B1D
:1049E0000000283A00000000000018BA000070BA69
:1049F000000080BB0000C7BB00801BBC00803EBC29
:104A000000408ABC00809DBC0040A8BC0040A7BC00
:104A10000000ACBC008097BC00005EBC008010BCF5
:104A20000000A7BB000050BA0000C53B00806C3CF2
:104A30000040A03C0040C53C00C0F43C0040153D97
:104A400000A01B3D00C01A3D00201B3D00A0083DFA
:104A50000040EB3C0000C53C00007E3C00000B3CED
:104A60000000D83A00004ABB0000FDBB00804CBCEF
:104A7000008068BC00008DBC0040A2BC0000B3BC3C
:104A80000080C2BC0040A2BC004082BC00803CBC94
:104A90000000ECBB00001EBB0000873B0000D23BC7
:104AA00000803D3C0080853C00C0AF3C0080CB3C9A
:104AB0000040E53C0000F83C00C0E63C0000DA3C69
:104AC0000040B63C00008F3C0000543C0000BA3B64
:104AD0000000B0B90000D8BB00804EBC008088BC8C
:104AE0000000ACBC0000B6BC0080BCBC00C0DBBC9D
:104AF0000000F0BC0080F1BC00C0E5BC0000E8BCD8
:104B000000C0ECBC0000C9BC00808EBC000032BC00
:104B10000000E9BB00004E3B00803C3C00808D3C27
:104B20000080B33C0040C73C0040C73C00C0C63CCE
:104B30000080BB3C0080BB3C0040B93C0000CA3C4C
:104B40000040C83C0040BE3C00C0A13C00408B3C43
:104B50000000233C00005E3B000052BB000029BC6B
:104B6000008069BC004094BC0040B0BC0000A7BC01
:104B700000408ABC000060BC000028BC0000C3BB31
:104B80000000CC3A0000F23B00804B3C0000903C1F
:104B90000040A23C0000CB3C0080E83C00C0ED3C63
:104BA0000000F03C0000E13C0080D23C00C0BE3C74
:104BB0000080AB3C00006F3C0000DB3B000080BA93
:104BC00000000BBC000070BC0000ABBC0040DDBCB2
:104BD00000A000BD00A004BD00E010BD004013BD5A
:104BE00000A018BD008011BD008000BD0000E0BC29
:104BF00000C0AEBC008057BC0000B0BB0000813BD1
:104C00000000163C00007C3C00C0B63C0080DA3C52
:104C10000080EE3C0080F03C0000E83C0000D33C0B
:104C200000009F3C0080773C00802D3C0000D03984
:104C30000000C3BB008059BC00C099BC00C0A8BC28
:104C40000040BEBC0080C9BC0040DEBC0080D2BCBD
:104C50000000D4BC00C0D6BC0000AEBC000070BCDC
:104C600000800CBC0000D4BA0000DB3B0080803C1C
:104C70000000CC3C00600D3D00E0233D0060323D73
:104C800000E0413D0040523D00404F3D00A03C3D12
:104C90000000353D00C0203D0000083D0080DA3CAA
:104CA0000080583C0000263B0000D4BB00008EBCB6
:104CB0000040EBBC00E004BD00000BBD00E018BDEF
:104CC000006022BD008025BD00C029BD008021BD3F
:104CD00000C019BD00C00ABD00C0E4BC0040A1BCBA
:104CE000000032BC0000C4BA0000E53B0080743C08
:104CF00000C0B13C0080E03C0060023D00000F3D80
:104D00000080113D00C0FC3C0000C43C00C0903C51
:104D10000000373C00006C3B0000BDBB00802ABC9B
:104D2000000086BC00C0B0BC0000C9BC0000D9BCFB
:104D30000040DFBC00C0D4BC0040D0BC0040C5BCBB
:104D400000C0A0BC008085BC00806BBC00802DBC76
:104D50000000CBBB000090BA0000163B0000D63B21
:104D60000000333C00006F3C0080973C0040C83C92
:104D70000080E93C0080FD3C0020023D0040003DF9
:104D80000020023D0040DF3C0040B73C00C0813CB9
:104D90000000293C0000153C0000E03A000056BB32
:104DA0000000DFBB000017BC000024BC00801ABC60
:104DB000008038BC000014BC0000E1BB00000BBC4C
:104DC000008020BC000013BC0000ECBB0000BFBB97
:104DD000000056BB000038BA0000C43A00009C3AFC
:104DE0000000343B00009E3B0000FD3B00800B3C7C
:104DF0000000D83B00007C3B0000523B0000E03A42
:104E0000000028BB0000F6BB000036BC00006EBCF2
:104E1000000098BC0080B3BC0080D1BC0040E3BC63
:104E20000040CEBC0080C3BC0040B0BC00C082BC0F
:104E3000000023BC0000C7BB00002CBB00000039F1
:104E400000005E3B0000BD3B0000EC3B00800F3CDF
:104E50000000243C0000273C00803B3C00807B3C61
:104E60000000893C00C0923C0040B73C0000BC3CC4
:104E70000000CC3C0080CB3C0040B83C0040943C5F
:104E80000080803C00806A3C0000D63B000038BABD
:104E90000000A5BB00800EBC00805CBC000064BCB0
:104EA000000087BC004085BC00C098BC000097BCD7
:104EB00000009FBC00C0A7BC0000A5BC0040A8BC6F
:104EC00000C098BC00005FBC00801ABC0000A1BB01
:104ED0000000F03A0000333C00C0813C00009F3CE1
:104EE0000080D23C0040E63C0080E83C0000C93C29
:104EF00000009E3C00806B3C0000233C0000083A10
:104F0000000006BC00408ABC0040B8BC00C0EABC3F
:104F1000000004BD006009BD002008BD004007BDC1
:104F200000800ABD00400ABD0040FBBC0000DABCA6
:104F30000080B4BC00007CBC000022BC000098BA19
:104F40000080123C0000653C00C0BF3C00A0003D5A
:104F500000E00F3D0000263D00402C3D0080293D33
:104F60000020353D00A0263D00001A3D00400A3DCE
:104F70000040D73C0000A63C00803C3C00005A3B6F
:104F80000000A4BA00801CBC00806BBC0040A1BC27
:104F90000000ADBC00C0B1BC00C0BFBC00C0B0BC14
:104FA00000C09ABC008076BC008038BC0000F9BB11
:104FB00000006CBB0000BCBA0000F03900004E3BA2
:104FC0000000A53B00802B3C00805B3C0080683CDF
:104FD00000C0813C0000713C0000313C00004A3BB5
:104FE0000000B0BB008011BC00806CBC0000D9BCCC
:104FF00000C0FBBC002008BD00000ABD004015BD7C
:1050000000E014BD00800FBD0000F7BC0040C8BC2C
:1050100000808EBC00802ABC000090390000513C0A
:105020000080A33C0000E83C0040123D0020243DED
:1050300000C0243D0040293D0040223D00E01F3DCE
:105040000020233D0000163D0000FE3C0040C83C0F
:1050500000C0913C00801D3C0000943B0000403AA1
:1050600000008DBB000098BB0000F9BB000004BC31
:105070000000C3BB0000FDBB000004BC0000D8BBA7
:105080000000ECBB000096BB0000D8BA0000D43A88
:105090000000923B0000BF3B0000BF3B0080013C92
:1050A0000000E13B00002C3B000074BB000047BC4B
:1050B00000008DBC0000D3BC0000F7BC00E00CBDBC
:1050C00000E005BD00E010BD004004BD00C0DEBC36
:1050D00000C0C0BC00808EBC000050BC000006BCFC
:1050E000000094BB00000A3B0000D43B0000CB3B17
:1050F0000000053C0000423C0000423C0000563CE1
:105100000000713C0000903C0040983C0040B03CE6
:105110000080BB3C00C0C03C0040B73C00C0A13C8C
:1051200000008E3C00803E3C0000EC3B0000563B03
:105130000000CCBA0000D8BB000026BC000023BC95
:105140000000E7BB008010BC0000E9BB0000E9BB29
:105150000000CEBB000068BB00005ABB0000283A2C
:105160000000643B0000C53B0000553C00C0993C7A
:105170000080B53C0040EE3C00400E3D0080193DF3
:105180000040253D00C0203D0040253D00C0303D91
:1051900000001D3D00C00E3D0080EE3C00C0B13C53
:1051A0000000803C0000AB3B0000DBBB000080BC8B
:1051B0000040EDBC00A01CBD000040BD00A04CBDE7
:1051C00000804DBD000062BD00E05ABD006050BDD2
:1051D000002050BD00004BBD00804BBD002032BD03
:1051E00000802DBD004022BD006005BD00C0D5BCC3
:1051F0000080BBBC00007CBC0000FDBB00004EBBBF
:105200000000D83A0080213C0080803C0080C43CF3
:105210000080E73C00A0093D00E0133D00A01B3DDD
:105220000040153D00200D3D00C00B3D00C00D3D70
:105230000040E43C0040C53C0040CF3C0040C63C40
:1052400000C0B73C00C0C53C0040D03C00C0CD3CD5
:105250000000DA3C0040D43C0080DB3C0080E03CB5
:1052600000C0CD3C00C0CE3C00C0C53C0040913CDD
:105270000080203C0000923B0000403B0000A9BBA6
:10528000008048BC008078BC0040A3BC0040B7BC94
:105290000000E7BC0000F9BC00A001BD008002BD19
:1052A00000C0F2BC0000F6BC0040F5BC008002BDAE
:1052B0000000F8BC00C0FCBC006001BD0040E4BCC4
:1052C0000040C5BC000065BC0000ABBB0000C43A98
:1052D00000802C3C0040993C0000B33C0000CA3CDC
:1052E0000000AC3C00C0B03C00009C3C0000513CC5
:1052F0000000363C0000C13B00001E3B000070BABD
:10530000000056BB0000BABB0000D4BB0000EABBE3
:105310000000ABBB008020BC00803ABC00805DBCBC
:1053200000C089BC00C092BC0040B9BC0000E3BC16
:105330000040E3BC0040E6BC00C0BEBC00009DBC19
:1053400000806ABC000027BC00002CBB000000B934
:105350000000463B0080113C0080803C00008E3CF9
:1053600000C0CC3C00C0ED3C0000F13C00C0E53C7E
:105370000000E73C0080F93C0020023D0080023D37
:1053800000C00E3D00800A3D00A0083D00A00D3D7C
:105390000000FF3C00E0133D0020103D0040193D9F
:1053A00000003B3D00E0413D00E03D3D0020363D3A
:1053B00000001A3D0080CA3C0000FB3B00804DBC51
:1053C00000C0E6BC00002CBD00005EBD00407FBDFB
:1053D000003082BD004089BD00B084BD00A076BD14
:1053E00000C06FBD00606BBD00806BBD00A063BDE1
:1053F00000C055BD00404EBD008037BD0000F2BC6E
:1054000000C08BBC0000EABB00001A3B0000E13B7F
:105410000000413C0000803C00007C3C00007C3CE3
:105420000080A33C0080B33C00C0C03C00C0BE3C38
:105430000040C73C0040B63C0080AB3C0000503C04
:105440000000F83A000024BC008097BC0040B1BCCA
:1054500000C0CFBC0040B0BC00804BBC00008FBB84
:105460000000DD3B0080A33C00A0013D00E04F3D7B
:1054700000208B3D0050AF3D0060C53D0000BD3DAC
:1054800000E0A23D00C0653D0080F13C0000E73B2C
:1054900000801DBC000054BC008020BC00802FBCDC
:1054A0000000B8BB0000F0BA0000F0B90000C9BBB2
:1054B000008058BC0080DFBC00601FBD00403BBDC9
:1054C000008056BD00203ABD0040FDBC004083BCBA
:1054D00000008DBB0000A73B0000D03B00001E3B3E
:1054E0000000B0BB00C084BC0080D1BC00C00DBDBA
:1054F00000C02FBD004034BD00E036BD00C028BD57
:1055000000E035BD006050BD006058BD00606ABD60
:1055100000A081BD00E06EBD002051BD00E01ABDBD
:10552000008087BC0000A53B00C0C03C0020333D8C
:105530000090823D00109D3D0080AA3D00F0AE3DF0
:1055400000E0AC3D00A0AE3D0070AF3D0080B93D35
:105550000020CA3D0070CB3D00A0C83D0000B63D14
:1055600000B08D3D00A03C3D00009D3C0000F4BB20
:105570000080BDBC00A009BD00E018BD00E031BD49
:1055800000A04FBD004056BD00A06DBD00C083BD52
:1055900000D091BD009096BD00D0A1BD000094BD8B
:1055A00000407BBD00C033BD00009DBC0000A93B96
:1055B0000000D93C00A0323D00E0543D0080563D43
:1055C0000040333D0060103D0000C23C00007C3BC9
:1055D000000045BC0000EFBC008025BD000029BDD7
:1055E000002027BD000040BD00E05EBD004078BD4A
:1055F000001088BD00A085BD004078BD00404BBDB7
:105600000000FFBC004093BC000089BB00801C3C34
:105610000040843C0000DB3C0060143D00601C3D09
:105620000000403D00A0533D00406C3D00C0903D57
:105630000040A33D0020C33D00C0D73D0010F13D18
:105640000060FF3D00A0FD3D00D0EC3D0030BE3DC0
:105650000020833D00C0D43C008012BC00202ABD45
:10566000004078BD001095BD00D0A3BD00C0A1BD15
:1056700000109DBD003095BD00008DBD00008DBDAA
:1056800000F089BD00C07EBD00A062BD00E022BD6B
:1056900000C0C8BC000068BB0040A33C00E0013D66
:1056A00000E00F3D0060093D0040C53C0080293C02
:1056B0000000BCBB00C0B1BC000017BD008033BD02
:1056C00000A03ABD00C019BD0000CCBC00005FBC0A
:1056D00000804CBC004091BC00C0E6BC00A01EBDD8
:1056E000000047BD00204CBD00804ABD00202EBDFB
:1056F00000000FBD0080E0BC00008FBC00800DBC2E
:105700000000000000C0823C0000FE3C00E02E3D96
:105710000040683D00408E3D0020A13D0010B13D9D
:105720000060C63D0010DE3D00C0ED3D00C0F13D13
:105730000080E13D0050CD3D0070A93D0080563D08
:105740000080BC3C000090BB0080E0BC00C015BDE8
:10575000004015BD000013BD00400ABD0080CABC5A
:1057600000C0B6BC0080E9BC0080E8BC006018BD89
:10577000004030BD00602FBD00E027BD00C0F5BC7B
:10578000008030BC0000153C00C0BE3C00800B3DDA
:105790000040043D0040DE3C0000723C000038BB8D
:1057A00000809DBC000012BD008052BD00E072BDB3
:1057B00000508BBD00308DBD00A07DBD00606BBD75
:1057C00000405ABD000065BD00A06ABD00605CBD20
:1057D00000A045BD00401DBD00C0E3BC000070BC82
:1057E0000000E8BA0000893B00803A3C0000803CA1
:1057F0000080C23C0080E03C0040003D00001E3DB7
:105800000000383D00805C3D00807F3D0060893DA8
:1058100000D0983D0040AE3D00B0C03D0080CC3D82
:1058200000B0C53D00A0B73D0020903D0040243DA4
:105830000080303C008075BC004015BD002042BD9A
:1058400000A040BD004031BD00C007BD00C0BEBCCF
:1058500000408BBC004091BC0040B1BC00C0FBBC10
:1058600000A01BBD00C015BD0080F9BC008080BC3D
:1058700000800C3C00A0093D0020483D00E07D3D3B
:1058800000D0893D00E0723D00A0403D00C0023DD7
:105890000000883C0000603A00009EBB000056BC3F
:1058A00000C0AABC0080B2BC00C09FBC00809FBCEE
:1058B0000040E4BC00202EBD00606DBD002092BD04
:1058C00000D0A1BD0090A7BD00F0A3BD00D098BD41
:1058D00000A08CBD002076BD00C056BD00204DBD8F
:1058E00000802DBD00C00ABD0000C5BC00806ABCA0
:1058F0000000983A00808E3C00800A3D00E0693D3F
:105900000090983D0020BB3D00A0E23D0020023EFB
:1059100000E8043E00A8063E0080F13D0090C73D2F
:105920000070953D0000303D00809F3C0000D43A5F
:10593000000004BB000026BB000000B90000003BD3
:105940000000083B00802ABC0040A7BC000017BD37
:1059500000C06BBD00008FBD00808EBD00C077BD54
:10596000000025BD008047BC00009C3B0040B93CC6
:105970000080023D00C0E33C0000A53C0000263C46
:1059800000009ABB00004FBC000086BC00C082BC77
:105990000080A5BC00409ABC000050BC00806CBCDC
:1059A000008066BC0040B2BC004012BD002032BD89
:1059B00000E02ABD00401ABD0040CDBC00803BBCC9
:1059C0000000A4BA0000323C00808D3C0080A43C62
:1059D00000C0913C0080793C00007D3C0000323CDE
:1059E0000080383C0080573C00809D3C0000EF3C2C
:1059F0000080343D00607D3D00109D3D0090AB3D3A
:105A00000010A03D0050973D00A0693D0080B33CD0
:105A1000000098BB00A001BD00604FBD00E07DBD4F
:105A200000E069BD008046BD00C020BD0040C6BC8E
:105A300000808EBC000081BC000047BC0040A0BCC0
:105A40000040BEBC008029BC0000E83A0040923C07
:105A500000003C3D0040903D0040AC3D00F0BA3DB0
:105A600000A0A63D00607C3D0060183D00808E3C9B
:105A70000000B0B90040AFBC0080FDBC002014BDE8
:105A800000A02EBD00C030BD00C047BD00E071BD0C
:105A9000003088BD00509EBD00A0B3BD00C0B9BDA0
:105AA0000090B8BD0050A4BD00E06EBD00802CBDCC
:105AB0000040C0BC0000BFBB00804C3C00C0CF3CDD
:105AC0000060023D00E02E3D00405E3D0010863D3E
:105AD0000090963D00F0B03D0080BF3D00A0C63D67
:105AE0000040CE3D00C0DB3D0040F73D0040F23DB0
:105AF00000B0CF3D0050B33D00A05E3D0080653C4E
:105B00000040B1BC00A05ABD004096BD0050AFBDE2
:105B10000050A8BD00809BBD001086BD00604DBD3B
:105B200000C037BD00803FBD00C047BD000069BD5B
:105B300000605CBD00C02FBD0080ADBC00004E3BCE
:105B400000C0193D00808A3D00C0AE3D0070C93DD7
:105B500000B0C53D00A0A83D00D0833D00A0393D68
:105B60000000F03C00408B3C00001A3C00800F3CE1
:105B70000000783B00000BBC0040EDBC004037BD8E
:105B800000C07ABD00E0B1BD0080CEBD0050D6BDE2
:105B90000090D4BD0080BDBD0050A4BD008083BD79
:105BA00000404ABD00201CBD0000ABBC008066BCAC
:105BB000008002BC0000223B0000FF3B00805B3CF9
:105BC0000080BC3C0020093D00404A3D0090823DE1
:105BD00000209C3D00C0BD3D0090E13D00A0E83D9F
:105BE00000F0DA3D00A0C63D0050823D0000003DBF
:105BF0000000A1BB0080EFBC008033BD00403FBD72
:105C0000006023BD00200CBD008076BC00803FBC3E
:105C1000000070BC004089BC0040BFBC00E00BBD70
:105C20000080C3BC000094BB0080653C0000343D94
:105C300000F0943D0050A93D00F0B23D0040AA3D67
:105C40000060753D00A0003D0080763C00005EBB1A
:105C50000080B5BC004091BC000063BC000009BCE2
:105C6000000008BB0000DBBB0000D2BC00C034BD9C
:105C700000D080BD0000AEBD00D0BEBD0090B6BD5E
:105C800000A09DBD00007FBD00603ABD0080E8BC63
:105C900000C0BEBC00C0A9BC000052BC0000F9BBE3
:105CA000000070BB0000183A0000BA3B0080013CC5
:105CB0000000B33C0020063D00A0083D00C02B3D85
:105CC00000A07C3D0000AB3D0080CA3D0030C83DD7
:105CD0000030C93D0030AF3D0040433D0080673C8F
:105CE0000080BBBC00A040BD00C081BD008078BD6D
:105CF000002060BD00C02BBD0000C4BC00C0AFBC14
:105D00000040B2BC0080C1BC0040D4BC00C0ECBCB0
:105D10000000D0BB0080BA3C00E03C3D00009F3D4D
:105D20000030D83D0070D83D0070CB3D00E0933D81
:105D300000C0ED3C00800BBC00E00CBD004064BD29
:105D4000000080BD00604DBD00800BBD0000DDBBCC
:105D50000000683B0000F23B0000D4BB0040AFBC39
:105D600000401DBD00205BBD00C051BD00C033BD63
:105D7000000003BD00801ABC0000F0B90000CE3B5B
:105D80000000043C0000E93B0000E93B0000223B2E
:105D90000000ADBB0000BFBB0000F83B0000643C4E
:105DA00000C0CD3C0000253D00604C3D00A0723D90
:105DB00000A0A13D0050C73D0090AB3D0000873DD5
:105DC0000040283D008088BC00C06CBD0060D0BD94
:105DD0000080F5BD00E0FEBD0030D1BD00C092BD29
:105DE000004029BD000090BB00800C3C00803B3C83
:105DF0000080393C0000803B00008FBB0000533C1A
:105E00000040303D0020793D0040B43D0010DE3DB3
:105E10000000C73D00B09A3D00001A3D000094BB51
:105E2000004043BD00A090BD009095BD007086BDB0
