:020000042000DA
:04035C0000787FBFE7
:1003600000A8E6BE00B0AF3D0070E73D00F0E13D03
:1003700000C0D93D00D0D03D00D0CB3D0050C73D9E
:100380000030C23D0030C03D00F0BD3D0070BA3DC0
:100390000060B73D00C0B53D00C0B03D0040AE3D7F
:1003A0000050AB3D0040A93D00E0A63D00B0A33D9C
:1003B0000090A03D00309E3D00E09B3D00A0993D97
:1003C0000030973D0040943D00F0903D00808E3D10
:1003D00000708D3D00B08B3D0000893D00D0823D16
:1003E0000060833D00B0823D00407F3D00007C3DC9
:1003F0000060793D0060723D00606E3D0000693D27
:100400000040683D00E0623D0040603D00A05B3D73
:1004100000E0573D0040553D00A0503D00E04B3D01
:1004200000404A3D0040473D0000443D00A0403DA3
:1004300000003C3D00203A3D00A0363D0060363DC6
:100440000000303D00802F3D0080293D0040283DC8
:100450000000253D00C0213D00401E3D00001D3D27
:1004600000001A3D0040163D00E0143D0000123D22
:1004700000A00C3D00600C3D00400B3D00000A3D1B
:1004800000C0063D00A0043D00E0013D0040003DED
:1004900000C0F93C0080F13C0040EC3C0080EA3CAC
:1004A0000000EA3C0040E33C0000E03C0080DA3C15
:1004B0000080D93C00C0D43C00E036BD0060A1BD46
:1004C000002089BD00C05DBD008029BD00C0EABC20
:1004D000000088BC0000BABB0000B23B0000723CC8
:1004E0000080C93C00000F3D0060363D0000533DD8
:1004F0000040733D0000893D00A0943D0020A33DD5
:100500000080B23D0030BE3D0050C93D0060D53D89
:1005100000A0DD3D0050E53D00E0ED3D0020F63D52
:100520000060FD3D0040033E0050063E00A8083E2E
:1005300000580B3E00480E3E0050103E00E8123EB0
:1005400000F0143E0000163E0000173E00C0183EAA
:100550000078183E00E0193E00281A3E00C01A3EFE
:1005600000581B3E00C01B3E00481B3E00181B3EAF
:1005700000581C3E00481C3E00481B3E00C01B3E6D
:1005800000081C3E00B01A3E00A01A3E0048193E6A
:1005900000D0183E00C0183E0038183E0058183EE3
:1005A00000A8173E0078153E00F0133E00F8123EFA
:1005B0000008123E0098113E0090113E00B8103E17
:1005C00000180F3E00500E3E00580D3E00180C3E25
:1005D00000D00A3E0078093E0010093E0078073E30
:1005E0000078053E0070043E0030033E0040023EAD
:1005F0000060FF3D00A0F93D0030F63D00D0F23D27
:100600000000F23D00A0EF3D00A0EC3D00B0E93D50
:100610000020EA3D0020E83D0060E83D00E0E23DCA
:1006200000C0DE3D00C0D93D00F0D43D00B0D03D5B
:1006300000B0CD3D00F0CB3D00D0C93D0090C53DA0
:1006400000E0C43D00C0C43D00B0C13D00A0BD3DC0
:100650000020BA3D0060B73D00A0B23D0010AF3DA4
:100660000090AD3D0030A83D0030A03D00609D3DB4
:100670000070983D00F0963D00C0953D00A0953D6E
:1006800000C0923D0070933D00F0903D00408E3DD3
:1006900000D08B3D00608A3D00D0853D0020833D29
:1006A0000050803D00E07D3D00E07C3D0080773DD6
:1006B0000080703D00E06A3D0080653D00E0623DE5
:1006C0000060633D0000653D0060633D00605C3D8F
:1006D00000A05A3D0080553D00E0503D00204D3DBA
:1006E0000000473D0060403D00003C3D00E03C3DD7
:1006F00000803B3D00003B3D00A03C3D0060363D9E
:100700000040343D00C0303D00E02A3D00A0273DC0
:100710000000213D00C0193D00E0143D00A0143D43
:1007200000E0103D00C00A3D00400A3D00000A3DC7
:1007300000200C3D0060083D00E0043D0000FF3C4F
:100740000080F63C0080F93C0000F23C0000F13CE7
:1007500000C0EB3C0000E23C0000E83C00C0DE3C96
:100760000080E03C0000D33C00C0CE3C0000CC3C0C
:1007700000C0C73C0040B63C0000B33C0000AC3CAD
:100780000000AD3C0040B23C0080AD3C0040A13CCC
:100790000000903C00008F3C00408A3C00C08C3C34
:1007A00000C0813C00007E3C0080763C00807A3CAA
:1007B00000807A3C0000713C00C0843C0080883C92
:1007C0000000863C00C08B3C0040923C00C0933C43
:1007D00000408A3C00C0833C00806C3C0080663C4A
:1007E00000806A3C0000723C0080773C0080773CCF
:1007F00000006E3C0080673C00804B3C0080563C13
:100800000000453C0000413C0000323C0080293C97
:1008100000802C3C0000353C0000343C0000313CA2
:100820000000363C0000373C0000283C00801A3CA9
:100830000000183C0080123C0000163C00801E3C6A
:100840000000233C00801A3C0080123C0000233C46
:1008500000800B3C0000183C0000093C0000DF3B1E
:100860000000D63B0000D23B0000C93B0000B43B77
:100870000000A13B00009F3B0000563B0000873B6F
:100880000000403B0000703B00009F3B0000A53B88
:100890000000B63B0000AE3B00008D3B00009A3BE1
:1008A0000000873B00007C3B0000923B0000853B42
:1008B0000000893B0000A73B0000A53B0000A13BD6
:1008C0000000783B00004E3B00001A3B0000263B36
:1008D0000000B43A0000803A0000703A0000883A04
:1008E000000080B80000803800000000000000B95F
:1008F0000000B4BA000016BB0000B4BA0000E8BAA9
:100900000000E8BA000080BA000040390000A43AB4
:100910000000CC3A0000503A0000183A000080383D
:10092000000000000000F0B90000B0B9000040393C
:10093000000028BA000028BA000040B9000080BAC0
:10094000000000000000503A0000903A00004039DA
:1009500000004039000080BA000080BA0000003971
:100960000000383A0000D0B9000040B90000283A31
:1009700000000039000000390000383A0000B43AA5
:100980000000083A000080380000083A0000CC3A25
:100990000000083B00001E3B0000CC3A0000CC3AAF
:1009A0000000D83A0000F03A0000163B0000383B47
:1009B00000001E3B0000E03A0000603A0000B03941
:1009C0000000803800000000000000390000F0390D
:1009D000000040390000183A0000F0390000383AB1
:1009E00000008038000080B9000050BA0000D8BA7A
:1009F000000026BB000046BB000052BB000008BB45
:100A000000002CBB0000F8BA0000A4BA0000E8BA4D
:100A10000000E0BA000000BB000004BB000098BA70
:100A2000000040BA0000CCBA0000F8BA000008BBD1
:100A30000000E8BA00001ABB0000E0BA000000BBEA
:100A4000000004BB00009CBA000028BA000040BAB5
:100A50000000ACBA0000ACBA000012BB000008BB3A
:100A6000000016BB000030BB00000EBB00000ABB3C
:100A7000000028BB000026BB000052BB000070BB7A
:100A8000000052BB000038BB000028BB0000D4BAF5
:100A9000000038BA00000ABB00000EBB0000D4BA48
:100AA0000000B0B90000D0B9000040BA000070BA30
:100AB000000080BA0000F0B9000000000000183A01
:100AC0000000403A00000039000040BA000018BAA7
:100AD000000080B80000D0B90000F0390000AC3A46
:100AE0000000283A0000383A00000000000008BA70
:100AF000000080B80000000000000ABB000070BACF
:100B00000000E0BA000004BB0000F8BA000028BAF8
:100B10000000B0B9000090BA000088BA000028BAFE
:100B20000000E8BA000040BB000028BB00003CBB4E
:100B300000009CBA00000000000080B90000F0B97D
:100B4000000090B90000ACBA0000E0BA0000A4BAFE
:100B50000000B4BA000060BA00008038000060BA3B
:100B6000000080BA000088BA000098BA000080BA7D
:100B700000000ABB00003CBB0000E0BA0000F0BA75
:100B80000000F0B9000040BA000080BA000080B94F
:100B900000009039000000B900000000000080381B
:100BA000000040390000603A00004039000080B980
:100BB0000000B4BA000098BA000050BA00000ABBA6
:100BC000000028BB000038BB0000F0BA000098BA53
:100BD000000088BA000060BA0000B4BA000090B902
:100BE000000000B90000F0B9000040BA00008039F0
:100BF0000000F03A00004A3B0000813B0000523BFD
:100C000000009C3A000080B90000F0B90000D0B9A3
:100C10000000083A0000AC3A0000A43A0000A43AF0
:100C20000000B43A0000B43A0000D43A0000383A68
:100C30000000503A00009039000000B90000983AD6
:100C40000000003B0000123B00000E3B000000399A
:100C500000009C3A0000D0390000603A0000283AB9
:100C6000000080B80000B4BA000038BA000060BAD2
:100C7000000080B80000283A0000000000003CBBE3
:100C8000000062BB0000F0BA000000000000F03974
:100C9000000000390000C4BA000004BB0000F0B935
:100CA000000000000000803A00009C3A00000000B4
:100CB0000000F0B9000000B9000040BA000080BA9E
:100CC0000000F8BA000098BA000080BA000080392D
:100CD000000080380000D039000000000000383AE1
:100CE000000080B8000028BA000060BA00000000D0
:100CF0000000F0B90000B43A0000303B0000223B95
:100D00000000BC3A000018BA000080B9000028BA00
:100D100000000000000080380000383A00009C3AD3
:100D200000001A3B0000803A0000A43A0000B43AE8
:100D30000000A43A0000D039000040BA000050BAC8
:100D40000000903A0000163B0000D83A0000003B3B
:100D50000000883A0000D83A00002C3B0000263BF7
:100D600000004A3B00001A3B0000E03A0000C43A91
:100D70000000283A0000B4BA0000A4BA000070BA1B
:100D80000000B039000000000000283A00000039DF
:100D9000000028BA000038BA000040BA000008BAC3
:100DA000000050BA0000A4BA00001ABB0000E0BA6C
:100DB000000050BA0000B0390000603A00009C3AD0
:100DC0000000CC3A000080390000000000009CBA0E
:100DD000000060BA000040BA000090BA0000283A53
:100DE000000040390000603A000000000000B03907
:100DF0000000ACBA0000BCBA000088BA0000B4BA67
:100E00000000F8BA000026BB0000D8BA0000BCBA47
:100E1000000080380000703A0000B0390000803ACD
:100E20000000183A0000D0390000983A0000D83A83
:100E30000000383A0000603A0000503A0000003BE1
:100E40000000E83A0000043B0000803A00009C3AB1
:100E50000000183A0000403A0000D43A0000F83A86
:100E60000000B43A00000000000000000000B43AA6
:100E70000000303B0000403B0000853B0000263B6B
:100E80000000983A00009C3A0000283B0000C43A59
:100E9000000000390000A4BA000050BA0000403A37
:100EA0000000803A0000A43A000080B80000BCBAFC
:100EB00000003CBB000030BB00001EBB000080B93E
:100EC000000050BA000080380000D03900004039DE
:100ED0000000E8BA000080BA0000B43A0000883A86
:100EE0000000703A0000083A0000283A0000983AE2
:100EF000000060BA00000EBB000090BA0000D4BA37
:100F00000000ACBA000050BA000008BA000050BAA5
:100F1000000038BA000088BA0000A4BA0000F0B996
:100F200000000000000080B90000083A000080398D
:100F3000000028BA00002CBB00009CBA000008BAD0
:100F4000000040B90000B4BA00000ABB00003CBB7E
:100F50000000E0BA0000E0BA0000F0BA00000ABBEE
:100F60000000ACBA0000B4BA0000403A000080B8FB
:100F70000000B4BA0000D0390000883A0000E03A1E
:100F80000000E83A000080380000E0BA000070BAC3
:100F9000000028BA0000D83A0000B0390000D83A62
:100FA0000000883A0000183A0000283A000090B982
:100FB000000000000000E0BA0000D8BA00001EBB2C
:100FC00000000ABB00000EBB000080B800008038A3
:100FD0000000B0B900000EBB0000BCBA000012BB9C
:100FE00000009CBA0000183A0000D83A0000B43A59
:100FF0000000803A0000603A0000903A000080B89B
:101000000000383A00000000000090BA0000A4BAC6
:10101000000000000000283A0000C43A0000F03947
:101020000000183A0000183A00000039000088BAA1
:10103000000038BA0000183A0000183A000090B9D1
:10104000000080BA000028BA000050BA000000007A
:10105000000038BA000090BA00000EBB0000B4BA1D
:10106000000060BA000060BA0000B0B90000F0B93A
:10107000000038BA000000B900008038000000B954
:10108000000050BA0000503A0000123B0000223B22
:101090000000443B0000403B00004E3B0000523B40
:1010A0000000463B0000383B0000803B0000563B00
:1010B0000000083B0000BC3A0000283B0000263B33
:1010C00000001E3B0000D039000080390000083AC3
:1010D00000001A3B00007C3B0000813B0000F83A16
:1010E0000000983A00000A3B0000223B00006C3BE5
:1010F0000000683B0000463B00003C3B0000923B88
:1011000000005A3B0000623B0000BC3A00009C3AE1
:101110000000503A00009C3A0000403B00008F3B2A
:101120000000873B00008F3B0000703B0000383B15
:101130000000123B0000883A0000183A00009C3A78
:101140000000083A00000039000008BA0000903999
:10115000000080B8000080B9000090390000383AE3
:10116000000028BA0000A43A000000390000983AB4
:101170000000883A00009C3A000080390000D03915
:101180000000C43A0000E03A0000383B0000463B53
:101190000000383A000080B90000F03A0000F03A50
:1011A00000005A3B0000443B0000D039000080B9E9
:1011B0000000383A0000403A0000CC3A0000303BD2
:1011C0000000F03900004EBB0000283A000028BBA8
:1011D000000026BB000080380000623B0000B039F0
:1011E00000004A3B0000B0390000123B00000E3BFB
:1011F000000040B90000043B0000883A000080393C
:1012000000009039000038BA000098BA0000CCBA4B
:101210000000D0390000783B0000523B0000223B28
:101220000000AC3A000090BA00009C3A00001E3B5F
:101230000000043B0000B0390000F0B90000D83ACB
:101240000000F03A0000E83A0000D03900000A3B04
:10125000000008BA0000603A000080B800000000FA
:10126000000040B90000703A0000F03A0000603A17
:101270000000D83A0000E83A0000B0B900002CBBEA
:10128000000034BB000044BB000050BA0000D0B9DD
:101290000000A4BA0000A4BA000060BA000008BBB5
:1012A0000000C4BA00008DBB000090BB0000A9BBC9
:1012B000000070BB0000F0BA000090BA000060BAF5
:1012C000000008BA000018BA000052BB000056BB6C
:1012D0000000BCBA0000BCBA0000D4BA000060BA7A
:1012E000000008BB000018BA0000883A0000D0B91E
:1012F00000002CBB00007CBB000040BB000000B91C
:101300000000283A000018BA0000C4BA000040BB30
:10131000000028BA0000B039000028BA0000F0BA76
:10132000000038BA000080B80000703A0000883A27
:101330000000B43A0000703A000050BA000026BB2A
:101340000000D8BA000080B800000000000018BA01
:10135000000040390000403A000080380000F039B9
:101360000000883A00009C3A0000383A000000393A
:101370000000CC3A00008038000080380000BC3A01
:1013800000004A3B00005A3B0000703A0000F0B9F0
:1013900000000000000038BA000040B900004039E9
:1013A0000000083A0000A43A00001E3B00001A3B6F
:1013B0000000C43A0000603A000080BA0000BCBAE5
:1013C00000000039000028BA0000B0B90000903ACF
:1013D0000000F0390000BCBA0000A4BA0000083ACE
:1013E000000000390000D43A0000C43A0000B0B94F
:1013F0000000B0390000703A0000083A0000703A6E
:10140000000050BA000080B90000903900000E3B87
:101410000000603A000090390000D0B9000090B997
:10142000000080BA0000A4BA000000BB000090BA1F
:10143000000038BA000004BB00000EBB000008BB6F
:1014400000008038000008BA00000039000070BABF
:10145000000060BA000070BA00000A3B000090393A
:1014600000009CBA000080BA000000B90000403AB9
:101470000000E83A0000043B0000603A000028BA8F
:10148000000050BA0000D8BA000000000000183A6E
:101490000000383A0000CC3A00003C3B0000813BA1
:1014A0000000623B00005A3B00004A3B0000833BC7
:1014B00000003C3B0000A43A00001E3B0000703BD3
:1014C00000006C3B0000223B0000123B0000003B90
:1014D0000000853B0000783B0000E83A0000403AFD
:1014E00000004039000060BA00000000000018BA97
:1014F000000080B800000039000040B900008039C9
:101500000000AC3A0000CC3A0000BC3A0000A43A1B
:101510000000503A0000803A0000703A0000403A63
:1015200000009C3A0000383A000080B80000183AE9
:1015300000000000000060BA00004039000018BA46
:101540000000BCBA000000B9000008BA000080B872
:10155000000098BA00001ABB000030BB000016BBA8
:101560000000D4BA000016BB000060BA0000C4BA84
:10157000000000BB000050BA000080B80000C4BAF0
:101580000000883A000000B90000283A00009C3AA8
:1015900000000000000040390000E83A0000D43AA2
:1015A00000009C3A0000083A0000003B0000D43ADA
:1015B0000000B43A0000AC3A0000263B0000563B65
:1015C0000000123B0000B43A0000B43A0000083AB0
:1015D0000000383A0000163B0000003B0000F03AE3
:1015E0000000703A00009039000080380000A43AF2
:1015F0000000503A0000C43A0000BC3A0000D43A5F
:101600000000503A0000E83A0000123B0000F03AB7
:101610000000D43A0000503A000080390000000079
:10162000000028BA00000000000000000000603A3E
:101630000000AC3A0000283B0000163B0000883A4E
:1016400000008039000080B80000403A0000083AED
:10165000000040390000C43A0000000000009CBABD
:101660000000D8BA000070BA0000B4BA000060BA36
:1016700000008039000080B9000070BA0000D0B9C5
:10168000000008BA000000390000983A0000BC3A97
:101690000000503A0000983A0000CC3A0000383A76
:1016A0000000A43A000040390000D0B9000080B921
:1016B000000000390000B43A00001A3B00000A3B69
:1016C0000000283A000000B9000000390000283A64
:1016D0000000A43A00009C3A00008039000028BABB
:1016E000000080B80000503A0000A43A0000403AE0
:1016F000000000000000E0BA000080BA000008BA54
:10170000000080380000F03A0000AC3A000000B958
:10171000000090B90000AC3A0000603A00009C3A2A
:10172000000040B90000183A000050BA0000083A22
:101730000000123B0000303B0000403B0000043B37
:101740000000503A000090B900000E3B0000283B1A
:101750000000AC3A000090B9000040B9000008BA9F
:1017600000008038000000390000F03900008039A6
:10177000000090B9000080B900009039000040B925
:10178000000040B90000283A000000000000403985
:10179000000000000000903A0000AC3A0000703AEF
:1017A000000000000000000000000000000040BA3F
:1017B0000000A4BA0000D0B90000F03A0000F03AEE
:1017C00000009C3A00008038000038BA0000383A27
:1017D0000000AC3A0000903A0000503A0000803916
:1017E0000000903A00008039000000000000F0394D
:1017F000000000000000F0B9000038BA000038BA5C
:10180000000070BA000008BA00000000000040B9F3
:10181000000090B9000040BA000008BA0000E0BA29
:101820000000D0B90000F0390000F03900009C3A07
:101830000000E03A0000E83A0000C43A0000AC3A88
:101840000000D43A0000C43A00008039000040B9DA
:10185000000040390000B43A0000B43A0000003BF8
:1018600000000A3B0000503A0000B0B90000503AB6
:101870000000C43A0000383B00003C3B0000803AC6
:10188000000080BA0000283A0000803A0000803A48
:101890000000AC3A0000E83A0000703A0000403A1C
:1018A00000009C3A0000383A0000F039000040394E
:1018B000000090B90000F039000040B9000088BA7B
:1018C0000000A4BA00009CBA000040BA000008BAA8
:1018D000000008BB000080BA000060BA00009CBA9B
:1018E000000040BA0000000000004039000000B9CC
:1018F000000080BA00000000000080380000F0B94D
:10190000000018BA0000083A0000F03A0000903ACF
:1019100000009C3A0000A43A0000163B0000303B57
:101920000000803A0000F0390000403A0000163B09
:101930000000CC3A00000E3B00000A3B0000E83AF1
:101940000000503A0000B4BA0000ACBA000000B980
:101950000000CC3A0000263B00005A3B0000163B3A
:101960000000983A000090390000B0390000383A81
:101970000000D0390000183A0000603A0000C43A74
:1019800000000E3B0000123B0000B43A0000B43AE5
:10199000000000000000F0B9000040BA000090B95B
:1019A0000000B0B900000000000000000000803915
:1019B000000080390000B0B9000018BA000040B93A
:1019C000000080BA000070BA000000390000383A08
:1019D000000000B90000383A0000603A0000603AA8
:1019E0000000983A000080380000D43A00000A3B1A
:1019F0000000043B0000E83A0000BC3A0000BC3A9A
:101A00000000903900009CBA000040B90000D039B5
:101A10000000B0B9000040B9000000B9000080B873
:101A2000000040B900008039000028BA000088BAE0
:101A30000000F0BA000060BA000090390000AC3A33
:101A40000000903A00008039000070BA000040BAEF
:101A5000000050BA0000C4BA0000E0BA000080B92B
:101A6000000000B9000040B9000080380000083ACA
:101A70000000403A000088BA00009CBA000090BA0A
:101A8000000080B90000F0B90000D0390000283A09
:101A900000009C3A0000E03A0000903A0000403913
:101AA0000000F0B900000000000000000000983ABB
:101AB0000000703A0000A43A0000F83A00001A3B17
:101AC00000005A3B0000263B0000BC3A0000383AB8
:101AD0000000903A0000803900000E3B00009A3B65
:101AE0000000983B00006C3B0000043B00009C3A67
:101AF0000000603A0000183A00000000000040B901
:101B00000000983A0000503A00008039000008BAFE
:101B100000008038000040B90000183A0000803909
:101B20000000403A000040390000BC3A0000903A02
:101B300000000039000008BA0000E0BA0000A4BAB2
:101B4000000090B9000080B8000018BA00009CBAEC
:101B50000000D8BA0000ACBA0000ACBA00009CBAD1
:101B60000000B0B90000F0B90000A4BA00001ABB30
:101B7000000000BB0000BCBA00000EBB000060BA51
:101B8000000038BA000038BA000028BA000080B857
:101B900000008038000050BA000008BA000080B988
:101BA000000008BA000000000000403900000000FA
:101BB0000000083A0000B43A0000983A0000703A79
:101BC0000000F83A0000F83A0000083A000000B9B6
:101BD00000000039000040B90000603A0000F03910
:101BE0000000000000009C3A0000BC3A0000B03940
:101BF000000000B90000D8BA0000C4BA00009CBAC6
:101C0000000040BA000038BA0000BCBA000090BA28
:101C10000000F0B9000060BA000000000000883A3F
:101C20000000123B0000383B0000123B0000283B44
:101C30000000263B0000883A0000403A0000283AA5
:101C40000000AC3A0000003B0000A43A0000163B44
:101C500000000E3B0000123B0000E83A0000083A8A
:101C60000000183A0000E83A0000CC3A0000403A80
:101C7000000040390000603A00000000000090B908
:101C8000000040BA000000B90000F0B9000080BABE
:101C9000000008BA000040B9000090BA000080B807
:101CA000000080390000D0390000503A000080392F
:101CB000000040B9000040B90000B0B90000403A4F
:101CC0000000CC3A00000A3B0000983A000050BAED
:101CD0000000B4BA000060BA000060BA000000B9A9
:101CE00000009C3A0000CC3A0000AC3A0000503AA8
:101CF000000088BA0000D8BA000070BA000060BACC
:101D00000000C4BA000090B9000000B9000000391A
:101D100000004039000070BA000090BA0000F0B92D
:101D20000000603A0000F83A0000F83A0000AC3ACF
:101D30000000B43A0000C43A0000043B00000A3B33
:101D40000000E03A0000A43A0000003B0000983A8E
:101D50000000083A0000043B0000263B00000A3B5C
:101D600000001E3B00000E3B0000F83A0000A43AC1
:101D70000000E83A0000163B00000E3B00000A3B62
:101D80000000003B0000AC3A0000E83A0000D43A02
:101D90000000E03A0000AC3A0000263B00006C3B3B
:101DA0000000403B00001A3B0000CC3A000000005D
:101DB0000000603A000090390000D0390000B0B94E
:101DC000000080B8000018BA000018BA0000F0B98E
:101DD000000080B9000000B90000B0B900000000A8
:101DE0000000E83A0000AC3A0000803A0000803978
:101DF0000000083A000040B9000000390000083A2D
:101E00000000F0390000BC3A0000D03900008038F2
:101E10000000803800009039000040390000B0B95F
:101E2000000040B900000000000060BA0000B0B936
:101E3000000080B9000000000000B0B9000080B8C8
:101E40000000403A00000039000000000000803827
:101E5000000090390000F03900009C3A00001E3B61
:101E60000000643B00009E3B00009C3B00007C3B6C
:101E70000000463B0000683B0000403B0000523B36
:101E80000000F83A0000D0390000383A0000E03A8B
:101E90000000303B0000163B00000A3B00009C3A6B
:101EA0000000903A0000603A0000D0390000B0B95C
:101EB000000090BA000090B90000403A0000283AB3
:101EC0000000F0390000403A0000983A0000403A23
:101ED000000000B900008038000080B8000080B821
:101EE0000000383A0000043B00004A3B00003C3B45
:101EF00000000E3B00009C3A0000383A0000F03928
:101F000000008039000000000000B03900009C3A59
:101F1000000008BA00004039000080390000283A6B
:101F20000000983A00001E3B0000123B0000903A6F
:101F30000000B0390000D0390000603A0000283AB3
:101F40000000E83A000040B90000D0B90000403A73
:101F50000000403A0000183A000090390000D039E3
:101F60000000503A0000903A0000883A0000883A99
:101F70000000003B0000CC3A0000603A00008038CE
:101F8000000040B90000983A0000BC3A00001A3B3B
:101F90000000263B0000343B0000123B00009C3A4E
:101FA000000090B9000060BA000040BA000080B89C
:101FB0000000000000000000000000B90000F8BAB6
:101FC000000038BB000089BB00006CBB000022BBD6
:101FD000000098BA000080390000B039000040B914
:101FE000000000000000D0390000283A0000803ACC
:101FF0000000F83A0000BC3A0000D43A00004E3B22
:102000000000833B0000703B00005E3B0000383B5B
:102010000000F83A0000E03A0000983A0000D03999
:1020200000008038000090B90000B039000070BA9C
:10203000000040BA000018BA0000E8BA0000B4BAC4
:1020400000000EBB000088BA000080B90000803993
:102050000000883A0000D83A0000703A0000000002
:10206000000080BA0000D0B900009CBA0000B0396E
:102070000000983A0000883A0000603A0000703A88
:10208000000040390000A4BA000040BA0000B0B916
:102090000000B0B900008039000080B8000040396D
:1020A0000000000000004039000040B9000090B975
:1020B0000000E0BA0000CCBA0000F8BA000040BA54
:1020C000000088BA0000C4BA0000CCBA000040BAD0
:1020D000000050BA000080B900000039000040B98B
:1020E0000000803A0000703A0000B43A0000B43AB0
:1020F00000009C3A0000903A000090390000403AFD
:102100000000383A0000403A0000B43A0000503A6B
:102110000000703A0000283A0000703A0000703A5F
:102120000000503A0000403A0000503A0000183ACF
:10213000000008BA000080B9000090B9000090BA11
:102140000000CCBA0000ACBA000070BA0000B0B910
:10215000000080B8000060BA000070BA000028BA21
:102160000000F0B90000B0B9000080B80000183AD3
:102170000000E83A0000A43A0000883A0000B039B4
:10218000000090B9000070BA0000D4BA0000D4BAC0
:10219000000098BB0000123B0000F83A0000E0BAD3
:1021A0000000C4BA0000C53B00000EBB000026BB07
:1021B000000089BB0080023C000000000000F4BB6E
:1021C0000000F8BA0000BC3A0000B0B90000F0B955
:1021D00000006C3B0000F83A0000443B0000123B5A
:1021E000000090B90000003B00005E3B0000803A18
:1021F0000000F0390000403B0000B0B90000003999
:10220000000080B8000050BA000080B9000090B90A
:102210000000983A00001E3B0000A53B0000C43AB5
:102220000000043B000038BA0000F0B9000040395B
:1022300000000A3B0000BC3A00000E3B0000E83AF8
:102240000000083A000040BA0000B0390000903A9F
:10225000000080BA0000383A0000403A0000043B19
:1022600000000A3B0000C43A0000003B0000403A76
:10227000000060BA000028BA000040BA000000B9AF
:10228000000080380000F039000080B8000000B97C
:10229000000040B90000D83A0000403B00004E3B2F
:1022A0000000983A0000E03A00001A3B0000403B72
:1022B0000000263B0000D83A00001E3B0000223BF5
:1022C0000000883A0000283A000000B90000F0B988
:1022D000000040BA000000390000703A0000083ADF
:1022E0000000D0390000283A000000000000D0397A
:1022F000000080B9000000000000703A0000E83AD9
:102300000000AC3A0000D83A0000D039000038BADA
:10231000000008BA000080380000083A0000B03918
:102320000000983A0000283B0000803A000038BACC
:102330000000F0390000283A00008038000000005A
:102340000000AC3A0000983A0000A43A0000403A7D
:102350000000083A000090B9000040BA000040BAFE
:10236000000070BA000040BA0000B0B9000088BA9E
:102370000000ACBA000018BA00009C3A0000E03A35
:102380000000BC3A0000B43A0000C43A0000E03A51
:102390000000703A0000803A0000403A0000283AFD
:1023A0000000C43A0000163B0000563B0000563BBC
:1023B0000000343B0000903A00009C3A000000000E
:1023C000000080B8000008BA0000D0B9000060BA70
:1023D0000000B0B9000080B8000080380000B039BB
:1023E00000008039000040B90000383A0000D039C0
:1023F0000000B0B9000060BA00004039000000B928
:10240000000080390000B0B90000183A0000503ACE
:102410000000B43A0000403A000008BA000090BA48
:102420000000E0BA000050BA0000803A0000F0B9A5
:102430000000B0B90000883A0000F83A00009C3A69
:10244000000080B80000383A000000390000403930
:10245000000000B90000A4BA0000E0BA0000CCBA45
:1024600000001EBB000034BB0000B4BA000008BA74
:102470000000B039000080B80000AC3A0000A43A77
:102480000000883A0000B43A0000D0390000703AE9
:102490000000183A0000403A0000F03900009C3A71
:1024A000000000B9000040390000B43A0000603A72
:1024B0000000603A000040B9000070BA000008BA9D
:1024C000000018BA000090390000183A0000CC3A19
:1024D0000000F0390000B0B9000080B8000050BA28
:1024E000000070BA000038BA000018BA000050BAF4
:1024F0000000D0B90000403A0000000000000000D9
:10250000000000390000383A0000883A0000B43A70
:102510000000E03A0000903A0000D83A0000D039BC
:102520000000703A0000883A0000B0390000003B1B
:102530000000A43A0000B43A00008038000080385F
:10254000000070BA0000E8BA0000D8BA0000F0B984
:10255000000018BA0000F0B90000B0390000000017
:10256000000040B9000040BA000038BA0000A43AA8
:102570000000503A000090390000503A0000BC3A88
:102580000000083A000060BA0000E0BA000090BA0B
:10259000000040BA000000000000083A0000883A3D
:1025A0000000A43A0000903A000000B90000B0B961
:1025B000000040B9000080BA0000E8BA000090BAFC
:1025C000000028BA000000B90000AC3A0000003951
:1025D000000040BA0000283A0000F0390000B0B90D
:1025E0000000D039000080B8000038BA000090B96F
:1025F0000000F0B9000000B9000000000000000079
:1026000000000000000040B90000BC3A0000183A89
:10261000000040390000903A0000883A0000983AE3
:102620000000A43A0000F83A0000F03A0000463BEF
:102630000000463B0000443B00000A3B0000083B12
:102640000000303B00001E3B0000AC3A0000E83ABE
:102650000000903A0000283A0000E03A0000163BE3
:102660000000343B00004A3B0000603A0000183A8A
:102670000000000000009039000008BA000000B916
:102680000000403900009039000090B90000F0B916
:10269000000080390000D0B90000D0390000803936
:1026A00000008039000000B9000080380000F0B957
:1026B00000000039000090390000383A0000B43AB8
:1026C0000000F0390000B0390000F039000090B986
:1026D000000080B8000080BA000090BA0000ACBAD8
:1026E00000009CBA000080B90000F0390000B43A44
:1026F000000000000000183A000080390000803916
:10270000000080B8000008BA00000000000080B996
:102710000000603A0000CC3A0000803A0000903A95
:102720000000803A0000403A00009C3A0000043B60
:102730000000F03A0000503A0000083B0000083B5F
:102740000000D83A00000A3B0000343B0000463B42
:102750000000283B00000E3B0000C43A0000003B94
:102760000000E03A0000883A00000039000090B90B
:10277000000018BA000090BA000088BA000040B902
:102780000000383A000000000000B4BA0000F0B9C0
:10279000000080B80000283A0000403A0000983A53
:1027A0000000D0390000183A0000883A0000AC3A26
:1027B0000000803A0000803A0000703A0000403982
:1027C0000000F0B90000B0B90000383A0000883AC3
:1027D0000000B039000090390000C43A0000003910
:1027E0000000B039000080B8000000000000803810
:1027F0000000383A000080B80000C4BA00004ABBAC
:10280000000040BB000046BB00000EBB0000B0391A
:102810000000AC3A00000A3B0000163B0000403BC1
:102820000000463B0000563B0000263B0000283AD3
:102830000000CCBA000034BB00000ABB0000D03955
:102840000000BC3A0000903A0000D0B9000080B807
:102850000000D0B9000090390000803A0000283A0A
:102860000000ACBA000022BB000080BB0000BABB75
:102870000000B6BB0000C1BB00009ABB000098BBC3
:1028800000004EBB00001ABB000040390000383B7E
:102890000000983B0000C73B0000BA3B0000783BBB
:1028A0000000F83A0000D039000080390000083AF2
:1028B00000009039000040B90000B0390000D83A5B
:1028C0000000703B0000E73B0000133C0000FB3BB6
:1028D0000000C73B0000443B000008BA0000D4BA27
:1028E000000028BA0000183A0000183A0000000062
:1028F0000000D4BA00000ABB000070BA0000883A99
:1029000000001E3B00000A3B0000403A000030BBC4
:10291000000085BB00008BBB000046BB000044BB31
:102920000000F8BA00009CBA000008BB000004BB1D
:10293000000070BA000080390000F03900008039D2
:1029400000008038000040B9000000B90000703A73
:102950000000503A0000523B0000303B0000003BBA
:102960000000383A0000383A0000043B0000623BA7
:102970000000343B0000F83A0000503A0000A4BACE
:10298000000016BB000038BA0000883A0000803A08
:102990000000803A00000000000008BA00009CBA65
:1029A000000088BA0000E8BA000034BB000030BB69
:1029B000000008BB000038BA0000503A0000D83AC6
:1029C00000005A3B00002C3B00003C3B0000903ACA
:1029D00000009C3A0000083A000080B800008038EF
:1029E0000000603A0000AC3A00002C3B0000A73B1E
:1029F0000000AE3B0000B63B0000C33B0000B03B14
:102A00000000BC3B00009C3B0000F03A000000B915
:102A1000000098BA000088BA000000B90000D03960
:102A20000000043B0000003B0000303B0000183A6F
:102A3000000090BA0000F0BA000040BB0000A9BB43
:102A40000000DBBB0000DBBB0000B0BB00008DBBA7
:102A5000000016BB000028BA000018BA000008BA2F
:102A6000000040B9000080B80000F03900000039D3
:102A7000000080B80000B0B90000F0B90000803953
:102A80000000383A0000883A0000B43A0000183AD2
:102A90000000D83A0000463B0000083B00000A3B1B
:102AA0000000F83A000090390000B0B90000E8BA20
:102AB000000008BB00004ABB000074BB000081BBE3
:102AC000000022BB0000D0B900000039000070BA3D
:102AD000000050BA0000B0390000CC3A0000D83AEB
:102AE00000000A3B0000903A00000A3B0000083B4F
:102AF0000000CC3A0000603A000050BA00000EBB63
:102B0000000044BB000040BB00003CBB000080BA9A
:102B1000000028BA0000403A0000B0B9000090B9A7
:102B20000000BCBA000000BB000034BB00003CBB8E
:102B300000007CBB000068BB000056BB00001EBB51
:102B4000000088BA000000000000343B00003C3B5D
:102B500000005E3B00003C3B0000643B0000893B02
:102B60000000C53B0000CC3B0000813B0000403B27
:102B70000000043B00004A3B00008D3B0000C73BC7
:102B80000000F93B0000EA3B0000BC3B0000923B28
:102B90000000683B0000463B0000263B00000E3B67
:102BA0000000E03A0000F0390000F8BA0000F0BA86
:102BB0000000D4BA000083BB0000D8BB0000ECBB0F
:102BC0000000E1BB0000CCBB00009ABB00003CBB96
:102BD00000001EBB00002CBB0000ACBA000038BADD
:102BE0000000163B0000A93B0000EE3B0000EE3B5E
:102BF0000000E73B0000D03B0000AD3B0000643B21
:102C000000005E3B0000803B00001A3B0000703A71
:102C10000000883A0000283A00008038000060BABE
:102C20000000ACBA000012BB000096BB0000B6BBAF
:102C30000000BFBB0000BFBB00009EBB0000A7BBE5
:102C40000000D6BB0000D0BB0000A7BB00009CBBAF
:102C5000000046BB00002CBB000050BA0000343B13
:102C60000000A93B0000E53B0000F63B0000E73B0D
:102C70000000E93B0000C13B0000963B0000683BC0
:102C800000001E3B0000683B0000A33B0000C13B6E
:102C90000000F93B00000B3C0080003C0000EA3BD8
:102CA0000000E93B0000DD3B0000CB3B0000B43BF3
:102CB00000009C3B00000E3B000012BB0000BABBB2
:102CC0000000DABB0000E3BB0000D2BB0000A7BBE2
:102CD000000078BB000044BB0000F0BA0000A4BABA
:102CE0000000A4BA00000000000080B80000AC3A68
:102CF0000000B43A0000803A0000D83A0000703B6F
:102D00000000343B000000390000CCBA000026BBB4
:102D10000000E0BA000008BA0000803A0000D83A8B
:102D20000000F83A0000E83A0000503A0000B0B95C
:102D3000000008BB000068BB0000A9BB0000CEBBC0
:102D40000000CBBB000081BB000004BB0000D0B979
:102D500000000000000090390000F03A0000343B11
:102D60000000263B0000703B0000983B0000AE3B9B
:102D70000000DF3B0000F63B0000F83B0000CC3BCE
:102D80000000B23B0000923B0000263B0000883A66
:102D90000000C43A00000A3B0000123B0000623B06
:102DA00000007C3B0000963B0000CC3B0000FB3B5E
:102DB0000000043C00800C3C0000E13B0000E73BCD
:102DC0000000043C0000CE3B00004E3B0000B03948
:102DD000000088BA000028BB0000A4BA0000283A0E
:102DE0000000D43A0000703A000000B9000008BAB0
:102DF0000000B4BA000012BB000088BA000008BB93
:102E0000000004BB000018BA00009C3A0000503AD1
:102E10000000F03A0000623B00005E3B0000853B92
:102E20000000903B0000CE3B0000F23B0000D63B90
:102E30000000923B00004A3B0000CC3A0000B03951
:102E4000000000000000C4BA0000D8BA000030BB87
:102E50000000ABBB0000C3BB000080BB000089BB0F
:102E6000000074BB00001EBB0000D0B90000503A47
:102E700000004E3B0000A93B0000B43B0000EA3BD1
:102E80000000E93B0080003C0080023C0000053C63
:102E90000000D83B0000963B0000743B00001A3B4A
:102EA0000000163B00003C3B0000CC3A00000A3B0F
:102EB0000000343B0000223B0000B23B0000F23B2C
:102EC0000000E73B0000983B00001E3B0000D83AA2
:102ED0000000903A0000803A000040BA0000D4BAE6
:102EE000000038BB000064BB00005ABB000083BB7D
:102EF00000008BBB00009EBB000083BB000030BB0A
:102F0000000056BB00009CBB00008BBB000074BBE4
:102F1000000028BB0000CCBA00009CBA0000D43AE4
:102F20000000623B0000983B0000C73B0000E93B0B
:102F30000080123C0000F83B0000FD3B0000CE3B4F
:102F400000004E3B0000403A0000F0BA0000C3BB56
:102F50000000DBBB008003BC0000F4BB0000B4BB7E
:102F600000005EBB000038BB00005EBB00005EBB23
:102F7000000078BB000022BB00009CBA0000D039E2
:102F80000000D43A0000283B0000523B0000643BA4
:102F900000007C3B0000B03B0000A93B0000EC3B84
:102FA0000000F83B0000EE3B00009A3B00008B3B2A
:102FB0000000E83A0000D83A0000163B00009C3AB6
:102FC0000000603A0000503A0000A43A00000000FF
:102FD000000038BA000052BB00009ABB0000AEBB34
:102FE0000000B8BB00009FBB000044BB000028BB32
:102FF000000030BB000000BB0000F0B900008038CA
:103000000000B43A0000883A00000000000008BA4E
:103010000000BCBA0000C4BA000090BA0000603AD8
:103020000000C43A0000803A0000043B0000003B6E
:103030000000F83A0000383A0000CC3A0000D83AD4
:103040000000873B0000A13B00008D3B0000833B5C
:103050000000E03A000088BA0000F0BA0000B03981
:1030600000009C3A00004A3B0000743B0000783BA3
:103070000000263B0000083A000098BA0000BCBAE5
:10308000000070BA0000403A0000523B0000B23B22
:103090000000D43B0000A73B00006C3B00009C3BC1
:1030A0000000BC3B0000D83B0000F03B0000AB3B05
:1030B0000000AE3B0000D03B0000D63B0000FB3BD5
:1030C00000800C3C0000F83B0000CC3B0000AB3B18
:1030D00000000A3B0000B0B900007CBB0000EEBB62
:1030E000008011BC00001ABC000026BC000017BC08
:1030F0000000ECBB00008DBB0000F0BA000008BA75
:103100000000603A0000F0390000B0390000F039EA
:1031100000009C3A0000503A0000F039000090395D
:103120000000903900000000000022BB000056BBE8
:10313000000094BB00004ABB0000D8BA0000D0B920
:1031400000009C3A00005A3B00007C3B00005A3BC8
:1031500000002C3B0000623B0000403B0000523B63
:1031600000008D3B0000AE3B00009C3B00009C3B00
:103170000000A13B0000983B0000853B0000803B25
:103180000000943B0000AD3B0000A33B0000923BDD
:103190000000853B0000383B0000983A000070BA00
:1031A0000000D8BA0000B4BA000060BA0000B0391C
:1031B0000000E83A0000873B0000D63B0000EA3BF5
:1031C0000000DB3B0080003C0080013C0000EE3B47
:1031D0000000B63B00000E3B000038BB0000E3BB24
:1031E000000031BC008079BC000096BC00809FBC10
:1031F00000009FBC00C083BC000043BC0000F2BBC9
:103200000000E0BA00002C3B0000CB3B0000B63BC6
:103210000000C53B0000903B0000CC3A0000F0B934
:10322000000089BB000004BC000038BC000033BCB7
:10323000008010BC0000D8BB000083BB0000F0B9C8
:103240000000403A00005E3B00009E3B00009C3BBB
:103250000000833B00000E3B0000D0B90000ACBA78
:103260000000A3BB0000ECBB0000BDBB00001ABB0C
:103270000000503A00007C3B0000073C0000413C4D
:103280000080563C00006E3C0080773C00803D3C56
:1032900000001A3C0000CE3B0000833B0000D0B988
:1032A0000000D0390000F0B90000A4BA000060BAF4
:1032B0000000003900001E3B0000C33B0000173C2B
:1032C0000000363C0080693C0080743C0000443CB7
:1032D0000000143C00000E3B0000D8BB00803BBC4B
:1032E000000061BC008059BC008048BC000023BCC9
:1032F000000006BC00008BBB000000B90000903B42
:103300000000DF3B00001A3C0080123C0000083C3B
:103310000000263B00004EBB000018BC000062BC51
:10332000004084BC008076BC00806BBC00802DBC5B
:103330000000ADBB000038BA0000803B0000943BA9
:103340000000943B0000003B0000F0B9000092BB7D
:10335000008002BC00805BBC00007CBC00C099BC4B
:1033600000808EBC00804CBC0000ADBB0000A33BC5
:103370000000523C0040923C0080AE3C0080A33CE8
:1033800000C0913C0040823C0000423C0080003C78
:1033900000009C3B0000903B0000CB3B0000343C15
:1033A00000006F3C00C0923C00C0983C0080773C1D
:1033B0000000523C00803E3C0000353C0000523C86
:1033C00000005F3C00000B3C00008039000042BC64
:1033D0000000BABC0080D3BC0080C3BC00008FBC1E
:1033E000008001BC0000803900009C3B0000F23BE3
:1033F0000000083C0000FD3B0000CB3B0000783B98
:1034000000000000000022BB0000E5BB00801DBCE6
:1034100000805BBC004084BC00C081BC008080BCDC
:10342000000037BC00005EBB0000783B00000B3C96
:103430000000473C00803A3C0000153C00009C3BEB
:10344000000090BA0000CBBB000017BC00803ABC63
:10345000000060BC008067BC008001BC000098BA1E
:103460000000F63B00C09B3C0080D23C0080D33C77
:1034700000C0B13C0000603C0000A53B00000ABB5E
:103480000000F6BB000022BC008000BC000081BB35
:103490000000443B00802D3C0080873C00809F3C26
:1034A00000C0A93C00C0903C0080813C00007C3CF6
:1034B0000000623C0080023C00001ABB00C083BCDC
:1034C0000080EFBC00E01BBD00401DBD00A001BDA1
:1034D00000409ABC0000A7BB0080023C0080863CF4
:1034E00000C0B03C00C0B63C00C0AA3C0080953C87
:1034F0000000553C0000263C0080113C0000E73BEA
:103500000000043C0000F03B0000D83B0000CC3B36
:103510000000853B0000EC3B0000133C00802F3C8A
:103520000080493C0000403C0000A73B000056BB27
:1035300000005EBC0080C1BC004003BD004021BD56
:1035400000E022BD00E026BD00A017BD0000E9BCE0
:10355000000095BC0000ECBB0000383A00004E3B78
:103560000000943B00000A3B000080BA000068BBEA
:103570000000FDBB008012BC0000F9BB000070BB66
:1035800000006C3B0080763C0000C23C0020013D06
:1035900000801A3D0040193D0020153D0060143D9B
:1035A0000020093D00C0EC3C00C0A73C0080113C5D
:1035B000000012BB000018BC00805ABC0000EEBB2B
:1035C0000000AB3B0040A23C00200C3D0000313D20
:1035D0000080333D00A01B3D0040DC3C0000293C46
:1035E000000078BB00806CBC0040AABC0080C2BC5C
:1035F0000000D3BC0000D1BC00C0CCBC00C0DEBC0D
:1036000000C0DCBC00C0ECBC0080EEBC0080F1BCA3
:1036100000C0E4BC0080E9BC0080E8BC0080F0BCD5
:103620000080E2BC00C0DEBC0000E0BC0000C5BC05
:1036300000C0B1BC00808FBC0000E3BB00000A3BAF
:103640000000383C00008E3C0000983C00C09B3CD1
:1036500000808F3C00804E3C0000E93B0000853B31
:103660000000803A0000163B0000C73B00801B3C76
:103670000080973C0080EA3C00E0143D00A0323D11
:103680000060483D00A04C3D00E0563D00404E3DEE
:1036900000A0323D0060043D00C08C3C0000873B30
:1036A0000000D8BB00006EBC00C082BC00803DBCE6
:1036B0000000B4BB000040390000703B0000F0394E
:1036C000000094BB00804EBC00C0C5BC006008BDBB
:1036D00000001DBD00C01DBD00E014BD0080F7BC92
:1036E0000040C8BC004089BC000038BC0000D8BB0A
:1036F0000000E0BA00003C3B0000C93B0000783B02
:1037000000008039008002BC000065BC008085BCE0
:10371000004091BC000090BC000063BC000038BCBD
:103720000000F4BB00007C3B0000283C00809C3C77
:103730000080E23C0000F03C0040E63C0080D33CCE
:1037400000009E3C0080763C0000623C0000623C31
:103750000000953C00C0BD3C0080E13C0020083DDD
:1037600000801A3D0040293D0040283D00401D3D9D
:103770000000073D0000C53C0000343C0000D8BB01
:1037800000C0C5BC00201CBD002044BD00C059BD08
:1037900000E054BD002042BD008011BD00C0B1BC9E
:1037A0000000E7BB0000BC3A0000983B0000263B4D
:1037B000000089BB008020BC000051BC000055BC4B
:1037C000000036BC0000F2BB000090B90000D23B04
:1037D0000000273C0000733C00809E3C00C0B63CCB
:1037E0000000C53C0080B43C0080803C0000A33B4E
:1037F00000000ABC0000C4BC008011BD00A022BDB6
:1038000000400BBD0040A7BC00001EBB0000813C77
:103810000080EF3C00001D3D00802C3D0060403DDD
:103820000000533D00404F3D0060483D0040303DAA
:1038300000E0043D0080873C000080B9000062BCCD
:103840000040A8BC000098BC00803BBC00008DBBC1
:103850000000D0B90000CCBA000022BC00009CBC23
:103860000080EFBC002017BD00801EBD00202BBDD6
:1038700000402DBD00E01FBD00800FBD0080C2BC18
:103880000000C1BB0080393C0080CA3C0000FF3C06
:103890000040EC3C00809C3C0000223C0000803852
:1038A0000000BDBB00000ABC000056BC00805BBC31
:1038B000000070BC008076BC008069BC00806ABCDF
:1038C000000033BC00803CBC0000D0BB0000C5BB86
:1038D0000000DFBB0000D4BB008029BC000073BC2B
:1038E0000000A5BC00C0BFBC0000DBBC00C093BC96
:1038F0000000EEBB0000C73B0080B33C0040E33C4F
:103900000040073D0020063D00C0FB3C00A00D3DEF
:103910000040253D0040423D0080513D00404F3D6C
:1039200000E0293D0000033D0080D93C0040BE3C42
:103930000000C43C0040A23C00005E3C0000BC3AD9
:10394000000038BC0040A2BC00C0D5BC0040DDBCBB
:103950000040EBBC0000F7BC00800BBD004013BD75
:10396000008012BD002002BD0040AABC000031BC96
:103970000000403A0000E93B0000253C0000353CD7
:103980000080003C0000A13B00002C3B000046BB37
:103990000000D6BB00802BBC000042BC00801BBCDA
:1039A00000000BBC0000E5BB0000ADBB000017BC75
:1039B000000073BC0000A6BC0080D9BC0080D8BC4D
:1039C0000000B6BC00C09ABC008058BC0000DABB46
:1039D000000004BB0000783B00001A3C0000723C71
:1039E0000080AB3C00C0D43C0000E73C0080FD3CC4
:1039F00000A00C3D00A0053D00800B3D0040193D9E
:103A000000402C3D00E0353D0040313D00401A3D76
:103A10000040F53C00C0A93C0000523C0000093CBD
:103A20000000F83B0000903B0000E83A0000C1BBFA
:103A3000004082BC0000CABC000008BD00C01DBD23
:103A400000C01DBD000017BD000008BD00C0F2BCD5
:103A50000000B5BC000046BC000000390000603C1E
:103A60000000B33C0000D13C00C0A13C00803A3CC7
:103A70000000303B0000DFBB000056BC004099BC9A
:103A800000C0B1BC00C0C5BC0080BBBC0080BDBCD8
:103A900000C09ABC008088BC00808EBC00C082BC84
:103AA000000086BC000072BC00805DBC000044BC0D
:103AB000008003BC0000F2BB000004BB0000463BDA
:103AC0000080033C00005F3C0040983C0040CF3C3D
:103AD0000000EF3C00C0023D0040E43C0080BC3CE4
:103AE00000008D3C0000323C0080203C00804D3CBA
:103AF0000040C13C00001E3D0000563D00D0823D0C
:103B000000D0853D0070803D00804B3D0020063D8B
:103B10000080853C00000000000040BC0000BABCF2
:103B20000040F3BC008011BD00401EBD00601FBD01
:103B300000201CBD00600DBD0000E7BC0040B2BC11
:103B4000000044BC000074BB0000283A0000F0B93B
:103B5000000094BB000032BC008056BC000026BCB4
:103B6000000085BB0000F23B00807A3C0080973C5F
:103B700000408C3C0080203C0000D039000087BB16
:103B80000000C3BB0000CEBB0000C1BB000032BCC4
:103B900000C0A9BC0080E7BC00C006BD00800ABD13
:103BA0000080D8BC00C099BC008048BC0000CCBBE1
:103BB00000009FBB0000F0BA0000B23B0000463C92
:103BC0000000A43C00C0E33C0080F83C0040F23C14
:103BD00000C0DC3C0080C13C0080D33C00200C3D98
:103BE0000020323D00605F3D00C07B3D00E0813D34
:103BF00000E0823D00E06D3D00E04C3D0020263DB0
:103C000000C0F33C00C0823C0000003B000016BC3A
:103C10000040C0BC002001BD008028BD00404ABD5E
:103C200000E054BD008047BD00E036BD008016BDF9
:103C30000080C4BC00C091BC00801CBC000056BB0E
:103C40000000D0B90000D63B00804E3C00C0833C51
:103C50000000963C00C0923C00803F3C0000383B96
:103C600000009CBB008069BC00C09FBC0080B5BC4C
:103C70000040C0BC0000BDBC00C0A8BC0080ADBC02
:103C80000000BBBC0040B6BC0040C6BC0000C9BCC4
:103C90000040DDBC00C0F5BC0000F0BC00C0C7BCEB
:103CA000008065BC000000BB00001A3C00408C3C5A
:103CB0000080B43C0000C43C00C0BF3C0080E03C3D
:103CC0000020063D0020233D00403B3D0020443DB8
:103CD00000E03D3D00A02A3D0080153D0000F93C7C
:103CE0000080D83C00C0D73C0080FE3C0040153D21
:103CF00000801E3D0000283D0060133D0000D33CC5
:103D00000000603C000040BA00804EBC00C0C0BC57
:103D10000040F3BC00E00FBD006026BD006035BD73
:103D200000003FBD002036BD00C019BD0040D4BC1E
:103D300000803ABC00004A3B0080673C0000983C91
:103D40000040A73C0000983C0040893C0080763C45
:103D50000000283C0000463B0000BABB00C08BBC02
:103D60000000E0BC00E00CBD004000BD0080B4BC21
:103D7000008029BC000090BB0000BABB00C099BC09
:103D800000C00ABD00803FBD002053BD00004ABDF9
:103D900000601FBD0040BFBC00001ABC0000000056
:103DA0000000FF3B0000263C0000603C0080873C98
:103DB00000C0913C0000B63C0080BB3C0080D33C7E
:103DC00000C0E53C0000E33C00C0F43C0060023D64
:103DD00000C0153D00802D3D00603D3D0080463D0A
:103DE00000404F3D0000553D00C0553D00A03A3D0C
:103DF00000E01A3D0080C13C00801B3C00009CBBE1
:103E000000809FBC0000F2BC00A00DBD00C00BBD37
:103E100000E009BD0000E7BC00C0B6BC004082BCA9
:103E2000008029BC0000C9BB000046BB000040B9AF
:103E300000009C3B0000173C0000723C00C0B13CFD
:103E40000040CD3C00C0C73C00009D3C0080203CB1
:103E50000000B8BB0080A3BC00C00ABD00A03ABDF2
:103E600000804ABD000043BD00601FBD00C0F4BC1F
:103E700000C0D5BC00C0ECBC00C012BD008025BD98
:103E800000C02FBD004022BD00200DBD00C0E6BC1B
:103E90000000B6BC00C089BC0000F6BB0000903B2F
:103EA00000805D3C00C0B13C0080CA3C0040D03C7A
:103EB00000C0C63C00C0C83C0040EB3C0040033D95
:103EC0000000173D0040223D0080283D00402C3D71
:103ED00000802F3D00A03C3D0020543D00E0723D9D
:103EE00000308A3D00B0913D0090843D00805D3DF2
:103EF0000060113D0000473C000035BC00C0F5BC2F
:103F0000002035BD00203EBD000030BD00601BBD5F
:103F10000000D1BC004082BC00802CBC0000CCBBA7
:103F200000009FBB008002BC008001BC00005EBBA3
:103F300000009E3B0080773C0000D33C00C0EC3C7E
:103F400000C0D53C0080863C000080B800807ABC70
:103F500000C0F3BC008030BD008060BD000073BDB8
:103F600000206EBD00204DBD00401ABD0040E6BCE3
:103F70000040A9BC0040B0BC0080F1BC002015BDD1
:103F800000A02EBD000025BD006001BD004094BC16
:103F9000000000390000523C0000B63C0040D53C17
:103FA00000C0C63C0080BA3C0000A73C00008F3C2B
:103FB00000007D3C00C0893C0000AE3C0080EE3C2F
:103FC00000E0103D00E02A3D00E0533D00E06E3D82
:103FD0000030823D00C08C3D0080963D0000A53D34
:103FE00000A0A83D0020943D00E0693D00C0E53CF4
:103FF0000000B0BB00A00FBD00C060BD003082BD9E
:1040000000C06CBD000030BD00C0EDBC000027BC8E
:10401000000000390000603A000080380000DABB80
:10402000000061BC00C093BC008069BC000008BCFB
:1040300000004A3B00806B3C0080853C00007E3CD9
:104040000000E33B000098BB004092BC0080D2BC63
:104050000080F7BC000004BD0040FDBC008003BD33
:104060000000F6BC00A000BD002002BD00C0F3BCF3
:104070000080FDBC008006BD00A01CBD00E032BD7C
:10408000008038BD00A02ABD0080F1BC00006FBCDC
:104090000000803B0080AB3C0000E83C0000003D9D
:1040A00000C0F33C0000D13C00C0BF3C0040D53C08
:1040B00000C0EA3C00C00B3D0020233D00E0393D3C
:1040C00000A0533D00E07C3D00E0933D0000B03D8A
:1040D0000080CC3D00C0E23D0020DD3D0030A63D2B
:1040E00000C04E3D0000C53B00E017BD00508DBD37
:1040F00000B0B1BD0000B0BD00108EBD002020BDDD
:1041000000C089BC00801D3C0040C83C0000C33C8E
:1041100000C0A03C0000193C000004BB0000D8BB5C
:10412000000040BB0000923B0080763C00C0B73CE2
:104130000080943C0000333C000008BB00009DBCA4
:104140000040FDBC00000ABD008007BD00C0E6BC09
:1041500000C0BFBC0040C5BC0080DBBC00A00CBDE3
:1041600000C03FBD00A069BD004081BD002089BDE9
:1041700000F083BD00805CBD00202FBD0040E5BC89
:10418000000052BC0000B2BB0000E8BA0000803959
:10419000000000B90000B43A00800B3C0040833CB2
:1041A00000C0CF3C00E0133D00A02B3D00A03D3DF2
:1041B00000604D3D0040603D0060753D00F08B3D6E
:1041C0000050A03D00D0B43D0030D13D00B0E93DED
:1041D00000E0ED3D0010AA3D00A03A3D008011BC7A
:1041E000008078BD0090BABD00F0C7BD00B093BD9F
:1041F00000400BBD0080CB3C00A0633D0000A53D0E
:1042000000D09C3D00C0423D0000433C000098BCF3
:1042100000C037BD006045BD002002BD00805ABC13
:104220000000143C00C0A03C0000463C0000C43A22
:10423000000015BC00C090BC00809CBC008029BC64
:104240000000E3BB000040BC0000C2BC00E056BD63
:1042500000C0A6BD00A0DBBD0070F4BD0040EABDFB
:104260000040BFBD00E082BD002014BD0000F9BBCE
:1042700000009C3B0080213C0000C13B000056BB7D
:10428000008069BC00C0AFBC00C0AEBC00807BBC7D
:104290000000343B00C0BD3C0020453D00E0933DA4
:1042A00000A0AE3D00F0BC3D0020C33D0070C53D08
:1042B0000020CC3D0030DE3D0050F33D0050013E7B
:1042C00000D8053E00A0CA3D0040F23C008002BD7F
:1042D0000000DFBD002012BE000009BE00E097BD57
:1042E000000081BB0020A73D0078063E00E0FE3DB7
:1042F0000070C23D0040D63C00603EBD0080B7BDAE
:1043000000B0CFBD0030C9BD00C070BD0040A8BC2A
:1043100000009C3B0080D03C00E0003D00C0BF3C62
:104320000080BD3C0040CD3C0040983C0000403C3B
:104330000000083B0000E2BC00E071BD0060B9BDB8
:1043400000C0EFBD00E0FEBD00B0E5BD00F09FBDC8
:1043500000001ABD00009F3B0080D03C0040D63CCE
:1043600000801D3C00C0C7BC008065BD008097BDBB
:1043700000409BBD00807BBD0000DBBC0000FB3B20
:104380000000163D00A07C3D0050913D0010913D85
:1043900000808C3D0000873D00508F3D00D0A53D42
:1043A00000E0CA3D0050ED3D00E8013E0080023EC5
:1043B0000060EA3D0000703D0000D8BC00A0B5BD23
:1043C000003817BE00F80FBE0030BABD0000703BC9
:1043D00000C0933D00780A3E0008023E00C0843DC4
:1043E0000000C3BB00B0A5BD0090FFBD00A0F5BD9F
:1043F0000090A0BD00802FBD00802A3C0040E33C1F
:104400000000213D00E0293D0040343D0000303DEA
:104410000000463D00A0363D00C0893C0040A1BCE4
:1044200000708FBD00F0DFBD00E0F9BD0080DFBD92
:1044300000B09CBD006008BD0000A43A00408B3C69
:104440000080653C0000DFBB00C020BD007088BD5F
:104450000060A7BD00C0B3BD00A095BD008042BDF7
:104460000000A6BC0080013C0000CB3C00C0FA3C30
:104470000000F93C00000B3D0080193D0080473DE5
:1044800000B0823D0080A13D00F0BA3D00C0CF3DAC
:104490000060D73D0020DB3D00A0E43D0080F03D02
:1044A0000000F63D00800B3D00603ABD00F0F8BD15
:1044B00000B02CBE00900FBE002050BD00208D3DEE
:1044C0000000063E0078353E0040C53D00005E3BE2
:1044D0000090B8BD00A00FBE000013BE00A0AABD92
:1044E00000A001BD0080023C00A0233D0040E33C51
:1044F0000080153D0020423D0040833D0090823DFC
:1045000000D0893D0080A33C00601BBD00D0C1BD30
:10451000009804BE0020F9BD005099BD0080ACBCDD
:1045200000800E3C00C0E63C0000B0B9002002BD97
:1045300000A083BD0020A3BD0000A7BD00A079BDE1
:10454000006039BD00A017BD0040B7BC00C0CFBCA3
:104550000000A7BC000063BC000028BB0000CC3BEF
:1045600000200C3D00C0583D00C08A3D0070A23DB7
:104570000040963D00708B3D00308D3D00D0A73D42
:1045800000D0C53D00D8013E0078173E00480A3EE5
:104590000000553C00C0B7BD00B833BE003041BE7E
:1045A00000E0D7BD00C0D53C0058173E00303D3E6E
:1045B00000E81C3E0000253C00B0BCBD00081EBE4B
:1045C000000811BE0020A5BD0000D03B00C0DC3CAF
:1045D00000602E3D0080E93C0000983C00405D3DBD
:1045E00000C0BD3D00D0DC3D0020AC3D00400B3D97
:1045F00000E07DBD0070DABD00D805BE0000C3BD7F
:1046000000C016BD00C0B13C0060053D00808D3C7F
:104610000080C3BC00A09DBD00E0C0BD0030C2BD95
:10462000009098BD00A04CBD0000BABC0040D7BCB3
:104630000080C4BC00E01FBD00C055BD00806BBD44
:1046400000C030BD00008EBC00C0893C00E0623D6F
:104650000060893D00D08D3D00205F3D00A02E3DD3
:104660000080283D00008F3D0090D23D00D80E3ED6
:104670000050243E00B8243E00B0ED3D0040F5BCA3
:1046800000780ABE006843BE00601EBE006040BDE8
:104690000040C73D00A0383E0008383E00D0D63D5F
:1046A000000012BD0020EABD00C806BE0070BCBDFF
:1046B000000019BD0040853C000038BA0000133CE2
:1046C0000000C93B00A02B3D0000BF3D0030FE3D77
:1046D0000030B33D00008F3C00E062BD00E0F5BD5E
:1046E0000050D5BD00F098BD008097BC00804B3CC9
:1046F0000080E13C00801BBC000000BD00C076BD16
:1047000000A09FBD00A099BD00C088BD004073BD42
:1047100000802DBD00C0B1BC00C0B6BC008039BC5B
:104720000080C9BC000017BD00E022BD008049BC6C
:104730000080953C0000683D00A0923D00C06F3DA8
:1047400000402C3D00C0E33C0020183D00508B3D54
:1047500000A0DB3D00F0083E00901E3E00E81C3E3D
:1047600000E0FC3D00007FBC00A801BE00B03CBEE4
:10477000009822BE00C046BD0020AB3D00A8343EDC
:1047800000082B3E0080C63D00802FBD00B0EBBD71
:104790000020FFBD00909ABD00C011BD0000873B06
:1047A00000C09BBC000041BC0000553C00C0593D0E
:1047B0000030EB3D00E0FE3D00B0823D00C0E3BCB8
:1047C00000F0A9BD0040EEBD00A081BD0000BDBC51
:1047D0000000F23B0000AC3A00000ABC00E01EBD45
:1047E00000602EBD00000EBD00E029BD008034BD7C
:1047F00000606DBD00A071BD008029BD000098BBA8
:104800000000813B0000C73B0040C5BC002044BD08
:1048100000E05BBD0040B6BC00C0983C0060753D48
:1048200000409A3D00E0663D0000123D0080023DE0
:1048300000C0683D00E0B53D00E0F33D0078063E75
:104840000028103E0098063E0060CC3D00405DBD53
:10485000006825BE00D045BE00A00EBE000089BC89
:104860000020EA3D00C0353E00F80D3E00E0383D36
:1048700000E0B3BD000803BE0020D4BD00804DBDE4
:104880000080B4BC0000E3BB00202BBD00C0AFBC67
:104890000080E03C00B0AB3D00B0FF3D0030C63DC5
:1048A0000000D83A00609FBD0000C1BD00C099BDA6
:1048B0000000B03B00401A3D0000AE3C0000BDBC13
:1048C000006041BD00805CBD0040B1BC0000FBBB8E
:1048D0000000DABC00A069BD00D09EBD00F08DBD17
:1048E0000000DBBC00C0AF3C00C09A3C0000BF3BF6
:1048F000006014BD004061BD006022BD0000AC3A04
:1049000000A01E3D00D0893D0060813D0000163DA5
:104910000000F13C0000303D00C08C3D0050C23D25
:104920000050D63D00D0E93D00F0063E0068153E3F
:104930000080743D0060E3BD003857BE003857BEAC
:1049400000A0C8BD0060413D00B0283E0068243E84
:104950000070A73D00C052BD002809BE00B0DFBDF9
:1049600000601BBD000085BB000050BA00400FBDB9
:1049700000206ABD0000E73B0080993D00B8113E71
:1049800000C8023E0060203D008090BD00E0C8BD30
:10499000004092BD00001A3B0040683D0020323DBF
:1049A000000032BC00A054BD00E06EBD0080C1BC60
:1049B00000809F3C000056BB008047BD0030BABD60
:1049C00000D0B8BD00E057BD000090B90080473C62
:1049D00000802EBC000031BD001086BD002057BDF8
:1049E000000062BC00408A3C0000033D00601F3DA7
:1049F00000E0173D00202F3D00E0503D00A0783D35
:104A000000B08F3D00009C3D0030B13D0040EE3DC8
:104A100000E81F3E00F82C3E00D0833D00400FBE52
:104A2000003482BE005864BE0070A7BD0060923D95
:104A300000C82C3E00D80E3E00E03C3D008087BD03
:104A400000A0F3BD00B09ABD008074BC00006EBC35
:104A500000001ABD00407CBD00C030BD00A0503D2C
:104A600000A0F73D00281B3E0010D53D00003C3B58
:104A70000030A0BD00D092BD0040EDBC0000BC3CA9
:104A800000001A3D000006BC008043BD00202EBD82
:104A900000C09ABC0000083C00000B3C000047BD71
:104AA00000B0B4BD0080B9BD00606BBD000074BC37
:104AB0000000433C000022BC00A027BD008059BD7F
:104AC000002036BD00007FBC0000A33B0000173C67
:104AD0000080783C0060113D0060623D0050993DCF
:104AE0000010A63D0090953D00009A3D0010A23DAB
:104AF00000B0DF3D0010223E00B03A3E00E8023E2A
:104B000000D0A0BD009073BE00887DBE008002BEB4
:104B100000C0A83C00F8003E00F0043E0040683DA4
:104B20000000FFBC0070B8BD006096BD00C006BDAF
:104B300000800ABD00F096BD0000B2BD00C086BD79
:104B400000C0F93C0020DB3D0040063E0020BB3D9C
:104B50000000333C002081BD00A078BD00C0A9BC8E
:104B60000000A73B0080873C00009FBC00E02DBDFB
:104B70000040FABC0000403A00000B3C0000BC3A88
:104B800000A027BD007097BD005086BD00C003BDCA
:104B90000000CEBB00804C3C0000BF3B00C083BC8B
:104BA0000080A5BC0000ABBC00807BBC000037BC13
:104BB00000801BBC0000D43B00803E3D0050A43D63
:104BC0000060B63D0080993D00C07A3D00108E3DEA
:104BD0000030CF3D00E0063E0018203E00082C3E8D
:104BE0000090F03D00009FBD00506BBE00C86FBE3E
:104BF00000F0F6BD0080A33C00B0DA3D00A0C83D47
:104C00000020233D0000B3BC0040A1BD00108CBDBE
:104C100000601FBD00E07CBD00C0D3BD0060DDBDF5
:104C200000A097BD00C0EC3C0000D83D00F0F83D6E
:104C30000080B23D0000803C006058BD004051BD86
:104C400000807BBC00008BBB0000123B008086BC58
:104C5000006008BD000065BC0000A53B00001ABB59
:104C6000000042BC00602ABD008081BD00A04BBD99
:104C70000080DABC000062BC0000C43A0000C73B00
:104C80000000AC3A00003C3B0000B8BB004099BCBF
:104C90000000BBBC0080D3BC0000B2BB0000193DCB
:104CA00000A0953D0050B13D00F0963D0080703D64
:104CB00000E0993D0020EE3D0008113E00681B3EDB
:104CC00000A0193E0040013E00006EBC00303DBE19
:104CD00000886DBE00E016BE008077BC00309B3DB2
:104CE0000030B93D00A01E3D000009BC00805ABD47
:104CF000006083BD00002CBD00803BBD0070D6BDB0
:104D00000050EBBD0010A8BD000052BB00F0AB3D51
:104D10000050D53D0010A23D0000FE3C00C0D7BCB5
:104D2000008012BD0000D8BB000096BB0000DABBBB
:104D3000000029BC00C083BC0000E1BB00006E3C49
:104D400000000ABB00C0B6BC006050BD00009ABDA8
:104D5000009087BD00A014BD0040C5BC000033BC5E
:104D6000000018BA00007C3B00001A3B000062BB48
:104D70000080AEBC0080EFBC00C0C7BC008020BC7F
:104D80000000D83C0020713D00B0933D00C08E3D36
:104D900000E0863D00E0A63D0050FC3D00D81E3EF0
:104DA0000038283E00702F3E00A8213E00E0053D5F
:104DB00000601EBE00106DBE005024BE0040BEBC90
:104DC00000B08B3D00F0A73D00A00F3D0000F9BBF7
:104DD00000C011BD002017BD00808FBC002009BDA0
:104DE0000040CEBD0000F4BD00E0AEBD008059BC67
:104DF00000E0883D00A09B3D00404A3D0040823CD1
:104E000000C0B8BC0080C4BC0000783B00801BBC64
:104E10000080C4BC0080DBBC00C0B1BC00002CBB67
:104E200000008E3C0000903A00C092BC006020BDA3
:104E3000001080BD00B084BD002049BD00601BBDD6
:104E400000009DBC0000833B0080803C00C0843C8F
:104E50000000263C008059BC00C0D4BC008069BC66
:104E60000000BD3B00A0173D0000783D0010803DD4
:104E700000A06D3D0080783D00B0AB3D00E00B3EF2
:104E800000A8313E0030313E00E0283E00601D3E6B
:104E900000F08B3D00D0ECBD00785FBE00F82CBE6A
:104EA00000E038BD00C04D3D0010843D0040983CFE
:104EB000008090BC0000D3BC00C0C8BC000022BC75
:104EC0000000EFBC0020BFBD006000BE0030B5BDDB
:104ED0000080BABC0020533D00A0673D0080CC3C60
:104EE0000000F0B9004093BC0080C1BC000004BBCE
:104EF000000031BC000012BD00E01ABD0000CCBCB7
:104F000000C091BC000096BB0000E3BB0040B0BCF9
:104F100000C0EBBC008047BD004087BD004074BDB1
:104F200000E03CBD0000EFBC0000883A0000AC3C53
:104F300000C0C53C00C0983C000040B900808DBC5A
:104F400000009CBB0040823C0040383D00E08A3DB0
:104F50000020893D00E05E3D0080563D00A0923D6E
:104F60000050E93D0050203E00D8323E00B8323EAD
:104F70000070303E0050DC3D00209ABD00F848BE75
:104F800000F82DBE00A06ABD00001E3D0080593D06
:104F90000000AB3B0000E8BC0000B6BC008039BCA0
:104FA000000090BA000095BC00A09BBD00E0EDBDE4
:104FB00000809BBD00C092BC00602B3D0020483D9E
:104FC00000C08B3C0000083A0000ABBB0080ABBCCB
:104FD000008021BC00C08CBC00E032BD00E032BDCE
:104FE00000C0F9BC00E008BD0000A5BC0000F9BB92
:104FF000008066BC004084BC000019BD00E08EBD8E
:1050000000E088BD000056BD00C00DBD0000C7BB5C
:105010000000723C0080963C00805C3C0000D0B9EF
:10502000000073BC0000D8BA00C0903C0080333D43
:1050300000508A3D0020903D00C0703D00E06A3D78
:1050400000308A3D0010C03D00F0083E00802A3E3E
:1050500000703B3E00083D3E0010E93D0070AFBDD2
:1050600000604BBE00C820BE00A032BD00403B3DEA
:105070000060413D000028BC00400FBD0000BDBCE9
:10508000008059BC0000D2BB006004BD00F0A9BD87
:105090000060DFBD00E069BD0000A3BB00A03D3D96
:1050A00000603D3D00408B3C0080013C0000743BB3
:1050B0000080D2BC008075BC0080ACBC00A027BDC5
:1050C00000A00FBD00C0F5BC00600DBD00C0CDBC90
:1050D0000000A4BC00C090BC00800FBC0040F3BC2A
:1050E00000C07EBD00A094BD00A081BD002033BDE6
:1050F000000004BC0000513C00C0AE3C0040943CA9
:105100000000F83A00008EBC008069BC00001A3B29
:105110000060053D0060763D0040903D00D0823D3E
:1051200000405E3D00A0663D00A0A33D00E0EA3DDA
:1051300000D80F3E0070213E00382C3E00401F3E3C
:105140000040F43C00701BBE00284ABE00C0E0BD19
:105150000000A5BB0000F83C0000EC3B008002BD55
:1051600000803CBC0000403A0000BABB0000BBBC61
:1051700000E07CBD0040DDBD005099BD0080D3BC87
:105180000000713C00C0203D00C0B93C0000633C01
:105190000040D63C0000223B0080A5BC00C0A0BC63
:1051A000008033BD00603EBD00E017BD004015BD6E
:1051B00000C025BD000007BD00A001BD000042BC2D
:1051C000008057BC00E02DBD00B084BD00A085BDAF
:1051D00000A04BBD00C0BEBC0000BCBA0000193C22
:1051E0000000323C0000B23B00800CBC00807ABC66
:1051F00000001ABB0040B13C00604C3D00F0803D17
:105200000020813D00A07C3D00607C3D00C0973DBA
:105210000080D03D00F0F93D00A00D3E00B0263EDC
:105220000080303E00901A3E00803DBC009830BEA9
:1052300000D039BE00409FBD0000D03B00C0CC3C38
:10524000000006BC00C0CDBC0000733C0000B53CB3
:105250000000DB3B0000F2BC002089BD00E0D5BDB2
:10526000004078BD0040C1BC0080593C0040C73CB4
:105270000080C13C0000CC3C00201F3D00004A3BA8
:1052800000C0AABC0000F6BC000029BD004025BD3E
:10529000008006BD00E047BD00E056BD00600DBDCA
:1052A0000040DDBC000062BC00808DBC002054BD0D
:1052B00000F08DBD004070BD00002DBD00807BBCA6
:1052C0000000123B0000603A0000B43A0000C43A0B
:1052D000000056BC00806CBC0000B4BA0080A43C46
:1052E00000802C3D00A05E3D00C0703D0000893D67
:1052F00000508D3D00A0953D0020C93D0040033E7B
:105300000078153E0048263E00E0363E00D82B3E91
:1053100000004A3B00602BBE004845BE0090C9BD5E
:10532000008056BC0000B43B008096BC000088BCE6
:105330000000123D00C03E3D00C0BE3C00C0AFBCFE
:1053400000207ABD0050D1BD00807FBD0080FDBC33
:105350000000873B0080793C0080CB3C00A01E3DD4
:105360000000693D0080763C004089BC0040E6BCFE
:10537000008006BD00400ABD00C019BD00004BBD45
:10538000000035BD00C006BD004007BD0080AEBCBA
:1053900000805ABC008003BD00605BBD00605FBD43
:1053A00000E022BD008097BC000074BB008002BCFE
:1053B000000053BC00801FBC008020BC00806BBC80
:1053C000000012BB0000613C0080D03C00C00D3DDD
:1053D0000080203D0080473D00407F3D0070843DBF
:1053E00000808E3D0050C23D0090003E00381B3EC4
:1053F0000010323E0030433E00C0253E00C007BDD5
:1054000000E045BE00F042BE0010B3BD008094BC79
:105410000000E5BB00C0D7BC00800E3C00207D3DF5
:105420000060663D00805A3C00C0F3BC003093BD74
:105430000060BFBD002075BD000029BD0000C9BBD4
:105440000000273C0000163D00407E3D0060873D87
:105450000000BC3B004092BC00009EBC00801EBC13
:105460000040B8BC002042BD00407BBD00801ABD9A
:105470000040A9BC00C081BC000072BC00C09FBC41
:105480000080D1BC0000F6BC00C012BD00C012BD3F
:1054900000C011BD00A004BD0040A2BC008030BC13
:1054A000008002BC000016BC00802CBC0000893BC0
:1054B0000040C03C00C0983C00006E3C0040CE3C28
:1054C00000E0313D00E07D3D00E07D3D00E0653DD8
:1054D00000809F3D00F0FD3D00501E3E00282C3E08
:1054E00000C0353E00382B3E00008D3C00902ABEA7
:1054F000003053BE0090EDBD0000BCBC000088BA77
:105500000000A7BB0000EC3B00C06B3D00A04B3D82
:105510000000703C00E004BD00806CBD0010D3BDF5
:1055200000709ABD008060BD000088BC000080B89B
:105530000080DA3C00605F3D00208B3D0000513C64
:10554000000051BC00801ABC0000CCBA00C08ABC6C
:10555000008052BD00B08BBD004015BD0000EEBB09
:10556000000088BC00C0B7BC004092BC000083BBF8
:105570000000403B0080E2BC002063BD00C047BD8E
:105580000000F6BC0000BDBB000064BB000071BCA5
:1055900000805BBC0000BC3A0000E33B0000F83B2D
:1055A000000028BB008003BC0000473C00E0103D29
:1055B0000080283D00C03A3D00E04C3D00E0843DC5
:1055C0000010C03D0090F03D0088043E00600F3E9A
:1055D00000D8133E0068163E0000D23C000013BE07
:1055E000006031BE00109DBD0000303B0000963BC6
:1055F000008095BC0040D7BC0000F03C0060083D36
:105600000000A53B00201CBD00C04EBD0010A6BD83
:1056100000A027BD00E000BD00C0CFBC00C09FBC03
:105620000000273C0080283D0090823D00005F3C48
:10563000000064BB0000F03B0000723C000090BB27
:1056400000E017BD00C068BD0000D4BC000088BAEF
:10565000008047BC00C0A8BC000081BC0000E5BBC6
:10566000000062BB00C0E6BC00E04BBD000034BDE2
:105670000040B7BC000068BB0000A9BB0040B6BC3E
:105680000000C4BC008021BC0000AC3A0000403ADD
:10569000000008BC000019BC0000733C0040293D1C
:1056A00000803C3D00C0333D0020273D00E0533DDD
:1056B0000010973D0090B13D00C0B73D00F0DB3DCC
:1056C0000010073E00482A3E0030FC3D008047BDE8
:1056D00000F80CBE0050C0BD00C0C6BC000081BCBC
:1056E00000000ABD00C08CBD00C0B6BC0000613C1B
:1056F00000C0893C000028BB008077BC00204DBD65
:1057000000A010BD00A009BD006017BD008006BD4F
:10571000000037BC00E0043D00608A3D0000373DDA
:1057200000007C3C00C0C83C00E0003D0000A53CFF
:105730000080A6BC00E044BD00A005BD0000FFBB8A
:10574000000046BC0040C6BC0000E9BC0000D2BC62
:10575000000033BC000050BC0080CCBC008006BD03
:10576000000004BD0080E2BC0080F6BC00A027BDA4
:1057700000203DBD000003BD00408CBC00806CBC1F
:1057800000C098BC000074BC0000043B00C0A03CFA
:1057900000009E3C0080023C0000223C00009C3C3B
:1057A0000000C43C00E01E3D0020833D00D0D23DFF
:1057B0000078153E00E0293E0030313E00A8213E31
:1057C0000000963C00F0B6BD0030BEBD00A058BD44
:1057D000000034BD000059BD006087BD0080ABBC37
:1057E00000E0003D0000F93C0000A53B00C082BC89
:1057F00000000FBD00005EBD00803FBD00004FBD3A
:105800000040F2BC00009CBA0000EF3C00205F3D6D
:1058100000A0663D00808F3C0000AE3C00C0FC3C18
:105820000000FF3C0080013C00408BBC0000F2BC4B
:1058300000802EBC000047BC0040FABC00E008BD60
:105840000040BEBC00806ABC008066BC00C015BDC4
:1058500000004ABD006036BD002002BD00C0E4BCAF
:10586000002015BD006026BD0080F0BC0040A8BC33
:105870000080A5BC004089BC008065BC00000BBC5A
:105880000000623B00008D3B0000D0B90000443CAA
:105890000020103D00006C3D00D0983D00F0A53D7B
:1058A00000D0B83D0010E63D0020083E0030133E19
:1058B00000281D3E0090013E000055BC0060B6BDB2
:1058C00000F096BD00001ABD00E00CBD00603DBDBB
:1058D00000E0ACBD002058BD0080DBBC00809FBC58
:1058E00000C0C0BC00C0F5BC004052BD006001BD9E
:1058F000000087BC00805CBC000035BC000008BA1A
:105900000040A33C0080333D0060203D0000F23C9D
:105910000040373D0060493D00C02F3D00C0CC3CF9
:105920000000893B00001E3B0000163C00000EBB3F
:1059300000C0EDBC002042BD004033BD0040E5BCCE
:105940000000A4BC006018BD00C04EBD00A026BD74
:1059500000C09FBC00000ABC0040B2BC00802DBD4E
:10596000002032BD000012BD00A000BD0040F2BC0E
:10597000000000BD008090BC0080593C0080063DC6
:105980000040FA3C0080B23C0000B63C0080213D63
:1059900000A0693D00C0643D0060443D00004E3DF4
:1059A0000080993D0010E63D00D00B3E00F0153E12
:1059B0000020043E0080673C00E086BD00E084BD1E
:1059C000006058BD002076BD003091BD0070B5BDAF
:1059D000008069BD00C0CDBC00006FBC000070BC81
:1059E00000803CBC0080CCBC0040FABC0080C4BC41
:1059F000000080BB00008F3C0040ED3C0060093D92
:105A000000A0503D00E0823D00E0793D00B08B3DBC
:105A100000207D3D00A0363D0000D83C00803D3C8C
:105A20000000F0BA0000DDBB00C0E5BC00A031BD45
:105A3000002011BD00800EBD00604FBD00A075BDEF
:105A400000A086BD007080BD00205FBD00E074BD79
:105A500000807FBD00E066BD00003FBD00600CBD62
:105A60000040DDBC0000C9BC008078BC0000CC3A1E
:105A70000000403C0080A53C0000963C00802F3C8C
:105A80000000063C0000313C00807A3C0000BB3C3A
:105A900000C0073D0060483D00A0723D00D0823D3F
:105AA00000E0913D00E0A83D0030B93D0080DB3DC5
:105AB00000F0C93D0040FC3C000060BA0080583C4A
:105AC0000080383C0000CBBB0080C2BC00003CBD65
:105AD000006023BD000008BD0080C2BC00008FBC78
:105AE000000074BC0080C3BC00C0CDBC00C084BC3E
:105AF00000009C3B0040A33C0080C23C00806A3C0C
:105B00000000133C0000A33B0000073C00C0BF3C6A
:105B10000020203D00E0323D00E0103D0080C13C0F
:105B20000040B03C0000983C0000EC3B00805DBCB5
:105B300000C006BD008056BD002083BD002085BD8D
:105B400000A072BD00A078BD00908BBD00E097BDA5
:105B500000108FBD000080BD00A072BD000053BDCD
:105B6000002036BD00C029BD008006BD00C0BDBC00
:105B7000008058BC000008BB0080123C0080903CB4
:105B80000040C03C00C0CD3C0000B53C00C0B63C6D
:105B90000040F23C0020323D0020603D00E0863DA8
:105BA0000060AC3D0040CE3D0060E13D0020F03D96
:105BB00000F0E33D00D0893D0080243D0020443DBD
:105BC0000080243D0080AE3C0000D23B008067BCDA
:105BD00000C0C8BC00C099BC00805DBC004084BC53
:105BE0000040ECBC00E039BD006079BD00C06FBD75
:105BF000002054BD00C02FBD00A013BD0000DBBCC1
:105C0000000063BC000080B90000633C00C0E53CBC
:105C100000C01C3D00802C3D0080333D0000223D33
:105C200000A0143D0020103D00A0043D00008F3C6A
:105C30000000903B000054BC008006BD008047BDC2
:105C400000C077BD006096BD0090A4BD0010AABD45
:105C500000A0AABD0000AEBD0040B4BD00E0A6BDDE
:105C600000808CBD000068BD002041BD000028BD43
:105C700000C01CBD00C0F9BC00808FBC000090B902
:105C800000C09B3C00C0123D00003B3D0080563DE3
:105C900000C07B3D0060943D0020A53D00C0B73DA5
:105CA0000060CE3D0060DB3D0030E63D00E0F93DA8
:105CB00000C0EC3D00A0923D0020543D0060793DC5
:105CC00000C0643D00C0243D0080903C000087BCC3
:105CD00000A02ABD004038BD004028BD008028BD7E
:105CE000006032BD00203DBD00205FBD00A04FBD63
:105CF000002035BD000026BD00000BBD00C0CEBC9D
:105D000000C082BC0000ECBB0000333C0040043DFE
:105D100000003F3D0040513D00804A3D0080423D33
:105D20000000303D0080193D0080B23C0000283A60
:105D300000805DBC00C0FCBC00C055BD00308CBD07
:105D400000B0A2BD0060AEBD00E0AEBD0000AEBDC3
:105D500000C0BDBD0050C4BD0070BEBD00C0AABD26
:105D6000001093BD00C06BBD002032BD00C0B1BCAF
:105D70000000C5BB0000E93B00005F3C0000AE3CFA
:105D80000020013D00C0343D00A0543D0040683D6E
:105D900000407B3D0040963D00C0B03D0080BD3DD1
:105DA0000060BF3D0000CC3D00E0E43D00A0F73DB9
:105DB0000028003E0080DB3D00E0573D0000E23C53
:105DC00000A00C3D0000F63C00807B3C0000603AE7
:105DD0000000BDBC00C00DBD008002BD00800BBD39
:105DE000004038BD00C047BD00A04BBD00405ABDBB
:105DF00000404ABD000026BD00A017BD0000E2BC67
:105E0000008078BC000012BB0000F23B0000643C44
:105E10000040AA3C0000F83C00C0FC3C0080B33CC1
:105E20000000193C0000CC3A0000B23B0000F43BFB
