:020000042000DA
:04035C0000787FBFE7
:1003600000E8E3BE00F0903D0020C73D0050C23DD4
:100370000030BA3D0000B23D00F0AB3D0000A93DA9
:100380000010A63D00B0A33D00A09F3D00C09D3DD4
:1003900000A09B3D0030993D0000963D0080923DBD
:1003A0000010913D00608E3D00A08C3D00508A3DC4
:1003B00000C0863D0050863D00B0843D0040813D38
:1003C00000C07F3D00407B3D00A0753D0080733D37
:1003D00000206F3D0040693D0060663D00C05C3D0F
:1003E00000405E3D00205C3D0040553D00E0533D37
:1003F00000404F3D00E04B3D0080473D0040463D02
:100400000020423D00403F3D00A03A3D00E0383D25
:1004100000E0353D0040343D0000303D00402D3DC2
:1004200000402C3D00A0273D0020233D0000213D41
:1004300000201C3D00401E3D00401A3D0060173D5D
:100440000040133D00800F3D00C00E3D00A00C3D5C
:1004500000E00B3D0080073D0080063D00A0043D0C
:100460000020013D0080FE3C00C0FA3C0040F33C0F
:100470000040EC3C00C0EB3C0000E73C00C0E63C28
:100480000000E33C0080DB3C00C0D63C00C0D73C11
:100490000080D13C0080CC3C00C0C73C0040C53C43
:1004A0000080C33C0040C13C0080BB3C0040B73CE6
:1004B0000040B23C00C0B03C00A05FBD0080E1BD88
:1004C0000010D3BD0090BEBD002094BD00C067BD2C
:1004D000004004BD000062BC00C0A03C0040473D9D
:1004E0000070913D0090A93D0040B63D0000C93D1F
:1004F0000070DA3D00E0FC3D00B8033E0050103EC5
:100500000070203E00A8333E00303F3E0090473E42
:100510000048543E00E85A3E00C0553E0090583E08
:1005200000F0643E00986E3E0008803E008C883EDD
:1005300000DC8E3E0020933E0044963E0024983E10
:1005400000649D3E0068993E0074923E00048A3E1D
:1005500000B0823E00687D3E0078813E005C873EB0
:1005600000308C3E0040923E0028933E0010943EA6
:1005700000C4953E0084983E00A8953E0010943E2D
:1005800000448E3E00E0893E00CC853E0060823E05
:100590000040853E00388B3E009C923E0070903EAD
:1005A0000050913E00FC8C3E00D0893E00AC873E5E
:1005B0000048893E00B4893E00FC843E0004833E2E
:1005C0000084833E0070873E00488A3E00288E3EAD
:1005D00000008D3E0008853E0070783E00D0713EE0
:1005E0000040783E00F07D3E00D0823E0000863E16
:1005F0000094883E0068893E00988D3E00B48E3E8F
:1006000000288E3E00988B3E00C8833E00B0713EAD
:1006100000E85D3E0058573E00A8533E00505A3E49
:100620000070693E0018673E00305D3E00505E3E3F
:100630000060693E0070663E0048613E00D0523E58
:100640000010443E0078363E00F82C3E00B0293EB3
:100650000098323E00D03A3E00803E3E00C83C3E0C
:1006600000E0363E0010303E00D82B3E00E82C3E25
:1006700000802D3E00C02B3E0040253E0070203EF5
:1006800000D01C3E00F0193E0088243E0068253E44
:1006900000F81C3E00F00A3E00B8063E0020083E6E
:1006A0000078133E00A8123E00C8123E00181C3EFF
:1006B00000B0193E00901A3E0060223E0030243EF9
:1006C00000E0193E00B8103E0048083E0080F53DAD
:1006D00000A0E63D0010DA3D0050E93D0020F23D6B
:1006E0000080FB3D00D0FD3D0070F63D0030013E36
:1006F00000380A3E0088063E00F0FD3D00D0DD3D9A
:1007000000F0D43D00D0BA3D0080A83D00A0A13D3E
:100710000000A13D00C0B13D00D0B03D0010AF3D94
:1007200000E0B53D0060B43D0090B13D0020BA3D11
:100730000000B23D00F0AB3D0020B03D00E0AC3D1C
:1007400000F0AD3D00509E3D00D0943D0070843DD2
:1007500000807E3D00A0833D00B0933D0080A53D1C
:1007600000A0A63D00E0903D00406F3D00A05F3D31
:100770000010883D0050993D0050A83D00F09F3D7D
:1007800000708B3D0020813D0020753D00A06E3D36
:1007900000E05B3D0000523D00A0403D00C01C3D1C
:1007A00000A0083D0040193D00204D3D0020763D51
:1007B00000208B3D00008F3D0070863D00C0643DF1
:1007C00000403B3D0020233D0060133D0000073DFD
:1007D0000080DA3C0080CC3C0080FE3C00401A3DAA
:1007E0000080243D0000303D00000E3D00C0E43C90
:1007F0000080A33C00009C3C0000E83C0040063D1B
:1008000000C0FB3C0040C83C0080F93C00C0BE3C3E
:100810000080E93C0000253D00A0353D00201C3D46
:100820000000D13C00C08B3C0000EA3B0000F43BE0
:100830000040A83C00C0283D00E04F3D0020493D5D
:1008400000C04E3D00803C3D00801A3D00C0023D8E
:100850000000F13C00C0923C0000873B000009BC56
:1008600000003CBB0000A13B00409B3C00E0093D78
:1008700000E0323D00E0383D0060143D00C0C73C60
:100880000080763C00806B3C0000F03B0000DA3BCF
:100890000000F23B00009E3B0000F63B00008F3C56
:1008A0000040C63C0000AD3C0080303C0000A7BBCF
:1008B000000041BC00802DBC000047BC0000ECBB28
:1008C0000000183A0000043B000080BA0000963B8C
:1008D00000806C3C0040AF3C00C0A23C0080903CDB
:1008E00000004A3B00805ABC0080C1BC0080A4BC10
:1008F0000000D0B90000513C0000C23C0080E73C41
:100900000040FA3C0040C53C0040A93C0000B43C1B
:1009100000C0A03C0000303B008088BC00807BBC55
:10092000008049BC000094BB00007D3C00C0EB3C53
:1009300000C0F53C0080AD3C0080683C0000943B6A
:100940000000983A00009FBB0000B4BB00001ABB37
:1009500000008FBB00005EBB0000083B00809E3C97
:100960000080F93C0040BF3C0000813B00C082BCDD
:100970000000C2BC0080E0BC0000B5BC000017BC99
:1009800000009EBB0000ABBB00801DBC0000C53B4F
:100990000000AB3C0000E03C0080DF3C00009E3CDF
:1009A000000028BA0000C3BC00E004BD0040A3BCA6
:1009B0000000A7BB0000E33B0080303C0000743C1B
:1009C0000000453C00803E3C0000723C0080593CE9
:1009D0000000BD3B000073BC0080E2BC0000F8BC1E
:1009E00000005FBC00004A3B00C0923C0040F53C68
:1009F0000000C53C0000963C0000AB3B0000883A7C
:100A00000000D8BA0000A43A0000AC3A00801ABC3A
:100A1000000027BC000080BC0000ABBB00803B3C5A
:100A20000080BA3C0000553C00807ABC004003BD09
:100A300000A031BD00400EBD0000A6BC0000C4BA3D
:100A40000000AE3B000083BB0000FFBB0000643B26
:100A50000000463C00C0AA3C0000873C0000743BFC
:100A600000409ABC00202BBD006026BD0080BBBCAE
:100A70000000BCBB00803A3C0080D93C0000F13C47
:100A800000009C3C00006D3C00804B3C0000E53BBE
:100A9000008029BC00C0AABC0000F8BC00E008BD72
:100AA0000040C8BC008012BC0000163C00C0843C62
:100AB0000000973C00007E3C0000B03B00000ABBF9
:100AC000000012BB0000AC3A00000ABB000004BCEE
:100AD000008057BC004089BC0000DDBB0000183A14
:100AE0000000CC3B000034BB004093BC0080EABC5B
:100AF0000080F1BC00009CBC000081BB00005E3B9C
:100B00000000403C0040823C00808F3C00803B3C29
:100B10000000FF3B0000043B000050BA008039BCDD
:100B200000C0AFBC00A009BD00A001BD0040B8BC22
:100B30000000ECBB0000653C00C0E43C0080F13CE0
:100B400000C0983C0000E73B000018BC0000A4BCBB
:100B50000040D6BC0080BBBC0040A9BC0000ACBCBF
:100B60000000A4BC00801ABC0000D03B00806A3C9E
:100B70000080AC3C0080763C0000983B0000DFBB6E
:100B8000000023BC0000D0BB0000B4BA0000D03984
:100B90000000E9BB0000EABB00009FBB0000ABBB4C
:100BA000008000BC00005FBC0000B5BC00C0F4BC0D
:100BB0000040E6BC0080ABBC00802DBC0000163BB2
:100BC0000000F83B00804A3C00804A3C0000F93BB2
:100BD0000000603A000092BB008012BC00004FBCD5
:100BE000008086BC0080C3BC00C0A1BC0000E9BB83
:100BF0000000503C0060173D00A02A3D0080E73C0B
:100C000000803D3C0000FFBB0000A5BC0080C3BCD1
:100C100000C091BC00C082BC00C083BC000036BCD8
:100C2000000022BC0000043B0000723C0080BD3C80
:100C300000408A3C000000B900803CBC00806ABCD7
:100C4000008074BC008057BC000028BB0000D03975
:100C5000000080BA0000D4BA000018BA0000E03AE0
:100C60000000A3BB00005FBC0040BFBC006001BD32
:100C70000040F4BC004094BC0000A9BB0000C93B8C
:100C80000000463C0080213C0000DA3B0000623B53
:100C90000000AC3A0000DBBB00C082BC0040C7BC17
:100CA00000C0F2BC000003BD00C08CBC0000833B50
:100CB0000040BF3C00800A3D0040DE3C00804E3CCE
:100CC000008003BC0080A3BC0080C1BC0000ADBCA0
:100CD000004091BC0040A9BC000061BC0000DDBB2D
:100CE000000000B900800D3C0080B23C0080853CD3
:100CF0000000AC3A00C08ABC0080CBBC00C0E4BCA1
:100D00000040D0BC008090BC0000F6BB0000C43A9C
:100D10000000373C00005F3C0080773C0000243C32
:100D20000000A43A000041BC0000C4BC0080EABC42
:100D3000008000BD004092BC000081BB00801D3CD3
:100D40000080033C00802B3C0000EC3B0000D03BCB
:100D500000801F3C0000CCBA00007CBC00C0DBBCA3
:100D60000040F2BC0040CDBC008020BC0000063C2E
:100D70000040B63C00C0983C0000143C0000083A1B
:100D800000802ABC0040B2BC0000D8BC0080C3BCBC
:100D9000008094BC000050BC00000EBB0000E33B90
:100DA0000000183C0080023C0000F83B0000D43AF0
:100DB000000051BC008002BD00201BBD0080F8BCBB
:100DC00000C0DDBC0080A5BC00802DBC00008038C8
:100DD0000080473C0080873C0040913C00804B3CB9
:100DE000000064BB004098BC0000D1BC0040D5BCF2
:100DF000000097BC0000ADBB00801D3C0080673C3C
:100E00000000513C0000383C0000453C0000183C0C
:100E1000000026BB008080BC0040EBBC00E005BDAC
:100E20000040C8BC00007CBC000004BB00801A3C31
:100E30000000463C0080103C0000AE3B000018BAA9
:100E400000801FBC000054BC00C093BC00008DBCDF
:100E5000004092BC000045BC0000743B00004F3CC9
:100E600000408B3C0000BD3B00800DBC0080B4BC4A
:100E7000008003BD002017BD0040FCBC00C0EABCE0
:100E80000000DBBC00C0B8BC000071BC0000043B2B
:100E90000000163C0080773C00004F3C000064BB23
:100EA000008076BC0040DEBC0000E8BC00009DBCB9
:100EB000000088BA0080693C0000AE3C0000633C42
:100EC0000000503C0000983C00C0CC3C0000AD3C11
:100ED0000000283C0000F0BB0080C4BC0040CFBC38
:100EE00000C08CBC000046BB00801F3C0000603C82
:100EF0000080483C00006C3B00004EBB00801FBCE3
:100F0000008077BC008067BC000047BC00C08ABC82
:100F100000C0B7BC008095BC0000F6BB0000903A52
:100F20000000F03A00008FBB00C09FBC0000F9BC7D
:100F3000008000BD0000BCBC000096BC00C093BC9B
:100F400000C0B0BC0080AEBC008086BC000026BBE8
:100F50000000C33B00000A3B0000ADBB004098BC52
:100F60000000E8BC00C006BD00C002BD008057BC48
:100F70000000893B0080563C00802B3C0000E33B96
:100F80000000F23B0000363C0040943C00801E3CD8
:100F9000000040B9000018BC008075BC008081BC16
:100FA000008010BC0000323C0080D23C0080D13C6C
:100FB0000080863C00803E3C0000223B0000C5BB18
:100FC000000029BC000013BC0000EEBB000004BC04
:100FD0000000F0BB0000A4BA0000403A0000403915
:100FE00000002CBB00801BBC00006FBC0000A6BC36
:100FF00000C08BBC008075BC004084BC0080BCBCC1
:1010000000009DBC00004FBC000046BB0000383B08
:101010000000893B00009FBB000026BC00809CBCF8
:101020000000D8BC0040E3BC008090BC008002BC43
:1010300000004ABB000008BB000004BB0000463BA8
:1010400000801A3C00802C3C0080023C0000C4BAA6
:101050000000F6BB00007FBC00801ABC000098BBFB
:101060000000893B0000733C0040A13C00C0C53C2F
:101070000000883C00802F3C0000AD3B00009CBA83
:10108000000098BB0000EABB00801EBC0000D8BA7C
:101090000000C13B0000563B00003C3B0000BF3B52
:1010A00000009C3B00000EBB00800CBC008011BC0B
:1010B000000033BC00009FBC0040A0BC00005EBC30
:1010C000000012BB0000ACBA0000E8BA0000F0BAA1
:1010D00000000000000080BB000005BC000032BC26
:1010E00000409ABC0000E9BC0000E9BC00809EBC46
:1010F00000802CBC0000BABB000098BA0000563B30
:101100000000743B000018BA000004BC00806BBCF7
:10111000008075BC000006BC0000283A0000043CBA
:101120000080593C0080873C0040913C0000B33C6B
:101130000040913C0000363C0000D63B0000703A75
:101140000000B4BA0000D0390000B63B00803C3C3F
:101150000000313C0080383C0000E53B0000B63B1D
:1011600000005A3B000064BB000050BC000096BC6D
:101170000040CDBC00C0D7BC0040F2BC0040BFBCAA
:1011800000C08CBC008074BC000036BC0000BCBB3E
:101190000000DBBB0000E1BB0000E5BB008074BCCD
:1011A0000040A3BC0000C9BC0040D6BC00C092BC3B
:1011B000008011BC0000523B0000983B00009A3BAD
:1011C0000000D0390000E5BB00804DBC00C093BCDE
:1011D00000803FBC0000F6BB0000CC3A00009A3B08
:1011E00000800B3C0000423C00C08B3C00409B3C1C
:1011F00000006F3C0000063C000038BA0000ABBBAA
:10120000000044BB0000833B0000223C0000603C27
:1012100000C0823C00C0813C0080113C0080013C49
:101220000080473C0000C93B0000403B000070BA12
:101230000000DBBB000016BC000045BC000009BC80
:10124000000074BB00009CBA000080B9000028BAFE
:10125000000000BB0000F6BB00806CBC00C0BDBC41
:101260000040F2BC00A001BD00C0BEBC000096BCA6
:10127000000052BC0000ECBB0000F9BB000004BC45
:1012800000408BBC0040B2BC004092BC00C09BBC84
:1012900000408BBC00C0A0BC000089BC00806ABCC0
:1012A0000000B0BB0000F0390000193C0000503CC9
:1012B00000006C3B0000C7BB000036BC00000ABC4D
:1012C0000000C43A00008B3B00802E3C00806A3C4A
:1012D0000000223C0080493C00C0913C00C08B3C97
:1012E0000080793C0000613C0000453C0080393CB6
:1012F0000000DA3B000080B80000193C00006E3CA2
:101300000080663C0000463C00800E3C0000DD3B57
:1013100000002CBB0000E5BB008056BC0040C5BCF3
:1013200000E01ABD008012BD0040DDBC004083BC5F
:10133000008049BC000022BC00802CBC000044BCE2
:101340000080A4BC00C0A7BC00C09BBC00C084BC83
:10135000000087BC0000ACBC008056BC0000C7BBCE
:1013600000001A3B0000703A0000403A00009CBBAD
:1013700000803EBC008086BC008075BC000018BCAC
:101380000000F4BB000090BB000030BB00000A3B33
:101390000000603A0000B43B00804B3C00804C3CB5
:1013A0000000EA3B0000263B000004BB0000C1BB7C
:1013B00000800CBC0000C3BB0000A4BA00009C3B32
:1013C0000000923B0000263B0000B43A0000833B43
:1013D000000000000000F9BB000050BC000064BC2D
:1013E000000074BC000056BC00800CBC0000ABBB0D
:1013F0000000ECBB00004ABB000022BB0000BDBBEC
:10140000000045BC000070BC000072BC000053BC72
:1014100000000BBC0000ACBA00003CBB00003CBBB1
:10142000000008BB0000403A000080B80000E9BBA3
:1014300000008EBC0000A4BC0000BABC00C0D7BC39
:1014400000409BBC000054BC000028BC00006CBBEA
:101450000000D83A0000683B0000443B0000A13B7C
:1014600000005A3B00003C3B0000C53B0080213C93
:101470000000E33B0000B03B0000D63B0000983C7E
:101480000000883C0080783C0000283C00005A3B6B
:1014900000005EBB00004FBC008039BC0000D4BB24
:1014A000000034BB0000F0B9000090BA008011BC0D
:1014B000000052BC008068BC00C089BC0040F4BC85
:1014C00000801ABD00601BBD00E00CBD00E000BD47
:1014D0000080B2BC000062BC000027BC000052BB10
:1014E0000000BABB000029BC000064BC00008DBC39
:1014F00000006EBC00006DBC00803ABC000018BC4F
:1015000000000BBC00009CBA0000D8BA00007C3B75
:101510000080003C0000143C0000F03B00801E3CBA
:101520000000553C00802C3C0000633C00C0993C0E
:101530000040A13C00C09F3C0080763C0000893CFC
:1015400000408A3C0000E53B000026BB008067BCF1
:1015500000C0DDBC00C0E6BC00C0B9BC00807ABCE5
:10156000000016BB0000C53B0000743B0000643B5C
:101570000000A53B00004E3B0000CBBB00801FBC21
:1015800000804ABC00802DBC0000A7BB000012BB3D
:101590000000383B0000343B0000B63B0000B43A8A
:1015A0000000ABBB00005EBC0080CBBC0040E4BCD4
:1015B00000C0D5BC0040A1BC00408ABC000088BC73
:1015C000008094BC00809DBC000095BC0040CDBC58
:1015D0000000D9BC004000BD0080F1BC00C0E5BCEB
:1015E000004085BC000088BC00800FBC000096BB9A
:1015F0000000743B0000443C0080C33C0080C33CBE
:1016000000006F3C00005E3B000022BB0000B4BB4A
:10161000000000BB00008BBB000087BB000034BB98
:1016200000006C3B0000093C00C0903C0080D03CB6
:101630000080BA3C00806A3C0000093C0000343B5A
:101640000000923B0000EE3B00804E3C0080A43C3A
:1016500000C09F3C0000323C0000503A0000ECBB50
:1016600000803FBC00809FBC0040B7BC00C0D5BC20
:1016700000C0B7BC004098BC00802FBC0000BCBBC1
:101680000000FFBB00008DBC0000D1BC0000EABC24
:101690000000F7BC0040E5BC00C0FBBC0000CABCB9
:1016A00000C08CBC008010BC00801EBC0000563BFB
:1016B00000803B3C00C0893C00C0AE3C0040913CF7
:1016C0000000B43A00803BBC008086BC000015BC22
:1016D00000001EBB0000D6BB00802DBC008059BCA2
:1016E0000000DDBB0000303B0080583C00802A3CFD
:1016F0000000A1BB000025BC000045BC00800FBC61
:101700000000DABB0000BC3A0000223B00009CBA9B
:1017100000007CBB0000D0390000DA3B0000263C12
:101720000000043C00803E3C0000F93B00004E3BC2
:101730000000F0BA0000AC3A0000403B00005E3B05
:10174000000040B9008012BC000040BC004092BCC8
:10175000008074BC008056BC0000FBBB00802ABC2B
:1017600000C084BC000074BC000013BC000016BBA9
:10177000000070BB000037BC000009BC00802EBC1C
:1017800000008DBC00806BBC000044BC000052BC5B
:1017900000805ABC0000F2BB0000CCBB0000C9BBFB
:1017A000000056BB00009F3B0000623C0080743C80
:1017B0000000253C0000813B00802C3C0000543C94
:1017C00000008E3C00409B3C00804B3C0000A43A53
:1017D000000080BA0000B23B0080203C00804B3CFF
:1017E0000080213C0000903A000090390000CC3B82
:1017F0000000413C00009A3B0000B0BB008076BC7A
:10180000008097BC000044BC00801FBC0000A6BC48
:1018100000C0D7BC002001BD0080FDBC00E00CBDB5
:1018200000E001BD008006BD0000E9BC0040D4BC62
:1018300000C0C0BC008000BD0080EEBC0080C4BC05
:10184000008068BC00009CBB000038BA0000EABB06
:1018500000800EBC00802DBC000089BB0000A53BB1
:101860000000313C0000343C0040A83C0040B23C49
:101870000000E33C0000B53C00808E3C0080973CBB
:101880000080C23C0040C73C0080AD3C0080303C42
:101890000000A33B0000123B0000B23B0000153CDF
:1018A0000000A73B0000F8BA000000390000833BAD
:1018B0000000723C00007E3C0000223B00803BBCEC
:1018C000008081BC000045BC00005EBB0000C53B41
:1018D0000000B23B0000043B0000EEBB000063BC14
:1018E00000C098BC004094BC0080ADBC0080C2BC6D
:1018F0000000E0BC0080CBBC00A010BD000003BD18
:101900000080B2BC008074BC008081BC000063BC5D
:101910000040A7BC0080AEBC000060BC0000BABBA9
:101920000000D0B9000080B9000034BB00801FBCAB
:101930000000ADBB000050BA000038BA00802EBCD9
:101940000000E5BB0000C4BA000080380000813B05
:101950000000703A00003CBB000004BC0000BCBAB0
:101960000000803B00804C3C00805A3C00803A3CA8
:1019700000802E3C0080803C0000503C0000173C62
:101980000000043C00803E3C0040993C0040EE3C9E
:101990000080E03C0000653C000088BA000087BB86
:1019A0000000AC3A00009C3A000064BB0040A0BCC0
:1019B00000E009BD00600CBD0040D4BC00008DBC3F
:1019C000000074BC00009CBC0000D9BC00C0FBBC83
:1019D0000000C5BC000042BC0000C5BB000023BC29
:1019E00000007CBC004094BC0000A7BC000046BCCA
:1019F0000000D0BB0000803B00802A3C0080483CB7
:101A00000000403B0000123B0000133C0000463C3D
:101A100000009C3C0040943C0000E73B000026BBDB
:101A2000000090BA0000463B0000AE3B0000083CBE
:101A30000000BD3B0000E03A0080113C0080803C8B
:101A40000000153C0000003B0000D8BA008002BC3A
:101A500000806BBC0040A7BC0080CBBC0040EEBC4B
:101A60000080E8BC0080A4BC0000BCBC0080E1BCDD
:101A70000000EABC002005BD0000F1BC0080ACBC49
:101A8000008068BC00009FBC0080A4BC0080C3BC78
:101A90000000ABBC00000BBC000070BA000090BBA3
:101AA000008003BC008000BC0000B4BB0000963B7B
:101AB00000008E3C00009C3C0000B63C0000903CC6
:101AC00000005E3C0000523C0000613C0000B43B62
:101AD0000080383C0080753C0080033C0000E83A00
:101AE00000005E3B0000283A000018BA0000383AB7
:101AF0000000E83A0000043B00800F3C0000133C6B
:101B00000000B63B00004E3B00801FBC008075BC4F
:101B1000000031BC008021BC008039BC00802ABCA0
:101B200000C090BC0080E0BC00C08BBC000022BCA8
:101B3000000088BA000083BB0000FFBB000070BC3F
:101B40000000F9BB000089BB0000C3BB000095BCCE
:101B50000000BDBC0080BBBC008066BC00800FBC28
:101B6000000072BC0080EFBC008006BD00C0EABC73
:101B700000C084BC0000A5BB000068BB00005EBBC9
:101B8000000023BC000004BC00002CBB0000643B30
:101B900000800B3C00003C3B0000BCBB0000F2BBE3
:101BA0000000A1BB000080BB0000E53B0000B63C8C
:101BB00000C0ED3C0040BE3C0080AC3C00007E3CE0
:101BC00000C0913C00C0B03C0080BB3C00005E3CCB
:101BD00000002C3B0000BCBB0000A7BB0000C4BA47
:101BE0000000E83A000030BB000046BC004085BC65
:101BF0000000B3BC000044BC0000C9BB000089BBAE
:101C0000000034BC000040BC00C0B1BC0040D0BCEF
:101C10000000CCBC00C090BC00C0A0BC00C0AEBCEA
:101C200000C0F3BC00E00CBD004013BD00C0F9BC17
:101C300000409ABC00008FBB0000183C0000463CEE
:101C40000000BD3B0000CC3B00001A3C0000883C7B
:101C500000C0AE3C0000D93C0040D53C0040993C5F
:101C600000803F3C0080203C0000043C00004F3CD2
:101C70000080793C00006E3C0000DD3B0000F83B3A
:101C80000000193C0000703C00805A3C0000163BEC
:101C900000804DBC008088BC008088BC00C08ABC2D
:101CA00000C0AABC00C0B8BC0040DCBC0040F3BC13
:101CB0000080C4BC00C0C6BC00C0BDBC0080B4BCB9
:101CC000000088BC008068BC000080390000F23B46
:101CD0000000183C0000403B00006FBC0040D7BC37
:101CE00000C0ECBC0080A4BC004084BC00809FBC51
:101CF000008088BC0000ECBB0000943B00C0833C2B
:101D00000000C53C0080743C0000D63B0000AE3BA8
:101D10000000983B0000DD3B00803B3C0000F83BAE
:101D20000000BC3A00009FBB00009CBA0000B4BB9E
:101D300000008B3B0000063C00802E3C00804B3CAA
:101D400000008D3C0080973C00005E3C0040843CDD
:101D500000803A3C0000093C0000893B0000743BD5
:101D60000000F8BA000013BC000038BC00804CBC76
:101D7000000081BC000063BC000081BB0000FB3B95
:101D80000000373C0000563B000098BA0000BDBB85
:101D90000000A3BB000044BB000052BC0080CBBCD1
:101DA00000800BBD00A032BD00A035BD006032BD7B
:101DB00000602ABD00C024BD00A00FBD006011BDA1
:101DC0000000E9BC00C09FBC000070BC008030BCBB
:101DD0000000DBBB000044BB000018BA0000C43A9E
:101DE0000000F83A0000D43A0000BC3B0000433C3D
:101DF00000C0823C0000383C00803E3C0000053CB6
:101E00000000273C0040B83C00C01C3D0040433D62
:101E10000000433D0020243D00C0E53C0000643C40
:101E20000000853B00801DBC0000A7BC0040AFBC8B
:101E30000040A2BC0080E1BC0080E8BC0040DEBCE9
:101E400000C089BC00802FBC00005ABB0000C4BA8F
:101E50000000D0B900000A3B00003C3B000078BB0A
:101E600000803ABC00009CBC0040ECBC008000BD7F
:101E7000000007BD00C0DBBC00C0A7BC000043BC25
:101E8000000013BC000070BB0000CBBB0000BCBB5B
:101E9000000085BB0000043B0000C43A00801F3CEA
:101EA00000004F3C0000503C0000A13B0000BABBCA
:101EB0000000F9BB0000C3BB00801DBC0000A3BB39
:101EC000000068BB0000303B00009C3B0000473C2A
:101ED0000000D83B0000083A0000DABB0000DABB83
:101EE0000000DDBB0000D4BB00804CBC000097BCF0
:101EF00000C0D5BC0080F8BC0040A8BC000086BC77
:101F000000803DBC0000D0BB0000A4BA0000563BDE
:101F100000801B3C00800B3C0000303B0000403A3E
:101F20000000403900006CBB000090390000153CF7
:101F30000000223C00009E3B000040BA00004FBC65
:101F400000006FBC000028BC0000C4BA0000123BB7
:101F50000000A13B0000FFBB0000AEBC0000D8BCED
:101F600000007EBC00000EBB0000FF3B0000073CF1
:101F70000000403A000016BC00800FBC0000BFBB50
:101F80000000803A0000F63B00803B3C0000BA3B7A
:101F90000000163B0000643B0080293C00009C3C94
:101FA0000000C33C0080C33C0000333C0000C7BBC2
:101FB000004099BC00C098BC000019BC0000DD3B8B
:101FC0000000423C0000F93B000060BA000026BC63
:101FD000000034BC0000D0BB000089BB00800DBCF9
:101FE00000008FBC0040D5BC006013BD00E02EBDDA
:101FF000002033BD006017BD000012BD0040F3BCDF
:102000000040F3BC0080B3BC00806CBC0000A5BBEA
:10201000000098BA00005ABB0000F2BB0000E0BA12
:102020000000883A0000123B0000D4BA0000F0BA69
:102030000000A5BB000068BB00009E3B0080763C12
:1020400000C0A83C00C0BE3C0000AD3C0080903CFD
:1020500000807B3C0080653C00805A3C0000C53B12
:102060000000D43B0000A73B000008BA000025BCDC
:1020700000C0A1BC0000B4BC0080C1BC0040A1BC39
:102080000000BFBB00800D3C00005E3C0000363C01
:1020900000802D3C0000B63B0000F83A0000B0394B
:1020A0000000903B0000B4BA000068BB0000A7BB72
:1020B000000027BC00006EBC0000ADBC00806CBC02
:1020C0000000ADBB00008FBB000092BB0000E3BB73
:1020D00000006CBB000090BA0000463B0000BF3B14
:1020E0000000B23B0000BDBB00C08CBC0080ABBC9C
:1020F00000C0A8BC0000B3BC000086BC000070BCDF
:102100000080ABBC0080D3BC0040B6BC0080A3BC48
:1021100000801CBC0000A7BB000068BB0000B0B979
:102120000000CC3A008000BC0000FFBB0000C3BB35
:102130000000C5BB0000F4BB00008DBB00801FBCCD
:1021400000802CBC000034BC0000FDBB0000273C1C
:102150000040E43C0000193D0040033D0080E93CA4
:102160000000893C0000B83B00009FBB000098BB0A
:1021700000008FBB00003CBB000008BB0000F83A29
:1021800000000EBB000096BB0000FDBB008003BC3E
:1021900000001ABC008010BC00000EBB000080399B
:1021A00000008D3B00005E3B000070BA00008FBB5A
:1021B00000802DBC000034BC00801EBC0000DABBD7
:1021C0000000EABB0000D0BB00006CBB000080BA7E
:1021D000000030BB000050BA000038BA0000EEBB6F
:1021E000008001BC000030BB00009A3B0000D43BE3
:1021F000000008BA0000CCBA000064BB0000F9BBC4
:10220000000045BC0000F9BB00004EBB000040BB15
:10221000000056BB0000A9BB000013BC0080A3BC9B
:102220000080C4BC000080BC0000A3BB0000123BC7
:10223000000060BA00800CBC000061BC0000C5BB9F
:102240000000B83B00800C3C0000E13B0000503A2D
:102250000000A9BB0000E3BB00008BBB0000283BD3
:1022600000001A3B0000963B0000703B0000523B10
:102270000000A73B00804D3C0000193C000044BB1F
:1022800000805ABC000038BC00802ABC00008039A5
:1022900000800E3C0000123B008057BC0000B6BC22
:1022A0000040BEBC004092BC00008FBB00002C3B35
:1022B000000000B9000028BB00803FBC00805BBC70
:1022C0000000E1BB0000963B0000473C0080973CCB
:1022D0000000873C0000743B0000BC3A0000443B17
:1022E0000000B03B0000873B0000A43A000080BB28
:1022F0000000B0BB0000CCBB000040390000643BD4
:102300000000EC3B000090B9000078BB008011BCDD
:10231000000026BB0000AB3B00803D3C00009F3B23
:102320000000F0BA000053BC000086BC008076BC00
:10233000008021BC00800FBC00805BBC008069BCB9
:10234000008066BC000047BC0000A3BB00802CBC22
:10235000008056BC0080AEBC000087BC000070BC92
:10236000000040BB000080390000F0BA008021BCB2
:102370000000D1BC00E018BD006023BD0040D7BC08
:10238000008038BC0000B03B00C0903C0080683C3E
:102390000000B83B00009C3B00801D3C00805A3C84
:1023A00000C09B3C00C0A73C00408A3C00801C3C15
:1023B0000000183A000008BA0000A43A00005E3B92
:1023C000000087BB000046BB000013BC000019BC26
:1023D000008012BC0000AD3B0080763C00803A3C9F
:1023E00000803C3C00802B3C00006C3B00000EBB9E
:1023F000000080BA0000C7BB000031BC00802DBCCB
:102400000000F2BB000040BB0000AC3A0000083AFC
:102410000000D8BA000036BC008081BC00008FBC30
:10242000000073BC00008FBC008069BC000045BC8C
:10243000000033BC008078BC0080B4BC0080F9BCD4
:102440000040FBBC0080D0BC00007DBC004083BCD1
:10245000004085BC000063BC000006BC0000F8BA68
:102460000000B83B0000BA3B00002C3B0080123C4F
:102470000000553C00807B3C0080693C0000D03B64
:1024800000800CBC00804ABC004082BC00802CBC98
:102490000000E03A0000323C0080103C00802B3C01
:1024A0000080573C0000373C0080113C0000043C99
:1024B00000803B3C00C0833C0080773C0000133C24
:1024C0000000083A000081BB0000E9BB000007BC27
:1024D00000800EBC00804DBC0040B1BC0080B2BC8E
:1024E00000005FBC000098BB000033BC0040A2BCF1
:1024F00000C0D5BC0040C1BC008056BC00803FBCC1
:10250000000046BC00006FBC00C092BC008075BCDF
:10251000000038BC00008FBB0000C1BB0000BCBB8A
:1025200000806ABC00808FBC000074BC008058BC76
:102530000000E3BB000000000000F93B0000D43BBA
:102540000000263C0080203C0000643C0000B53CBC
:102550000080B33C0000093C0000B6BB004085BCD5
:10256000008048BC0000D03B0040A13C00408B3CB8
:102570000000223C0000803800801EBC00000ABC25
:102580000000F8BA000018BA0000BA3B0000FB3B9C
:102590000000873B0000FDBB00C08BBC0080D1BCAD
:1025A0000040B6BC000032BC000000BB000008BC0C
:1025B000000037BC008068BC0000DABB000025BC0E
:1025C0000000F9BB008039BC00006EBC000071BC8B
:1025D00000804ABC004099BC00C099BC00C0A0BCAF
:1025E00000006FBC000038BC000070BA0000123B55
:1025F000000080B80000B4BA0000000000001EBB5C
:1026000000000ABC0000B0BB0000E3BB000000BB40
:102610000000923B0000473C0000553C00801A3C03
:102620000000F83A000080B80000303B0000803B1A
:102630000000043C0000903A000044BB000016BCBF
:1026400000804BBC004093BC000090BC00801ABCD2
:102650000000B23B0000BD3C00C0AA3C0000523C60
:102660000080013C00004A3B0000BCBA00000ABBED
:1026700000004EBB008020BC0000C9BB000074BB42
:10268000000070BB008067BC00C0A9BC00C0AFBC2C
:10269000000038BC0000C7BB0000E7BB00803BBCAB
:1026A000000055BC00803BBC000094BB0000A43A75
:1026B0000000A73B0000F03A0000F0390000E73BC3
:1026C00000803F3C0000273C0000CC3B000080BA6B
:1026D00000007FBC008087BC000060BC00004ABBDB
:1026E00000005EBB00805D3C0080953C0040B63C35
:1026F0000000AD3C0000743C0000803B0000F0B9DD
:102700000000703A000080BB00803DBC008058BCD7
:1027100000C0C0BC0080BDBC000052BC0000C3BBF8
:10272000000022BC0000FFBB000081BB000047BCD2
:102730000080BCBC0080DFBC0000A4BC00005FBC0B
:10274000008002BC000016BC008090BC00809FBCD2
:10275000000050BC0000CCBA000034BB0000703A4E
:10276000000023BC00802CBC0000D43A0000653C73
:102770000080573C00802A3C0000453C00806B3CB8
:102780000000E03C0000F63C0080E03C00804E3C55
:1027900000801E3C0000803B0000A73B0000343C52
:1027A0000000163C0000043B0000083C00C0813CD7
:1027B00000804B3C0000543C0000F63B000040BB56
:1027C000008000BC0000083A000026BB0000B0BB3F
:1027D000008030BC00803ABC000060BC000074BCCB
:1027E0000000A6BC00C0FBBC0040F3BC00C09FBC06
:1027F000000051BC008047BC000006BC00801BBC30
:1028000000801DBC0000B0BB0000BCBB000061BC70
:10281000008094BC000056BC000045BC008066BC33
:10282000000080BC0000A4BC0080BCBC00007EBCDA
:1028300000801CBC0000F4BB00001ABC0000ADBB53
:10284000000026BB0000EA3B0000D039008010BC2D
:1028500000C0A0BC0000BFBB0080023C0060023D85
:102860000000163D0040D03C00801C3C0080293C0C
:1028700000809D3C0080D33C00C0EB3C0080663C67
:102880000000A93B00802B3C0040853C0080383C88
:102890000080013C0000E33B0000F23B0080473C2D
:1028A0000000413C00003C3B000024BC0040A8BCB0
:1028B000008095BC0040D6BC0000BCBC0000E0BC61
:1028C0000080ADBC00C09FBC00801BBC00802EBC43
:1028D00000C090BC0040C7BC00C0FBBC00A010BD45
:1028E000000026BD006020BD00A00DBD00C003BDDE
:1028F000000013BC000081BB00009C3B00009EBB9D
:102900000000D23B0080213C00008D3C0000263CB2
:102910000000083A00801FBC0000CBBB00003CBB9D
:102920000000703A0000E83A0000173C00408B3C81
:1029300000400A3D00602B3D0000173D0000453C73
:102940000000E1BB000070BC0000DDBB0000F23BFA
:102950000000F63B000090B9000026BB00005A3B87
:102960000000473C0000D83B000060BA000097BC64
:102970000080E0BC0040AABC008074BC000024BC05
:1029800000C081BC00007DBC0000DABB0000AD3B94
:1029900000806C3C00408C3C00408A3C0080383C0D
:1029A00000008F3B00006CBB00C08ABC00007FBCF5
:1029B000000055BC00009A3B0000CC3A0000F03A01
:1029C000000008BC00000B3C00408C3C0080C33C75
:1029D00000000ABB0000DABC000026BD0040D7BCE6
:1029E000008095BC00006FBC00C0B6BC0080D8BCA5
:1029F000008081BC0000F43B0060173D00E0273DF3
:102A000000C0CF3C000090390000D0BB000028BBC4
:102A10000000943B000060BA0000CCBB000047BC43
:102A200000009ABB0000063C0000983B000016BC6A
:102A300000009EBC00009EBC008085BC00803ABCAB
:102A40000000C5BB00C08ABC00C08BBC00802FBC8E
:102A500000801CBC008030BC000027BC00800BBC88
:102A600000804CBC0000FDBB000041BC0000EABC83
:102A7000002002BD0000B6BC0000C43A0000E8BA65
:102A8000000060BA0000E7BB00800E3C0040A03CA4
:102A900000C0A83C0000CCBA00C084BC008090BC40
:102AA0000000683B0000B53C00809D3C0000563BA8
:102AB000008058BC0000A5BB00004F3C00C0D43CC7
:102AC0000040893C00005E3B0000E1BB0000E03AB2
:102AD0000000A73C0080AC3C0000123B000089BC19
:102AE0000040B7BC00008DBC0000A53B0000193CB5
:102AF000000018BA008069BC0000B5BC0080D9BCD9
:102B000000009DBC008039BC000097BC0040FCBCAC
:102B10000040AABC000098BC008085BC00C0AFBCCF
:102B200000E009BD00603EBD00C01CBD0000C9BC86
:102B30000040C0BC000036BC000004BB00008F3C5D
:102B40000080C43C00C0AA3C0000223B0000E93BDE
:102B50000000903C00C0BE3C0000513C0000F0BAB8
:102B6000000034BC0000BCBB00800BBC00800CBC6F
:102B7000000052BC000040BC0000523B0040C53C7D
:102B800000600C3D0040153D0080E83C0040A93C41
:102B90000040E63C00201F3D00C0E43C0000943BA8
:102BA00000802CBC008069BC00005EBB0000893C3A
:102BB0000000AC3C0080303C0000703A000031BCAA
:102BC000000068BB0000563B000038BB0000BBBCE7
:102BD00000600CBD0040C1BC000037BC000070BAF2
:102BE000000080BB000053BC0000CABC00C08CBC0D
:102BF000000046BC00804ABC000053BC008003BCFF
:102C00000000E93B0080783C0000063C000094BBDB
:102C1000000060BC000038BB0000F0BA000098BBA8
:102C20000080BABC0000E3BC00009EBC000081BC78
:102C30000000EABB000031BC008010BC0000AD3BCE
:102C40000040E63C0000133D0060043D0040AA3C0B
:102C500000800C3C0000C53B0080BB3C0040B93C00
:102C60000000743B0000AEBC0080C3BC0080ABBC65
:102C700000801DBC00005ABB00801ABC000045BC8F
:102C80000040A0BC00801ABC0000DFBB0000ADBB50
:102C9000008066BC0000A5BC008059BC000029BCB7
:102CA00000007CBB008047BC000063BC00801FBCF0
:102CB00000000E3B0000083A000042BC0080BABC95
:102CC000002001BD000053BC00003C3B00009A3BCB
:102CD00000003CBB00803FBC00009C3A00802D3CC3
:102CE00000C0A23C00001A3C0000F2BB0000A43A65
:102CF0000000A93B0000F93B00800FBC0000A7BC0E
:102D000000C091BC000080B800803D3C00C0AF3CDA
:102D10000000973C0000243C0000473C0080D83C69
:102D20000000CB3C0000BA3B000047BC0080B5BCB3
:102D3000000032BC0000F63B00C0A03C0000283C74
:102D40000000A7BB000044BC000034BC0000DBBB9B
:102D5000004089BC0000E9BC00A035BD00A02BBD2F
:102D6000006001BD00009EBC00008FBC0080D0BC94
:102D70000080B4BC000036BC00000039000018BC64
:102D800000809EBC00C0C8BC000074BB0000053CB5
:102D90000080473C0000CB3B0000B0BB0000743B10
:102DA00000007C3C0080763C0000813B00802BBC16
:102DB000000032BC000078BB0080013C0000BC3A3F
:102DC000004091BC000050BC0000D03900C0913CD4
:102DD0000000B63C0040AA3C0000B0390000F8BA40
:102DE0000000183C0000723C000004BB008076BC70
:102DF0000040CFBC00803DBC0000BCBA0000B03930
:102E00000000C7BB008039BC000051BC0000ECBB17
:102E10000000BC3B0000183A00C09FBC00E008BDA9
:102E200000E044BD0080CABC00005FBC000026BBBF
:102E300000809EBC008058BC000032BC00803C3C3E
:102E40000000F83B0000B03B000026BC00007C3BCB
:102E50000000B43A0000FD3B0000D0390000A9BBDF
:102E600000801DBC00009F3B000040390000D8BB23
:102E700000009DBC000089BC0000B2BB0000563BB6
:102E800000001E3B008075BC00803EBC00800F3CF3
:102E90000040FA3C0040D53C00408B3C0000B2BBF7
:102EA00000009CBB0000DA3B0000973C00001ABB0E
:102EB0000080E0BC002032BD0080F0BC00802ABC55
:102EC0000000043C0080743C0080793C0000223B00
:102ED00000004A3B0000303B0000F0B900805DBCC0
:102EE0000080B2BC002024BD0000C9BC008067BCCB
:102EF000000046BC0000A7BC000088BC0000A6BCC7
:102F000000000EBB000040BA00004EBB00007EBCBB
:102F10000000DABB00802BBC00003CBB0000D43BAF
:102F20000000CE3B0000373C0080E13C0000AC3CA0
:102F30000000283C00009E3B000008BA0000523B05
:102F40000000D03B0080213C000025BC000034BBC9
:102F50000080813C0040FC3C0000B43C0080773C99
:102F60000000F0BB0000F2BB000040B90000C53B10
:102F700000C0BFBC00A02EBD006053BD0080F7BCE8
:102F800000801FBC0000B43B0000703B0000263CEA
:102F900000800C3C0000F93B0080563C00C0993C8E
:102FA0000000A43A00005FBC002010BD00400FBD2F
:102FB00000A005BD00C0ECBC00E008BD0000E7BCFF
:102FC0000000E9BC008038BC000022BC000062BCEC
:102FD000004091BC008047BC00C092BC000063BCB4
:102FE000000012BB0000B03B00005E3C0080CA3C09
:102FF0000080483C0000343B0000383B0000B23BFE
:103000000000813C0040CD3C00C0AF3C0000EE3BE6
:10301000000000000080033C0000A73C00C0903C82
:103020000000053C000000B90000563B0000DB3BFF
:103030000080383C0000C7BB00C08ABC00C0FBBC9D
:10304000004094BC000047BC0000ADBB0000D8BBF2
:103050000000383B000016BB0000F0BA0000E8BAE0
:10306000000022BB008079BC00809CBC0080F8BCC2
:103070000080BABC008056BC000012BB0000FBBB45
:10308000000033BC0000A7BC00806BBC008056BCB5
:10309000000052BC00001ABC000080BB0000000011
:1030A00000006C3B00005F3C0000523C00802F3C65
:1030B00000804A3C0000403B00801DBC0000F4BB87
:1030C00000804ABC008069BC00C09FBC000027BCD7
:1030D000000024BC0000A33B0000733C0060143DD2
:1030E00000C0023D00C0B13C0000E93B0000A73B2E
:1030F000000026BB00006CBB000024BC008066BC46
:10310000008066BC0000E83A0000553C0000283C06
:103110000000523B0000A53B00006CBB0000B0BBB0
:1031200000000ABC0000E7BB00C08ABC0080D9BC1C
:1031300000E009BD00C0E3BC00804DBC0000383A8F
:1031400000004EBB000042BC0040C8BC0000C3BC35
:1031500000007EBC0080A5BC0080A6BC0040CFBCA7
:10316000000045BC0000BFBB0000873C0000903C55
:103170000000343C0000CCBA000050BA0000C3BBD1
:10318000000052BB000098BB00801CBC000034BC97
:10319000000016BB0000923B0080763C0080AE3CF5
:1031A0000020023D0060083D0040B23C0000A43C0D
:1031B00000804E3C0000463B0000A3BB000025BC45
:1031C0000040A1BC0040A1BC0000ADBB0000C93B59
:1031D0000000CE3B0000AD3B0000AB3B000014BC48
:1031E0000040A3BC0040EEBC0000BCBC0000DBBC47
:1031F0000000ABBC00C0CCBC00C08CBC00002CBB31
:103200000000EA3B0000283B0000E3BB0000B4BC28
:103210000080BCBC0000EABB008010BC00802EBC5B
:10322000008080BC0000403900800E3C00E00B3D77
:1032300000A0003D0000743C000064BB00008BBB9C
:10324000008003BC00006CBB000041BC0080D0BC0F
:103250000040F4BC0000A7BC000068BB00C0903C6C
:1032600000C0A83C00C0CC3C00C0AA3C0000233CED
:10327000000080B900008D3B000074BB0000A4BAC0
:103280000000F9BB008001BC00C08CBC0000B4BBD6
:103290000000BABB0000E03A0000F0390000C73B74
:1032A000000090BB008012BC00803BBC0000F0BB63
:1032B0000000BCBB008075BC00C0B1BC0040C8BCF5
:1032C0000000D2BB0000D8BA00006C3B00008FBBEE
:1032D00000805ABC008086BC0000D43A0000B4BA1A
:1032E000000096BB00801FBC000074BB00000E3BBA
:1032F0000000E93C0040043D0040823C00009CBBD3
:103300000000CCBB00801EBC000000000000803A22
:10331000000026BB0000F0BB0000C53B00008F3C56
:103320000060133D00200C3D0000123D0000C23C37
:1033300000803D3C000013BC00800EBC00C083BC7C
:1033400000800FBC00007CBC000025BC008080BC5D
:10335000000047BC0000F6BB0000803A000008BB3C
:103360000000DABB000097BC0000B5BC00C0C8BCC0
:10337000008059BC000072BC0080DFBC00201BBD77
:103380000080FDBC000063BC0000B43A0000DF3BDD
:1033900000000A3B0000ABBB00800EBC0000B23B4B
:1033A0000000403B0000B0B9000034BC0000D8BAB7
:1033B0000000813B0000C23C00C0CC3C00801A3CB5
:1033C0000000B0BB0000FBBB0000ADBB0000883AB2
:1033D0000000E8BA000035BC00807BBC00003CBBAC
:1033E0000000523C0040DE3C0040B03C0000903CFD
:1033F0000000733C0000B83B0000CEBB008011BC55
:1034000000802FBC00800FBC0000ADBB00005EBB85
:103410000000003B0000123B0000E73B0000DF3BE8
:103420000000C33B008048BC008059BC00C0A1BC68
:10343000000074BC000044BC00008DBC00E00FBD67
:10344000000038BD002010BD0080B2BC0000ECBB05
:10345000000022BC004085BC0080C9BC00C089BC03
:103460000000AEBB000070BB00808EBC00008EBCB4
:1034700000006DBC000090390080583C0040A83C22
:1034800000802F3C0000883A000090BA0000903A7B
:10349000008003BC000029BC000018BC0000503AAA
:1034A0000080763C0020093D0020113D00800B3D4E
:1034B0000040D43C0040C73C0080783C0000193CF0
:1034C000000094BB008058BC00C089BC008076BC62
:1034D0000040AABC008067BC000014BC0000C43AD5
:1034E0000000D83B0000E33B008010BC008076BCAD
:1034F00000009CBC00408ABC0000D2BB008065BCC0
:103500000000D8BC00C0F9BC008048BC000098BADC
:1035100000409A3C00801C3C0000B0B90000CEBBCB
:103520000000B83B00007C3B0000003900809EBCDE
:1035300000C09BBC00C0B6BC000000B90000333C1A
:103540000000893C0000F03A000052BB0000F0BAD5
:103550000000B23B0000C7BB0000FBBB0000B4BCD6
:1035600000809EBC00C090BC0000C33B00806A3C51
:103570000080BB3C0080BA3C0000C93C0000A63C77
:103580000000CE3B0000CEBB000023BC00008FBB80
:103590000000563B0000BA3B0000233C0000CE3B3D
:1035A0000080473C00C0913C0000893C000040B9CD
:1035B000008078BC0040E3BC00C0D5BC008078BC73
:1035C000008096BC0080C9BC00409BBC0000CBBB07
:1035D00000004E3B0000173C0000943B0000A7BBDE
:1035E000000007BC000016BC00805ABC0040AABC0A
:1035F0000000F8BC0000B3BC00009EBB0080863C0D
:103600000080CA3C0080973C0080033C0000CC3B1B
:103610000000F83B0000D83B0000E83A0000D0BBB7
:1036200000C09BBC00C08CBC00803BBC0000223CA6
:103630000080693C0080BA3C00C0993C0080BD3CE1
:103640000000F93B0000873B00800CBC000051BC2F
:1036500000C0A7BC008030BC000014BC0000AEBBA2
:10366000000014BC00009CBA00000A3B000056BBDE
:103670000000B6BC002002BD00001ABD00C0FABCAC
:1036800000C0C7BC0000A6BC0040C8BC00803EBC57
:1036900000009E3B0040B83C0080953C0080583CB8
:1036A0000000C9BB00006C3B0000A73B0000453C8C
:1036B0000000E0BA00801BBC00806CBC000026BB90
:1036C00000803B3C00806A3C00001A3C0000A13BAB
:1036D000000090390000083B000008BB008000BCDF
:1036E00000C0B6BC0080A6BC004084BC0000083A04
:1036F00000408A3C00C09B3C0000713C00803D3C87
:1037000000408B3C0000803B0000F83A008087BC02
:1037100000009DBC000062BC0000E13B0000DA3B01
:1037200000000B3C0000703A00004EBB00009C3AC9
:103730000000F03A000014BC0000D3BC008000BDC3
:1037400000200DBD00C0A2BC00408CBC00C0B6BCB7
:1037500000C098BC000098BB0000CC3B0000ADBB93
:103760000000C1BB008095BC0000C7BB0000DABBF5
:103770000000523B000033BC00007FBC00C091BC85
:1037800000005A3B0080773C00C0903C0000423C67
:1037900000008B3B0000683B0080213C0000E33BC5
:1037A00000009CBA0000FFBB00000BBC00004ABB3D
:1037B0000000463C0000503C00008F3B000030BB46
:1037C0000000983A0000873B00801B3C0000EA3B69
:1037D000000007BC00006EBC00000ABC00003C3BBF
:1037E0000000B43B0000343B0000903900000ABBED
:1037F0000000043B000050BA000056BC00C002BDEF
:10380000006001BD0040DDBC00802BBC000016BC88
:10381000000065BC0080A3BC0000CBBB0000C3BBA4
:1038200000802ABC000073BC000072BC000040BCD9
:10383000000060BA00008D3B0000003B0000ABBB05
:103840000000E03A0080023C00809E3C00804C3C3E
:1038500000000B3C00004ABB0000903B0000E03A37
:103860000000AC3A0000ECBB000050BC00805DBC26
:10387000000028BB00804C3C0080473C0080593C45
:10388000000088BA0000B83B0000D63B0000A73C0F
:103890000000FD3B0000D43A008003BC0000963BD2
:1038A0000000DA3B0080583C000022BB0000C7BB90
:1038B000004084BC008077BC000062BC00007CBC7F
:1038C0000000F2BC00C006BD0080EEBC00806BBCF6
:1038D000000029BC008057BC00008DBC000050BC1B
:1038E000000027BC00800BBC008000BC000056BB61
:1038F000008003BC00002CBB0000F0B90000CCBA73
:103900000000BCBA0000983B00000A3C0000543C98
:103910000000343B0000ECBB008059BC0000803943
:103920000000003B0000683B000092BB0000E3BBCE
:1039300000804ABC0000BA3B0080483C0000613C6B
:103940000000A13B000028BA0000C4BA0000BC3B44
:1039500000805A3C0000D23B0000223B0000B4BA79
:1039600000005E3B00003C3B0000743B0000A9BB34
:10397000000052BB0000EABB00000EBB0000A53BEC
:1039800000000039000065BC008097BC00005FBCEF
:10399000000018BC000008BB000085BB000053BC41
:1039A00000408ABC000064BC000064BC008059BCBC
:1039B000000024BC008038BC000038BB000094BB71
:1039C000000012BB0000C43A0000CCBA0000C43AA8
:1039D00000009C3A000028BC0040B2BC00004FBC74
:1039E0000000403A0000C13B00009C3A00002CBBA4
:1039F000000018BC0000A9BB0000EE3B0080683C42
:103A00000000153C0000A43A0000ECBB00001A3B8B
:103A10000000613C0080793C0000443B0000000055
:103A200000005ABB0000D63B0000253C0000A93B2B
:103A3000000087BC00C0AFBC0040C0BC008087BC99
:103A40000000BABB0000CCBB004085BC0000A7BC96
:103A500000808DBC00807BBC0000ADBB00000BBCB7
:103A6000008068BC004085BC0000C4BA000009BCEE
:103A7000000046BB0000CE3B0000423C0080563CAC
:103A800000C08B3C0000AC3C00408C3C00807A3C89
:103A900000004F3C0080763C0000703A008020BC63
:103AA000000016BC0000B2BB0000443B000089BB14
:103AB0000000A43A0000FBBB0000BF3B00803E3C7E
:103AC00000C0823C000080B8000078BB008049BC88
:103AD000000038BA0000F83A0000F03A000056BC86
:103AE000008074BC00803BBC00003C3B0000D03B2D
:103AF00000009CBA004085BC0000BBBC0040A8BCD4
:103B0000008080BC000019BC008075BC000086BC31
:103B1000004089BC000060BC000008BC00004039C7
:103B20000000A4BA0000DFBB000094BB0000F8BA9C
:103B300000802ABC00801CBC00002C3B0000283BFD
:103B40000000A43A0000263B0000B43B0080393C52
:103B50000080743C0080123C0000043C008000BCEB
:103B60000000E5BB000018BC000098BA0000283A2D
:103B70000000FF3B0000E53B0000313C0040B63C4C
:103B80000000F83C0040D63C00C0A03C00009C3B3C
:103B9000000098BA0000703B0000543C0000F03B6D
:103BA000000060BA0000F0BB0000A43A0000CC3B6B
:103BB0000080853C0000DB3B00008DBB00007FBC2B
:103BC00000C089BC00009DBC0000D2BC002006BD26
:103BD000000017BD00C0D4BC0000CABC000060BC1F
:103BE00000805BBC00801EBC008080BC0000D2BB9B
:103BF000000018BC000040BC00C082BC000078BBC4
:103C0000000040BB00009C3A0000C13B00804B3CE0
:103C100000C0C53C00C0DD3C0000C23C0080483C08
:103C20000000083A0000A3BB0000B2BB000004BCC7
:103C30000000B0BB00008DBB0000ECBB0000E8BA88
:103C40000080033C0000513C0000EA3B0000963B32
:103C500000009FBB0000C4BA0000E53B00009E3C92
:103C600000001E3B000074BB000031BC0000D4BA51
:103C7000000088BA0000233C0000183A000046BB50
:103C8000000005BC0000B6BB000022BC000081BCE7
:103C90000080C9BC0000C2BC0040A1BC00009EBCAA
:103CA0000080A5BC0040A9BC00C090BC000073BC53
:103CB00000803ABC0000D2BB008039BC00001ABCB6
:103CC000000088BA0000853B00000E3B0000F43B7A
:103CD0000080783C0080A33C0080863C00802B3C28
:103CE0000000383B000098BA000080390000233CF7
:103CF00000803F3C00802C3C0080023C0000B23B36
:103D000000804A3C0080853C0000953C0000053C5A
:103D10000000B63B00801CBC000040B90000183A0F
:103D20000000053C000088BC008057BC0000A6BC19
:103D30000000F6BB0000E9BB0000403B000054BCA3
:103D40000000ABBC00C0AABC008068BC000046BC40
:103D500000802BBC000034BC000056BC008003BCBB
:103D60000000F9BB0000FFBB000016BC000004BC53
:103D7000008047BC00001ABC000040BC000051BCE1
:103D8000008077BC0000E7BB008010BC000038BB9F
:103D90000000003B00804D3C00802B3C0080583CE4
:103DA00000006D3C0000343C0000EA3B0000F83BA2
:103DB0000080813C0080763C0000723C0000DB3BD0
:103DC0000000623B0000263B0000E53B0000373C62
:103DD0000000B23B00001EBB0000EEBB00005EBB5B
:103DE000000028BA00009E3B0000BDBB000053BC91
:103DF00000803DBC000012BB000040390000403A8A
:103E00000000F0BB00804DBC000045BC00801CBC25
:103E100000802ABC000061BC008080BC0000A4BC03
:103E2000004085BC000053BC008011BC00005FBC9A
:103E300000006FBC00C09ABC008079BC00C093BC7D
:103E400000800DBC00000ABC0000E8BA00004EBBB8
:103E50000000183A0000BD3B0080583C0000733C55
:103E600000C09A3C0040993C00803E3C0000E93B89
:103E70000000A53B0080213C0000173C0000FD3BFA
:103E800000005E3B0000383B0000B63B0000613C98
:103E900000808E3C0000273C0000983A000008BBE0
:103EA0000000B43A0000303B0000F03A000071BC62
:103EB0000000B4BC0080ACBC00803EBC0000BDBBB8
:103EC0000000BABB000042BC0080C9BC0080ADBC91
:103ED0000040B6BC004083BC0040C6BC0040D5BC1E
:103EE0000040F5BC00C09ABC000041BC0000EEBB25
:103EF00000802DBC00000ABC000053BC00800CBC3C
:103F0000000022BB00008D3B000080390000563BC2
:103F10000000C43A00800D3C0000DA3B0000353C54
:103F20000000C53B00000B3C0000DA3B00009C3A5F
:103F30000000E8BA00008B3B0000CB3B0000F93BDF
:103F40000080583C00805B3C00409A3C0000C93C2B
:103F50000000F03C00C0F43C00008F3C0000EC3B53
:103F60000000893B0000263C0000E53B0000D43AFD
:103F7000000015BC00409ABC0080B5BC008038BC75
:103F8000000050BA0000D4BB00802DBC00C0A2BC11
:103F9000000080BC008085BC0000D2BB00C081BC9A
:103FA00000006EBC00C091BC00000BBC000074BBE4
:103FB000000030BB00805ABC008047BC0080B5BC0C
:103FC00000809FBC000086BC008030BC00408ABCE2
:103FD00000800CBC0000EEBB000096BB0000F8BBEC
:103FE0000000ACBA0000183A0000DD3B0080023C43
:103FF00000000E3B0000813B00004A3B00004E3BAE
:104000000000B43A0000D03B0000403C0080953CEA
:104010000080CC3C0000C93C0080743C00006C3B3C
:10402000000038BA0080743C00C0B03C0000F7BC0F
:10403000000064BB00004EBB00202ABD0080C9BC4C
:1040400000000BBC0040A7BC00806ABC0000E0BAC6
:104050000040EBBC0000E2BC0020083D0000C7BBF4
:10406000000045BC00000BBC00006CBB000050BC55
:1040700000C0A1BC000080BB00805C3C0000CBBB4A
:104080000040A0BC0000003900802FBC000018BC1C
:1040900000C08ABC000060BA0000E5BB0000E9BBBC
:1040A0000000B43B00001A3B0000503C0000743C90
:1040B0000000C13B00805D3C0000CCBB00801A3C8E
:1040C0000080A3BC00C08CBC0000DB3B0000B2BB86
:1040D00000005E3B0080393C0000653C00C0A13C14
:1040E0000080A33C00807A3C0000723C0000523B00
:1040F0000000DA3B00009F3B0000B23B0080A3BC05
:10410000000040BA000092BB00C0AABC00A063BD82
:10411000008079BC000046BC0040C6BC008086BC64
:104120000000E3BB00803CBC004093BC00803DBC71
:1041300000C082BC0000FB3B00004F3C0080573CAD
:104140000000903B0000DB3B00803DBC0000123BC8
:1041500000800DBC0000E3BB008077BC00009C3BEE
:1041600000001E3B00000A3B0000C73B00800C3CE7
:104170000000943B0000903C0000B0390000623B1E
:1041800000801C3C000008BA0000F83B0000683BBF
:104190000000223B00800CBC0000D8BA0000943B19
:1041A0000000043B00006F3C00000039008068BC48
:1041B000000029BC0000903A00005EBB0000CCBBB0
:1041C000000032BC0000000000000A3B0000C73BBA
:1041D000000026BC00408ABC00808FBC0000F1BCFF
:1041E000008056BC000026BC000038BC0080D3BC58
:1041F00000803BBC00000ABC0000A73B0000FD3B68
:104200000000E93B00801CBC0000B03B000029BC62
:1042100000800BBC0040A0BC00408BBC000051BC27
:104220000000283C0000553C0040B23C00C0BF3CB0
:104230000080793C0080CC3C0000BC3C0020113D5B
:1042400000805B3C00802B3C0000B0BB0000BCBB8E
:10425000000030BB00C0933C0000CC3A0000403C62
:1042600000C0B13C00C0813C0040A83C00807B3CC9
:1042700000005A3B000040B9000038BB000007BCFA
:104280000040A1BC0000C4BC00E004BD00801EBC16
:10429000008056BC000036BC00805CBC00408BBC7B
:1042A000008075BC000038BA0000C13B00009EBC15
:1042B000000098BC0000AEBC000023BC00000B3C1A
:1042C000000004BC00008BBB000050BC000047BCD9
:1042D000008049BC00803F3C00803CBC00007DBCAD
:1042E000000015BC000038BA0000283B0080303CBC
:1042F0000080003C0000E93B00803B3C0000653C46
:104300000000403A0000C53B000070BB00009FBCAD
:1043100000408ABC00003CBB00803A3C0000F43BFB
:104320000000513C00802E3C0080D13C0040BE3C4F
:104330000040B13C0000AC3A00806A3C00003CBB4D
:10434000008010BC00C0A8BC000015BC0040FBBC35
:10435000000081BC0000F9BB000054BC000041BC5F
:10436000000013BC000027BC0000D2BB0000DA3BF9
:10437000000051BC000006BC000036BC000054BC6C
:10438000000015BC00803C3C0000B0BB00807ABC43
:104390000000E0BA0000D039000028BC0000BA3BA1
:1043A00000801BBC0000D8BB0000323C00807A3C7F
:1043B0000000903900003C3B00804E3C00008BBB6D
:1043C00000C0933C0080213C00409ABC000081BCAE
:1043D0000000CBBB008086BC00802EBC00800E3C61
:1043E00000005A3B0040843C0040EC3C0040993CBB
:1043F0000000983C0000A63C00001E3B0000C3BB30
:104400000000B23B00000000008067BC00C08BBC15
:10441000008056BC0080A4BC000056BC0000E1BB7C
:1044200000803ABC0040EEBC0000B2BB0000F2BB12
:104430000000C5BB000004BB0000ADBB000052BCC7
:10444000000090B90080013C0000A7BB000047BC01
:104450000000F93B00008F3B00802CBC00001ABB21
:10446000008000BC000012BB0000403B0000A73BE6
:104470000000193C0080003C0040C13C0000513C61
:104480000000453C0040A93C0000853B00801A3CF0
:104490000000403B000023BC000035BC000095BC80
:1044A000000018BA0000BABB000023BC0000B23BF9
:1044B000000024BC0000CCBA008087BC0040CEBC09
:1044C000000031BC000081BC00808EBC000061BCDB
:1044D00000C090BC000043BC00C0B8BC000088BC59
:1044E000008077BC000096BC000047BC0000D8BC30
:1044F00000C099BC0000E5BB00C090BC00009EBCA1
:1045000000808FBC000008BB0000043C0000153C8C
:104510000000CE3B00C0913C0000CC3C0080B23C8F
:104520000080F63C0040D03C0080EE3C00E02A3D9C
:104530000020833D00406C3D00805D3D00E02D3D4E
:104540000000F93C0000FE3C00C0DD3C0000FD3BEB
:10455000008069BC00C0DBBC00203ABD004051BDFA
:1045600000C060BD007080BD00B087BD000090BD80
:1045700000606ABD00E082BD002075BD00003CBD4A
:1045800000A009BD00A01BBD0000F0BC008049BC1C
:104590000000BBBC008086BC0000B03B0000CC3BF0
:1045A0000000403B0000D23B00806B3C00C0983CC8
:1045B0000040B03C0080C43C00C0293D00E0263DE6
:1045C0000020673D0070803D00C0A13D0050C73D08
:1045D00000208B3D0000073C000090390000D0B95E
:1045E0000000353C00C0843C0000CEBB004030BD24
:1045F00000205FBD008052BD00A005BD00809CBCB6
:1046000000C099BC00C0E3BC00A035BD00A01BBD2C
:104610000000B4BC0080C2BC00C0F5BC00C0A9BC96
:104620000080ACBC00A013BD00C029BD00E036BDB9
:1046300000A01FBD0080FEBC00202ABD004029BD97
:1046400000E00FBD0040D0BC000061BC0000323C67
:104650000040BE3C0080AD3C0000613C00C0E43C3A
:1046600000C0583D0030953D00D0A73D0000A13D61
:1046700000C09B3D0050C63D00E05F3D0000A33BF5
:1046800000002C3B00800BBC00805ABC0040B0BC3A
:1046900000A017BD002053BD00B085BD00D0B0BD47
:1046A00000A071BD0000C9BC0000ABBB0000DBBBBB
:1046B000000089BC008047BC00004E3B00007E3CEF
:1046C00000C09A3C000062BB0080D0BC00400EBD20
:1046D000004029BD002018BD00802CBD00C070BD69
:1046E00000A06DBD00A049BD00004BBD002018BD5D
:1046F000008058BC0000863C0080283D0020413DE1
:1047000000A0483D0040653D0000A93D0040E13D5E
:1047100000C0F93D0058093E00F8123E00E0973D08
:104720000000C33B0000D4BA00001E3B00009CBA4E
:1047300000806ABC00A076BD00A0B9BD00E0DBBD72
:104740000070DABD00109DBD006010BD0080A6BCE9
:104750000040DDBC0080C2BC004098BC0000163C9C
:104760000080AE3C0080C13C00800C3C0040ECBCB2
:10477000000074BD00B09ABD00009EBD00607ABD0F
:10478000004074BD00C0AABD00B09CBD004081BD0A
:104790000080EEBC0000153C00403B3D0040563D13
:1047A00000D0893D00B0A03D0050CB3D00D0FA3D87
:1047B00000F0263E0048383E0010253E0020CA3D4D
:1047C0000080113C00C0C0BC004089BC00009EBB02
:1047D000000087BC00A079BD0030E4BD00000BBE26
:1047E00000280ABE00F0B4BD00C00EBD0000803835
:1047F000008001BC00C0FBBC0040ECBC00C0833C9E
:104800000070843D00A09D3D00C04E3D000054BCA2
:10481000006099BD0000C9BD00F0B8BD0060AABD30
:1048200000309EBD0020D0BD00F0D8BD00C0B0BD9E
:10483000008060BD0000C3BB00802F3D0030A23D62
:1048400000F0C93D00C0E43D0000FF3D00082A3EE5
:1048500000204D3E00D0643E0078443E0050B73DFD
:104860000000E3BC006067BD00E023BD00408BBCDE
:10487000004047BD0070D1BD00A019BE003034BE5D
:10488000007828BE0050C9BD0080ADBC0000CA3C05
:1048900000C09A3C0000CC3A00803C3C0060503D97
:1048A0000060B93D0090C93D00108F3D0000F03A16
:1048B00000F09CBD006004BE006011BE0070F1BD40
:1048C00000A0CABD00C0D7BD00E0E4BD0030DCBD23
:1048D00000D094BD00000ABB00209F3D0008013EAF
:1048E0000068163E0068183E00182A3E00504F3EF1
:1048F00000B0773E0068733E00B00D3E00803CBCC7
:1049000000B0A3BD00E0A8BD003091BD0070A0BD07
:1049100000B0CDBD00380CBE001030BE00503FBE10
:10492000003006BE00C011BD0000463D00A0A13D04
:1049300000C0553D00000E3D00A03C3D00A09F3D45
:104940000090CB3D00C0B03D00C0EB3C007086BD88
:1049500000900FBE00A830BE009814BE0090EDBDC0
:104960000030D1BD00B0D2BD00A0D7BD0070A6BD43
:10497000008076BC00C07E3D0078093E0038293EAC
:104980000068363E0078543E0080753E0050813EFF
:1049900000204F3E00C09B3D0080A4BC007095BD30
:1049A00000F0BCBD00E0D9BD008003BE00A00FBE7A
:1049B000009028BE00503DBE004829BE0000B8BD92
:1049C00000800DBC0060833D00109D3D00809D3D3A
:1049D0000050953D00B0AD3D00C0AE3D0070BA3D09
:1049E00000406D3D00C0DEBC0040F9BD00702FBE30
:1049F00000802EBE00A00BBE0050F3BD0000DFBD46
:104A000000E0CCBD0010AABD00002DBD0040243D3B
:104A100000D8103E00E85C3E00C86F3E00207E3E9D
:104A200000248A3E0060903E00304C3E0010913DD4
:104A300000800EBC006053BD0030DCBD00801DBE98
:104A400000503BBE000040BE00F04FBE001859BEF3
:104A500000F036BE00F0B8BD000016BB00604F3D50
:104A60000060923D0060CA3D00E0EA3D00A0E23DEA
:104A70000020CE3D0020CA3D00B0963D0000C5BCE0
:104A8000009808BE00B048BE00704ABE007835BE2F
:104A9000004819BE0040F7BD0010BCBD00A0A3BD7A
:104AA00000201FBD00206B3D00C0353E0044853E08
:104AB0000030923E00109B3E006CA13E000C8C3EEC
:104AC00000A0183E0040283D000044BC00A05ABD94
:104AD00000C0F5BD00C046BE004862BE004868BECA
:104AE00000C076BE00506DBE006817BE000053BD0A
:104AF0000080743C0020493D00E0B33D0008033EC7
:104B00000030133E00E8043E00E0FC3D0010ED3DA7
:104B10000080473D0040A5BD00E037BE001859BEEB
:104B2000002051BE00504ABE00602FBE00B803BE38
:104B30000050D1BD0050A8BD000060BC00A0EC3DFD
:104B40000038713E00B0993E00D0A83E00DCB33E74
:104B500000F8A63E00503B3E00E05B3D0080113C6B
:104B6000000042BC006098BD00602BBE00E060BE4B
:104B7000007874BE00DC8BBE00748CBE00183DBE95
:104B800000007FBD00809F3C00C0073D00E06A3D03
:104B900000D0EE3D00A8243E0038283E00F0323E12
:104BA00000E82E3E0050CF3D00E013BD00B823BE0C
:104BB00000B055BE00905ABE005858BE00583ABECC
:104BC000004012BE00D0FABD00F0F6BD00207DBD51
:104BD00000508D3D00B04A3E00108C3E0044A43E83
:104BE0000064B93E00F8AC3E00D84F3E00E0813D85
:104BF0000040A03C0000A53B002054BD005817BE5B
:104C000000C049BE00206CBE009492BE00B89ABE9F
:104C1000002859BE00809FBD0000A93B00C0F43CA5
:104C200000E0793D0060EE3D0010133E0030253E6F
:104C30000018463E00605C3E0060123E000050BC22
:104C400000681ABE00E053BE009860BE00A860BEB7
:104C500000C842BE00800FBE003800BE00D80DBEA6
:104C60000050C6BD00200C3D0030353E00D8903EBF
:104C70000068B73E002CCB3E00D8A73E0000273E80
:104C80000060493D0000F03C00C0C83C00A027BDCA
:104C900000F004BE007847BE009886BE0068ADBE36
:104CA0000004A1BE007841BE006063BD0080743C7A
:104CB0000040043D0020943D0070D63D0010093EA8
:104CC00000F83B3E0080813E00E07D3E0030063E25
:104CD000002033BD00C02CBE002865BE000071BEA0
:104CE00000C859BE000025BE00F80FBE002026BE39
:104CF000004022BE00409FBD0040743D0040503E39
:104D00000040A33E0098C73E00DCC93E0010853E2F
:104D10000020D83D0020623D0000523D0000973C3D
:104D2000004077BD00E813BE007870BE00F8AEBE4C
:104D300000FCBDBE00A88CBE00A00DBE00E045BDBD
:104D400000008FBC00C0913C00E08E3D0010DE3DB5
:104D50000068263E00A0843E0080973E00885F3EAB
:104D600000C0643D0030BABD00A83EBE00B057BED2
:104D700000184BBE003021BE005003BE000821BE0B
:104D8000007031BE0090E7BD000040BA0020043E34
:104D900000148A3E0054BB3E0078D13E00F8A43E89
:104DA0000078253E0080BF3D0060B93D00207A3D7F
:104DB000000062BC00B0CFBD00F849BE005CA3BEDD
:104DC000009CC3BE00789FBE00803ABE00B0C5BD47
:104DD00000F09CBD00C049BD0080783C00F0853DDE
:104DE0000078073E0048703E00F0973E00D87D3EB8
:104DF0000080E23D0040D6BC00A00EBE003848BE98
:104E0000000848BE00F027BE00481DBE00F838BEAE
:104E100000A047BE00F007BE004038BD00A0503DD6
:104E20000020323E0084993E0048C03E006CB23EF5
:104E300000B0653E00A0103E00E0073E0040EA3DA5
:104E400000E0443D002053BD00180CBE00F880BEB9
:104E500000A4B5BE002CAFBE00D86BBE000811BECA
:104E600000C0D9BD0050B8BD00C028BD0080D83CEE
:104E70000010DA3D00E8693E00889D3E0068903EE3
:104E80000020223E00E05E3D00E00FBD0000F4BDCA
:104E900000901EBE00382DBE00C83EBE00805BBE26
:104EA00000E066BE009029BE00308ABD0080593CFB
:104EB00000B0D83D00605C3E007CA03E0028B83EBB
:104EC0000008953E0048463E0020243E00B8063EBD
:104ED0000050A93D0000A5BC00F0D2BD002040BE9E
:104EE000005C95BE00DCA9BE00A085BE00A039BE56
:104EF000001007BE00B0D6BD00A07CBD0000F2BB14
:104F00000020723D0000163E0028683E00A0763E5C
:104F100000F82A3E00709A3D00807B3C006083BD13
:104F2000009802BE009816BE00601EBE000034BE8F
:104F3000003859BE00F839BE0000C7BD0000B5BC3E
:104F40000020493D00B00D3E00C8773E0094A83EC9
:104F50000044943E0000383E0040143E0078143E69
:104F600000B0FD3D0040193D000038BD00180DBEE9
:104F700000A883BE002C9EBE00687EBE007832BEB4
:104F800000281DBE00B81FBE0060CEBD00C0C8BC5A
:104F900000603A3D00480B3E0068623E00E87A3E01
:104FA0000068353E0090C53D00A0793D000085BBFE
:104FB0000070C2BD00281CBE000043BE00183DBEEC
:104FC000005042BE005815BE0010B5BD00600DBDBA
:104FD0000040CD3C0000FB3D00C8793E0084AE3E61
:104FE0000064943E0068293E00580A3E00F80E3ED8
:104FF0000058063E00603A3D00C015BD00B807BE2F
:10500000000072BE00DC85BE00D83BBE009000BE32
:1050100000D024BE000839BE0090C7BD0000B0BB60
:105020000000123D0050B73D00880A3E00E0153EEA
:105030000000E33D0020B23D00C0A13D0000E0BA09
:105040000020F9BD001838BE00403FBE00701FBEF2
:1050500000A820BE00B804BE0090DEBD0020B2BD96
:10506000000044BC0090023E0094813E00E49C3E5F
:1050700000305F3E00B0083E0030303E00E84E3E5B
:105080000000263E00C0203D000029BD0020F4BDE8
:1050900000A03ABE00E035BE004818BE007823BE2E
:1050A00000D051BE00A832BE00202FBD00E0453D1B
:1050B0000020333D00E0623D0020D83D0098223EB4
:1050C0000010123E0070FA3D0060943D008006BD65
:1050D00000A0C8BD0010F7BD00701CBE001022BEAD
:1050E000001036BE003011BE00C0B3BD00E00FBDE1
:1050F00000001A3D0020F93D00F0613E0008793EB5
:105100000098263E00E82A3E00D84E3E00C8423EA7
:105110000040963D00801EBD00405EBD0080C8BDC1
:1051200000C815BE00F82FBE00E82FBE008846BE9E
:1051300000D038BE0080A6BD0000623B008069BC84
:1051400000800D3C00C0AE3D00901F3E0058173E51
:1051500000C0D53D0000A33D00602A3D004015BDC4
:105160000000B2BD00C800BE004826BE000849BE0F
:10517000001034BE0010F5BD0000C5BD00A092BDFA
:1051800000003CBB0030B73D0068453E0058673E1C
:105190000030233E0060113E0020613E00E8593E91
:1051A0000060DD3D000088BC00C0CCBC00A031BD6B
:1051B0000010E6BD00082EBE00083ABE006834BEEE
:1051C00000E82EBE0040DFBD00601FBD00000FBD27
:1051D00000801CBC0020943D0078193E00D8233E7E
:1051E0000000DB3D00B0A23D00A0A63D0080283DB0
:1051F000000087BC0030C2BD004013BE007815BE61
:1052000000D009BE00E0C6BD0040C7BD008074BD2F
:1052100000C0A13C0030FA3D00F8383E00D8143EF2
:1052200000C0993D0058293E0068653E00C81D3EFB
:1052300000004ABB00201CBD0080773C00605CBDC4
:10524000005815BE00D82BBE00301FBE005023BE34
:10525000007813BE0030A8BD00F0ADBD0040C5BD54
:10526000000080BB00B0CF3D00D0D23D00803E3D6D
:1052700000D09C3D0050133E0010E23D0080773C82
:1052800000801DBD00C07BBD0040AABD00C802BE9D
:10529000000007BE00B0FDBD0070C2BD00201BBDF8
:1052A0000000403C00E0543D0080F73D0098523E35
:1052B00000182A3E00C0D33D00F8473E00C0573ECC
:1052C0000000AE3D00E013BD0000603A0000363C37
:1052D00000E0D7BD00E82BBE00D803BE0010EBBD38
:1052E00000801CBE000812BE00F09ABD006066BDC2
:1052F00000C01CBD0020203D00D09A3D00D0893D5B
:105300000070893D00A0BB3D00C0AA3D00408C3C20
:105310000000DBBC0040EEBC00B091BD00E0FCBD75
:1053200000C019BE00D0CEBD00508DBD0040DEBC17
:105330000000813B00C05D3D00C0EA3D0010333EEF
:105340000050F63D0020AC3D00283D3E0078453E33
:1053500000E0813D0040E5BC0080D93C0080DA3CA3
:1053600000D0BABD00F018BE0040C1BD00A0CABD4B
:1053700000A01ABE00D009BE00F089BD00A072BD19
:10538000000030BD0000AB3C0080433D00602E3D7E
:1053900000D0873D00B0C53D00B0B13D0000D43C19
:1053A0000000003900009CBA009080BD00E0DBBD29
:1053B000008806BE00F801BE0070DCBD00E0A4BDA0
:1053C00000C03BBD0080DABC0080E03C0050BE3D28
:1053D0000000193E00801D3E0020B43D0060033EE9
:1053E0000048563E0050F13D00803DBC0000F0BA40
:1053F0000080963D0000ACBA0030F6BD00B0DABDCA
:1054000000C07EBD0020CABD00900EBE0010D9BDF8
:1054100000404ABD00201BBD0000ADBB00C0D63C13
:1054200000C0EA3C0040513D0070AD3D0030C23D3F
:1054300000808A3D0000033D00C0AE3C0000E3BC9C
:1054400000C0A4BD00F0BDBD00B0EBBD0070DCBD70
:105450000090E0BD00C084BD00A05ABD006026BD24
:1054600000800B3D00E0D73D00700D3E00F0853D13
:105470000040313D00F8303E0060123E0040E63C06
:10548000000023BC0030B33D0060443D0010A6BDC9
:1054900000D0D8BD004038BD00609DBD00C007BE33
:1054A00000D0FABD007080BD006050BD00E050BD6E
:1054B000000085BB00008D3C0080373D00F0893D39
:1054C0000060963D0070B63D00B0A03D00E01F3D7D
:1054D000000056BB0000ACBC0080A3BC0000BABDFD
:1054E00000F0F2BD0060BFBD0020A3BD0010C6BD2E
:1054F00000F0A9BD00C099BC00801A3D0060623D6B
:105500000000C33D00C0993D00C0B33D0000333EE4
:1055100000E80C3E0060173D00E03D3D0040F53DD9
:105520000080303D00C0BDBD0040B2BD00800ABD5E
:1055300000F0C1BD00C01BBE0030F1BD00A07DBDAC
:10554000007095BD006092BD0000D2BB0080B33CEE
:1055500000E0543D0040903D0060AE3D0040A53D60
:1055600000B0B23D00E0723D0000523B00C0DEBC26
:1055700000C019BD0060D2BD004014BE0020E5BDD2
:105580000070C9BD000801BE00C0ECBD00E039BD1F
:1055900000803B3C00000B3D0000A33D0010E93DB6
:1055A00000B0AD3D00B8153E0058573E0030F13D0B
:1055B0000060403D00A0BD3D00E0CA3D00003BBD95
:1055C0000080D5BD002081BD00E0A4BD00283ABE0A
:1055D00000A01BBE0010A8BD00209CBD0040D9BD8E
:1055E00000808EBC0060633D0020873D00B09C3D84
:1055F0000030F13D0080F93D0040033E0060B73DC2
:1056000000606B3D0080B3BC0080EABC00F087BD49
:10561000007813BE002033BE008804BE0080E6BDC3
:1056200000D025BE0060E3BD000021BD0000D43ADB
:105630000000983C0060CA3D00402F3E00801C3EA8
:105640000088033E0040603E00983E3E00309E3D94
:105650000020153D0040A73D0000E83A0000F8BDDD
:10566000001006BE00F0D4BD000014BE00902BBE9A
:105670000080F9BD006090BD008087BD00C025BDE1
:1056800000009F3C0080563D0050B13D00C0C83D29
:105690000000BD3D00B0C33D0050D33D00C0383DCB
:1056A0000040E3BC00A081BD008020BD00A0EEBD95
:1056B00000583ABE003826BE0030CDBD0090F8BD7F
:1056C00000D0FFBD00A05BBD0080813C00807A3D22
:1056D0000070D33D0078333E00304C3E00E80E3E73
:1056E00000281B3E00D8583E0070F63D00801B3C51
:1056F0000000C93B0040D73C0070ABBD006020BE3D
:105700000070F6BD0030ADBD00580DBE00A812BE41
:105710000000B0BD00C006BD00C0DCBC0000B83B4E
:105720000000373D00A0A63D0070CF3D00F0BA3D1F
:105730000020923D0000BA3D00009F3D0000083D62
:10574000000009BC00601BBD00C08EBD0080D9BD3B
:10575000007001BE003012BE0050DABD0090B8BD2E
:1057600000D080BD00E010BD00C0843C0020353D6D
:105770000050B53D00F0FD3D00F0223E0060113EBE
:105780000090983D0020853D0060EA3D0080193D75
:1057900000A008BD00C0D7BC000038BA0070CBBD67
:1057A000005004BE001099BD002058BD00B0CBBD14
:1057B0000010D1BD00A00DBD00C0A0BC00A01EBD4A
:1057C00000C0DDBC0040B73C00E01E3D0040CD3CC9
:1057D0000000B43C0000043D0060983D00003B3DEB
:1057E0000000893B0000043C0080E03C000052BC0B
:1057F000004068BD0000C5BC00801EBD004077BDF4
:1058000000A071BD000061BC0000A6BC00C037BD97
:1058100000C0CFBC0000053C00801B3C0040A23C07
:1058200000807A3D00A0A43D00E0273D0010823DAD
:105830000000FB3D0080743D00C0843C00C07E3D04
:105840000010BE3D0000AEBC00607DBD0040AABCA3
:105850000000FEBC0010FCBD002801BE0010ACBD65
:105860000010CBBD0020FDBD00F0BDBD000016BD89
:1058700000800BBC0040B73C00C06F3D00B0C73D8E
:1058800000E01B3E0020093E0030DE3D0050DE3DC2
:1058900000D0E93D0080513D00A017BD002032BD81
:1058A0000080A6BD00180DBE006839BE00D01BBE2A
:1058B000004817BE00900FBE00E0F1BD006081BD42
:1058C000000080BA00002C3D00D0DC3D00F8303EE6
:1058D0000050423E0048183E00E81B3E00D0523EB9
:1058E00000A0FD3D0080373D00E0133D0040033D3A
:1058F00000D0C9BD00502CBE00F00BBE00800FBE12
:10590000006851BE00B048BE00A0CEBD008085BD7D
:10591000004060BD0000E73B0080A63D0020D23D76
:105920000070F13D0048193E00501D3E00081D3E2C
:1059300000D0EC3D00108C3D0080F83C0000B23BF4
:1059400000C067BD00A010BE0080FFBD0080FFBD8D
:1059500000E82BBE00F83FBE0090F0BD0050BCBD7B
:105960000010B5BD002036BD0000C4BA0020013DC6
:1059700000D0923D00C0E43D0050123E00282D3E74
:1059800000A82E3E0058063E00F0BF3D0080F13DCD
:105990000000713D0040EEBC00C0DBBC0080033C59
:1059A00000D0A0BD00501FBE00C0C0BD004078BDEB
:1059B00000F0ECBD0060F7BD0080D9BC00802DBCBC
:1059C00000402DBD0080B4BC0000443D00404F3D70
:1059D00000803B3D00D0833D0060AA3D0020B63DE5
:1059E0000020A73D0040703D00E06D3D00604C3D53
:1059F00000806C3C006071BD00D0A1BD00C0C6BD80
:105A000000C0FEBD005031BE00181DBE00C806BE5D
:105A100000700DBE00C00CBE0060B9BD00E023BD2B
:105A20000040A3BC0000FE3C00E0CF3D0008123E59
:105A30000048343E00085C3E00305B3E0060223E81
:105A400000582B3E00E0273E00609F3D0000533C85
:105A500000804C3C004016BD00A825BE004030BE72
:105A600000D01ABE00602CBE00305DBE007805BEBE
:105A700000F09ABD00E074BD00E014BD00004F3D91
:105A80000010D93D0060043E0070103E0048193EF1
:105A900000580A3E0030EB3D0040733D0040EE3CB4
:105AA00000008B3B00601FBD00D006BE006827BE13
:105AB00000182DBE00C83CBE00704FBE000035BEB1
:105AC000006002BE0090C0BD000074BD00C0A1BC5B
:105AD00000804E3D00C0B73D0090E03D00800F3E8D
:105AE00000E82D3E00E8393E00682A3E00F82A3ED4
:105AF00000B00C3E0090BC3D0060173D0020583DBA
:105B00000000BA3B00805CBD007098BD000031BD54
:105B10000090B3BD007807BE0010CFBD00B09CBDA3
:105B20000040D4BD0070DEBD00C051BD0000F9BC16
:105B300000C00BBD000087BB00E0223D00E02E3D11
:105B400000C0373D00C08A3D00C07A3D00404A3D5C
:105B50000060233D00E0053D00C0AE3C0000BD3BC1
:105B6000000007BC00602EBD00806CBD00E078BD69
:105B7000008081BD0030C6BD0010B1BD00908FBD5A
:105B800000F08FBD005091BD00A022BD000026BCDA
:105B900000800C3C0000FF3C00406C3D00B0963D96
:105BA0000010CA3D00B00D3E00B01C3E0010053E86
:105BB00000C0E63D00D0D23D00A06D3D00C0193DC3
:105BC000000070BC00D080BD0010AFBD0050A6BD6D
:105BD000008814BE007827BE00E0EFBD0000BCBD09
:105BE00000B0FCBD0010C6BD0000D8BB0080F73C73
:105BF0000080BD3C0000563D00D0D03D0030DA3D75
:105C00000070B63D0040BD3D0050AB3D00A0693D79
:105C10000040E33C0000F9BB0080EFBC00002CBD5D
:105C2000004031BD004090BD00F083BD00804BBD01
:105C3000008025BD000073BD00C012BD0000B8BBD0
:105C40000000B3BC006011BD0000CB3B0000D43BA2
:105C500000001DBD00A000BD000080BA0000DFBB39
:105C600000E001BD000050BA0000CA3C0040003D09
:105C70000080563D00B0BA3D0040D03D00809B3DC5
:105C800000D0A03D0060F53D0060893D00804D3CA6
:105C90000000163C0000863C00407EBD0090C9BD5F
:105CA0000080C3BD0030A8BD00B0F6BD0010E4BD4B
:105CB0000030B1BD00004EBD00A02BBD00005F3C18
:105CC00000403C3D00D0823D0090953D0010BE3D1F
:105CD0000070B33D00709C3D00E05A3D00808E3C5A
:105CE0000000523B00806CBC008061BD0070C7BDED
:105CF00000D0A7BD0090A7BD00E0D5BD00D0ECBD91
:105D000000B09ABD00C076BD004034BD00C0D4BC18
:105D10000000603C00C0BF3C0060013D0060103DE1
:105D20000060203D0000BB3C0080AC3C0000E73C34
:105D300000C0E33C0040B73C0040A83C00604F3D41
:105D400000C08A3D00B0933D00405A3D00C0153D63
:105D500000E0573D00709E3D0000D13C008048BCF3
:105D600000C0B13C0040B13C008059BD004089BD3D
:105D700000C0F5BC00C012BD00A0A3BD007082BD74
:105D8000006004BD00A01EBD00804EBD00C00BBD64
:105D9000000070BB0000403B000080BB00803E3C28
:105DA0000000F83C00202E3D0000DD3B0000A1BBC0
:105DB00000C0913C00C0A83C0040F3BC004074BD52
:105DC00000009CBC000047BC00202FBD000064BD4B
:105DD00000802BBC000090BC0000C3BC00005EBC77
:105DE0000000403C0080383C000070BA0000383BA6
:105DF0000000893B0000A93B008094BC0080DFBC10
:105E00000080F8BC002001BD0080F7BC0040D5BC7C
:105E100000801EBC00C08C3C0060453D00A0263DBB
:105E200000A0953D0070A03D00606B3D0000893DE5
