:020000042000DA
:04035C0000787FBFE7
:100360000078E3BE00F0903D0060C63D0030C23D25
:100370000050BA3D0020B23D0090AB3D00B0A93D19
:1003800000D0A53D00B0A23D00A09F3D00A09D3D36
:1003900000309B3D0020983D00C0953D0060943D9D
:1003A0000000923D00708F3D00C08C3D00808A3D72
:1003B00000C0883D0090863D00F0833D0000813DF7
:1003C00000007F3D00C07A3D00C0763D0000733DD7
:1003D00000E06E3D00206B3D0040683D00E05E3D6A
:1003E00000005D3D00205C3D00E0573D0080523D37
:1003F00000A04F3D00004E3D00804B3D0040463D7B
:100400000020413D0000403D00A03D3D0040373D03
:100410000040343D00E0323D00A0323D0040303D20
:1004200000C02B3D00A0273D0000253D00A0223D3F
:100430000080203D00E01A3D00E0183D0020173DFF
:1004400000E0133D0000123D00000E3D00600C3D39
:1004500000C00B3D0040073D00A0053D0060043D8D
:100460000080023D0000FF3C00C0F43C0000F23C74
:100470000040EE3C0040ED3C0080E83C00C0E43C25
:100480000080E73C0040DE3C0080D83C0040D73C88
:100490000080D33C0080D03C0000C93C0000C43C3C
:1004A0000080C33C00C0C03C00C0BE3C0000B33C68
:1004B0000000B43C00C0B03C00E056BD00D0CEBD52
:1004C0000070ADBD00607ABD000022BD0080ACBCF4
:1004D0000000CBBB00001A3C00C0D63C00C02F3D42
:1004E00000C07A3D00609D3D0030B53D0060C83DD4
:1004F00000A0E43D00B0FD3D00F80B3E0078173E43
:1005000000D8213E00C82C3E00C0343E0088403E4A
:1005100000084B3E0038553E00105D3E00F8653E39
:1005200000186B3E00F0713E0058763E0040793E68
:1005300000C87A3E00707C3E00207F3E0090803EE6
:100540000038833E00A8853E00BC873E001C883EE4
:1005500000508B3E00D48D3E00788F3E0024913EAB
:1005600000E4943E00B4953E00A4963E00A8953E5B
:100570000098943E0060923E00F4913E0038913E17
:10058000003C903E00608F3E00E08E3E00188F3EA3
:1005900000F08D3E00108F3E00C48E3E00608F3E06
:1005A0000000903E0048913E0034913E0078903E1D
:1005B00000B48E3E00908D3E00488B3E0060893E28
:1005C000003C883E00A0853E0090843E00F4833EBF
:1005D00000C8833E0014833E0004833E0014833E23
:1005E000009C823E0060813E00787F3E00D87A3ECB
:1005F0000080783E00F8793E00707A3E0040783EF8
:1006000000A0733E00986E3E00D8693E00B0673E81
:1006100000B0653E00B8613E00105E3E0008593EE5
:1006200000E0563E0088503E00A04B3E00C84A3EC7
:1006300000904A3E00F8483E00F8493E00A04C3E7B
:1006400000184D3E00404F3E00604F3E00D84F3EE8
:1006500000E84C3E00C0483E0058453E0060413E28
:1006600000C03B3E0018373E0020333E00E82C3EE1
:1006700000502C3E00602B3E00902A3E00702B3E26
:1006800000F82B3E00F0293E00C02B3E00C02A3E61
:100690000088283E0020263E00A81F3E00C01C3EC9
:1006A0000000183E0000133E00D00D3E00D00A3E70
:1006B0000068073E00E8023E0030013E0050FC3D6D
:1006C0000070FC3D00E0FC3D00C0FB3D00A0003E92
:1006D0000060013E0040013E0090003E0040013EAF
:1006E0000090FF3D0080F93D0030ED3D0080E23D8F
:1006F0000060D73D00A0D03D00A0CC3D0030C93DFA
:100700000000C53D0080C13D0090C23D00A0CE3D2F
:100710000020D23D00C0D53D00A0D33D00C0CE3D5D
:1007200000D0C73D0030C43D0000C33D00A0C13D26
:1007300000D0BA3D00D0B43D0040B23D00B0A73D6E
:100740000020A33D00509E3D00009C3D0060923D76
:1007500000C08E3D0020853D0070823D00C0763D8A
:100760000040743D00A06D3D0020633D00C05D3D34
:100770000080693D0060753D00407F3D00A0883DE0
:100780000020853D00607D3D00C07B3D00C0763D82
:1007900000C0683D00C05D3D00A0493D0000353D02
:1007A0000020353D0020443D00004E3D00C0593D35
:1007B00000A05A3D00005A3D00C0593D00A0583DE0
:1007C00000805D3D0020503D0040433D00E0353D50
:1007D0000080283D0040223D00601F3D00E0173DA5
:1007E00000A0083D00000F3D0040033D00C0F93C63
:1007F0000080F93C0040F53C0040E43C0080D93CDE
:1008000000C0C83C00C0C53C0080C93C0080F63C2C
:100810000000FE3C0040073D00C0F53C0080D23C9B
:100820000000C43C0000B33C00C0A83C00C0A03C99
:100830000040983C0080763C00C0903C00409B3CCF
:100840000040B63C00C0B83C0000C53C0000B63CCF
:100850000000B53C00C0DB3C0080DF3C0020053DD3
:100860000080E93C0000DA3C00C0C63C00C0DC3C33
:100870000040DC3C0000C93C0080B53C00C0903C1E
:100880000000873C0000803C00807B3C0080483CAE
:100890000080013C0000853B0000C33B0080013C20
:1008A00000801C3C00804A3C00006E3C00807B3C89
:1008B0000080663C0000283C0000053C0000F93B3D
:1008C0000080123C0000D23B0000D23B0000703B95
:1008D0000000963B00009E3B0000E53B0000D63B3D
:1008E0000000C93B0000073C00803E3C0000523C39
:1008F0000080793C0000893C00C0843C0000883CBA
:100900000000703C0000543C0000253C0000323CDC
:100910000000093C0000173C00009C3B00000A3B23
:100920000000C43A000060BA0000C4BA0000C4BAB3
:10093000000098BB00008BBB0000F8BA000000BBB1
:100940000000123B0000783B00003C3B0000003BF5
:1009500000003C3B0000A43A0000000000009CBAEC
:100960000000BCBA000026BB000028BA0000F0B9A5
:100970000000B0B90000383A0000CC3A0000B43AA8
:10098000000080B800007C3B0000EC3B0000FB3B1B
:100990000000EC3B0080103C0000873B0000AB3BBC
:1009A0000000BC3B0000813B0000BC3A0000403925
:1009B000000098BA000008BB0000B0390000183AE7
:1009C000000090390000DDBB0000EABB0000ADBBB9
:1009D000000083BB00001ABB000022BB0000B0BBBC
:1009E000000005BC000035BC000032BC000032BC79
:1009F00000802CBC00804ABC00805ABC00803CBCFB
:100A0000000028BC0000E1BB0000DFBB0000ECBB25
:100A1000000029BC000032BC000015BC0000FBBB7C
:100A2000000087BB0000ABBB000096BB000056BBBC
:100A30000000163B0000DB3B0000143C0000253C9E
:100A40000000B63B0000A43A000012BB0000903A40
:100A500000009039000080BA000022BB0000A5BB56
:100A60000000FFBB0000C3BB0000CCBA000090BA7E
:100A7000000000B900008BBB0000E7BB0000DBBB3F
:100A8000000009BC000004BC000031BC00803EBC7A
:100A9000008001BC0000C5BB00009CBB000052BB35
:100AA000000040390000703A0000F0390000D039F1
:100AB000000004BB00004EBB00004ABB000052BB5C
:100AC0000000D0B9000080B90000E8BA000064BBA3
:100AD000000068BB00008DBB00005EBB000094BB43
:100AE000000040BB0000E0BA000028BA00008039D6
:100AF0000000703A000088BA0000503A0000F0BAD6
:100B000000002CBB0000A4BA0000F0BA000056BBE5
:100B10000000B2BB0000A7BB0000C5BB0000CEBBFD
:100B20000000C9BB0000D2BB00000BBC0000E7BB4B
:100B30000000C9BB0000D6BB000080BB00009EBB0C
:100B400000001EBB0000D8BA00004EBB00009ABBDC
:100B50000000CBBB0000B2BB000016BB00006CBBAA
:100B600000001EBB00003CBB0000CCBA000038BA3D
:100B70000000B0390000D4BA000018BA000078BBF9
:100B80000000C3BB000096BB000022BB0000A4BA5B
:100B90000000C4BA0000F0BA000000B90000403AFA
:100BA0000000123B0000803900004ABB0000C3BBBC
:100BB0000000CBBB000019BC00803DBC000056BC4F
:100BC000008057BC008074BC00006FBC000052BCA9
:100BD000000034BC000074BB0000043B0000383A45
:100BE000000060BA000060BA000000BB000080385E
:100BF0000000F0390000A43A00008038000018BA64
:100C000000004EBB000062BB000083BB000064BB61
:100C1000000038BB000004BB00001EBB000056BB38
:100C200000008FBB000044BB0000E5BB0000F4BB2C
:100C3000008012BC000029BC008012BC00803DBCBA
:100C400000007EBC000086BC000051BC008068BC77
:100C5000008039BC00803EBC000053BC008011BC49
:100C60000000F2BB00009EBB0000B8BB0000EABB66
:100C7000000004BC0000F0BB000006BC000096BBF6
:100C8000000026BB0000A4BA0000263B00001A3B6F
:100C90000000083B00000A3B000040B9000074BBA4
:100CA000000096BB0000CBBB0000FBBB0000FBBB01
:100CB0000000A5BB00003CBB000052BB000068BBAD
:100CC0000000A1BB00001EBB000028BB000000B953
:100CD000000090BA000008BB000016BB0000D0392D
:100CE00000000E3B0000D83A0000A4BA000092BBFE
:100CF0000000F4BB00000BBC0000E1BB008003BCA3
:100D00000000D6BB0000C5BB000008BB00002CBB28
:100D100000005EBB00009ABB0000A9BB0000ABBB9B
:100D2000000026BB0000E0BA000080BA000081BBD2
:100D30000000A1BB000081BB00009EBB00001EBBE9
:100D4000000008BA000080380000283A0000B039DE
:100D500000003C3B00008B3B0000703B00008D3BE3
:100D60000000000000001EBB000056BB00001ABBC4
:100D7000000064BB0000A7BB0000C1BB000094BB27
:100D800000009EBB000094BB0000BCBB0000DFBBAA
:100D90000000B6BB000087BB00009CBB000098BBF6
:100DA0000000A5BB0000DABB0000B6BB0000BDBB65
:100DB0000000E7BB0000A9BB000030BB0000803989
:100DC00000007C3B0000903B0000B43A000040393A
:100DD000000080B900004EBB0000A7BB00009CBB18
:100DE0000000B2BB00009EBB0000B0BB00008BBB8C
:100DF00000005EBB000074BB0000A7BB0000F9BB95
:100E00000000E7BB000023BC000004BC0000F2BBF4
:100E10000000F4BB0000BABB000094BB00002CBB78
:100E2000000090BA0000A4BA0000B03900004039B8
:100E3000000012BB0000F8BA0000B4BA0000283A63
:100E40000000283A0000F03A0000A43A000038BA46
:100E50000000C4BA00006CBB00003CBB000026BB15
:100E6000000040BB00005ABB0000EEBB000083BB8B
:100E7000000070BB00007CBB0000C3BB000022BCB4
:100E8000000017BC0000C9BB0000BCBA0000D0B90C
:100E9000000008BA0000AEBB0000C7BB000085BB65
:100EA00000005EBB0000AEBB0000E9BB000013BC4D
:100EB000000009BC0000EEBB0000A1BB000028BB85
:100EC0000000C4BA0000B0B90000D039000040BA38
:100ED0000000C4BA0000F83A0000C43A0000D4BAD6
:100EE0000000CBBB0000DABB008003BC0000B6BB37
:100EF000000022BC000008BC00800FBC008011BCB8
:100F0000000028BB000000000000AD3B00005E3B7D
:100F10000000263B00005A3B00007C3B0080003C68
:100F20000000BA3B00004E3B000090B9000012BB2D
:100F30000000D0B900001EBB000028BB0000FBBBB6
:100F4000000008BC0000B2BB0000A1BB000070BBE9
:100F5000000040390000CC3A0000E83A000040B9F7
:100F6000000034BB0000A7BB0000CCBB00009ABB54
:100F70000000EABB00009CBB0000D4BB000044BBE7
:100F8000000080BA000028BA0000403B00005A3B35
:100F90000000CC3A0000D0390000563B00000A3B6C
:100FA000000080B9000018BA0000A3BB0000CCBB51
:100FB0000000CBBB0000E7BB0000D6BB0000E5BBD8
:100FC000000081BB000081BB000085BB000083BB2B
:100FD000000080BB0000B0BB00007CBB0000FBBB7E
:100FE000000017BC008002BC0000DFBB00009CBBFF
:100FF0000000F0BA000090B90000BA3B0000C93B05
:101000000000E53B0000CB3B0000C53B0000623B1D
:1010100000009F3B0000833B0000403B0000003B82
:1010200000008039000080BA0000A7BB0000A1BB0F
:101030000000D6BB000008BC000018BC008012BC39
:1010400000802CBC00800CBC00800CBC0000FBBBF2
:1010500000005ABB00009ABB00009EBB00006CBBA6
:101060000000D4BB00008FBB0000B2BB0000C3BBBC
:101070000000F2BB0000E9BB000005BC0000F0BBB3
:101080000000ECBB00800CBC00800BBC000004BC6A
:101090000000D8BB00000ABC0000E3BB0000DFBBBF
:1010A0000000A5BB0000A3BB008003BC000008BC7F
:1010B00000800CBC0000B4BB0000D8BA0000D4BA59
:1010C00000009039000028BA0000883A0000883AF1
:1010D0000000463B000080BA000070BB000085BBEA
:1010E000000056BB0000CCBA000068BB000078BB13
:1010F0000000ABBB00004EBB0000ACBA0000563B8A
:101100000000D43A0000F83A0000D8BA000038BA1B
:101110000000223B0000D03900009039000040BBA5
:10112000000094BB0000D2BB000094BB0000B6BB23
:101130000000F9BB0000C1BB0000D0BB0000E5BB54
:10114000000016BB000080B80000E0BA000038BA0A
:101150000000A43A0000883A0000223B0000D43A84
:101160000000ABBB0000F2BB000040BC008047BCED
:10117000000053BC00805BBC000036BC00801CBC7F
:1011800000800CBC008003BC0000DBBB0000C1BBC6
:101190000000D8BB0000D8BB000070BB000022BB21
:1011A000000080B8000022BB000064BB000038BA19
:1011B000000028BA000004BB00003CBB000040391E
:1011C000000098BB00009ABB000090BB0000B2BBBF
:1011D0000000C9BB0000ADBB0000C7BB00000ABCDB
:1011E000000018BC0000CBBB000078BB000040BA78
:1011F0000000283B0000403B0000BF3B0000783B64
:1012000000000000000028BA000078BB000026BBE8
:1012100000008DBB000056BB000028BB000000BBD7
:10122000000000BB000046BB000030BB00009CBAC1
:101230000000BC3A0000283B0000853B0000983BC2
:101240000000AB3B0000DA3B0000E93B0000283C1B
:101250000000EC3B0000A93B00009A3B000028BACC
:10126000000028BB000056BB000098BB00006CBB10
:101270000000B0BB000044BB00007CBB00000ABB08
:101280000000D4BA0000F8BA000078BB0000A7BB89
:10129000000004BB000096BB0000F9BB000027BCA7
:1012A00000804EBC000037BC000063BC00803ABC2C
:1012B000008048BC008066BC008003BC0000DFBB2F
:1012C000000083BB00000EBB000087BB00006CBBAE
:1012D00000009EBB00009FBB0000B0BB000078BBBD
:1012E00000001ABB0000D4BA000090390000903909
:1012F00000009C3A00008039000040BA000008BBA2
:1013000000004ABB00009FBB00009EBB000008BB62
:101310000000F0BA0000C9BB0000F4BB00008DBBA8
:101320000000B0BB0000603A0000903900000039B6
:1013300000009C3A00007CBB0000D8BA0000A3BBB0
:1013400000008DBB000070BB000078BB000081BBBB
:101350000000BCBB0000CEBB0000D0BB0000B8BB8F
:101360000000E5BB008012BC000024BC0000FDBBF7
:101370000000F9BB0000C9BB00000000000012BB68
:10138000000000B90000283A000090390000283B16
:1013900000005E3B0000803A000040B9000040B908
:1013A00000005EBB0000BCBB000094BB000062BB41
:1013B0000000B4BA000040B90000B0B9000044BB5E
:1013C00000005EBB0000ACBA0000D4BA000080BAD6
:1013D00000003CBB00006CBB00009CBB0000BABB23
:1013E0000000C5BB000085BB0000B4BB0000BDBB56
:1013F000000098BB00005ABB0000D4BA0000803A3D
:10140000000030BB000056BB00009CBA000034BB9B
:10141000000000390000BCBA0000083A0000F039B2
:101420000000903900009039000030BB0000E03A25
:101430000000183A0000043B000060BA000018BA2F
:101440000000E0BA000087BB00005ABB00004EBBA2
:101450000000A5BB000074BB0000CCBA000040BB7C
:10146000000096BB0000F8BA0000D83A0000383AF5
:101470000000C43A0000F0390000303B0000C43ADC
:101480000000BC3A0000903A0000403900005E3B8A
:101490000000A43A0000383A00009039000028BB50
:1014A00000005ABB000089BB0000AEBB000081BB3E
:1014B000000016BB0000F039000040B90000603A9F
:1014C0000000000000002C3B0000223B0000283AF6
:1014D0000000E8BA000070BB0000C1BB0000E7BB21
:1014E0000000C5BB0000BDBB008020BC0000BDBB30
:1014F0000000D2BB00805BBC008038BC00802FBCE9
:1015000000801BBC00801FBC008038BC000017BCE2
:10151000000037BC00800FBC0000F9BB00800BBC92
:1015200000000ABC000009BC00000BBC008011BC1C
:101530000000EEBB0000DDBB000089BB000089BBE2
:101540000000283A00002C3B0000043B0000163B42
:1015500000000000000070BA000028BA0000223B22
:101560000000403B000050BA000062BB000008BA17
:10157000000038BA00005E3B00009C3A0000F0B961
:10158000000040BA000070BB000044BB000056BB26
:10159000000068BB000012BB0000A4BA0000C43AFF
:1015A0000000883A000000B90000D0390000D039AE
:1015B0000000A43A000040390000BC3A0000903A14
:1015C0000000B03900009039000018BA000018BAC5
:1015D000000008BA00004ABB000004BB000046BB84
:1015E0000000BCBA0000F0B9000040BA0000A43A04
:1015F0000000BC3A0000183A0000083B000080B828
:101600000000003900009039000090B9000040BA95
:101610000000F0B900002CBB000081BB000094BBAF
:10162000000089BB000046BB00006CBB000098BBFB
:1016300000008BBB0000B8BB000030BB00009CBAB0
:1016400000000EBB000062BB000074BB000038BA93
:1016500000005EBB000044BB0000C9BB000027BC0B
:101660000000BABB008000BC000087BB00005EBB6E
:1016700000009ABB000000000000CC3A0000523B82
:10168000000040BA00000039000034BB000083BBFA
:101690000000B0B9000089BB000096BB000070BA22
:1016A0000000603A0000F0390000B039000078BB5B
:1016B000000038BB00002CBB00006CBB0000E5BB89
:1016C0000000F9BB0000DBBB0000EEBB0000E5BB87
:1016D000000006BC0000D6BB0000D4BB000092BBDB
:1016E000000060BA000062BB000016BB00007CBBBB
:1016F000000080BB000085BB00004ABB000080BB2F
:10170000000064BB00004EBB0000503A0000ACBAC1
:101710000000CC3A0000D43A000080B90000B4BA0E
:101720000000F8BA00004ABB000070BB000064BBB8
:1017300000009EBB00008BBB00004ABB00006CBBDE
:10174000000026BB000012BB00004ABB0000D8BA54
:1017500000003CBB0000A3BB000096BB00009CBB8C
:101760000000B0BB0000D8BB0000B0BB000080BBD5
:1017700000009CBB00000EBB000070BB0000ADBBB6
:101780000000F0BA000026BB0000CCBA0000183AF6
:10179000000080B9000038BA0000F0B9000080B83D
:1017A000000052BB000026BB00000ABB000050BA7C
:1017B0000000ACBA000080B90000AC3A000040392B
:1017C000000040BA00000EBB000050BA000012BB7F
:1017D000000060BA00000000000090390000403AAC
:1017E0000000F83A0000F83A0000703A00004ABBE6
:1017F0000000F0BA0000D2BB0000BCBB0000A3BBDD
:101800000000C3BB000046BB0000B4BA000040BAF1
:10181000000052BB000038BB00009ABB000081BB37
:101820000000E0BA000030BB00008FBB0000ADBB81
:10183000000070BB000026BB0000E0BA000028BA20
:101840000000F039000000390000803A0000C4BAFE
:101850000000B0B900008038000050BA0000D8BACB
:10186000000026BB00009FBB0000AEBB0000AEBB6B
:10187000000052BB00000EBB000085BB0000D4BBC3
:101880000000F9BB0000E3BB0000CCBB000004BBC0
:101890000000C4BA000038BB00005EBB0000E0BA24
:1018A0000000F0B900007CBB000087BB000008BB53
:1018B000000052BB000000BB0000D4BA0000E0BA38
:1018C0000000B4BA000056BB000052BB00009CBB35
:1018D000000034BB000028BB000089BB00009ABB9D
:1018E00000009CBB000040BA0000BCBA0000F0BA87
:1018F0000000ACBA000028BB00001ABB0000403951
:101900000000F83A0000BC3A000038BA000040BAC3
:101910000000383A0000403A000038BA00009FBB8F
:101920000000D8BB000083BB00002CBB0000A9BB9B
:10193000000008BB000070BB000040BB0000803806
:10194000000040BA0000283A000030BB000087BB0E
:101950000000A9BB0000E1BB0000ECBB0000B4BB71
:101960000000E7BB0000E5BB0000C5BB000064BB96
:10197000000083BB0000ACBA0000A4BA0000B6BBF4
:1019800000007CBB000089BB000008BA00001A3BC5
:101990000000AC3A000018BA000034BB000008BBDD
:1019A000000004BB000026BB000068BB0000C5BBF4
:1019B0000000B6BB0000CEBB00009ABB0000D0B94F
:1019C0000000603A000028BA00005E3B0000083BBF
:1019D0000000903900001A3B0000B0B9000038BA8E
:1019E00000000000000062BB0000B2BB0000A5BB0D
:1019F00000009EBB0000B4BB000096BB00007CBB97
:101A00000000CEBB00008DBB0000E5BB008000BC29
:101A10000000C5BB0000CCBB0000F0BB0000CEBB8B
:101A2000008020BC000027BC008020BC0000F8BB68
:101A30000000F9BB0000E9BB00007CBB00008FBBCD
:101A4000000000B9000016BB0000A4BA000068BB8B
:101A50000000B0BB000064BB0000ADBB000038BBA1
:101A6000000070BA000090B9000090B900000000BA
:101A7000000000000000283A0000703A0000F0B9B1
:101A8000000078BB00008DBB0000B0BB0000DABBDB
:101A900000009EBB0000ADBB000064BB000070BA3C
:101AA0000000D4BA0000D83A0000183A000090B9FB
:101AB0000000F8BA0000ABBB0000A7BB00009ABB57
:101AC00000006CBB000090BB000089BB00002CBB79
:101AD000000040BB00007CBB000070BB000070BB7E
:101AE000000016BB00000EBB000008BA000080BA60
:101AF0000000F0390000E03A0000403B0000B63B37
:101B000000009C3B0000383A0000703A000038BAF0
:101B1000000090B9000034BB000081BB0000AEBBE8
:101B20000000B2BB000056BB0000603A0000983ACB
:101B30000000783B0000923B000000B9000088BA2A
:101B40000000E0BA0000D4BA000098BB0000DBBB84
:101B5000000013BC000046BC000045BC000034BCC3
:101B6000000013BC000006BC0000ECBB0000C9BBB9
:101B7000000046BB0000F8BA000090B90000A4BA0B
:101B800000004ABB000080BA000080BB000016BB0A
:101B900000001EBB000092BB000087BB0000D8BB4A
:101BA000000094BB0000CBBB00009EBB000034BB18
:101BB00000007CBB000074BB000089BB000068BB58
:101BC000000028BB000038BA000090BA000068BBD3
:101BD000000034BB0000B039000080B8000038BA03
:101BE00000006CBB0000D2BB0000E5BB0000DABB0C
:101BF00000008BBB000089BB000085BB0000DFBB81
:101C00000000A7BB0000F8BA00000EBB000090BAAD
:101C1000000028BB000040BA000000000000003BAC
:101C20000000523B000000000000CC3A0000F03AF7
:101C30000000303B0000B43A0000083A000038BA17
:101C4000000018BA00000E3B0000CC3A000088BA31
:101C500000003CBB000062BB0000B4BB000028BA1F
:101C6000000018BA000018BA0000283A00004039F5
:101C7000000040B90000E03A0000283A000090BAA5
:101C800000000ABB000030BB000046BB0000C7BB21
:101C90000000A7BB0000B4BB0000AEBB000087BBC8
:101CA000000089BB000070BB0000CCBA000090B9F6
:101CB0000000D43A0000883A00000039000050BA11
:101CC000000004BB000016BB000000BB000040BACF
:101CD0000000D4BA000064BB0000F8BA000040BAAB
:101CE0000000E0BA00004ABB0000B4BB0000A7BB84
:101CF000000096BB0000F0B9000090B90000BCBA2B
:101D0000000026BB0000C4BA0000ACBA000030BB23
:101D1000000040BA000040BA000016BB000080B8C6
:101D2000000040B90000CCBA000038BA0000BCBACC
:101D3000000070BA000090BA0000903A000000B9AC
:101D40000000D4BA0000383A0000E0BA0000B0B990
:101D5000000050BA000098BA00003CBB000026BB4F
:101D6000000090B9000008BB000070BA000038BA4B
:101D70000000F8BA000038BA0000D4BA0000CCBAAB
:101D80000000D4BA000016BB000052BB000046BBE6
:101D9000000038BA000008BB000038BB000090BA51
:101DA000000056BB000038BB000040BB000016BB63
:101DB000000070BB0000F8BA00002CBB00003CBB68
:101DC000000074BB00008BBB000068BB000070BB50
:101DD00000008DBB000022BB0000CCBA000098BA06
:101DE000000070BA000028BB00002CBB00001EBB26
:101DF000000098BB0000A1BB00009FBB000085BB9A
:101E000000001ABB000090B9000088BA000088BA30
:101E1000000008BB000012BB0000D8BA00009CBA4A
:101E20000000F0BA000008BA0000283A0000403A6A
:101E300000005A3B0000813B0000983A0000283A1D
:101E40000000503A000090B9000090B90000003B3B
:101E50000000803A00004039000040B90000643BB7
:101E600000008B3B00001E3B0000443B0000083A92
:101E7000000080380000223B0000F0390000B0B9BB
:101E80000000503A0000CC3A0000D0390000E03A9F
:101E90000000F03900000EBB000056BB00000ABB7A
:101EA0000000D8BA000070BA00001ABB000000BBE6
:101EB00000005EBB000052BB0000B4BA0000F0B9E5
:101EC0000000B0B90000ACBA0000F83A0000803859
:101ED000000080380000B0390000A4BA000028BA21
:101EE0000000D0B90000E0BA0000ABBB000038BB76
:101EF000000004BB000040BB0000E0BA000000BBD3
:101F0000000038BB000085BB0000D8BA0000E8BA6A
:101F1000000060BA000000000000BC3A0000383A3F
:101F200000009039000000B9000090B9000008BA24
:101F30000000D0B90000CC3A000080B800009CBA84
:101F40000000D4BA0000E8BA000070BB000080BAFC
:101F50000000F8BA00008BBB000040BB00007CBB57
:101F600000009ABB000008BA0000163B0000503A7F
:101F7000000000000000D0B9000044BB0000ABBB73
:101F80000000B6BB000083BB00008BBB000028BB79
:101F9000000080B90000C4BA000080B80000383BDF
:101FA00000009C3B0000783B00000A3B000098BA10
:101FB000000008BA000040390000B0B90000BC3A87
:101FC00000004039000016BB000040BA0000403954
:101FD000000040B9000038BA000028BA0000E8BA92
:101FE00000004ABB0000D0B900009CBA000080BAD3
:101FF0000000E0BA0000D8BA000098BA000018BA91
:1020000000009C3A0000A43A0000383A00008039F1
:102010000000BCBA000088BA000088BA00005ABBB1
:10202000000056BB00008BBB0000EEBB0000A1BB54
:102030000000BFBB0000CEBB0000A5BB000070BB12
:10204000000012BB0000ACBA0000CCBA0000CCBA51
:1020500000006CBB0000BCBA0000E8BA00001ABB6C
:1020600000009ABB00005ABB000016BB0000A4BAD7
:102070000000F0B90000D0B9000070BA000098BAB2
:102080000000ACBA0000B4BA000050BA000090BA28
:10209000000080B80000A4BA000040B9000060BA97
:1020A0000000CCBA000081BB00009ABB000081BBDD
:1020B000000090BB000040BB000046BB000034BBEA
:1020C000000052BB0000BCBA0000B43A00002C3B38
:1020D0000000523B00000A3B0000383B0000043B7C
:1020E0000000163B0000083A0000E83A0000803883
:1020F0000000383A000000000000B4BA000018BA2E
:102100000000803A0000A43A0000603A0000383A2B
:10211000000004BB000052BB0000E8BA000062BB34
:1021200000006CBB000046BB0000A1BB000092BBDE
:10213000000022BB000050BA0000083A0000403AFC
:10214000000098BA00009C3A0000F03A000000B984
:102150000000F0BA000038BB0000C7BB0000E3BBC2
:10216000000090BB00002CBB000090B9000028BA12
:10217000000018BA0000803A000050BA000038BAD7
:102180000000F0B9000044BB000000BB00000ABB27
:1021900000002CBB000016BB000098BA00006CBB0E
:1021A000000056BB000004BB000016BB000068BB6B
:1021B000000028BB000088BA000040B9000038BA0F
:1021C000000090B90000BCBA0000B4BA000000BB27
:1021D000000064BB000081BB00008BBB0000C5BBDE
:1021E0000000A1BB00009FBB0000B4BB0000D4BB3B
:1021F00000007CBB000096BB00000ABB000080BA58
:1022000000001ABB0000C4BA000012BB000028BBCB
:102210000000CCBA000080390000403A000080B8CD
:1022200000004039000088BA000040BA000044BBFA
:10223000000026BB0000B0BB00009EBB000092BBAC
:1022400000008BBB00004ABB000070BA000012BB4C
:10225000000040BB00004EBB00008FBB00008DBBE8
:1022600000008BBB000094BB0000E5BB0000BCBBC2
:102270000000F4BB00009ABB00003CBB000070BB38
:102280000000B4BA0000D0B900000ABB0000BCBA1C
:102290000000D4BA00000ABB0000F0B90000003909
:1022A00000009C3A0000F83A0000263B0000403A4B
:1022B00000009C3A0000C43A000000390000503A87
:1022C0000000F0B9000080B90000443B0000F03A83
:1022D00000001E3B0000CCBA000040BA000008BA63
:1022E00000000EBB0000D8BA0000CCBA000098BABB
:1022F0000000383A0000F0390000083A0000903A37
:102300000000083A0000B4BA000098BA0000A4BA6D
:10231000000060BA0000BCBA0000F8BA000016BBAA
:10232000000088BA000026BB000046BB00000ABBC4
:1023300000001EBB000028BB000040BA000040396E
:10234000000040B90000403A0000D83A0000883A46
:10235000000080B90000E03A0000E83A0000183AB6
:10236000000040B90000ACBA0000A4BA00000EBBE7
:10237000000026BB000034BB00001EBB0000D4BA26
:10238000000000B90000883A0000F83A00001A3B4B
:102390000000B43A0000123B0000D83A0000803937
:1023A000000040BA000038BA000000B90000523BFB
:1023B0000000F83A0000A43A0000403A000018BAC1
:1023C0000000083A0000503A0000123B000090392B
:1023D0000000A4BA000090B9000022BB000070BA4F
:1023E0000000803A000080B90000703A0000703AA6
:1023F00000009C3A0000B43A0000D43A000040B912
:102400000000ACBA000008BB000083BB000096BB14
:10241000000094BB0000A7BB0000E7BB0000F6BBB8
:102420000000CBBB000083BB0000CCBB00005EBB48
:10243000000016BB000034BB000028BB000008BB36
:10244000000074BB00008BBB000008BB00004ABB4F
:10245000000064BB000028BB0000E0BA000028BBFD
:10246000000098BA0000B4BA0000BCBA000000B97D
:102470000000B039000000390000D43A0000D03923
:102480000000703A0000803900009CBA00008039DA
:10249000000088BA0000F8BA000070BA00002CBB37
:1024A000000080BB0000A3BB0000DBBB0000DFBB63
:1024B0000000C9BB008001BC000006BC0000E7BBF7
:1024C0000000B0BB0000CCBB000062BB0000B6BB8C
:1024D0000000AEBB000052BB000078BB00006CBB2C
:1024E0000000F8BA000068BB000081BB00000EBB12
:1024F000000022BB0000C4BA000012BB000090BA6A
:10250000000081BB00000ABB000098BA00004EBB6F
:1025100000000EBB000056BB000083BB00001EBBCA
:10252000000026BB0000B039000040B90000503A5E
:102530000000983A0000B4BA000000000000CC3A55
:10254000000028BA0000D0B90000ACBA0000D4BA2C
:10255000000030BB00008DBB00005EBB00009EBBD6
:102560000000B0BB00008DBB000062BB0000C4BA1D
:10257000000040390000883A0000123B0000743B24
:102580000000983B00005E3B0000D0390000183A84
:1025900000009C3A0000C4BA000026BB0000ACBAA0
:1025A000000062BB000034BB00009CBA000008BB06
:1025B000000004BB0000BCBA000090B9000026BBBC
:1025C00000008FBB000038BB000068BB000087BB69
:1025D000000026BB0000BCBA000028BB0000A9BB5D
:1025E00000008DBB0000D4BB000096BB0000C5BB43
:1025F0000000A3BB0000A1BB0000A3BB0000A5BB63
:10260000000081BB000012BB00000ABB00000EBB33
:102610000000B0B90000603A000080B90000B43A90
:102620000000183A0000903A0000BCBA000068BBF5
:10263000000080BA0000A4BA0000883A00007C3B89
:1026400000008D3B00006C3B0000283B00004E3B2F
:102650000000B43A000008BA0000A4BA00004EBB63
:10266000000056BB000040BA0000F0B900009039ED
:10267000000050BA000088BA000012BB0000D8BAAF
:102680000000B039000008BA000090B90000603ABC
:102690000000883A000000BB000040BB000096BB71
:1026A00000009ABB00001EBB00005EBB00003CBBEC
:1026B000000016BB000038BB0000F0BA0000ADBB44
:1026C000008000BC00800FBC008038BC00802ABCA9
:1026D000000038BC000035BC000015BC000008BC80
:1026E0000000F9BB0000D8BB000096BB0000C1BBD6
:1026F0000000B2BB000090BB000044BB0000AEBBBA
:102700000000D6BB0000B0BB0000D0BB0000BFBBC8
:1027100000801CBC0000F2BB00004ABB00006CBB88
:1027200000000ABB000008BA000000000000D83A10
:102730000000043B0000523B0000A53B0000BD3BF5
:102740000080003C0080013C0000073C0000283C69
:102750000000283C00800B3C0000C33B0000C13B54
:102760000000B03B0000A43A0000D8BA0000D4BA80
:10277000000028BB0000B6BB0000E5BB0000EABBC0
:102780000000DFBB0000B8BB0000B0BB0000E1BB35
:10279000000089BB000062BB0000ACBA000090B929
:1027A000000080380000043B0000383B0000853BFF
:1027B0000000883A0000043B0000E03A0000E03AE4
:1027C00000000000000000000000603A0000C4BAF1
:1027D000000088BA000090B9000030BB0000C1BB07
:1027E00000002CBB000040BB0000F8BA000080BA1B
:1027F00000008039000080390000ACBA000090BAB7
:102800000000283A0000F0BA0000D6BB0000BCBAB5
:10281000000046BB0000A7BB0000EABB0000CBBB2A
:102820000000FFBB000018BC000007BC0000D0BBCC
:102830000000A1BB00001ABB000044BB0000D0B9DF
:102840000000CC3A0000383B0000E83A00001E3B94
:102850000000D83B0000C53B00009F3B00009A3BB6
:102860000000CB3B0000CE3B0000D43B0000833B8C
:102870000000703B0000A53B00009C3B0000D039ED
:102880000000603A0000F03900004039000040BB11
:10289000000052BB0000C4BA000034BB00008DBB76
:1028A000000068BB000008BB000080380000383B17
:1028B000000040BA00001EBB0000B0390000E03A42
:1028C0000000A4BA0000503A0000803800008039AF
:1028D0000000A1BB0000BFBB00005ABB000040BB12
:1028E00000006CBB0000B6BB00005ABB000064BB1C
:1028F00000005EBB0000DFBB0000E7BB0000BDBB0B
:102900000000E3BB000004BC00801CBC0000C5BB91
:102910000000DFBB000013BC008039BC00000ABC13
:10292000008001BC000006BC00801FBC000013BC7E
:102930000000A7BB0000B4BB0000ECBB0000D8BB8C
:102940000000A5BB000094BB000098BB000068BB62
:102950000000F0BA0000F03A00004039000000B971
:102960000000803A0000F03A0000043B0000903A7A
:102970000000703A0000003B00005A3B0000703A33
:10298000000040390000003B0000D43A0000000085
:102990000000463B00007C3B0000383A0000E0BAF3
:1029A0000000000000008039000068BB0000B0BBE0
:1029B0000000A9BB0000ABBB0000DABB0000A3BB5A
:1029C00000009EBB0000DFBB000080BB0000A5BB79
:1029D0000000A3BB000012BB000012BB0000E8BA5D
:1029E000000068BB0000F0B90000603A0000003948
:1029F0000000C43A000038BB000008BB0000000023
:102A00000000283B000062BB000080BB0000F0B962
:102A1000000090BB0000F2BB000005BC008001BCC0
:102A2000000019BC00801BBC00802ABC00804ABC8E
:102A3000008048BC000018BC00804ABC00C08CBCB0
:102A4000000044BC0000DDBB000015BC00803ABCA7
:102A50000000FDBB000074BB0000ABBB000005BC68
:102A60000000CCBB0000F8BA000028BB00007CBB13
:102A70000000B8BB000016BB000088BA000028BBED
:102A80000000C9BB00002CBB0000603A000026BB60
:102A9000000028BB0000803A0000A93B00009C3BDE
:102AA0000000BF3B0000C93B0000D23B0000F23BEE
:102AB0000000D63B0000403B00001E3B0000683B8E
:102AC000000046BB00800BBC0000E3BB0000EEBB77
:102AD000000007BC0000F0BB0000A1BB0000A1BBD0
:102AE0000000E3BB000094BB0000D8BB0000C1BBEA
:102AF000000080BA000080B900004ABB000040BA64
:102B00000000503A0000083A00004E3B00000A3B2B
:102B10000000003B0000983A0000703A000008BA3C
:102B200000003CBB000034BB00006CBB0000CCBB11
:102B30000000BFBB00009FBB0000D8BB008002BCF0
:102B40000000F4BB0000CEBB000017BC000031BC8D
:102B50000000EABB0000FFBB0000C9BB000034BBA3
:102B600000009ABB0000C7BB00001ABB0000183A67
:102B7000000052BB000090BB0000D8BA00000EBBA2
:102B8000000096BB000080BB000046BB000028BBD5
:102B9000000092BB000070BB0000ABBB000056BB46
:102BA000000012BB000034BB00009FBB0000CC3A09
:102BB0000000873B0000563B00009F3B0000333C79
:102BC0000000273C0000C13B0080033C0000293C82
:102BD0000000083C0000383B0000AC3A0000503ACE
:102BE00000004A3B0000903900009ABB00000BBC7B
:102BF000000070BB000074BB0000BABB0000FDBB4E
:102C000000005ABB00004ABB0000A3BB000085BB0C
:102C10000000CCBA00000ABB000090B9000056BB0F
:102C2000000078BB000000000000F03A000088BA05
:102C3000000040BA0000E83A0000D43A0000BC3A74
:102C4000000050BA0000F0390000B0390000F0B9BF
:102C500000005EBB0000A3BB00000ABB000028BA56
:102C600000005EBB000040BB000040390000883A15
:102C700000000000000090390000E8BA0000983A17
:102C800000004039000012BB00009CBB000098BB54
:102C90000000A1BB0000ADBB0000BABB0000B8BB88
:102CA000000016BB000028BB000090B9000070BAFD
:102CB0000000D039000008BA000080BA00004ABB0A
:102CC000000046BB000034BB000094BB000012BBF8
:102CD000000052BB000080BB000040BA00007C3BFB
:102CE0000000523B00008B3B00009E3B0000183C64
:102CF0000000FB3B0000BA3B0000683B0000463B85
:102D00000000903B0000B039000081BB00000EBB0A
:102D1000000038BA0000ADBB0000C7BB0000B2BB6A
:102D20000000D4BA00002CBB000052BB000026BB40
:102D3000000090390000043B0000B4BA000092BBD0
:102D4000000088BA0000F0B90000A3BB0000ECBB93
:102D5000000083BB00008DBB00008FBB000078BB70
:102D60000000C3BB00005EBB000040390000D4BAC5
:102D700000000E3B0000703B0000EC3B00006C3B91
:102D800000007C3B0000463B0000523B000080B846
:102D9000000098BA0000CEBB000029BC00802ABC0D
:102DA000008003BC00803DBC00005EBC008000BC15
:102DB0000000A5BB0000F9BB0000CBBB0000B43A8B
:102DC0000000383B0000BC3A0000683B0000BC3A01
:102DD0000000263B00001E3B000008BA00007CBB40
:102DE0000000C4BA000068BB0000E3BB000024BCC4
:102DF0000000EEBB00005EBB000012BB000070BB19
:102E00000000B0390000F23B0000193C0000F63B26
:102E100000801C3C0080773C0000513C00801F3C3F
:102E200000002C3B0000A53B0000AB3B0000383B02
:102E30000000BCBB0000A9BB0000A4BA00007CBB22
:102E400000001ABC0000FDBB00007CBB000068BB9A
:102E5000000090B90000D0390000BC3A0000A73B48
:102E60000000623B0000ACBA000098BB00001EBB33
:102E7000000094BB008021BC00804BBC00802FBCB4
:102E800000802FBC008002BC00009CBB0000D4BAB4
:102E90000000893B0000803B0000B43A0000F0B91C
:102EA0000000963B0000383A00001ABB0000ADBBA2
:102EB0000000B6BB000034BC000042BC000019BCDE
:102EC000000034BC00804CBC00804DBC00000BBC3A
:102ED000000009BC0000A5BB000012BB0000B0B997
:102EE000000080B90000463B0000853B00009A3B93
:102EF0000000C33B0000C93B00005A3B000080BA01
:102F00000000BCBA000018BA000005BC00006EBC8E
:102F100000804ABC00803BBC00805ABC00805CBC86
:102F2000000022BC000089BB0000803A0000083A83
:102F3000000088BA0000D83A00009A3B0000853BA8
:102F40000000BCBA0000083A000050BA000052BBB2
:102F500000801ABC000023BC000037BC00000ABC83
:102F6000000035BC00802BBC0000F6BB000028BB75
:102F70000000BCBA000040BA0000AE3B0000C73BF6
:102F800000006C3B000040390000283A000028BADD
:102F9000000028BA0000E5BB000009BC00800EBCA0
:102FA00000000BBC000037BC00801BBC000018BC3C
:102FB0000000ADBB000064BB00003CBB000000B9DA
:102FC0000000AC3A0000A53B0000E83A0000983A47
:102FD0000000303B0000163B0000B4BA000074BB98
:102FE0000000BFBB000033BC000052BC0000F4BBBB
:102FF000000007BC00800CBC00005EBB0000C4BA2F
:103000000000163B0000893B00000B3C0000413CE7
:103010000000633C0000643C00805D3C00804A3C52
:103020000000363C0080103C0000BA3B000000B9B4
:1030300000000ABB0000EABB00C098BC000034BB23
:1030400000006CBB00000039000025BC000008BA7D
:1030500000009EBB000022BB000000BB0000BC3A89
:103060000000F03900008F3B0000983A0000283B38
:103070000000F0B900009C3B0000343B0000D03958
:103080000000CCBA000064BB0000F03A0000D6BBE0
:1030900000009ABB0000F4BB0000BABB00005ABBA2
:1030A000008020BC000012BB008086BC0000A73B53
:1030B000000080B800801E3C00009039000040B93C
:1030C0000000E0BA000092BB00009ABB0000E1BB28
:1030D00000006EBC008069BC000019BC0000C7BBCA
:1030E000008074BC008095BC008078BC000052BC9D
:1030F0000000BCBB000065BC0000F8BB008010BC39
:103100000000A3BB000005BC00008BBB0000D4BACC
:10311000000036BC0000C9BB00005EBB000028BA3E
:103120000000BFBB0000EABB000040BA0000B0B91D
:103130000000AC3A0000B03B000000000080793C89
:103140000000B23B0000683B0000333C0000F23B53
:103150000000813B0000983B0000DFBB000098BAF4
:1031600000000A3B0000A9BB000088BC000047BC6F
:103170000000B5BC00803DBC008069BC00803FBC45
:10318000000060BC008000BC0000B4BA000019BCA4
:10319000000008BC000045BC00004A3B000040BAEB
:1031A00000C09A3C0000F43B00807A3C0000EA3BFF
:1031B0000080033C00000000000081BB0000403B99
:1031C00000008DBB000018BA00800BBC000009BCD9
:1031D00000006DBC0000463C0000BDBB0000443C4C
:1031E000000038BA00005E3C0000DA3B00002C3BD7
:1031F0000000D03B0000093C00801B3C00009F3BCE
:103200000000B0390000D8BA000080BB0000ABBBA2
:103210000000683B000052BC0000D0BB0000C9BBEE
:10322000000081BB00802CBC00802CBC008077BCDF
:10323000000040BC00803FBC00008DBB000016BCFD
:103240000000B6BB0080BABC008067BC0000CC3A6E
:103250000000A3BB0000DF3B0000E0BA00C0BF3CA1
:103260000080213C00C0993C0000983B000098BBC6
:1032700000801C3C00802A3C0000383C0000A43A3E
:103280000000733C0000153C0000983A0000F8BABA
:1032900000009FBB0000D039000046BB0000803A10
:1032A00000002CBB00000E3B0000B6BB000064BB5E
:1032B00000008B3B0080033C000080B80000053C10
:1032C000000090390000D63B0000D43B0080123C47
:1032D00000800CBC00005E3B0000383C0000B6BB28
:1032E000000008BB000060BC0080203C000037BC30
:1032F0000000803B000080BA00001ABB0000C33B06
:103300000000F23B00801D3C0000403A0000333CCE
:103310000000CE3B0000D8BA00C08C3C0000D43A7C
:103320000000D0B90000DB3B00801EBC00009CBA4E
:1033300000809CBC0000CEBB0000E7BC000028BCA5
:1033400000801FBC008081BC008039BC00803EBC76
:10335000000060BC00C08CBC00800EBC0000E9BB5B
:10336000008000BC0000EABB0000DBBB00008FBC9B
:10337000000026BC0000083B00804ABC008000BC66
:103380000000C5BB000034BB000080B90000A73BB3
:103390000000F63B000000000000563C00808F3C1F
:1033A0000000703C0080863C0000EE3B0000E93BE2
:1033B00000802E3C000012BB00804D3C000092BB00
:1033C0000000B43A0000A33B008003BC0000603A58
:1033D0000000C1BB0000F9BB0000623C000098BBCC
:1033E0000000803B000060BA000031BC0000BD3B23
:1033F0000080B3BC00003CBB0000883A008067BC82
:10340000000040BA00007EBC000028BB0000C13BA9
:10341000004084BC00006C3B000086BC00004ABB3E
:1034200000005A3B00C08ABC000080BA00000B3C80
:103430000000D4BB0000163B0000D8BA0000703B6F
:103440000080013C00802C3C000050BA008039BC58
:10345000000070BA000004BC0040B8BC00801DBC75
:10346000008030BC000090BC000008BB000050BCD5
:103470000000A3BB0000CB3B000085BB00806ABC02
:103480000000B4BB000038BA0000CCBB00001E3BFB
:10349000000035BC0000C9BB00000BBC000022BC12
:1034A0000000C3BB0000F8BB0000093C0000ADBB3E
:1034B000000043BC0000F43B0000F03A000085BB74
:1034C00000002CBB0000C4BA0000983B0080123CF6
:1034D0000000163C0080783C00001A3B0000F03BE6
:1034E0000000D83A0000BD3B0000603C000008BB73
:1034F000000070BB0000C1BB000050BA00004A3B96
:103500000000F93B0000923B0000D83A000005BCE7
:10351000000070BA0000A9BB0000D4BA0000A5BB2F
:103520000000D6BB0000443B00005ABB000078BB43
:103530000000F83A000070BB000018BC000090B911
:103540000000B2BB000089BB000080BC000089BB4A
:1035500000801EBC0040B0BC008000BC000040B930
:1035600000008BBB008001BC000008BB000028BA33
:103570000000B0BB0000D8BA0000FF3B00000E3BCB
:10358000000046BB0000CCBA00009C3B000060BAC3
:1035900000800EBC00004FBC000098BA0000283A22
:1035A00000C0A2BC000014BC00003C3B000000B9FD
:1035B0000000ADBB0000CCBB0000C5BB00807ABCE6
:1035C00000001ABC000068BB000019BC00809CBC55
:1035D000000022BC000070BB0000053C000090B958
:1035E000000040BA0000C5BB0000FDBB000070BA7F
:1035F0000040943C0000453C00008FBB0000ADBB88
:103600000000983A0000E53B0000BABB0000000053
:103610000000B43A008021BC000038BC00005EBC51
:10362000000008BA0000DD3B000078BB00001ABCB7
:103630000000D4BB00008FBB0000303B000038BB53
:10364000008000BC0000E7BB0000B039000070BB88
:1036500000802CBC0000D039000087BB008057BC24
:1036600000408ABC0000FFBB0000463B00001EBBC0
:10367000000045BC000056BB00800B3C0000223C13
:10368000000080380000A43A0040A03C0080793C53
:103690000000433C00806C3C0080853C0000A73C5F
:1036A0000080FE3C00C0073D0080DF3C0060023D22
:1036B0000080EF3C0040A83C0080B33C00C0E33CED
:1036C0000040833C000040390000D0BB00802BBC90
:1036D000008085BC00C0AFBC006005BD00C01DBD42
:1036E00000A023BD00202EBD006041BD00A027BD6D
:1036F000006020BD00E032BD006041BD00003BBD68
:1037000000A01CBD00E01FBD0000F7BC00C006BD4E
:103710000080EEBC000045BC00008FBC00802DBCCA
:103720000000783B00800F3C0000893B0000603CBB
:103730000000E83C00A0143D00600D3D0060113D1C
:1037400000A01E3D0000523D00006C3D0060723D37
:103750000090913D0030A63D00C0B93D00A08E3DD7
:103760000040F43C0080123C0000333C00C08B3C25
:103770000000373C000040BB0040B2BC00A022BDAE
:1037800000804BBD002041BD004021BD00C0BDBC3C
:103790000040DEBC00002CBD002066BD000077BDEF
:1037A000004042BD002026BD00A01EBD000028BD77
:1037B000004056BD00A05FBD000062BD008037BD67
:1037C00000401EBD00602EBD008028BD00E017BD7A
:1037D00000E001BD00C0B0BC000013BC00002C3BE9
:1037E0000000433C00005F3C0080973C00C0DC3C94
:1037F00000601B3D00A0483D0060713D0080833D9E
:1038000000F0813D0030953D00C0C03D0000D83D36
:103810000010B93D00C0513D0000A53C0000803BB8
:103820000000003B0000E33B000090BB00809DBC1B
:10383000008029BD004081BD00C08EBD00B082BDAA
:1038400000802DBD00807ABC00C09BBC0080D0BC35
:10385000008002BD00C0FCBC00C0DEBC00C0A9BC32
:10386000000089BC0080E1BC008011BD008043BD28
:1038700000C065BD00006CBD00C056BD00004BBD62
:1038800000803BBD00E018BD0080FFBC0040A1BC33
:10389000000016BB0000E83A00803B3C0040C53CFD
:1038A00000C0253D0040433D00A05F3D0060723DEB
:1038B00000B0843D00A08A3D00C0A43D00E0BB3DB7
:1038C0000050D33D0060E63D0010CD3D00B0843D8A
:1038D0000040B73C0000983A0000E53B0000E93B9F
:1038E000000052BB00C0B0BC00603DBD00A083BD65
:1038F0000010A4BD00509CBD004056BD0040CFBC90
:1039000000804CBC0040B2BC0080D8BC0000CCBCE5
:10391000008085BC000031BC00804EBC008067BCCC
:103920000000CABC006032BD00606ABD00206BBDF3
:1039300000E047BD008052BD000068BD00C067BD0B
:10394000008043BD006017BD004003BD00C0D6BC71
:10395000008095BC00008FBB0000FD3B0000DA3CFE
:1039600000E0173D00E0273D00805C3D00A08C3D5D
:1039700000A0A43D0010BC3D00E0DC3D0070FE3D19
:1039800000B0F23D00B0B43D00E02A3D0000363CFE
:103990000000043B0000B03B000044BB0000C5BC7D
:1039A00000A036BD00C088BD00B0AFBD00D0BEBD18
:1039B00000D08BBD00C0F5BC00008BBB00005EBB1F
:1039C0000000ECBB000092BB0000ACBA00001E3B44
:1039D0000000FD3B0000123B000055BC00E022BD92
:1039E00000B080BD001095BD00109DBD003097BD9A
:1039F00000B08DBD00F081BD002067BD00E04BBD73
:103A0000004030BD000004BD000043BC0000C73BC7
:103A10000000903C0040CD3C0040FC3C0040293D73
:103A20000040653D00A0923D00A0B33D00D0C73DE1
:103A30000050DE3D0020023E0000093E00B0D03DB7
:103A400000E0503D0000513C000090B9000080B8FB
:103A50000000CCBB0000DABC00E039BD00E084BD52
:103A60000010B7BD0000CEBD0040A9BD00E02DBDD7
:103A7000000031BC00009E3B00004A3B000050BAF1
:103A8000000038BA0000813B00801C3C00005F3C15
:103A900000000B3C0000BCBC000078BD0040B2BD83
:103AA0000060BBBD0070B6BD00E0AFBD00A09DBD15
:103AB000008097BD00D087BD00407CBD002054BD74
:103AC0000040F2BC000030BB0080B33C00000F3D62
:103AD00000E0383D00406F3D00908D3D0030AF3D2F
:103AE0000040D23D0090FA3D00480C3E0048163E92
:103AF00000E8003E0080963D00C0B03C00006CBB7A
:103B0000000000B90000463B00806BBC008020BD77
:103B100000C08EBD00F0C3BD0080E1BD0070C5BD1A
:103B2000006072BD000033BC0000813C00C09B3CC3
:103B30000000443C0040893C0040C83C00C0F93CC7
:103B400000E02E3D0040383D00808F3C0080BDBC31
:103B500000B091BD00A0CEBD00E0D3BD00F0CBBD54
:103B600000B0C1BD0090B1BD008090BD008087BD98
:103B7000003084BD00801ABD0000BCBB0000AE3C1C
:103B800000E0353D00A06E3D00F08B3D00E0A83D1B
:103B900000B0C73D0050F43D00700C3E00F01A3EEE
:103BA00000181D3E00D0F63D0050803D0000643CF2
:103BB00000009EBB0000E9BB000061BC0040DEBC11
:103BC000000043BD00A099BD00A0DBBD0020F4BDF6
:103BD00000D0D4BD004070BD008059BC0000453C01
:103BE00000C0893C0040943C0040A33C00C0BF3C66
:103BF0000000E73C0000213D00200D3D0080473CD7
:103C000000000FBD00A0AEBD0040DDBD0060DFBD07
:103C100000A0D7BD0010CFBD0030BEBD00A0A3BD29
:103C200000409ABD00A085BD002018BD000085BBE6
:103C30000000F23C0080683D0060993D0080C13D7D
:103C40000040DB3D0070F83D00E8103E0088253E56
:103C50000010333E00581B3E0020BD3D0040F43CA8
:103C6000000053BC0000ABBC00C0AEBC00800BBD6C
:103C700000803FBD00F08DBD0050D5BD00680ABE7C
:103C8000009809BE00A0B9BD002017BD0000C43ACD
:103C90000000973C0080793C00009D3C0040C83CFF
:103CA0000080F03C00E0383D0040643D00C0253D10
:103CB000000034BB00E06DBD0060C8BD00B0EDBDCC
:103CC00000B0F0BD0020E7BD00D0D2BD0010BEBDE9
:103CD0000010B3BD00E097BD00E038BD00004EBB52
:103CE00000C0213D00A0903D00B0BA3D0090E73DEE
:103CF00000380D3E0030223E0078383E00C0463E7F
:103D00000010443E00400F3E00A0713D000092BBF9
:103D10000000F1BC0040FDBC00C021BD002066BD1C
:103D200000C09DBD0080E6BD00E017BE006823BE58
:103D3000000005BE007089BD008069BC0000263C03
:103D40000000653C0080693C0040893C0040CF3C5D
:103D500000001D3D00A07D3D0020833D0000E03CB3
:103D600000E008BD0060B6BD0090E9BD0070EDBD8B
:103D70000030E0BD0050C9BD00B0B8BD00A0AEBD70
:103D80000030AFBD006083BD008085BC00E0183D01
:103D900000009E3D00C0D33D0020F63D0020143EB3
:103DA0000050323E0058513E00D85C3E0058543E10
:103DB0000000173E00006D3D00005EBC008020BD8D
:103DC00000E01BBD00803EBD006079BD0000B8BDB5
:103DD000003008BE00302EBE00D036BE00B00CBE93
:103DE00000F081BD00000ABC0000643C0000563CAD
:103DF00000801A3C0080663C00C0C83C00A0453DE5
:103E000000308D3D00E0783D0080793C00205BBDB6
:103E10000020E1BD004809BE001006BE00A0ECBDB8
:103E200000B0D6BD00D0CEBD0090CBBD0020C9BD36
:103E300000B082BD000030BB0040813D00A0DB3DF2
:103E400000E8003E00800C3E0060233E0008483E33
:103E50000070693E0038773E00F8573E00F0F93DAB
:103E600000808E3C00804EBD00B08DBD005086BDF0
:103E7000007091BD0080ACBD00C0F3BD00B028BE95
:103E800000F047BE007832BE0080D3BD00009CBC6D
:103E90000000D83C0040123D0040CE3C0040A73C12
:103EA0000000F13C0080683D0070A93D0030B53D48
:103EB00000C05D3D0000AEBC00C0D1BD00A019BE79
:103EC000004020BE00280BBE00D0E7BD0000D8BDDA
:103ED0000060DFBD00D0E7BD0000BCBD00200CBD10
:103EE00000E0393D00F0F43D00F8203E00802F3E18
:103EF00000E0353E0028463E00006F3E00848A3ECA
:103F000000607B3E0088133E0000DB3C002058BD73
:103F100000F0A3BD00C0C4BD0050D3BD0080DBBD18
:103F200000F007BE00183BBE008861BE002040BE06
:103F300000E0CABD00803BBC0080213D0020633D05
:103F400000004F3D00802F3D0040333D00E0973D95
:103F50000010E23D0090E33D0000593D00E01EBD31
:103F600000C0EFBD001024BE00B02DBE007818BE0A
:103F700000B0FDBD00C0FCBD00C00CBE002810BEDE
:103F800000D0D0BD0080EEBC00C0643D0080013E8A
:103F900000802E3E0078463E0010533E00906A3E60
:103FA0000058883E00BC943E00105E3E0080C63D36
:103FB0000000003B008020BD004073BD0080C6BDF6
:103FC00000D800BE00F81EBE00C048BE001070BE83
:103FD000004863BE00080CBE00E009BD00801B3C29
:103FE00000600C3D0060313D00E0813D00F0B43DDB
:103FF00000C0E83D00701B3E0038173E00F0B83DA1
:104000000000703A00E0A4BD0040FDBD00C80EBE37
:10401000005817BE009818BE00602BBE001838BEAE
:10402000004033BE0080FBBD008025BD00A0053DE3
:1040300000C0B53D00580A3E00E0323E00D0643E6C
:1040400000388B3E0044A43E00A8A93E00686E3EA6
:1040500000E0C03D000046BB0000EFBC00001DBDFD
:1040600000B0ABBD00B009BE001045BE002C81BE43
:10407000000890BE004874BE001800BE0040D0BCCE
:104080000000F83B0040AA3C00601C3D00709E3DD3
:104090000010043E00A02E3E0090493E0028283E1D
:1040A00000C0A83D000052BC00C095BD00E0CFBDDF
:1040B00000A0F9BD00B813BE002033BE007851BE89
:1040C00000F056BE009039BE0000EEBD002033BDAA
:1040D0000000223C00C0603D0090D13D00D02A3E4F
:1040E0000038753E0094993E00B0AB3E0028953EE6
:1040F0000088213E0080513D0080473C0040B23C9A
:10410000000074BC0050DEBD008047BE00A885BE24
:10411000006890BE001880BE002033BE0000CCBDF9
:104120000010A2BD0010A2BD00C0EBBC00E0633DCA
:104130000010173E00083E3E0020413E00A01F3EFA
:104140000050C73D00A03D3D0040C73C0000543C2E
:1041500000C02CBD004807BE00A049BE00C054BE30
:10416000008038BE004808BE00A0C6BD00D091BD8A
:1041700000E069BD00007FBC00A0863D00C0263E77
:1041800000E8763E0094923E000C993E00688F3E17
:104190000018383E0070C43D0010AC3D00D0C53D55
:1041A00000A01E3D00D0E1BD001855BE00987BBEAA
:1041B00000506FBE00C067BE00D043BE00901ABE64
:1041C00000600EBE00A812BE006085BD00C03E3D6E
:1041D0000068083E00B8103E00A8043E0020163ECD
:1041E00000900C3E0040D03D00403B3D00009D3C17
:1041F000004000BD0090E0BD001828BE00F029BEC0
:10420000002024BE003023BE00E822BE0020E3BD13
:10421000004068BD000078BB0020833D0090FE3D5B
:104220000010363E00B0663E002C903E00BCA43E1E
:104230000070763E00B0E53D0060893D0060A33D22
:104240000050993D00A05EBD00602EBE00605CBEC7
:1042500000205FBE00B861BE000056BE003031BE17
:10426000004816BE00E810BE00B087BD00801E3DAD
:104270000010C43D0070B63D00508F3D00B8043EB4
:1042800000682A3E00600D3E0080433D00C081BCB6
:1042900000C05CBD0080BFBD00A802BE001006BE0D
:1042A000003817BE00082ABE000028BE0070DEBD20
:1042B000002042BD000007BC00A05E3D0060FB3D49
:1042C00000F83E3E0090663E0058883E00649D3EE9
:1042D00000D8833E0090FE3D00B0B23D0080F13D2D
:1042E0000070E33D004052BD005849BE00C04ABEC8
:1042F00000F024BE001032BE002865BE00C85CBEBF
:1043000000E831BE00C805BE00804DBD0080553DAF
:104310000090913D00404F3D0000743D0010273E4D
:1043200000904D3E0080FF3D00805C3C002024BD9D
:104330000000D2BC00804BBD007001BE002846BE0C
:1043400000F85CBE003032BE0060F3BD0020CABD84
:104350000070DCBD00D0BEBD0080743C0060053E36
:1043600000A0383E00D0383E00D0543E00B8943E05
:104370000004A13E00A03A3E0090A23D0010CB3DBB
:104380000040073E00201C3D00D80DBE00183ABE7C
:1043900000501FBE002024BE00605CBE00F85CBE62
:1043A00000902CBE00680BBE00A0B2BD0080483C4F
:1043B00000A0453D00E01E3D00E07D3D0090193E1F
:1043C0000060493E00D0F43D0020503D0060053DB6
:1043D0000040943C00606EBD00B00ABE00F028BEF4
:1043E000009836BE00603CBE00701EBE00500EBE7F
:1043F00000B810BE0020F0BD00807ABC0010AF3DB8
:104400000020D63D0070023E00B85E3E00449D3E56
:10441000006CAA3E00A0763E0090E93D0010E63D0B
:1044200000F82B3E0010E83D00E0A2BD00A84FBE02
:10443000004012BE0040E1BD005847BE00F096BEED
:10444000001878BE00E802BE00B09ABD006085BDCD
:104450000040BFBC00E0043D00D0F63D0020363EE9
:1044600000283D3E0030073E0000E93D00801E3E32
:104470000000E93D000008BD000812BE008002BE39
:104480000090F4BD00505BBE00088DBE004861BEC8
:1044900000C81DBE00F811BE00900BBE00206FBD0D
:1044A0000080123D0070D13D00D02A3E00D86E3E03
:1044B00000448E3E008CA93E004C9D3E00903A3E4A
:1044C0000018023E0088343E00F80C3E00E063BD58
:1044D00000D048BE00F006BE0050D6BD00E86ABE5F
:1044E000007CAABE002878BE00F0FDBD0030F1BD02
:1044F0000010F3BD0040A2BC00108E3D0080F93DCD
:104500000030173E00F0343E00C0353E00E8393E32
:1045100000183A3E0000D63D00600CBD00B0ADBDB5
:10452000004069BD00C80EBE00DC8BBE005889BECD
:1045300000282CBE00082CBE00C86BBE005033BE45
:1045400000E009BD00C0CD3C00203E3D00A0F73D8D
:1045500000606B3E00F48C3E0004A13E0000A73ECC
:1045600000B0593E0050133E0010633E0038263E16
:10457000000073BD00984FBE0090A5BD000090BD27
:10458000004495BE009CC5BE00C058BE0020DBBDE7
:10459000005849BE00A055BE00C09ABC0040BF3DB7
:1045A0000070953D0030D33D00B0363E00C0683EFF
:1045B0000000603E00405A3E00780A3E0020063D62
:1045C0000000403B000019BC00D81CBE00B084BEF7
:1045D00000605EBE00182CBE00A87FBE003C8EBEF0
:1045E000007817BE002050BD00D089BD000052BC2D
:1045F00000A0013E00C0543E00F85A3E0010963E16
:104600000014BE3E0004853E0020043E00106E3EB5
:1046100000C0773E00805D3C004016BE00605EBD7D
:10462000004043BD00EC8BBE00A0B0BE00C052BE37
:10463000006021BE002070BE00B045BE00004ABD33
:104640000080653C0000263C0010DA3D00F82B3E5F
:1046500000E0353E00B84D3E00A8713E0010283EF7
:1046600000D09A3D0040833D00C0F23C00B0CDBD7B
:1046700000B84BBE008830BE00C037BE002084BEEC
:1046800000DC83BE007022BE0070FCBD00280ABEA4
:10469000007086BD00E0693D00E0DC3D0040163E54
:1046A00000A87B3E0030AA3E00C09F3E00C84E3EA0
:1046B00000B8333E0034863E0030223E0080DABC33
:1046C00000E0C4BD00A035BD0030F3BD009C91BE2C
:1046D000004093BE006855BE006846BE000857BE45
:1046E000009827BE00208DBD0000D43B00A0393DBE
:1046F0000030CD3D0010FE3D0068513E0080743E0C
:104700000078513E0060FD3D00D0FF3D0040C73DB8
:1047100000809DBC00700CBE00B00EBE008826BE9E
:1047200000886FBE00B882BE002848BE00901BBE45
:10473000000023BE00D802BE00001DBD00003B3DAE
:104740000090B33D0098133E0018673E0018943E59
:1047500000089F3E0050833E0098113E00D0443E2A
:1047600000A0453E0000363C0030FABD00E0B5BD7B
:1047700000D098BD00C075BE00349EBE005865BE16
:1047800000A820BE00C045BE003845BE0000CCBD1C
:104790000040DD3C0080333D00808E3D00D0FF3D79
:1047A00000505B3E00606E3E00E0383E0090103EE0
:1047B0000068243E0040F03D0040C8BC0090CDBDE4
:1047C0000030C6BD008814BE00507EBE002C80BEE6
:1047D00000C833BE009817BE00D03ABE00380EBEE7
:1047E00000202BBD0040003D0060323D0020C13D57
:1047F0000068483E00648B3E00B4983E00F8963E48
:1048000000985D3E00E0F13D00E83D3E0058153E59
:10481000000069BD00D01BBE005097BD00D0DABDBE
:10482000006C9ABE007097BE00D043BE00182EBE2A
:1048300000B062BE008821BE00C059BD0080F73CB8
:104840000000F23C00E0D33D0038263E00E0663E2A
:1048500000D84E3E0068343E0040163E0020183E10
:104860000020B03D00E017BD0030CDBD00E0CFBD61
:10487000001028BE000876BE00D85DBE00482CBEE1
:1048800000801EBE00B028BE0000CBBD004004BDAD
:1048900000801A3C00C0603D00E00C3E00E0453E58
:1048A00000A0663E00B0783E0050913E0068883E11
:1048B00000A0EE3D0070AF3D0030203E00C09B3CAC
:1048C000007805BE004015BE00D0AFBD005854BEF4
:1048D00000988DBE00786EBE000038BE00C841BE94
:1048E00000A01BBE0000A1BD0000093C00E0573D38
:1048F0000010D13D0088033E0060303E0000553E70
:104900000078383E00A0193E0090E13D00A0D53D62
:1049100000006F3C00C093BD00A0F7BD0040FFBD8C
:1049200000482CBE00004FBE00C055BE001022BE85
:10493000000004BE00A0D0BD008068BD00007D3C2A
:1049400000203A3D00609F3D0020083E00983F3E19
:1049500000085A3E00906B3E009C803E00C0723EB4
:104960000040A93D00C06C3D0088083E0000703A40
:10497000009814BE00081EBE00B0A0BD00785EBE48
:1049800000B092BE002865BE005013BE004023BE9A
:10499000009816BE0090ABBD0080BB3C00F0873D88
:1049A00000C0A63D00F0D83D0090283E0068443E7F
:1049B0000060133E0030E43D00B0C53D0098033E6A
:1049C0000020173D00E072BD000008BE0020C7BDFA
:1049D000006815BE000858BE00404CBE0030DABD6D
:1049E0000000D0BD0050F8BD00F092BD0000053CB5
:1049F00000400E3D00C0F33C0080C13D00D0253E8C
:104A000000702B3E00D82E3E00A0553E0018793E87
:104A100000A8313E0080CB3C00A0B23D0080B53DF7
:104A2000004029BD00082CBE00D0D4BD0090ADBD13
:104A3000006860BE00E86BBE00E033BE00C0EFBDA2
:104A4000002011BE0020D0BD00402DBD00A0273D9C
:104A500000C06B3D0000BC3D0030D73D00802C3EC7
:104A600000082D3E00D0193E0060C33D0060E33DCC
:104A700000B0CF3D00C0DC3C00A08ABD00C0CCBD72
:104A80000060D2BD006814BE008030BE00C82EBEDB
:104A90000080E4BD0040EEBD00F0DDBD00D09EBD55
:104AA000000014BC0080753C0040E63C00709E3D58
:104AB00000500E3E0048163E00A8263E00A84C3E80
:104AC0000080763E0040323E00C0DE3C00D0B43D67
:104AD0000010CF3D008000BD00F81FBE0040C7BDE4
:104AE00000209CBD004857BE00A86CBE00F839BE2F
:104AF0000040FDBD003014BE0080DBBD00C056BDCF
:104B000000204D3D00007B3D0080B73D00D0DD3DE5
:104B10000048343E00D0433E0078223E0040D23D63
:104B200000B0F63D0080EE3D00E02E3D00208BBD44
:104B300000B0E5BD0050F1BD008021BE00A05ABE0E
:104B4000002855BE001016BE003004BE00D814BEAA
:104B500000E0DCBD0040D6BC00000ABB0000AE3B5C
:104B60000060993D0018193E0058263E00E81E3EA0
:104B70000070583E0044883E00786F3E00809F3DA4
:104B80000040553D00D0063E00C0D43C007002BE3F
:104B900000182BBE00E084BD007818BE00D074BEA3
:104BA00000B86CBE00A805BE0000DDBD0080DDBD04
:104BB00000F096BD0080BC3C0070CD3D0050FE3D35
:104BC0000080F33D00A01F3E0030713E0048533E80
:104BD0000010FE3D00A0953D00A0EA3D0010803D84
:104BE00000607CBD00F803BE00A0DDBD008822BED1
:104BF00000D868BE000875BE00C82EBE00F019BE01
:104C0000001820BE0040F7BD006027BD000026BB95
:104C1000000052BB0080163D0050E73D0030143EBE
:104C20000010093E0008103E0010313E0060413E79
:104C30000088343E0030E43D00C090BC0000533D8D
:104C400000E0A23D004089BD00F041BE0050A4BD7F
:104C500000602ABD00603CBE00105DBE0090C9BD72
:104C60000000E5BB0000A1BD004059BD0020363D5D
:104C70000000043E00A0B73D00E0B93D0000FD3D4E
:104C800000A8333E0008023E00708F3D0000DB3C70
:104C90000000553D0040A13C009084BD00B0E7BD40
:104CA00000B0ABBD00D0E5BD00A046BE000037BEE1
:104CB00000C0DDBD0080C3BD00A0F5BD008077BD94
:104CC000000080B8000085BB00808DBC0080CA3C1D
:104CD0000060663D00A0183D0040B83C00A0713D5A
:104CE0000030AD3D0060B23D0000C93D0078143E8B
:104CF00000B8213E00C01A3D0080743C00D0EE3D5B
:104D00000000893D00C070BD00E05FBD00F08D3D3A
:104D1000006010BD005806BE0060C1BD000027BC89
:104D2000004096BD00E0C0BD008029BD00802B3C46
:104D30000000ECBB00000ABC00A0053D00605B3D2C
:104D40000040923D0000593D0000293D00C03A3D21
:104D50000000593D00408B3C00803ABC0000FDBB88
:104D6000000074BB004094BD0030F6BD0060DBBDA8
:104D70000040B4BD004005BE000017BE00B0E9BD54
:104D800000E099BD0030CFBD0020D4BD006050BD13
:104D90000000AEBB00805BBC00009C3B0020813D5E
:104DA0000080CE3D0080EC3D00901B3E00E0573E71
:104DB00000707B3E00D0473E00A09B3D0050133E5C
:104DC00000B02A3E0040DE3C0090E9BD0040A9BC96
:104DD00000409ABC00F040BE008074BE00780BBE5C
:104DE0000040C3BD00903ABE00D016BE00A026BD54
:104DF00000801A3D0000343B00A01C3D00E0DC3D7B
:104E000000802E3E00F80D3E00E0FE3D0090DC3DAF
:104E100000D0FA3D0020B43D0000303B000053BDFF
:104E2000000052BD00E0AABD00F83CBE009860BE84
:104E300000E032BE009029BE00E056BE00303FBE0A
:104E40000040C3BD004060BD004069BD0000DBBB49
:104E500000B0AB3D0060CC3D0020B83D0080EA3D95
:104E600000E0233E00D0173E00F0F93D0040153E23
:104E700000D0193E00A0F53D00E0F93D0000653D81
:104E8000000022BD00004F3C000028BC0030E7BD00
:104E900000B03ABE00E010BD00F096BD00801EBE1E
:104EA00000F0FBBD0080873C00C0CEBC008070BD20
:104EB00000C0A13C0070CD3D0000AE3D0020203D73
:104EC0000090B13D00E0C43D0090963D0080873CDD
:104ED00000801B3C00802BBC000090BC00109DBDDE
:104EE00000E0F7BD00C0DEBD00F094BD0020E1BDD4
:104EF00000100ABE0090B8BD00202FBD000077BD95
:104F0000006039BD00408A3C00A07D3D0000293D85
:104F100000E0093D0040703D00C0773D00C0AF3C5F
:104F20000000743B00C0903C0000703A004003BD9C
:104F30000080F9BC000070BB00802F3C0000AC3C3E
:104F400000405E3D00D0E93D0000AD3D0000E13B8A
:104F50000020D83D00B00A3E00005E3D00C0D4BC39
:104F60000050C23D00E0883D00A07CBD0060ACBDAB
:104F70000080023C00C00DBD0000FBBD0000C1BDB3
:104F800000802FBD00E04BBD00C0C0BD000046BD8D
:104F900000800BBC0080783C000040390000E93CF8
:104FA00000601B3D00C07F3D00E03D3D00A00D3D89
:104FB00000000A3D0060313D0000AE3B00C0B0BCC7
:104FC0000000ABBC00C0D5BC00308CBD0050A6BDFD
:104FD00000E066BD008070BD00D0BCBD00309BBD50
:104FE000008051BD00004ABD0050A0BD00E03DBDA5
:104FF0000000A4BC00801BBC0080A5BC00801F3C3E
:1050000000000E3D00A03D3D0040643D00B0C13DAC
:105010000000063E0088163E00D80F3E0060983D16
:105020000080923D0098033E00D09A3D00C0E5BC50
:1050300000A005BD0060583D00E035BD004001BE48
:1050400000E0CCBD00C09BBC0040C1BD00E0E6BD9F
:10505000004061BD0000303B00800ABD0080ADBC57
:105060000000133D0070893D0060633D00203E3D1F
:1050700000807B3D0090803D0020833D0080E83C27
:10508000000080B80000163B0000EA3B000019BD9C
:1050900000C093BD00005DBD003082BD0090B8BD72
:1050A0000050E0BD0060A8BD00209DBD0090AFBDD8
:1050B00000E08EBD008047BD00A01EBD00C020BD29
:1050C000004099BC0000803B00006E3C00009C3B0F
:1050D0000040F23C00003C3D00C07E3D00203D3DD4
:1050E00000E09B3D00E0C63D00D0D63D0000CB3D3A
:1050F0000008033E0050FE3D00E0083D0020443D16
:1051000000D0B03D00C0E63C000069BD008078BC26
:1051100000804A3C006096BD0080CCBD00708BBD15
:10512000002041BD0010C6BD00908BBD002009BD10
:105130000000C4BA0080F6BC00801CBC0000653CC6
:105140000000263D0040C73C00808F3C0000C23C70
:1051500000C0C53C00005E3B00A010BD008090BCBC
:105160000000DDBB00C0C8BC002049BD002017BD49
:10517000002005BD000061BD002051BD0080C3BC02
:105180000000B4BB0040B0BC0080B2BC000096BBC5
:1051900000803E3C0000BCBA000035BC0000403935
:1051A0000000613C0000D8BA0080BBBC0040A1BC3C
:1051B0000000F0BB0000683B0000B0390000313C4B
:1051C00000A01E3D00E0713D00D09A3D00F0C53DBD
:1051D00000B8033E0040FD3D00D0803D0060A33D8F
:1051E0000070C93D00A0013D00401DBD008074BCA1
:1051F000000040390040C8BD00E00CBE0090DEBD9C
:1052000000C0B3BD009807BE00F0D8BD00806FBDE0
:105210000040DEBC00C00DBD0000A1BB00601C3D15
:1052200000A08E3D00809D3D00409B3D00809F3D45
:105230000000B23D00D0983D00C00D3D0000C53BD0
:105240000000473C0000BDBB00A04CBD005093BD1A
:10525000005088BD00408BBD008099BD0020BABDC4
:1052600000E097BD00806BBD00C047BD002079BD48
:1052700000400FBD000024BC008074BC0040AFBCE7
:10528000000070BB0000BCBB00408CBC00803DBC7B
:10529000000052BB008090BC00C092BC0000D83A15
:1052A0000000063C0000253C0060133D0040613DCD
:1052B00000C08A3D0010C63D0040EE3D0030C83DB4
:1052C0000030883D0050F83D0060E43D0020493D3D
:1052D0000000FB3B00C0973D00A0053D00804EBD97
:1052E00000F083BD00007EBC00A05EBD0070E2BD8A
:1052F0000050BCBD008056BD004040BD00408CBD8C
:10530000006039BD00007DBC00800D3C000004BB86
:1053100000000A3C0080F03C0020393D0080023D46
:1053200000C0A13C0020113D00200D3D0000943B39
:105330000000E8BC0040C8BC00A023BD00E095BD53
:1053400000D0C3BD00C0A1BD003099BD0090CFBD4D
:1053500000F0C7BD006089BD00E063BD00F080BD06
:105360000080FEBC0000163C00C0AE3C00C0AE3C5D
:1053700000604F3D00B0943D00109E3D00A0953D63
:105380000020943D0080A33D0030933D0020833DEC
:1053900000207D3D00A0853D00A0783D00C07A3D05
:1053A0000080943D0020853D00001E3D00004F3CE4
:1053B0000020013D00409B3C00600CBD00208BBDE7
:1053C0000080E9BC002054BD0070C9BD0010C4BD00
:1053D00000606BBD009087BD0030D5BD0080A3BDCF
:1053E000008038BD002006BD00E041BD00C0C6BC45
:1053F000000062BB0000193C000096BB00801F3C0F
:105400000080EF3C00401E3D00E00F3D0080C33CAB
:1054100000402C3D0080303D00C0B63C0000E93B20
:105420000020013D00C0AF3C000028BC000072BC61
:105430000000B0B9000052BC00E013BD00C012BDB6
:10544000002005BD0000FEBC00E00CBD0080E8BCF3
:1054500000E004BD008088BC000061BC000032BCDC
:10546000000038BC000012BB0000043B0000DA3B27
:1054700000802F3C0000743C0000953C00A0013DE2
:105480000000073D00801A3D0040403D0020763D71
:1054900000005A3D00A0493D0040EB3C0080E13C4B
:1054A0000080C93C0000DD3B0040A3BC000088BC7C
:1054B00000C08CBC00E022BD00A06ABD000031BD70
:1054C00000E00BBD00A045BD000037BD004083BC1F
:1054D0000000EC3B0000B43B0000153C0080D13CD8
:1054E00000A02B3D00C0303D0080113D00801E3DDE
:1054F00000E0133D0080F93C00007E3C0000343B9E
:10550000000073BC0080ADBC00E029BD008068BD18
:10551000007082BD00E075BD00A088BD00D09EBDBA
:10552000004092BD00C060BD00404ABD00C077BDD4
:10553000008042BD00E005BD00E004BD00E029BDE3
:1055400000A001BD0000CCBC0040AFBC00C084BCCA
:105550000000D6BB0000E03A00804A3C00E0003D7D
:1055600000A0183D00A0533D00C08C3D00D0A93DD7
:105570000040963D00D0943D00A0BB3D0080CA3D58
:105580000030B33D00D0A93D00F0B43D00A0663D21
:105590000000403D00E0263D0040C13C00802ABCA8
:1055A000000005BC00809CBC00E053BD008090BDA5
:1055B00000E078BD004081BD00C0A6BD0060A3BD75
:1055C00000A08CBD008051BD00A032BD0080E0BCB9
:1055D000008011BC0000893B00008F3C0080C33C70
:1055E0000000CA3C0040C13C0000E73C0000D83C41
:1055F0000000503C00008BBB00007FBC008096BCCC
:1056000000C0B7BC00E005BD008033BD004013BD45
:1056100000A010BD008033BD000047BD0000E0BC0D
:10562000008095BC00C0A9BC00C098BC00009C3A9A
:105630000080293C0080483C0000433C0040B83CCE
:1056400000C00A3D00C0F53C0040C53C0080EF3C76
:1056500000801D3D00C00B3D0040DC3C0000A43C30
:1056600000C0813C00800C3C00800B3C00C0843CAE
:105670000000503C0080473C00007D3C00C0EC3CFA
:105680000080C43C0000CB3C00C0A03C0040B23CC9
:105690000000173C000040BA008059BC008096BC56
:1056A0000000B3BC0080C9BC0000F9BC000012BD02
:1056B0000080F7BC0040E5BC000000BD00A000BDBC
:1056C00000C08BBC00004ABB0000183A00009CBA26
:1056D000000090BA00802D3C00C0A93C00408B3CEB
:1056E0000000F83A00009C3B0080023C000028BC0F
:1056F0000000B6BC008086BC0040B9BC00C03ABD0A
:10570000004052BD000043BD004038BD00C055BD43
:10571000002024BD00800ABD0040B6BC000025BCAE
:105720000000503A0000C93B00C0833C0040C63C2A
:105730000020183D00E0043D0040B03C0040893CA2
:105740000080C23C00806B3C00008F3B00000000EA
:1057500000804D3C00008039000043BC00000EBBBF
:105760000000263C0000253C0000363C00806A3CDE
:105770000000A63C0040BE3C0000DA3C00C0E33C18
:105780000040D73C0080B33C0080743C0000523C99
:1057900000804C3C00801B3C0000683B0000ABBB21
:1057A000008085BC008077BC000052BC00C09FBC5C
:1057B0000080D9BC00009EBC00C0C7BC0040AABC91
:1057C0000040B6BC00C0BFBC00C0BDBC000060BC97
:1057D00000001ABC008080BC0040A3BC00808EBCCE
:1057E00000C084BC00007DBC00C090BC000006BCB2
:1057F000000044BC00408CBC00C0AABC00000ABC35
:105800000000CCBA000092BB0000C4BA0000423CC9
:1058100000408B3C0000453C0080793C00C0EA3CE5
:105820000080F13C0000983C0080563C0080953C94
:1058300000802F3C00004A3B0000163B0000283A45
:10584000000013BC008068BC008058BC0000F0BBA6
:1058500000803BBC0000A1BB0080013C00C0913C2B
:105860000080873C0080C93C00E01B3D00403B3D80
:1058700000A0493D00405A3D00E05B3D0060143D02
:105880000040F53C0040B93C0080493C0000CCBBE6
:105890000000CCBC0000F2BC002026BD00C052BD00
:1058A00000E08CBD00C073BD00A066BD004073BDAC
:1058B000006050BD006020BD004007BD0080ADBC51
:1058C00000006C3B0000CC3B0000253C00805A3CB3
:1058D0000080DF3C0040A93C0000563C0000833BB8
:1058E0000000F039008087BC00A001BD008019BD18
:1058F000004024BD008055BD004060BD002049BD72
:1059000000E038BD002039BD00C016BD00808DBC50
:105910000000BDBB0080573C0040F23C00C03E3D53
:105920000020533D0070883D00C09D3D0010AA3D01
:1059300000109B3D00A0A13D0080813D0080553DB1
:105940000000213D0040CD3C0080113C000074BBB4
:10595000008049BC0000E8BC000008BD0000D9BCC4
:1059600000409ABC00C0BEBC00C08BBC008047BCDD
:10597000008000BC0000C5BB000034BB00006CBB55
:1059800000008DBB0000B4BA00801FBC0080A6BC24
:105990000080C3BC0000B4BC00A008BD00E001BD95
:1059A0000040DCBC0040F2BC00401ABD002014BD29
:1059B00000C0ECBC0080DABC0040A8BC00803EBC4B
:1059C0000000A5BB0000813B00802E3C00C0913C44
:1059D0000040A03C0000003D0000DB3C00807B3C20
:1059E0000000603C00C0923C0000F03B00008D3B9A
:1059F0000000BF3B0000F93B0000803B0000F83B8B
:105A00000000BC3B000008BA0000F63B0000F93B78
:105A10000000BCBB000013BC00000A3B000028BA19
:105A200000800FBC0000B8BB000080380000AEBB97
:105A300000801DBC000029BC000038BB00002CBB4E
:105A40000000603A0000ACBA0000A9BB000083BBB4
:105A50000000643B0000AC3A00004EBB0000463B37
:105A60000000283C0000E73B0080013C00C0AF3C48
:105A700000C0D73C0000CA3C0080F93C0000033D58
:105A80000000E73C0040073D0080203D0040153D00
:105A90000040F43C0080CA3C0080803C0000CB3BCE
:105AA0000000183A000042BC0000ADBC008080BC81
:105AB0000080D0BC00C02FBD002032BD0000FEBC65
:105AC00000C0F3BC006014BD00E001BD0040DFBCBD
:105AD00000A008BD002027BD00800FBD000004BD50
:105AE000002010BD008015BD00002DBD008016BD3A
:105AF00000A009BD0040C7BC0080C3BC000098BC2A
:105B000000800DBC00008F3B0000E73B0000713CB3
:105B10000040D73C00E0013D0080D23C0040F53C15
:105B20000040D53C00409A3C00806C3C00C09F3C4B
:105B300000409B3C0000313C00809F3C0080DB3CEF
:105B40000080CC3C0040A23C0080E03C0040003D96
:105B50000000EA3C0040EE3C0000FE3C00C0B03CCF
:105B600000C0983C00809F3C0000163C00008B3B2E
:105B7000000034BB00008038004089BC0040AFBC4E
:105B8000004098BC0000CBBC00800EBD006001BD91
:105B90000000F8BC008019BD00602BBD008011BD65
:105BA00000A00FBD006002BD00809DBC008080BCD5
:105BB000000028BC000083BB0000983A00002CBB0A
:105BC0000000783B0000963B0000443B00008BBB8C
:105BD00000009C3B0000383B00000ABB000062BB99
:105BE00000000B3C0000A73B0000ABBB00001EBB4D
:105BF00000803B3C00007D3C00802A3C0000BD3B17
:105C000000006D3C00C0A13C00009C3C00808E3C2C
:105C100000007D3C0080213C00008F3B0000E0BA8A
:105C2000000035BC00809EBC0040DDBC000017BDFC
:105C3000006026BD00603ABD008047BD00E039BD70
:105C4000008007BD0080DFBC00C0B0BC008011BC7C
:105C50000000AD3B0080113C0080303C0040CE3C59
:105C600000A00C3D0060103D0060053D00C0113DEE
:105C70000080F03C00A0003D0000A53C0000B53CC9
:105C80000040C13C00409B3C0000EE3B00800F3CCC
:105C90000000333C0000F0BA0000DBBB000060BA3B
:105CA000000046BB0000D6BB0000ACBA0000F03AD2
:105CB0000000D83A0000503A000000390000983B3C
:105CC0000000B23B0000383A008021BC000008BC54
:105CD000008066BC0080C4BC0080E8BC00000ABD37
:105CE00000C020BD00800EBD00C0E6BC000000BDAD
:105CF0000040CDBC00805CBC000064BC00006FBCF8
:105D000000802BBC000038BB00008BBB000080BBB8
:105D10000000D0BB000050BA000040BB000090BBA8
:105D2000000029BC00008DBB0000803A0000ADBB24
:105D3000000024BC000064BB0000F83B00805D3C18
:105D40000040983C0080DB3C0080153D0020243D55
:105D500000200C3D0060133D00E0103D0080FE3C43
:105D600000C0F23C0040B13C00803A3C0000503A98
:105D7000000026BB00006DBC0000C3BC0040FBBCA3
:105D8000000017BD00802CBD000017BD00C019BD6C
:105D90000080FFBC0040AFBC008067BC00000EBBB1
:105DA000000080B80000B63B0080473C0040B63C95
:105DB00000C0AE3C00C0A03C00C0A83C0080763CC7
:105DC0000000283A00005EBB00804CBC00C0B6BC9E
:105DD00000E00CBD00C007BD004024BD000046BD72
:105DE00000A03DBD0000F6BC00C0DEBC008069BC68
:105DF000000022BB0000363C0000553C0040923CB5
:105E00000000BB3C0040B73C0080AE3C0040923CF0
:105E100000408C3C0080493C00008F3B0000983AD9
:105E200000008039000000BB000035BC0000EEBB64
