:020000042000DA
:04035C0000787FBFE7
:1003600000E8E2BE0090913D0020C73D0030C23D54
:100370000070BA3D00D0B23D0010AC3D0000A93D78
:100380000030A63D00B0A33D00B0A03D00109E3D52
:1003900000009C3D00009A3D0080963D00B0933DDA
:1003A00000B0913D00008F3D00C08C3D00008B3DB2
:1003B0000080883D0040853D00F0833D00D0803DB9
:1003C00000807E3D00807A3D00E0753D0000733D79
:1003D00000E06E3D00E0693D00A0693D00E05F3D4A
:1003E00000A05F3D00205C3D0060573D0060533D34
:1003F00000A04F3D00804D3D0020493D00E0453DBF
:1004000000C0423D00403F3D00603A3D00C0383DE5
:100410000020363D0040343D00E0313D00802D3D60
:1004200000202A3D00C0283D0080253D0040213DA0
:100430000040213D00C01D3D00E0183D0080163DFC
:100440000060143D00C0123D00800E3D00C00D3D17
:1004500000600D3D00A0083D0000043D0000043D8B
:100460000080003D0080FD3C0080F93C00C0F43C71
:1004700000C0ED3C0040ED3C0000E73C0040E63CA5
:100480000080E23C0080DF3C0040D73C0000D43CD0
:100490000080D03C0080CC3C0040CD3C0000C53CFE
:1004A00000C0BF3C0040C03C00C0BF3C0080B53C29
:1004B0000000B43C0040AF3C002051BD00A0C6BDD0
:1004C00000809BBD00E041BD0080D2BC0000DDBBD0
:1004D00000006D3C0060233D00E0693D00C0973D99
:1004E0000040BD3D00E0D13D0060E63D0050FE3DD6
:1004F00000F0093E00B8123E00F8203E00482C3EB5
:1005000000D0383E0078413E00604F3E00985F3E8C
:1005100000A0683E0048743E00407F3E0048813E97
:100520000028843E00CC853E0088873E003C893E02
:1005300000B88A3E00EC8A3E00148B3E0024893EBF
:1005400000488A3E00648B3E003C8D3E00348F3E66
:100550000060923E0040943E0088953E004C973EDD
:1005600000BC963E00209A3E00B89B3E00149A3E86
:1005700000E8973E0068983E0014983E0050983E70
:1005800000E8983E00D8993E0060963E00F8943E00
:100590000060963E0058983E003C983E0024973EEE
:1005A0000034983E0020953E0038943E00B8933EBB
:1005B000009C923E0034903E007C8C3E00C8893EF8
:1005C00000BC853E006C843E00A0853E00C4853E94
:1005D0000098853E0080853E0038843E006C833E56
:1005E00000D0833E00D4843E0060833E0050843EB1
:1005F00000E4843E008C813E00107C3E00E8783EA2
:1006000000107E3E0090783E00A86D3E0048673E98
:100610000098633E0078613E0030613E0088603E95
:100620000030603E0078603E00C85F3E00A85E3E3D
:1006300000D85F3E00C0613E0058633E00F85C3E5B
:1006400000F8583E0038583E00A0543E00004F3E8F
:100650000078443E00C0453E0040423E0008393E1E
:1006600000082E3E00602E3E00F82D3E00E82E3E93
:100670000078313E00382C3E0088273E00382C3E62
:100680000030303E00C82D3E00E0273E0068253E89
:1006900000F8203E00281E3E00B01C3E0098153E8B
:1006A0000040113E00080D3E0058093E0030013E5A
:1006B00000B0003E00C8013E00D00A3E00E80C3EFB
:1006C00000D0063E0068073E00C0083E0098083E85
:1006D00000C0083E0068083E0028013E0050F13D81
:1006E0000070EB3D00C0E63D0010E23D0000DF3D44
:1006F0000090D63D00A0CC3D00E0CC3D0090CB3D2D
:1007000000C0CA3D0090CB3D0070D13D00A0D73D58
:100710000030D73D0020CC3D00C0BF3D00D0B23DF1
:100720000050B73D0040AE3D0080A53D00C0903D6B
:1007300000F0903D00C08E3D00E0903D00008D3DFA
:1007400000F0923D0040963D00309B3D0030A43DBE
:100750000040AA3D00D0B63D00D0BE3D0080BD3D6A
:100760000000BC3D0020BB3D0090A73D0020A13D06
:1007700000209C3D00A0903D00108E3D00C06C3DCF
:1007800000205B3D0040513D00C04A3D0080523D8D
:100790000040463D00A04B3D0040523D0040523DD0
:1007A0000060543D0000683D00D0803D0060723D17
:1007B0000040603D00605F3D00605B3D00204D3DBE
:1007C0000000463D0080333D0000263D0020263DD0
:1007D00000001A3D00201C3D0000283D00C0303DB7
:1007E00000402C3D0080113D00400E3D00A01F3D0B
:1007F0000040DD3C0080D83C0080EF3C0000863C9F
:1008000000C0893C0000513C0000893C0000183CBD
:100810000000723C00C0913C00809F3C00006E3C98
:100820000040993C0000E03C00C0B83C0080D83C4F
:100830000000D93C0040EE3C0000EF3C0080AD3CA5
:100840000000243C0080383C00C0913C00804B3CC0
:100850000000443B000034BB0000043B0000623B4E
:100860000000EE3B0080123C0080693C0080AD3C03
:100870000040DE3C0040DF3C0040F43C00E00B3D2B
:100880000040073D0040E53C0000973C00805B3C99
:100890000000083C0000073C00007C3B000089BBD6
:1008A00000000A3B0000EA3B0000E13B00009A3BED
:1008B0000000F23B00009C3B00804D3C00803E3C31
:1008C0000000153C0000FD3B0000333C0000CB3B2A
:1008D0000000383B0000383A0000193C0000F43BAF
:1008E0000000903A00009C3B0000343C00804C3CEF
:1008F0000000423C0000F43B00800D3C0000473CFF
:100900000040893C0000063C000080380000CC3AE2
:100910000000C73B000004BB000050BC00806CBC62
:1009200000005FBC00007FBC008069BC004099BC37
:10093000008079BC00808FBC008021BC0000E9BB36
:10094000000083BB000008BA0000903B00801A3C06
:100950000000743C0040AA3C0040A33C0000AC3CBA
:1009600000C0923C00C08C3C00802C3C00009F3BAF
:100970000000BCBB0000F6BB000017BC00009FBC21
:1009800000C0BFBC008087BC000033BC00800DBC31
:100990000000C3BB0000263B0000053C00805A3C21
:1009A00000806A3C00806C3C0040853C00008D3C2F
:1009B0000000513C0000B23B0000943B0000AEBB85
:1009C0000000DFBB000051BC000045BC00802EBC15
:1009D00000801ABC0000803B0000073C00803C3CCB
:1009E00000804D3C0000073C0000C53B0000083B78
:1009F000000038BB00802CBC0040A8BC00C092BCEA
:100A00000080C9BC00C0DDBC00C0BFBC00C0B6BC1B
:100A1000008078BC000005BC0000A3BB0000C3BB85
:100A20000000343B00005F3C0080953C0080883C27
:100A30000000F03B0000463B00002C3B000040B9AA
:100A40000000ABBB000081BB0000BDBB0000F2BBDF
:100A500000001ABC008077BC000038BC00801BBCC2
:100A6000000009BC00803BBC0000FDBB00004ABB8D
:100A7000000038BB0000E1BB0000B6BB0000803ABC
:100A8000000080B90000F0BA0000963B000040BBB7
:100A90000000CC3A0000A53B0000F0B90000BCBA51
:100AA0000000F0BA000078BB008075BC000004BCF8
:100AB000000092BB00000BBC008068BC008078BCCA
:100AC000000009BC0000ADBB000080BB0000D83AAC
:100AD00000009C3B0080003C0000DA3B0000EE3B45
:100AE0000000D63B0000683B00000ABB008002BC4F
:100AF0000000BFBB0000F0BA0000A7BB000006BCAE
:100B00000000D8BA00009C3B0000D03B0000B63B80
:100B10000000F83B0000A13B00000A3B0000083B3E
:100B20000000E1BB000019BC00C081BC000056BC45
:100B300000805BBC00806CBC008059BC008029BC7C
:100B40000000EABB000052BB00009E3B0080803CDE
:100B500000409A3C00C08C3C0000233C00803F3C9D
:100B60000000473C0080473C0000093C0000F03A90
:100B70000000E3BB008074BC000043BC000054BC18
:100B8000008085BC00409ABC008067BC000009BCA6
:100B90000000A9BB000061BC00007EBC000087BC57
:100BA000008069BC000060BC00804ABC000064BCDE
:100BB00000802FBC000017BC0000E7BB0000B2BBE8
:100BC0000000CCBA000040B900009F3B0000B83BD9
:100BD00000005E3B0000503A0000F83A0000003987
:100BE0000000B0B90000BFBB0000B4BB00801DBC5A
:100BF000000047BC00C081BC00807ABC0000C1BBC3
:100C00000000F2BB0000EEBB0000BDBB000098BBC3
:100C10000000ADBB000000BB0000AC3A000008BB08
:100C200000001A3B00007C3B000000390000AEBB16
:100C30000000BDBB00003C3B0000963B0000A13B18
:100C400000008B3B0000603A0000603A0000283B47
:100C50000000B03900801CBC004083BC008049BC4F
:100C600000C091BC00C0B6BC00809FBC00804BBCE3
:100C7000000027BC000038BC0000CCBB0000D83A04
:100C80000000A43A0000F93B0000163C0000333C91
:100C90000000893B0000B039000080BB0000CCBAE6
:100CA00000009CBA0000C1BB00803DBC0000C1BB7D
:100CB000000078BB00009EBB0000F6BB000073BCC8
:100CC00000805DBC004098BC000061BC000080BC9E
:100CD000008077BC008081BC00007FBC00804ABCE3
:100CE0000000D8BB00008FBB00007CBB0000B23B03
:100CF0000080023C0000283C0080483C0000293C69
:100D00000000433C0000DD3B00802B3C0000313CF8
:100D10000080483C0000903B00009CBB0000BDBB35
:100D20000000C3BB00C081BC0000BCBC0040A9BC2B
:100D300000808EBC008088BC004082BC0000DDBB0F
:100D40000000FBBB0000E0BA0000903A0000E03A6F
:100D50000000B4BA0000ACBA0000A3BB00009ABB0C
:100D60000000E1BB000000BB0000903A00009C3A8C
:100D700000007C3B000090B9000028BA0000E1BBF5
:100D800000800BBC000053BC00408CBC00C0AFBC5A
:100D900000C0B8BC0040C5BC0000C4BC0040C5BC1D
:100DA00000C0CEBC00C0A1BC00008DBC00804DBC0A
:100DB00000800CBC0000EEBB0000C1BB00005ABBB1
:100DC0000000B43B0080113C0000D03B0000623BBF
:100DD0000000B63B0000403B000080B9000081BB32
:100DE000000070BB0000EEBB000056BB000018BA4C
:100DF000000040BA000080380000F0BA0000F9BBE3
:100E0000000038BC000009BC0000D4BB00804ABC14
:100E1000008068BC008048BC00803DBC00800DBCE8
:100E200000805ABC008067BC0000FBBB0000083A91
:100E300000009C3B0000D0B90000403B00005A3B42
:100E40000000403A0000223B0000A3BB00000ABCA7
:100E500000007EBC00005EBC000034BC000024BC6E
:100E600000006DBC00803DBC008001BC000005BCE2
:100E7000000043BC000045BC000098BB00008DBBD7
:100E800000004ABB0000E8BA0000903A000040BAF7
:100E90000000BCBA0000B0BB0000F6BB000009BCFB
:100EA00000009ABB0000CEBB008000BC000045BC27
:100EB0000000ACBC0040BFBC0080D3BC0040D4BC30
:100EC000008002BD006001BD0040DFBC00C0C6BCA8
:100ED00000C0B0BC00005FBC00802FBC0000D0BBD5
:100EE0000000D0390000D23B0000183C0080293CB3
:100EF0000000703C0000643C0000803C0000513C5D
:100F000000802E3C0000CC3B0000A9BB008020BC30
:100F1000000014BC000028BC000043BC008049BC99
:100F2000000023BC00009CBB000092BB0000DDBBA6
:100F300000009CBB0000D6BB00800EBC000070BC53
:100F4000008075BC00807ABC008079BC00801ABC2F
:100F500000800CBC0000BABB00008FBB000080BB4F
:100F60000000833B0000BF3B0000F83B0000FF3B5C
:100F70000000DB3B0000893B00004EBB00801DBC35
:100F8000000054BC000073BC000088BC0040B8BC2A
:100F90000080E0BC00C0C8BC004098BC00C081BC60
:100FA000008066BC000045BC000006BC008010BC90
:100FB00000806BBC008048BC00804CBC0000C3BB00
:100FC0000000B0B90000003B00005A3B000034BBF9
:100FD0000000E7BB000026BC0000B8BB000030BB2F
:100FE0000000B4BB0000BFBB000026BC000044BC36
:100FF0000000E5BB000094BB00007CBB00009FBB71
:1010000000004ABB000028BA0000E03A00002C3B78
:101010000000C43A0000B43A0000683B0000223BE4
:101020000000903A000038BB000040BB0000C3BB8A
:1010300000800FBC000031BC000052BC00803CBCF2
:10104000008038BC000026BC00801FBC0000E3BB51
:101050000000DDBB0000FBBB000040BB00001ABB72
:10106000000008BB000060BA000040BA000096BB58
:101070000000F4BB008002BC000052BC008066BCD3
:10108000000063BC00000BBC00005EBB0000F83A2F
:101090000000383B0000403B0000AB3B0000BC3B85
:1010A00000001E3B0000803900000E3B000090B99C
:1010B0000000F83A0000D4BA000090BB00800DBCDC
:1010C00000800BBC008058BC000063BC008049BCA1
:1010D000000036BC00C093BC0040A1BC008094BCA2
:1010E000008047BC0000EABB00801BBC0000ABBB1B
:1010F0000000DBBB000026BC008029BC008002BCD5
:10110000000034BB0000883A000088BA000038BBF9
:101110000000B8BB0000BDBB000092BB000083BB59
:101120000000A7BB0000C7BB0000C5BB0000F9BBA7
:10113000008012BC00801ABC000096BB000017BCE7
:1011400000000BBC0000BDBB0000BDBB000042BCEA
:10115000004089BC008067BC00805CBC004091BC42
:101160000080ACBC0000ADBC000043BC00801CBCD7
:1011700000001ABC00801EBC000019BC0000D8BAD8
:10118000000098BA0000D8BA0000A43A0000403924
:10119000000040390000D6BB0000E7BB0000C7BB21
:1011A0000000C1BB008048BC00006EBC00802EBCAB
:1011B000000006BC0000ABBB000013BC00000BBC71
:1011C0000000A9BB0000ACBA000070BA0000DA3B16
:1011D00000001A3C0000143C0000A73B0000B43A99
:1011E00000005ABB0000CBBB000025BC008003BC44
:1011F000008047BC000074BC008075BC004083BC0C
:10120000000060BC008065BC000096BB000080BB95
:101210000000ADBB0000E5BB0000C9BB0000DDBBAA
:10122000000028BC008057BC00408CBC00007FBC84
:101230000040C6BC0040DCBC0000B6BC00006DBC79
:10124000000009BC0000FDBB0000A4BA0000703A19
:101250000000943B00001A3C0080293C0000223C26
:101260000000443C00000A3C0000B03B0000263B6C
:101270000000AB3B0000803900009EBB00005EBC5C
:1012800000008EBC00C081BC008094BC00C0AFBC1C
:101290000040CFBC0080C4BC0040A1BC00C084BCE6
:1012A000004082BC008021BC0000B0390000963BA9
:1012B0000000C73B0080003C00803A3C00804A3C74
:1012C0000000093C0000183C0000273C0000C73B20
:1012D0000000183A00009FBB00003CBB000028BA89
:1012E0000000BCBA000081BB000080BA0000743B63
:1012F0000000EC3B0000B83B00800F3C0000DA3BF4
:101300000000CE3B000000B90000A7BB0000C9BB35
:10131000000037BC000028BC00806ABC00C08BBC49
:1013200000809DBC00808DBC00805DBC00803FBC07
:10133000000094BB0000403A0000283B000080B948
:1013400000000EBB0000873B0000853B0000C4BAD4
:101350000000B0B90000B6BB000022BC008067BC32
:1013600000C0B0BC00C0B7BC00C0B1BC004082BC73
:10137000000014BC0000B8BB000070BB0000CCBA79
:101380000000C73B0000603C0080653C0040833C9F
:101390000080763C0080863C0000543C0080003C8D
:1013A0000000E03A0000183A00000ABB00008FBBC2
:1013B0000000FFBB00802CBC00800DBC00802BBC5B
:1013C0000000A1BB000052BB0000F0B90000223BAE
:1013D0000000223B0000123B0000A13B0000B43B98
:1013E0000000783B0000AB3B0000AB3B0080003CC2
:1013F0000000E73B0000E13B0000443B0000B83B3D
:1014000000000A3C0000F23B0000303B0000903935
:10141000000090B9000062BB0000AEBB0000D2BB70
:1014200000009FBB000056BB0000AEBB008011BC9B
:10143000000044BC00801FBC008010BC00801DBCAC
:1014400000803ABC000046BC00008EBC008095BC09
:1014500000006FBC000094BB000018BA00002CBB59
:101460000000D8BA0000603A00008D3B0000893BC4
:101470000000813B0000A13B0000923B0000A33B29
:101480000000803A00004ABB000024BC00C081BCC0
:10149000000007BC0000ABBB0000F6BB0000D0B9E9
:1014A000000087BB0000FFBB0000FBBB0000B8BB17
:1014B0000000503A00000A3B0000FD3B00802B3C3E
:1014C0000000803C00809D3C0080903C0080683C97
:1014D0000080793C0000553C0000453C0000B63BD4
:1014E0000000000000009CBB000030BB0000B4BB4B
:1014F0000000A3BB0000AC3A000038BA00009039ED
:101500000000283A000018BA00009C3A0000623B34
:10151000000008BA000038BB000080B8000030BBF3
:10152000000090BB0000CBBB0000E5BB0000FFBB90
:10153000000092BB000092BB000000BB0000B4BBE7
:1015400000803DBC000028BC000087BB00801EBCA2
:10155000000050BC00805BBC008075BC00408ABCB1
:1015600000803DBC00803EBC00804CBC00006FBCD5
:1015700000805BBC000046BC000041BC00800BBC8E
:10158000000016BC0000F2BB0000E5BB0000F0BA92
:10159000000038BA00003C3B0000F83A00005E3B17
:1015A0000000B03B0000FB3B0000813B0000D4BAD0
:1015B0000000DBBB0000DABB00009CBB0000E5BB09
:1015C0000000E1BB0000DFBB0000A7BB0000ECBBDC
:1015D000000045BC000035BC000052BC000098BBB8
:1015E00000004EBB0000F0BB000009BC000022BCA4
:1015F000008003BC0000DABB0000F8BA0000623BC8
:1016000000008F3B0000603A0000AC3A0000463B0F
:101610000000873B00000A3B0000223B0000E03A4C
:10162000000008BB000000BB0000C43A0000603AA4
:101630000000C4BA0000AC3A0000833B000090B93F
:101640000000DBBB0000EEBB00003CBB000028BB81
:10165000008000BC000023BC000008BC00805CBC13
:10166000000042BC000070BC000054BC00803BBCC9
:10167000000052BC000060BC00806BBC00801BBC42
:101680000000A7BB000009BC00803BBC0000E1BB20
:101690000000ABBB000000BB0000F8BB000015BCA5
:1016A0000000E3BB0000AEBB0000F6BB00009ABB2D
:1016B000000016BB000068BB0000E9BB0000B6BB21
:1016C0000000BABB0000803800008BBB00005ABB92
:1016D0000000D0BB0000ACBA000040B90000883A5E
:1016E0000000D0B9000050BA00009C3A00008BBB4B
:1016F000000022BC0000E5BB000074BB0000D4BBAE
:101700000000E5BB00008BBB000056BB00001ABB0D
:1017100000800DBC00800EBC0000D8BB00005EBB8A
:10172000000098BA000096BB000008BC00802EBCE8
:1017300000006EBC00C084BC008076BC008067BC2A
:10174000000034BC008030BC000015BC000085BB2C
:101750000000603A0000803A0000E03A0000703A71
:101760000000A43A0000B039000098BB0000B2BBF2
:101770000000F8BB0000E9BB0000BABB0000DABB08
:101780000000FBBB0000DBBB000006BC00001ABC75
:10179000000090BB0000A7BB0000C5BB0000A7BBBA
:1017A00000003CBB0000A5BB008039BC000074BC3D
:1017B000008076BC008066BC008049BC000037BC5D
:1017C00000803BBC008069BC000033BC000053BCFF
:1017D000000036BC0000F8BB008029BC000009BC3A
:1017E00000802EBC000070BC004089BC008058BC4A
:1017F000000040BC000023BC0000EABB000085BB29
:101800000000D6BB000085BB0000223B0000D43A9C
:101810000000523B000018BA00005E3B00004E3B47
:101820000000383A000012BB0000703A000080BA95
:10183000000081BB00000BBC000081BB000028BA87
:1018400000002CBB000000BB00001EBB00005E3B84
:101850000000E53B0000833B00009ABB0000F0BAAB
:101860000000000000004039000068BB000028BBF9
:101870000000C5BB0000E7BB0000A3BB000090BB9D
:101880000000D8BA0000BABB000090BA0000F039DE
:101890000000BC3B0000CC3B0000943B0000CC3B74
:1018A0000000563B0000D43A000030BB000089BB6A
:1018B000000056BB0000ACBA00001EBB000026BBF7
:1018C0000000ACBA0000803A000060BA0000D4BA50
:1018D000000026BB000080BA0000CCBA000080BB2C
:1018E0000000B2BB00003CBB000000BB0000F8BA27
:1018F000000044BB0000D8BA000040BA0000123B10
:10190000000028BA00009EBB0000D4BB000096BBBC
:101910000000A3BB0000A1BB0000BCBB0000DDBBFE
:101920000000E3BB00801EBC000009BC0000EEBB51
:10193000000089BB000080B80000963B00009E3B81
:101940000000EE3B00802D3C0000CB3B0000C73B7D
:1019500000004E3B0000083A000038BA000070BB9F
:101960000000B8BB000080B800004E3B0000B83B50
:101970000080033C00009E3B0000AE3B0000183C92
:1019800000805B3C00802F3C0000DF3B0000983B68
:101990000000A13B0000283A0000C4BA000090BB40
:1019A000000008BC00803DBC00805BBC00805ABCCD
:1019B000008039BC000023BC0000C9BB00009CBBF8
:1019C000000000BB0000343B0000443B0000083A2C
:1019D0000000003B000090BA000008BB000098BA6D
:1019E0000000D8BA0000DFBB000027BC000031BCFB
:1019F000000018BC0000DFBB0000F2BB00009EBB73
:101A00000000803A0000C53B00009E3B0000873B81
:101A10000000D63B0000DB3B0000FF3B0000FD3B2D
:101A20000000403B0000803A000070BA0000A3BBF9
:101A300000000BBC00000BBC0000FFBB0000EABBB9
:101A4000000016BC00802EBC008056BC00802CBC60
:101A5000000026BC0000F8BB0000EABB000030BB61
:101A60000000873B0000D03B00004F3C00801C3C46
:101A70000000F63B0000A53B00006C3B0000F83A7C
:101A80000000903A00004039000030BB000064BB09
:101A9000000046BB000038BB0000BCBA00009C3A06
:101AA0000000C73B0000DB3B0000F23B0000523C63
:101AB0000000603C00803C3C0000F43B0000C33B65
:101AC0000000C43A00000ABB0000CBBB0000F8BB1A
:101AD0000000EABB000019BC000009BC0000D0BB3C
:101AE0000000E3BB000006BC000044BB0000C5BB17
:101AF00000005EBB00004EBB00006CBB000056BB8C
:101B00000000A9BB00003CBB00008BBB000056BC22
:101B100000803ABC00803BBC00804CBC00802FBCE5
:101B20000000BCBB000046BB00006CBB0000D8BA84
:101B3000000040B90000003B0000623B0000883A12
:101B40000000223B0000B43A000080390000E8BAEF
:101B5000000052BB00006CBB0000F8BA0000C7BB1D
:101B6000000038BC000038BC0000AEBB000087BBE2
:101B70000000A5BB00004ABB000080B9000080B88F
:101B80000000D8BA0000463B0000DD3B00001E3BD1
:101B90000000E0BA00004ABB0000C1BB00003CBB33
:101BA000000068BB000080B900008FBB00000ABBCA
:101BB000000030BB0000F0390000503A0000D43A79
:101BC0000000D03B0000053C0000183C0000353C04
:101BD0000000AB3B0000703B0000AC3A000008BBCB
:101BE0000000B039000018BA000008BA00008BBB32
:101BF000000064BB000012BB000083BB00009CBB64
:101C00000000BABB0000B8BB00007CBB0000ACBA4F
:101C10000000B43A00003C3B00001E3B0000A73B24
:101C20000000643B00001E3B0000B4BA000080BB13
:101C3000000094BB008001BC000014BC0000A5BBE8
:101C400000007CBB000085BB000080BA0000983A11
:101C50000000943B0000883A0000803B00002C3BD1
:101C60000000163B000000B9000000BB00008FBB65
:101C70000000AEBB0000BCBB000006BC000022BCE4
:101C8000000006BC008020BC0000ECBB0000DDBBF7
:101C90000000D4BA0000643B0000A53B0000683B94
:101CA0000000503A0000D83A0000563B00000A3BC2
:101CB00000005ABB0000B2BB0000B6BB000068BB0E
:101CC000000034BB000000B90000D43A0000CC3A58
:101CD00000001E3B0000983A0000C4BA000040B962
:101CE0000000BC3A0000563B0000283B0000263BA9
:101CF0000000A53B0000383B0000AD3B0000A33BCB
:101D00000000C13B0000783B0000983B0000D43A43
:101D10000000F0B9000062BB00009FBB00005EBB8A
:101D20000000C1BB0000A9BB00001EBB0000123BAD
:101D30000000833B0000463B0000903A0000883AD8
:101D4000000026BB0000A9BB0000AEBB000096BB94
:101D5000000094BB000070BB000046BB000081BBCC
:101D6000000089BB000000BB0000403A000004BB3B
:101D700000009EBB0000A7BB0000A3BB000016BB79
:101D8000000090B9000040BA0000E0BA0000B8BB03
:101D9000000080BB000096BB0000B8BB0000C5BBC4
:101DA000000023BC000044BC00803ABC0000E5BB3E
:101DB000000092BB00005ABB000000BB000012BB39
:101DC0000000B0B90000D8BA0000E8BA0000403AFC
:101DD0000000403B0000873B0000C43A0000643B29
:101DE00000008038000090BA000090B90000003B6D
:101DF0000000B23B0000523B0000403B0000263B8D
:101E00000000943B0000303B00001E3B0000383ACD
:101E10000000CCBA00009FBB0000EABB008003BCFE
:101E20000000D6BB00006CBB000040BB000070BBD4
:101E3000000016BB0000043B00003C3B0000003BE0
:101E400000000E3B0000783B0000E73B0000AB3B8E
:101E50000080003C0000BD3B0000833B0000B03927
:101E6000000062BB0000FBBB0000DDBB0000F4BB58
:101E7000000094BB00002CBB000080380000B0398B
:101E80000000A43A0000AB3B0000803B0000083B90
:101E90000000BC3A0000C43A000080B80000F0BA6C
:101EA0000000B8BB0000DABB00801BBC000007BC10
:101EB0000000D2BB0000FDBB008003BC00008FBB54
:101EC0000000DBBB0000D8BB00005EBB0000403957
:101ED0000000F83A0000223B0000053C0000E13B16
:101EE0000000263B00000039000080B90000F0BB74
:101EF00000800DBC00800BBC0000C1BB0000E5BB36
:101F000000801DBC008057BC008030BC0000D2BBEC
:101F10000000B6BB0000DFBB000044BB0000943BE8
:101F20000000293C0000C13B0000303B0000643B46
:101F30000000943B0000083B000022BB00000BBCEB
:101F400000802BBC000036BC008030BC008010BC80
:101F50000000E1BB000052BB0000D0B90000803996
:101F60000000903B0000AB3B00803F3C0080293CE0
:101F70000000353C0000373C00801A3C0000E53B87
:101F80000000083B0000CCBA0000B6BB00009CBBC0
:101F90000000B4BB0000FDBB0000D0BB000026BBAE
:101FA0000000983A0000803900004A3B0000E73BFF
:101FB00000000B3C0080033C00801F3C0000133CF1
:101FC0000000EC3B0000813B0000CCBA00000BBCE1
:101FD000000032BC00005FBC004089BC000090BC27
:101FE0000000A4BC008074BC000027BC00009FBBA4
:101FF000000081BB000022BB00005E3B0080013C72
:1020000000800D3C0000813B00001EBB00004ABB6D
:10201000000080BB000038BB0000C5BB000033BC23
:10202000000035BC00008EBC004094BC008085BC24
:10203000000070BC00804BBC008000BC00009CBB5A
:102040000000A43A0000263B0000EE3B00800B3C61
:1020500000800B3C0000043B00008038000030BBD7
:102060000000D4BB000033BC00006DBC000065BCA8
:1020700000806ABC008056BC000026BC008011BCF9
:1020800000009CBB00005ABB00001EBB00001E3BB2
:1020900000801A3C0000283C0000543C00801B3C9F
:1020A0000000F03B00002C3B000088BA000094BB0D
:1020B0000000F0BB000018BC00802FBC00801FBCDB
:1020C000000051BC00802BBC000008BC0000F6BB27
:1020D000000004BB000080380000C43A0000C73B89
:1020E0000000053C0080203C0000DD3B0000F43B8C
:1020F0000000803A000008BB0000B6BB0000CEBB69
:102100000000F9BB008003BC000018BC008001BCCB
:102110000000DFBB000070BB0000BCBA0000163B33
:102120000000A93B0000983A0000043B0000703B0F
:102130000000523B000080BA000070BB00009ABB58
:102140000000F2BB008057BC00C08BBC0000ACBCE0
:10215000008096BC008059BC008059BC000038BC8F
:10216000000022BB0000A73B0000E13B0000B03BA9
:102170000000C73B0000DD3B0000133C0080013C39
:102180000000463B000070BA000000BB000096BB98
:102190000000CEBB0000CEBB0000E3BB000005BCCE
:1021A0000000D2BB00009EBB000000BB00000E3B45
:1021B0000000F23B00001A3C00802C3C0000373C41
:1021C0000080213C0000C33B0000813B000008BAB6
:1021D000000044BB0000E7BB000007BC000014BCCB
:1021E00000007DBC00006FBC00806CBC00804CBC5B
:1021F00000000BBC0000F2BB0000CBBB000088BAA3
:102200000000BC3A0000683B00008B3B00006C3BC8
:102210000000983A000070BA000089BB008003BC3F
:102220000000E5BB0000E9BB0000F4BB000014BCEB
:102230000000A9BB000092BB00009CBB000016BBC5
:102240000000383A00006C3B0000EE3B0000043C0C
:102250000000223C0000313C0000F83B0000D23B73
:102260000000B0390000A7BB00802EBC00804BBC32
:10227000000037BC00801EBC000029BC0000DBBB96
:102280000000A3BB000018BA0000163B00009F3BF3
:102290000000C53B0000FB3B0000073C00800D3CFC
:1022A0000000173C00800F3C0000143C0000743B11
:1022B0000000343B000040390000AEBB0000C3BB4F
:1022C0000000DDBB0000C7BB00008DBB00005ABB97
:1022D00000001ABB0000683B0000A53B0000943BD7
:1022E00000004A3B0000803B00001E3B0000183A03
:1022F0000000F8BA0000403A000080B8000004BBBB
:10230000000046BB000098BA0000A7BB000098BBC5
:1023100000003CBB000050BA0000F0BA000080B9D9
:102320000000603A000090B90000F0390000383B2E
:10233000000000000000D43A000038BA0000B4BA2F
:102340000000C5BB0000B4BB00002CBB0000D8BA25
:102350000000F4BB008021BC000035BC0000F6BBCF
:1023600000000ABC000004BC00004EBB0000003BA3
:1023700000007C3B00008F3B00009C3A0000003BCB
:10238000000028BA000004BB000050BA0000A4BA44
:10239000000080390000F0B90000ABBB0000B8BB02
:1023A00000009EBB0000D4BB000092BB000056BBE7
:1023B000000004BB0000D0390000403B0000B23BED
:1023C0000000AE3B0000DA3B0000873B0000283AEB
:1023D0000000263B0000703A000000B900001EBB60
:1023E000000088BA0000F0B9000090BA000018BAE6
:1023F00000009C3A0000BC3A0000283B0000263B4D
:102400000000683B000000390000D83A0000703A34
:102410000000803A0000853B0000503A00006CBB91
:102420000000F0BB0000FDBB0000F0BB00800CBC56
:10243000000009BC000081BB000090B90000E8BAB0
:1024400000000EBB000038BA000000BB000022BB39
:10245000000087BB0000B4BB0000F8BB00801DBCBF
:10246000008000BC000017BC000018BC00009FBB2F
:10247000000074BB00008DBB0000D0B90000D8BACA
:1024800000001E3B0000D0390000883A0000223BCB
:102490000000963B00008039000040BA0000DBBB22
:1024A000000034BB000034BB0000DFBB00800CBC6C
:1024B000008002BC0000CEBB0000D4BB0000F0BB1B
:1024C000008011BC000017BC000009BC0000C5BBA7
:1024D000000096BB000022BB000028BB000098BA99
:1024E0000000F8BA0000BABB000098BB000018BC9E
:1024F000000005BC0000D6BB000052BB00000ABBB8
:10250000000000B90000283A0000D43A00004E3B19
:102510000000783B0000303B00004A3B000038BA26
:10252000000004BB0000BCBA000000390000BC3A47
:1025300000002CBB00005EBB00009ABB0000C9BBC2
:102540000000BDBB000029BC000025BC0000E3BBAF
:102550000000CBBB0000DDBB000052BB0000B4BAE2
:102560000000B4BA000028BB0000CEBB000064BB72
:102570000000ECBB0000C3BB00009CBB0000B4BB70
:10258000000052BB0000C1BB0000CEBB0000B2BBCC
:102590000000ADBB0000D4BA0000043B0000083AC4
:1025A0000000B0B90000F0B90000003B00004A3B59
:1025B0000000883A000080390000403900006CBB00
:1025C000000052BB0000BCBB0000FFBB00800CBC85
:1025D000000055BC00007DBC008067BC008056BC7C
:1025E000008048BC00802FBC000017BC00800BBCE2
:1025F000000062BB000022BB000046BB0000C7BB5E
:102600000000A1BB000090BB000090BB00803FBC5D
:10261000008057BC000072BC000017BC0000B2BBB9
:10262000000068BB0000C9BB000056BB000089BBAE
:102630000000B4BA0000A1BB000078BB0000A7BB3B
:102640000000C7BB0000383A0000383B0000563B92
:10265000000085BB000008BB0000083A0000F0B98C
:102660000000E9BB00802EBC0000A5BB000028BB19
:102670000000803A000098BB00800DBC0000C7BB82
:102680000000F0BA0000F8BA0000F2BB008001BC04
:102690000000CCBB0000F8BA00009C3B000026BB49
:1026A000000018BC00801DBC000014BC00001EBB54
:1026B000008029BC000074BC00802FBC0000BFBBA0
:1026C000000028BA00004ABB0000403A00000000A9
:1026D0000000523B00001A3B0000313C0000F43B7C
:1026E000000060BA000038BB0000BC3A0000E73BC5
:1026F0000000D43A008038BC0000C3BB0000503A50
:10270000000000B900009FBB000024BC0000E1BB3A
:102710000000B2BB0000E7BB00801BBC00801CBCFB
:10272000000046BB000008BB008000BC0000D6BB18
:102730000000A9BB0000223B0000A33B000004BB3B
:102740000000303B0000623B00009C3A0000A43ACD
:10275000000070BA0000A5BB00009EBB000070BA6C
:102760000000F63B0000243C0000903900000ABB4A
:102770000000303B00004E3B000090B90000B2BBAF
:1027800000801BBC000029BC000080B900005A3B3F
:10279000000028BB000042BC008059BC0000A3BB65
:1027A0000000F8BA000098BB0000C9BB0000A3BB42
:1027B0000000873B0000C53B0000D43A0000000049
:1027C00000003C3B0000DB3B00000A3B0000F83A05
:1027D0000000F0390000E8BA000060BA0000603A7A
:1027E00000009CBA0000E0BA000022BB000038BA2A
:1027F00000003CBB00001ABB00003C3B0000E83A74
:102800000000603A00004A3B0000083B00008038AE
:102810000000883A0000ADBB000090BA000080B80C
:102820000000F0390000D0B90000F0BB0000DDBBB3
:1028300000009CBB000083BB000080B8000022BBEE
:102840000000A9BB00008BBB00003C3B0080033CA8
:102850000000CB3B00004039000034BB00005EBBF1
:1028600000009C3A0000803A0000DDBB000035BC4F
:10287000000029BC00007CBB000008BA000028BC96
:10288000000019BC000046BB0000D0B9000050BADF
:1028900000008BBB0000F0BB000008BB0000383A12
:1028A0000000703A00000EBB00008DBB0000D4BADF
:1028B000000038BB0000BCBB000012BB0000283B7E
:1028C00000004E3B00009EBB00801ABC0000F0BB25
:1028D000000046BC00804CBC000037BC008002BC3D
:1028E000000038BA000038BA00008DBB0000B8BB49
:1028F000000070BB0000BCBA00009CBA0000B8BB6E
:10290000000000B90000CE3B0000A93B0000803968
:1029100000004A3B0000253C0000BF3B000078BBA4
:10292000000096BB0000B6BB0000603A000056BB3A
:102930000000F4BB000098BA0000C93B0000B63BA1
:1029400000002C3B0000303B0000963B0000403B69
:1029500000003CBB00003CBB00005EBB00007CBB39
:10296000000078BB000034BB000030BB0000CC3A54
:10297000000000BB0000D8BB008001BC000044BBCD
:10298000000078BB000090390000D4BA00008FBB73
:102990000000FFBB000034BC000004BC0000BFBB53
:1029A0000000C3BB00008BBB000080B80000903A61
:1029B0000000283A000004BB0000C5BB0000923BA9
:1029C0000000983B0000803A0000D2BB008074BC3D
:1029D000004083BC000088BC00807ABC00804EBCF4
:1029E00000008DBC000040BC0000DABB000012BB40
:1029F000000040390000303B0000C13B00801E3C1D
:102A00000000563C0080103C00005E3B0000D63BBE
:102A10000080123C0000363C0000A93B00008F3BC8
:102A20000000A33B0000B83B00004A3B000080BA16
:102A300000000ABC00800DBC00001ABC008012BC63
:102A400000801EBC008010BC000007BC000090BBD2
:102A50000000603A00004A3B000018BA000089BB41
:102A60000000C5BB000090BB0000B4BA000062BB10
:102A70000000B4BB0000B2BB0000B4BA000081BBD0
:102A80000000F4BB000042BC00803FBC000015BC4D
:102A9000000038BC0000FBBB00009ABB0000FDBB7F
:102AA000008003BC000006BC000000000000903B5A
:102AB000000040B90000ACBA00000000000040B9BE
:102AC000000028BB000056BB000064BB000028BA11
:102AD0000000043B000030BB000040BB0000BFBB57
:102AE000000012BB0000E03A00000000000085BBBF
:102AF000000022BB000016BB0000AC3A000064BB23
:102B0000000024BC0000F4BB0000FDBB0000D2BBF1
:102B10000000ADBB0000A1BB0000D8BA0000083A1D
:102B20000000343B00001A3C0000503C0000413CD7
:102B30000000853B000004BB0000283B000000397A
:102B400000801FBC000053BC000027BC0000A1BBDC
:102B50000000A3BB0000CBBB0000DBBB000085BBBB
:102B600000008FBB0000D6BB0000DDBB000080383A
:102B7000000022BC000094BB00804EBC00800DBC55
:102B8000000018BC00001ABC008048BC0000BCBBA0
:102B900000009CBB0000383B00001E3B000004BB53
:102BA0000000C9BB000098BB00001ABB0000D4BBEA
:102BB0000000E5BB0000463B00001A3B0000BDBB27
:102BC0000000BFBB0000B4BB0000A5BB000030BBD1
:102BD0000000E8BA000074BB00000ABC000080BB23
:102BE000000018BA00009EBB008077BC00000ABC41
:102BF0000000E3BB0000043B0000A4BA0000BDBB22
:102C000000004EBB00009F3B00008D3B00004E3B90
:102C1000000008BA00000000000078BB00801CBC67
:102C2000000022BC0000DABB00801EBC004089BC52
:102C3000000027BC00800DBC00004EBB000080BA25
:102C4000000028BA0000343B0000473C0000C93CAB
:102C500000C08B3C0000FB3B0000813B0000563B6A
:102C60000000A9BB0000D2BB00805ABC000013BC0E
:102C7000000014BC000080BB0000BCBA000090B98A
:102C8000000040BA000056BB0000003B0000C13B02
:102C90000000063C000022BB00005ABB0000EEBB57
:102CA00000005EBB000056BB000056BC00800CBCA0
:102CB00000800BBC0000A5BB00002CBB000081BB4A
:102CC00000009CBA0000283B000098BA0000D4BA6B
:102CD0000000E0BA000022BB0000603A000034BBF4
:102CE000000087BB000000B90000B2BB0000FBBBC6
:102CF000000005BC0000C5BB000044BB00009CBB3D
:102D00000000283A0000D0B90000223B0000CB3B75
:102D10000000AE3B0000F83B0000F83A0000AC3A7F
:102D20000000F0BA000060BA0000A7BB0000E7BBDB
:102D3000008001BC00009CBA000090B90000083B74
:102D40000000CEBB00804BBC00000ABC008011BC60
:102D5000000094BB000083BB0000833B00001A3BD3
:102D600000008038000080B80000F03A0000AC3A63
:102D70000000463B0000C13B0000293C0080563C5F
:102D80000000903A000038BB000029BC0000C3BB23
:102D900000008FBB00009EBB000038BB000064BB7E
:102DA0000000343B0000623B00801D3C0000733C8F
:102DB00000C0993C00007C3C0080953C00C0993CE0
:102DC0000080203C0000CC3A0000A1BB000015BCF4
:102DD00000801CBC000074BC008039BC00801ABCA0
:102DE000000044BB0000E8BA0000F83A0000C43A12
:102DF0000000083B00008DBB00005EBB000094BBE0
:102E0000000040BA0000ECBB000007BC000040BC62
:102E1000000022BC0000ABBB000046BC000028BC88
:102E200000804BBC004091BC000065BC0000ECBBC6
:102E3000000088BA00008FBB000085BB0000DBBB30
:102E400000008DBB000040B90000C9BB000040BCC1
:102E5000008001BC00803BBC000004BC00009ABBA9
:102E600000009FBB00009FBB000052BB0000383B2E
:102E70000000073C0000093C00000A3B0000BCBB0E
:102E80000000CBBB00000EBB0000443B0000893BB0
:102E90000000743B0000D03B0000463B0000463B76
:102EA00000005E3B00008D3B0000093C0000A33B9E
:102EB00000001E3B0000343B0000623B000008BAEB
:102EC000000000BB0000AEBB0000BDBB0000503ADC
:102ED000000028BB000070BA0000C43A000050BADD
:102EE00000801D3C0000153C0000F03A00002CBBA7
:102EF000000040BB0000A5BB008076BC00009EBC6B
:102F00000080B5BC0080A3BC00C092BC00801CBC8B
:102F1000008011BC0000A4BA0000D4BA0000E8BAD6
:102F2000000074BB0000B2BB000027BC000013BC53
:102F300000004FBC00C081BC000072BC00808EBC91
:102F400000C099BC000041BC008069BC000026BCE8
:102F500000001ABB0000283B0000703A000056BB7E
:102F60000000CBBB0000CCBB0000E0BA0000D8BA28
:102F7000000038BB0000DABB00801BBC0000F8BBBF
:102F8000008000BC008059BC000068BB000080B914
:102F90000080023C0000803C0000513C00801A3C54
:102FA00000802A3C0000283C0000173C0000BC3A8E
:102FB00000008FBB0000ABBB00802FBC000037BC03
:102FC00000801CBC0000E8BA000040BA0000F83ADB
:102FD0000000943B0000473C0000453C0000863C5C
:102FE0000000703C0000413C0080383C0000083B81
:102FF0000000D83A0000BC3A0000D43A00003C3B44
:103000000000983B0000683B0000703B0000563B0E
:103010000000DD3B0000A53B0000DA3B0000C53BA3
:103020000000E93B00001ABB00000BBC008058BC4C
:103030000000A6BC0040B7BC00805DBC000070BCB6
:103040000000E1BB00008FBB0000ECBB000092BBA6
:103050000000A9BB0000F9BB00800BBC000052BC03
:10306000008048BC00803ABC000037BC0000B4BB04
:103070000000ADBB0000ECBB00800DBC000046BBF7
:1030800000000A3B0000A43A00008F3B00009E3B7A
:103090000000263B0000D4BA000081BB00009CBBAE
:1030A0000000E7BB0000CEBB000028BC00800DBCC8
:1030B000000000BB0000F03B0000FB3B0000563B63
:1030C0000000B63B00801B3C00006D3C00803A3C99
:1030D0000000163C0080593C0080803C0000093C08
:1030E00000009E3B0000053C0000AE3B0000083A9B
:1030F00000009CBB00802CBC000090B9000040BACE
:1031000000003CBB0000503A0000B4BA0000383A5E
:103110000000C73B00803F3C00806A3C0080883C48
:103120000080873C00805B3C0000383C00800B3C0A
:103130000000083B0000ECBB008056BC0000CBBB8D
:10314000000007BC000036BC00803EBC000045BC4F
:10315000008039BC000046BC000027BC00802DBCAC
:10316000000004BC000016BC008003BC0000EABBE9
:1031700000800CBC00004EBB000064BB000090BB94
:103180000000903A000083BB000080BC0040A7BC58
:10319000008058BC008056BC00806BBC000056BC50
:1031A0000000A7BB0000F03B00801A3C00800F3CF1
:1031B0000000683B00004A3B0000FF3B0000CC3BA6
:1031C0000000803900008DBB00803BBC00802DBC1E
:1031D000008080BC0040A0BC00C0BDBC0000ABBCF7
:1031E000000087BC00000BBC000038BA0000B63BF2
:1031F0000000643B0080203C00802E3C00004F3CDF
:103200000080293C0000DD3B0000803B00001A3BB1
:103210000000903A0000BABB0000F6BB0000FDBB06
:10322000000094BB000083BB0000C9BB0000E1BBF1
:1032300000005EBB000078BB0000BC3A0000443CCC
:1032400000807A3C00803D3C0000E33B0000A33B53
:103250000000B039000034BB008011BC0000C9BBC5
:103260000000083B0000B0390000D83A0000603A86
:10327000000022BB0000A4BA0000C33B0000DA3B00
:103280000000893B0000D83A0000F0BA0000B0BB53
:10329000000019BC008067BC00C093BC00009FBC4C
:1032A000000095BC000074BC000014BC00803CBC55
:1032B0000000AEBB000080B80000223B000040BA16
:1032C0000000A9BB000024BC000036BC000031BCDB
:1032D000000017BC000028BC00800FBC0000FDBB34
:1032E00000801DBC000028BC0000E3BB00002CBB1C
:1032F000000080B90000D0B90000043B0000083A8B
:103300000000D8BA000080390000B63B0000A33BA3
:103310000000803A000026BB000006BC0000E9BBAC
:10332000000089BB00001ABC000005BC00801EBC68
:103330000000083A0000923B0000F23B0000263CEF
:1033400000802A3C00804A3C0000633C0080123C24
:103350000000D83A000050BA000080BA000089BBD3
:1033600000000BBC00800FBC000018BC000056BB66
:10337000000038BA0000183A0000C43A0000983B38
:103380000000C93B00008D3B0000503A0000B2BB7A
:103390000000F9BB00804ABC000017BC0000B4BBB1
:1033A0000000C3BB000030BB00001A3B0000F03A35
:1033B00000004ABB0000E7BB000042BC000028BC84
:1033C000008047BC000047BC000080BC000096BCE9
:1033D000000081BC000060BC00806CBC000080BCB0
:1033E0000000FFBB0000AC3A0000F0BA000046BB92
:1033F00000800EBC0000F4BB0000BDBB008038BCE8
:10340000008066BC0040A0BC0000C3BC0080ABBC18
:103410000040B7BC0080A6BC008095BC008074BC96
:10342000000043BC000022BC000029BC008021BC7D
:103430000000F9BB0000E9BB00000A3B00801C3C17
:1034400000803D3C0080003C0000EE3B00008B3BD8
:1034500000000E3B008003BC000070BC008075BC07
:1034600000C089BC000015BC0000F4BB0000CCBA51
:10347000000080B800004E3B0000BF3B0000F03B66
:103480000000EC3B0000083B0000F6BB00801FBCC6
:1034900000800FBC0000D0BB000078BB0000C5BBA3
:1034A000000038BB000080B90000503A0000643BC7
:1034B0000000903B0000A33B0000303B0000293C93
:1034C0000000C13B0000873B000004BB008000BC43
:1034D00000005ABB0000B8BB008021BC00801BBCB0
:1034E000000034BC000051BC00005FBC008056BC32
:1034F000008088BC008059BC00C08BBC00C089BC67
:10350000000041BC0000DBBB0000CEBB0000C9BB1B
:10351000000038BB000000B900002CBB0000E7BB76
:103520000000E9BB00800DBC000018BC008058BC46
:10353000008065BC00C0A8BC000096BC00007DBC3B
:10354000000071BC00C08ABC00C0AFBC00808EBC53
:1035500000005FBC008049BC00804ABC000008BC81
:10356000000044BB000040B90000403900004EBBE1
:1035700000006CBB00008DBB0000A9BB000087BB36
:103580000000E8BA0000A43A0000ACBA000070BB2A
:10359000000038BB0000D0B9000034BB0000283A5E
:1035A0000000BF3B00804B3C0080493C0000613C78
:1035B0000080773C00804A3C0000343C0080383C6E
:1035C0000000F03B00001E3B0000CCBA0000BCBB7A
:1035D00000802BBC008002BC000046BB00004E3BBC
:1035E0000000403A0000F8BA000004BB000090BAA6
:1035F0000000F0BA000040BA000070BA0000083BBA
:10360000000000000000C4BA0000B03900001ABB7E
:10361000008000BC000025BC008039BC0000FFBB5E
:1036200000802DBC000027BC0000EEBB00009EBB4C
:10363000000092BB000081BB0000E9BB000032BC6F
:1036400000802CBC00802EBC0000B0BB000018BC69
:1036500000803BBC000054BC00007EBC00809CBCD1
:10366000008058BC000036BC0000FBBB000038BB2B
:10367000000046BB0000E83A000080B900009EBB95
:103680000000A3BB00000ABB000008BB00003CBB5D
:10369000000019BC0000ADBB000012BB0000E8BA7E
:1036A0000000343B0000163C0000623C0000263C59
:1036B0000000D83B0000C53B0000783B000000BB89
:1036C0000000BABB000092BB0000D8BA000090BA5C
:1036D0000000F0BA0000F83A0000F0B90000DBBBCF
:1036E000008012BC0000C1BB000078BB0000403964
:1036F0000000BCBA00003CBB000090BB00004EBB09
:10370000000022BB00008BBB000028BB0000E83A91
:103710000080293C0000133C00800D3C0000A93BC8
:103720000000E33B0000EC3B0000BD3B00000A3B17
:10373000000092BB0000DBBB00009EBB000064BB2E
:103740000000903A0000D0390000A4BA000090BAFE
:10375000000070BA0000383A0000163B0000803AC2
:1037600000008D3B0000FD3B0000CC3B0000B4BAE4
:103770000000F2BB008074BC000090BC008090BCD4
:103780000040A7BC00C0B6BC00808DBC00005FBC80
:10379000000062BC0000A4BC00009CBC00005FBC38
:1037A00000008FBB0000183A0000503A0000F039CA
:1037B0000000EE3B0000BF3B0000A33B0000AC3A22
:1037C0000000ACBA000008BB0000BCBB0000EABBB4
:1037D0000000E7BB0000C9BB000090B900003C3B03
:1037E0000000E83A0000813B0000563B0000563BD9
:1037F0000000003B00006C3B0000A13B0000403B90
:1038000000004039000088BA0000A3BB0000A7BB3D
:10381000000019BC0000CCBB0000FBBB00800EBC4C
:1038200000801BBC008038BC008066BC008039BCB6
:10383000008010BC0000B4BB000088BA00003CBB94
:103840000000F0390000563B0000273C0080293C76
:1038500000804B3C00805B3C0080883C0080663CE4
:103860000000433C00801E3C0000E93B00006C3B34
:10387000000040BA00004EBB0000D8BA0000ACBA4D
:10388000000008BB000080BA000096BB0000B8BB77
:10389000000083BB00009EBB0000BDBB0000BABBA4
:1038A000000030BB000008BB000012BB000026BCBB
:1038B00000006DBC008078BC008068BC000032BC99
:1038C00000801FBC000004BC000098BB0000083B47
:1038D0000000783B0000703B00009CBA000040BA3A
:1038E000000070BB000038BC000038BC0000CCBB3E
:1038F000000089BB0000C4BA0000B2BB0000C3BB1B
:10390000000038BB0000ACBA0000703A0000AB3BCE
:103910000080113C0000603C0080593C0080393C34
:103920000000163C0000303B000070BA0000A9BB4C
:103930000000D0BB0000D8BB0000C7BB0000E8BA45
:103940000000F83A0000F63B0000EE3B0000983B18
:103950000000383B0000803B00002C3B0000F0BA28
:10396000000089BB000083BB0000C1BB0000A5BBF9
:10397000008003BC008003BC00800EBC000007BCBC
:1039800000000BBC0000CEBB000060BA0000B43ADF
:103990000000D23B0000153C0000F63B00001A3C42
:1039A0000000173C0000F83B0000C13B0000BD3B9D
:1039B00000801C3C0080103C0000D83B00008B3B8A
:1039C0000000923B0000CE3B0000D23B00001A3BBF
:1039D0000000B0390000AEBB0000EABB000024BC10
:1039E000000015BC000004BC00001ABC0000DFBBD6
:1039F0000000BDBB0000B2BB000030BB000080BABD
:103A00000000B0390000A53B0000833B00004A3BAA
:103A10000000F0390000DDBB008011BC000005BCD7
:103A2000000006BC0000ECBB00803FBC000028BCCE
:103A30000000CEBB000008BC000065BC008079BC63
:103A4000000028BC00007CBB000018BA0000463B08
:103A500000008038000050BA0000A9BB0000ADBBD8
:103A60000000B0BB008002BC000036BC00800CBC73
:103A70000000C5BB00009ABB0000BDBB000000B940
:103A80000000783B0000CC3B0000703B0000E83AAF
:103A9000000090B900008DBB0000D8BB000054BCF2
:103AA000008067BC000055BC000015BC0000FFBBD7
:103AB000000052BB00000ABB00000EBB000090BA21
:103AC00000005EBB000089BB000018BA0000083B84
:103AD00000003C3B0000D43A000038BB0000A7BB0C
:103AE0000000D4BA00001EBB000085BB0000A3BBD1
:103AF000000040B900007C3B0000A53B0000403ABC
:103B0000000016BB000085BB0000DDBB000027BC29
:103B1000008068BC004094BC004089BC000062BCCE
:103B2000000015BC0000C7BB0000C5BB0000B6BB51
:103B3000000038BB0000263B0000AE3B00008D3B80
:103B400000001A3B000088BA0000E8BA00001EBB63
:103B50000000B0BB0000E3BB0000DDBB00006CBB9D
:103B6000000068BB00008FBB0000ADBB000056BB6F
:103B70000000A3BB000098BA0000BCBA0000D4BA91
:103B800000000000000000000000283A000000399A
:103B90000000083B0000C53B00005E3B000050BA3F
:103BA0000000E5BB000016BC000026BC000033BCD2
:103BB000000009BC000085BB0000523B00008D3BAB
:103BC00000009C3B0000E93B0000343C0080293CA5
:103BD0000080773C0000433C0000F23B0000523B79
:103BE0000000E8BA0000D6BB000023BC00801FBC68
:103BF00000004FBC008067BC000060BC000025BC1A
:103C000000009CBB00005ABB000090BA0000BCBA88
:103C100000000039000000B9000052BB000098BA53
:103C20000000903A000094BB0000E9BB00800CBC8F
:103C300000801BBC00802CBC000028BC000038BCED
:103C4000000046BC00804EBC000043BC00006EBCBF
:103C5000008076BC00C082BC000026BC00000EBB09
:103C60000000F83A0000463B0000B0390000F0398F
:103C700000009039000050BA00001EBB00001A3B43
:103C800000008038000040B9008003BC0000E9BBA0
:103C900000009FBB0000A3BB0000D4BA00000A3B99
:103CA0000000223B00003CBB0000BCBB0000FDBB91
:103CB000000092BB0000283A0000813B00008D3BD1
:103CC0000000903B0000503A0000B0B90000BA3B41
:103CD0000000253C00803A3C0000A33B0000CCBB28
:103CE00000006DBC00009FBC008088BC000043BC8D
:103CF000008011BC000029BC0000CCBB000028BB28
:103D00000000A53B00804C3C0080673C00C0823C2A
:103D100000802F3C0000043B0000F0BB008048BC4A
:103D2000008038BC000031BC00802ABC000043BCCD
:103D300000803CBC000025BC0000A5BB0000C1BB4E
:103D4000000022BB0000D83A0000943B0000303B4A
:103D50000000B039000038BA0000F03900004039E6
:103D60000000003B00005A3B0000B0B90000F8BA68
:103D7000000080BA0000D8BA0000F039000074BB1F
:103D8000008000BC000029BC00000BBC000009BC86
:103D9000000013BC0000BDBB000000000000B039F3
:103DA000000022BB000080B90000643B0000063C1C
:103DB00000800E3C00005A3B000098BA0000DDBBBA
:103DC00000805ABC000056BC00801ABC0000FBBB3F
:103DD000008012BC00801FBC00800DBC00800BBCAA
:103DE0000000D4BB0000903A0000503A000028BB0D
:103DF0000000D0BB0000DBBB000046BB0000683BFE
:103E00000000B23B0000AE3B0000703B000088BAEF
:103E1000000046BB0000A7BB00000BBC0000D4BBE9
:103E20000000D4BA0000903A0000BC3A00000E3BFB
:103E300000001A3B0000F03B00805B3C00007D3C32
:103E40000080693C0080493C0000743B00008FBB4F
:103E5000008029BC000055BC00006DBC000047BCC0
:103E60000000F8BB0000F6BB00008DBB000040392D
:103E70000000963B0000DA3B0000D23B0000403AD5
:103E8000000040BB0000AEBB000018BC000073BCCB
:103E900000C089BC000046BC0000B2BB0000803BF3
:103EA00000008F3B000040B90000C4BA00003CBBDA
:103EB0000000DABB00005ABB0000C9BB008029BC6F
:103EC000004082BC00408ABC00006EBC00801BBC6D
:103ED0000000EABB000034BB00003C3B0000C93BD3
:103EE0000000093C00803E3C00001A3C0000313CD0
:103EF0000000043C0000503A00001EBB0000CBBB99
:103F00000000B0BB000090B9000038BA0000C43A0D
:103F10000000223B0000EC3B0000783B0000A93B86
:103F200000801D3C0000093C00001A3B000092BBD1
:103F30000000E9BB000080390000D0B9000044BB9C
:103F40000000CBBB000015BC00000BBC000074BB24
:103F50000000A7BB00002CBB000004BB00004ABB54
:103F600000009EBB008003BC000024BC000044BCD9
:103F700000802BBC00001ABC0000B6BB000034BBA4
:103F800000001EBB0000C4BA0000B0B90000C5BBF1
:103F90000000D2BB000096BB000074BB000089BBD0
:103FA000000080B80000A13B00803F3C00804C3CFA
:103FB0000080013C0000463B000080BA000068BB66
:103FC000000046BB0000B0390000743B0000AD3B70
:103FD00000008F3B00801D3C00808F3C0000B53C02
:103FE0000080973C00801E3C0000303B0000803A7F
:103FF0000000000000000ABB0000A1BB000033BCB1
:10400000000070BC000029BC00009CBB00009EBBEF
:1040100000000BBC000083BB00009A3B0000533C37
:104020000000353C0000163C0000283B000094BB1B
:10403000000027BC00C083BC000070BC000071BC45
:1040400000800FBC00006CBB000040BB000080384B
:104050000000C43A0000403A0000983A000056BB05
:1040600000008FBB00008BBB0000B2BB00002CBB6C
:10407000000000B90000D23B00009F3B00009C3BC9
:104080000000F83B0000E93B0000E73B0000E73B95
:104090000000BF3B0000883A00800DBC00803CBCA3
:1040A000008067BC000065BC00007CBC00806BBC6D
:1040B00000803CBC000098BB0000CC3A0000F63BFE
:1040C0000000FB3B00801D3C0080573C0000333C5F
:1040D0000000703B000034BB0000F0BB000053BC8C
:1040E000004085BC008075BC000053BC000053BC80
:1040F000000031BC00804BBC000005BC00005ABB76
:10410000000080390000AE3B0000B03B0000EE3BF9
:104110000000463B0000F0BA00004ABB0000AC3A89
:104120000000C93B0000DB3B000087BB000015BC62
:1041300000009CBA0000FB3B00803F3C0000E13BDC
:10414000000000390000D0BB00008BBB000080B82D
:104150000000E83A0000B0BB0000BFBB000000391F
:104160000000813B0000833B000028BB0000C3BB74
:10417000000007BC0000D6BB0000FBBB00802CBCCD
:1041800000004FBC00801EBC0000383A0000C73B56
:104190000000403B000052BB0000B8BB0000B4BAB6
:1041A0000000C13B0000093C0000CE3B0000083A83
:1041B000000030BB000000B90000CC3A0000383AE3
:1041C000000070BA000030BB00009CBA000070BA5A
:1041D000000038BB000050BC000087BC00803FBC22
:1041E000000051BC000053BC008069BC000044BC0E
:1041F0000000C5BB000000000000AD3B0080213C7A
:1042000000806B3C0080773C00803B3C00006C3BB6
:10421000000038BA0000C4BA00000BBC00807ABCB1
:104220000080BABC00C090BC008079BC000035BCE6
:104230000000AEBB0000403A0000403A0000983A4F
:104240000000043B0000873B0000803B0000803AF8
:104250000000123B0000403B0000A43A0000883AF6
:1042600000000ABB0000ACBA0000A33B0000C33B47
:104270000080383C00801E3C0000BA3B00000A3B36
:1042800000008FBB00009ABB000029BC000074BC7A
:10429000004099BC004089BC000037BC000013BC42
:1042A000000038BC00801FBC0000B8BB0000883A8A
:1042B000000008BA0000B4BB0000BCBB00006CBB2F
:1042C00000002CBB0000E9BB000022BC00006CBB5E
:1042D0000000303B00800F3C0000DB3B0000803AD8
:1042E0000000F8BA0000BA3B00802B3C0000743C90
:1042F0000080103C0000BC3A000018BA000000B971
:104300000000D4BA0000E5BB000074BC00006DBC26
:10431000000033BC00801CBC00804EBC00C082BCCE
:104320000000AEBC0040A0BC00007CBC00802ABCE9
:1043300000803BBC008065BC000005BC00000ABBDF
:104340000000603A00009CBA00001EBB00001ABBCF
:1043500000006CBB0000FDBB000051BC00801DBC18
:104360000000B8BB000056BB0000183A0000403BFC
:104370000000B43A000080B80000F0390000403A74
:1043800000001A3B0000B63B0000A33B0000A53B29
:104390000000703A00003C3B0000883A00009CBAE4
:1043A0000000F0BA000040B900001ABB000052BB88
:1043B000000070BB0000B0BB000038BA0000A33B97
:1043C0000000DD3B00007C3B0000F83A0000A53B0C
:1043D00000001A3C00003C3B0000D4BB000073BC52
:1043E00000805BBC000056BC00C098BC00809CBC38
:1043F000008097BC00007FBC00804CBC008003BCE8
:10440000000070BB00009CBA00009F3B00802B3C6A
:104410000080303C0000BC3B000080BA000008BABD
:104420000000873B0000163C0080113C0000043B6C
:104430000000E0BA0000743B0080013C0000D03B6B
:10444000000080390000B8BB00800EBC000046BCF4
:10445000000055BC000086BC0000ABBC00808FBCD7
:10446000000061BC008003BC00001ABC00803ABCA4
:10447000000033BC000081BC00806ABC0000503CDE
:1044800000007CBB0000D4BB00C0BDBC0000D63B1C
:1044900000806BBC0000603A000006BC0000AB3B33
:1044A000000068BB0000AD3B0000D03B0080A33C97
:1044B0000000B8BB0000B0B90000CBBB000046BB99
:1044C00000C0D5BC0000FFBB00809DBC008074BC58
:1044D0000000893B0000F43B00004FBC0040D6BC0C
:1044E0000080753C0000703B0000AE3B000080B8CF
:1044F0000000833B00802C3C000030BB008094BC5B
:104500000080563C0000343C00C0FCBC000052BBA4
:104510000040BF3C000087BB00009FBB00009CBA6E
:1045200000008DBB000046BB00801CBC00007CBBB3
:104530000000983B000027BC0040B0BC00C0C6BCD7
:10454000000081BC000074BC0000DF3B00C0933C55
:104550000000F43B0040A23C0000EC3B00804E3CDD
:1045600000006EBC00803CBC008085BC0000633C49
:104570000040B73C0000063C0000E83A0000A13BC8
:104580000000F23B00804C3C00801D3C00803DBCA4
:1045900000004FBC00805ABC000074BC0080B4BC5A
:1045A0000080DBBC00E01FBD00801FBC00E005BD3B
:1045B0000080F7BC0040E4BC0000AEBB00801B3CA8
:1045C0000080CA3C00802C3C0000523B0080AE3C86
:1045D00000803D3C00C0903C00004E3B0000BA3BD8
:1045E0000040A93C0000733C0080753C00009CBA70
:1045F0000000FF3B000094BB0000473C0000EE3B86
:104600000000BCBB0000F0BB0080C9BC00C0A2BC65
:1046100000805DBC000012BB0000523B0000743BF8
:1046200000004FBC000013BC0000B0BB0000DBBBAF
:104630000000443B0000ECBB0000C5BB00C083BCD5
:104640000000DA3B0080A63C0000423C0080493C70
:104650000080683C0000BF3B0000313C00802D3CE6
:104660000000883A00800F3C0000E8BA00805DBC82
:10467000000074BC000060BA000027BC0040B03CE1
:1046800000C09B3C000088BA0000093C0080C13C8F
:1046900000007F3C0040A03C0000D83B0000083CEC
:1046A0000000D23B00C0A03C0000523C0040AF3CA8
:1046B00000802D3C0000B0B90000DABB0000463C91
:1046C000004092BC00801BBC0000F9BB00803BBCDA
:1046D000000023BC000007BC008075BC00C0BFBC4C
:1046E00000801DBC000008BC00808DBC0000ADBB7C
:1046F0000000B4BA0000D0BB0000243C0000AB3B7B
:104700000000B0390000623B00008F3B0000AD3B71
:104710000000E93B0000783B0080023C0000B43B15
:10472000000090BA000028BB0000403C0000563B4F
:1047300000802CBC00803C3C00008F3C0000353CDD
:104740000080013C0000083C00007C3B00808E3C67
:104750000000C13B0000F8BA0000C43A0000F63B7C
:1047600000804BBC0000153C00801B3C0000BDBC21
:10477000000026BB0000BF3B0000803A0000E03A8A
:1047800000803BBC0000743B008066BC00800EBC17
:10479000008066BC0000EE3B0000043B0080213C32
:1047A0000000B4BB0000C3BB0000983B0000E33B2B
:1047B0000000BC3B0000D6BB0000D03B00001E3B0D
:1047C0000000BD3B0000873B00802D3C0000BCBAD0
:1047D00000001A3C0080493C0000173C00009C3B54
:1047E0000080383C00805D3C0000BC3B00009F3CEA
:1047F0000000703C0040DEBC0000ACBA000060BCB1
:104800000040A1BC0040A2BC00009E3B008087BCD1
:104810000000893B0000E73C00803F3C00C0813C39
:104820000080783C00000B3C0000313C0000C73B9E
:104830000000683B00803EBC00C0EDBC000046BCF0
:10484000000070BA000045BC000014BC00C099BC58
:104850000000AE3B0000803900802D3C00001A3C77
:1048600000009E3B0000BC3C0000A93B00002C3B2C
:104870000000F83A000080B9008000BC000038BC9D
:1048800000004EBB0000DABC000028BB00805DBC0D
:1048900000006EBC00009C3B00000E3B0000F83A9C
:1048A00000005EBB0000043B0000F43B000090BA37
:1048B0000000C53B0000223B0000A7BB00803ABCC3
:1048C000000028BB00802ABC008059BC008088BC46
:1048D00000809EBC00802BBC0000B4BA0080673C06
:1048E0000000DD3B0000083A0000CC3B0000DB3B51
:1048F000000028BB000070BA00009FBB00C099BC3C
:10490000000089BC008039BC00805CBC00C0F4BCE5
:10491000000022BC0080653C00C0903C0080023C4E
:104920000080593C0000863C00C0983C00807A3CE6
:104930000080853C00800CBC0000C9BC00C09ABC53
:10494000000080BC0080AEBC0040B0BC00800FBC4A
:10495000000015BC0000223B0080E03C00C08C3C05
:1049600000805C3C0000A43A00801ABC0000283A99
:104970000000803800803ABC000040BC00802FBCA2
:10498000008066BC0000C4BC0000C5BB000060BA6B
:10499000000013BC0000B6BB000080B9000096BB4D
:1049A00000C08CBC000061BC00804EBC0000EEBBAF
:1049B000000018BC00007EBC00802CBC0000B2BB14
:1049C0000000E9BB0000EABB000041BC000064BC81
:1049D000000017BC0000CEBB0000873B0000BDBB41
:1049E0000000B4BA0040933C0040B13C00007D3C64
:1049F0000080773C0000083C000098BB0000E73BCB
:104A00000000D0B900806CBC0080ABBC00801DBC35
:104A10000000B2BB000080BC00801CBC0000F43B66
:104A200000801F3C0000B0B9000080B9000062BBEC
:104A30000000F03B0000DA3B0000E1BB00C098BC86
:104A40000080A3BC00006EBC000022BC0000B3BC10
:104A5000000070BC0000BD3B0000943B0000283B00
:104A60000000273C0040DD3C0000003B0000E3BBB1
:104A70000080383C0000943B000044BC0000D6BBE2
:104A8000000078BB0080D9BC0000D8BC0000503AC0
:104A90000000233C000098BB0000563C0040D63C80
:104AA0000000623C0080303C00C0903C0040B23CC2
:104AB0000000323C0000263B00007CBB0000B6BC7E
:104AC000008094BC000053BC000024BC0000D0BB9C
:104AD0000000ECBB0000BCBC000044BC0000CC3BB0
:104AE0000040A03C0080D13C0000893C0000D8BAC6
:104AF00000800BBC0000313C0000563B000038BA7F
:104B000000C0A9BC00009EBC004099BC0000ECBBEA
:104B1000000074BC000000BD00009FBC0000A73B6B
:104B20000000EA3B000078BB0000183C0000A73CF6
:104B300000801C3C0000903B0080693C0000313C40
:104B400000C090BC00803EBC0000623B000000B989
:104B50000000AEBC00009DBC00C090BC008077BCD3
:104B60000000683B0080803C0000263B0000E0BA6B
:104B70000000563B0000F03B0040913C0080113C9F
:104B8000000090BB00C0CFBC00008DBC0000B4BBD7
:104B900000801BBC00009C3A0000BCBB0080C1BC74
:104BA00000C081BC0000DABB0000BDBB0000083CB7
:104BB0000000CE3B000090B90000CBBB00802DBCB4
:104BC00000008DBB00008E3C0040913C00008F3BFC
:104BD000000062BC0000F0BB0000F0B900800DBC1A
:104BE0000000853B0080A33C0000F03B0000DABBE6
:104BF00000000ABB0000923B00802A3C0000643C9D
:104C000000006D3C000018BA0000F4BB000032BC8C
:104C1000008057BC000007BC0000FDBB000040BC8A
:104C200000006EBC0000F0BB008030BC008003BC04
:104C300000005E3C0000883C0000443C00C08B3C0F
:104C40000000AB3B000080B900004E3B0080203CE0
:104C50000080003C0000C4BA000047BC0000B4BBA8
:104C600000801BBC00805BBC0000DDBB000040B9C5
:104C7000000046BB000074BC00C0B1BC008049BC51
:104C800000006CBB0000FBBB000080380000183C3B
:104C90000000ACBA008011BC0000B23B0000353C03
:104CA0000000333C0000C4BA0000F8BB000080B92B
:104CB000000018BA00803ABC00002CBB0080673CA2
:104CC0000000A43A000052BB00802F3C0080873CCB
:104CD00000802C3C0000D83A0000623B0000193CE8
:104CE0000080483C000028BA000018BC00000BBC43
:104CF000000088BA008021BC0000DDBB0000163C2B
:104D00000000EA3B0000283A0000B03B0000463CAF
:104D100000802B3C0000603C0000EA3B0000E0BA51
:104D2000000019BC000028BA00000B3C0080213CA8
:104D30000040A23C0000563C0080783C00809D3C36
:104D40000080B43C00806B3C0000063C0000EE3B61
:104D50000000F8BA000068BB0000C1BB00801FBCA7
:104D60000000D2BB0000C3BB0000043B0000A43A1B
:104D70000000F0B9000000390000B23B00800B3C9D
:104D80000080583C0000B63B0000813B0000403BE7
:104D90000000B43A0000683B0000A13B00004EBB9D
:104DA00000804DBC00005FBC000052BC004083BCD2
:104DB0000080DFBC0080F0BC0080C3BC00C0B1BC80
:104DC0000080B4BC004094BC000019BC000038BC9A
:104DD000000088BA0000073C00801B3C0000F93B43
:104DE0000000BD3B0000623C0000413C00800F3CE5
:104DF0000000813B0000403B000000390000DA3B2E
:104E00000000043C00804D3C00009D3C00C0BF3CC5
:104E10000000DA3C00401D3D00602A3D00E02D3DD1
:104E20000000133D0080243D0040313D00A0233DA3
:104E30000000F03C00005E3C0000983A00804ABC54
:104E4000000071BC00C0A0BC008003BD00803EBD5E
:104E500000E047BD006035BD00A02ABD004028BD70
:104E600000E03CBD006041BD00C034BD006017BD26
:104E700000C0D7BC0040B7BC0040AFBC008086BCBF
:104E800000009ABB0000563B0000F63B0000633C6C
:104E90000000AD3C00E0103D00602E3D00604D3D47
:104EA0000000733D0050933D00F0A33D00D0A53DB0
:104EB0000070B83D0090C93D00C0993D0080BB3CEA
:104EC000008096BC0080DBBC0000BCBC0000C5BC00
:104ED00000401DBD00A05BBD00E074BD009087BD1B
:104EE00000E072BD00C03BBD004098BC00801A3C91
:104EF0000000193C00801ABC0000C4BC00C0B6BC55
:104F0000000072BC000015BC00805CBC00805ABC74
:104F10000040B1BC000021BD00803EBD00603ABD34
:104F20000080E2BC00408ABC00004FBC00C099BCBD
:104F30000000ACBC000065BC000052BB00006D3C32
:104F40000040193D00207E3D00508D3D00F0983D11
:104F500000A0AC3D00A0D13D00D0FD3D0078073E53
:104F600000A0CA3D0060233D000094BB0040B2BCDD
:104F70000040A7BC00C0BFBC00400BBD008055BDB9
:104F800000E08EBD00D0B6BD0080A8BD004052BD7F
:104F9000000088BA0020323D00A0633D00E0353DAE
:104FA00000C0EB3C0000403C0000133C0000E13B33
:104FB0000000AB3B000064BC002024BD00C0A2BDCB
:104FC00000B0D6BD00A0DFBD0090C2BD004096BDC0
:104FD000000059BD004022BD00C0F4BC008086BC6A
:104FE00000805C3C00A0583D0020B83D00A0D33DAF
:104FF0000050D33D0050CB3D0080E23D00E0EB3D52
:105000000030F13D0030AB3D0000973C0080FFBC1C
:1050100000A044BD008046BD004043BD002067BDE8
:10502000003086BD00F094BD00E0BDBD0020C1BDD4
:1050300000A08ABD0040B2BC0000903C0040063D8C
:105040000040DC3C00007C3C00001E3B0000943B28
:105050000000293C0080033C000044BB0000E8BC89
:1050600000207DBD0070ADBD0000C3BD00B0B2BD6D
:1050700000908BBD000062BD00602BBD0040F2BC03
:105080000080A6BC0000EA3B00202F3D0060A73D49
:105090000000F23D0098093E00480D3E00A8113E78
:1050A00000800E3E0050C93D0000FF3C0080A6BCC1
:1050B000004029BD00C047BD00806BBD0010A4BDED
:1050C0000020C1BD00D0CDBD0080D3BD0090C5BDC6
:1050D000000098BD0040A1BC00C0BE3C00A0353D12
:1050E00000C0123D0080203D00A0103D0020053D85
:1050F0000080BD3C0000133C008012BC00A018BD25
:105100000000ADBD0070EDBD000800BE0000E1BDB7
:1051100000D0ADBD000087BD00202FBD00C08ABCFF
:1051200000C0823C0000473D0090A73D00A0DD3D4F
:105130000020093E00701C3E0098263E0078293E63
:105140000050113E00B0933D00006EBC00B080BD29
:1051500000C097BD00C083BD00A0A4BD0060C5BD58
:1051600000C0E4BD0010FCBD001004BE00B0E3BDF3
:1051700000E05BBD0040AF3C00606E3D00C06F3D95
:105180000020573D00A06A3D0040783D0020573D7B
:1051900000203E3D00C0EC3C0000D43A00605FBD02
:1051A0000000DDBD00580ABE005808BE00B0DEBDDC
:1051B0000060B6BD006087BD00004BBD0080D3BC61
:1051C0000080013C0040733D00C0D13D00B80F3E5F
:1051D0000038283E00E0383E00D83C3E00503D3EBE
:1051E00000280E3E0000293D00801EBD00D098BD65
:1051F00000709EBD00B0B8BD00E0E0BD0090FCBDF9
:10520000006005BE00280EBE00580CBE00A0B3BD55
:1052100000808EBC0020453D0040813D0000713D76
:1052200000E05E3D00405A3D0020443D00E0353D39
:1052300000803C3D00C0A83C0040ECBC0050E2BDFA
:10524000003022BE004828BE00B017BE0000F4BDEA
:1052500000A0C2BD00408EBD00A04BBD0080F8BCC8
:1052600000C09B3C00B09C3D00D0073E00B82D3EE6
:1052700000E83E3E00D8493E00B84C3E00A83F3E04
:105280000080E23D0000453C000059BD0010B5BD66
:105290000070D6BD001005BE001017BE007818BE05
:1052A00000A816BE00901ABE008001BE000083BD9B
:1052B0000080783C00508F3D00E0B33D00D0C33DFE
:1052C0000080D23D0070CB3D00E0AC3D0000853D4C
:1052D00000E03D3D0000443B00E091BD006814BE8D
:1052E00000C832BE007836BE00C820BE00F803BE3B
:1052F0000060C3BD00A095BD00C061BD0000B5BC8D
:105300000000223D00A0CE3D0040143E00A0393EEA
:1053100000B0463E00F0503E0098503E00902E3EB9
:1053200000E0993D00C08ABC007093BD00D0D4BDA0
:105330000040FFBD00D01ABE008821BE000029BE7B
:10534000003035BE001829BE00F0ECBD006013BD72
:1053500000C01C3D00209A3D00C0AE3D0020AC3D89
:1053600000F0A93D0000923D00408E3D00E0713DFF
:1053700000C0C03C00E027BD00A807BE005042BEF0
:1053800000B84EBE003844BE00F81FBE00F801BE93
:105390000070C9BD00F09ABD00A048BD0000B23B3E
:1053A0000000943D0038003E0020343E0048523E4C
:1053B00000A8613E0068633E00605C3E00281B3E22
:1053C00000200D3D000029BD0090BABD0020EABDBF
:1053D00000F013BE005834BE00E83BBE001042BED1
:1053E000004849BE000027BE00C0ACBD0080683C3C
:1053F00000E0973D0060BB3D00F0CE3D0010E03D79
:105400000000EC3D0000E73D00F0DD3D0010A83D50
:105410000040843C008092BD00D81DBE009842BE72
:10542000007847BE002030BE00080FBE0020F9BD46
:105430000050D6BD0050A0BD00C0F3BC0040333DBD
:1054400000B0D23D0078163E00D0393E00084A3EFA
:1054500000805B3E00D8683E0068623E00B0F83DC8
:105460000000B039004083BD0060B2BD0050BCBD3B
:105470000080F0BD00381BBE006829BE00E83FBEBA
:1054800000B035BE0010E4BD00802FBC00308F3D61
:105490000050A43D00709E3D0010B73D0050F43D0B
:1054A0000080123E00001A3E0088033E00A0783DB6
:1054B0000000F6BC0040D9BD009818BE00B821BE5F
:1054C00000A825BE002819BE003010BE00A801BEED
:1054D0000080C4BD000031BD00800E3D0060C33DB2
:1054E00000B0FA3D00E0163E00603A3E00A0693E82
:1054F00000C8833E0000893E00A05B3E00508D3D09
:1055000000800EBD00A086BD002033BD001084BD0C
:10551000005808BE003041BE00D055BE001855BE30
:1055200000D01BBE00606ABD0080F73C0000643DF7
:105530000000043D00A05B3D00A0CE3D00181E3ED3
:105540000010253E0048093E0050973D000006BC73
:10555000004092BD0070CFBD0030E0BD00380FBEEE
:1055600000083CBE000042BE00082ABE00D0DFBDDD
:10557000008065BD0000C3BB0080DB3C00802F3D88
:105580000040853D0080033E00E83E3E0008673E47
:1055900000A8613E0028583E00E8123E0080753C9D
:1055A000006020BD006001BD00808FBC00B0B4BDB4
:1055B00000A03ABE009850BE005834BE00C80EBECF
:1055C0000020B4BD000022BD0080213C0000333C1F
:1055D0000000CC3C00E0B13D00900F3E00081B3EB7
:1055E00000A0C23D00A07C3D0080EE3C008021BCBC
:1055F000004042BD0080B5BD00E008BE004849BE85
:10560000005865BE00A832BE004001BE0000BDBD0E
:105610000010ACBD00003CBD0000F43B0020583D34
:105620000060BB3D0070133E00F0353E00704A3E06
:1056300000D0513E00886F3E0038353E00C0BD3C72
:1056400000C019BD00809CBC0000083C00E0B3BD58
:10565000007049BE001857BE002828BE00A0F7BD44
:105660000040C1BD00805ABD000044BC00C092BCD7
:105670000040CD3C00D0D63D0000243E0020113E2D
:1056800000F09C3D0070A23D0060B03D00E0453D53
:105690000000FFBB00109EBD00E0EBBD00F82ABE7D
:1056A000005837BE008809BE0030FEBD0020F2BDA4
:1056B00000A0E2BD000019BD0080C23C0040123DC8
:1056C0000080653D00C0DB3D0040203E00B0373E1D
:1056D00000903E3E0060583E00A82F3E00A01C3DBA
:1056E0000080BABC0080473C00E01E3D00008DBD3C
:1056F000006041BE00F033BE0040CABD0040A1BD05
:105700000090DCBD00E0B5BD0000BBBC00409A3C91
:105710000050863D0010F33D00A0013E00C0BD3D9D
:1057200000608C3D00E0EF3D0020FF3D00000A3DA1
:1057300000E072BD0090B1BD006087BD00D0DDBD4E
:1057400000A832BE00702ABE00F80CBE00A0D9BD71
:105750000070A2BD000007BD0000563B0000923B58
:105760000020713D0098093E0090293E00D0193E6E
:105770000040243E00C0673E00986F3E0030993DD7
:105780000040FCBC0080663C0030863D00C0DBBCB5
:1057900000A03CBE001035BE00A0D0BD0000A7BDDB
:1057A00000F006BE0030EBBD00E02ABD0000233C47
:1057B0000020263D0090B43D0020B63D00D09C3D29
:1057C0000010A23D0098093E00C00A3E0040A33CE4
:1057D00000A026BD0000CBBC00803DBC0040C1BD88
:1057E00000984DBE002030BE0050FCBD0070D1BD01
:1057F00000B0F6BD0030BCBD004013BD000017BCBA
:105800000060393D00E0B13D0040CE3D00B0F23DCA
:1058100000702D3E00607A3E0080783E00580B3EBE
:105820000080653C00802C3D0050DE3D00000B3DBB
:10583000008002BE00A037BE0060ACBD008070BD1D
:1058400000A813BE00483BBE0060D2BD0000403936
:1058500000C0F93C0040CF3C0040153D00E0823DD7
:105860000020EC3D0070103E0090FC3D00C0523D19
:105870000080953C0060623D0000F83C0090A2BDB5
:1058800000C02BBE003012BE00209DBD00A803BE8C
:1058900000E82BBE009804BE006013BD008012BC5F
:1058A00000808DBC00C0B93C0020A93D0010FC3D2B
:1058B0000068233E0078323E0020513E00804A3E80
:1058C00000B8123E0000813D00909A3D00B08D3D31
:1058D000004094BC00B0D8BD0000D0BD007093BDA6
:1058E00000E0EBBD00E82BBE0070FEBD00205BBDFC
:1058F0000080E0BC0080F7BC0000803900E04B3D38
:105900000000893D00D0AB3D00E0AE3D0010AA3D57
:105910000000803D0020673D0000383D004007BD8D
:1059200000C0C8BD0040E3BD0050C2BD002002BEA3
:1059300000803ABE000017BE00D0C9BD00F098BD7F
:1059400000E09DBD0040B1BC0000373D00208B3D14
:105950000080AE3D00D0093E00E83C3E00205F3EA6
:1059600000704F3E00E0EA3D0040773D0080023E7F
:105970000030E23D0040F5BC00A805BE00B091BD7E
:1059800000C038BD00C019BE00C85EBE000801BE20
:1059900000401EBD004037BD00C099BD0000D8BB0F
:1059A00000E0623D00B09E3D0050B33D0060BD3D53
:1059B0000090DA3D00B0B43D00508D3D00C0C83CC1
:1059C000000037BD000073BD00909CBD00F0DABD43
:1059D00000E830BE00F83BBE00C0EFBD0000BDBD1A
:1059E00000E0BDBD0070A6BD0000E3BB00E0103DBF
:1059F00000805A3D0050B33D00F8113E0038293E6A
:105A000000B8403E00083A3E00F0DB3D0020633D18
:105A10000008023E0000CC3D0080E9BC0000E3BD70
:105A2000000008BD0000A5BC001802BE00F82EBE94
:105A300000209FBD00A005BD00F090BD00A094BD5A
:105A400000801E3C00A0363D00404E3D00E0723D0F
:105A50000070A63D00C0B93D00A0883D0050883DC3
:105A600000E0353D0000FFBB008003BD00808ABD23
:105A70000070A9BD0050F4BD00B0EBBD0010B1BD79
:105A80000000CEBD0080B9BD006076BD0000FD3BCA
:105A90000080D03C0080243D0090C23D0050103E6C
:105AA00000B0363E00A84E3E00502E3E0020DB3DAA
:105AB00000900A3E0020253E0060143D00007BBDA2
:105AC0000000E3BC0000083B00F0D6BD008837BEF4
:105AD0000040EABD00A058BD0060CEBD0080D9BD29
:105AE00000A026BD0000B63C0000883C0040373DC9
:105AF00000C0903D0040C13D0030CD3D0020CC3D78
:105B000000A0953D00E0263D0000A43C00008BBBBA
:105B1000002076BD00A0A1BD00E0AABD0000C5BD6B
:105B200000B801BE0070EBBD00E095BD006058BD3F
:105B300000A008BD000016BC0040923C0060573D2C
:105B40000040C13D0040073E0038263E00C0433EB5
:105B50000020173E00709C3D0000083E0060F23DB2
:105B60000080C43C00802DBD00802ABC0040BEBC2B
:105B700000E0E0BD00E811BE00C0CCBD0080B5BDB6
:105B800000F0C5BD0060BDBD00A04FBD00806CBC75
:105B900000807A3C00E0323D0060223D00A0A63D3E
:105BA00000F0B43D00A06E3D00A01F3D0080F83C19
:105BB0000000C93C004099BC00807ABD00708DBDDA
:105BC00000B0D8BD00F0DBBD00C0ECBD00409FBD03
:105BD00000709CBD00608EBD00201CBD000046BB57
:105BE00000804D3D00F0A73D0050DE3D0028283EDE
:105BF0000050423E00280F3E00609F3D00501E3E78
:105C000000A8173E00805A3C00E032BD00004ABBAD
:105C10000040DEBC00700FBE00F82CBE0060ECBD82
:105C20000050D6BD007011BE0010F8BD00A086BDAA
:105C30000040A3BC000098BB00806A3C00003F3DD0
:105C40000030DC3D00B0E33D00E0B53D0070A43D18
:105C500000A0BF3D00E0A43D00805B3C0080D3BCC1
:105C600000E045BD003097BD0000CBBD004010BE38
:105C700000A001BE00F0EEBD00C0E6BD0080C4BDC6
:105C800000004ABD00009C3A0000903B0020493DC6
:105C90000070DC3D00C01D3E0048383E00B83D3E6F
:105CA00000900C3E00D0FB3D00902F3E00C0ED3D2B
:105CB0000000A7BB000072BC00C0923C00605EBD4B
:105CC00000C821BE001018BE0010B3BD00B0DFBD7B
:105CD000008807BE0080CCBD00001EBD000070BC67
:105CE0000000183C0080203D0090A73D00C0F33D1F
:105CF0000000F23D0080C13D0090C53D0090B63DE2
:105D000000C05C3D00004A3B00C0A0BC000052BD8A
:105D10000070CDBD00B0F8BD0000F8BD00D0CDBD15
:105D20000000D2BD00C0B0BD00803BBD0000CCBAB9
:105D300000806C3C0080743D0060053E0038383EB9
:105D400000E84E3E00184C3E00E80F3E00B0263EF4
:105D50000068363E0090A43D0000F9BB0000A9BBDE
:105D6000000028BC0000E3BD00B830BE000008BE43
:105D70000040D0BD00600DBE00E80CBE0000ABBD11
:105D80000080D0BC00803BBC00C0163D0090A23D0E
:105D900000D8023E0050133E00E00A3E0088093E53
:105DA00000A8063E0010FA3D00D0833D000070BA06
:105DB00000C0D4BC001088BD0040CCBD00E016BEC1
:105DC00000C00DBE001801BE0000F8BD00D0CDBD62
:105DD00000409BBD00C0E4BC0000B83B0040403D1B
:105DE00000F0D83D00E8123E0078333E00D0513E2E
:105DF0000008653E00601E3E0080E83D00A0193EA0
:105E00000040643D00C0CDBC008024BD0080E2BCE9
:105E100000A0DBBD00D02BBE00F810BE0010FABD04
:105E2000008805BE0080F0BD00F0A7BD00A017BD32
