:020000042000DA
:04035C0000787FBFE7
:100360000088E1BE00D0913D0040C73D0030C23D55
:100370000090BA3D00F0B03D0010AC3D00E0A83D5B
:100380000060A53D00B0A33D0010A03D00D09C3D05
:1003900000009C3D00D0983D00A0943D0090933D0E
:1003A0000020923D00C08E3D00608C3D00408B3DA2
:1003B0000020873D0040853D00E0823D0060813D9A
:1003C00000607D3D00207A3D0020763D00A0723D1A
:1003D00000606E3D00206B3D00E0663D00A05E3D8C
:1003E00000C05D3D00A05A3D00C0563D0020543D78
:1003F0000060503D00E04C3D00804A3D0040473DDC
:100400000020423D00A0403D00403C3D0060393DA1
:1004100000C0343D00A0313D00A02E3D00C02B3D6A
:1004200000202A3D0040283D0080243D00E0223D80
:1004300000401E3D00A01C3D00001A3D0040163D3E
:100440000060143D0020143D00C00D3D00200C3D17
:100450000060093D00C0063D00A0053D0080023D52
:100460000060013D0040003D00C0FC3C0080F63CC7
:100470000080EE3C0000E93C00C0E43C0000E23CAF
:100480000080E23C0080D93C0080D83C00C0D63CD3
:100490000000D13C0080CB3C0040C73C0040C53C44
:1004A0000040C03C00C0BD3C0080BA3C0080B53C70
:1004B00000C0B13C00C0AE3C00605FBD0010D5BDC7
:1004C00000A0B3BD00C088BD00E038BD0080D0BC36
:1004D0000000C7BB00004F3C00C0F23C00803B3D29
:1004E00000C07B3D00809B3D0050BA3D00A0D33D45
:1004F00000F0EE3D00A8043E0070103E00581B3E88
:1005000000D0243E00082E3E0028363E00103F3E1C
:1005100000D0463E00204E3E0058563E00505E3E03
:100520000080653E00406C3E0078733E00D8783E07
:1005300000607D3E0094803E0038823E0050843E44
:1005400000DC853E00D8873E0084893E00B08A3EAC
:10055000005C8C3E00C48D3E00A48E3E00B48F3EF5
:100560000084903E00A4903E0050913E008C913E4D
:1005700000B8913E0024923E0060923E0038923EC8
:1005800000C0923E001C923E00EC913E001C923E48
:10059000002C913E009C903E0080903E0080903E5A
:1005A0000024903E00888F3E00888F3E00988E3E4B
:1005B00000808D3E00008D3E00408C3E00388B3E1A
:1005C00000248A3E00E0883E00B4873E0018873E43
:1005D0000074853E0020843E0064833E00D8813E46
:1005E00000C4803E0018803E00E07E3E00307D3E2C
:1005F00000607B3E0070783E00C0763E0018743E7E
:100600000038713E00206F3E00706D3E00606C3E11
:100610000090693E0070673E0088643E00A8623E1C
:1006200000E05F3E00E85C3E00B85A3E0018573ECE
:100630000028563E00F0533E0030513E00604E3ED2
:1006400000B84C3E00B0493E00F0473E0098443EA2
:100650000068423E0020403E00183E3E00F83A3E10
:100660000090393E0098363E00E0333E0078313E3F
:1006700000F82E3E00902C3E00B0293E0068273E38
:1006800000E0253E0020233E00C81F3E00501D3ED6
:1006900000081B3E0058193E0010183E00E0163EB0
:1006A0000068143E0050133E00A00F3E00180E3E9E
:1006B00000800C3E00680B3E0020093E0010083E02
:1006C0000088063E00B8043E00A8023E0028003E16
:1006D0000040FB3D0020F93D00F0F23D00B0EE3D52
:1006E00000C0EC3D0090EB3D0010E93D00B0E53D61
:1006F00000A0E03D0010DE3D0030DC3D0040D63D76
:1007000000C0D13D00D0CE3D00F0CC3D0070C93DD1
:100710000080C43D00C0C23D00C0BD3D00E0B93D09
:100720000070BA3D0040B63D0090B13D0090AF3D35
:100730000030AD3D0010AA3D00D0A73D0080A33D94
:100740000060A13D0030A03D00D09C3D00309C3DAC
:1007500000D0983D0060963D0020943D00C0923D41
:100760000060903D00208D3D00908B3D00E0883D75
:1007700000F0853D0060853D00A0833D0090803DF8
:1007800000207D3D0020753D00606E3D00A0633D72
:1007900000405D3D00E05A3D00E05A3D00405D3DB7
:1007A00000E0573D0000593D00A0543D0080513D00
:1007B00000C04A3D00C0423D00A03D3D0020393D03
:1007C0000060393D00C0343D00E0323D00802C3DEA
:1007D00000A0273D00A0233D0000253D0040243D12
:1007E0000020243D0000263D0060263D00A0233D62
:1007F0000000223D00601C3D00201B3D0000193D13
:1008000000E0143D00400E3D00A0093D00E0053D24
:100810000040043D0080FE3C0040FA3C0040FB3CB0
:100820000080FE3C00A0013D0000003D00C0FC3CFB
:100830000080F73C0040EC3C00C0E63C0000E23C9D
:1008400000C0DD3C00C0D63C0000CB3C0040C73CB3
:100850000040BE3C00C0B63C0040B03C0000A53C9F
:100860000080A63C00C09F3C00009D3C00C09B3C1B
:1008700000C09B3C0040983C00C08C3C0000883C81
:1008800000C0843C0080753C0000713C0080863CC8
:1008900000C0843C00007C3C0000713C0080673C50
:1008A0000000633C00803E3C0000433C0000433CB1
:1008B0000000433C00803F3C0080393C0000373C56
:1008C0000000323C00801B3C0000FF3B0000F93B75
:1008D0000000E73B0000FF3B0000F43B00800C3CC5
:1008E0000000133C0080123C00800E3C0000F63BF0
:1008F0000000EC3B0000E53B0000D63B0000C73B9E
:100900000000BF3B00009A3B00008B3B0000B43B63
:100910000000CE3B0000D23B0000D03B0000BF3BBC
:100920000000DF3B0000C93B0000BA3B00009F3BDA
:100930000000923B0000923B0000B43B0000B43B3F
:100940000000BA3B00009F3B00008F3B0000523B81
:100950000000403B00000A3B00004A3B00001E3BF9
:100960000000343B0000263B0000163B00001E3B0D
:100970000000263B0000CC3A0000503A0000CC3A80
:100980000000F03A00009039000080380000D0B933
:1009900000000000000000B9000040B90000283A43
:1009A000000000390000283A00000039000080B93A
:1009B0000000F0390000F039000080B80000B4BA3F
:1009C0000000B4BA0000ACBA000000B90000B039B1
:1009D0000000083A000090B90000603A0000083AB0
:1009E000000000390000F0B9000088BA000060BAC9
:1009F000000040B90000D0B9000080BA0000D4BAAD
:100A0000000008BA000090BA000040BA000012BB13
:100A10000000E8BA000038BA000070BA0000B0B9AF
:100A20000000AC3A0000083B0000283B0000AC3A54
:100A30000000403A000090B9000090B90000F0B901
:100A4000000060BA000098BA0000C4BA0000E8BA1A
:100A50000000E8BA0000A4BA00009CBA0000000040
:100A6000000000B9000028BA000018BA0000E0BA7F
:100A7000000018BA0000283A0000703A0000003B5D
:100A80000000083B0000123B0000043B0000983AC5
:100A90000000383A000040390000003900004039B9
:100AA00000004039000000B90000503A0000903AC0
:100AB0000000083B0000503A000000B9000090B967
:100AC000000040B90000D0B9000018BA000088BA90
:100AD0000000A4BA000088BA00002CBB000028BBAC
:100AE000000022BB000012BB000022BB000026BB9E
:100AF000000026BB000046BB000012BB00001ABB72
:100B000000001ABB0000CCBA000050BA000070BA56
:100B1000000040B90000ACBA0000E8BA0000A4BA76
:100B2000000000BB00001ABB0000E0BA0000C4BA1D
:100B30000000ACBA000000B90000B0B90000D8BA9B
:100B4000000088BA00000ABB00004ABB000083BB5B
:100B500000008FBB00005ABB000028BB00009CBAFD
:100B6000000038BA000090B90000F0B900008038E9
:100B70000000B0B9000000B9000080B8000000001B
:100B8000000050BA0000CCBA0000ACBA000088BA2D
:100B900000000ABB000008BB000060BA0000F0B90A
:100BA000000018BA0000B4BA000040B90000403993
:100BB000000000390000AC3A0000003B0000083B98
:100BC0000000A43A0000983A0000F0390000083A0A
:100BD000000038BA00009CBA000080BA000018BAC1
:100BE000000080B80000383A0000383A0000403A6F
:100BF00000009C3A0000BC3A0000803A00008039B6
:100C00000000F03900000039000050BA000040BA7E
:100C1000000090B9000080B8000040BA000090B910
:100C2000000088BA0000CCBA000080BA000018BAF0
:100C3000000060BA0000F0BA0000E0BA00009CBA00
:100C40000000ACBA000070BA000018BA0000000042
:100C5000000040B90000B4BA000050BA0000000023
:100C60000000A43A0000C43A000090390000803827
:100C7000000018BA000000B9000090BA000008BBDC
:100C8000000016BB000040BB000062BB000080BB40
:100C9000000028BB00000ABB0000E0BA000088BAD0
:100CA000000000390000B039000080B900000000E9
:100CB000000028BA000050BA0000B4BA0000E8BA38
:100CC0000000F8BA000026BB00001EBB000090BA6E
:100CD000000090B900000039000000B9000018BA07
:100CE0000000F0B9000090B90000D0B9000050BA7F
:100CF000000028BA0000A4BA000080B800008038C4
:100D0000000000B90000A4BA0000C4BA000040BA54
:100D10000000F0B90000D0B900000000000040B9A8
:100D2000000080380000403900004039000000B960
:100D300000000000000088BA0000C4BA000060BAD9
:100D4000000080BA0000F8BA000022BB0000E0BA40
:100D50000000F8BA00000ABB0000CCBA000040BA9C
:100D6000000038BA000040BA000008BA0000D0B94C
:100D70000000D4BA000016BB0000D8BA00003CBB8B
:100D800000006CBB000034BB000016BB000034BB8D
:100D900000000EBB00002CBB0000D4BA0000BCBA9F
:100DA0000000F8BA0000A4BA0000C4BA0000F0B90C
:100DB0000000F039000090390000403A0000083A85
:100DC000000038BA000004BB00003CBB000012BBAE
:100DD0000000BCBA00009CBA000080380000003956
:100DE000000080390000503A0000503A000090B9ED
:100DF000000008BA000008BA000038BA0000C4BAFF
:100E0000000028BB00000EBB00002CBB000022BB72
:100E10000000D8BA00001EBB000016BB0000C4BA18
:100E20000000CCBA000004BB0000F8BA000098BA79
:100E3000000070BA000098BA0000D4BA000028BAC6
:100E4000000018BA000090B90000BCBA000070BAE7
:100E50000000B0B9000040BA0000B0B90000403A4C
:100E60000000003B00000A3B0000983A0000303BC5
:100E70000000043B00009C3A0000703A00008039FA
:100E8000000040390000D0B9000028BA000040BA84
:100E9000000090BA000028BA000080BA000098BA9A
:100EA0000000ACBA0000B0B900004039000000B941
:100EB0000000BCBA000012BB00000ABB00001EBB51
:100EC000000000BB0000E0BA0000F0B9000018BA52
:100ED000000080BA0000F0B90000283A0000D0B944
:100EE000000040B9000008BA000038BA0000000055
:100EF0000000F03A0000903A0000D039000040397C
:100F00000000F0B9000008BA000090BA0000CCBAA6
:100F1000000040BA0000D0B90000803800008039DD
:100F2000000080380000703A0000B039000080B93D
:100F3000000080B8000080B80000283A00000039A6
:100F40000000CC3A0000803A0000F0390000883AF6
:100F500000009C3A0000803900008038000080B812
:100F6000000080B8000080B9000080B90000F039AE
:100F70000000083A000090390000283A000090B9BB
:100F80000000083A0000883A000080BA0000BCBAAD
:100F9000000070BA0000B0B9000028BA000080B9A3
:100FA000000000390000383A00004039000080B9E4
:100FB000000038BA000040BA0000C4BA000004BB08
:100FC0000000B4BA000098BA000016BB000000BBD5
:100FD0000000CCBA00000EBB0000F8BA0000C4BA92
:100FE000000008BB0000D4BA0000CCBA000098BAD8
:100FF000000028BA0000B0B9000038BA000080BA7A
:10100000000040BA0000D0390000CC3A0000003B9C
:101010000000403A000040390000183A0000D0B902
:10102000000038BA000040BA000050BA000098BA78
:10103000000038BA0000ACBA0000CCBA0000A4BA74
:101040000000C4BA0000E0BA000022BB000028BBC8
:101050000000B4BA000000000000D0390000903950
:1010600000000039000080B9000080B9000018BA03
:10107000000080BA000050BA0000C4BA000008BAEC
:101080000000D4BA00003CBB000070BB000046BBAF
:101090000000E8BA0000F8BA0000D8BA000008BBA7
:1010A000000080BA000000B90000503A0000703A19
:1010B0000000803A0000E03A0000BC3A0000AC3A80
:1010C0000000D43A0000BC3A000000B90000CCBADD
:1010D0000000A4BA000080BA000040B90000B03996
:1010E0000000B0390000BC3A00000E3B0000E83AB6
:1010F0000000B43A0000983A0000D039000000B96E
:10110000000040B9000040BA0000C4BA0000F0BAC4
:101110000000B4BA0000E8BA000008BB0000C4BA7E
:10112000000034BB00000ABB0000BCBA000004BBD6
:101130000000D4BA000016BB0000F0BA0000ACBA40
:1011400000009CBA000088BA000088BA000070BA9B
:101150000000F0BA00000ABB0000C4BA0000CCBA1C
:10116000000080BA000060BA0000F0BA0000E0BAE7
:1011700000009CBA0000E0BA000060BA000004BBA6
:1011800000000EBB000046BB00004ABB00002CBBA9
:10119000000046BB0000D0B9000080380000403994
:1011A0000000603A000040B9000028BA000090BA80
:1011B00000000ABB000012BB00001ABB00001ABBF3
:1011C000000026BB0000F8BA00009CBA0000D0B9AD
:1011D00000000000000080B900000000000000B91D
:1011E000000050BA00009CBA00009CBA00002CBB62
:1011F0000000E0BA0000D4BA000028BA000028BA03
:101200000000A4BA00000ABB000040BB000028BBDD
:101210000000E0BA0000ACBA000090BA000040B98B
:10122000000040BA000040BA000008BA0000D4BA7A
:101230000000F8BA000098BA000070BA000008BABE
:101240000000F0B90000D0B90000D039000000B9AA
:10125000000080B9000080B8000040BA000080BAE9
:101260000000D4BA000008BB000026BB00001ABB77
:10127000000068BB000038BB00002CBB00001EBB98
:10128000000044BB000016BB0000BCBA000038BA26
:101290000000E0BA0000F8BA0000BCBA000090BA42
:1012A000000028BA000080B90000B0B90000703A10
:1012B0000000703A0000B0B9000088BA000016BB08
:1012C000000074BB000064BB00004ABB0000D8BA39
:1012D000000088BA000080B9000080380000083A99
:1012E0000000403A0000983A0000B039000018BAF7
:1012F00000008038000000000000F039000090B9C4
:10130000000018BA000098BA000090BA000090B926
:1013100000000000000000000000B0B90000F0B9BB
:101320000000503A0000803A0000383A000080394E
:101330000000903A00009C3A00008039000090B90B
:101340000000D0B90000E0BA000008BB0000E8BA15
:1013500000000000000080B80000F0390000C43A2E
:101360000000D83A0000C43A0000803A00008038FB
:10137000000090BA0000D4BA0000BCBA0000C4BAA1
:10138000000040BA000090B9000040390000403928
:10139000000000B90000F0B9000090B9000018BAD0
:1013A0000000F8BA000008BB0000D8BA0000F0BA8C
:1013B0000000C4BA0000F0BA0000E0BA0000F8BAB9
:1013C0000000D8BA000050BA000050BA000080B93E
:1013D000000080B9000060BA000060BA0000E0BA06
:1013E0000000F0BA0000C4BA000070BA000028BAC9
:1013F0000000F0B90000F0B9000080B9000008BAA0
:10140000000040B9000060BA000090BA000098BA2D
:10141000000000000000383A0000883A00009039CF
:101420000000503A0000883A000080B90000B0B9CE
:10143000000018BA000028BA0000CCBA0000C4BAF4
:10144000000090BA0000C4BA000080B9000000009B
:101450000000B039000040B90000903900000000E1
:101460000000ACBA000080BA000080B90000F0397A
:101470000000D83A0000043B0000003B0000E83ABE
:101480000000F03A0000283A0000403A0000703AAC
:10149000000080B80000B0B9000008BA000080B9B0
:1014A0000000403A00009C3A00001E3B0000E83A71
:1014B0000000CC3A0000703A0000603A0000283A80
:1014C0000000283A0000803900000000000070BAD7
:1014D000000040BA0000CCBA000090BA000040BA48
:1014E000000018BA000040B9000050BA000088BAE5
:1014F000000000BB000012BB00002CBB0000E8BADB
:10150000000070BA000060BA000070BA000050BA63
:101510000000CCBA0000A4BA0000F0B9000040BA44
:10152000000018BA000040B90000803A0000D43A28
:101530000000883A000080380000F0B90000D8BAF6
:10154000000026BB00004ABB000068BB000046BB91
:101550000000BCBA000080390000403A0000D039D9
:10156000000000B9000098BA0000F8BA000016BBED
:1015700000000EBB00003CBB000016BB000050BAD0
:101580000000F0B9000080B8000040B90000000081
:101590000000183A00008038000090B900000000F8
:1015A000000008BA000038BA000018BA0000A4BA57
:1015B00000009CBA000040B90000503A0000BC3A5C
:1015C00000001A3B0000D43A00001E3B0000343BF0
:1015D0000000163B0000083B00000A3B0000083BEF
:1015E0000000CC3A0000283A0000883A00009C3AFB
:1015F0000000983A000000000000D0390000803957
:1016000000008039000028BA000080B8000080B8CF
:101610000000B0B9000080B9000000390000F0B946
:1016200000009CBA000038BA0000D8BA00001EBB07
:10163000000030BB00001EBB000016BB000022BB38
:10164000000004BB000038BA0000B0B9000038BA8E
:1016500000000ABB0000E0BA000016BB000034BB6B
:10166000000070BB000064BB0000F0BA0000E8BAE4
:101670000000083A0000003900000000000012BB22
:10168000000030BB000056BB000068BB00003CBB44
:101690000000E0BA000004BB000070BA000080B88F
:1016A0000000383A00008039000040390000F0396D
:1016B000000040BA000040BA000040BA000000B983
:1016C0000000D0B900000039000090390000F03966
:1016D0000000183A0000503A0000603A000040391B
:1016E0000000403A0000D0390000D0390000AC3A88
:1016F00000009C3A0000C43A0000703A00008039B3
:101700000000F0B9000038BA0000B4BA0000C4BA52
:101710000000D8BA000090BA000000390000303B49
:101720000000383B0000283B0000CC3A0000403964
:10173000000000B9000008BA0000D0B9000038BAB3
:101740000000F8BA000004BB0000D4BA0000E0BA00
:10175000000004BB000008BB00000ABB000016BB71
:1017600000001EBB0000E8BA0000B4BA000050BA86
:10177000000090B900000000000018BA0000E0BAB4
:10178000000098BA0000D0390000703A000080389C
:10179000000018BA000080B8000080BA00009CBAAF
:1017A0000000B0B9000018BA000080B90000B0B95C
:1017B0000000D0B9000040BA000018BA000090BA8A
:1017C0000000B4BA000008BA0000F8BA000000BB7C
:1017D0000000F0B9000000000000883A0000AC3AB8
:1017E0000000503A0000603A0000B0B90000ACBA06
:1017F0000000A4BA00009CBA0000E0BA00001EBBC2
:1018000000001ABB0000CCBA00000ABB0000CCBA32
:101810000000C4BA000060BA000040BA0000D0B9AD
:1018200000000000000000B900008038000040B94E
:101830000000403900009039000060BA0000E0BAB2
:10184000000038BA0000F0BA00009CBA0000CCBA20
:10185000000070BA000000000000B0390000000075
:101860000000B0B90000F0B9000018BA000018BAC2
:10187000000088BA000088BA000040BA000038BAF8
:10188000000088BA0000B0390000A43A0000B43A61
:101890000000803A0000E03A0000B0B9000018BA39
:1018A000000080B9000070BA000050BA000060BAB1
:1018B000000088BA000008BA000050BA0000D0B991
:1018C000000080380000083A00008038000040BA6C
:1018D0000000D0B9000080B90000F0B9000090B954
:1018E0000000B4BA000018BA000080B9000070BA55
:1018F000000060BA0000B4BA000026BB000046BB7E
:1019000000004EBB000012BB000046BB0000F0BA56
:10191000000060BA0000F0B90000D0B90000803AC1
:101920000000B43A00000039000040BA0000A4BA38
:1019300000009CBA000038BA000090BA0000D4BA87
:10194000000004BB00001EBB000028BB000052BB0F
:10195000000012BB0000D4BA000004BB0000F0BAC3
:1019600000001EBB000088BA000080B90000283AC1
:101970000000403A0000BC3A0000883A0000000035
:10198000000090BA000038BB00002CBB00003CBB3C
:1019900000000EBB0000C4BA000060BA0000D039DD
:1019A0000000603A0000D0390000183A0000803A88
:1019B00000000000000028BA000080B90000803854
:1019C000000088BA000070BA0000ACBA0000ACBADF
:1019D0000000BCBA00009CBA000000B90000B03999
:1019E000000038BA0000D0B9000018BA00009CBA54
:1019F000000088BA00009CBA0000CCBA000088BA87
:101A0000000080B900000000000008BA000080BAA1
:101A10000000A4BA000038BA000070BA000088BA0A
:101A2000000060BA0000B0B9000098BA0000D0B958
:101A3000000080BA000088BA0000C4BA000046BBAB
:101A4000000068BB000044BB000074BB000016BB74
:101A5000000090BA0000D0B9000008BA00000000F1
:101A600000000000000040B9000080B8000040B94C
:101A7000000090390000B0B90000403900000000BB
:101A800000000039000090B9000000390000283A39
:101A90000000A43A0000503A000000B90000CCBA9F
:101AA0000000E8BA0000E0BA000040BA000000B947
:101AB000000018BA000040BA000008BA0000000098
:101AC00000008038000080380000083A0000D0395B
:101AD000000000B900000039000080B9000088BA99
:101AE0000000A4BA000050BA000088BA000098BAFA
:101AF0000000ACBA000080BA000040390000F039A4
:101B000000000000000090B900004039000080B9DA
:101B1000000008BA0000803900000000000080B812
:101B2000000000B90000B0B90000283A0000803978
:101B3000000000B90000B0B9000040BA0000B0B920
:101B4000000018BA00009CBA000098BA0000A4BABD
:101B5000000000BB000016BB0000E0BA0000CCBAD9
:101B6000000040BA000080BA0000BCBA0000A4BA6D
:101B7000000088BA0000B4BA00000EBB000038BBF9
:101B800000007CBB000096BB00008BBB000089BB43
:101B900000003CBB0000F8BA000098BA000040BA50
:101BA00000000000000090BA0000C4BA0000F0B9C4
:101BB000000018BA000008BA00009CBA0000A4BADD
:101BC0000000E8BA0000E0BA000000BB0000A4BAC0
:101BD000000088BA000018BA0000403900009C3AA2
:101BE0000000BC3A0000903A0000CC3A0000CC3A29
:101BF0000000403A00004039000080B8000080BA80
:101C0000000026BB000000BB0000F0B9000040B996
:101C1000000000390000883A0000AC3A0000D43AD5
:101C20000000003B0000383A0000B0390000803965
:101C300000008038000088BA000070BA000050BA76
:101C4000000008BA00009039000000000000D0B980
:101C5000000008BA0000B0B90000000000008038A1
:101C6000000090B90000F0B90000A4BA000040BA2A
:101C7000000080BA000070BA0000D8BA000012BBA1
:101C80000000C4BA000080BA0000B03900000000B3
:101C9000000090B90000B0390000D0B9000038BA97
:101CA000000060BA000080B80000B0390000803940
:101CB000000080B90000F0BA00005ABB000074BBFD
:101CC00000008FBB000090BB000070BB00001EBB7B
:101CD0000000C4BA0000F0B90000D0B9000038BA62
:101CE000000040BA00000ABB000022BB0000B4BAEA
:101CF0000000F03900004039000000B90000B0B920
:101D00000000F0390000403A0000503A0000A43AC8
:101D10000000083A000040BA0000D0B9000008BA3C
:101D2000000040B9000088BA000028BA00008038DE
:101D3000000080390000F0B9000038BA000000004F
:101D40000000000000008038000000000000803922
:101D5000000040390000903900000000000090BAF7
:101D60000000B4BA000028BA000098BA000098BA7F
:101D70000000E8BA0000F0B9000040B9000080B9E6
:101D8000000018BA0000E0BA0000F0BA000050BA33
:101D900000009CBA0000CCBA0000C4BA0000D0B960
:101DA0000000B039000018BA000008BA000040BABC
:101DB000000050BA000040BA000000390000F039BD
:101DC0000000183A0000083A0000B0390000083A54
:101DD000000090B9000038BA000040B9000060BAB5
:101DE000000080BA0000D0B90000183A0000383A6C
:101DF0000000183A0000283A000000390000E8BA54
:101E0000000052BB000044BB0000D8BA0000ACBACE
:101E10000000BCBA000088BA000090BA000088BA7E
:101E20000000D8BA00000EBB0000E0BA0000ACBA57
:101E3000000080B90000D0B90000F0B9000000B97E
:101E4000000040B9000080BA000008BA0000603A03
:101E50000000D83A0000603A0000B43A0000183A96
:101E60000000183A00000000000000B9000028BA85
:101E7000000050BA000028BA000080380000003985
:101E800000004039000000390000283A0000003B03
:101E90000000E03A0000A43A0000D83A00004039BF
:101EA0000000503A00008038000050BA0000ACBA80
:101EB000000018BA000000000000CCBA000098BA78
:101EC000000040BA000040BA000028BA0000B4BACE
:101ED0000000E8BA000088BA0000E0BA0000ACBA1E
:101EE000000080B80000B0390000D0B9000050BA3E
:101EF000000038BA000038BA000018BA000040B933
:101F00000000B0390000283A0000B0390000D03994
:101F100000004039000040390000B0B90000F0B9BD
:101F2000000080BA000038BA00000039000080B913
:101F30000000D0B900000000000080B8000090BA96
:101F4000000088BA000000B9000080380000B039F5
:101F50000000083A0000283A0000083A0000503A11
:101F60000000803A00004039000080B80000F0B95D
:101F7000000080B9000008BA00000000000080B82E
:101F8000000000390000883A0000983A0000383A12
:101F9000000050BA000098BA000080B800009039E4
:101FA0000000803900008038000080B80000000088
:101FB0000000083A0000BC3A0000123B0000803AE2
:101FC000000040B90000D4BA0000C4BA0000E8BA6A
:101FD000000098BA000040B90000F0390000F03964
:101FE00000008038000008BA0000A4BA000080BADF
:101FF000000008BA00000000000070BA000008BA33
:102000000000CCBA000038BB000044BB00002CBB71
:10201000000030BB000016BB000030BB00005ABB04
:1020200000004ABB000064BB000034BB00000EBBD4
:10203000000026BB0000E0BA000018BA000008BA91
:10204000000050BA000000B90000903A0000183AB1
:102050000000AC3A0000183A0000B0390000083A1D
:10206000000080390000B0B9000028BA000090BA22
:1020700000009CBA0000E0BA0000E8BA00003CBBD7
:10208000000062BB000030BB0000D8BA00000000B6
:102090000000000000000039000080B8000098BA7D
:1020A0000000CCBA00001EBB000034BB000046BBE1
:1020B000000012BB00001ABB00002CBB00005ABB82
:1020C000000022BB000022BB0000D4BA000090B97F
:1020D000000028BA0000D039000040390000B039B3
:1020E0000000183A0000383A0000603A0000003B57
:1020F0000000123B0000CC3A0000D83A00009C3AA5
:102100000000B0390000803A0000903A0000703AB8
:102110000000183A000000390000D03900009C3A55
:102120000000983A0000703A0000603A000018BAC7
:102130000000A4BA0000F0B9000090B90000D0B9C6
:102140000000A4BA000070BA000028BA0000A4BAC7
:10215000000018BA000050BA000038BA000060BA97
:10216000000090390000D0B9000090BA000060BAB9
:102170000000BCBA000008BB0000E8BA000090BA3A
:10218000000088BA0000F0B9000050BA000090B911
:10219000000080B9000088BA0000D8BA0000C4BAB4
:1021A0000000CCBA000050BA000008BA000090B994
:1021B000000090390000283A00000039000090B972
:1021C000000028BA000040BA000080B900000000FA
:1021D0000000803900000000000050BA000018BA6A
:1021E00000009CBA000000BB0000B0B90000D0B9EC
:1021F0000000883A000080380000B0B900000000FC
:102200000000D0B9000080390000803A0000B039E9
:10221000000080380000183A000050BA000080B872
:102220000000F0B9000000B9000080380000183A42
:10223000000080390000283A00000000000000B9CA
:102240000000ACBA0000CCBA0000D4BA0000B4BAA6
:10225000000080B8000000000000703A0000BC3AA6
:102260000000283B0000F03A0000D039000040BADE
:1022700000009CBA000040BA0000A4BA0000F0BA06
:10228000000044BB000026BB00004ABB000034BB7A
:10229000000012BB00001ABB000012BB00000ABB0A
:1022A000000044BB000038BB00001EBB000016BB92
:1022B00000002CBB000044BB00001EBB000000BBA4
:1022C0000000E8BA0000D4BA0000E0BA00009CBAEE
:1022D000000088BA000008BA000008BA0000803880
:1022E0000000B0390000B0B900000000000050BA92
:1022F0000000F0BA0000F8BA000028BB000068BB7C
:10230000000026BB0000C4BA000088BA000080B8F4
:10231000000000000000D039000040B90000E0BA21
:102320000000D8BA00009CBA0000A4BA0000CCBAE1
:1023300000009CBA0000BCBA0000D4BA0000C4BAC5
:10234000000008BB0000D4BA000038BA0000F0B9A1
:10235000000080B90000B0B9000038BA0000B0B980
:102360000000D0B9000040B9000090B9000080B86A
:102370000000503A0000803A0000803A0000083A1D
:102380000000503A0000603A0000283A0000083A85
:10239000000080B8000080390000803800008038DC
:1023A0000000703A0000403A0000083A0000B0B95E
:1023B0000000D8BA0000E0BA00001EBB000012BB4B
:1023C00000009CBA000098BA000088BA000088BAE1
:1023D000000038BA000060BA000050BA0000BCBA71
:1023E0000000F8BA0000F0BA000016BB00000ABBFB
:1023F000000028BB000012BB0000CCBA0000A4BA49
:10240000000028BA000018BA000070BA0000B4BA80
:10241000000004BB00000EBB000004BB000090B92C
:102420000000083A0000083A000090B900000000DF
:10243000000018BA00000000000080B9000098BA3F
:10244000000008BB0000B4BA000040B9000080B929
:102450000000083A0000B43A0000983A0000383A08
:102460000000083A0000803A000000390000F0390E
:1024700000008038000088BA0000C4BA0000A4BA86
:10248000000050BA000028BA000008BA000000009E
:102490000000403A00000000000050BA0000A4BA5A
:1024A000000038BA00000000000090B9000080B8B9
:1024B0000000D039000090390000503A0000083A7E
:1024C000000080B8000090B9000080B8000080B81B
:1024D0000000D0390000983A0000E83A00002C3B98
:1024E0000000D83A0000BC3A0000D43A0000903A0C
:1024F00000000039000090B900009CBA000050BAFA
:1025000000009CBA0000B4BA0000D4BA0000A4BA1B
:10251000000080BA0000A4BA000090B90000183A88
:1025200000000000000080B80000A4BA00009CBABF
:102530000000F0BA0000ACBA000000B90000B039E9
:102540000000503A0000B43A0000E83A0000F83ABF
:102550000000903A000040B9000050BA0000D8BA1C
:10256000000008BA0000D4BA0000D4BA000050BA83
:10257000000060BA0000ACBA0000E8BA0000BCBAC3
:10258000000090B90000A43A0000E83A0000003BC7
:102590000000283B00001A3B0000CC3A0000703AD3
:1025A0000000B0B9000088BA000098BA000050BA24
:1025B000000080BA0000C4BA0000D4BA000088BA93
:1025C000000080B9000000000000B03900000000E9
:1025D0000000A4BA000050BA0000E0BA0000A4BA9B
:1025E000000040B9000000000000B0390000283AA7
:1025F000000090B9000060BA000080B90000903976
:10260000000040390000883A0000C43A0000B43AA3
:102610000000D83A000000B90000B0390000083AC4
:102620000000703A0000503A0000D03900008038B5
:1026300000000000000090B9000040B9000008BA96
:10264000000050BA0000D8BA000008BB000008BB68
:102650000000BCBA000038BA0000F0B90000000069
:102660000000D0B9000008BA00000ABB00001ABB85
:10267000000026BB0000B4BA00000ABB0000ACBAE0
:10268000000080380000B039000040B9000050BAA6
:10269000000018BA0000D039000040390000383A74
:1026A0000000E83A00000A3B0000163B0000183A20
:1026B00000000000000060BA000026BB00004EBB16
:1026C000000030BB000038BB0000D8BA0000D0B911
:1026D0000000A43A0000B43A00009C3A0000183A06
:1026E000000080380000B0B9000040390000903987
:1026F000000090BA000004BB000022BB000044BBF5
:1027000000004EBB00001ABB0000A4BA0000B0B924
:10271000000080B80000000000008039000080B890
:10272000000028BA000000B90000BC3A0000263BB7
:1027300000000E3B0000BC3A0000183A0000B0391F
:102740000000803800000000000040390000F0B9AF
:10275000000090B90000283A000040390000000055
:102760000000183A0000F039000000000000D039E5
:102770000000403A000090390000BCBA000008BBDD
:1027800000000EBB00001ABB00004EBB00004ABB9D
:10279000000056BB000026BB0000E8BA000060BA8B
:1027A0000000BCBA000090BA000050BA0000F0B9B6
:1027B000000050BA0000BCBA000040B90000D0B917
:1027C00000009039000018BA000040B9000050BA6B
:1027D000000008BA000098BA0000CCBA0000E0BAC5
:1027E0000000F0BA0000F8BA00009CBA000008BB74
:1027F000000012BB00001ABB000008BB0000F8BAC2
:10280000000070BA000000000000403A0000603A8A
:102810000000A43A0000B0B90000A4BA000026BB32
:10282000000062BB00005EBB00001EBB000040BB9E
:102830000000D4BA0000D8BA00002CBB00003CBB9A
:10284000000000BB000018BA000050BA00000039B8
:102850000000B0390000383A0000883A0000983A89
:102860000000B43A0000AC3A0000803A0000803822
:10287000000040390000503A000000B90000D0B913
:10288000000000000000183A00009C3A0000F039F7
:102890000000D0390000A43A0000AC3A000000006B
:1028A00000008039000040B9000000390000F03914
:1028B0000000803A000028BA000080BA0000803989
:1028C0000000183A000040B9000080BA000098BA31
:1028D000000018BA000040B90000A4BA0000A4BA71
:1028E0000000BCBA000008BB0000F0BA000004BB46
:1028F000000040BB00000ABB000080B80000183A8E
:1029000000009039000000B90000D039000000B983
:10291000000080B8000018BA000080380000D0B96C
:102920000000F0B9000080390000B0B9000090B993
:102930000000D0B90000D0B90000D8BA000030BB08
:1029400000000ABB0000B4BA000018BA00009039B9
:102950000000183A0000D0390000B039000080387B
:10296000000080380000903A0000BC3A0000083BAC
:102970000000F03A0000883A000000000000383AF9
:102980000000503A0000083A0000D039000040B979
:1029900000000000000098BA0000ACBA000008BABD
:1029A000000090390000D0390000AC3A0000E83A4D
:1029B00000009C3A000040B9000088BA0000CCBA80
:1029C0000000E0BA00000ABB0000D8BA000090BACC
:1029D000000000000000D0390000F83A00001A3B67
:1029E0000000C43A0000603A0000383A000008BA1B
:1029F000000090B9000098BA0000ACBA000090BA8C
:102A0000000018BA000040B9000090BA0000D8BA1F
:102A10000000D8BA000040BA0000F0390000503A77
:102A20000000403A00008038000080BA000008BA78
:102A300000000039000040B9000018BA00008038DA
:102A40000000F0BA0000D4BA00009CBA000080BABE
:102A5000000028BB000016BB000008BB000012BB32
:102A6000000022BB00000ABB00001ABB00001ABB1A
:102A7000000022BB000062BB000026BB000056BB6A
:102A8000000028BB000098BA0000D8BA000038BA8D
:102A90000000F0B900000000000000000000D8BAFB
:102AA000000028BB000026BB0000ACBA000028BB19
:102AB000000068BB000008BB000012BB000098BA11
:102AC0000000F03A0000A43A0000503A0000A43A96
:102AD00000002C3B0000403A0000403A0000383A29
:102AE0000000283A0000903900001A3B0000643BC7
:102AF0000000A43A0000F0390000223B00002C3B0B
:102B00000000983A0000B039000080B90000003998
:102B1000000080B90000603A0000A4BA0000B0B91B
:102B20000000F0B9000090B9000098BA0000B0B9F8
:102B3000000008BA000080B90000B4BA000044BB2D
:102B4000000056BB00004ABB0000E0BA0000ACBA6F
:102B5000000028BB000098BA000040B90000A4BAE9
:102B6000000070BA0000B4BA0000E0BA0000D8BAA1
:102B7000000022BB0000D4BA00000ABB0000E8BA83
:102B8000000018BA0000503A000040390000383AFE
:102B90000000E83A0000043B0000E83A0000083B6F
:102BA00000001E3B000000000000BCBA00002CBB6F
:102BB00000007CBB00009ABB00009ABB00004EBB2B
:102BC0000000D8BA0000A4BA000008BB0000083A10
:102BD0000000803A000080380000D03900009039B1
:102BE0000000503A0000B03900004039000050BAEF
:102BF000000088BA0000E8BA00009CBA000030BBB0
:102C0000000040B90000D0B90000403900000000C9
:102C10000000D0390000F0B90000F03900000000D9
:102C2000000000000000B0B9000080BA0000D8BA6F
:102C30000000F8BA0000C4BA0000B4BA0000B0B98D
:102C4000000090B90000503A0000183A0000D43A51
:102C50000000903A0000183A0000AC3A0000000072
:102C6000000008BA0000D4BA000040BA000070BAF0
:102C70000000D4BA000040B9000018BA000008BA39
:102C80000000D0B9000080B9000040BA0000F0B9DF
:102C90000000B0B9000070BA0000D4BA00009CBABD
:102CA00000009CBA0000A4BA00001ABB0000F0BAF1
:102CB00000001EBB000028BA000038BA0000B4BAF9
:102CC0000000D4BA000040BB00004ABB000052BB69
:102CD000000074BB00005EBB00004ABB00004ABBA2
:102CE000000000BB0000D8BA000028BB0000C4BA36
:102CF000000018BA0000BCBA000090B90000F0B99A
:102D0000000040BA000090BA000050BA0000000075
:102D1000000040B9000000B9000040BA0000D4BA79
:102D2000000022BB0000D8BA0000F8BA0000BCBA0C
:102D3000000004BB00004ABB000098BA000090BA33
:102D4000000038BA000040BA0000F0B90000D039E5
:102D50000000D039000008BA0000403A0000AC3A48
:102D60000000D83A0000183A0000AC3A0000803A5F
:102D70000000403900008039000000000000C4BAA3
:102D800000001ABB00000039000000390000D0B973
:102D90000000D4BA0000083A0000283A000008BA3F
:102DA0000000B0B9000080B800008039000040B9D0
:102DB0000000383A00008039000018BA0000D0B98D
:102DC00000000ABB0000E8BA00001ABB0000E8BA25
:102DD000000004BB0000F8BA000018BA00000000B0
:102DE000000028BA0000C4BA0000A4BA0000A4BAC7
:102DF0000000ACBA000012BB000038BA000040BAB4
:102E0000000088BA00000000000098BA0000BCBAB8
:102E1000000016BB0000F8BA0000E8BA00001EBBB4
:102E2000000050BA0000ACBA0000BCBA0000BCBA46
:102E3000000034BB000030BB000026BB0000CCBA51
:102E400000000EBB000070BA0000D0B90000183AB4
:102E5000000028BA0000CCBA0000F0BA000038BA6E
:102E6000000000B9000000B9000080390000383AC5
:102E70000000B0390000C43A0000F83A0000AC3A53
:102E800000000000000090B9000098BA000090B95E
:102E90000000BCBA000050BA000018BA0000A43A02
:102EA0000000383A00001E3B0000F0390000903965
:102EB0000000F03A0000D0B90000D4BA0000903908
:102EC0000000CC3A0000883A0000CC3A0000C43A36
:102ED0000000C43A0000A43A0000123B00001E3B70
:102EE0000000903A0000383A0000403A0000803A72
:102EF00000008039000080B800004039000028BA86
:102F0000000018BA0000000000000039000038BAC4
:102F1000000000000000D03900009039000098BA8D
:102F2000000098BA000070BA000088BA000028BA01
:102F30000000B0B90000883A00000039000070BA03
:102F4000000038BA0000A4BA0000D8BA0000E0BA05
:102F5000000008BA000070BA000040390000403993
:102F600000008038000090390000B0B90000ACBA11
:102F7000000016BB0000F8BA0000B4BA000026BB7F
:102F80000000E0BA000040B90000883A0000123B9F
:102F900000000A3B00009C3A000040BA0000B4BAAE
:102FA0000000CCBA0000ACBA000060BA00004039A2
:102FB0000000383A000080B80000283A000080394C
:102FC0000000B0B90000B0B9000000000000B0B9C6
:102FD0000000A4BA00009CBA0000C4BA00009CBA69
:102FE000000098BA000008BA0000AC3A0000883A25
:102FF000000040390000B0B90000B0B9000000394D
:103000000000403A0000803A000038BA0000403921
:10301000000028BA000080B80000D0B9000040B914
:10302000000080B80000403A000080B80000603A1C
:10303000000080B80000BCBA000080B90000ACBA43
:103040000000F0BA00000ABB0000B4BA000018BAD1
:103050000000ACBA00001EBB0000E8BA000000B9D6
:103060000000D0B9000000B90000E8BA000038BA8A
:10307000000070BA0000D0B900000000000040B9A4
:10308000000040BA00000EBB000008BB000000B901
:10309000000090B900000039000080B8000040B97D
:1030A0000000B039000060BA000040B9000050BA1A
:1030B000000008BA0000C4BA0000F0B9000080B9EE
:1030C000000000000000F0390000F0390000403935
:1030D0000000D0B9000018BA00009CBA0000CCBAB9
:1030E0000000E0BA000040B9000080B8000000B95C
:1030F0000000803900008038000000390000B0B9BD
:103100000000D4BA000038BA0000F039000000B95D
:103110000000D0B9000080B90000383A0000383B08
:103120000000403B0000D83A00000E3B0000123B7C
:103130000000283B0000F03A000028BA000087BBDE
:103140000000A4BA0000F0B90000CC3A0000D0B9E9
:103150000000C43A00000E3B0000703A000000B9C5
:103160000000B0B90000F0B9000000000000F03924
:103170000000ACBA000080B9000038BA0000BCBA48
:10318000000016BB000008BB000008BB0000ACBA82
:10319000000000B9000080380000D4BA000028BA4E
:1031A0000000383A0000283A0000F0B90000B039B9
:1031B0000000E8BA000080BA000050BA000098BAD7
:1031C000000081BB000070BB0000C9BB0000DFBB7A
:1031D0000000C3BB00005ABB0000173C00A027BD85
:1031E00000802C3C0000D0390000CBBB000016BC96
:1031F000000016BB00008D3B00004EBB000094BBDE
:103200000000123B00003C3B0000F0B90000F03A27
:103210000000D83A0000E8BA0000D8BB000080B92E
:103220000000BFBB00009EBB0000AEBB000070BB37
:10323000000008BA00800FBC0000873B000026BBDE
:103240000000D8BB0000E83A00000EBB0000CBBB7A
:1032500000C0EDBC00C0CFBC004085BC0000403ABF
:103260000000F03B0000AE3B0000A73B0000623BCB
:1032700000008D3B0000EE3B0000F23B0000243CD0
:1032800000800B3C0000073C0000B23B0000E3BBA9
:1032900000804BBC008077BC0000803C0000C1BBBC
:1032A0000000DFBB000028BC00007CBB0000503ADF
:1032B00000009ABB0000443B0000BCBA00004E3B3B
:1032C0000000623B000000390000923B0000A1BBFF
:1032D0000000BCBA0000853B000008BB0000D8BA63
:1032E0000000963B0000703A0000ECBB00000A3B77
:1032F000000080390000CCBA0000CC3A0000D0B900
:1033000000009CBA0000E0BA0000A7BB000068BB48
:103310000000D03B000026BB0000DB3B0000CC3AA5
:10332000000000B90000F8BB0000883A000090BA25
:103330000000D8BB0000F8BB000040BC0000A7BBE9
:103340000000003B0000603A000009BC00C084BCE3
:10335000000094BB00004E3B000004BB00001EBBFD
:10336000000012BB0000A5BC008039BC0000503A30
:103370000000A73B000040390000083A0000F0B907
:103380000000453C000038BA0000DD3B0000A9BB4E
:1033900000001A3B0000343B0000183C000038BA23
:1033A0000000C73B00004A3B0000B0390000E9BB09
:1033B000004092BC00008FBB00001ABC000083BB21
:1033C000000096BB000080390000E9BB0000E83A2D
:1033D000000080BA0000B43B0000983C0000193C9B
:1033E00000804A3C0000A53B0000403A0000283C19
:1033F0000000C73B00001E3B000092BB0000043BE6
:1034000000003CBB00802F3C0000AD3B008011BCA5
:103410000000ADBB008002BC000004BB0000D0BBBC
:103420000000A4BA0000C7BB0000D6BB0000903962
:103430000000403B000028BA0000B03B0000A33B66
:103440000000E8BA00009EBB00005A3B0000F0BA42
:103450000000C43A0000CCBA000028BA000080BBCB
:10346000000004BB00009C3A0000523B00000EBB71
:1034700000000BBC00801ABC000089BB0000ABBB85
:10348000000081BB00001A3B00008038000034BB04
:103490000000FB3B0000D0BB00006C3B00800D3CFB
:1034A000000038BB000090B9000090390000F0BB6C
:1034B0000000FBBB0000283A00801EBC0000983BC7
:1034C0000000F0BA000080B80000C4BA0000D63B8B
:1034D0000000383B000028BB0080303C0000E5BB0A
:1034E0000000EA3B00009C3A0000B63B0000C9BB6C
:1034F000000004BB0000B4BB000070BB0000A13B97
:103500000000003B0000DB3B0000F03A0000B63B4F
:103510000000E8BA000050BA00003C3B00007C3BD1
:1035200000008038000022BC0000403B008000BC4E
:103530000000403B000004BB000005BC0000B4BA22
:10354000000046BB0000683B0000F6BB0000BC3B2F
:103550000000163B0000B43A0000703A000092BB35
:103560000000F0BA0000833B0000ACBA0000A5BB2D
:1035700000005EBB00009CBA0000BCBB000098BA13
:103580000000E33B0000B2BB0000AD3B0000ACBA62
:103590000000D0B90000D43A00000A3B00009A3B7A
:1035A0000000A7BB0000183A0000F03A000016BB6C
:1035B0000000503A00007CBB0000383A0000A93BF4
:1035C0000000283A0000B43A0000643B0000C73B0A
:1035D0000000F0BB00000A3B000004BB0000A4BADE
:1035E000000094BB0000E0BA00000ABB0000FFBB73
:1035F0000000DA3B000092BB000050BA0000003926
:103600000000983A0000A73B0000643B000098BA15
:103610000000B0390000C1BB0000D83B0000803A78
:10362000000000B90000A53B00008DBB000044BBBA
:103630000000803800009CBA008039BC0000DABB72
:1036400000004ABB0000A1BB00009C3A0000EA3B1E
:103650000000B03B0000083C0000703A0000C73B8F
:103660000000A33B0000883A00008FBB0000B0B907
:10367000000030BB00007CBB000090BB000008BB1A
:10368000008001BC0000D2BB0000D4BB0000ABBB7B
:103690000000B4BB0000D4BB0000E7BB0000A5BB2A
:1036A00000003CBB0000ADBB0000A5BB000083BB1D
:1036B000000080BB000068BB000085BB00003CBB75
:1036C0000000C5BB0000D2BB00001EBB00008FBBCA
:1036D0000000A5BB000022BB0000A1BB000005BC90
:1036E000000016BC000081BB000098BB000074BB4A
:1036F0000000F4BB0000D8BB000028BB0000F8BAF3
:103700000000383A000000000000CC3A00004A3BBC
:103710000000F0B900008F3B0000CCBA0000CCBB29
:103720000000083B0000873B000080BB000064BB3A
:10373000000096BB000026BB0000BABB000060BAC8
:1037400000008DBB000083BB000022BB0000503A8C
:103750000000C3BB00000000000050BA000094BB92
:10376000000080B900008B3B0000E5BB000062BB9D
:103770000000383B00800FBC0000A9BB0000503A9D
:10378000000000B9000090B90000C4BA0000B43ACB
:103790000000C9BB00004EBB00007C3B0000ACBA7F
:1037A0000000F6BB0000BDBB000078BB00009CBB66
:1037B000000081BB00004ABB000000B9000090BAC5
:1037C000000000B90000A9BB00000000000000B923
:1037D000000050BA000038BB00006CBB000080380D
:1037E0000000083A00008038000098BA0000CCBA07
:1037F000000034BB0000BC3A00004039000008BAA9
:10380000000040B9000060BA0000BDBB0000803875
:103810000000703B0000703A000085BB000080395A
:103820000000703A0000A43A000016BC000026BB5D
:103830000000F83A0000803800008BBB0000443BD9
:103840000000083A000080B90000B43A000038BA1D
:103850000000B0B90000D2BB0000D4BA0000ACBA7E
:10386000000078BB000080B9000078BB000085BB79
:103870000000F8BA000080B90000CCBA0000A1BB7B
:10388000000008BB00009CBA0000D43A00000E3BC8
:1038900000008DBB0000083A0000D4BA0000783B5D
:1038A0000000303B000090390000BD3B00009C3A16
:1038B0000000D0B9000094BB0000CEBB0000CB3BA1
:1038C000000062BB000098BA000000B90000703B25
:1038D0000000A43A0000873B0000963B00001A3B22
:1038E00000004039000080390000F0BA0000043BBD
:1038F0000000F83A0000983A000016BB00003CBBFC
:103900000000F0BA00000ABB00009E3B0000443BF0
:10391000000080BA0000223B0000D4BA0000D0B9F9
:1039200000000A3B000068BB000056BB0000623B81
:103930000000A9BB000053BC000080380000983B89
:103940000000603A000004BB00009CBA00009C3BF1
:103950000000F0B900800EBC00009C3B0000503A13
:103960000000A1BB0000A73B000090B9000035BCDF
:103970000000623B00006C3B00004ABB0000CC3AF8
:103980000000703A000085BB00003C3B000040B9DD
:10399000000000390000BC3A00801EBC0000BABB29
:1039A00000009C3A00008BBB0000B4BA00008F3BC3
:1039B0000000A9BB000085BB000034BB00001A3B1F
:1039C00000801F3C0000DF3B00009CBA0000603A12
:1039D000000088BA0000F0BA00009A3B0000503A9C
:1039E0000000563B0000283A0000F8BB00009EBBD8
:1039F0000000923B0000B83B00000EBB000016BB6D
:103A000000001A3B00000E3B0000003900004E3B56
:103A10000000ACBA000092BB0000383B000096BB2F
:103A20000000903900000EBB0000D43A0000B4BA88
:103A3000000088BA00004A3B000062BB00000ABBDD
:103A4000000012BB000060BA0000903B0000C3BB46
:103A50000000BDBB0000F8BA0000000000002CBB55
:103A600000007CBB0000A4BA000028BB000098BA8C
:103A70000000A73B00005E3B008001BC000000BBD3
:103A80000080013C000034BB00008DBB000044BB43
:103A900000005ABB000068BB000022BB00009ABBBC
:103AA0000000923B0000803A000005BC0000F2BB21
:103AB0000000B4BB0000703B0000283B0000F0BADF
:103AC000000096BB00002CBB0000CC3B00000ABBF2
:103AD00000006CBB0000E03A000089BB00003CBB6A
:103AE0000000083A0000703A0000263B000040BA8F
:103AF000000044BB000070BB000070BA000085BB32
:103B00000000F03A00001A3B0000E03A00000039E3
:103B100000C089BC0000D4BB000012BB000085BB04
:103B2000000026BB000040BA0000CE3B0000BC3ABB
:103B300000000E3B0000153C0000133C0000343B2D
:103B40000000A13B00001A3B0000F0B9000012BBCE
:103B50000000873B00008DBB000050BA00008BBB0B
:103B6000000038BB000090BB0000E9BB000016BCA1
:103B700000001ABB0080753C0000E8BA000008BCD9
:103B800000004ABB00802C3C0000893B000028BAA2
:103B90000000AC3A0000CC3A0000603A00802ABC39
:103BA000000031BC0000F9BB000062BB0000EEBBAE
:103BB000000090BA000026BB00800FBC0000283A2D
:103BC0000000BF3B000009BC0000903900000A3C27
:103BD0000000CCBB000080BB0000F6BB00004A3BED
:103BE0000000EC3B000080B80000B8BB000052BCF5
:103BF0000000CEBB000080BA0000E03A000005BC27
:103C000000007CBB0000FB3B0000CB3B000026BB60
:103C1000000000B9000000B900001EBB000016BB88
:103C2000000080380000A1BB0000D83A0000BF3B74
:103C30000000A43A0000DABB0000403B00005A3B01
:103C40000000AB3B00004EBB00009FBB0000833B6D
:103C50000000A13B000070BB000090BA00008B3B4D
:103C60000000083A0000F0BB008030BC000016BB2A
:103C7000000092BB000083BB000044BB0000083A78
:103C8000004082BC000074BC0000683B0000903A19
:103C90000000FDBB0000D8BB0000D83A0000E73BA5
:103CA0000000BABB000022BB0080383C0000403C52
:103CB0000000E0BA0000B4BB0000703A0000D2BBC4
:103CC0000000BCBB0000C43A0000D03B0000CEBBEB
:103CD000000022BC0000BC3A0000163B000016BBEE
:103CE0000000683B0000BC3B0000B43A0000643BAD
:103CF0000000F03A0000D0390000343B0000C1BBA6
:103D0000008020BC000028BB00000000000018BAA2
:103D100000008DBB000096BB000074BB008021BC7E
:103D2000000098BA00002C3B0000D8BB0000AC3A61
:103D30000000903A008038BC00C0A1BC000050BA1E
:103D40000080483C000074BB000031BC000008BB90
:103D50000000603A008056BC0000B4BB0000CE3BBF
:103D60000000403B000083BB000087BB000008BC94
:103D70000000F2BB0000DFBB0000A13B0000383AAE
:103D8000000018BC00008BBB0000F0B9000080B838
:103D90000000883A0000043C0000BD3B000070BBFE
:103DA000008003BC0000523B0000253C0000A43A08
:103DB000000090B90000B63B0000A43A00008DBBA3
:103DC000000080B80000943B0000A73B000000000A
:103DD000000008BA00004ABB0000BCBB000040BBAA
:103DE0000000703B00009E3B000000B9000004BBD7
:103DF000000028BB000092BB000014BC008020BC67
:103E00000000E3BB0000BCBB000007BC000024BCFA
:103E1000000004BC000005BC000007BC000094BB0F
:103E2000000056BB000062BB0000A5BB00001A3BAF
:103E30000000873B0000643B0000ACBA00000000BB
:103E40000000003900000EBB0000603A0000CE3BCD
:103E50000000CB3B00005EBB000050BA00009A3B64
:103E600000004A3B00009C3A00004E3B0000A53B8E
:103E70000000A33B0000BA3B0080203C00803F3C98
:103E80000000073C0000DF3B0000CE3B0000AD3BE4
:103E90000000403B0000083B0000BCBA00800EBCA4
:103EA000000041BC00800CBC000034BC000033BCEE
:103EB000008068BC00803ABC000025BC00802CBC9F
:103EC000000050BC00007CBC008058BC00005EBC00
:103ED00000805DBC00803BBC0000F0BB00801CBCCF
:103EE000008069BC000017BC0000E1BB0000B4BB4F
:103EF000000026BB0000CB3B00802F3C0000503C64
:103F00000000A53C0080FE3C0020183D00601F3DE5
:103F10000040293D0040333D00604D3D00E05B3DE9
:103F200000807F3D00D0823D00E07D3D0000133DDC
:103F300000008039008077BC000097BC008086BC00
:103F400000C0C5BC006026BD000059BD004077BD63
:103F5000007082BD00A076BD00C01CBD0000A6BCE4
:103F600000C099BC000004BD008012BD0080B4BC3C
:103F70000000D4BB00002CBB0000F4BB0040B1BC6F
:103F800000E009BD004034BD00A050BD00402DBD83
:103F90000000FEBC0000D2BC0040DEBC00C0C6BCBD
:103FA00000803DBC0000223C0040003D00A0393DA7
:103FB00000C0613D0050843D00B09A3D00F0A93D35
:103FC0000030B73D0080D53D0030DA3D0090B33D74
:103FD00000E00C3D00803CBC00C0C0BC0000AEBC9A
:103FE0000080BCBC00A01BBD000073BD006099BD7B
:103FF0000010B3BD0040ACBD00E05BBD000081BC63
:104000000080303C0000153C0000D43A00008F3B9B
:1040100000C0983C0040E43C0040FD3C00408C3C2B
:104020000000F9BB00A017BD00B084BD00D094BD56
:1040300000C090BD00608EBD00008DBD00F08BBD46
:10404000004077BD00602EBD00C08ABC0000323C3D
:104050000000F73C00A0233D0020543D00207E3DA1
:104060000040903D0060A53D00D0B23D0010BB3D3A
:104070000090BA3D0080B93D0040BD3D0040873D05
:104080000000143C00C0B6BC00C0BFBC0000A4BC13
:104090000080DFBC002041BD00205FBD000081BD6D
:1040A0000040A5BD009093BD006010BD00005A3BCC
:1040B00000C0B13C0080493C00803B3C0000AE3C6D
:1040C00000C0ED3C00C00A3D0080F03C00C0833CD5
:1040D000000054BC00E04FBD00D0A3BD0040B2BD05
:1040E0000010B1BD00D0ABBD0000ADBD0070ADBDD6
:1040F00000E099BD004070BD0040CFBC00802B3C6B
:1041000000C01C3D00405E3D0040743D0070823D9B
:1041100000809B3D00A0B93D0070D33D0060E33DB1
:104120000060DD3D0080D23D0040A93D00C0A93CBB
:104130000000E3BC00C01ABD002002BD008003BD2A
:10414000008051BD004081BD00B091BD0060B0BD98
:104150000080ACBD00C058BD0000CCBB00C0D43C4A
:1041600000C0DB3C0080BD3C0080D03C00400E3DE8
:104170000040313D00404E3D0020393D00C08C3CA8
:104180000000E2BC00808CBD00C0B9BD00F0C5BD20
:1041900000D0BEBD00C0B3BD0010B3BD00A0B0BD17
:1041A0000070A4BD004060BD00006FBC00C0C63CF4
:1041B0000020483D00207A3D0090873D00D09A3D88
:1041C0000010C43D0070E53D0080F93D00B8013E9F
:1041D00000A0F93D0090CB3D00601B3D0040ECBCD1
:1041E00000C04EBD000043BD000022BD00E04FBD39
:1041F000008085BD003095BD0080BBBD0040C8BDBE
:1042000000108CBD008086BC0040073D0060323D40
:104210000040223D00401A3D00201F3D0060453D0A
:1042200000E0633D0050803D00C0213D00802DBC7A
:10423000003082BD0060C1BD00E0D3BD0020CEBD16
:104240000060BDBD0000B0BD00A0B0BD00C0B1BDEC
:10425000003097BD00E023BD00001A3C0040423D05
:1042600000E08C3D00D0A13D00209C3D0020AB3DF6
:1042700000F0CE3D0000FD3D00F80B3E0078063E0C
:1042800000C0EA3D00A05B3D0000E0BC00407CBDFA
:1042900000007FBD00C034BD00404FBD007084BD34
:1042A00000909ABD0000CBBD0010D7BD00D0A5BDC9
:1042B0000080CABC0040043D0060503D0000433D0A
:1042C0000000353D00A02A3D0020443D0000743D23
:1042D0000090A03D00A0883D0080883C00C03ABD11
:1042E0000040BBBD00A0DDBD00B0DFBD00F0C7BD1C
:1042F00000D0A7BD0060ACBD0020C1BD00C0BDBDE9
:1043000000807EBD000046BC0040EB3C00008D3DBF
:104310000010B73D00A0B33D00E0A43D0010AF3D4C
:1043200000B0DF3D00A8073E00500F3E00280A3EC7
:104330000070BC3D0000883A00D085BD0080AABD59
:1043400000C076BD008047BD004070BD008085BDC7
:104350000080B9BD00B0E3BD0030E0BD00C07BBD52
:104360000000243C0080593D0000713D00A0443D08
:104370000060103D00800B3D00A0233D00F08B3D10
:1043800000F0A93D0080563D0000FFBB00C09BBD72
:1043900000E0E4BD00F0FFBD0020DFBD0080AABD4D
:1043A000002098BD00409DBD0000BFBD0080A8BD9D
:1043B00000E039BD0000AC3A00005A3D00F0B43DC9
:1043C0000020CE3D00F0B63D0040A53D0030C03D90
:1043D00000E0F33D0080103E00681B3E0088073E71
:1043E00000404A3D004028BD0030ADBD0000A1BDE9
:1043F00000605CBD00E057BD00205CBD00009ABDC0
:104400000050DCBD006000BE0080C4BD0000B3BC35
:104410000040213D00E08A3D0040893D00404F3D85
:104420000080243D0060083D0040703D0090B63D96
:104430000050A93D0060223D00802CBD0040CCBD55
:1044400000E006BE00D00ABE0020D9BD0000ABBD12
:1044500000C08CBD00C0B1BD0040C7BD00009CBD08
:1044600000A017BD00C0B63C00608C3D0060D03D90
:104470000070D63D00C0B03D0010B13D0090D13D70
:104480000010063E00481B3E00281F3E0020F43D61
:1044900000008D3C00006DBD0010B5BD00908FBDCB
:1044A000000055BD004068BD00E05FBD00D0B4BD58
:1044B00000D0EEBD0020FFBD00009FBD0000183AF7
:1044C00000004F3D00908B3D0020763D00202F3DA9
:1044D00000C00E3D00A00F3D0090933D0010C23D76
:1044E0000040AA3D0000EF3C008051BD0050CFBD10
:1044F00000700EBE00B008BE0040DDBD00C0B1BD02
:1045000000F098BD0030C8BD0090C9BD0080A5BDB9
:10451000006013BD0000BA3C00308C3D0070D13DFE
:104520000000C53D0000AE3D0060B03D0080D23DC2
:104530000020063E0050143E00C01A3E00D0E13D6F
:104540000080593C00004FBD00609FBD002066BD4B
:1045500000E041BD00A054BD00405ABD00B0B6BD52
:1045600000A0E4BD0080FFBD00F092BD000040BB94
:1045700000E0223D00206E3D0040433D00A0233D71
:1045800000400B3D0020393D0070A93D0030CB3D7F
:1045900000F0B63D0040EE3C008019BD0060ACBDAF
:1045A00000B0F2BD0060ECBD0040D0BD0070ABBDFE
:1045B0000050AFBD00C0DDBD0080D3BD0090A2BDE6
:1045C00000E005BD00804A3C00E05A3D0040A13DAE
:1045D0000060A13D00609F3D00E0AE3D0000E33D76
:1045E00000B0093E0040113E00600E3E00D0DA3DB2
:1045F0000080CA3C000013BD00207ABD00A02BBD86
:10460000000016BD00E048BD000081BD0060C5BDD2
:1046100000C0E8BD0090FEBD006098BD00C081BC38
:1046200000C0CE3C00C0063D0040C53C0000D43C6C
:1046300000A0053D00C05C3D0000BA3D0010D93D22
:1046400000C0B13D00A0053D00C0C8BC00A083BDB6
:104650000000BCBD0040BBBD00D0B4BD0000ADBD7E
:104660000010CFBD0060F3BD0010DEBD0090A0BD06
:10467000004012BD000060BA0080073D00C05C3DF4
:104680000000703D00708B3D00F0B63D0050F83DDD
:1046900000E8103E00B8143E00380A3E00C0F53D68
:1046A00000406C3D00001A3B0000B6BC00C082BC5C
:1046B00000802FBC000022BD004074BD0000B2BDD0
:1046C0000040CABD0010E4BD00E0A6BD002010BD42
:1046D0000000C7BB000012BB00801DBC00000E3BE9
:1046E0000080D03C00204D3D0030A43D0000BF3D87
:1046F00000C0A13D00C0283D008002BC00C0F4BC49
:10470000000064BD006072BD00C09BBD0000B6BD6E
:104710000040E6BD001003BE0040E3BD0080A6BD22
:10472000006044BD0000F6BC000052BC0000A73B86
:104730000000953C0080333D00109E3D0080EE3D22
:104740000020043E0020F93D00D0E33D0010E63D8E
:104750000030D33D00A05F3D0080D33C00001A3CF8
:104760000000C93B0000E2BC002060BD00D080BD5D
:10477000008097BD00F0A9BD00F0BDBD00F081BD77
:10478000000028BD0080DFBC00C0DEBC00801FBC74
:1047900000C0AE3C00003C3D00207D3D0080A13DBE
:1047A00000C0973D0060763D0000D13C0000313CE8
:1047B0000000F8BB0000F8BC00A069BD0010AFBD50
:1047C0000050C2BD00A0E0BD0030CFBD0080B5BD2F
:1047D00000608EBD001086BD00606EBD000004BD8F
:1047E0000000E7BB0040913C0020493D0090A53D02
:1047F0000060CA3D0020C13D0030C83D00A0E63D3C
:104800000078093E0040D63D00805C3D0000EF3C52
:104810000040A13C00C08A3C00C0A9BC0040FABCDA
:1048200000A05EBD009095BD0060D2BD0020C5BD5A
:1048300000E082BD008059BD00A05ABD002060BDCF
:104840000040B8BC0080293C0020023D00E0563DFD
:104850000000833D00E06A3D00A01E3D0080CA3C90
:1048600000400A3D00808E3C00802BBC00E05ABD19
:1048700000A097BD0050A8BD0010ADBD00209CBD9C
:1048800000E08EBD002096BD0060B0BD00009CBD64
:1048900000602EBD008000BC0040C03C00603E3D7A
:1048A00000A0883D0090963D0050AF3D0000E13DE6
:1048B00000280E3E00701F3E0020DF3D00406F3D8F
:1048C0000000283D0060353D00A01F3D000047BCB2
:1048D00000C00DBD00F096BD0040B4BD00D0E7BDE6
:1048E00000C0C0BD0000A5BD00B0B4BD00E0BDBDAE
:1048F00000E093BD00C092BC00803F3C00C0DC3CA7
:1049000000600C3D0080383D00004A3D00C0733D12
:104910000000983D0070983D00400A3D000050BCEA
:1049200000C02CBD00C02FBD006054BD00F080BD94
:1049300000F09FBD00F0BFBD00C0D9BD00F0D0BDEC
:10494000000090BD000017BD0040B2BC000015BCC7
:1049500000C09A3C00406C3D00B0A23D0030CB3D11
:104960000050F33D00F8123E0030233E00C00D3EE3
:1049700000E0BE3D00409B3D0000803D0020633DC7
:104980000000283A0000CCBC008060BD00909EBDB5
:1049900000A0D9BD00F0E5BD0090C5BD0020C3BD9D
:1049A0000070B1BD00C092BD00A009BD000046BCB2
:1049B0000000803B00409A3C0080433D0070803DF9
:1049C0000070953D0090913D00508A3D00C0213D12
:1049D0000000133C000028BC0040C0BC006044BD87
:1049E00000709ABD00A0C2BD00E0D9BD0000F6BDB8
:1049F0000020E8BD0080BDBD000090BD00805DBD11
:104A00000080E2BC0000FD3B00000E3D00C06C3D9C
:104A100000C0B13D0050F83D0088153E00481C3EE6
:104A200000D0243E0060FB3D0000A13D00608C3DB5
:104A30000040963D00C0703D0040A3BC00D082BD48
:104A40000090A9BD00509CBD0060C3BD00C0D1BD99
:104A50000060C3BD00B0B6BD00C092BD008046BDC1
:104A6000008057BC0000F0B900800B3C0080213D65
:104A70000030A63D0070BC3D00409D3D0050823D91
:104A800000D08F3D0080733D0040063D0000983A05
:104A90000000BDBC00605BBD0030ADBD00A0C6BD68
:104AA0000080D2BD0050E7BD00E0F1BD0000CEBDEA
:104AB000007091BD004073BD006027BD00805BBCED
:104AC0000040D63C00E06D3D0050AD3D0020D93D9A
:104AD00000A0EE3D0030013E00800D3E00880A3E01
:104AE0000080A63D00A0623D0080603D00804E3DFC
:104AF00000409BBC0040A3BD00E09DBD00B085BD53
:104B0000008094BD0040EEBD0010D5BD0090BEBD3C
:104B100000708BBD00C073BD0080F6BC000022BCDD
:104B20000000FD3B00400E3D0050973D00209F3DA2
:104B30000010883D0030883D0000BC3D0030B73D8E
:104B400000C0243D000078BB00007DBC002005BDF6
:104B500000608EBD0010C6BD00D0BCBD0060C3BDEE
:104B600000E0CABD0090C5BD00809DBD000087BDAE
:104B700000602BBD0000893B0080373D00E0533DC5
:104B800000D0803D0030CB3D0088063E0060033EF3
:104B90000000F43D00D0063E00C8023E0080593DB2
:104BA00000C0B63C0040C53C0080CA3C00605CBD13
:104BB0000060BFBD008088BD00C061BD0060BFBD9A
:104BC00000B00EBE00E0BBBD00207EBD00A063BDF6
:104BD00000D087BD000098BC00008E3C0000E33C84
:104BE00000400E3D00D0923D00209C3D0080923D53
:104BF0000080923D0040B23D0020453D000004BBD6
:104C0000000095BC000007BC006010BD0060B0BD96
:104C100000F0D0BD0060A5BD00E0ACBD0000D8BD77
:104C20000050C9BD008073BD000028BD00C0FABCA3
:104C3000000026BB0080FF3C0040593D00808E3DB7
:104C400000B0C53D0060E13D0060CE3D00E0CA3DE2
:104C500000D0DD3D0070ED3D00405D3D0000A13B1A
:104C600000601B3D0040463D00008DBB0020C3BDE1
:104C700000A05EBD008086BC00C04DBD0010F7BD29
:104C80000000BABD00C0A9BC00C0F9BC00C06CBD2A
:104C900000801ABD0000DB3C0080FE3C00809F3C91
:104CA00000C0113D00606E3D00C01C3D00C0FA3CDC
:104CB0000040253D0060093D000070BB00805DBCE8
:104CC000000088BA004013BD0010B9BD00C0A6BDE9
:104CD000008060BD004085BD0020D8BD000098BDAB
:104CE000002020BD00C0FABC008034BD00802CBC78
:104CF0000040EB3C00C0FB3C00200C3D0040563D1A
:104D000000F0943D00C0883D0050863D00409D3D30
:104D10000050A43D0060A53D0030863D0080863CEB
:104D20000000C53C0000083D0000333C008064BD2D
:104D300000E056BD0000183A0000D1BC00008FBD55
:104D400000D0A0BD0000123B0000FBBB008029BDCD
:104D5000000012BD0080DF3C0080D83C008010BC09
:104D600000008DBB0000433D00A0273D0080783C43
:104D70000080763C00C0FC3C0080573C00001ABC20
:104D800000001EBB000092BB00402CBD005082BD45
:104D9000008033BD002017BD003091BD004081BDB3
:104DA00000C00EBD00A014BD00D082BD00A03CBD5F
:104DB000008010BC008076BC0080A3BC0000EA3BF1
:104DC00000E0103D00C0E33C0000E03C0060623DBC
:104DD0000040873D00606E3D00E0863D00A0B73D8D
:104DE0000060103D0000223C00008B3D0080873DAC
:104DF00000004A3B004040BD00A04C3D00A0083DE3
:104E0000008061BD00F0B6BD0080483C0000563C0B
:104E10000040B6BD0090A5BD00802D3C0000873C41
:104E2000004087BD00E040BD0080303D0000FF3CF9
:104E300000E00FBD000092BB0080743D00E0093D22
:104E400000009DBC00C0843C0000533D000008BB36
:104E500000E040BD00809DBC000009BC00404EBD8C
:104E600000A0A4BD008015BD00600CBD00E05BBDCE
:104E7000000068BD00808EBC00808EBC0000EFBCCE
:104E8000000024BC0080473C0000803C00007E3CC9
:104E900000C02F3D00E06A3D00C0563D00007C3D53
:104EA0000020BA3D00B0CF3D0060833D00006F3C64
:104EB0000090863D00C0973D0000F23B00E02DBD14
:104EC0000080123C0060113D00108FBD0020B4BD79
:104ED0000000E3BC0000BF3B0080B9BD0020C1BDA5
:104EE0000000BABB0000BA3B00A072BD000019BDB3
:104EF0000040373D00E0393D0080CCBC0000263C3E
:104F00000040943D0060223D000060BC0000A43AD7
:104F100000603A3D00007CBB00203ABD00809FBC91
:104F2000000016BB00800EBD00F080BD0040D5BC67
:104F300000400BBD004052BD002053BD0040C6BC28
:104F40000000CBBC00A013BD008056BC000064BBB9
:104F50000000B0390000163C0000D93C0040F53C90
:104F600000C0F33C00E04B3D00205B3D00C0513DE4
:104F70000080833D00C0BB3D00D0983D0000D03B89
:104F80000080513D00B0B83D0080683C004047BD06
:104F90000000B43A00C0733D00A066BD0010C4BD5F
:104FA000000065BC00C0AF3C0030ADBD0080E2BD7C
:104FB00000001E3B0000783B00B0A2BD00E07DBDBC
:104FC00000400B3D0040923C00E053BD0000C5BBDB
:104FD00000D0983D0080BD3C0040D0BC00408B3CE0
:104FE0000000693D0000BABB008046BD0000B63B32
:104FF0000080BD3C0040B7BC00807ABD008075BC1D
:10500000000062BB00A02BBD00004FBD0080A4BC0F
:10501000000045BC00603ABD00C02CBD000008BCCB
:105020000000BCBA000089BC00C08ABC0080763C8D
:105030000040C13C00006F3C0000903C00803B3DC4
:105040000090843D00606E3D0040813D0010863D33
:105050000080163D00108E3D0020753D0000073C8D
:10506000000033BC0000B33C0040933C00709CBD8A
:1050700000606EBD000064BC00000BBD00A0D0BD90
:1050800000606EBD0000A73B00E01FBD00F098BDB2
:10509000000052BB0060183D000080BB00C089BC0E
:1050A00000E05B3D0070913D00005E3B00007F3CF6
:1050B00000C0553D00804A3D000035BC0000CCBA20
:1050C0000000DA3C008000BC00C015BD00E03DBD22
:1050D0000000C2BC004013BD008061BD00007FBD68
:1050E000004038BD00200CBD00404BBD00C03BBDA2
:1050F000008038BC00000A3B004099BC000005BCA1
:1051000000E0093D00400E3D0000EE3B0040DE3C6B
:1051100000B0803D0080593D00C0023D00A0693DC7
:105120000010A83D0040C53C0000A93B0090893D0F
:105130000040293D0040CEBC0080B4BC00200D3DA5
:105140000080ABBC0090ADBD002008BD000088BA57
:10515000002058BD008096BD0000EABB0000603A08
:10516000004046BD0040BEBC00E0103D00009F3C3A
:10517000000045BC0080493C0060453D0000403CCB
:1051800000804EBC00801D3C0080293C00804EBC4D
:1051900000A009BD00C0C0BC0080F8BC004003BD39
:1051A000006011BD004025BD006014BD0040A2BCE0
:1051B00000008DBC0080B2BC0000F8BB00004F3C7A
:1051C0000000B03B0000903A0040B23C0080023D3D
:1051D0000080693C0000153C00C0EA3C0080C33CF4
:1051E00000806A3C0080493C0000A43C0000263C52
:1051F0000000AB3B0080A33C0080BA3C00C0A03C58
:1052000000803A3C0000DA3C00C0AE3C00001A3C92
:1052100000008E3C0000513C00804E3C000040BB32
:10522000000026BB00001ABC000065BC008088BCE2
:1052300000C0F2BC0040F4BC00C0F4BC0000F2BCF2
:10524000002023BD0080FFBC008049BC000095BC4D
:105250000040E3BC00006FBC000034BB0000E5BBB5
:105260000040C7BC008030BC000080BA0000F6BB24
:1052700000C0B9BC004085BC0000C7BB008074BC46
:1052800000409ABC000047BC000032BC008039BC22
:10529000008068BC008001BC000022BB000046BB4F
:1052A000000022BC00006CBB0080023C00802E3C51
:1052B00000009F3B00C0923C00E0143D0040123DC6
:1052C00000400A3D00E07D3D0060B73D0060873D45
:1052D00000C0EA3C00E09D3D00F0C93D00408B3C31
:1052E00000800BBC0040343D0080163D00A06DBD29
:1052F000006072BD0000283A00C024BD00B0D6BDD9
:1053000000108EBD0000BABC00C081BD0080B5BDDC
:10531000006013BD000092BB0040FDBC0040D6BC45
:105320000080383C0000D13C0000D83B00C0833CEA
:1053300000A0053D00C0DC3C0000A43C0000C33BD5
:105340000000FF3B00005A3B000038BA000088BC58
:105350000040F4BC00C08CBC0040CFBC00A03CBDF1
:10536000008012BD000060BC0000E1BC004033BD05
:1053700000C099BC0000CE3B008066BC000055BC5C
:1053800000C0A23C00C0063D0000253C0000463C99
:1053900000A0173D00C0F43C00805B3C0080563C00
:1053A0000000B33C00007E3C0000083A0000CC3B0B
:1053B0000000073C0000F83B0000D8BA0000123B98
:1053C0000000523B0000D63B00004A3B0000E83A98
:1053D000000000390000163B00009F3B000088BA27
:1053E000000040BB0000F0390000703A00005FBCD4
:1053F00000408BBC00001ABC000024BC0040A3BCD1
:105400000040B2BC008056BC0080A4BC0000D1BCEF
:105410000000A6BC000037BC000081BC00809FBC1F
:1054200000000BBC000070BA000008BA0000F03A9F
:1054300000004F3C00809C3C00008F3C00C0893C39
:1054400000C0AA3C0040B63C00C0983C0080673CCD
:105450000080B33C0040B83C0040833C0080793C75
:105460000080CA3C0000A73C0000B0390000F03AC0
:1054700000007C3B00802FBC0080CBBC0080A3BC24
:105480000080C1BC00C024BD00A018BD0000FFBC4E
:1054900000A013BD00C028BD0000C9BC008077BCBF
:1054A000008096BC00408ABC0000803A0000283C86
:1054B00000803E3C00005F3C00C0B13C00C0E53CC9
:1054C0000080C43C00C0A73C0080E83C0040E33CB6
:1054D0000080763C0000BF3B00802A3C0040853CB9
:1054E0000000463B000050BA0000A43A0000DD3B3B
:1054F00000008039000083BB000090B9000098BA1A
:105500000000C1BB000005BC0000CCBB0000B2BB6A
:1055100000802CBC000051BC008066BC00408BBCED
:105520000000C5BC0080DABC00C0CCBC00C0B6BC6A
:1055300000C0E5BC0080FEBC0040EBBC00C0B9BCB4
:105540000000BDBC00807ABC0000ECBB000008BCC1
:10555000000019BC00004ABB0080033C0000463B31
:1055600000005E3B00801B3C0080793C00801E3CBC
:1055700000801B3C00801D3C0000C33B000000B9C4
:1055800000000E3B0000A93B00000E3B0000CC3B9E
:105590000000043C0080573C00C09B3C0000F73CEE
:1055A00000800A3D0080E03C00E0093D00001E3D17
:1055B0000040133D00C0C53C00C0E33C0000EA3C95
:1055C00000C0913C0000A53B0000383B000046BBFA
:1055D000008081BC0080D8BC00C0BFBC0000C9BC3A
:1055E00000A001BD004012BD00400ABD004007BD43
:1055F000004007BD00C0C5BC00806BBC00005EBCA5
:105600000040A3BC000053BC000070BB0000043B82
:105610000000963B0000433C0080853C00807B3CC2
:1056200000409B3C0080CB3C0000D83C0080883C84
:105630000080873C00C0913C0000533C0000E0BA71
:10564000000016BB000090B9000035BC0040A1BCB2
:10565000008086BC000017BC0080ACBC00C0B0BCA1
:10566000000022BC0000B8BB0000FBBB000087BBF1
:105670000000153C0000553C0000DB3B0080123C64
:105680000080393C0000073C00009C3B0000803853
:10569000000088BA00802BBC004084BC00C092BCD3
:1056A00000007DBC000090BC00808EBC000097BC58
:1056B000000095BC000047BC000032BC000042BCAA
:1056C000000092BB0000D23B0000403B000080BACB
:1056D0000000173C0000423C00008F3B0000343BC0
:1056E0000080803C0080753C00802B3C00802A3C80
:1056F0000000813C0080853C00803A3C0080483CB2
:1057000000806A3C00006D3C0000C53B0000383B57
:105710000000AD3B0000F03B00009A3B0000E03A87
:105720000000BA3B0000223B0000BCBB000086BC6E
:1057300000806BBC000095BC0040F2BC00A005BD21
:105740000040DCBC0080F1BC004015BD0000E8BC9E
:1057500000C089BC00802CBC00801ABC000034BB97
:105760000000A4BA0000B2BB000008BA00801A3CD6
:1057700000801B3C0000BD3B0000A93B0000133C27
:105780000000DD3B00009C3B00001A3B0000DF3BBB
:1057900000008F3B0000783B000090B90000C4BAC5
:1057A0000000B43A0000D4BA000008BB000098BA68
:1057B0000000853B0000903B0080033C0000883CDB
:1057C00000C09A3C0080AB3C00C0EC3C00200C3D8B
:1057D0000040003D0040CE3C00C0A13C0000893CA0
:1057E0000000DF3B0000803900009C3A0000D6BB7F
:1057F000004092BC0040B2BC0080B5BC0080DFBC61
:105800000000E2BC0040F2BC00E00CBD00C00EBDD8
:105810000080EEBC0000F8BC0080FDBC00C0D6BC1F
:10582000008067BC0000E1BB0000BF3B0000263CDD
:105830000080873C00C0923C00C0C63C00C0FC3CDD
:1058400000600C3D0040FC3C0000A73C0000333CE5
:105850000080123C000080BA0000B6BB000088BA8D
:10586000008069BC0040DCBC0080C1BC000047BCBB
:1058700000C0DEBC00C0ECBC00804ABC000017BC0D
:1058800000C0B7BC00C08ABC0000003B0000183A52
:105890000000D6BB0000BF3B0040853C0000463CFA
:1058A0000000B43B0000273C00805D3C00000A3C47
:1058B000000080BB00009EBB000098BA00008BBBBC
:1058C00000409ABC0040A0BC000028BC000088BA80
:1058D00000801CBC00004ABB0000EC3B0000F83B11
:1058E0000000A43A0000903B0080953C00C0813C41
:1058F0000000523C0000723C0080BB3C0000953C24
:105900000000353C00805B3C00C0903C0000873CC0
:105910000000803B0000B0BB00801EBC00804ABC81
:1059200000009CBC0040D4BC0000C5BC0000C3BC4F
:1059300000C0E5BC00C0F5BC008087BC0000E5BB32
:1059400000C098BC00C098BC00801CBC000098BB84
:10595000008039BC00009FBC000044BC0000E5BBD7
:1059600000802CBC004085BC0000DABB0000F0BA0F
:105970000000EEBB00802ABC0000283B0000C53BB5
:105980000000C7BB000043BC0000BABB000038BB2E
:10599000000005BC00001ABC000038BA0000F43B4F
:1059A00000801A3C0000163C00C0AF3C00C0E63C42
:1059B0000080E13C0040B73C0040EE3C0060053D0B
:1059C0000040AA3C00008F3C0000B33C0040A13CDA
:1059D0000080783C00C0C83C0080D83C0040A13C1E
:1059E0000000E13B0000B03B00001ABB008038BC67
:1059F0000040A2BC00C08CBC0040E4BC00C015BD8F
:105A000000E017BD00C0FABC0080E0BC0080D9BC3B
:105A1000004089BC008021BC000037BC008038BC3D
:105A20000000B8BB000090BA000000000000803801
:105A3000000078BB00009C3A0000403A0000983B10
:105A400000000A3C00807A3C00807A3C0000333C35
:105A50000000153C00808E3C00804D3C0000F83A70
:105A6000000090BB0000183A000090BB000050BC42
:105A70000000A1BB0000E83A0000A5BB000054BC38
:105A80000000183A00005A3B0000A3BB00800CBC89
:105A900000009EBB000028BC008056BC000008BC73
:105AA000000050BA000080BB0000F4BB000070BBD7
:105AB0000000523B0000D23B000040BA0000B8BBDF
:105AC000000004BB00000ABB000036BC00C0A1BC43
:105AD000000089BC008096BC0000ACBC008079BC92
:105AE000000016BB00001E3B00004A3B0000AE3B1E
:105AF00000C0833C0040D43C0080A53C00C0B63CC4
:105B00000080E83C0040CD3C0080A43C0080C33CC9
:105B10000040C63C00005F3C00008F3B0000C43AE0
:105B20000000163B000074BB000025BC00408BBC8D
:105B3000004098BC0000A5BC0080BDBC0000A4BC17
:105B40000000B6BC0000BABC0040B1BC008048BC3C
:105B5000000052BB0000183A0000B43A00006C3B51
:105B60000000CE3B0000463B0000E8BA0000783B56
:105B70000000BCBB00803DBC000008BC00004EBB68
:105B8000000098BA0000F0390000163B000028BA67
:105B900000008DBB000070BB0000CEBB004083BC8A
:105BA0000000BDBC0040A8BC008090BC000081BCCF
:105BB000008069BC000074BB0000803B0000AE3B6D
:105BC0000080303C0080813C0000963C00804E3CD0
:105BD0000000E33B0000E13B0000B03B0000043C60
:105BE0000000D83B0000C93B0000BC3B0000A33BC9
:105BF0000000783B00001E3B00000E3B0000D0B9C7
:105C00000000E8BA00000BBC000062BB000004BB4F
:105C100000004ABB008020BC0000F2BB0000893BB2
:105C20000000273C0000A13B0000F43B00006F3C5B
:105C30000000093C0000BC3A0000BC3B0000083CEE
:105C4000000078BB00C081BC008030BC000046BBB7
:105C5000000090BA000044BB000008BB0000BCBAC2
:105C6000000092BB0000E1BB000008BA0000F83A57
:105C70000000D4BB000054BC004084BC000053BCF6
:105C80000000FFBB000098BB00000EBB00000E3BF5
:105C90000000C73B0000183C0080383C0000E13B9E
:105CA0000000DABB0000DDBB000009BC00007EBCC8
:105CB00000C0B6BC00409ABC008085BC00008FBC10
:105CC000008056BC0000D8BA00001E3B00005ABB42
:105CD0000000D8BA0000923B0000903B000030BBAF
:105CE0000000F8BA000080B90000303B0000063C1C
:105CF0000000463C0000553C0040A93C0040C53C2B
:105D000000C0C63C0040C13C00408C3C0000243C2C
:105D10000000A33B0000003B0000983A0000003B5D
:105D2000000038BA000046BB000030BB0000F83A63
:105D30000000133C00801A3C0080003C0000FD3B4A
:105D400000800E3C0000BC3B000056BB000074BC51
:105D500000C082BC00808DBC00C0DCBC0040FBBC2D
:105D60000000C5BC00C0CCBC0040DCBC008096BCC0
:105D70000000DABB000005BC000090BC00807ABCCB
:105D80000000FBBB008029BC00800EBC000008BAEC
:105D90000000623B00008B3B0080023C00805B3CCB
:105DA0000000563C0000253C0000163C0000563C1C
:105DB00000801B3C00009C3A0000F8BA0000AEBB1B
:105DC000000016BC0000DABB000098BA0000BD3B22
:105DD0000000E03A00009ABB000078BB000040BB26
:105DE00000001EBB0000D2BB0000FDBB00804BBC0E
:105DF000000064BC000056BC008011BC0000B6BBB3
:105E0000000094BB0000B0B900005A3B0000B63B54
:105E10000000163B000092BB008002BC008029BC41
:105E2000000004BC000096BB0000F0BA00008039FE
