:020000042000DA
:04035C0000787FBFE7
:10036000001CE3BE00D0913D0040C73D00A0C23D4F
:100370000070BA3D0070B13D0070AB3D0000A93D7A
:100380000060A53D0060A33D0050A03D00309E3DB3
:1003900000409A3D0060993D00C0953D0060943D4D
:1003A00000B0913D00C08E3D00C08C3D00C08A3D34
:1003B00000F0873D0080853D0020833D00B0803DFA
:1003C00000E07D3D00C07A3D00A0763D0040743DD8
:1003D00000206E3D00A06A3D0020673D00005E3DAC
:1003E00000005D3D00405A3D00A0573D0020543DB7
:1003F0000060503D00E04C3D0020493D00C0463DBE
:100400000000433D00E0403D00403C3D0060393D80
:100410000000353D0040333D00E0313D00002D3D02
:1004200000E02A3D0020273D00A0233D0080213D23
:1004300000C0213D00C01C3D00C01A3D00C0153D5C
:1004400000C0123D0080113D00000E3D00000E3D39
:1004500000000B3D0020093D0040063D00A0043D8A
:100460000000033D0000FE3C0080F73C00C0F33C70
:100470000000F03C00C0EA3C0040E53C0040E63CA7
:100480000000E33C00C0DC3C0040D63C0000D83C0F
:100490000000D23C0040CE3C0080C93C0000C53C7E
:1004A0000080C13C0000BD3C0080BC3C0000BC3C66
:1004B0000080B43C0080AD3C00805CBD00B0D2BD8B
:1004C00000D0B0BD005088BD00C03FBD0080E1BC81
:1004D000000008BC0000043C00C0C53C0060203D9A
:1004E0000020633D0060903D0010AF3D0090CB3D8B
:1004F00000B0E93D0030023E00480D3E0020183EAD
:100500000050243E0010303E00903A3E00A8413E8C
:1005100000384A3E00F04F3E0068563E00605D3EA7
:1005200000D0633E00506A3E00F0703E0060763EB0
:1005300000407B3E00B87E3E0060813E0060833E0E
:10054000006C853E00A8863E00C4873E00E0883EE1
:1005500000508A3E000C8B3E004C8C3E00DC8D3EF1
:1005600000F88E3E00808F3E0060903E00F8903E86
:100570000094913E007C913E0058913E0060903E78
:1005800000A4903E0040913E008C913E009C913E24
:100590000094903E00888F3E00008F3E00888E3E83
:1005A00000F88D3E00CC8C3E00208C3E00308B3E0F
:1005B0000094893E0098873E00BC863E006C853ED4
:1005C00000F4843E005C843E00E4833E0064833E8D
:1005D0000040823E0004823E007C823E000C823E4F
:1005E000003C813E0070803E00D07E3E00207D3E7B
:1005F00000C87B3E0080793E0018773E0058733E6D
:100600000048703E00986D3E00B86A3E0018693E92
:100610000048683E0018653E0020623E00605F3E74
:1006200000605E3E00F85C3E00905A3E0060593E1D
:100630000090563E0068533E0078503E00704E3E9B
:1006400000604B3E0048473E00B8433E0040403EFD
:1006500000B03B3E00F8383E0068363E00C0343EF5
:1006600000D0333E0088313E00B82E3E00082E3EBA
:1006700000A02C3E00B02A3E00A0273E00A8253E48
:100680000040243E00F8213E00901F3E00701C3EBA
:1006900000081B3E0058183E00F0153E0078133E3F
:1006A00000C8103E00A00D3E00280B3E00280A3E68
:1006B0000058093E0048083E00A8063E0050053E8E
:1006C0000030043E00A0013E00A0003E0020FF3D9F
:1006D0000020FD3D0010FA3D00B0F43D00A0EF3DCC
:1006E00000A0E83D0000E13D00F0DA3D00B0D63D5D
:1006F0000000D63D0000D23D00A0CE3D0000CE3D22
:1007000000C0CA3D00C0C63D0090C33D00A0C13D31
:100710000040BF3D0030BC3D0050B83D00B0B43D8E
:1007200000B0B23D0090B13D0030AF3D0080AA3D29
:100730000050A43D00E09F3D00609B3D0030993D8E
:100740000040983D0070953D0050933D00F0903D75
:1007500000508F3D00308C3D0020873D00B0853D2E
:100760000070883D0070883D00C0863D0020873DB8
:100770000080873D00808A3D00A08A3D00D0873DF3
:100780000090863D0090823D00A07C3D00E0723DDF
:1007900000606A3D00C0613D00805D3D00405D3D00
:1007A00000605B3D0020583D00C0553D0080553D38
:1007B0000020543D00E04B3D00E0453D00C03E3D83
:1007C00000C0333D00602A3D0020243D00201C3D38
:1007D0000020143D00E00C3D00800B3D00600D3D0D
:1007E00000C00D3D00A00D3D00E00B3D0020093D87
:1007F00000C00B3D00400B3D00E00F3D00E0093D17
:100800000060043D00C0FA3C0040F23C0040EC3C7B
:100810000040E63C0080DF3C0000D23C0000C43CCD
:100820000080B23C0000AE3C0080B33C0000AE3C17
:1008300000C0AE3C0040C03C0080C43C0080D23CC4
:1008400000C0CC3C00C0C63C0000C43C0040C83CDA
:100850000040C73C00C0C63C0080BA3C0000AC3C35
:100860000040B23C0080B43C00C0B13C0040A73C1A
:100870000000A63C0080A43C0000A43C0000AC3C6E
:100880000000A43C0000963C0040833C0080763C85
:1008900000806B3C00804D3C0000543C0000223C3A
:1008A0000000083C0000F63B0000F43B0000CC3B9D
:1008B0000000E53B0000083C00000A3C00800D3CC5
:1008C00000800F3C00000B3C0000053C0000F23BA8
:1008D0000080003C0000073C0080293C0000353CC3
:1008E00000803E3C0000353C0000443C0000563C8B
:1008F0000000353C0080203C0000253C0000083C06
:100900000000CB3B0000AD3B0000B63B0000AD3B20
:100910000000963B0000AD3B0000A53B0000C13B42
:100920000000EC3B0000FF3B0000E33B0000BD3B50
:100930000000983B0000303B0000E03A000050BA55
:10094000000038BB000026BB000070BB000090BB5D
:10095000000083BB00006CBB00005EBB00002CBB32
:100960000000ACBA000080BA0000D4BA000004BB9A
:10097000000000BB000016BB000030BB000022BB23
:1009800000002CBB00001EBB000034BB000070BB8D
:10099000000040BB00005ABB00008FBB00005EBBE4
:1009A0000000D8BA000070BA000008BA0000E83AA7
:1009B0000000343B0000163B0000223B0000383BA7
:1009C0000000383B0000123B0000E83A0000803A8B
:1009D0000000803800001ABB000081BB000094BBFF
:1009E000000064BB00004ABB00004EBB0000F8BA28
:1009F000000088BA0000E83A0000873B0000643B32
:100A00000000403B0000A43A000090B900009CBAEE
:100A10000000D8BA000028BB000064BB00008FBBF8
:100A2000000068BB000068BB00005ABB00000ABBA6
:100A3000000026BB000046BB000038BB00002CBBFA
:100A400000000ABB000004BB000080BA0000D8BA56
:100A500000001EBB000000BB000038BA000000B957
:100A6000000040390000D83A0000A43A0000F03AF3
:100A70000000083B0000BC3A000008BA000000B9C2
:100A8000000088BA000088BA000098BA0000000090
:100A9000000090B90000D0B9000090390000B039D2
:100AA0000000F0B9000000BB00001EBB000068BBE6
:100AB000000070BB000087BB000096BB000083BB3A
:100AC000000078BB00009CBB0000A9BB00009FBBDE
:100AD000000074BB000040BB000030BB0000D4BA73
:100AE000000080B90000183A000040B9000088BA40
:100AF00000000000000040B9000028BA0000C4BA9D
:100B000000003CBB00003CBB000044BB000068BBD5
:100B1000000074BB00008FBB000092BB000070BBE4
:100B2000000044BB0000E8BA0000183A0000CC3ACC
:100B300000000A3B0000563B0000873B0000803B62
:100B40000000743B0000163B0000083B0000603AC8
:100B50000000283A000090390000083A0000000028
:100B60000000083A0000803A0000C43A0000043B4C
:100B70000000D039000080B90000503A000040B9B0
:100B80000000E8BA000092BB000070BB00007CBB14
:100B90000000ADBB0000C7BB0000D0BB0000DFBB46
:100BA000008002BC0000F2BB0000DDBB0000DFBB28
:100BB0000000DABB0000BCBB0000ABBB0000A5BB63
:100BC000000090BB00005ABB000000BB0000C4BA8C
:100BD00000009CBA0000ACBA00000EBB00003CBB99
:100BE000000081BB00009FBB0000ADBB0000C7BB85
:100BF0000000E9BB0000E5BB0000C9BB0000BDBBB5
:100C00000000C9BB0000CBBB0000DBBB0000C3BBC6
:100C10000000C5BB0000B2BB0000B6BB0000CBBBF0
:100C20000000A9BB0000D0BB0000DFBB0000F9BB87
:100C300000000BBC0000FDBB008000BC000014BC29
:100C4000000018BC00801CBC00801CBC000006BC5E
:100C50000000F6BB0000F6BB0000F2BB0000E3BBE7
:100C60000000ECBB0000DABB0000E5BB0000D2BB1B
:100C70000000ABBB000074BB000070BB000064BB95
:100C800000009ABB0000B0BB0000F4BB000007BC32
:100C90000000F2BB0000CBBB0000B0BB0000B2BB49
:100CA00000005EBB0000D4BA00002CBB000068BB93
:100CB000000052BB000026BB00005ABB000056BB20
:100CC00000006CBB0000B4BB0000D0BB0000B4BB94
:100CD0000000A7BB000068BB000044BB000080BB55
:100CE000000046BB000004BB0000ACBA00000EBB15
:100CF000000078BB000092BB0000ADBB0000BDBB94
:100D00000000AEBB0000D4BB0000BDBB0000D2BBE6
:100D10000000B4BB0000C1BB0000D2BB000008BC97
:100D2000008001BC0000FDBB008001BC000007BCCE
:100D30000000FBBB0000E9BB0000D6BB0000C1BB4C
:100D40000000BABB00009CBB000087BB000040BB9A
:100D50000000ACBA000038BA000028BA000090BA0F
:100D60000000C4BA000026BB000026BB000038BB50
:100D7000000052BB00003CBB000064BB00006CBB29
:100D8000000022BB00002CBB000034BB000004BBF1
:100D900000001EBB00002CBB000092BB0000BDBBCE
:100DA0000000D6BB0000EABB0000DFBB0000B4BB04
:100DB0000000B4BB0000ADBB0000ADBB000092BBA7
:100DC00000005ABB00004EBB000078BB000081BB96
:100DD000000026BB0000F0BA0000F8BA0000A4BA78
:100DE000000004BB0000ACBA000088BA0000D8BA0A
:100DF0000000E8BA000022BB0000A3BB0000FFBB5C
:100E0000000016BC000018BC008011BC000014BC1F
:100E1000008001BC0000DFBB0000BCBB000080BB49
:100E2000000026BB000022BB000040BB0000F0B960
:100E30000000283A000080B8000098BA000000BB0B
:100E400000001EBB0000D4BA00009CBA0000D8BA53
:100E50000000CCBA0000CCBA000090B90000D4BAAF
:100E60000000B0B9000060BA00009CBA000022BBCC
:100E700000001EBB000026BB000074BB0000BABB14
:100E80000000C3BB0000B8BB0000ADBB00008FBBBF
:100E9000000052BB00006CBB00005EBB000085BBC5
:100EA00000005EBB000064BB00003CBB000038BA21
:100EB000000028BA000080B80000903A0000883A8C
:100EC00000009C3A0000A43A0000163B00001E3BC4
:100ED0000000A43A0000383A000080B90000000089
:100EE000000060BA00009CBA000008BA0000C4BA52
:100EF000000038BA0000503A0000803A0000503A32
:100F0000000000000000F0B9000040BA000038BA4C
:100F1000000022BB00002CBB000038BB000040BB1F
:100F2000000062BB000078BB000083BB00008FBBE9
:100F3000000080BB000090BB000080BB000068BBCD
:100F4000000064BB000089BB000096BB00009ABB98
:100F500000009CBB0000A9BB000087BB00009FBB3A
:100F6000000094BB0000A5BB0000A3BB00009CBB1D
:100F70000000A9BB0000B2BB0000E1BB0000DFBB6A
:100F8000008003BC000006BC0000FFBB0000E5BB06
:100F90000000B2BB000090BB000068BB00006CBB4F
:100FA00000002CBB000034BB000074BB000070BB11
:100FB000000080BB00008FBB000062BB000044BB90
:100FC000000078BB000052BB00001EBB0000D8BA76
:100FD000000090BA000080B90000B0B9000040BA2B
:100FE000000000B9000040BA0000F0BA00004ABB9F
:100FF000000044BB000064BB000083BB0000B2BB28
:101000000000DFBB0000DABB0000DABB0000DABB87
:10101000008002BC00801DBC008020BC000008BC19
:101020000000D8BB000096BB000064BB000008BBFA
:1010300000009CBA000008BA0000383A0000603A8C
:101040000000B0390000D0B90000BCBA0000E8BA16
:101050000000E8BA000030BB00004ABB00004ABBF9
:1010600000005EBB00003CBB00004ABB000004BBAC
:1010700000001EBB000030BB000028BB000022BBEC
:10108000000085BB00008FBB000094BB000089BB43
:10109000000092BB0000B6BB00008BBB00009ABBF7
:1010A0000000AEBB00009ABB0000A3BB0000C3BBA6
:1010B0000000AEBB0000A1BB00009CBB0000B4BBA5
:1010C0000000CEBB000098BB000080BB000080BBCE
:1010D000000044BB000028BB00008FBB0000AEBB7B
:1010E0000000DBBB0000D6BB0000F2BB008001BCEF
:1010F0000000FDBB008000BC000008BC000016BC66
:1011000000800DBC0000F4BB0000B8BB000052BB67
:101110000000F0BA0000F0BA0000F8BA0000F0B920
:10112000000040B90000B03900000EBB000022BB37
:1011300000001ABB000056BB00005EBB00005ABB9B
:10114000000026BB00000ABB000046BB000046BBF7
:10115000000070BB000094BB00008FBB0000A3BB6D
:10116000000098BB00008BBB000074BB000046BBB6
:10117000000046BB000026BB00000EBB000052BBB7
:1011800000005ABB000081BB0000A5BB00009EBB55
:1011900000009ABB0000A5BB000098BB00004EBB3E
:1011A000000040BA0000603A0000F83A0000B43A8B
:1011B0000000AC3A000040B9000070BA00003CBB2F
:1011C00000001ABB000004BB000012BB00005EBBA5
:1011D000000064BB00001EBB000026BB00004ABB31
:1011E000000028BB000026BB000026BB00005EBB41
:1011F000000078BB0000A5BB00009FBB0000B0BB97
:101200000000D8BB0000BDBB00009EBB000080BB3F
:1012100000005ABB000056BB000080BB0000A1BB11
:101220000000B8BB0000D4BB0000DFBB0000BDBBAA
:101230000000FDBB0000E1BB0000C5BB00009FBB80
:10124000000070BB00004EBB000028BB000016BBB6
:1012500000004EBB00006CBB000040BB000052BB56
:1012600000007CBB000080BB00009FBB0000A3BB54
:101270000000A9BB000094BB0000ABBB000092BB08
:10128000000085BB000008BB0000B0B9000050BAE8
:1012900000009CBA000088BA0000F0BA0000C4BA8E
:1012A00000009CBA0000D8BA0000A4BA0000BCBA82
:1012B000000060BA00004039000080B90000000062
:1012C000000098BA0000D8BA0000E8BA000008BAD6
:1012D00000009CBA000040B9000000000000803906
:1012E0000000503A0000BC3A0000803A000000B90B
:1012F000000088BA000000BB000064BB000089BB8E
:10130000000098BB00009EBB0000A3BB0000A5BB73
:10131000000096BB000012BB000080B900008038BE
:101320000000703A0000003B00004039000040B966
:10133000000040B9000098BA0000E8BA00001ABBEB
:10134000000056BB000083BB00006CBB000064BB08
:10135000000062BB000052BB000094BB0000A7BBB2
:101360000000B8BB0000F0BB0000E9BB0000E1BB1F
:101370000000D6BB0000D6BB0000F9BB0000FBBBE1
:101380000000E5BB0000EABB0000D0BB0000C9BB09
:101390000000B8BB0000BABB00009FBB00008BBBC5
:1013A000000089BB0000AEBB0000A7BB000090BBE3
:1013B000000064BB00003CBB00005EBB00006CBBD7
:1013C000000074BB000038BB000064BB000081BBA0
:1013D000000098BB0000AEBB0000A9BB0000BDBB75
:1013E0000000B0BB0000C9BB000090BB00005ABBAE
:1013F00000001EBB0000F0BA000040BA000060BA56
:10140000000050BA000018BA000080B90000F0B91E
:10141000000080B90000BCBA0000BCBA0000C4BA29
:101420000000D0B9000040B9000088BA000008BA36
:10143000000080B9000080380000B0B900000EBB89
:10144000000000BB0000C4BA000080BA000050BA1F
:1014500000009CBA000080BA000090390000000033
:10146000000040BA000070BA000038BA000040BA6C
:101470000000ACBA000008BB00004EBB000040BB3F
:10148000000034BB000012BB000070BA0000083A34
:101490000000F03A0000303B0000983A0000AC3AFF
:1014A0000000B039000080B8000018BA0000A4BAEB
:1014B000000074BB00007CBB000089BB0000B6BB11
:1014C00000009EBB00009CBB000070BB000046BB40
:1014D000000034BB000004BB000000BB000038BBB0
:1014E000000052BB00008DBB0000AEBB0000A5BBDE
:1014F0000000A1BB0000B4BB0000A9BB0000A3BB5F
:1015000000009EBB00008FBB000078BB000081BBC9
:1015100000008DBB000090BB00009ABB000098BB90
:1015200000009EBB00007CBB000034BB0000F0BA92
:10153000000000BB000016BB000026BB000000BB83
:10154000000034BB00005EBB00005ABB000064BB5F
:10155000000056BB000046BB00005EBB000022BB83
:10156000000040BB000028BB000022BB000034BBD1
:1015700000006CBB00004EBB0000E8BA0000D8BA07
:10158000000008BB000038BB000012BB0000E0BA3E
:1015900000009CBA000018BA0000E0BA000038BA97
:1015A0000000B0390000403A0000283A0000F0394D
:1015B000000080B900000000000028BA000028BA2E
:1015C00000004039000038BA000008BA0000F0B945
:1015D0000000D0B90000B0B90000B4BA000030BBC0
:1015E00000007CBB00008FBB00009FBB000090BBD5
:1015F000000052BB000064BB00007CBB000052BB7B
:101600000000E0BA0000E0BA000090BA000018BA8A
:10161000000080B8000080B9000000B9000000B9E7
:10162000000080B8000080BA0000A4BA000056BBD9
:10163000000074BB000074BB00008FBB00008DBBBA
:10164000000081BB000092BB00009FBB0000A1BB5B
:101650000000BFBB0000A9BB0000C1BB0000CEBBA7
:101660000000D8BB0000BCBB000094BB00006CBBFA
:10167000000070BB00004EBB000034BB00001ABB72
:1016800000004EBB000078BB00004ABB00005EBB00
:1016900000005ABB000030BB000044BB000000BB90
:1016A000000050BA000080B9000038BA0000CCBA7F
:1016B0000000D8BA00001EBB0000F0BA000016BB44
:1016C00000001EBB00001ABB000046BB000068BB48
:1016D00000004EBB000022BB000056BB00002CBB2C
:1016E00000003CBB000044BB00002CBB000004BB5E
:1016F00000001EBB0000E8BA0000CCBA000060BACF
:101700000000F0B9000080B90000283A00008038DD
:101710000000003900009CBA00001EBB000070BA37
:1017200000000EBB000038BB00004ABB000038BB05
:1017300000000EBB0000E0BA00005ABB00004ABB2C
:10174000000052BB000030BB000080BA0000C4BAE9
:10175000000090BA000040B90000B0B9000050BAD3
:10176000000070BA0000CCBA000018BA0000B0B98E
:101770000000D039000000000000BCBA00000EBB21
:101780000000D0B90000D0B9000008BA000008BBC2
:1017900000008FBB000087BB0000ABBB00009EBBFE
:1017A000000068BB000070BB000052BB000028BBFB
:1017B0000000F8BA0000B4BA0000D039000040BA06
:1017C0000000D4BA00004EBB000085BB000083BB04
:1017D000000078BB000012BB0000D4BA0000E8BAD9
:1017E000000090BA000028BA000098BA00000EBBB2
:1017F000000038BB00003CBB000070BB00005EBBBB
:10180000000056BB00005ABB000080BB000044BB78
:1018100000002CBB000034BB000046BB000008BB2E
:101820000000CCBA000000BB0000E0BA000000BB22
:1018300000002CBB000062BB000083BB000078BB33
:10184000000056BB000080BB000090BB000083BBC3
:10185000000089BB000092BB000080BB000080BB81
:10186000000087BB000085BB00007CBB000030BBD4
:10187000000016BB00000ABB0000CCBA000008BB89
:101880000000E0BA0000E0BA000088BA000098BA90
:10189000000040BA000070BA000080BA000070BAC0
:1018A00000000EBB00003CBB000000BB00009CBA67
:1018B000000000BB0000F0BA000050BA0000003980
:1018C0000000F0390000803A0000283A000090B98A
:1018D000000080B900008038000000B900009CBA08
:1018E0000000F0B90000F039000080390000BC3A77
:1018F000000080380000D0390000F0B9000028BA9C
:101900000000B4BA000080BA0000D4BA00002CBBBA
:1019100000005EBB00006CBB000022BB0000A4BA4C
:10192000000040BA0000A4BA000030BB000044BB75
:10193000000070BB000068BB000044BB000080BB1F
:10194000000070BB00008DBB000087BB000090BB97
:1019500000009FBB0000A1BB000098BB000092BB31
:10196000000078BB000087BB000094BB0000B2BB46
:101970000000A1BB0000A9BB0000A7BB00006CBB1E
:10198000000026BB000004BB0000D4BA000040B930
:10199000000080390000B0B90000E0BA0000F0BAE1
:1019A00000002CBB000022BB000028BB0000C4BA12
:1019B000000000BB000028BB000030BB00000EBBD5
:1019C000000080BA000028BA0000D0B9000040B979
:1019D000000000000000983A0000F03A0000AC3A25
:1019E0000000503A0000283A0000803A0000983A7F
:1019F0000000F0B9000012BB0000E8BA0000E8BA2D
:101A00000000F0BA00001ABB00004ABB000056BB41
:101A100000001EBB000012BB000012BB0000ACBAED
:101A20000000B0B90000B0390000BC3A0000283B0B
:101A30000000463B0000643B0000443B0000E83AE5
:101A40000000183A00000039000080380000B0396A
:101A50000000F0B900000000000000B90000F039FB
:101A60000000183A0000403A00008038000060BAD8
:101A7000000090BA000038BA0000CCBA00001ABBCF
:101A800000001ABB00000EBB00001ABB000030BBF8
:101A9000000098BA000098BA00000EBB00004EBBD0
:101AA00000001EBB000078BB00008BBB0000A7BB82
:101AB0000000A5BB0000C5BB0000DFBB0000CCBB25
:101AC0000000ECBB0000D4BB0000F9BB0000EABB87
:101AD0000000EEBB0000D2BB0000D6BB0000D6BBAE
:101AE000008001BC0000F9BB0000DABB008000BC34
:101AF0000000E3BB0000F4BB0000ECBB0000D6BB61
:101B00000000BABB00009EBB000094BB00009ABB63
:101B100000008BBB000064BB00007CBB00009CBBD2
:101B20000000A9BB0000C9BB0000BDBB0000D8BBC2
:101B30000000DDBB0000DABB0000B6BB000083BBC9
:101B4000000087BB00008DBB000098BB00009EBB5F
:101B50000000A3BB00009CBB0000A1BB0000B0BB09
:101B60000000A1BB00005EBB000040BB000046BB04
:101B7000000022BB0000D8BA000046BB000068BBD2
:101B8000000085BB000070BB000052BB000089BB99
:101B9000000044BB000000BB0000BCBA000090BACB
:101BA000000004BB000026BB000070BB000078BB37
:101BB00000009EBB0000C7BB0000B8BB0000CBBB51
:101BC0000000CBBB0000D8BB0000CCBB0000CBBBEF
:101BD0000000B4BB0000A9BB0000A3BB000085BB94
:101BE0000000A1BB0000A1BB0000A1BB0000B2BB74
:101BF0000000C5BB0000D4BB0000BABB0000BFBBE7
:101C00000000D8BB0000E9BB0000D8BB0000C9BB86
:101C10000000DABB008001BC000007BC0000E9BB8B
:101C20000000F8BB000005BC0000F2BB0000FFBBD9
:101C3000000009BC00801CBC000016BC00800CBC6D
:101C40000000F6BB0000D2BB00009FBB000094BBAD
:101C5000000081BB00005ABB000040BB000038BB45
:101C6000000044BB000056BB00008BBB000062BB01
:101C7000000083BB000064BB000064BB000034BBF9
:101C8000000022BB000044BB000030BB000016BBBC
:101C900000005ABB000026BB000074BB00009FBBC5
:101CA000000052BB0000B4BA000090B90000403AF6
:101CB0000000603A0000403A0000B039000090B9DE
:101CC00000009CBA000004BB0000D8BA000000BBB2
:101CD00000001ABB000040BB00000EBB000080BA31
:101CE0000000F0B90000D0B9000040B9000080BA8F
:101CF00000009CBA000028BB00000EBB000004BB23
:101D0000000038BB000070BB00008DBB000064BB4E
:101D1000000038BB000028BB000038BB000008BB37
:101D20000000F8BA00000ABB000016BB00001EBB92
:101D300000000EBB000026BB0000E0BA0000E8BABD
:101D40000000ACBA000018BA000040B90000B03979
:101D5000000018BA0000ACBA000090BA000018BA2F
:101D6000000028BA000000BB0000E0BA000080BA02
:101D7000000080B900000000000000000000803971
:101D800000000000000000B9000080B90000903998
:101D9000000098BA000050BA0000F0390000B0B955
:101DA000000040BA000028BA000018BA000088BA43
:101DB000000000BB0000D8BA0000BCBA0000BCBAEA
:101DC000000060BA0000F0B90000A4BA00000ABB2D
:101DD000000016BB000026BB00000ABB000016BBBB
:101DE000000004BB0000F8BA000060BA000000392F
:101DF000000018BA000040BA0000B0B9000080B876
:101E0000000000BB000080BA000080BA000050BA99
:101E100000009CBA0000F0B90000F0390000AC3AB4
:101E20000000183A000040B9000090B900000039E5
:101E3000000028BA0000F8BA00004ABB00004EBB00
:101E4000000068BB000089BB000068BB00000EBB3F
:101E5000000012BB000080BA000000000000083A39
:101E600000000000000080B90000ACBA000004BB14
:101E7000000004BB0000F0BA000004BB000090BAF0
:101E80000000F0B90000C4BA000060BA0000903948
:101E90000000B4BA000090BA0000D8BA0000CCBA72
:101EA0000000CCBA000012BB0000F8BA000090BAE3
:101EB0000000ACBA0000D4BA0000F8BA000004BBBD
:101EC000000080B900000000000008BA0000703A6D
:101ED0000000803800000000000088BA0000D4BA7A
:101EE000000008BB0000F8BA000008BB000000BBFF
:101EF00000001ABB000030BB000016BB00000ABB8C
:101F0000000000BB000004BB000034BB00004EBB5F
:101F1000000038BB00002CBB000000BB0000F0BA82
:101F20000000C4BA000018BA0000B0B9000080B9BF
:101F30000000F0B9000080B900009CBA0000CCBAE3
:101F400000001EBB000000BB000080BA0000D8BA31
:101F50000000E0BA000050BA00008039000090395B
:101F60000000F0B9000040B9000040B9000080BA9C
:101F70000000F8BA000000BB0000D8BA000000BBA7
:101F80000000F0BA000088BA00009CBA000018BA3D
:101F90000000B0B90000083A0000000000008038DE
:101FA0000000F0B90000B0B90000ACBA000070BA8F
:101FB0000000ACBA000088BA00000ABB0000E8BA12
:101FC000000016BB000028BB00002CBB000022BB99
:101FD000000056BB000085BB000081BB000098BB21
:101FE0000000A7BB0000B8BB0000B4BB00009ABB58
:101FF00000009CBB000098BB0000A7BB000094BB86
:10200000000087BB000070BB000034BB0000E8BAD2
:1020100000000EBB0000D8BA00009CBA000008BB4C
:1020200000000EBB0000D4BA0000F0B9000090BA66
:10203000000098BA00003CBB000040BB00003CBB65
:10204000000046BB00001ABB000022BB00005ABBC8
:10205000000085BB00009FBB000085BB00005EBB8D
:1020600000001ABB00009CBA000090BA000040BA01
:10207000000080B90000B0B9000090B90000C4BAF7
:10208000000028BB000022BB00002CBB000056BB98
:1020900000005ABB000044BB000022BB000012BB82
:1020A000000052BB00007CBB000092BB000096BB4E
:1020B0000000A5BB000083BB0000B4BB0000CBBB8D
:1020C0000000D6BB0000C1BB0000CBBB00008FBB33
:1020D000000083BB00004ABB0000E8BA0000CCBA95
:1020E000000028BA0000B4BA0000E0BA0000D4BA78
:1020F0000000E8BA00001ABB000008BB00001ABBD1
:10210000000026BB000016BB0000A4BA000000BB04
:10211000000016BB00001ABB000046BB00003CBB21
:1021200000004ABB000064BB00004EBB000056BB71
:1021300000005ABB000000BB000090BA000098BA33
:10214000000000B900004039000008BA000000009B
:102150000000D0B9000008BA000040B90000003902
:102160000000F0390000403900000039000080B95B
:102170000000F0B9000028BA00000000000080B99B
:10218000000050BA000060BA000008BB000040BB6D
:10219000000012BB000034BB000026BB000034BBB3
:1021A0000000E0BA0000403A0000403A0000883ADF
:1021B0000000603A0000B039000080B80000BCBAEE
:1021C000000098BA0000D8BA0000E0BA000090BA47
:1021D000000018BA0000183A000040B900000000E2
:1021E000000028BA000000B90000283A000000B939
:1021F000000028BA0000F0BA000022BB000062BB59
:10220000000056BB00006CBB000022BB0000CCBA33
:1022100000001ABB0000D4BA000038BA0000C4BAEB
:102220000000D4BA000030BB000064BB000028BB33
:102230000000CCBA0000D8BA000028BA0000B0B93B
:10224000000080380000B039000008BA0000F0BA81
:102250000000C4BA000008BB000026BB0000D8BACA
:102260000000C4BA000008BB000046BB000004BB6D
:1022700000005ABB000056BB00003CBB000030BB56
:1022800000001ABB000022BB000098BA0000B03961
:102290000000883A0000BC3A00004039000028BA2B
:1022A00000009CBA000098BA0000C4BA0000D4BA7A
:1022B0000000BCBA000070BA00000000000000007E
:1022C0000000083A0000B0B90000D0B90000D0B951
:1022D000000000B90000D0390000F0390000000013
:1022E0000000603A0000383A0000503A0000183A06
:1022F000000090390000A4BA000004BB000062BBDB
:10230000000038BB000038BB00005ABB0000E8BA30
:1023100000009CBA0000D0B9000000B90000ACBABF
:1023200000001ABB000030BB000026BB000000BB51
:10233000000016BB00003CBB000062BB000012BBEB
:102340000000F0BA000080BA000008BA0000B0B97E
:102350000000F039000090390000F0390000383AF0
:102360000000803A0000D0B9000088BA0000D8BA56
:102370000000CCBA000098BA0000C4BA0000ACBAA1
:10238000000050BA000000B9000050BA0000F0BAD6
:102390000000B4BA0000BCBA000000BB000012BBD1
:1023A0000000F0BA0000E8BA000098BA000088BA4D
:1023B0000000F0BA0000E0BA000008BB000004BB57
:1023C0000000F0BA000088BA000018BA00004039D6
:1023D0000000703A0000703A0000000000009CBA53
:1023E000000060BA000000B90000ACBA0000ACBA4E
:1023F00000000ABB000046BB000044BB00001EBB3F
:102400000000CCBA0000D8BA00003CBB000028BBDA
:1024100000000EBB0000B4BA0000803800000000CD
:102420000000AC3A0000163B0000BC3A0000383A0D
:1024300000008038000080B900000EBB00001ABB0D
:10244000000070BA0000B039000000000000383A07
:102450000000AC3A0000003B00003C3B00000A3B9F
:102460000000B039000000000000A4BA00003CBB2E
:10247000000092BB000083BB0000B2BB0000B2BBF7
:102480000000BDBB0000C3BB000090BB000094BBBC
:10249000000098BB00008FBB000078BB000064BB4D
:1024A000000044BB000078BB000092BB000094BB5E
:1024B000000087BB00008BBB0000A1BB00009FBBDE
:1024C000000094BB00008FBB0000A3BB00009FBBBB
:1024D0000000ADBB0000BFBB0000ECBB0000FBBBBD
:1024E0000000EEBB0000E9BB0000E9BB0000F9BB47
:1024F0000000F6BB0000EEBB0000D0BB0000ABBB91
:102500000000B0BB000098BB000085BB000070BBA2
:1025100000004ABB00006CBB000089BB0000A3BBED
:102520000000B2BB0000A3BB0000B4BB0000C5BBF1
:102530000000C5BB0000BABB0000BABB0000B4BBC2
:10254000000096BB0000A7BB0000B4BB0000C1BBED
:102550000000CBBB0000ABBB0000B8BB00009FBBC2
:10256000000092BB00005ABB00003CBB000046BB11
:10257000000087BB00008FBB000083BB00008FBB47
:1025800000006CBB000089BB0000ADBB0000AEBB0F
:10259000000089BB000028BB0000F8BA000000BBA7
:1025A00000000EBB00003CBB00005ABB000030BB6B
:1025B00000007CBB00007CBB000064BB000087BB4C
:1025C0000000A1BB000081BB000044BB000040BB79
:1025D0000000A4BA000098BA0000F8BA000080B861
:1025E0000000D0B90000ACBA000038BB000046BB08
:1025F000000083BB000087BB000038BB000028BB85
:102600000000E8BA000000BB00004ABB000062BB4B
:10261000000090BB000090BB000085BB00009ABB8F
:102620000000A9BB0000A5BB000096BB0000B6BB24
:102630000000DBBB0000DFBB0000B0BB00005ABBEA
:1026400000000ABB00000EBB0000F0BA000016BB81
:1026500000001EBB000016BB0000F8BA00001EBB45
:10266000000000BB00009CBA000034BB000046BB69
:1026700000000EBB00001EBB000004BB000030BB0E
:1026800000001EBB000040BB00006CBB000094BB00
:10269000000087BB000080BB00001EBB0000ACBA7E
:1026A000000040BA0000000000009C3A0000A43A7C
:1026B0000000CC3A0000403A000038BA000060BA8E
:1026C00000008039000090390000C43A0000A43AAC
:1026D00000009C3A0000903A00000000000060BA40
:1026E000000090B900009CBA000000BB000026BBAF
:1026F000000012BB00001EBB000030BB000030BB5E
:10270000000038BB000040BB000008BB00000ABB53
:102710000000D8BA0000D4BA000028BA0000F0B90E
:1027200000009CBA0000F0B90000D0B9000060BA07
:10273000000080390000803800004039000000B9F6
:102740000000A43A0000603A000080B80000D0B950
:10275000000060BA0000A4BA0000CCBA0000C4BAFD
:1027600000000EBB000008BB000056BB000092BB7F
:10277000000087BB000074BB000052BB000052BBCE
:10278000000028BB000000BB000050BA000080B869
:102790000000D0B90000D0B9000080B9000040B9F5
:1027A0000000CCBA000008BB000026BB00006CBBD8
:1027B000000038BB000034BB00001EBB000034BB6F
:1027C00000003CBB000038BB00000ABB000026BB79
:1027D00000002CBB00009CBA000060BA0000B0B939
:1027E000000000000000803900008039000080B93E
:1027F000000000B900009CBA0000E8BA000060BA0E
:102800000000D8BA000098BA000018BA000008BA50
:102810000000503A00000039000018BA000070BAF9
:102820000000C4BA0000E8BA00000ABB00000ABBFE
:10283000000038BB00007CBB000046BB000026BB8C
:102840000000E8BA0000E8BA0000B4BA0000F0B92D
:102850000000F039000000B9000098BA0000D0B9BB
:102860000000E0BA0000F0BA0000D8BA000000BBD7
:102870000000D4BA000000BB000038BA000040BA23
:10288000000080BA0000C4BA0000E8BA00000ABB29
:10289000000034BB00004ABB00007CBB00008BBBC7
:1028A000000074BB000096BB00008BBB000083BB24
:1028B000000078BB0000A9BB00008FBB000052BB2A
:1028C000000028BB0000B4BA0000B0B9000080B816
:1028D00000000039000000390000083A000090397B
:1028E000000050BA0000ACBA000000BB0000E0BA23
:1028F0000000D8BA000004BB00005EBB00004ABB69
:10290000000040BB00000ABB00004EBB000034BB0F
:1029100000000EBB0000E8BA0000F8BA000008BBD7
:10292000000050BA00004039000040B9000090BAE1
:102930000000C4BA0000E0BA00001ABB000030BBBF
:1029400000000ABB000000BB0000E0BA0000A4BA0F
:102950000000B0B90000BC3A0000903A000000004E
:10296000000000000000F0B9000088BA000000BBC1
:10297000000022BB00000ABB0000D4BA000000BB6C
:10298000000000BB00000EBB000080BA000080B950
:102990000000603A0000383A0000083A0000B0B980
:1029A000000090BA000000BB000004BB0000D8BAD1
:1029B00000001EBB000052BB00002CBB000016BB79
:1029C000000080BA000080BA0000B4BA0000D4BA97
:1029D0000000F8BA00001EBB00001ABB0000F8BAE5
:1029E000000070BB000081BB000094BB0000A9BBCD
:1029F000000092BB000080BB00005ABB000052BB2D
:102A0000000068BB000044BB00009CBA000028BA6C
:102A1000000000390000F0B9000040B90000803823
:102A2000000090390000D0B9000090BA000090B9C1
:102A3000000018BA0000B0B90000403A0000803928
:102A40000000B0B90000F0B9000038BA000000B9C9
:102A500000008039000080B80000B03900009039D3
:102A60000000F0390000903A000080380000803902
:102A70000000F0B90000B4BA0000E8BA0000ACBA37
:102A80000000F8BA0000CCBA0000B4BA000028BABE
:102A900000009C3A00000039000000000000D0B99E
:102AA00000000000000040BA000030BB000068BB1E
:102AB000000070BB000080BB000064BB000062BB74
:102AC000000038BB000004BB000008BB0000E8BAEF
:102AD000000040B9000080B9000000B90000403992
:102AE0000000F0B9000090B90000B0B9000098BA39
:102AF000000018BA00000000000028BA0000083AE0
:102B0000000018BA0000A4BA0000B4BA000040BA2D
:102B1000000090B90000903900000000000080B96A
:102B2000000090BA00000000000080B9000090BAD8
:102B3000000090BA000080BA000080BA000080BA9D
:102B4000000050BA0000083A00009039000080B937
:102B50000000D0B9000090BA00009CBA0000B4BADE
:102B6000000050BA000088BA0000D4BA0000CCBA05
:102B7000000000BB000040BB000034BB000030BBC5
:102B800000000ABB00000EBB0000CCBA000040BA37
:102B9000000090BA000000390000163B00007C3BAA
:102BA00000006C3B0000783B00007C3B0000563B83
:102BB0000000223B0000903A000018BA000080B8E4
:102BC000000000390000F0390000AC3A0000D43AAF
:102BD0000000283B0000E03A0000903A00000000AE
:102BE00000008039000008BA000022BB000028BBAA
:102BF000000056BB000044BB00000ABB000012BB33
:102C00000000F8BA000016BB000074BB000092BBC5
:102C1000000080BB000046BB00006CBB000068BB2E
:102C2000000083BB00009EBB0000A1BB000098BB5E
:102C3000000090BB000098BB0000ABBB0000A3BB32
:102C400000008BBB0000AEBB0000DBBB0000B6BBCE
:102C50000000B2BB0000C7BB0000C7BB0000BDBB8B
:102C60000000B6BB0000ADBB0000A5BB0000B2BBBE
:102C7000000080BB00004ABB0000D4BA000090B93D
:102C8000000000390000983A0000983A0000403AED
:102C90000000803A0000603A000000000000F039B7
:102CA0000000083A0000F0390000D0B9000080BAF6
:102CB000000060BA00009CBA0000F0BA00009CBAA4
:102CC000000016BB00004EBB00008BBB000083BBA6
:102CD000000038BB000040BB0000E0BA0000B0B903
:102CE000000000390000803800008038000018BA69
:102CF00000000EBB000046BB00000EBB0000B4BAD3
:102D0000000018BA000008BA000000B90000B0398D
:102D10000000CC3A0000703A00004039000018BAB8
:102D2000000098BA0000D8BA00009CBA00000ABBA4
:102D3000000004BB000026BB000038BB000028BB1D
:102D4000000038BB000008BB000022BB0000E8BA4E
:102D50000000D4BA000098BA0000CCBA000012BB40
:102D6000000064BB000022BB000098BA0000E8BA73
:102D7000000028BB000000BB000026BB00000EBB0B
:102D800000001ABB000026BB0000F8BA00001EBB02
:102D9000000052BB000056BB000081BB00008BBB93
:102DA000000087BB000070BB000078BB000022BBA6
:102DB000000040BB000038BB00001ABB0000A4BAF2
:102DC000000038BA0000803900009C3A0000F83A50
:102DD0000000AC3A00000000000000390000B039EB
:102DE000000090B900000000000040B9000050BA97
:102DF000000080BA000090BA000090B9000004BB47
:102E00000000C4BA0000ACBA000028BA0000D0B973
:102E1000000080B80000503A0000BC3A0000F03AD0
:102E20000000043B0000503A00004039000028BA7E
:102E3000000090BA00000EBB000056BB000068BB4B
:102E4000000038BB00002CBB00001EBB00004EBBC6
:102E500000000ABB00000EBB00001ABB000056BBFE
:102E6000000080BB0000A1BB0000BABB0000AEBBED
:102E70000000C5BB0000D6BB0000C5BB0000B4BB52
:102E8000000083BB000056BB000038BB000016BB2F
:102E900000005ABB000087BB000096BB000083BB4C
:102EA000000085BB000081BB00008DBB000081BB22
:102EB000000083BB000087BB00007CBB000078BB28
:102EC00000005EBB00007CBB0000A1BB0000A7BBF4
:102ED0000000ADBB00007CBB000056BB000062BB25
:102EE00000001ABB00001ABB000004BB000044BB7A
:102EF000000026BB000040BB000008BB00001EBB5A
:102F0000000098BA0000B0B900008038000040BA54
:102F1000000050BA000008BA000070BA0000ACBA55
:102F2000000030BB00007CBB0000BABB0000DDBB72
:102F30000000D4BB0000C5BB0000CCBB0000CBBB75
:102F40000000C9BB0000B8BB0000BCBB0000A5BBB3
:102F5000000090BB00008FBB000085BB00006CBB75
:102F6000000056BB000016BB000022BB000044BBA3
:102F7000000074BB00005ABB00003CBB000074BBE7
:102F8000000046BB000046BB00003CBB0000CCBAC2
:102F90000000F0BA00005ABB000064BB000085BB13
:102FA000000094BB000090BB0000A9BB0000C5BBA3
:102FB0000000BDBB0000B2BB0000B8BB0000B0BB4E
:102FC00000008DBB000098BB0000A5BB000083BBC8
:102FD000000062BB000064BB000026BB00001EBBFB
:102FE000000034BB000028BB000068BB00005ABBD7
:102FF000000044BB000022BB000004BB00000EBB6D
:10300000000052BB000062BB000087BB00003CBB5D
:1030100000001EBB00001ABB00005EBB000038BBF6
:10302000000030BB00003CBB00005EBB000052BB98
:10303000000008BB000038BB0000F0BA0000C4BAB2
:103040000000B4BA000018BA00000000000040B947
:10305000000090BA00009CBA000070BA000070BA7C
:10306000000080BA0000D0B90000F0BA0000E0BA59
:103070000000ACBA0000B4BA0000E0BA000016BB11
:10308000000008BB0000BCBA0000E8BA0000D4BAD7
:103090000000B4BA0000F0B9000040390000AC3ABA
:1030A00000000A3B0000F83A0000C43A0000D039A2
:1030B000000080BA0000B0B90000D0B9000000B92B
:1030C0000000F0390000D039000080390000CC3A0F
:1030D00000001A3B0000C43A0000D039000040B99B
:1030E000000000000000B03900004039000040BA84
:1030F000000038BA000080380000D0390000B0B9B4
:10310000000040B90000703A0000183A0000503A40
:103110000000983A0000883A00000000000008BA59
:10312000000050BA000070BA000060BA0000B0B9E8
:103130000000F0B90000D0B90000D0B9000008BA12
:10314000000098BA000050BA00009CBA0000E0BA33
:1031500000000ABB00003CBB000028BB000004BB11
:103160000000D4BA00000ABB0000D4BA0000D4BAF0
:103170000000E0BA0000BCBA000040390000803A0C
:103180000000183A0000503A0000383A0000903928
:10319000000080B9000080390000083A0000803843
:1031A000000018BA000040BA0000D0B9000090B981
:1031B000000008BA000080B8000038BA000040BA29
:1031C00000009CBA00000ABB000088BA000008BAE0
:1031D000000000000000803A0000803A0000D43A6D
:1031E0000000703A0000803A00000039000088BA00
:1031F000000080380000000000008039000000B9A5
:1032000000000000000000B900009C3A00004039B6
:103210000000F8BA000022BB00001EBB000016BB75
:1032200000001ABB00002CBB00005ABB00001EBBF4
:10323000000044BB00005ABB00005EBB00001ABB8C
:103240000000E8BA0000E8BA0000BCBA0000A4BA66
:10325000000028BA000040BA000018BA000060BAA6
:10326000000008BA0000F0B90000F0B90000F0B9A1
:10327000000040BA000000000000D0B9000090B982
:10328000000018BA000038BA000050BA000098BA1E
:10329000000088BA000090BA0000A4BA000050BA3A
:1032A000000088BA00002CBB000000BB0000D4BAAC
:1032B000000008BA00009CBA00000000000050BAEC
:1032C000000070BA000080B8000080B90000F0393A
:1032D000000038BA000090BA000080B900008038C1
:1032E000000080B8000070BA000080BA000088BA00
:1032F000000080B8000080B8000038BA000028BA8A
:103300000000B0B9000088BA0000000000000039D9
:10331000000000000000603A0000A43A00009C3A5F
:103320000000283A0000B43A000080390000D0398B
:10333000000040BA000070BA000008BA000090B95E
:10334000000080380000F0B90000403A0000183A50
:103350000000D0390000803800009CBA000060BA3C
:10336000000000BB0000F0BA0000CCBA00009CBA1C
:10337000000098BA0000C4BA000070BA00004039DA
:1033800000000000000090B90000A4BA0000B4BA28
:103390000000F8BA000000BB000016BB00003CBBF8
:1033A000000044BB000034BB0000E8BA0000D4BAFF
:1033B000000028BA000060BA0000D8BA000004BBC0
:1033C000000070BB000078BB00006CBB000078BB45
:1033D00000008BBB00004EBB00005ABB00004EBB80
:1033E00000008BBB00008FBB000083BB00004EBB06
:1033F000000022BB0000CCBA0000CCBA000012BB17
:10340000000028BA000090B900008038000008BA17
:10341000000088BA000088BA000090B9000038BAED
:103420000000BCBA0000D4BA000080BA000080B925
:103430000000000000004039000038BA000080BAE7
:103440000000B4BA000000BB0000C4BA000098BA83
:10345000000088BA0000D0B90000983A0000D43AC1
:103460000000183A00004039000018BA00009CBA69
:10347000000090BA0000E8BA0000F8BA0000F8BAFC
:1034800000009CBA0000F0B90000B0B9000000B91B
:10349000000070BA00000ABB000028BB00001ABB85
:1034A00000006CBB000083BB000056BB000004BBE7
:1034B000000008BB000098BA000090BA000070BA83
:1034C0000000F0B9000038BA000050BA000070BA2D
:1034D000000050BA000038BA000050BA000040BAEC
:1034E000000008BA0000D0B9000098BA000090BAF5
:1034F0000000E0BA000026BB0000E8BA0000E0BA15
:103500000000E0BA000070BA0000C4BA000050BA6F
:10351000000080BA000038BA000038BA0000CCBA07
:10352000000004BB000080BA000000B90000D039E0
:103530000000803A0000E03A00009C3A0000C43AE3
:103540000000D43A0000D83A0000603A0000603A27
:103550000000503A000040390000703A0000B43AD0
:103560000000283A0000B0B9000000000000F03967
:103570000000183A0000603A00008039000018BAD4
:10358000000080B80000883A0000183A0000703A45
:103590000000083B0000C43A0000D83A0000403A5E
:1035A000000080B9000028BA0000C4BA000026BBA1
:1035B00000001ABB000088BA000038BA0000F0B959
:1035C000000000000000F039000080B9000088BA57
:1035D00000801CBC008057BC0000E73B00001E3B85
:1035E000008001BC00005EBB0000F0BA000046BBDA
:1035F00000001EBB0000E0BA000060BA000028BA5C
:10360000000090BA000000B900000039000038BA8C
:1036100000009CBA0000CC3A00009C3A00001ABBA3
:10362000000016BB0000F0BA0000403A0000183A53
:10363000000070BA0000BC3A0000813B000090B965
:103640000000B4BB00804DBC0000703A0000A73BF6
:103650000000003900001E3B0000283A000080B83E
:10366000000000000000A4BA0000043B0000623B20
:1036700000009C3B00005E3B000060BA00005ABBAB
:1036800000008FBB000094BB000008BB000074BBAF
:10369000000081BB0000C3BB000052BB000094BB14
:1036A00000003CBB000080B90000383A00000EBBAF
:1036B00000005EBB000080BB000034BB00009CBB70
:1036C000000040BB0000ADBB000081BB00009CBB04
:1036D0000000D4BA00009C3A000008BB0000403A49
:1036E0000000123B0000F8BA000080390000F0BA78
:1036F000000000BB0000B0B9000000B9000030BB02
:103700000000BCBA00000000000088BA000040B908
:1037100000000ABB0000183A00005EBB000028BA97
:1037200000005ABB000018BA000098BB000088BA1D
:10373000000056BB00000ABB0000000000006CBB8C
:10374000000068BB000022BB000052BB0000B4BAFE
:10375000000028BA00005ABB000090390000A9BB45
:103760000000D8BA000080B8000018BC0000D43AAD
:1037700000005ABB0000BABB0000D8BA000008BB6A
:10378000008010BC0000E03A0000F6BB000087BBE0
:103790000000B0BB0000A1BB008003BC00002CBB3C
:1037A000000098BB0000ABBB0000ACBA000016BB29
:1037B0000000A4BA000080B800000EBB0000B039C1
:1037C0000000E83A000044BB0000703A00003CBB37
:1037D000000083BB00007CBB0000DBBB00001ABB09
:1037E0000000A7BB0000B2BB000096BB0000B8BB46
:1037F000000080BA00800DBC000098BB00001EBB1A
:1038000000009ABB00002CBB0000F83A00004039D1
:103810000000A13B0000463B0000603A00004E3B28
:1038200000009A3B0000B03900001A3B0000BCBA0F
:103830000000BCBB0000D0390000CBBB0000DABBED
:103840000000683B000015BC0000B4BB000016BBC4
:1038500000801CBC0000B43A0000703A00004E3BEF
:103860000000BA3B000080B8000088BA0000523B5C
:10387000000000B9000034BB0000283A0000ADBBD6
:10388000000090BB0000A4BA0000ADBB000046BB26
:103890000000E0BA0000C3BB00803BBC00008BBB53
:1038A0000000A1BB00000ABC000022BB000038BB26
:1038B0000000ECBB0000803800001EBB00000BBC09
:1038C0000000BC3A000026BC0000C1BB00007CBB6D
:1038D00000801EBC0000F0390000DBBB000070BCA3
:1038E0000000DABB0000ADBC0040C5BC00006CBBF2
:1038F00000800EBC0000E1BB0000383B000038BB7C
:103900000000EE3B0000983A0000F03A0000DDBBFA
:1039100000004E3B00001E3B00006CBB00008039E5
:103920000000B0BB000074BB00007CBB0000C9BB42
:103930000000D4BA0000A9BB0000BFBB0000343BAC
:103940000000C1BB000098BA0000883A0000B2BB7A
:10395000000080390000BD3B0000BCBB0000523BB2
:1039600000009CBA00000ABC00001A3B00008F3B1C
:10397000000096BB0000563B00009CBB0000B4BB9F
:103980000000383C000087BB000088BA000000BB84
:1039900000804DBC0000B4BA000061BC00009ABBBE
:1039A00000004FBC00802DBC00800DBC0000FDBBA2
:1039B0000000E8BA00005ABB0000BCBB0000C5BB59
:1039C000000094BB0000B0BB000022BB00C090BC54
:1039D000000028BB0000D2BB00805CBC000096BB8E
:1039E000000004BB0000B0BB00009C3A000050BACD
:1039F0000000A93B0080683C00800CBC0000163C25
:103A00000000000000008DBB0000E7BB0000A5BB6C
:103A10000000A9BB000029BC000070BB008003BCF3
:103A2000000017BC0000D83A00C092BC00008F3BD9
:103A30000000BFBB0000813B0000E83A00009E3B55
:103A40000000EC3B0000DA3B00804C3C0000F2BB85
:103A50000040933C0000AD3B00003CBB0000983BA5
:103A60000000CCBA0000263B000094BB000062BB03
:103A70000000EABB00800FBC00006EBC00802ABCC6
:103A80000000BABB0000D6BB0000BCBA000016BCE8
:103A90000000563B000014BC0000F8BA0000B2BBA6
:103AA0000000A7BB0000AE3B000047BC00801F3CED
:103AB0000000813B0000E5BB0000F43B00801BBC24
:103AC0000000603A0000D23B0000043B0000B2BBA3
:103AD0000000AB3B0000DFBB0000873B000033BCB5
:103AE00000008FBB00804DBC00008DBB0000BDBB43
:103AF0000000D4BB00001ABB008000BC00001ABB51
:103B000000002C3B0000CEBB0000E13B0000D03B9E
:103B10000000C5BB0080AD3C0000E8BA00001A3BC5
:103B20000000A93B000000390000A93B00800CBC4C
:103B30000000643B0000443B0000903900801EBC44
:103B400000009FBB00800FBC00009CBA0000223B1D
:103B50000000C5BB0000A53B000047BC0000E83AE0
:103B6000000036BC00009ABB0000E03A000070BBC9
:103B70000000A53B008087BC00800C3C000004BC1A
:103B8000000018BA0000C3BB000088BA0000CEBB1A
:103B900000004EBB0000D43A008012BC00006C3B19
:103BA000008087BC0000743B00005EBC0080003CCD
:103BB00000005EBB00800FBC0000503C0080A3BC36
:103BC00000007EBC00003CBB0000283B00802ABCFB
:103BD0000000093C00005EBC000000000000803ACC
:103BE000000068BB0000963B00008EBC00408C3C8F
:103BF00000006CBB0000963B000070BC00007C3BEA
:103C0000000008BA0040BEBC00802D3C0080FFBC14
:103C100000008D3B0000E1BB000014BC000028BB8D
:103C2000000056BC0000743B000052BC00801E3CEB
:103C30000000D4BB0080473C00800FBC0000D43A99
:103C40000000E03A0000683B00802CBC0000073C0C
:103C50000000F4BB0000B03900009FBC0080213C94
:103C60000000E5BB00000ABC00008BBB00801FBC4D
:103C70000000A53B00009FBB0000FF3B000073BCA1
:103C8000000038BB008001BC000013BC00007CBCFD
:103C9000000080B8008039BC0000703A008096BCFB
:103CA000000088BA0000ECBB000022BC0000613CB0
:103CB00000C092BC00009E3B0000C4BA000018BACD
:103CC0000000F4BB0000C3BB000096BB0000D0396D
:103CD0000000043B000026BC0000B43B00004EBBCB
:103CE0000000343B0000F8BA00005ABB00004E3B15
:103CF00000802D3C00004EBB00008B3B0000443B8D
:103D0000008000BC0000943B000040BA00009F3BD4
:103D10000000ABBB000090390000153C00001ABB4E
:103D200000805A3C008010BC0080883C0000B0BB82
:103D3000000056BB0000A6BC000096BB0000D4BA31
:103D40000000D4BA00C0A1BC0000343B00009FBBFF
:103D50000000E33B008011BC0000A4BA0000F8BAE8
:103D600000004ABB0080B43C0000AD3B0000E03ADC
:103D70000000E5BB00809DBC000040B9000004BB12
:103D80000000B0B90080A4BC0080803C0000D8BB1B
:103D90000000173C008067BC000005BC0040983C58
:103DA00000800F3C0000443C0000A7BB00803A3C70
:103DB000000080BB000080B90000C1BB00806CBC6B
:103DC00000409BBC0000453C000038BC00C082BCE9
:103DD0000000923B0000BDBC00800D3C0000ECBB2D
:103DE000000016BB00802CBC00801FBC0000643BA0
:103DF0000000E3BB0000D63B00801FBC0000E13B9D
:103E000000002C3B0000803B008086BC0000E5BB2E
:103E10000000F83A00008038000038BA000046BCC4
:103E20000000F03B000038BA0000983A00001A3B4E
:103E30000000603A0000DF3B0000873B0000E0BA72
:103E40000080303C0000BCBA000090BB00009EBB6C
:103E50000000A4BA0000E33B0000D1BC0000983C85
:103E6000004084BC0000BC3C00009E3B00009E3B28
:103E700000000E3B0000463C0000473C000064BBD5
:103E800000C0813C00007DBC00800D3C000031BCC6
:103E90000000FD3B00009EBC000025BC0000463B2E
:103EA0000000E1BB000018BC0000D0BB0000923B4A
:103EB00000007CBC00800B3C000080B800007EBC91
:103EC0000000B23B000050BA0000F93B00803BBC50
:103ED0000000153C0000DBBC0000893B0000D2BBA9
:103EE000008049BC000007BC00409BBC0000553C62
:103EF0000000EEBB0000163B0000123B0000C33B7D
:103F00000000683B0000C73B000040BA00008FBBC8
:103F10000000ACBA000017BC0000C73B0000043C26
:103F2000008068BC00801F3C0000183A0000803907
:103F3000000055BC0000043C000071BC00802A3C1D
:103F400000001ABC00000BBC0000AB3B0000383A7C
:103F50000000743B00804DBC008021BC0000F6BB1B
:103F60000000C7BB00804ABC0000083A000028BB24
:103F7000008080BC0000643B000080BA000071BC7F
:103F80000000F23B0000C13B000086BC000000BB0B
:103F90000000F43B0000D039000080BA00800B3CE8
:103FA00000805BBC00800DBC00009A3B00807BBCA5
:103FB0000000123B0000E7BB0000303B00804CBC1F
:103FC0000000F43B0080683C008038BC0000AC3A44
:103FD0000000183A000040BC0000D039000052BB7D
:103FE0000000983B00C09BBC00801F3C0000E1BB70
:103FF000008001BC0000243C000052BC0000E0BA7C
:1040000000000E3B0000383B0000A93B00006C3B69
:1040100000805B3C000012BB0000043B0000083B3A
:104020000000EEBB000040390000C4BA0000E33BD2
:104030000000DDBB0000853B000016BB0000A5BBF7
:104040000040A2BC0000E0BA0000AEBB0000B8BB5C
:10405000000060BA0000B4BA00802CBC00804EBCE6
:104060000000853B00006EBC00000000000096BB15
:104070000000403A000080B9000063BC0000DA3B59
:10408000008080BC0000073C000070BC00800EBCBB
:104090000000F2BB0000F0B90000783B0000083BD4
:1040A0000000893B0000DF3B0000E1BB0000C13B9A
:1040B00000004ABB00805ABC0000E5BB0000BDBB4D
:1040C00000000ABB00000ABB0000B0BB00005EBBE2
:1040D00000803C3C000080B80000C4BA000083BBF4
:1040E0000000B83B0000813B0000D23B000008BC50
:1040F000000017BC000090BB0000D2BB0000333CA6
:104100000080A3BC000038BA0000A3BB0000B6BB0F
:10411000000062BB000000B90000C7BB00005A3BB2
:10412000000098BA0000803B0000C1BB0000C1BB8A
:1041300000008FBB00005E3B0000A9BB0000943B69
:10414000000078BB0000803B0000E53B0000A5BB01
:104150000000C13B000038BC0000AD3B00C09BBC70
:1041600000007C3B00C091BC0000D6BB0000BC3B03
:10417000000034BB00C09BBC000070BA0000B4BAA1
:104180000000C43A0000C73B0000A9BB0000B43ADD
:10419000000090BB00009F3B0000743B0000BCBBD4
:1041A0000000623B00800BBC00801BBC008000BC98
:1041B0000000003900804EBC00009C3A0080473C63
:1041C00000003CBB008095BC0000083B0000BA3BEF
:1041D00000802ABC0000F03A000026BC000053BC5E
:1041E0000000983A0000F0B900005ABB000056BB2E
:1041F000000040BB000013BC0000D0B900000ABBA7
:1042000000804CBC00801CBC000090390000F0BA5B
:10421000000040BC0000BA3B000089BB0080203C8D
:104220000000F8BA00002C3B0000BDBB0080113C30
:104230000000B8BB000062BC00008D3B0000A4BAC7
:10424000000038BA000040BC000064BB00009CBC09
:1042500000007CBB00002CBB00800BBC000038BC05
:10426000000063BC00001A3B0000C9BB00801FBCFB
:10427000000035BC00801DBC0000803A0000283AD8
:104280000000BD3B0000DFBB000000B90000B0B97A
:104290000000CC3A000018BC0000283A0000C7BB60
:1042A0000000EEBB0000C3BB000036BC000080B8BD
:1042B00000004FBC0000833B00001EBB000040BB61
:1042C000000080BA000052BB000060BA0000E13B71
:1042D00000004EBB0000BF3B0000F0BA0000C93B2D
:1042E000000089BB0000C1BB00804D3C0000C9BB81
:1042F000000080BA0000E8BA00002C3B00004ABB76
:1043000000800E3C0000E93B000080BA0000373C12
:104310000000853B000080380000B63B00008F3B6A
:10432000000022BB00801BBC0000D039000081BC13
:10433000000063BC0000A7BC0000833B004091BCB0
:10434000000017BC000085BB008058BC000062BBA9
:104350000000283C00802F3C0000833B00803B3C59
:104360000000BCBA0000B4BA008049BC0000463B63
:10437000008049BC00801CBC00001EBB0000DABBF2
:1043800000009CBB000008BA000040B90000A7BBB9
:10439000000016BB0000DF3B000029BC000090BB02
:1043A0000000F03B0000983A0000003B000090BA8B
:1043B00000800F3C000081BB0000F83B0000343B54
:1043C000000083BB0000B03B000098BA0000703BC7
:1043D000008010BC00003C3B00801CBC0000323C54
:1043E0000000EEBB0000243C0000173C0000803AB7
:1043F0000000133C0000403A0000CC3A000023BC0F
:104400000000133C00001EBB00800DBC00009FBBE1
:10441000000098BA000037BC000031BC00000ABBA5
:1044200000006EBC0080AEBC0000983B0000D8BB12
:10443000004094BC0000813B0000C43A008076BC80
:1044400000000ABB000098BA00408BBC000009BC09
:10445000000034BB00804CBC0000C3BC00801EBC0C
:104460000000BCBB00C0AABC00000ABC00801EBC8F
:1044700000006EBC000080BB0000F03B0000C9BB28
:104480000000DBBB0000503C0000603A0000D03B65
:1044900000801F3C0000153C0000D43B0000543C51
:1044A0000000B53C0000683B0040933C0080073DA5
:1044B00000805A3C0080973C00C0AF3C0000C93CE3
:1044C0000000EA3B0000D13C0000323C000085BB0C
:1044D000000028BB000045BC0040B8BC0040DFBC69
:1044E00000C0C5BC00E03CBD00A017BD00C037BD8A
:1044F000006027BD000055BD00E01FBD00E018BDF5
:10450000000013BD0040C7BC0080F6BC0080A4BC06
:1045100000006DBC000040B9000068BB0000000056
:104520000080963C0080573C0080DF3C00C0F93C96
:104530000000043D0080A53C0000173D0020503DD8
:104540000000253D00C03F3D00A05E3D0080743D61
:1045500000A0663D0020673D00C0B63C0000363C30
:104560000080A63C0000283C008059BC006009BDCA
:1045700000400FBD00C03FBD008034BD00A053BD52
:1045800000808CBD005086BD00E029BD00E008BD64
:10459000006026BD0000DBBC00006FBC000070BBEB
:1045A000000090BB00009CBA0000ABBB000072BCD6
:1045B000000080BA0080C9BC000008BD000028BD12
:1045C00000E010BD00C047BD006054BD002035BDF7
:1045D000002036BD0000FEBC0040C8BC008000BC0E
:1045E0000000E8BA0000A43C0080E73C0080213DC8
:1045F00000A04B3D0030823D00D0853D00308C3D19
:1046000000D0AB3D00F0AD3D00E0B33D00F08F3D8C
:1046100000C0303D0080B23C0080E93C00C0993CC5
:10462000008074BC000013BD00402CBD00C038BD2C
:10463000002050BD006067BD00E071BD002072BD6C
:1046400000C0F2BC00C099BC00C092BC00007EBC9F
:104650000000783B0000303B0000813C00006E3CD5
:1046600000802BBC00808EBC008074BC0040DFBC8E
:1046700000C07EBD002085BD00E090BD003095BD2E
:1046800000C097BD004089BD00F081BD00803EBDE7
:10469000008012BC0000563B00C0AA3C0060203DD8
:1046A0000010883D00C0AA3D0030C23D0010C43D4E
:1046B0000010D53D0090E13D0060E33D0040B43D79
:1046C0000040153D0040AF3C0000E33C0000223BB1
:1046D00000E031BD000073BD003082BD00908BBD95
:1046E00000A094BD00408BBD00209FBD004068BD70
:1046F0000080D1BC0000B2BB008030BC0080023C16
:1047000000601B3D00601B3D0040403D00A0013D9E
:104710000080813C0000143C0000943B0040EDBC54
:1047200000006CBD00807EBD00C092BD00E0A2BD57
:104730000040B8BD00309CBD00D08BBD00A027BD9F
:1047400000800BBC00007C3B00C0893C0000783D31
:104750000080B53D00E0BB3D00B0D03D00B0FF3D66
:1047600000A8013E0060FD3D00E0E03D0040613DED
:104770000040B03C0040FB3C0000C53B00C067BDB2
:104780000090AFBD00909CBD00F0B2BD00D0CDBD8B
:104790000050B7BD00B0D2BD00D0A3BD00A00FBD7A
:1047A00000800FBC008079BC0000313C00A03A3D85
:1047B00000A05B3D00C0523D0060393D0040DC3C44
:1047C0000000503C0000733C008095BC00807BBD25
:1047D00000108EBD000096BD0010B3BD0060CEBDC0
:1047E0000000B2BD00209ABD004038BD00006EBC84
:1047F0000000283C0040A93C0080833D00B0CD3D36
:104800000050E23D0000F63D00C00D3E00D01C3ED1
:104810000060123E00C0E43D0020493D00C0213D43
:104820000000003D000027BC00508BBD0070C7BDDC
:1048300000D0C1BD0040D0BD00F0D4BD00F0DDBD52
:104840000040D7BD00708BBD0000D3BC0000603AB3
:104850000000283A00E0093D0080873D00409D3D72
:104860000020923D00205F3D0000173D0080CC3CC1
:104870000000653C0000EFBC00C07ABD000092BDA6
:1048800000F0A5BD0070C7BD0020E7BD0000C9BD98
:1048900000809FBD00A04CBD0040A1BC00000000F6
:1048A0000000D13C0060923D00C0CE3D0000EC3DD8
:1048B00000000A3E00E0193E00501F3E00380B3E4B
:1048C00000E0863D00E02D3D0080333D00003CBB14
:1048D000004069BD0080C8BD00B0CBBD00B0F4BDD4
:1048E0000050F8BD0000F2BD001003BE00A0C6BD20
:1048F00000E04BBD00C08ABC004085BC0000893C84
:104900000080643D0010973D0040943D0000873DCD
:1049100000A0393D00E0013D0000F63C00808EBC67
:1049200000C06FBD00D094BD00F08DBD0090C9BD2A
:1049300000A0E2BD0060C6BD00209DBD004030BDAE
:1049400000809DBC0000CE3B0080D93C00C0923D61
:1049500000A0DF3D0060F23D0040023E00301F3EFF
:1049600000B02A3E00E8043E00A0783D00C0463D6D
:104970000000263D000041BC00E075BD0070CDBDCB
:1049800000F0E7BD006002BE00D0F2BD009001BEA5
:1049900000D80FBE0000C5BD00C03EBD008097BC62
:1049A00000C092BC0000953C00606B3D0010AF3D24
:1049B0000020A53D00A0783D0000433D0040373D6C
:1049C00000401A3D004085BC00B082BD0050A0BD33
:1049D00000F0A5BD0030C2BD0040F4BD0070E9BDCF
:1049E0000050BEBD00204DBD0080BDBC00008FBB8F
:1049F0000040A73C00508B3D00A0DB3D00A0FB3DEC
:104A000000C80E3E0088223E00382A3E00681A3E4A
:104A10000040A13D00802F3D00E0453D0000AD3B42
:104A2000002054BD0020C3BD00B0DFBD0060F0BD5C
:104A300000C0FBBD00E0EFBD000007BE0070CBBDB5
:104A400000203EBD0000B0BB0000D0B900007E3C9D
:104A500000A0883D0060BB3D0060BF3D0040923D2E
:104A600000C0613D00802F3D0040F53C0000B6BB1A
:104A700000E065BD0040AABD0060BDBD0080C6BDB0
:104A80000050FCBD00F0F9BD0060C5BD004081BD17
:104A900000C0DEBC00006CBB0000EF3C0040813D6C
:104AA0000060E33D00780A3E00581C3E00402E3E68
:104AB00000F83A3E00C81E3E0080943D0020763D3E
:104AC0000000693D0000C5BB002092BD0090D4BD30
:104AD00000F0E9BD004012BE005011BE00A00CBEA7
:104AE00000A018BE0050DABD006048BD008079BC4F
:104AF000000056BC00C0DB3C0020A93D0060CE3D5C
:104B000000A0B23D00F08D3D00D0823D0000343D5C
:104B10000040A33C00C0CCBC00C088BD0080C3BD29
:104B20000070D1BD00A0DFBD00680CBE00A001BEBA
:104B300000E0C6BD00006DBD00C0D6BC0000B0B92D
:104B400000400F3D00D0983D0080F13D00D8143E5C
:104B500000A8223E0008393E00C0433E0070133ECC
:104B600000D0893D00C0933D00E0723D00802FBC25
:104B70000010A4BD0060CEBD0040DDBD005011BEE0
:104B8000005003BE000005BE00900BBE0020BBBD60
:104B90000040D5BC0000383B00004EBB0000443D47
:104BA00000F0BD3D00C0ED3D00D0D43D00209C3D57
:104BB0000000813D0000563D00C0DE3C0040DDBCF1
:104BC00000C090BD0030BCBD00D0C9BD00D0F2BD5A
:104BD000001009BE000800BE00F0CEBD000085BD7B
:104BE0000040F3BC0000D6BB0040AF3C0060833DFA
:104BF0000080D93D00F0FF3D00F80F3E00502E3EF2
:104C000000D83C3E0020F73D00A0363D00F0803D3E
:104C10000000523D00C0D6BC00B0B4BD00A0D9BD5C
:104C20000080F0BD004012BE00F0F2BD00A803BE3F
:104C300000380BBE00B0A7BD00802CBC0000043CB7
:104C40000000EC3B00404F3D0080C83D0080EC3D43
:104C50000040D43D00409A3D00402D3D0040283D9D
:104C60000040E53C0080F9BC00A0ACBD0020CCBDFC
:104C700000A0C8BD00C0E8BD005005BE0060F9BD81
:104C80000040C7BD00E074BD0040A2BC0000903AE7
:104C900000C0B93C0040873D0060EA3D00E0063EB0
:104CA0000010153E00A82E3E00C03A3E0040EA3DEE
:104CB0000080023D00E07D3D00002C3D00000FBD66
:104CC0000010CBBD0010E0BD0050F4BD007020BE50
:104CD00000C0F9BD001003BE00900DBE0010B5BDB0
:104CE000000025BC0080653C000040BA00804B3DC0
:104CF00000D0CD3D0000EC3D00F0C53D0010A43DCE
:104D000000402C3D0000E93C00C0933C0080D9BC31
:104D10000060A8BD00B0D0BD0070BCBD00D0DCBD3F
:104D200000B802BE00D0E1BD00B0ADBD00A069BDBD
:104D3000000088BC0000523C0000F83C00206F3DA1
:104D40000030E03D0000043E00A00C3E00B0263ED6
:104D500000C0373E00A0EE3D0080CB3C00C0583D77
:104D60000020503D00C0CEBC00B0C7BD00A0D5BDE6
:104D700000D0CDBD00D008BE00D0E5BD00C0E0BD74
:104D80000060FDBD00E0A6BD000088BA0000D23C76
:104D900000008B3B00801E3D0070D83D0010F33DAD
:104DA0000070C93D00F09A3D00A03C3D0000A63CCB
:104DB00000C0903C00004FBC00B0ABBD00E0E4BDC3
:104DC00000E0B9BD00C0C2BD005001BE00F0E5BDAD
:104DD0000020A9BD002058BD0040C6BC0080483C52
:104DE0000000213D00A06E3D00B0CF3D00D8033E45
:104DF00000700E3E0058173E0028293E0030133E3A
:104E000000C02B3D0040913C00A03A3D000018BC82
:104E10000010B7BD001800BE0020DFBD00D800BEE6
:104E2000005809BE0040DBBD0070F2BD0030B9BDC6
:104E30000000E2BC00C0F23C0040A33C0000E03CAB
:104E400000E0BD3D00B0FD3D00C0DB3D0090AF3D4A
:104E500000607A3D0000F73C00808E3C000050BCB2
:104E6000002081BD00D0DABD00B0D0BD00A0C1BD22
:104E70000070FABD00D0F0BD00C0B3BD00C064BD7D
:104E800000E01ABD000024BC0080253D00807A3D72
:104E90000050B13D0070ED3D00B00B3E00D0163E1D
:104EA0000050243E00B82D3E00B0BE3D0000853BC2
:104EB0000080FF3C00C0203D00C034BD0010F1BDAB
:104EC0000090EDBD0050C2BD00C802BE0050E0BD64
:104ED0000080D7BD00B0D6BD00007CBD0000803C86
:104EE0000060203D00804D3C00405D3D00C0E03D45
:104EF0000020EA3D0030B13D00E08C3D0060353DD2
:104F00000000F63B00808FBC002023BD00F0A9BD4F
:104F10000010EFBD0070CBBD0090D2BD0030E6BDEB
:104F20000010CBBD007080BD00C03ABD00C0B6BC53
:104F300000005F3C00A0503D0080943D00B0B63DB5
:104F40000060EC3D0088083E0030143E00E8213E41
:104F500000481D3E00A05E3D00802BBC00E00B3DE4
:104F60000000963C004089BD00B802BE0090E0BD44
:104F700000D0C1BD009001BE0060D2BD0090C7BD91
:104F800000A0AEBD00803BBD0000D93C00602B3DC1
:104F90000080B23C00C06F3D00E0D93D0010DC3D18
:104FA00000E0A23D00A0693D00C0C73C0000B4BBCA
:104FB000008007BD00E062BD0040C8BD0080FDBDAF
:104FC0000070E3BD0070DEBD0020E3BD0030C2BD57
:104FD00000808ABD006032BD00809DBC00008E3C18
:104FE0000060413D00F08F3D0090BA3D00C0DE3DC5
:104FF0000010073E0080113E00481D3E0020133E79
:1050000000805D3D000045BC0080C23C0000E73BE5
:10501000005080BD00F0FFBD0000E7BD0020C9BD0D
:105020000080EEBD0010BCBD0030A8BD00E095BD05
:10503000004015BD00801A3D00C0843D00A02A3DFF
:105040000060753D0080D53D0070E73D0010B53D26
:1050500000C0603D00009E3C008058BC006009BD5F
:1050600000E063BD0020CEBD00C007BE00B0F4BDAF
:1050700000C0D9BD00A0E0BD00A0CCBD006094BDC3
:10508000004033BD008085BC0080853C0040283D49
:1050900000E0883D0080BD3D0020DD3D00E0F53DA5
:1050A0000098073E0030153E00E8103E0060673D66
:1050B0000080C2BC0000FF3B00801B3C002057BDAD
:1050C0000030F8BD0040F4BD00B0C9BD0010DEBD29
:1050D00000E0A2BD00F092BD005099BD000028BDC7
:1050E0000020273D0070973D00802C3D0080513D01
:1050F0000020C73D00C0ED3D0060BF3D00206A3D7F
:105100000080903C00804CBC00800EBD000069BD5A
:105110000090C9BD006808BE00F801BE00B0DEBD49
:1051200000C0D7BD00E0CFBD008096BD00A01CBD73
:1051300000800FBC00809E3C0060413D00A0883D87
:105140000000C53D0010ED3D00D0FA3D00D8053E01
:105150000050143E00D8133E00B0C33D00000ABC0E
:10516000008039BC00806B3C00C0D6BC00E0CABDEA
:10517000001005BE0000C7BD00B0C7BD00F0B0BD47
:1051800000C095BD005095BD004031BD0080673C1A
:1051900000808E3D00E0783D00202A3D00D0A33DF8
:1051A0000050E43D0040D63D00E0723D0040933C9D
:1051B000000038BC006018BD007088BD00B0CBBDD9
:1051C00000B801BE002015BE006004BE0020EABD8C
:1051D0000050C9BD0050B3BD00C073BD0080ADBC60
:1051E0000080663C0060223D0080733D0080B93D38
:1051F0000010E43D0030F33D00B0083E0000183ED2
:105200000068163E00B0FA3D0040BF3C0000ACBC58
:105210000000B23B00803FBC008094BD003002BE65
:105220000050E5BD00E0BBBD00E0C6BD00E095BD9F
:10523000009082BD002035BD000096BB0070803D0F
:1052400000E0B33D0070843D00D0963D00E0E23DBB
:1052500000E0F33D0070AD3D00402C3D0080103C6F
:105260000000B6BC00A086BD00E0ACBD00E0EBBD18
:1052700000F017BE005818BE0020FBBD0040D2BD94
:105280000080D7BD00209ABD00A01FBD00006CBBF0
:1052900000C0D43C00605B3D00B0913D0000CE3DBD
:1052A0000050F43D0098033E0040073E00700D3E64
:1052B00000100A3E0030AA3D00808EBC0080CBBCAE
:1052C000000038BB00002DBD00F0DABD00B806BEFE
:1052D00000A0C8BD0080D3BD0060B0BD00206BBD84
:1052E000004043BD0040FBBC0040A73C00E0B53D92
:1052F00000A0AC3D0080783D0040AA3D0080EA3D22
:105300000080D53D00D08F3D0040B23C008066BC9F
:1053100000C059BD0070A9BD00C0CEBD009812BE2E
:1053200000C821BE000015BE00A0EEBD0040D0BDEB
:105330000050B8BD00C060BD00806ABC00C0BD3C6C
:1053400000405A3D00308D3D00D0BF3D00D0F03DC3
:1053500000D00A3E00E0083E00080B3E00D0093EA7
:1053600000C0F73D00604F3D000028BD0040C0BCBC
:10537000008088BC00006DBD0050FABD00E0FABDA1
:105380000020BABD0050C9BD00D080BD00E031BDD5
:10539000008015BD00008DBC00A0453D0070D43DCF
:1053A0000050AB3D00C07F3D0070C43D00F0F43DB7
:1053B00000C0D33D0040613D0000453C0040B7BC0B
:1053C00000C090BD0090B8BD0090E7BD00F81CBEC5
:1053D000009827BE006814BE00C0EABD00E0CDBD45
:1053E0000050B7BD00603ABD0000AEBB00200C3DD0
:1053F00000C0563D00008B3D00D0BE3D0090E53D15
:105400000060033E00E0ED3D00E0EB3D00C0E63D06
:105410000010E03D00C0523D00A036BD00C011BDEF
:10542000000045BC00E045BD00E0D7BD0020E7BD61
:1054300000609BBD0090A7BD004068BD0080D3BC4C
:105440000080D2BC008049BC0040253D00E0CA3D40
:1054500000D0AD3D00005E3D00B0A03D00E0E03D6D
:105460000030B93D0080153D0000BABB008002BD90
:1054700000F08DBD0000C7BD0070F1BD007816BE04
:10548000009822BE008012BE00C0DDBD0070BCBD11
:105490000070A2BD006023BD0000F83A0080FE3C11
:1054A00000A0493D00A08E3D0070B33D0020C13DED
:1054B00000A0E43D00F0D83D00E0CA3D0000D23D30
:1054C0000030D33D00B0A73D0080CCBC00803FBD84
:1054D0000000E9BB0080CBBC00F092BD0000D8BD4D
:1054E000008090BD00B087BD00A076BD0000BDBCAF
:1054F0000040A3BC008078BC0080293C0010A23D85
:1055000000C0B13D00203A3D00806C3D00E0B33D5D
:105510000010A03D00C0F33C0000883A00C089BCE8
:10552000004065BD00C0CCBD0000E7BD008000BEEE
:1055300000B816BE00D007BE0050DEBD0040ACBDB6
:1055400000508DBD00C015BD0000CC3A0040B13CFC
:1055500000A03D3D0070843D00E0A43D0050A63D0C
:105560000040B63D00C0BF3D0040B83D0010A83D22
:105570000060B93D0020BB3D0040133D00C059BD57
:1055800000000EBD0000803900C0E3BC00B098BD33
:1055900000A0A4BD000040BD002076BD00A017BD46
:1055A00000801BBC000064BC000061BC0080CB3CE0
:1055B0000000943D00C07E3D0040303D00A05A3DBB
:1055C00000308A3D00E0503D0080D83C0000B8BB70
:1055D000000013BD00F094BD0070BCBD0030CDBD17
:1055E0000050F6BD00F0FDBD0080EABD00D0B2BDA8
:1055F000003082BD00203DBD00C0A2BC00800F3C39
:105600000080F93C00804E3D00C07A3D0020833D83
:1056100000408B3D0090A43D0080B43D00F09C3DD7
:105620000070953D0070B13D00C0BB3D00C08C3C9A
:1056300000204CBD00802ABC0000CC3B00C0C8BC90
:1056400000C090BD00007CBD000038BD00207EBDC4
:1056500000C003BD000047BC0000A4BC0080BBBC70
:1056600000408C3C0000833D00205F3D0020063D53
:1056700000404A3D0060673D0040303D0080563CA0
:1056800000007CBB0040ECBC0010A8BD00C0BFBD4A
:1056900000B0C0BD0060D5BD0000ECBD0010D5BDA0
:1056A00000F09ABD00407EBD00403BBD00005EBCE6
:1056B0000000073C0000AD3C00C0023D00C05C3D66
:1056C0000010883D0040873D00B0823D00A0903D25
:1056D00000E0953D00A0993D0080B03D0070BA3DCE
:1056E00000C0123D006023BD0000F9BB00C0C73CF4
:1056F0000000B8BB00006DBD007089BD00E041BD79
:10570000009086BD00E023BD0080BDBC00A022BD8E
:1057100000803EBD0000BC3A0000783D00C03A3D2C
:105720000040A23C00C00D3D0000693D0040403DEE
:105730000000C33C00801B3C00808DBC00607CBD31
:1057400000B0A7BD00609FBD0020ABBD0080D5BDEF
:105750000090D4BD0010A2BD004073BD00001DBD6F
:10576000008081BC00008B3B0080673C00A0103DA6
:105770000080733D0090823D00205C3D00605B3DF9
:105780000000783D0090823D00C0843D00C08E3D09
:1057900000A0A33D0030953D000028BB0080EEBC7A
:1057A0000000403C0000503C0080CCBC00B085BDF7
:1057B000006050BD00C052BD00607DBD002020BD16
:1057C000004006BD00800ABD0000EFBC00C0A73C41
:1057D00000A0363D0080BD3C0040A03C00E0473DBD
:1057E00000C0563D0040D43C0000373C0000923BD6
:1057F0000080B4BC007086BD00C08ABD00C097BDEB
:105800000000C1BD00A0C1BD009093BD00A075BD4A
:1058100000207ABD006009BD000038BB0000193CC3
:105820000080743C0080EF3C0080303D0020333D20
:1058300000A0233D00C0433D0060443D00205C3D8E
:1058400000D0803D0020A13D0090B83D00109D3D5E
:105850000000FD3B000026BC0080C43C0000553C1D
:1058600000C0AABC00006DBD00004BBD00608CBD37
:1058700000809DBD002023BD002010BD00E04CBD78
:1058800000C047BD0000B63B00E0083D00409A3C28
:105890000040B13C00802D3D0060403D0040063D91
:1058A00000C0D53C0080C23C0000F4BB00A03CBD61
:1058B000000071BD000078BD00408CBD00E09BBDC4
:1058C000001095BD00308DBD00206FBD00400ABDA9
:1058D000008079BC000046BC000004BB0000653CB1
:1058E00000C0FA3C0040F23C0060113D00602F3DDA
:1058F00000A03D3D00805C3D0040893D0090A03D02
:1059000000C0AC3D00C0C83D0060533D008039BCC4
:105910000000443B0000903C0000A5BB00C058BD07
:10592000002092BD005091BD0080BBBD00D087BD5E
:10593000006048BD007089BD00C090BD002009BD59
:105940000040C83C0040EE3C0040DE3C00A0413D31
:1059500000C0743D0000783D00804D3D00E0473DB3
:1059600000A0013D000054BC00802FBD00C05DBD03
:10597000005093BD00E0AEBD0000C3BD0040C5BDFA
:1059800000C0C4BD00409DBD00A039BD00C003BD26
:1059900000C0CFBC00801BBC0000953C0020093D2E
:1059A0000080433D0000643D0040603D00407B3D81
:1059B00000A0A33D0050C63D0060C13D0070C53D44
:1059C0000040CC3D0040123D00C082BC0000B4BA93
:1059D00000008FBB006017BD00B09EBD00609FBD82
:1059E0000040A5BD0080D3BD00E0A2BD00605EBD4B
:1059F000006035BD002024BD000018BA00003F3D06
:105A000000C06B3D0040833D0060A53D00A0BB3D54
:105A10000020A73D00A06E3D00803C3D00808F3CF3
:105A200000A004BD009091BD00F0C3BD0010E0BD1A
:105A300000C0F7BD007001BE0010EFBD0070DCBDFE
:105A400000A0A8BD00404EBD0080B4BC00004A3B91
:105A50000000CA3C0000403D00B0853D00B0943DD0
:105A600000009E3D00209D3D00E09D3D0090933D47
:105A70000070893D00C0883D00F08B3D0080923D64
:105A80000020493D00600DBD00A071BD0080DBBC61
:105A90000080A3BC00204CBD00D0B0BD004098BD2C
:105AA00000D0A0BD00A083BD00C0D5BC000090BA4E
:105AB000000088BA00805D3C00807E3D0060CC3DE7
:105AC0000010BC3D00B0AF3D00C0BB3D0040943D68
:105AD0000020273D00805D3C0000F83A00A02ABD70
:105AE0000050CDBD008806BE00A807BE000801BE5C
:105AF0000060F2BD00E0E4BD0080C3BD00D091BDF8
:105B000000C006BD00006E3C0040213D0020513D1C
:105B10000020723D0060A53D00C0B13D00F09F3DFA
:105B20000020723D00602F3D00C0DC3C0040893CFD
:105B30000000603C00006E3C0080103C0040943C43
:105B40000040F53C00C0A9BC00205CBD00C0BEBC4C
:105B50000000A5BB00C092BC00001ABD0040B8BC4C
:105B60000040A9BC00E004BD00008DBB0000E03C8B
:105B700000C0D53C00408A3C0000F73C00E0483DB6
:105B800000A0233D0000EA3C0080EF3C0000453CC3
:105B9000000028BC00C0CEBC0000DABC000037BD4D
:105BA0000020A9BD0090C5BD0040C5BD0000BCBD22
:105BB00000E0A6BD00608ABD00C04EBD0080EABC0A
:105BC000000038BA00C0C73C0000123D00804A3DCA
:105BD00000805A3D00C0493D0040313D00E0003D9D
:105BE0000080A53C0000F0B900801BBC00803ABCDE
:105BF000000052BC0000383B00005F3C0000FF3C4E
:105C000000C04E3D0010933D00A0103D0000C93B78
:105C100000A0133D00E0383D0040073D00008B3BF5
:105C200000006CBB00C0BEBC002066BD00602EBD85
:105C30000000A5BC0080F7BC00805DBD00A041BD98
:105C4000000044BC0000D0BB0000B0B90000653CBF
:105C50000080803C0000B03B00009C3B0040843C46
:105C600000800C3C00C0C6BC002008BD006013BD15
:105C700000C03ABD006041BD00203EBD00E004BD53
:105C800000401DBD00000ABD00808DBC00802ABC04
:105C9000000046BB0000AB3B00408B3C0000173CC3
:105CA0000000A43A0000063C00001A3C0000253C1D
:105CB0000000FD3B0080583C0000123D0040523D7A
:105CC00000E0843D0060A53D0090D23D00E0D73D5E
:105CD00000203A3D0000743C00C0DC3C0000703CF9
:105CE000000065BC004033BD00C064BD0010B5BD00
:105CF0000060D0BD00E08ABD000040BD00E044BDB2
:105D0000002042BD00805DBC0080763C0040AA3C83
:105D100000C02F3D00308C3D0080813D00A0263D1D
:105D20000020013D00C0F33C0000073C0040F2BCF5
:105D300000E05FBD00F0AEBD0070D8BD00F0D2BD88
:105D40000040AEBD00F09ABD006099BD004064BD4A
:105D50000000D8BC0000F0B900C0823C0040F33C19
:105D60000020103D0020363D0080423D00C0333D04
:105D70000000F63C0000BC3C0080BC3C0000893CBC
:105D800000804A3C00C08B3C0040D03C00C0F93C45
:105D90000020363D00E06E3D00E03C3D00000ABBC7
:105DA0000000A33B0040A13C00C0843C000080BA3E
:105DB00000803ABC00009EBC00A053BD00E035BD91
:105DC000000063BC000098BA000070BB000028BA55
:105DD0000000893C0000D43C0000D83C0040293D34
:105DE00000401D3D00808D3C000034BB000019BC0C
:105DF000000087BC004029BD00006CBD005088BD7C
:105E000000B0B4BD0060BDBD0010AABD00E082BD01
:105E1000000037BD0040FCBC000074BC0000E5BBC6
:105E200000000A3C0040D53C0040DD3C0080783C4E
