:020000042000DA
:04035C0000787FBFE7
:1003600000B4E1BE00B0913D00A0C63D00A0C13D7B
:100370000040BB3D0040B23D0020AC3D0040A93DE7
:1003800000B0A53D00E0A23D0090A03D00E09D3DF5
:1003900000A09B3D0050993D00E0953D0060943DDC
:1003A0000090913D00E08E3D00108C3D00C08A3DE4
:1003B0000080883D0080853D0060833D0030823DA7
:1003C0000050803D00807B3D0080773D0040743DC3
:1003D00000A06D3D00206B3D00C0673D00405E3DCC
:1003E00000805C3D00E05A3D00E0573D0000553D77
:1003F0000020503D00804B3D0060493D0080463D5F
:100400000000443D0020413D00603D3D0040383D3E
:100410000080333D0000343D0060313D00602A3DE6
:1004200000C0293D0060273D0040243D0000223DE2
:1004300000E01E3D00001D3D0000193D00A0183DDC
:1004400000E0143D0080113D00A00D3D00200D3D59
:1004500000800B3D0060093D00A0053D00E0043D2B
:1004600000A0013D00E0003D0040FB3C00C0F43C2A
:100470000040EC3C00C0EB3C0000E73C0080E83C66
:100480000040E63C0000E23C0080DB3C0040D53C04
:100490000080D03C0040CD3C0080CA3C0000C23C03
:1004A0000040C03C0000C33C00C0BD3C0040B73C25
:1004B0000000B53C0080B33C00E053BD00C0D1BD9E
:1004C0000000ADBD004081BD00E02ABD0000B6BC0B
:1004D000000096BB00004F3C00C0FB3C0080463D46
:1004E00000C0833D0040A13D0000BF3D00F0DA3D6B
:1004F00000A0F33D00D8053E00C8103E00381B3E6A
:1005000000B0263E0078313E00083B3E0020433ECE
:1005100000804A3E00F0513E00E8593E0020603E17
:100520000018663E00E86B3E0030713E00A0763E4B
:1005300000107C3E00E07F3E0078813E0084833ED8
:100540000074853E0054873E00C8883E00B8893E4E
:1005500000308B3E00108D3E006C8D3E00348E3E90
:1005600000448E3E00B48F3E00E0903E0038913E45
:1005700000D0913E00B0913E00C8913E00F4913E03
:100580000014923E0004923E0028923E00FC913EF0
:10059000009C913E0060913E001C913E0070903E98
:1005A00000908F3E00208E3E00B48D3E003C8D3E7C
:1005B00000C88B3E00EC8A3E00FC893E009C883ED1
:1005C0000080873E0000873E0044863E0028853E2E
:1005D00000B0843E00D8833E00EC823E00C8823EDC
:1005E0000048813E00987F3E00A87D3E00887B3E0B
:1005F00000B8783E0018753E0000733E00E0703E83
:1006000000206F3E00206D3E0080693E00B0663ED7
:100610000018643E00C8603E00F05E3E00105D3E83
:1006200000D8593E00E8583E0000563E00A8533E10
:100630000030523E00404F3E00C84C3E0048493E0C
:100640000080483E00D0473E0018463E0030433E02
:100650000068413E00083F3E00A83D3E00E0393EB4
:100660000000363E0098333E0060313E00982F3E39
:1006700000082E3E00602C3E00A02A3E0008293EC5
:100680000000263E00B8233E0040213E00601F3E91
:1006900000901D3E00B01A3E0098173E00B8163E6E
:1006A00000F0143E00A8133E00A8123E0050113E78
:1006B00000B00E3E00700D3E00180A3E00D0073E0E
:1006C0000058063E00B8043E0070033E00B8003EED
:1006D0000030FE3D0080FB3D0070F83D0030F53DF0
:1006E0000080F03D00C0ED3D0080EA3D0000E53DAA
:1006F0000000E13D0000DF3D00F0DA3D00C0D53DE7
:100700000010D33D00C0CE3D00E0CC3D00B0C93D5F
:100710000030C63D0010C43D0080BF3D0070BA3DB2
:100720000080B73D00B0B43D00F0B03D0040AE3DAC
:100730000090AB3D0020A73D00D0A53D0030A43D7A
:1007400000A0A33D00E0A23D00D09E3D00609B3D87
:100750000050973D0010953D00D0923D0050913DD6
:100760000010913D00408B3D00A0883D0050883D29
:100770000010863D00F0813D0000813D00A07D3DE0
:1007800000007C3D00207E3D00407E3D00607A3DC3
:100790000060753D00406F3D0040703D0080683D49
:1007A00000205B3D00005A3D00E0533D00804D3D80
:1007B00000604D3D0060483D00A0493D00804A3D3D
:1007C00000A0443D00C0423D00003F3D00603A3D76
:1007D0000040373D0000343D0060313D00202F3D9A
:1007E00000802D3D00202B3D0040283D00E0233DB2
:1007F00000C0213D0060203D00801A3D00E0183D12
:1008000000A0103D0060103D00000E3D00A0103D16
:1008100000800B3D00E0083D00000A3D00E0053D82
:100820000040043D0000003D0000F93C0040F53C64
:100830000000E93C0080E03C0080DA3C0000DA3C4B
:100840000040D73C0080D03C0000CA3C0080D13C36
:100850000000D43C00C0D63C0000D33C00C0CC3CDF
:100860000040C63C0000BD3C00C0A83C00C09B3C12
:100870000040943C00809C3C0040A23C00809D3C99
:1008800000C0983C0080973C00008E3C00408B3CB0
:100890000000883C00007E3C0080763C0000733CF9
:1008A00000006E3C0080673C0080583C00803E3C6D
:1008B0000000383C0000423C00804B3C0080563C2D
:1008C0000000703C00006E3C0080753C0080763C6F
:1008D00000806B3C0000603C00005F3C0000513C2D
:1008E0000080493C0080483C0080483C0000363C89
:1008F0000080303C0000263C0080303C0000383C4A
:1009000000802C3C0000193C00801B3C00801B3CFC
:1009100000800D3C0000FF3B0080023C0000F63BE5
:1009200000800B3C00800F3C0000193C00800C3C18
:1009300000000A3C0000F03B0000DB3B0000E53B10
:100940000000DA3B0000DB3B0000CC3B0000D43B66
:100950000000C33B0000BC3B0000943B00006C3B2C
:100960000000853B00006C3B0000833B00009A3B8D
:100970000000A13B00009E3B0000833B0000803B49
:100980000000303B00000A3B0000043B0000043B39
:100990000000F83A0000D039000090B90000E8BA31
:1009A0000000A4BA000088BA0000F8BA0000E8BA53
:1009B0000000F0BA00000ABB000038BA000090B98D
:1009C000000040390000B0390000E03A00002C3B44
:1009D0000000123B0000C43A00009C3A000040397D
:1009E000000008BA000080B9000080B900009CBA7D
:1009F000000016BB000022BB00001ABB0000D0B9EB
:100A0000000000B90000F0390000903A0000083AF8
:100A1000000080380000D039000060BA00000EBB32
:100A2000000008BB000026BB00004EBB00006CBBF2
:100A3000000070BB000087BB000085BB00008BBBC3
:100A4000000078BB000038BB0000D4BA0000B4BA84
:100A5000000026BB000028BB000088BA000028BAAE
:100A60000000ACBA00009CBA000080B9000028BAAF
:100A70000000D4BA0000F0BA00001ABB000004BBAA
:100A8000000060BA000070BA0000703A00000E3B2F
:100A90000000F03A0000D43A0000883A0000903993
:100AA000000040B90000D0B9000090B9000040B982
:100AB0000000E0BA00000ABB000062BB00000ABBF5
:100AC000000000BB0000B4BA000090BA000070BA89
:100AD000000000390000F0B9000008BA0000CCBAEC
:100AE0000000E0BA000081BB000096BB000028BBFC
:100AF000000038BB000034BB00005ABB00002CBB18
:100B0000000070BA000000B90000F0B90000D4BACB
:100B100000001ABB000022BB000090BA0000903910
:100B2000000050BA0000BCBA000080B900000039D3
:100B3000000018BA0000B0B9000080B800004039C9
:100B40000000F0390000003B0000083B0000D43AF0
:100B50000000D43A0000983A0000503A0000803873
:100B6000000090B9000000B90000ACBA0000F0BA73
:100B7000000000BB000028BB0000BCBA000008BA9F
:100B80000000083A000038BA0000BCBA000060BAA1
:100B90000000BCBA000026BB000008BB000040BA41
:100BA000000080B8000080380000383A000040396A
:100BB000000038BA000028BA0000D8BA00000ABB0A
:100BC000000012BB000046BB00004ABB000064BB33
:100BD00000001EBB00009CBA0000D8BA0000D4BAC6
:100BE000000090BA0000F0B90000D4BA0000E0BAEA
:100BF000000098BA0000BCBA000000BB000028BB8F
:100C0000000046BB000074BB000030BB0000D4BA3B
:100C10000000D0B90000000000008039000050BA88
:100C20000000CCBA00000ABB00008FBB0000A7BBCD
:100C3000000090BB000074BB000030BB00000ABB8A
:100C4000000056BB000030BB000046BB00003CBBB0
:100C5000000070BB00004ABB00000ABB000012BBD2
:100C60000000E8BA00000EBB000030BB00004ABB29
:100C7000000046BB000028BB000000BB000080BA9B
:100C8000000008BA000040B90000503A0000803867
:100C90000000383A0000F039000080BA000040BA85
:100CA00000009CBA000070BA0000B4BA0000E0BABC
:100CB00000001ABB000038BA000070BA0000D0B9BA
:100CC0000000983A0000C43A00002C3B0000623B50
:100CD0000000853B0000703B00007C3B0000943B23
:100CE0000000B03B00008B3B00004A3B00001A3B79
:100CF0000000183A000000000000AC3A0000AC3AD6
:100D00000000D83A0000803A0000B43A00000E3BE0
:100D100000004E3B0000523B00000E3B0000E83A52
:100D20000000183A0000D03900008038000040B9B7
:100D30000000D4BA00001ABB000022BB0000BCBAFD
:100D40000000B4BA000028BB000016BB0000B0B918
:100D50000000B03900000000000040B900008038F9
:100D60000000000000009CBA000090BA000080BAA9
:100D70000000B0B9000018BA000000B9000008BABD
:100D80000000BCBA00009CBA000000B90000CCBA58
:100D900000000EBB0000F0BA00009CBA000038BA98
:100DA0000000BCBA0000D4BA00000ABB00001ABBA5
:100DB0000000D8BA000000BB0000A4BA000040390F
:100DC0000000AC3A0000503A00000000000000B9FA
:100DD00000008039000050BA000050BA000088BA04
:100DE00000009CBA000000B9000080380000183AEA
:100DF000000080B8000000000000000000009039F2
:100E000000000000000040B90000D0B90000CCBADA
:100E100000001ABB00000ABB000090BA0000F83ABC
:100E20000000123B0000E03A0000603A0000CC3ABB
:100E30000000883A0000803A000040B9000008BA7B
:100E4000000004BB000004BB0000E0BA000070BA60
:100E5000000028BA000038BA000008BA000028BA1A
:100E6000000028BA000090B9000080B8000090BAD5
:100E70000000B4BA000070BA000038BA0000CCBA62
:100E80000000A4BA000000000000183A0000F03989
:100E90000000403900004039000080B80000F039FF
:100EA0000000183A0000703A00008038000080B856
:100EB000000000B90000D0B9000040BA000028BA14
:100EC0000000BCBA000098BA000050BA000016BB7F
:100ED000000004BB000040B900000000000050BA50
:100EE000000000B9000088BA0000F8BA000064BB36
:100EF000000030BB000030BB00005ABB000000BB4C
:100F0000000090B90000B0390000503A0000903A5B
:100F10000000403A0000B0B9000028BA0000E8BA6A
:100F2000000050BA000088BA000004BB0000F0BA0C
:100F30000000D4BA0000B4BA0000E0BA0000E8BA79
:100F40000000B4BA000098BA0000A4BA000090BA39
:100F5000000040B900000000000080390000BC3AE9
:100F60000000403A00009039000080B80000D0B97D
:100F7000000080B8000080B80000F0B9000038BA66
:100F800000001EBB0000E0BA000080BA0000A4BA56
:100F900000009CBA000080BA000028BA0000BCBA69
:100FA00000001ABB000016BB0000D8BA000044BB0A
:100FB000000056BB000081BB000078BB00007CBB7A
:100FC00000005EBB000034BB000022BB000070BA12
:100FD0000000D0390000903A0000CC3A0000083BF5
:100FE0000000983A0000F0B900000000000098BA34
:100FF00000009CBA000018BA0000CCBA000000BB88
:101000000000C4BA0000CCBA0000E0BA0000D8BAB0
:10101000000026BB000022BB0000D8BA0000B0B917
:101020000000A4BA000016BB000008BB000000BB13
:101030000000D4BA000070BA000040B90000903A35
:1010400000009C3A0000CC3A0000183A0000503AE8
:101050000000D0390000B0390000F0B9000040B9FC
:10106000000080B8000008BA0000D8BA00000EBB2B
:10107000000000BB000000BB00002CBB00002CBB2C
:10108000000028BB0000E8BA00001EBB000034BB13
:101090000000C4BA000018BA000098BA00000000AE
:1010A00000000000000038BA000098BA0000D0B973
:1010B00000000000000098BA0000D4BA000038BA5E
:1010C0000000CCBA00008038000040B9000008BA27
:1010D000000060BA000040BA000038BA000090B9C1
:1010E000000090B90000D0B90000A4BA0000CCBA4A
:1010F0000000ACBA000050BA000080BA000018BA74
:10110000000040BA000050BA000080B80000183A51
:10111000000090B90000D0B90000ACBA0000F0BAED
:10112000000038BA0000C4BA00003CBB000046BB57
:101130000000D8BA000088BA000080BA000018BACF
:1011400000000000000080B8000008BA000088BA63
:10115000000040BA0000F0B90000003900008039FA
:1011600000008039000050BA000080BA000040B989
:10117000000070BA0000BCBA000050BA00000000C5
:101180000000003B0000D43A0000E03A0000083BB9
:101190000000F83A0000D039000028BA000040BA38
:1011A000000070BA0000B4BA0000C4BA000080BAEF
:1011B0000000D0B9000028BA000028BA000028BA00
:1011C0000000E0BA0000B4BA000070BA000050BAE3
:1011D0000000BCBA000000B90000903900000039DE
:1011E00000000039000080B8000080BA000088BA12
:1011F000000090BA0000D4BA000080B9000038BAEC
:101200000000A4BA0000F0B90000F0B9000098BADC
:101210000000A4BA000080390000503A0000283ACB
:10122000000080B8000028BA000008BA000060BAC8
:10123000000088BA000088BA000060BA000090BAC6
:1012400000009CBA000080BA0000B0B9000008BAE3
:10125000000090B90000BCBA0000E8BA000050BA23
:1012600000000039000070BA00000ABB0000D8BAC4
:10127000000038BA000028BA000008BA000028BAF6
:10128000000040BA000018BA000088BA000098BAFE
:10129000000088BA000018BA000090B90000B0B988
:1012A000000000000000D0B9000090BA000070BA41
:1012B0000000B0B9000000390000403900000039DA
:1012C0000000503A0000003B0000F03A0000D83A1D
:1012D0000000983A0000B039000080B9000018BA48
:1012E00000009CBA000060BA000038BA000098BA4A
:1012F000000080380000183A000070BA000008BAF8
:101300000000B039000040B90000B0B9000040BA98
:101310000000D8BA0000CCBA000040BA0000603A21
:101320000000503A0000B039000040B90000B03968
:10133000000080B9000040BA000040BA000038BA8E
:10134000000000000000D039000080380000403963
:10135000000000B90000B0B9000040390000F039C9
:1013600000004039000008BA000028BA000050BA56
:10137000000088BA000088BA0000C4BA000008BBA8
:101380000000E8BA00009CBA000040BA00008038B3
:10139000000060BA0000C4BA0000B4BA000070BA1D
:1013A0000000F0BA000080BA000008BA000080B85F
:1013B000000080B80000D039000000B9000080B8FB
:1013C0000000D0B9000018BA000080BA000060BA6E
:1013D000000038BA000040B900000000000080B9E9
:1013E000000088BA000028BA0000D0B90000A4BAF2
:1013F000000088BA0000BCBA000050BA0000503AA1
:101400000000903A0000D0390000883A0000503ABD
:101410000000F0390000183A000018BA0000BCBA09
:101420000000BCBA0000D8BA0000E8BA0000D8BA80
:101430000000B4BA000000BB0000F8BA000004BB12
:10144000000088BA0000CCBA000000BB0000E0BA7F
:10145000000060BA000080BA0000283A0000B43AE8
:101460000000283A00009039000080B8000018BA47
:10147000000080B9000040B9000090BA000080BAB6
:10148000000000000000903900009C3A0000403944
:101490000000383A0000883A0000383A0000D0399D
:1014A0000000A43A000080B8000090BA000038BAEA
:1014B0000000F0B90000ACBA00009CBA0000B4BA59
:1014C0000000D4BA000040BA00000039000040B962
:1014D00000000039000000B9000040B90000000021
:1014E000000088BA0000A4BA000070BA0000000032
:1014F00000000000000000B90000B0B90000003991
:101500000000B039000060BA000070BA000070BA84
:10151000000070BA000028BA000050BA0000D0B92C
:10152000000090BA000040BA000008BA0000D4BA27
:10153000000016BB000090B9000080B9000090398F
:101540000000CC3A0000A43A0000A43A00000E3B90
:101550000000AC3A0000503A0000403A0000883ADF
:1015600000009039000080B8000018BA000038BAB6
:10157000000090390000903A0000D0390000603A35
:101580000000503A0000183A0000AC3A0000503A0F
:101590000000003900000039000080390000703A76
:1015A0000000403A0000D03900009039000040B9F6
:1015B00000000EBB00004ABB000016BB0000D4BAFE
:1015C000000012BB0000CCBA0000C4BA000008BB87
:1015D000000008BB000046BB0000F8BA000080BA5B
:1015E000000028BA0000F0BA0000D8BA0000F0BA33
:1015F000000008BB00000ABB000034BB000028BB91
:1016000000001EBB0000D4BA000098BA000060BA07
:10161000000060BA0000D8BA000028BB000034BB4C
:10162000000052BB000083BB000034BB0000E0BAE6
:101630000000A4BA000004BB0000B4BA0000A4BAC1
:1016400000000EBB00000ABB000026BB0000F8BA79
:10165000000098BA000040BA000090BA000090BAAA
:101660000000D8BA0000E8BA000098BA0000C4BA76
:101670000000B4BA0000A4BA000008BA0000D039D3
:101680000000083A0000D039000080B8000050BACD
:101690000000ACBA00009CBA0000D0B90000CCBA7F
:1016A000000040BB00004ABB0000ACBA0000F0BA2A
:1016B000000000BB000004BB0000A4BA000038BA60
:1016C0000000ACBA0000E8BA0000CCBA000070BA62
:1016D000000050BA000080B80000983A0000703A4C
:1016E00000009C3A0000903A0000183A000080B8D0
:1016F0000000F0B9000028BA000008BA000000009D
:101700000000603A0000083A0000283A0000703AF1
:101710000000803A0000283A000018BA0000F0B932
:1017200000000000000080B8000008BA0000F0B916
:10173000000000000000083A0000403900000039B5
:10174000000038BA0000F0390000BC3A0000503AFE
:101750000000703A000080390000283A00000000C4
:10176000000090BA0000E0BA0000E8BA000090BAA9
:10177000000098BA000018BA0000B0B9000080B9A3
:10178000000080B8000050BA000018BA000088BA03
:101790000000D0B900008038000080BA000040BAD4
:1017A000000040BA000028BA0000A4BA000098BAAD
:1017B0000000BCBA0000B0B90000703A0000C43AA2
:1017C0000000263B0000F03A0000BC3A0000B039AF
:1017D000000060BA000008BA000000B90000283A12
:1017E000000000B9000090B9000028BA000000B95C
:1017F0000000B0390000283A000080B8000070BA3C
:10180000000050BA0000D0B9000060BA000090BAE1
:101810000000CCBA0000BCBA000050BA000080B989
:10182000000080390000A43A00009039000080B91F
:101830000000D0B90000B0B90000B0390000403954
:101840000000BC3A0000183A0000803A0000903ACC
:101850000000503A0000B039000040B9000080B8E4
:101860000000403A000080B9000008BA0000000003
:10187000000008BA000028BA0000ACBA0000D0B9D5
:10188000000060BA0000183A0000603A0000D0B9C9
:10189000000080B8000018BA0000B0B90000D0B94C
:1018A000000040BA0000D0B90000803800000000FD
:1018B0000000B0B9000040B9000000000000083A84
:1018C00000009039000000B90000E0BA000018BA2A
:1018D000000040B900000000000090390000000046
:1018E0000000C4BA0000D8BA0000D4BA000000BB9F
:1018F000000080BA000038BA0000B0B9000080399A
:101900000000803A0000B43A0000383A0000803805
:10191000000090BA0000E8BA0000A4BA00009CBA27
:10192000000012BB000000BB000098BA000090BA93
:10193000000038BA000038BA0000CCBA000050BA33
:101940000000D4BA000022BB000026BB000004BB8C
:101950000000A4BA000040B9000080390000000077
:101960000000D0390000403900000039000040BAC2
:101970000000BCBA000060BA00009CBA0000D0B9F8
:10198000000080390000283A0000F03A0000F03AE8
:101990000000603A0000383A0000803900008039C9
:1019A00000000039000040B9000080B8000040B9D4
:1019B000000080B9000060BA000018BA000080B8CA
:1019C000000018BA000040BA00000000000028BA69
:1019D000000088BA000008BA000060BA0000B4BA7B
:1019E0000000ACBA0000E8BA0000ACBA0000F0B9E0
:1019F000000040BA000060BA000038BA000040B9E8
:101A0000000028BA000050BA000090BA000018BACE
:101A1000000040BA00000000000038BA000070BAB0
:101A2000000018BA0000F0BA000004BB0000E0BAE1
:101A3000000040BA0000183A0000083B0000D83A05
:101A40000000A43A0000F03900008039000040BADC
:101A5000000008BB000028BB000016BB00002CBB28
:101A60000000D4BA000016BB0000D4BA000004BBCA
:101A70000000E0BA000038BA000080BA000088BA5E
:101A800000008038000000000000B0B900009CBADF
:101A9000000080B90000BC3A00009C3A0000803889
:101AA0000000703A0000B0390000B0B90000F0B991
:101AB00000008039000000B9000080390000883A39
:101AC0000000263B00003C3B00000E3B00005E3B5C
:101AD0000000083B0000983A0000D43A0000CC3ADD
:101AE0000000803A000080390000B03900008039E1
:101AF000000000390000D0B9000070BA000040B901
:101B00000000D039000080390000083A0000003998
:101B10000000083A000090390000383A000040B94F
:101B2000000060BA000098BA000026BB000016BB97
:101B3000000062BB00004EBB00003CBB00004EBB7F
:101B4000000046BB00003CBB000012BB0000CCBA4A
:101B50000000D8BA0000D8BA0000D4BA00000ABB0E
:101B600000002CBB000000BB000000BB0000E0BA7E
:101B70000000A4BA000040390000903900000000C5
:101B80000000703A0000D43A0000403A000040B92A
:101B900000009CBA000000B9000070BA000090BAC2
:101BA000000022BB0000D8BA000018BA000000B93B
:101BB00000000000000040B9000060BA0000A4BAB4
:101BC000000060BA000090B9000040BA0000F0B90F
:101BD0000000B0390000B0390000F0390000803A50
:101BE0000000B43A000000B90000BCBA00000EBB0F
:101BF00000005ABB000038BB000004BB0000F8BA6C
:101C000000001EBB000060BA000038BA000008BA2D
:101C1000000040B90000A4BA000090BA000090B9DA
:101C20000000CCBA000016BB000052BB000034BB61
:101C3000000004BB00002CBB000016BB000088BAEB
:101C4000000028BA000090B9000090390000F03977
:101C50000000D0B900000000000000000000F0B952
:101C6000000080BA000090BA000080B9000070BA8D
:101C7000000028BA00008039000000390000403917
:101C80000000383A0000F0B90000F0B9000090B947
:101C9000000080B90000B0B9000008BB000028BBFC
:101CA0000000CCBA000060BA000008BA0000D0B949
:101CB000000000B90000B0390000703A0000603A3E
:101CC00000004039000080390000B039000090B9B0
:101CD000000028BA000028BA000000390000D039FE
:101CE0000000283A000000000000AC3A0000E83A8A
:101CF0000000403A0000A43A00009C3A0000CC3AB0
:101D00000000B039000000390000803800000039C0
:101D10000000F0390000D03900000000000040B998
:101D2000000080BA000012BB000012BB000038BBEC
:101D300000000EBB000090BA000050BA0000183A34
:101D4000000080380000903900000000000080385A
:101D5000000018BA0000D0B9000018BA0000D0B9CD
:101D6000000090B9000080B90000D0B9000008BBA5
:101D70000000F8BA00009CBA000090BA0000000011
:101D8000000080390000403A0000903A0000283AF4
:101D9000000040BA000004BB0000CCBA0000E0BA6A
:101DA0000000D8BA000060BA000070BA000000005D
:101DB000000018BA000008BA0000F0B9000028BA04
:101DC000000050BA000088BA0000183A000080B83D
:101DD000000050BA000080390000183A0000383A7C
:101DE000000040BA0000E0BA0000E8BA0000ACBA57
:101DF000000040B900008038000080390000803ABF
:101E00000000703A0000283A000000B9000040B914
:101E1000000060BA000018BA000080B9000060BA83
:101E2000000080BA000080BA0000D0B9000040393C
:101E3000000050BA000028BA000080380000803A44
:101E400000000039000088BA000098BA00000000C5
:101E50000000803A0000383A0000183A0000503A7A
:101E600000004039000038BA0000CCBA000012BBB4
:101E700000009CBA000088BA0000F0B90000D0B998
:101E80000000C4BA000098BA000088BA000080B907
:101E9000000080B90000D0B9000028BA000000B9E5
:101EA000000080380000B0B90000F0B9000090B91F
:101EB0000000000000000000000090B90000D039D0
:101EC0000000803A00000A3B0000C43A0000B43A27
:101ED0000000383A00000000000008BA000090BA84
:101EE000000070BA0000000000008038000040B917
:101EF000000008BA000090B9000018BA00003CBB0E
:101F0000000081BB00004EBB000062BB00005ABB5A
:101F1000000062BB000052BB00004ABB000070BB67
:101F2000000083BB00008BBB000068BB000044BB0B
:101F300000000ABB000004BB000040BA0000000023
:101F4000000080B80000403A0000B039000090B9AD
:101F5000000080B800000039000050BA000004BB47
:101F60000000E0BA0000A4BA000038BA000080B84F
:101F7000000090B90000283A000000B90000803845
:101F8000000040B90000403900008038000008BA65
:101F900000000039000040B90000603A0000283A13
:101FA0000000183A000088BA0000D4BA0000E8BA6D
:101FB0000000C4BA000000BB0000D4BA000040B961
:101FC0000000B0B90000D8BA0000A4BA0000A4BA5A
:101FD000000040BA000028BA0000B0390000003903
:101FE000000008BA000008BA0000F0B9000080380C
:101FF00000000039000018BA000090B90000F0B9E4
:102000000000B03900009039000000000000383AAC
:102010000000D0B900009CBA0000B4BA0000BCBAFD
:1020200000001EBB0000B4BA000080BA000040BA35
:10203000000038BA000028BA0000B03900000000E3
:10204000000000B9000070BA000080BA000080B93A
:10205000000090BA0000D0B9000040B90000A4BA56
:10206000000098BA000080BA0000B0B9000018BAA9
:10207000000000000000703A0000603A0000983A4A
:102080000000983A0000903A0000083A000090B929
:10209000000008BA000040B90000C4BA000040BA0D
:1020A000000018BA000080B90000D0B90000ACBA36
:1020B000000088BA00009CBA000060BA000038BA7C
:1020C0000000D8BA0000D4BA0000F0B9000000B98E
:1020D000000018BA000000390000803A0000603AA1
:1020E0000000803A0000D0B9000038BA000008BAF9
:1020F000000090BA0000D0B9000000B90000083A12
:102100000000083A000090BA0000A4BA0000BCBA6F
:102110000000E8BA0000C4BA0000CCBA000060BAFF
:10212000000028BA0000BCBA0000D4BA00009CBA73
:10213000000088BA0000F0B9000040BA000028BAD8
:102140000000703A0000883A0000703A0000B03990
:1021500000008038000038BA000000390000D0B913
:102160000000E0BA0000E8BA0000E0BA000090B950
:10217000000090390000D0B90000BCBA0000A4BA39
:102180000000F8BA00009CBA000088BA000012BB38
:10219000000034BB00001ABB0000E8BA000016BB08
:1021A000000052BB00004EBB000052BB000030BB21
:1021B000000098BA000000390000D0390000703AE1
:1021C0000000F03900008038000040B9000080B8FD
:1021D000000080B800000000000090B9000008BABC
:1021E00000009CBA000018BA000000B9000000000E
:1021F0000000083A0000803A0000D039000080B9A1
:10220000000050BA0000D0B900008038000038BA91
:10221000000000000000B0390000D03900000000CC
:10222000000000000000E0BA0000CCBA0000CCBA08
:10223000000080BA00008038000090B90000000063
:1022400000000000000080B80000603A0000283A5A
:102250000000603A00000000000018BA000080B9D9
:10226000000080BA00009CBA000030BB000038BB00
:10227000000022BB000004BB0000E8BA0000B0B9B7
:102280000000B03900004039000040BA000050BAE8
:10229000000040BA000000B9000028BA000028BAC7
:1022A000000028BA0000F0390000883A0000083A1F
:1022B0000000083A0000403A0000083A0000000020
:1022C000000008BA0000F0B90000A4BA000050BA3B
:1022D000000008BA000028BA000008BA000080BA5E
:1022E000000018BA0000B4BA000050BA000008BAE2
:1022F000000090B9000000B90000D0B9000080B91A
:10230000000090390000803800009CBA0000CCBA70
:102310000000CCBA0000CCBA0000CCBA0000E8BA89
:102320000000D4BA000008BA000080B8000080386D
:10233000000038BA00008038000090390000883A68
:102340000000383A0000503A0000403A0000603A7D
:1023500000009C3A0000C43A00009C3A0000083A91
:102360000000903900008039000040B900009CBA9C
:10237000000098BA000018BA0000D0390000383ABE
:102380000000883A0000B0B9000050BA000018BA46
:1023900000000EBB00000EBB000040BB000028BBCD
:1023A000000026BB000052BB000046BB00000ABB79
:1023B000000028BB00001EBB0000E0BA000040B9CE
:1023C000000000000000000000004039000098BA42
:1023D000000040BA000040B9000050BA000088BABE
:1023E000000028BA000040BA0000A4BA0000BCBA3D
:1023F000000028BA0000BCBA00009CBA000028BB4C
:1024000000002CBB00001EBB0000C4BA0000D4BA00
:10241000000034BB00001ABB00003CBB000038BB0E
:10242000000064BB00002CBB00002CBB0000F0BA15
:102430000000F0B9000090B90000000000008039F1
:10244000000000390000F0B900000000000098BA58
:102450000000F8BA0000ACBA000022BB00001ABBB2
:102460000000BCBA000040B9000080390000D0393B
:102470000000403A0000403A000090390000083A5D
:102480000000D0390000F0B9000000390000D03958
:10249000000000B9000080380000403A0000283AEF
:1024A00000000039000080B9000050BA000050BAA6
:1024B000000008BA00004039000040390000403AEE
:1024C0000000883A00004039000028BA0000B0B986
:1024D00000008038000090B90000F0B90000C4BAD4
:1024E000000004BB0000F0BA0000D8BA00001EBB18
:1024F00000001ABB0000E8BA0000B4BA00000000F7
:10250000000008BA000000B9000038BA0000D4BAD0
:10251000000090BA0000ACBA000060BA000060BAD7
:10252000000050BA000080B9000000000000F83A36
:102530000000CC3A0000603A0000D0B90000CCBAEC
:102540000000C4BA000018BA000050BA000050BA27
:102550000000BCBA0000D8BA000018BA0000B0B938
:10256000000050BA0000B0B90000183A0000883AE4
:102570000000AC3A0000F83A0000503A00000000B9
:10258000000000B9000050BA0000E8BA000070BABC
:10259000000000000000F0B90000B4BA0000A4BAC6
:1025A0000000B0B9000040390000903900008038C8
:1025B0000000283A0000183A000000000000B0397E
:1025C000000080380000183A000080B900000000C8
:1025D0000000703A0000D039000040390000F0B926
:1025E0000000A4BA000090B900009CBA000098BA9C
:1025F000000008BA000018BA000000390000403995
:102600000000B0390000D0B900000000000090BA0E
:102610000000D0B90000903900000000000000B9AF
:102620000000B0B9000040BA0000BCBA000088BA8F
:102630000000B4BA000038BA000040B90000983A6F
:102640000000B43A0000983A0000AC3A00000039AB
:10265000000018BA00008038000040B9000038BA05
:102660000000D0390000383A000080B90000283A54
:102670000000D03900008039000018BA0000C4BA48
:10268000000012BB000070BA000080B8000080B8E3
:102690000000F0B9000098BA0000F8BA0000D0B904
:1026A000000090BA000080380000283A0000283A64
:1026B0000000383A000000390000803800000000B7
:1026C00000008039000050BA0000A4BA000018BA17
:1026D000000060BA0000BCBA000016BB000070BB6E
:1026E00000001ABB000098BA000050BA0000E0BA1F
:1026F0000000F8BA0000A4BA000028BA0000F0B93F
:10270000000050BA0000D8BA0000ACBA00000000C7
:10271000000038BA000000390000D0B90000F0B95C
:10272000000008BA000060BA000040BA000080BA99
:10273000000000B90000883A0000D03900000039DC
:102740000000503A0000F03A0000603A000000B982
:1027500000009039000080B90000D0B90000ACBA88
:1027600000000EBB000026BB000008BB0000CCBA76
:102770000000CCBA000060BA000000000000803900
:102780000000B0390000D03900000000000060BA3D
:102790000000E0BA000090BA000098BA0000ACBA9D
:1027A0000000B4BA000080B90000F0B90000B0B970
:1027B0000000083A00008039000070BA000060BADA
:1027C000000028BA000008BA000080BA000050BA21
:1027D0000000ACBA0000A4BA0000F0BA000012BBBE
:1027E000000008BB000016BB0000CCBA00009C3AF9
:1027F0000000F83A0000D83A0000CC3A0000603AF5
:102800000000603A0000703A000080B80000E8BAAA
:102810000000CCBA000028BB000026BB0000F8BABC
:10282000000004BB0000CCBA0000C4BA00000ABB20
:1028300000003CBB00003CBB00004ABB00004EBB9C
:1028400000000ABB00000ABB0000F0BA000080BA1A
:10285000000090BA000040BA000080B8000080B8C4
:10286000000000000000F039000080B9000000B94D
:102870000000383A0000D0390000903A0000183AC1
:102880000000383A0000603A0000183A0000183A98
:10289000000080390000283A000038BA00001ABB56
:1028A000000012BB0000B4BA0000D8BA0000E0BAC1
:1028B0000000F8BA0000F0BA000038BA000070BAA0
:1028C00000008039000000B90000B0B90000B03944
:1028D0000000D8BA00003CBB000044BB0000CCBAEA
:1028E000000070BA000000000000503A0000F03A0A
:1028F0000000703A0000D0B9000000B9000000B933
:102900000000003900000000000038BA0000C4BA1E
:10291000000098BA0000D8BA00000EBB0000E0BA70
:10292000000090BA000028BA000000000000803AC1
:102930000000883A0000883A0000A43A0000BC3A3F
:102940000000B039000040B9000060BA0000D0B902
:1029500000009CBA00000ABB000038BB000046BB68
:1029600000003CBB000090BA000038BA0000ACBACE
:102970000000A4BA000004BB0000F8BA000038BA96
:102980000000F0B9000080B90000000000004039EC
:102990000000183A0000083A000000000000B0B93A
:1029A0000000C4BA0000E0BA0000D4BA000080B849
:1029B00000009039000080B9000090B9000080B894
:1029C0000000B0390000983A0000983A000090B931
:1029D0000000B0390000B0B90000B0B9000080B903
:1029E000000018BA000098BA0000E0BA000052BB1C
:1029F00000005EBB000008BB000028BA000050BA0F
:102A0000000060BA000040BA00009CBA0000ACBAF6
:102A1000000004BB000004BB00000ABB000050BA69
:102A2000000088BA000050BA000000000000703AB0
:102A30000000283A000090B90000ACBA0000E8BAE3
:102A40000000A4BA00009CBA0000A4BA000090BA2A
:102A50000000CCBA000030BB000022BB000000BB6D
:102A6000000000BB00009CBA0000B0B90000D83ADA
:102A70000000E83A0000F83A0000F83A0000403A56
:102A80000000383A000000B9000080BA000018BA0F
:102A90000000A4BA000080BA000090BA000080BA1A
:102AA000000040BA000080B800008039000008BA79
:102AB000000040BA0000CCBA000090BA000050BA42
:102AC000000040B9000080B90000903900000039D2
:102AD000000000000000603A0000403900000039AA
:102AE00000000000000080B8000000000000F03985
:102AF00000004039000090390000183A0000183AF0
:102B00000000703A0000983A0000283A0000403A6D
:102B10000000903A0000983A000008BA000028BA75
:102B2000000028BB0000D8BA00009CBA0000D4BA4C
:102B3000000098BA000000000000883A0000B43A93
:102B400000009C3A0000AC3A0000603A0000B0B9C6
:102B5000000090BA000080BA000090B9000050BA9E
:102B6000000080B9000080B90000003900009039F1
:102B70000000383A000080BA000080BA000060BA55
:102B8000000040B9000000B90000A4BA0000A4BAD7
:102B90000000D8BA000050BA000060BA0000F0B9D6
:102BA000000038BA0000603A0000883A0000903A0D
:102BB0000000D83A00000E3B0000043B0000F03A51
:102BC00000009C3A0000383A0000803800000039CC
:102BD0000000D4BA00000EBB00000ABB0000E8BA37
:102BE000000022BB000000BB0000F0BA000050BA99
:102BF000000090BA0000F0B90000F0B9000080B900
:102C0000000090B90000F0B9000000390000D03990
:102C10000000403A000040B9000008BA000040B986
:102C200000000000000080B80000383A0000183AA8
:102C30000000903A0000603A0000603A0000AC3AB0
:102C40000000B03900000039000060BA000000390F
:102C5000000070BA000080B9000000B9000028BA76
:102C6000000088BA000098BA00009CBA000012BBAD
:102C7000000012BB000098BA0000A4BA0000B0B96E
:102C8000000040B9000080B9000018BA0000D4BAB2
:102C90000000E0BA0000B4BA0000E0BA0000F8BAE0
:102CA000000098BA000098BA0000E8BA000088BA9C
:102CB000000040BB000056BB00004EBB000016BB2E
:102CC0000000F0BA0000B4BA000000B9000080B9FA
:102CD000000080BA000080B80000403A0000000008
:102CE000000080380000903A0000163B00004A3B8C
:102CF0000000683B0000343B00004E3B0000C43A3B
:102D00000000B43A0000CC3A0000E03A0000183A63
:102D1000000000B9000080380000D0390000803980
:102D2000000040390000000000000039000040BAF7
:102D30000000ACBA0000CCBA000008BA000038BAF3
:102D4000000090BA000098BA000000000000B039FE
:102D50000000383A0000083A0000383A000000B994
:102D600000000039000040B90000383A0000403A45
:102D70000000AC3A0000F0390000903A0000D83A68
:102D80000000803A00004039000040390000283A35
:102D90000000083A000000390000F0B9000090B9C6
:102DA000000090BA0000D8BA000004BB000008BBC5
:102DB0000000E8BA000050BA000008BA000070BA7B
:102DC000000060BA000050BA0000A4BA000098BA2F
:102DD0000000D8BA000000BB0000D8BA000088BAD2
:102DE000000000B9000050BA000028BA000038BA4C
:102DF000000028BA000000BB000008BB000022BB96
:102E0000000008BB00009CBA0000D4BA00000ABB56
:102E1000000008BB0000B4BA000090BA0000A4BAD9
:102E2000000070BA00000000000080390000503A35
:102E30000000D43A0000043B0000E83A00001A3BCE
:102E40000000283B0000F03A0000BC3A00009C3A29
:102E5000000008BA000000B90000B039000080B8D6
:102E6000000080B9000080B9000000B9000000B97E
:102E7000000090B90000B0B90000803800009C3A12
:102E80000000D0390000703A0000043B0000F03A26
:102E900000009C3A0000B03900000000000080B83B
:102EA0000000F0390000983A00000039000040B9F5
:102EB000000000000000383A0000A43A000080380A
:102EC000000008BA000008BA000080B8000038BA54
:102ED000000050BA0000B4BA000008BB00000EBBEE
:102EE00000000ABB00000ABB000098BA00009CBAB0
:102EF000000008BB000012BB000098BA000090B9A7
:102F0000000080BA0000ACBA0000F8BA000026BB8E
:102F100000001ABB0000E8BA000098BA000028BA06
:102F2000000080B8000000000000283A0000883A45
:102F3000000000390000ACBA0000E0BA0000CCBAD2
:102F4000000098BA0000ACBA000022BB0000D8BA5A
:102F50000000F8BA0000F8BA0000E0BA0000BCBAFD
:102F60000000D0390000383A0000503A0000883A9A
:102F70000000CC3A0000123B00009C3A0000C43A2A
:102F80000000F0390000B039000018BA0000B4BAEF
:102F90000000CCBA00001EBB000022BB000026BB14
:102FA00000000ABB0000F0BA000012BB0000D4BA57
:102FB000000008BB000028BB000044BB00002CBB85
:102FC000000016BB0000C4BA000038BA000040B9C7
:102FD00000009039000000B9000000B9000090B96D
:102FE0000000BCBA00004EBB008075BC00005F3C16
:102FF000000052BC000000000000E9BB00801D3C46
:10300000000038BA0000D03B0000D83A00801F3CD6
:103010000000803A0000123B00C00ABD0000903B57
:10302000000074BB0000223C0000D6BB0000283B1F
:10303000000050BA000098BA0000C93B000090BAE6
:1030400000803F3C00803BBC000080380000F8BBA3
:103050000000AD3B000026BC0000893B0000B2BB75
:103060000000B03B000008BC0000BF3B0000D8BB24
:103070000000B43A0000D8BB0000463B00001ABB79
:103080000000CCBA000028BA000090BB0000303B22
:1030900000005ABB000046BB0000C4BA0000B4BA2E
:1030A000000034BB0000283A0000AC3A0000383B76
:1030B0000000223B0000223B0000AC3A0000043B31
:1030C000000038BA0000383B0000D43A0000B0B924
:1030D0000000B4BA000083BB0080C2BC00409ABCB0
:1030E0000000B0390000C53B0000D039000090BBA3
:1030F0000000893B0000B0390000903B00008DBB10
:103100000000D83B0000873B0000263B0000E73B67
:1031100000000ABB0000E03A0000A3BB000080B939
:103120000000B4BB0000D0B900005ABB0000903AC8
:103130000000FFBB0000343B00005ABB0000B0B9E8
:103140000000AB3B000090BA0000E5BB00008038F7
:103150000000B6BB0000E03A000096BB000040B99A
:103160000000F0BB0000983A0000E0BA0000A33B6A
:103170000000BFBB0000D23B0000FBBB0000273CAF
:103180000000BCBB000098BA0000CCBA00004EBBE7
:10319000000070BA0000E0BA0000D0B90000AC3AFC
:1031A000000098BB0000D0390000683B0000E8BA7E
:1031B00000008D3B00008FBB0000D83A008011BC9E
:1031C0000000853B000040390000F8BA000055BC03
:1031D0000080393C008079BC00000B3C0000BFBB84
:1031E0000000D23B0000AEBB0000A93B00009C3AAF
:1031F0000000BABB00008B3B0000C5BB0000EC3BED
:1032000000006FBC00803D3C0000B6BB0000643C89
:103210000000F0BA00800C3C000087BB000088BCB6
:103220000000803A00A05BBD0000D0BB0080F0BC75
:1032300000006F3C0080BCBC0000C23C00C0A7BCCA
:1032400000C0F33C0000003B00408A3C0000C7BBCC
:1032500000C0C83C00007CBB0000313C0000ADBB9E
:103260000000EEBB00005EBB000019BC0000363C55
:10327000000062BC00004ABB00C0B1BC00C090BCF2
:10328000000037BC0000173C0040A0BC0000443CDC
:10329000000062BB0000523B000006BC0000703B17
:1032A000008039BC00006E3C00008BBB0000F43B8A
:1032B000000030BB000090BA0000FBBB0000893B5F
:1032C0000000C9BB0040843C008086BC00001E3B5F
:1032D00000009CBC0000253C0000183A0000BC3AED
:1032E0000000623B000046BB0000343B0000A53BF1
:1032F00000001A3B0000A9BB0000BCBB0000983ACC
:1033000000009ABB000040B900005E3B000037BCE3
:103310000080123C00800FBC00804D3C008097BCB8
:103320000080013C0000CEBB000098BB0000183CB0
:10333000000024BC0000223B000031BC0000743BB4
:10334000008087BC00006E3C0000183A0000D8BA2C
:103350000000DFBB0000B2BB00008D3B0000223B41
:103360000000503A00006CBB0000123B0000443BE0
:103370000000BCBA0000D83A0000C7BB00802BBCDC
:10338000000030BB00808FBC0080653C0000E03A4C
:1033900000007CBB00806CBC0000C3BB008002BC92
:1033A000000028BA00800C3C0000D6BB000044BBE3
:1033B0000000E7BB00800C3C0000D0B90000D4BA8C
:1033C00000409ABC0000DD3B00804ABC0000B03BDE
:1033D000000052BB00008039000004BC008067BCC4
:1033E0000000703A0000A53B000070BB00801FBCCD
:1033F0000000443C00C090BC0080213C000008BCA0
:1034000000C0A23C00C0C7BC0080103C000098BCBB
:103410000000C13B000090B9000060BA000078BB1A
:10342000008001BC0000B03B0000D43A0000003B2B
:10343000000044BB0000163C0000A6BC0000FB3BA3
:103440000000EABB000044BB00803FBC0040E4BC7D
:10345000000060BC0000BFBB0000403B00C092BC4D
:103460000000F0BA000015BC0000543C000016BC7F
:1034700000800E3C0000083A0000403A0000523C38
:10348000000000000000B4BA000090BA0000893BC0
:1034900000004ABB00008DBB00009C3A0080033C4A
:1034A00000803DBC00002C3B008056BC0080853C69
:1034B000000028BA0000083A0000F8BB000014BC65
:1034C0000000143C008059BC0000163B000033BCD7
:1034D0000000093C0000DD3B00803E3C0000963BC4
:1034E00000803FBC0000473C0000813C000089BBDD
:1034F0000040B2BC0000A53C0080783C0080213C2C
:10350000000004BC000013BC000090B90000163B92
:103510000000D0B9000064BC0080D83C0000E7BBCC
:1035200000007C3C0000873B008096BC0000D8BBBC
:1035300000804A3C00802C3C008081BC0000EA3CBA
:1035400000803FBC00009D3C000041BC0000223BCD
:10355000008010BC0040CD3C000068BB000054BCA3
:1035600000005ABB00801FBC0080FEBC000074BC81
:103570000000ACBC00804EBC0000C93C0000F0B9AB
:10358000000026BB0080853C00801A3C000034BC53
:1035900000803F3C0000963B0000E1BB0000173C70
:1035A00000805D3C00008FBC00C08C3C0000123BE2
:1035B00000802ABC008047BC00803B3C0000903962
:1035C0000000FD3B000096BB000054BC00009FBC07
:1035D00000C0AF3C00C0C6BC0000283B0000E0BA01
:1035E0000080033C0000853B000070BA0000893B6E
:1035F0000000C7BB00C0C73C0000C2BC0000D039FF
:10360000000053BC0000613C0000F0B90000053C24
:103610000000C9BB000078BB0080123C0000B0BBBA
:103620000080033C000037BC00005ABB0080023C15
:10363000000062BB0000CC3B000000BB0000083B68
:103640000080473C0000FBBB0000DB3B00000EBBE2
:103650000040AFBC000022BB000090BB0000893BD3
:10366000008088BC0040BF3C008011BC000000000E
:1036700000000ABC00009CBB000040BA0000CB3B2D
:103680000000283B00009EBC00007C3C0000C93BC1
:103690000000603A000033BC0000093C0000AEBBF3
:1036A0000000CE3B00005A3B00804CBC000044BCF4
:1036B0000080493C000022BB000054BC0000A4BABA
:1036C0000000E73B0000E5BB0000D0B90000BABB3A
:1036D00000809EBC0000D4BB000050BA0000F6BBC6
:1036E000000081BB0000943B0000AB3B0000E5BB49
:1036F0000000B23B0000B23B00800E3C00003CBB2F
:10370000000028BA000038BB00005EBB00005A3B36
:1037100000803FBC0000AC3A0000943B0000F03A4F
:103720000080EFBC0000FBBB008067BC0000F0BB6A
:103730000000A93B000070BA0000EE3B000050BC46
:1037400000802B3C00C083BC0000F23B0040923C58
:103750000000BA3B0000A1BB000089BC000060BAB9
:1037600000804CBC0000B8BB0000F0BB0040BEBCF9
:1037700000007E3C00002C3B0000463C000030BBBB
:103780000000A7BC0000D63B00C089BC0000FF3C85
:103790000000F6BB0000A43A000031BC0000A1BB51
:1037A0000000C23C008067BC008020BC000036BC2A
:1037B00000801A3C00009C3B000064BC00005EBC22
:1037C0000000AEBC0000263C00009C3A000004BC97
:1037D000000000BB000034BB0000A4BA0080873C9E
:1037E000000014BC0000DDBB000085BB0000FF3BF7
:1037F0000000FDBB00802DBC0000F0BB00803DBC84
:103800000000093C00001ABC000000BB00006C3B3B
:1038100000001E3B000000000000223B0080493CED
:10382000000098BA00009ABB0000B0390000F2BB5B
:103830000000C93B0000433C0000D0B90000F4BBCD
:10384000000041BC0000743B00009EBB000040BA79
:10385000000008BC000034BC0000B6BB00000B3CFC
:103860000000CE3B000064BB000016BB0080D0BC53
:1038700000C09BBC0080943C00001EBB00007C3C50
:10388000000074BB000092BB000087BB008011BC2D
:103890000040923C000034BC0000A9BB00806BBC1F
:1038A000000034BB000019BC00007CBB0000DB3B07
:1038B000000045BC0000833B000074BB0000353CA9
:1038C0000000803A000092BB000044BB000008BC2E
:1038D00000002C3B0080383C0000A73B0000943BDC
:1038E0000000CBBB000055BC000042BC0000043B04
:1038F00000009EBB000074BB000038BA000035BC5D
:103900000000F2BB00009FBB000047BC0000CCBB26
:103910000000173C00803D3C00000A3B000000BB5B
:103920000000A5BB0000D6BB0000303B0000ADBBD3
:1039300000801BBC000004BB000052BB000068BB41
:10394000000025BC00000039000023BC00008FBB34
:10395000000070BB00004EBB0000A53B0000D43A45
:103960000000AC3A0000A1BB008000BC000038BAE7
:103970000080BA3C0080A53C0000D8BA000083BBA0
:10398000000008BB0000BDBB0000513C0000FFBBB5
:1039900000806CBC008059BC0000623B000046BB4C
:1039A000000090BA0000173C0000263B0000D2BB8C
:1039B000000022BB0000403A00801C3C0000DA3BC3
:1039C0000000803A000016BC0000003B0000603A96
:1039D00000009CBB0000A5BB000090BB0000443B66
:1039E000000080BA0000923B00801ABC00004A3BF5
:1039F00000008D3B0000F0B9000028BB000040B97A
:103A0000000040BB00001A3B00000ABB000009BCDC
:103A1000000005BC000028BA0000CC3A0080023C3F
:103A20000000F63B000070BA00009EBB0000E8BA40
:103A3000000090BA0000A5BB0000F0BB000089BBED
:103A40000000E0BA0000183A0000C1BB000061BCF1
:103A500000001A3B00006CBB000080B900008F3BE7
:103A60000000403A0000A13B00800C3C0080113C6B
:103A7000000040B90000643B0000E83A0000A13BB0
:103A80000000AD3B0000D0B9000038BB0000CEBB49
:103A900000009FBB000016BC000016BB0000A4BACB
:103AA000000044BB0000F6BB00009CBB0000403A95
:103AB0000000D0390000D43A0000CBBB000035BC78
:103AC000000008BC000098BB000033BC000028BC0C
:103AD00000802BBC000004BB00000039000018BAB5
:103AE0000000B0BB00802CBC0000FDBB0000A5BBEB
:103AF00000005ABB00009CBA0000F0390000F03909
:103B0000000004BB0000183A000000000000E03A8A
:103B10000080103C0000AB3B0000D0390000263B89
:103B20000000043B0080013C0000163C0000143CF7
:103B300000000B3C0000853B0000043C0000E93B1A
:103B400000801A3C0000643B000090BA00004ABBB1
:103B5000000016BB0000D83B00002C3B0000603A80
:103B600000008FBB0000CC3A000016BB0000BABBBF
:103B700000801FBC000062BC00C091BC004091BC32
:103B800000801DBC008066BC008065BC0040A2BCFB
:103B900000C0A1BC008078BC00007DBC000038BC27
:103BA000000034BC000031BC008076BC00801DBC2D
:103BB0000000C9BB0000E9BB00005EBB00008BBB7E
:103BC0000080033C00803D3C0000883C00008F3CAE
:103BD00000007F3C0080CB3C0040FC3C00A0133D3B
:103BE00000401E3D00403F3D00404A3D00404F3DEB
:103BF0000060663D00006D3D00708F3D0000903D0F
:103C00000080903D00E0633D0000B63C000078BBC2
:103C10000000C5BC0000F2BC006044BD007080BD67
:103C20000070B8BD0040DBBD0020D9BD0020C1BD83
:103C300000A0B3BD00D0A7BD006092BD000074BD60
:103C400000E04BBD0080DBBC0000AEBC000025BC2A
:103C5000000025BC000043BC008078BC008081BC13
:103C6000000097BC00400BBD00A001BD00C0CEBC51
:103C7000000028BA0000653C0000CC3C00E0143D88
:103C800000C0653D00C09B3D0000C93D0040EC3DCB
:103C90000098043E0058073E0020123E00B0183E37
:103CA0000060F03D00000A3D00801BBC0040F4BCF9
:103CB00000A014BD00605FBD0040AABD00D0F8BDEB
:103CC000002017BE0090E3BD0020A3BD00A044BDAE
:103CD00000801DBD00C092BC0000BCBA0080CC3C7E
:103CE0000080873D0060993D00E0883D00E02E3D6A
:103CF0000000903B008085BC00C020BD000059BD85
:103D000000E0B1BD0070E5BD0060FFBD000801BE70
:103D100000F0DFBD00B0B6BD001091BD002072BD47
:103D200000A000BD0000F0390080BC3C0020333D05
:103D30000040613D0020723D00408B3D00D0943D2D
:103D400000D0943D00009A3D00F0943D00209A3D43
:103D500000C0AA3D0050CD3D0010F73D00E0093EF7
:103D600000E08A3D0000B4BB00C0A0BC000006BC5F
:103D70000000803B0080E1BC005086BD0090E7BDA4
:103D800000E0E8BD00A086BD00C021BD0040C6BC6B
:103D90000080D1BC000035BC000050BA00A0133D2B
:103DA00000D0963D0050803D0000073D000071BCF2
:103DB000004042BD00E032BD00C03ABD00B089BD48
:103DC000006001BE00C01BBE00F80CBE0080DDBD5F
:103DD00000E095BD002089BD006063BD00202ABDC4
:103DE0000000473C00A0353D00A0923D0010AF3DD3
:103DF0000040B23D0030C43D00E0D13D0080EC3DCC
:103E000000A0EF3D00C0E03D00C0DD3D00C0EA3D48
:103E100000C8053E00F0F93D0080853C00E044BD4F
:103E200000206BBD00E004BD00A032BD002087BDB6
:103E30000040D2BD002016BE0080D3BD00007CBD76
:103E40000080B2BC0000B0BB0000323C0080493CA6
:103E50000080D03C00A0973D00D0CE3D00B0AD3DED
:103E600000C0333D0080FDBC000069BD006085BD21
:103E700000B08DBD0080DBBD00E025BE00402DBE42
:103E800000E81EBE0050E9BD00B0A7BD00806FBDB8
:103E9000000040BD00C0A1BC0000E83C0030803DF7
:103EA0000090B43D00E0CC3D00A0BD3D00A0C43D6D
:103EB00000D0D83D00D0F03D0050E73D0030E03D5F
:103EC00000D0DF3D0040F23D00A0093E0000223D51
:103ED00000001EBD00404BBD00E036BD0080E2BCCE
:103EE000002058BD00B091BD0060FDBD00E0DCBD0C
:103EF00000F087BD00C0CCBC0000083C0080773CCF
:103F00000040D43C0000C23C0020603D00F0CB3DAE
:103F100000F0BA3D00B0803D000080B900A02ABD8D
:103F200000E088BD00F0A1BD00B0B4BD003011BEFE
:103F3000006023BE009822BE00D00DBE0010C4BD9C
:103F4000001082BD002027BD008016BD0000A93BE7
:103F50000040313D00C0993D00B0C33D0020CA3D46
:103F600000B0C93D00E0C23D0020E73D00E0FA3D61
:103F700000F0E93D00A0F53D0070FC3D0050FA3D29
:103F800000807B3C00A03ABD00C06CBD00E050BD8D
:103F900000603DBD00E090BD00F0BCBD009805BED6
:103FA00000D0CDBD006087BD0040B8BC00800B3C98
:103FB00000C0C83C0040FC3C00801E3D00F0903D2D
:103FC00000B0DF3D0000C13D00B0893D0000523C23
:103FD00000C0F4BC008074BD0080B4BD0050E0BDE2
:103FE000003817BE005825BE003022BE009815BE0E
:103FF0000080D5BD000087BD008016BD000095BCC7
:104000000000543C00003F3D0030973D00B0CD3DE6
:104010000070DA3D0040D43D00C0D33D0080D93D62
:104020000080E63D00B0EB3D0040F73D0060033E00
:104030000070FE3D0040A73C00A041BD00205BBDDC
:1040400000A02BBD006026BD00508ABD0020CABD67
:1040500000D00ABE00B0E3BD003091BD0000DABC64
:1040600000008B3B00C09A3C00C0F23C0040193D70
:1040700000D0913D0080E63D0050D13D0030993D9B
:104080000040EC3C00805BBC00E03CBD002092BDE9
:1040900000A0C4BD00C00DBE005024BE004021BE23
:1040A000000016BE0020D9BD00A094BD008043BD15
:1040B0000080F8BC0000AD3B00C0373D00D0943D0F
:1040C0000090C93D00D0D83D0030D73D0030D53DEF
:1040D00000E0E43D00A0EA3D00B0F43D00A0FD3D5D
:1040E0000088093E0070EB3D00800E3C00E050BDB2
:1040F00000E06ABD00202EBD00C033BD00A088BD19
:1041000000A0C1BD00F009BE0010DABD00A090BD46
:104110000080BABC0000B63B0040C73C0080A63C13
:1041200000C0DC3C0030883D00E0D13D00C0C63D11
:1041300000F0943D00C0923C0000BCBC00204CBD8F
:1041400000D08BBD0010C8BD00C810BE00281EBE28
:1041500000A821BE00F810BE0070D6BD00B089BD19
:10416000000035BD0040F4BC0000E13B00E02E3D06
:104170000060A13D00A0D03D00E0E03D0010E03D2A
:104180000010E43D00A0FE3D00B8023E0060023E8B
:104190000000063E00C00C3E00A0DF3D0000183AC3
:1041A00000004FBD00207ABD00E035BD00C073BDEA
:1041B00000B0AFBD00F0DDBD006013BE0040D4BD57
:1041C00000209ABD00C0F2BC0000E03A00C0DE3C16
:1041D0000080B53C0000003D0030913D00E0D73D3F
:1041E0000070CF3D0020A33D0040933C00C0B8BC10
:1041F000008056BD00C07FBD0030C0BD00D009BEEC
:1042000000C017BE00501FBE00E80EBE00F0CEBDBD
:10421000000080BD00A01FBD00C0B1BC0000FF3B7E
:1042200000400B3D00D08F3D00E0CF3D0030E93D28
:104230000050E53D0030DC3D0000F23D00B0FD3DAA
:1042400000280B3E00D00D3E0018113E00A0B03DEE
:1042500000801BBC00204CBD004060BD002009BD9B
:1042600000C077BD0070ABBD0090F4BD000812BE69
:104270000050C9BD008064BD00C08BBC00009E3BE7
:1042800000C0CD3C0080B43C00A00F3D00D0A03D5C
:104290000040CC3D0080BF3D00B0843D0000473C65
:1042A0000040EEBC000069BD00D08BBD00E0C2BD87
:1042B000009809BE003818BE003819BE002005BE9F
:1042C00000B0B4BD002062BD000021BD008095BCDF
:1042D00000001A3C00400F3D0010803D0040CC3DE6
:1042E0000020DD3D00F0E33D00D0DA3D0070E73D09
:1042F00000D0FB3D00380F3E0010193E0048193E2B
:104300000030A03D00803BBC00A03CBD00E04CBDA7
:1043100000C0DEBC00C05DBD00509ABD004000BEC4
:10432000009813BE0060E4BD006081BD0000CCBCFD
:104330000000B4BA0000243C00000E3B00C0AF3CBB
:1043400000D0873D0080B43D00D0AB3D0060623DB1
:104350000000B0B900C012BD002071BD00A08ABD30
:104360000020B0BD0000F6BD00D810BE00701BBE1E
:10437000008000BE0070ADBD00403FBD0000CBBC62
:10438000008021BC0000513C0020113D0000903D08
:104390000080D73D00C0F53D0020FD3D0040EC3DD4
:1043A0000080EE3D0030023E0050113E0008213EEC
:1043B0000040243E00C0833D00C0DBBC006063BD04
:1043C00000E057BD00E004BD00A05FBD00509CBDF3
:1043D000006806BE008814BE0040E3BD000064BD56
:1043E00000009FBB0000233C0040A03C0000A43A1A
:1043F0000080CB3C0040983D00F0C13D00A0BD3D99
:1044000000204C3D0000B6BB00804BBD00608ABD63
:1044100000B08DBD00E0AEBD0080F0BD009817BEBD
:10442000003023BE00B804BE00A0AABD00A01FBD7E
:104430000000A4BC0000F6BB0080123C00A0083DB8
:1044400000308A3D00E0D93D0000FB3D00C0F93D51
:104450000020E83D0060EA3D00A8023E00B0173EA3
:1044600000182C3E00A8223E0060443D00001DBD07
:1044700000A069BD006044BD006018BD00A06EBD15
:1044800000A0A3BD00B80FBE00480EBE0080E2BD74
:1044900000005EBD0000D6BB0040893C00007E3CB1
:1044A000000038BB0040D63C00E0993D0060C83DAC
:1044B00000A0B73D0040383D000081BC004068BD11
:1044C00000D096BD001091BD0020B6BD0040EABDF1
:1044D000004816BE007022BE00B805BE00E09FBDB9
:1044E000002015BD0040A2BC00802EBC0000983BFF
:1044F0000020053D0010933D0080EE3D0040FF3D53
:1045000000C0FB3D0090E13D00D0E73D00F0053EDE
:1045100000A81F3E0088373E00D80D3E0040B13C49
:1045200000C04ABD006081BD00E017BD002032BD63
:10453000006058BD0080BBBD000018BE005003BE27
:104540000050BCBD0040DDBC0000703C0060103D70
:104550000080813C000040390060113D00209F3DFB
:1045600000B0CD3D0000B03D0040B23C004029BD50
:104570000020B0BD00A0AABD0050A2BD0050C6BD25
:104580000030F8BD00801CBE00F022BE004000BE1E
:1045900000A088BD0040B2BC000050BA0000AD3B96
:1045A0000000F43B0080FF3C00309E3D0060EC3D8D
:1045B0000018003E0060EA3D0020D93D0090CF3D4C
:1045C00000E0FE3D0000233E0048363E0030D53D71
:1045D00000005A3B00004BBD008074BD004007BD89
:1045E000004019BD00E044BD00A0C4BD008815BE58
:1045F000001003BE0060ACBD000095BC00C0A23C32
:104600000020103D0000243C0000903A00801A3D3C
:104610000070973D0050D13D00E0B53D00C0C83C62
:1046200000402CBD0010BBBD00D0B6BD0060A5BDD4
:104630000040BDBD0020F4BD008020BE004828BE63
:10464000006005BE00D096BD0040D6BC00004039D9
:1046500000009F3B0000163B0040D63C00A0993D67
:104660000080F73D00D00C3E00C8003E0030DE3D2B
:104670000020CC3D0030FC3D00A01E3E0000343E3A
:104680000090B83D00801DBC00207EBD004098BD5C
:1046900000603ABD00602FBD00202FBD0010BEBDE0
:1046A00000580ABE009000BE00809BBD000081BB88
:1046B00000C02C3D0060763D0000D43C0080023CF0
:1046C00000A0133D0060893D0020D23D00B0B83D00
:1046D0000080DA3C004059BD0000DABD00C0D1BD09
:1046E0000090BABD00B0B1BD00A0E0BD003819BE59
:1046F000005829BE00A807BE003095BD00C098BC78
:1047000000804E3C00803C3C0000893B0040B13CB6
:1047100000408B3D0060E83D00F00B3E00B8053ED8
:1047200000B0E13D0000D03D0060F73D00A8203E14
:1047300000E8303E00B09E3D0000F0BB000081BDAF
:1047400000708FBD00806FBD00C02CBD004033BD28
:104750000060BFBD002002BE006005BE00C0A8BD55
:10476000000032BC00C0253D00806B3D00C0E53C30
:1047700000805D3C00E00B3D00A0853D0070D43D15
:104780000020C13D0020233D00E029BD00B0D0BD88
:104790000020E7BD0010CBBD0030ADBD0050CBBD4B
:1047A00000700DBE007825BE00B00ABE00E0A4BDBA
:1047B00000C0B7BC0080663C00C09B3C0080003C51
:1047C00000C0A13C0020623D0060CC3D0030053EB1
:1047D0000058093E0080DD3D00E0C23D00F0DB3DB9
:1047E0000070103E00D8233E0090983D000078BB3A
:1047F00000A071BD00409DBD006099BD000068BD76
:1048000000C021BD0020A7BD00F0DFBD00B800BE84
:104810000040A9BD000044BC00E0413D00D09C3DEB
:104820000040513D00A0043D00C0163D00205F3D0A
:1048300000B0C03D0090B43D0000473D004004BDC5
:1048400000C0CFBD007002BE0060F7BD00B0BEBDAD
:104850000060C6BD00A001BE00081ABE00D007BEA1
:1048600000C0B5BD006008BD0080883C00C0FC3CB5
:104870000000B53C00C0B03C0060323D0070A23D7D
:1048800000D0EE3D00A0093E0080EC3D00F0C53DAB
:104890000080C63D0020F23D00F01A3E00D0CD3D24
:1048A00000E0003D0000EFBC00A086BD002094BDEC
:1048B00000B082BD008012BD000068BD0010C2BD06
:1048C00000E0F9BD00A0CCBD004042BD0000813C2D
:1048D00000B0843D00E0753D0000263D00200D3D08
:1048E0000060323D0060A33D0000C73D00309E3DAA
:1048F00000803F3C00B08DBD00E0EBBD009002BEEB
:1049000000A0E4BD0010CDBD00E0EDBD00380CBE40
:1049100000F810BE00E0F1BD00C088BD000005BC7D
:1049200000400F3D00201B3D00400F3D0040343D46
:1049300000A0903D0080D93D0040023E00C8013EED
:1049400000D0E73D0030D13D0080DD3D00B0003EAD
:104950000018023E00E0743D0000D4BB00004FBDD3
:10496000006092BD006096BD00A06EBD002051BDEC
:104970000060ACBD00E0DBBD0020E1BD00F096BDF5
:1049800000809FBC0020093D00407E3D0020633D2B
:1049900000C0373D00E04B3D00C0843D0080BB3D82
:1049A0000010B33D0000733D008076BC0060A5BDE3
:1049B00000F0F6BD00F006BE00A0ECBD0010EFBD9B
:1049C000007002BE001811BE007806BE0000CEBD09
:1049D00000E050BD000060BA00C0EA3C00C01A3DD3
:1049E00000E02D3D0060573D00A0993D0050C93DBD
:1049F0000020F43D00B8003E0080EE3D00D0DF3DD9
:104A00000080E13D0050003E0000EA3D00803E3D58
:104A10000000D0BB00C04EBD005080BD001099BD4D
:104A2000000068BD000055BD0020B6BD0050C0BDEF
:104A300000D0C3BD00A072BD00008EBC00A00F3D21
:104A400000607C3D00A0713D00606D3D00C0593D9F
:104A500000C07B3D00609B3D0000923D00E0353D85
:104A6000000095BC00509CBD002003BE000019BE94
:104A700000E008BE00C802BE00F0FFBD004808BE4E
:104A80000000FDBD0080CEBD00006CBD000070BB0D
:104A90000040003D00C0603D0000693D0080733D66
:104AA00000108A3D00B0AB3D0020E33D0060F33DC7
:104AB00000B0F43D00D0D23D00E0C23D0020D23D28
:104AC00000F0EA3D00D0873D0000E53B0080D2BC0D
:104AD00000A076BD006096BD00708FBD008051BD06
:104AE000006081BD00A0AABD00D0BABD00D09EBDAF
:104AF000006022BD0000243C0040603D0070983DF5
:104B00000070893D00A0853D0060623D0010883D39
:104B100000B0893D00C0653D00408B3C00A04FBD0A
:104B200000E0EDBD00F022BE006021BE00F811BE25
:104B3000006807BE0070F8BD0010F1BD0000D8BDD0
:104B400000C0B0BD00000ABD0040B83C00806B3D15
:104B500000C08E3D00C0833D00C0743D00E0973D25
:104B600000C0C63D0090F63D0020F63D0060DF3DF0
:104B70000030B93D0000B83D00D0D63D0070E93DA1
:104B80000080833D0000D23B000008BD00B085BD21
:104B9000004098BD00A06ABD00A026BD00206FBDEA
:104BA00000E0A2BD00A0B2BD00F098BD00A005BD10
:104BB00000C0C53C00408B3D0030A23D00F0893D67
:104BC00000406D3D00A03C3D00C0603D00E0623D06
:104BD00000202F3D0000F2BB0070A2BD00B00CBE53
:104BE00000602EBE006023BE00380DBE0090FABDEE
:104BF0000010E9BD00E0DCBD00A0B9BD00E075BD5E
:104C0000000024BC00E0173D00007B3D0070973D94
:104C10000000963D0060983D00E0A43D0000BF3DCF
:104C200000F0CC3D0040C53D00D0B63D00B0A23DF7
:104C300000C0A43D0010BC3D00A0D73D00606D3D0C
:104C40000080013C0000E7BC00E04FBD00206EBDCD
:104C500000404ABD000016BD00A04FBD002090BD21
:104C600000F09CBD00207ABD0080FFBC00803B3C72
:104C700000005D3D00C08E3D00F0803D00E05A3DEB
:104C80000000213D0080163D0040EC3C0080953C3A
:104C9000008039BC00A072BD0000E9BD002018BE34
:104CA000005020BE000014BE00C0FEBD00A0D3BD59
:104CB00000A0AEBD00A095BD000065BD0000DBBC3E
:104CC0000080763C00804D3D0030953D0080A63D43
:104CD00000E09B3D00D08F3D00E0933D0040A13DB2
:104CE0000080B03D0080AA3D00B0A33D0030953D5E
:104CF0000000963D0090AD3D0030AF3D00C0153D39
:104D00000000383A0040BEBC002035BD00A05ABDAE
:104D1000008030BD0080E2BC00A02BBD00C055BDAE
:104D200000C06CBD00A039BD0000A7BC00C0833C22
:104D30000020483D0090803D00E0443D00E00B3DF8
:104D40000000433C0000FB3B000040B9000008BAF3
:104D50000080A3BC00808ABD0060E6BD008814BE50
:104D600000080DBE00E0F7BD0010C4BD00109DBDE1
:104D700000D08BBD002057BD00001DBD0000E5BB6D
:104D800000C0C63C0080463D00008B3D00B0803D29
:104D900000807B3D00C0583D00E0633D0060573D12
:104DA0000080603D00C0613D0080643D00A0793D11
:104DB0000010883D0080A33D0030C43D00B0853D1B
:104DC0000080DF3C0000503A008097BC0080C9BCE6
:104DD0000080D9BC008068BC0000EABC00E053BD84
:104DE00000B080BD00E082BD00E040BD0080C1BCDD
:104DF00000801F3C0080BA3C0040933C00802C3C6B
:104E0000000018BA0000813B0000183A00007C3B0B
:104E1000000034BB0040F2BC00A069BD0000C1BD71
:104E20000080E1BD00C0ECBD0020CABD00E099BD1E
:104E3000002057BD008029BD008024BD0080FEBC3D
:104E4000000063BC00804C3C00E0273D00E0753D65
:104E50000000873D00C04D3D00A0053D0080D03CD6
:104E600000C0F43C0000383D00406C3D00E0783D5F
:104E70000000683D00606E3D00009A3D0060C63D48
:104E80000030AB3D00605E3D0080C13C0000C5BB12
:104E90000080F8BC006009BD0000ACBC0080D9BC3B
:104EA00000804BBD00508BBD00C09FBD00309BBD3E
:104EB00000E063BD00C090BC00803E3C00C0993C57
:104EC0000000813C0000D0B9000026BB00009CBA65
:104ED0000080563C00809C3C000089BB008019BDCE
:104EE0000010ADBD00E0D3BD0030D8BD0010B7BD8F
:104EF00000D087BD002057BD00E031BD00803BBD24
:104F000000E00BBD00006FBC00805C3C00E01B3D7E
:104F100000C0603D00A0763D0000533D0000293DEB
:104F200000A01B3D00E0143D0000263D00C0493DAF
:104F300000E06D3D00C07F3D00508A3D00E09F3D98
:104F40000010BE3D0050BE3D00206E3D00C0FB3C49
:104F500000008F3B0000BABC00A02DBD00602BBD3F
:104F6000002020BD00407BBD009096BD0020ACBD60
:104F70000030B1BD00B09CBD006041BD008021BCCF
:104F80000080303C0080AC3C0080BC3C0000983C81
:104F90000000B53C0000C23C0020183D00A0043DCC
:104FA0000000F03B0040E4BC003091BD0080B9BD82
:104FB0000090C7BD00E0A8BD00D085BD002050BD59
:104FC00000E039BD00E03CBD004012BD000074BCF3
:104FD0000040893C00802D3D0040743D0080733DC1
:104FE0000080463D0040193D00A0013D0000F63C18
:104FF00000600D3D0020153D0020153D00001D3DC9
:1050000000C0383D00C0743D00C09B3D0040C33D22
:105010000070953D0020233D0000223C00805DBCD7
:1050200000C002BD002014BD0080F1BC004030BDB6
:1050300000E079BD007098BD0080A1BD00D09ABD90
:10504000008065BD004099BC0000193C0000CA3CCE
:1050500000A0133D0060103D00C0123D00A0093DBE
:1050600000C0333D0000383D0040C13C0000A1BB02
:10507000002027BD005097BD00E0BBBD0030B5BD8E
:1050800000F094BD00A06DBD000035BD00C015BD91
:105090000080E7BC000056BC0000A93B0000003DBA
:1050A00000803C3D0060583D00E0293D00C0BE3C12
:1050B0000000F83A000008BB0000E03A0000323C73
:1050C0000080973C0040DC3C0040FD3C00001E3D61
:1050D0000060573D00F0943D0030CD3D00C0B53D2F
:1050E00000606E3D0000EA3C000080BA0000C5BCD4
:1050F000006014BD00C0F4BC000013BD00C056BD6C
:1051000000A081BD00909ABD003099BD004061BDF6
:1051100000007CBC0080AC3C00E0273D0080683D86
:1051200000A04C3D0080343D00A0083D00A00D3D96
:105130000040213D0000E73C0000063C0040C6BCAA
:1051400000E07CBD00B0B1BD00F0BFBD0020A1BD3E
:10515000006081BD00A045BD002024BD004024BDED
:10516000000030BD00601FBD00C090BC0000D0B981
:105170000080773C0000B43C0000523C000028BA9C
:10518000008048BC000028BC0000F0B900007E3C54
:105190000020103D00A03D3D0020583D00E0723D44
:1051A00000609B3D00C0C23D0020F03D0000DD3DA1
:1051B0000000943D00E0273D00004A3B0000CABCCF
:1051C00000A01BBD0080F8BC00C007BD002049BD89
:1051D00000205FBD00A088BD00A08ABD008052BD38
:1051E000000063BC00C0C03C0080293D00206B3D36
:1051F00000E0713D00A0533D0080333D00C02B3DD9
:1052000000C0293D0040C53C000083BB002018BD04
:1052100000809BBD0040D9BD0010F7BD00B0E9BDC6
:105220000090CBBD00A0A8BD00908BBD000073BD59
:1052300000605CBD002033BD0080D8BC0000E5BB31
:1052400000803F3C0000CB3C0000B43C00408A3C66
:105250000080293C0000E33B0080473C0000E03C2C
:105260000040223D00E0353D00E04F3D00405D3D07
:1052700000607D3D0010993D00F0C53D0090F03D7F
:105280000080CA3D00608C3D00600C3D0000903AFB
:105290000040C7BC00E009BD0000D4BC00C0EBBCAE
:1052A000006026BD00203DBD00C04DBD00003FBDDB
:1052B0000080F8BC0000803A0000BA3C0000DA3CF4
:1052C00000A0013D00C0BF3C0000423C0000D4BA39
:1052D000008002BC000013BC0080B2BC002008BDEE
:1052E00000A053BD009096BD0070C9BD0080E1BD17
:1052F0000070D3BD0030B5BD00808EBD000053BD31
:1053000000A014BD0000E7BC0040A7BC0000E3BB48
:1053100000801C3C00C0CE3C0020243D0000373DF6
:105320000060183D0000D33C00809D3C00C08B3CD9
:105330000000BD3C0040FA3C00401D3D00C03B3D2C
:1053400000C03F3D00C0593D00D0803D0060A13D00
:1053500000E0CD3D0000F23D00F0E13D0030A63D13
:1053600000805A3D0040B73C000038BB0080B5BC0F
:105370000080E7BC00E018BD00A078BD00809DBDA6
:1053800000E0B9BD0090D6BD00F0C7BD007098BD6B
:1053900000A022BD000072BC0000D43B0000603CB5
:1053A0000000DD3B000090BA0000F0B90000063CB0
:1053B0000000D43B00004039000065BC00802CBDDB
:1053C00000608EBD00D0A7BD00F0A3BD000085BD6C
:1053D00000C037BD0040EBBC0000C5BC0040AABC0B
:1053E000004089BC0000EEBB0000433C0000FE3CD6
:1053F0000000433D00C0513D00C0373D00C0073DA7
:105400000040A23C0000743C00006F3C00C0AE3C79
:105410000040E53C00401E3D00804B3D0000733DD8
:105420000070893D0020923D0010A03D0090AF3DEE
:105430000040D23D00A0BD3D0080813D00C0D43C75
:1054400000807ABC00204CBD00E097BD003093BDC9
:10545000002094BD00D0A7BD00B0B4BD00F0C5BD14
:105460000050D6BD0000C7BD00208DBD0040FABC75
:1054700000009C3A0000FF3C00803B3D0060313D55
:1054800000E00F3D0080E93C0080E23C0080C23C2F
:105490000080C13C0000193C00C091BC00E044BD4C
:1054A000000096BD00D0A7BD007095BD00E066BDB0
:1054B000002005BD00C08CBC0000A5BB00008039E9
:1054C0000000073C0040983C0040063D00C04A3DBB
:1054D00000E0633D0040513D0000133D0000563C9C
:1054E0000000A1BB00009FBC0080A5BC008085BC63
:1054F000000027BC0000AC3A00801C3C0000AE3C21
:1055000000C0033D00A04B3D00D0833D0000A53D01
:105510000090C93D0040CC3D00008F3D0000133D90
:10552000000028BA00A008BD00E06DBD00E06EBD1F
:10553000002060BD00206ABD004073BD00D089BD61
:1055400000F09EBD00A094BD00C051BD00809FBC76
:105550000000343C00C0113D0040593D00A05B3DBF
:1055600000E0403D0000193D00C00A3D00C0DC3CA9
:105570000000D43C00409A3C0000893B008085BC80
:10558000006026BD000065BD002081BD00C06BBD70
:10559000004034BD00A001BD0040B2BC00C093BCBF
:1055A00000C0A9BC0000ACBC00808EBC000036BCB2
:1055B00000004ABB0000C93B00800C3C0000903A50
:1055C000000035BC0040AFBC0040D7BC0080D0BC60
:1055D00000806BBC0000B0B900804A3C0040C53C74
:1055E00000400F3D0000473D00C0763D00A0903DCB
:1055F0000070AD3D0050C43D0010D53D00C0A23D3F
:105600000020533D00008E3C0040A8BC00E04BBD94
:10561000004069BD00A04FBD006053BD008055BD76
:10562000002067BD00A079BD000081BD00A02DBD98
:10563000008057BC0040993C00A02D3D0030803DCB
:105640000060763D00C03E3D0080033D00C0B73C99
:1056500000806C3C0000003B0000B2BB0040B9BCC5
:1056600000E02EBD001082BD00F09FBD0010B1BD56
:105670000020AEBD00F08DBD006057BD006013BDC1
:105680000000BDBC00C089BC00806ABC00806BBC4F
:1056900000800BBC0000443B0080813C0040B83CD3
:1056A00000009D3C0080033C0000BDBB008068BC46
:1056B00000806CBC0000B0BB0000983B00805C3CEC
:1056C0000000AE3C00E0043D00402C3D00E04F3DBA
:1056D00000F0803D0000903D0000AB3D00A0C23DC9
:1056E00000F0E13D0030C83D0010933D00C02C3D6E
:1056F0000000A43A00800ABD00E065BD00E063BD83
:1057000000206FBD00E072BD008074BD00C08CBD84
:105710000080A1BD008097BD00E04BBD0080ACBC07
:1057200000008F3B0000D13C00C00D3D0060053DF6
:105730000040D43C0040BE3C0040B23C0000603C15
:105740000000AE3B0000EABB0000E1BC00A01EBDB3
:1057500000E04CBD00207ABD006085BD00807ABDB0
:1057600000404EBD002011BD00807BBC000038BB56
:10577000000080380000343B00001A3B0000D23BA0
:105780000000443C00009E3C0040AF3C0080563C82
:105790000000C93B000028BB00801BBC000005BC0A
:1057A000008001BC0000F8BA0000853B0080573C37
:1057B0000040C53C0000073D0020443D0080643DA2
:1057C00000F0893D00B0933D0070A73D00D0BA3D88
:1057D0000080B93D00508A3D00800F3D000070BA46
:1057E00000201BBD00607DBD00A08ABD001084BDEF
:1057F00000E081BD006081BD006083BD00808CBD84
:10580000000081BD006045BD0040F5BC000013BC38
:1058100000005E3C00E01E3D00404B3D0040643D0A
:1058200000E0503D00E0223D0080C43C00802B3C65
:105830000000643B0000BDBB00804ABC0000A7BC68
:1058400000801ABD00E044BD00E057BD00003CBD33
:1058500000E005BD008090BC0000FFBB008047BC9D
:1058600000C092BC0080ACBC0000B3BC00C0A7BCB0
:10587000004093BC000064BC004085BC000071BCCB
:10588000008068BC00005EBC000037BC000044BC67
:1058900000802EBC000083BB00801D3C0080F63CD5
:1058A0000020393D0020673D00606A3D00E06D3D0D
:1058B00000006D3D0040833D00F0963D0030AA3D64
:1058C0000050AD3D0060893D0020263D0000463C73
:1058D00000408BBC00C02BBD002057BD00805CBDCC
:1058E000002060BD002053BD00004FBD00A054BD8E
:1058F00000404BBD008025BD0080BDBC00009FBBAB
:105900000080773C00001E3D00C04A3D00605F3DC6
:1059100000402D3D0000003D0080673C00009F3BA3
:105920000000D83A000022BC00C0A9BC00E008BDBD
:1059300000003CBD00A075BD007082BD00606BBD65
:10594000008056BD000030BD00E000BD0080BDBC41
:10595000004094BC008058BC00005EBC004092BC7B
:1059600000C08BBC000042BC008001BC0000C7BB73
:10597000000013BC000041BC000037BC00008FBB1E
:1059800000000B3C0040BF3C00C01D3D00C0523D2C
:105990000080773D00E0823D00208D3D0000923D7B
:1059A0000030883D0030843D00E0743D0080733D50
:1059B0000060753D0000653D0060263D00806B3C49
:1059C000000063BC002039BD00708DBD00009CBD8F
:1059D00000B089BD00E069BD00004ABD000038BDCF
:1059E00000E035BD00402DBD00C0F3BC00804DBCC3
:1059F0000000E93B00C0C03C0060223D00203E3D6D
:105A000000803C3D0040253D0020083D00008E3CCC
:105A100000001E3B0000E1BB004084BC0080C1BC14
:105A2000000008BD002045BD00B085BD00C097BD89
:105A300000308ABD00C056BD00E008BD008058BCE3
:105A40000000D8BA0000283B0000E33B00005E3CA9
:105A50000040BE3C00E0043D0040223D0020113DDE
:105A60000080F13C0080953C00800E3C000000006E
:105A7000000017BC000054BC0040A9BC00C0B7BC6B
:105A8000000097BC0000B8BB0000083C0040A03CF0
:105A900000C0DD3C0060053D0020173D00C0463DD4
:105AA00000207D3D00309C3D00E0A23D0000813D96
:105AB00000001E3D0000333C000072BC00001ABD17
:105AC00000204DBD00806BBD00E074BD000069BDCD
:105AD000002051BD006048BD008051BD00404BBD5D
:105AE00000402DBD00C0C8BC0000183A0040F33C87
:105AF00000A04F3D00A06A3D0040603D00C0383D21
:105B000000A0133D00C0ED3C00C0E53C0040C83C97
:105B10000000623C0000083B000097BC00E018BD9C
:105B2000006053BD00C064BD00606BBD00A066BDD9
:105B300000804EBD000028BD00C0F4BC0000B3BC16
:105B4000008094BC00C0A9BC0000BDBC000096BC95
:105B50000000FDBB00000E3B0000FF3B0000C93B06
:105B6000000083BB00007FBC00C083BC000029BCD8
:105B7000000008BA0000153C0040853C0080A43CB1
:105B80000080CC3C0080063D00A02B3D0060493DDC
:105B90000040513D0060573D00C0643D0070823DB3
:105BA0000020853D0080513D00C0F53C00008D3B4C
:105BB0000000ADBC000016BD006013BD0040E4BC99
:105BC00000C0A0BC000074BC00007CBC00C0A7BC2E
:105BD00000C0A7BC008067BC000040BA0000293CA0
:105BE00000408C3C0000B63C0000B63C0040C63C87
:105BF0000080C93C0000AC3C00801D3C000000B9A6
:105C00000000CEBB000007BC008020BC000033BCFD
:105C10000000CCBC00C024BD002060BD00E071BD10
:105C200000606ABD00404ABD00A023BD004012BD17
:105C300000C019BD00E01EBD008024BD00C012BD23
:105C40000040FABC00C0B6BC00006DBC00800CBCBB
:105C50000000883A0000E13B00802A3C0080383C8C
:105C600000803B3C00803A3C00006E3C00009E3CC3
:105C700000C0EB3C0020153D0060353D0060323D2A
:105C800000E02E3D0000263D00602A3D0000403D22
:105C900000A04F3D00E05E3D00C0563D0000283DA5
:105CA00000C0DB3C0000343C0000DABB0080D1BC0B
:105CB00000C01CBD006026BD006020BD0080F8BC97
:105CC0000040B1BC0000A7BC0040D4BC00C0D7BCA1
:105CD000008097BC0000ADBB0000643C00C0FB3CF2
:105CE00000A0133D00E0093D0040EC3C0000C43C36
:105CF00000C0833C0000AD3B0000B8BB00C0A2BCAC
:105D000000A005BD006020BD002042BD004060BD78
:105D1000000070BD004070BD004061BD000035BD99
:105D20000040E6BC000034BC00004A3B0000503C90
:105D300000005E3C00802A3C00009C3B00001A3BB7
:105D40000000603A0000703A000085BB000063BCB0
:105D500000C0A9BC00C0C0BC0080CCBC0080ADBCF1
:105D6000000071BC0000DFBB0000A33B0000AB3CA7
:105D70000040253D0000693D0020873D00208E3D0C
:105D80000060873D00F0833D0090843D0080883DA9
:105D90000050883D00807A3D00403F3D0080B43C8B
:105DA0000000BCBA0080C1BC00A027BD00804DBD72
:105DB00000004ABD00202FBD00800BBD00C0BEBC4E
:105DC00000C09BBC00409BBC00C08BBC000042BC20
:105DD0000000A43A0000513C0040EE3C0020183D79
:105DE00000001E3D0080063D0040C63C0000703CA7
:105DF0000000A73B000000BB00804EBC0000E0BCE0
:105E000000E022BD00E050BD00807ABD001088BDDA
:105E1000002087BD00C07BBD006057BD00401DBD98
:105E20000080BBBC008003BC0000003B0000C13B05
