:020000042000DA
:04035C0000787FBFE7
:1003600000C4E2BE00D0913D0010C63D00B0C13DCA
:100370000020BA3D0000B23D00E0AC3D00F0A93DD8
:100380000080A53D0050A23D0010A03D00A09D3D75
:1003900000609B3D00B0983D0050953D0050933D5E
:1003A0000050913D00908F3D00708D3D00508B3D81
:1003B0000000873D0080853D00D0833D0080813D69
:1003C00000807E3D00807A3D0060763D0000733DF8
:1003D0000000703D00206B3D00C0653D00A05E3D0B
:1003E00000005E3D00C05C3D0040563D00E0533DD6
:1003F00000604F3D00604D3D00C04A3D0060453DFE
:1004000000C0423D00C03E3D00803B3D00E0393D24
:100410000020353D0060313D0020323D00802F3D01
:1004200000602B3D00E02A3D0060263D0060223D3B
:1004300000401E3D00401D3D00001A3D0000193DDA
:1004400000C0153D0020113D00C00E3D00600C3D78
:1004500000400A3D00E0083D00A0043D00C0033D0F
:100460000020013D0040FD3C0080F83C00C0F43C11
:100470000000F13C0000EF3C0040EB3C0080E93C18
:100480000000E83C00C0DB3C0000D83C00C0D73C8A
:100490000080D23C0040CD3C0080CB3C0040C83CBA
:1004A0000000C33C0080C13C00C0BE3C00C0B63C64
:1004B00000C0B13C0080AE3C00804DBD0090C2BD8C
:1004C00000C09DBD00606BBD00201BBD00C089BC8D
:1004D0000000B43A0000903C00E00C3D00A0493D13
:1004E0000080813D0050A03D0030BE3D0010D93D50
:1004F0000020F43D00D0063E00D8113E00C01C3E56
:100500000018293E0058363E00B8403E0048483E9C
:1005100000404E3E00A8533E00F8593E0020613E88
:100520000090683E00886F3E0090753E00987A3ECD
:100530000010803E0034823E00A0843E0020873EB2
:100540000044883E00E8893E00388B3E00288B3E00
:1005500000FC8B3E00F48C3E00808E3E0048903EB6
:100560000004923E0050933E0030943E004C943E76
:100570000004943E007C933E0074933E0098933EAA
:1005800000A0933E007C933E0074923E009C923EFD
:100590000030933E00E0913E00F0903E00188F3E08
:1005A00000B48D3E006C8D3E00908C3E00FC8A3E77
:1005B00000F4893E00D8883E0078883E0044883E9A
:1005C0000050883E00C4873E005C863E006C863E3C
:1005D00000F8853E0084843E00A8833E0044813EAE
:1005E00000E07D3E00D87B3E00D8793E00F8773EA3
:1005F0000048763E0090753E0068753E00B0733E40
:100600000098713E00B86E3E00506C3E0070693E2E
:100610000018673E0028653E0078623E0078613E23
:1006200000005F3E00405C3E00185A3E0070573E9E
:100630000038533E0040523E0078513E00404E3E4E
:1006400000184D3E00B04B3E0090483E0038463EFC
:100650000068433E00A8403E00503E3E00383B3E0E
:100660000000363E00A8323E0040303E0098303E4A
:1006700000502E3E00082A3E0078283E0058273EB3
:1006800000A8253E0050233E00081F3E00C01A3E31
:100690000048183E00F0173E0000163E0000143ED1
:1006A0000030123E00D80F3E00B00E3E00600E3EFD
:1006B00000B00C3E0098093E0098073E0068053ED9
:1006C00000C8043E0020043E0030033E00E8003E27
:1006D00000F0F93D0000F23D0010EF3D0030ED3D2F
:1006E0000060E83D00F0DF3D0010DC3D0010D93D2A
:1006F00000B0D83D00B0D63D00C0D13D00F0D03DA7
:1007000000E0CF3D0060D03D00E0CC3D0010CB3D8F
:1007100000D0C93D0040C33D0080BD3D0050BA3D02
:100720000070B53D0020B23D0040AE3D0080AC3DC4
:100730000060A83D00F0A53D00B0A33D0000A13D34
:1007400000009C3D0040983D00A0953D0090933DE9
:100750000060923D00E0903D00B08D3D0070883D0E
:100760000050863D00B0843D0020853D00A0833DC3
:100770000090803D00607C3D00607A3D0020763D29
:1007800000A0783D00807F3D00807B3D00E0753D0E
:1007900000A06E3D0020663D0040643D0060623D6B
:1007A00000605C3D0000563D0060543D00E0543D5B
:1007B00000E04F3D00C0463D00803F3D00603D3DB4
:1007C0000080373D0060353D00C0333D0020353DA1
:1007D00000E0323D00E02A3D00002D3D0040283D74
:1007E0000060203D00401E3D00801D3D00601C3D1E
:1007F00000A0143D00A0143D00E00F3D00800E3D20
:1008000000400F3D0060113D0020103D00E00F3D15
:1008100000C00A3D00E0013D0080FF3C00C0F93C03
:100820000080DF3C0080C33C0040BE3C0040C63C32
:100830000040C73C0040C03C0080B53C0080C33C49
:100840000000D33C0080E03C0000E23C0000E23CC1
:100850000000D93C00C0CD3C0000BB3C00C0A83C1F
:1008600000409B3C0040933C0080873C0040913C12
:100870000040993C0080A33C0080973C0080963C5F
:100880000000893C0000733C0000643C0000403CD8
:100890000000463C00804B3C00804B3C0080113CFB
:1008A0000000E93B0000F23B0000FF3B00800D3CF4
:1008B0000000E53B0000BC3B0000D83B0000F43BDF
:1008C0000000F03B0000DF3B0000DB3B0000D23BC0
:1008D0000000DA3B0000B83B00008B3B0000833B8C
:1008E00000003C3B0000303B0000CC3A0000903957
:1008F000000090390000083B0000303B0000403B06
:100900000000743B00009A3B0000B83B0000DA3B5B
:100910000000BF3B0000B23B0000DF3B0000E73BB4
:100920000000D63B0000C93B0000A53B0000003B97
:100930000000223B0000123B0000263B00009C3BD5
:100940000000C13B0000E33B0000E93B0000F03B3E
:100950000000FD3B0000C93B0000853B0000043B5C
:100960000000703A0000703A0000B0B9000080B991
:100970000000D0B90000083A0000F0390000883AC1
:100980000000C43A000040B90000B03900009039BE
:10099000000026BB00000EBB0000E8BA000012BB3E
:1009A0000000E8BA00000EBB000016BB00004EBB02
:1009B000000083BB00008DBB000090BB0000EEBBBD
:1009C0000000FFBB00800CBC0000F8BB0000BCBBFB
:1009D000000052BB0000F8BA000080B80000D03917
:1009E0000000183A0000F0B9000012BB000090BBF4
:1009F0000000E9BB000005BC0000D0BB0000B0BB9C
:100A000000009ABB000034BB000090B90000983A87
:100A10000000283B0000463B000080380000803882
:100A2000000090BA000038BB000000BB000064BBAF
:100A3000000070BB000068BB0000D4BA000060BAC0
:100A4000000040B90000D03900000039000088BA29
:100A50000000BCBA00009CBA000018BA000038BA06
:100A60000000D8BA00000ABB00004EBB000094BBD7
:100A700000006CBB00007CBB00009FBB0000B6BB4D
:100A80000000BFBB0000DABB0000D0BB000092BB7F
:100A9000000083BB000083BB000028BB0000E8BA55
:100AA000000012BB0000F0B9000060BA00000ABBF1
:100AB000000040BB000087BB000070BB00009FBB74
:100AC0000000BFBB0000E3BB0000D2BB000081BB45
:100AD00000005EBB0000F8BA0000C4BA000000BB12
:100AE000000028BB000008BB000074BB00006CBB0A
:100AF0000000A5BB0000A3BB0000A9BB000090BB89
:100B00000000B4BB0000D2BB0000E9BB0000ECBB9E
:100B10000000E5BB0000D4BB0000A9BB00004EBB39
:100B200000005EBB00006CBB000030BB00004EBB91
:100B3000000046BB0000D8BA00001EBB00004ABB44
:100B40000000E0BA000004BB00001ABB000090BB2C
:100B5000000040BB00004ABB000038BB00004EBB99
:100B6000000038BB000064BB0000BCBA0000B0B994
:100B7000000090BA000000BB0000B0B9000090393E
:100B80000000000000001EBB00005ABB000096BB26
:100B90000000A7BB00009ABB00006CBB000052BB6A
:100BA0000000B8BB0000B2BB0000A5BB0000D4BB76
:100BB0000000F6BB0000DBBB0000A9BB000070BB5F
:100BC000000034BB000074BB00007CBB000074BBA1
:100BD000000089BB000083BB000085BB000070BB28
:100BE0000000ADBB0000B0BB0000A3BB000078BBA1
:100BF0000000C7BB0000E3BB0000ABBB0000B8BBFC
:100C000000008BBB00003CBB000026BB0000E8BA24
:100C1000000008BB00001ABB00008FBB0000B4BB83
:100C20000000D6BB000009BC0000ECBB008001BC8A
:100C3000008003BC0000C5BB00009EBB0000DBBB06
:100C40000000E3BB0000CCBB0000C7BB0000D2BB70
:100C50000000B0BB000092BB000068BB000092BB6C
:100C600000009EBB000085BB000068BB000070BB9D
:100C7000000087BB0000A5BB000092BB000044BB86
:100C800000002CBB000070BA000098BA000016BB30
:100C9000000030BB000012BB0000A4BA0000D4BAB0
:100CA000000080BA000070BA000090BA0000B4BA28
:100CB0000000A4BA0000BCBA00001EBB00001EBBAE
:100CC00000000ABB0000BCBA000068BB000040BBCB
:100CD0000000E8BA0000ACBA000080B8000040395B
:100CE000000000000000B4BA00001EBB000064BB9E
:100CF00000009EBB000096BB000038BB000074BB28
:100D00000000E0BA00009CBA000008BA0000183ADF
:100D10000000803A000080390000603A0000603A2C
:100D20000000D039000000BB000028BB000052BB0F
:100D300000008BBB0000B2BB000089BB000068BB99
:100D400000003CBB00001ABB000028BA000008BA33
:100D50000000F0B90000E8BA0000F8BA00001EBBBD
:100D600000004EBB000008BB00002CBB000026BBEF
:100D7000000060BA000088BA000038BA00009CBACF
:100D800000000EBB000078BB00009ABB00008DBBCA
:100D9000000096BB000094BB00009ABB0000BDBBE6
:100DA0000000BDBB0000A3BB00005ABB000068BB35
:100DB000000028BB000070BA000040390000903AE3
:100DC0000000003900000000000008BA0000CCBAA2
:100DD00000006CBB000085BB000080BB000083BB33
:100DE00000003CBB000070BA000028BA000088BABE
:100DF0000000D0390000F03A0000983A00000000EE
:100E0000000090BA000022BB00006CBB000070BB69
:100E1000000034BB000064BB00006CBB00009CBA47
:100E2000000080390000183A0000903A0000383A7B
:100E30000000603A00009C3A0000803A0000B43A9A
:100E40000000D039000080B8000088BA0000E8BA7D
:100E50000000E0BA00001ABB000016BB000000BB97
:100E6000000090BB00009FBB0000A7BB0000A5BB1B
:100E70000000B2BB0000B0BB0000C5BB0000C3BB9C
:100E80000000A9BB00008FBB00005EBB00008DBB53
:100E900000008DBB00009EBB0000E9BB0000F6BB5C
:100EA0000000F8BB0000E7BB0000B6BB0000ABBB16
:100EB00000009EBB00008BBB000064BB000044BB75
:100EC000000087BB0000B0BB0000CEBB0000E7BB4A
:100ED0000000DDBB0000ECBB0000FDBB0000EEBB72
:100EE0000000C9BB0000B2BB0000C1BB0000BCBB1E
:100EF0000000B6BB000094BB000070BB00006CBBE0
:100F0000000090BB000081BB00002CBB000081BB37
:100F1000000090BB0000A7BB0000B2BB00005ABBA2
:100F2000000083BB000090BB0000C3BB0000E1BB1E
:100F30000000E9BB0000E5BB0000D4BB000007BC1B
:100F400000000BBC000008BC0000C1BB0000A1BB3E
:100F50000000AEBB00008BBB000068BB0000E8BA1D
:100F6000000060BA00000ABB000074BB000070BB48
:100F700000008FBB000090BB00007CBB00007CBB6E
:100F8000000052BB000004BB0000A4BA0000C4BAB9
:100F90000000BCBA000000BB000034BB000044BB32
:100FA00000000EBB000034BB000056BB00005ABB63
:100FB00000006CBB00005EBB00004EBB00000EBB1F
:100FC00000009CBA0000F8BA000098BA0000BCBA51
:100FD0000000B0B900000ABB000026BB000030BB17
:100FE000000016BB000012BB000080BA00009CBAD3
:100FF0000000E8BA000088BA00000000000018BA3B
:10100000000022BB00002CBB00004EBB00005EBBFA
:10101000000074BB000096BB0000C3BB0000DDBB3A
:101020000000CEBB0000ADBB0000BABB0000BCBBE3
:101030000000B8BB000098BB000052BB000000BB22
:10104000000004BB0000D4BA0000A4BA000080BABB
:1010500000009CBA0000A4BA000004BB00001EBB44
:10106000000046BB00000ABB000046BB000089BB75
:1010700000005ABB000016BB000012BB000062BBA0
:101080000000BABB0000B6BB0000BCBB0000ABBB9D
:1010900000005EBB000068BB000044BB00009CBABF
:1010A000000070BA0000803800008038000038BAB4
:1010B000000012BB000028BA000040390000B0B99F
:1010C000000098BA0000D8BA000070BA0000083AD0
:1010D0000000283A000040B90000BCBA00001ABB6A
:1010E000000040BB00005EBB0000B4BB0000FFBBC3
:1010F000008010BC0000F6BB0000CCBB0000DDBBD4
:101100000000D2BB000094BB000064BB000038BBF1
:1011100000003CBB000094BB0000C9BB0000DFBB6B
:101120000000EABB0000D4BB0000CCBB0000BABB8F
:1011300000009ABB000080BB000026BB00003CBB47
:10114000000094BB00009EBB0000B2BB00009EBB31
:1011500000009ABB000094BB000080BB00003CBBB9
:10116000000030BB000022BB00002CBB000000BB15
:10117000000070BA000008BA000040390000283AA8
:101180000000903A0000383A000080380000F03942
:1011900000000000000000000000D0B90000ACBA60
:1011A000000026BB000046BB000074BB0000A7BBCC
:1011B0000000D0BB0000CEBB0000B4BB00009EBB53
:1011C0000000A1BB0000A7BB00008BBB00002CBB34
:1011D00000009CBA000000000000703A0000D03906
:1011E0000000ACBA0000F8BA00009FBB0000ECBBE6
:1011F0000000B4BB000080BB000068BB00001EBB49
:1012000000001EBB000090BA000018BA000038BAF7
:101210000000CCBA000004BB000070BA0000ACBAF9
:1012200000000EBB000064BB000044BB000044BBD8
:10123000000068BB000052BB000087BB0000A7BBDA
:101240000000ABBB00006CBB0000BCBA0000F0B9F2
:10125000000050BA0000B4BA000040BB00005ABB06
:1012600000004EBB000080BB000098BB0000DFBB4D
:10127000008003BC000007BC0000DBBB0000B8BB63
:101280000000ABBB0000A9BB0000ADBB000085BBEC
:1012900000003CBB000004BB000044BB00009EBB40
:1012A000000092BB000046BB00005ABB000083BB9D
:1012B000000062BB000068BB00002CBB0000D8BA75
:1012C000000040BA0000F0390000D0B9000000BBB7
:1012D000000052BB000052BB000078BB000083BB83
:1012E00000008DBB000062BB000044BB00004ABB95
:1012F000000034BB00000ABB0000F8BA000081BB4C
:101300000000C1BB0000C3BB000096BB000038BB9F
:10131000000026BB000080BA000080390000003BBE
:101320000000283B0000B43A000098BA0000E0BA80
:1013300000001EBB00003CBB00001ABB000022BB2B
:1013400000001ABB000030BB00005EBB000028BBE1
:10135000000046BB00005EBB000083BB00001ABB60
:10136000000022BB000034BB00004ABB00009ABB57
:101370000000BCBB00009ABB000064BB000094BB33
:10138000000081BB000088BA0000E0BA000090BAFB
:10139000000068BB0000BABB0000DBBB0000ECBB78
:1013A0000000D0BB0000CEBB0000B2BB000062BB9F
:1013B00000000ABB000080BA0000B4BA000000BB05
:1013C000000030BB000078BB00009ABB0000ABBB44
:1013D000000094BB0000ABBB0000BFBB0000BABB69
:1013E0000000A7BB0000ADBB00009EBB000085BB9A
:1013F00000004ABB000026BB0000F0BA000022BB80
:1014000000001ABB00003CBB000046BB000083BBD1
:10141000000090BB00009CBB00008FBB00002CBBF9
:101420000000D4BA0000D8BA000028BB000081BB7D
:10143000000062BB000089BB000070BB00004ABB1B
:1014400000004ABB00005EBB0000E0BA000000B92B
:10145000000000000000403A0000E83A0000383A7E
:101460000000B0B9000098BA000012BB000052BBE7
:10147000000030BB000022BB000022BB000016BBF6
:101480000000C4BA000050BA000040BA0000E8BA38
:1014900000000EBB0000F8BA0000ACBA000026BB8A
:1014A000000040BB00002CBB000080BB000098BBCC
:1014B00000009FBB000074BB000068BB000080BB45
:1014C000000056BB000018BA000088BA0000D4BA69
:1014D000000000B9000070BA000008BA0000F0B9BE
:1014E0000000E8BA000004BB0000F0BA000038BBFE
:1014F000000008BB000016BB000028BB00004EBB6C
:10150000000062BB00007CBB000068BB00000EBB9B
:10151000000088BA0000B4BA00003CBB000034BB35
:101520000000D4BA00001EBB000044BB000068BB32
:1015300000007CBB000056BB0000A4BA000050BAFB
:101540000000B0B90000083A000080B9000050BAAD
:10155000000008BA0000403900008038000000B9DF
:10156000000080BA0000D8BA00001ABB000089BB96
:10157000000070BB000044BB000052BB000056BB23
:10158000000089BB000064BB000062BB000034BBEC
:1015900000000ABB000098BA0000D0390000283AC9
:1015A0000000283A0000703A0000603A0000503A0B
:1015B000000018BA000038BA00009CBA000012BB44
:1015C000000008BB000098BA000022BB00009FBBCF
:1015D00000008DBB000068BB00001ABB000044BBCC
:1015E000000022BB0000C4BA000090BA0000B4BAE8
:1015F0000000E8BA0000F8BA0000D4BA000098BAB7
:10160000000080BA0000CCBA0000F8BA000080BB2D
:10161000000038BB000089BB0000A3BB00007CBBFE
:10162000000044BB000050BA0000903A00009C3A11
:101630000000803A00004039000038BA000098BA33
:10164000000056BB0000A9BB0000B6BB0000D2BB27
:101650000000ADBB000089BB00006CBB000056BBA6
:10166000000068BB00005ABB000040BB0000D8BAB5
:101670000000B0B9000018BA000000390000E83AD4
:1016800000000E3B0000563B00000E3B00009C3A61
:101690000000B43A0000883A0000283A0000803880
:1016A000000018BA000034BB00005EBB00006CBB39
:1016B00000005EBB000074BB000081BB0000E8BA04
:1016C0000000D8BA000018BA0000983A00009C3A0E
:1016D000000050BA000050BA000038BA000098BAB2
:1016E000000016BB000004BB000038BB000040BB7C
:1016F000000026BB000034BB000056BB000089BBC5
:10170000000064BB00004ABB00009ABB00009FBB06
:101710000000CBBB0000DDBB0000D4BB0000C7BB9A
:101720000000DABB0000F0BB0000F0BB00800EBC84
:10173000008012BC000008BC000007BC008010BC88
:101740000000CEBB000098BB000089BB00008BBB33
:101750000000C5BB0000BDBB0000A9BB0000BFBBB3
:101760000000A1BB0000C5BB0000D4BB0000C1BB92
:101770000000CBBB0000D6BB0000F2BB000008BCE1
:101780000000F8BB0000C9BB0000A1BB000083BB88
:10179000000089BB0000B0BB0000AEBB0000D2BBA4
:1017A0000000BDBB0000C3BB0000DDBB0000EABB06
:1017B0000000B4BB000034BB000018BA0000803940
:1017C0000000503A0000F0390000CCBA0000F8BA2E
:1017D00000006CBB0000ABBB00009EBB000005BC62
:1017E000000005BC0000ECBB0000ECBB0000EABB45
:1017F0000000CCBB0000DDBB0000D2BB000098BBEA
:10180000000089BB000087BB0000A5BB00008DBBAA
:10181000000046BB00001ABB0000E8BA0000A4BAF2
:101820000000D0B9000040B9000080B9000090BAB3
:101830000000C4BA00002CBB00005ABB000064BB0F
:101840000000F0BA000026BB000064BB000028BB0B
:10185000000040BA000038BA0000B4BA0000E8BA8C
:1018600000009CBA00001ABB00001EBB0000F8BAC2
:10187000000012BB000098BA000070BA0000D0B996
:1018800000008039000080B9000090B9000050BA13
:10189000000090BA0000D0B9000070BA000016BB7A
:1018A000000070BB00005ABB00005ABB000078BBB0
:1018B0000000C9BB000092BB000092BB0000B0BB9F
:1018C0000000BABB0000C1BB0000F0BB0000FBBBC6
:1018D000000004BC000005BC0000F8BB0000FDBB1C
:1018E0000000E3BB0000D0BB0000DFBB0000D6BBA4
:1018F00000009CBB00009CBB00009ABB00001EBB0C
:1019000000009ABB00005ABB000083BB0000B2BBC2
:101910000000CEBB0000C5BB0000CEBB0000B6BBC4
:101920000000B4BB0000ADBB000087BB000064BB7F
:10193000000068BB000064BB00002CBB000070BB53
:10194000000040BB00005ABB000056BB000046BB75
:10195000000028BB0000D4BA000018BA000080398B
:1019600000000039000070BA0000B4BA00003CBBAF
:10197000000089BB000080BB000074BB000000BBFE
:10198000000008BB000040BA000028BA000088BA76
:101990000000ACBA00000000000000B9000040BA2E
:1019A0000000C4BA0000B4BA00000ABB000012BBB9
:1019B000000064BB000034BB000060BA00000000FF
:1019C000000040B900009C3A0000883A0000503AFC
:1019D0000000000000004039000050BA000040B98B
:1019E00000002CBB00005ABB00008DBB000094BB64
:1019F0000000A1BB0000AEBB0000C7BB0000CCBB19
:101A0000000098BB00008BBB000083BB00008DBBB7
:101A10000000A3BB0000A3BB00009CBB000092BB66
:101A20000000BABB0000AEBB0000D8BB0000CBBBBF
:101A3000000089BB000081BB00004EBB000030BB32
:101A40000000F0BA000004BB0000ACBA0000E8BA25
:101A5000000052BB00003CBB0000E0BA0000BCBA72
:101A6000000050BA000040390000043B0000903AEA
:101A700000000000000090B9000080B8000070BABB
:101A8000000088BA000050BA000000000000D43AFC
:101A90000000263B0000263B0000123B0000E03A1D
:101AA0000000003B0000000000001EBB000064BB03
:101AB000000078BB00006CBB000078BB00008DBB51
:101AC00000001EBB000000B9000080380000903903
:101AD000000060BA0000CC3A00000000000018BA14
:101AE000000088BA000050BA00002CBB00005EBBAA
:101AF000000056BB000062BB000030BB00002CBBE6
:101B000000009CBA000088BA0000F8BA0000D4BAFD
:101B100000003CBB000064BB000068BB000085BB4C
:101B20000000A7BB000080BB00007CBB00000ABB1C
:101B300000001ABB0000D8BA000034BB00005EBB36
:101B4000000022BB000081BB00004ABB000085BB37
:101B500000008BBB00008BBB00008DBB000087BB6F
:101B6000000081BB00004ABB0000C4BA000060BA9C
:101B700000009C3A0000D43A0000043B0000D83A30
:101B8000000040B900009C3A00008038000022BBF1
:101B9000000081BB00002CBB000038BB000016BB5E
:101BA000000083BB000062BB000040BB00006CBBB8
:101BB00000008BBB000090BB00008DBB000083BB0E
:101BC0000000ABBB00006CBB0000F0BA0000C4BA60
:101BD000000088BA0000B03900000039000008BADF
:101BE000000090B9000060BA00001ABB000089BB79
:101BF000000092BB000089BB000052BB000062BB2A
:101C0000000044BB000098BA000038BA0000D03988
:101C1000000080B8000060BA000090BA000080BAEE
:101C20000000CCBA00002CBB00009CBB00009FBB96
:101C3000000083BB0000B6BB0000A7BB000070BB68
:101C4000000044BB000012BB000070BB000096BB4C
:101C500000009EBB0000AEBB0000BDBB0000E1BBAE
:101C60000000ABBB000092BB0000ADBB000085BB19
:101C700000008BBB0000CCBB0000F2BB0000D2BB5D
:101C80000000CEBB0000DFBB0000B8BB0000BCBB47
:101C9000000064BB00000ABB000022BB00005ABB6E
:101CA00000006CBB000012BB000004BB000089BB3D
:101CB00000008DBB000046BB000044BB000026BBFB
:101CC0000000ACBA000000B9000088BA000088BA71
:101CD0000000D83A000080390000D4BA0000ACBA45
:101CE0000000ACBA0000D8BA000044BB000078BBCA
:101CF000000090BB000052BB000016BB000050BAB1
:101D0000000028BA000040B90000883A0000043BF7
:101D10000000F0390000AC3A0000083A0000B43A84
:101D20000000703A000016BB000052BB000030BB40
:101D3000000068BB000064BB0000E8BA0000D8BA2D
:101D40000000A4BA0000B0B9000050BA000090B979
:101D50000000603A0000D039000098BA0000D8BAFC
:101D6000000070BA0000C4BA000026BB000004BB2B
:101D7000000034BB00002CBB0000E8BA0000CCBA65
:101D8000000026BB0000CCBA0000B039000080BAC9
:101D900000005ABB000034BB00000ABB000026BB99
:101DA000000068BB000034BB000074BB00000EBB29
:101DB000000004BB000078BB000080BB00008BBBB0
:101DC000000074BB00004ABB000038BB000004BB2D
:101DD0000000A4BA00001EBB00008FBB000028BB9F
:101DE00000004ABB000078BB0000A7BB0000B6BBE8
:101DF000000080BB00001ABB0000BCBA000090B914
:101E00000000D0B90000803A00009039000008BA04
:101E10000000C4BA0000A4BA000080B8000018BADC
:101E2000000040B90000B039000038BA0000D039D5
:101E30000000AC3A0000703A0000D039000038BA17
:101E400000009039000040390000A4BA0000703A48
:101E50000000A43A0000D43A0000E83A0000BC3A7E
:101E600000009C3A0000183A0000BCBA000040BADA
:101E7000000018BA0000D8BA000088BA0000E8BA1A
:101E8000000080BA000012BB000026BB00000ABBA5
:101E900000008BBB000094BB0000A1BB0000BDBBD9
:101EA00000008FBB000070BB000081BB000080BB46
:101EB000000040BB000028BB000030BB0000E0BABF
:101EC000000030BB000026BB000040BB000080BB10
:101ED00000009CBB000096BB00009EBB000085BBC1
:101EE000000064BB000022BB00001ABB000030BB36
:101EF0000000A4BA0000F0B9000090B90000E0BAF8
:101F0000000064BB000070BB0000E0BA000004BB2E
:101F1000000012BB000012BB0000F8BA00001ABBA0
:101F200000002CBB000044BB00003CBB000038BBE1
:101F300000001ABB000000BB0000A4BA0000AC3ACD
:101F400000009039000018BA0000F0BA0000C4BACE
:101F5000000080B900000000000090BA00009CBAA8
:101F6000000060BA0000D8BA00000ABB000008BB3D
:101F7000000034BB000038BB000034BB00001EBBB7
:101F8000000090BA0000F8BA0000B4BA000050BADD
:101F90000000CCBA0000D4BA000088BA000004BB2C
:101FA00000004ABB0000BCBA000004BB000000BB3C
:101FB000000040B90000B0B9000050BA000038BAC3
:101FC0000000803800000ABB000026BB00000EBBEA
:101FD000000062BB000085BB000070BB00000EBBB0
:101FE00000001ABB000012BB00004ABB00004EBB41
:101FF000000028BB000034BB000000BB0000CCBACE
:102000000000A4BA000050BA00001ABB000040BB98
:10201000000000BB0000F8BA0000F0BA0000D0B920
:10202000000090BA000080BA000080BA000034BB03
:1020300000000ABB000000BB0000F8BA0000D8BADC
:102040000000F0BA000088BA000080B90000B0B902
:102050000000BCBA000008BB000026BB00001ABB91
:10206000000016BB000046BB00008DBB00004EBB4D
:102070000000ACBA0000703A0000F83A0000083ADC
:1020800000008038000080BA000080BA000090BADA
:102090000000D4BA000018BA000008BA0000B4BAB0
:1020A000000040BA000008BA000090390000D0B922
:1020B0000000D4BA000098BA0000B0B9000018BA05
:1020C000000050BA000000000000503A0000083A3A
:1020D0000000E83A0000283A000080390000603A29
:1020E000000080380000D8BA000016BB0000C4BA57
:1020F000000026BB000088BA000080BA000016BBB2
:102100000000A4BA0000D0B9000008BB0000D8BA93
:10211000000098BA00000ABB000034BB000089BB75
:10212000000028BB00001ABB000012BB000028BB47
:1021300000001ABB0000E0BA000040BA000008BA74
:102140000000BCBA000088BA0000ACBA000008BBAE
:10215000000070BB00007CBB000094BB000070BBA3
:10216000000030BB000044BB000040BB00003CBB93
:1021700000004EBB000062BB00009ABB00008FBB9A
:10218000000087BB000089BB00008BBB000056BB72
:10219000000078BB000052BB000012BB000000BB77
:1021A0000000E8BA0000E8BA0000F8BA000040BA3F
:1021B000000038BA0000383A0000083B0000283B15
:1021C00000000E3B0000D83A0000C43A0000883AF4
:1021D0000000D0390000403A00008038000098BA72
:1021E0000000000000000000000090B900009039DD
:1021F000000018BA000018BA0000A4BA0000C4BA5F
:10220000000000BB000004BB0000D0B90000D8BA39
:10221000000030BB000060BA000040BA000022BBE2
:10222000000094BB0000E7BB000006BC0000DFBB61
:102230000000DFBB0000D6BB0000E3BB0000BCBB5E
:10224000000094BB000094BB000056BB0000F8BA2D
:10225000000028BA000038BA0000F8BA0000C4BA7A
:102260000000D0B90000E8BA0000E0BA0000C4BA2B
:102270000000F0B9000080B80000CC3A0000163B26
:102280000000E03A0000223B0000B43A0000083AA7
:102290000000C43A0000283A0000A43A00001A3BAB
:1022A00000008D3B0000963B0000643B00009A3B21
:1022B0000000B63B0000C53B00009F3B0000383BE0
:1022C0000000343B0000703A0000403A0000603AE1
:1022D000000008BB000004BB0000BCBA00004EBBFD
:1022E000000094BB00008BBB000094BB00008DBBC2
:1022F00000001ABB000008BB000081BB0000DBBB74
:102300000000C5BC0000BFBB008000BC000018BCC2
:10231000000005BC0000DABB00004EBB0000B2BBF1
:102320000000CC3A00005EBB00C09ABC0000B4BB09
:102330000000D83A000088BA000052BB0000EABB97
:102340000000B8BB0000F2BB0000ABBB000098BBB4
:1023500000008D3B00007C3B000050BA00C0B0BCC8
:1023600000800CBC0000F43B0000D03B0000A13B0F
:102370000000923B0000623B0000083B00008B3BEA
:102380000000983A0000E13B0000A93B0000C33B7D
:102390000000AE3B0000803A00000E3B0000C4BAD3
:1023A0000000BF3B0000F2BB0000893B0000A73BE0
:1023B000000028BA00000EBB008002BC000040B93B
:1023C0000000E9BB00009FBB0000E3BB00802DBC08
:1023D00000801DBC00805DBC008048BC000071BC5A
:1023E0000040D5BC008095BC0000B4BB000052BBCF
:1023F000000034BC008000BC008048BC000064BC0D
:10240000000013BC008056BC000056BC000025BC78
:102410000000BFBB000017BC00802FBC000094BBB5
:10242000008039BC0000D0BB0000F0BA00009EBBA9
:1024300000004A3B0000D0B90000383A0000903953
:1024400000007C3B000078BB0000303B0000D83A25
:10245000000004BB0000E03A000040B900001ABBD5
:102460000000523B000004BB0000B4BB0080ACBCC9
:10247000000080BA0000873B00001A3C0000683B67
:102480000000DA3B0000D03900C09ABC00C030BD6B
:102490000040B0BC00008D3B0000BC3A000090BA88
:1024A0000000CCBA0000873B0000C3BB000046BB65
:1024B00000004EBB000070BB0000153C0000A5BB37
:1024C0000000343B008067BC00805ABC000026BC82
:1024D00000803ABC0000BABB000044BC0000FFBB57
:1024E00000009A3B008065BC00008DBB008011BCE1
:1024F00000008039000016BB00004ABB00800F3C82
:102500000000AD3B00009CBA000008BA0000A43AED
:10251000000026BB0000A43A008057BC000019BC94
:102520000000DDBB00001ABC00000BBC000008BBB3
:1025300000001ABC008021BC000008BA004093BC17
:10254000000045BC000040BC0000283A0000D23B1F
:10255000000090BA008080BC008065BC008081BC17
:102560000000EABB008095BC0000E5BB008075BCA4
:1025700000804CBC000028BA00000000008011BCA4
:102580000000D43B0000FF3B0000F0BA000038BB65
:1025900000008038000098BA0080813C0000BD3BFC
:1025A0000080573C0000D2BB00C02BBD0000A7BC80
:1025B000000004BB0000C7BB0000BCBA0000903A9A
:1025C0000000803B0000F039000098BB0080103C08
:1025D000000080380000BD3B0000D0BB0000403B45
:1025E000008029BC00801CBC00C09BBC0000963B46
:1025F0000000D6BB000089BB0000ACBA0000AE3BB7
:102600000000E7BB0000F0BB0080483C00007DBC40
:102610000000803800C0A2BC000036BC000034BC02
:10262000008048BC004091BC004089BC00C09ABCFE
:10263000000015BC0080D0BC00800BBC0080C9BC71
:10264000000043BC000044BC00808EBC008047BC3E
:1026500000006DBC0000D6BB00806ABC00802B3C33
:102660000000A9BB0000123B0000B83B0000A93BE2
:10267000000000000000463B000028BA00008FBBAD
:1026800000005ABB0000D8BA0000EA3B0000F2BBD1
:1026900000001A3C0080303C0080563C000080BBAB
:1026A00000802B3C000000000080693C0000603A84
:1026B000000004BC0000F23B000081BB00009C3B1A
:1026C00000004039000004BB0000263B0000F9BBBD
:1026D0000000CE3B000034BB0000D6BB00007C3BBA
:1026E000008057BC0000E1BB0000F2BB0000D0BB83
:1026F000000045BC000004BB00803EBC00007CBB69
:10270000008047BC00802BBC00809DBC000004BB47
:10271000004089BC000025BC000089BC00801ABCB8
:1027200000C0A1BC008088BC000064BC00C0B0BC7C
:10273000008097BC00005EBC00C090BC008077BCED
:102740000000E8BA0040B1BC0000D43A000023BC4D
:102750000000123B000080BA0000DB3B00805D3CC3
:102760000000163B0000183C0000293C0000FB3B29
:1027700000002CBB0000063C0000173C0040A93CB8
:1027800000C0823C0000963C0000A5BB0000443C19
:10279000000080B90000093C00800CBC00009CBA1D
:1027A0000000D6BB000028BB00801BBC0000443BDF
:1027B000008049BC0000A9BB0000403900C092BCA9
:1027C000008039BC0000D4BA0000D0B900805ABCE7
:1027D0000000F8BA00C092BC0000903A000008BBAC
:1027E0000000E83A0040AABC00000000000022BB44
:1027F00000807BBC0000DFBB0000BDBB000042BC12
:10280000008011BC0000D4BA00008BBB000030BBBC
:10281000000009BC000028BB0080A6BC000004BC6E
:10282000000008BC000041BC000023BC000074BCD8
:10283000008079BC0080ABBC000026BB0000F7BC68
:102840000000DBBB0080F7BC000092BB00408ABCEC
:1028500000005F3C00803ABC0040843C0000CBBBE1
:102860000000F23B00000B3C0000D63B0000923B16
:102870000000B43B0000D8BA00000ABB00004A3B8D
:102880000000CC3B0000DA3B0000983B0000803B9E
:1028900000009FBB0000523B000025BC000026BB8F
:1028A000000032BC0000CEBB0000B63B00009A3BEB
:1028B000000080BB0000B0B9000037BC0080793C4C
:1028C00000008BBB0000A53B000060BC0000043C86
:1028D000000032BC00000ABB0000BA3B000050BA46
:1028E0000000BFBB0000C53B008002BC0000BC3A3A
:1028F00000006DBC00803BBC00C093BC00001E3BD0
:1029000000803EBC00009FBB0000643B004093BCC5
:10291000000089BB0000083B0000F43B008088BC3D
:1029200000804DBC000085BB0000E2BC0080D3BC31
:1029300000009CBC0000D3BC0080A6BC00800FBC83
:10294000000065BC0000D2BB0040843C00008FBC8E
:102950000040D03C0000813B00000EBB00006FBC7B
:102960000000293C0000083C0000D0B900801ABCDF
:10297000000015BC0040A2BC00008F3B000098BBCB
:10298000000037BC0000A43A0000F03A0000E23C2E
:102990000000BC3A0000DB3C0000183A0080473CD5
:1029A000000074BB000068BB00009039000029BC27
:1029B0000000123D000033BC000016BB0000B0391F
:1029C0000000B43A00004EBB000052BC00C0823C84
:1029D000008095BC00009FBB0080873C000037BC96
:1029E0000000ECBB0000923B000037BC00A008BD1B
:1029F0000000D03B00C00EBD0000E83A000046BB1E
:102A00000000E7BB00600CBD0000AC3C000074BBE4
:102A100000804ABC0040FDBC0000F0BB0080D2BC7E
:102A200000C0B0BC0000F8BA00C0C0BC0000AB3BA6
:102A3000000026BB000090B90000D2BC0000473C5B
:102A400000C0B7BC000027BC008076BC0000A3BB60
:102A5000000055BC0000183A000046BB00801ABCBC
:102A60000000AEBB0080113C000070BB0040853C04
:102A70000000BFBB000004BB0000383C0000723CFB
:102A80000000563B000088BA0000C33C0000163C22
:102A90000000C73B0000D03B0000543C0000A93BB5
:102AA00000803E3C000014BC00004F3C0000A43AF3
:102AB000000008BB000024BC008066BC0000D6BB40
:102AC0000000123B00003C3B0000B0BB0040D43C87
:102AD0000040CDBC0000183A0000D2BC000062BB30
:102AE000000072BC008002BC00804EBC00009DBC97
:102AF0000040A8BC0000C93B004094BC0000D2BB11
:102B000000000000008003BC00803ABC0000E1BB74
:102B10000000D43A00001ABB00804C3C00C0A8BCA6
:102B200000803D3C0000D4BB0000F03B000052BCE4
:102B30000000AC3A000052BC0000B43B00C0F4BC42
:102B40000000283B00C0D4BC00009C3A0000803A42
:102B5000000028BB0040A3BC00801D3C00803FBC9F
:102B6000000050BC00001ABC008048BC000098BCAB
:102B700000801CBC008020BC0000D2BC000008BA51
:102B80000000043B000044BB0000ABBC0080883C5C
:102B9000000042BC0080013C004098BC0080F93C31
:102BA0000080A3BC00C0843C0000F8BB00806C3CEB
:102BB0000000C4BA0000C13B00C0833C000044BB1D
:102BC0000000223C00005A3B0000123B008012BC77
:102BD0000000433C00800BBC000034BB000016BB6F
:102BE000008002BC00802C3C000056BB00003CBBB7
:102BF000008047BC00004E3B0000F8BA000098BAC5
:102C0000000024BC000028BA0000963B0000A9BBCD
:102C10000000A53B000040BA000098BA0000A43AAA
:102C2000000004BB0000F0BB0000B83B008075BC96
:102C300000008B3B0000CE3B000080BC0000083B46
:102C4000000052BC00C08ABC008021BC00808FBC48
:102C500000802DBC0040B2BC0000A43A00C0CDBC36
:102C6000002006BD00008EBC0000A4BA0080EABCB3
:102C700000808FBC000000BB00809FBC00C084BCF3
:102C800000801BBC008088BC000038BC000036BC43
:102C9000000052BC00803ABC0000173C0000803BA2
:102CA00000006C3B0000513C000070BA0000883A04
:102CB00000803D3C0000613C008011BC0000603C95
:102CC00000800F3C0000143C000090BB0000C13BA2
:102CD000000032BC000005BC0000873B0000CE3B7A
:102CE00000008BBB00804B3C00008B3B0000283A6F
:102CF00000808D3C0080003C000088BA00000B3C46
:102D00000080583C00008DBB0000833B00C099BC94
:102D10000080003C000024BC000022BB0000D2BBAD
:102D20000040E5BC00802B3C00009CBA00001ABCAF
:102D3000000074BB0000B23B0000AEBC000009BC48
:102D4000000080BA000088BA0000A4BC008010BC5B
:102D50000000D0B90080F1BC0000ACBC0000D03B4A
:102D6000000004BC000088BA00009EBC00807B3CD0
:102D7000000031BC0000083C008095BC00009CBAFB
:102D80000000ADBC00C09FBC00005ABB000016BBD9
:102D90000000963C0040F5BC0000D4BA008067BC3F
:102DA0000000223B008076BC00802C3C00800EBCE2
:102DB00000001E3B00802DBC00008E3C0000CCBB00
:102DC00000001E3B0000A53B0000E9BB00805ABC90
:102DD00000001ABC0000343C0000C5BC0000C4BAAE
:102DE0000000443B0080393C0000043B0000193CDB
:102DF000000030BB000040BA0000F93B0080203CDE
:102E00000000163B0000983C0000A43C000063BC9E
:102E10000000E0BA00008E3C00803EBC00800CBC8C
:102E20000080483C004093BC0000053C0000FD3B96
:102E30000000A3BB00805BBC00008F3B000070BBA8
:102E4000008030BC0000ACBA00807BBC000086BCB7
:102E5000000083BB0080E7BC00800EBC00C092BCB9
:102E60000000D43B000050BC000051BC0000803A80
:102E70000000CBBC0000943B00C0F3BC0000C1BB11
:102E80000000DFBB0000B8BB008049BC000050BCA4
:102E9000006002BD00806BBC000064BB00805ABCB7
:102EA00000C08ABC0000B6BC0000A13B00C002BD4F
:102EB00000009CBB0000C5BB00801C3C0000F8BBB0
:102EC0000080B33C008012BC000028BB0000803CA6
:102ED000000098BB008003BC000018BA0000E93B6A
:102EE00000804EBC0080813C0000003900000EBB19
:102EF00000007C3B0040A83C000008BB00007E3C7A
:102F00000000733C0040943C00802EBC00801E3CBE
:102F1000000028BA0000563C0000813B00802C3C99
:102F20000000DD3B00C093BC00802B3C00409BBCFC
:102F3000000004BC0000B63B00009EBC00807BBCCF
:102F40000000ACBA0000F0BA00006DBC000090397F
:102F5000000015BC00006FBC0000463B004000BDF7
:102F60000000523B004007BD000070BA00C0D7BC53
:102F70000040B6BC0000FBBB0000B5BC008067BCD5
:102F80000040DCBC00C08ABC00C083BC000004BCA4
:102F900000800FBC000090BC00007DBC000074BC31
:102FA0000000BCBC000081BC0040A8BC0000D2BB3B
:102FB00000807BBC000060BC000028BC008067BCB7
:102FC0000000C13B00C091BC00807B3C000064BCA1
:102FD0000000C4BA00C0923C0000183A0000AB3CAC
:102FE000000098BA0040D53C0040A03C0000BA3B2D
:102FF00000C0BD3C000090BB00C08A3C00003C3BD0
:103000000080AB3C0000F0B90000D33C00802D3CB8
:103010000000CC3B00803F3C00008FBB0000623BC7
:1030200000008BBB00806A3C0000883A000080BA38
:103030000000243C0000043B0000ADBB0000BA3B94
:1030400000007C3B0000ABBB000044BC0000AC3A7D
:10305000000098BC0000C33B00009EBC00000ABBFF
:103060000080A5BC000090B9000034BB000096BCF5
:1030700000800DBC00C0C0BC000038BC0080CCBCCF
:103080000000E7BB0080EABC000090BA00C0E3BCCF
:10309000000056BC000008BD00804ABC0080D2BCC5
:1030A000000070BC000081BC00C0AEBC00007DBC54
:1030B00000C08CBC00001EBB0080EEBC0000283BA2
:1030C000000074BC000096BB00804DBC0000D4BA68
:1030D0000000ACBA00009C3A00803D3C0000D43BAC
:1030E0000080793C00801D3C0000CB3C0080CB3C44
:1030F00000C0D43C00A04B3D0000233C0020453DD7
:103100000040D73C00603E3D0080AE3C0060223D68
:103110000080333D0000B43B00000F3D0000EA3B5F
:1031200000800C3C00803DBC0000D43B0000ADBCE6
:10313000006004BD0000B4BC000019BD006039BDD2
:10314000002036BD0040FCBC004059BD00C042BD5F
:1031500000A022BD00E026BD00E018BD0000E0BCDC
:10316000004083BC008056BC008058BC0000DFBB20
:103170000000DB3B0000363C00801F3C00401A3D55
:103180000080973C0000033D0080153D00802F3DEE
:1031900000202A3D00C0773D00A0783D0080AC3C77
:1031A0000000CB3C0040DE3C0080AC3C00001ABB81
:1031B00000C0B8BC00800ABD00E041BD00C028BD11
:1031C00000C038BD002090BD00908FBD008061BD63
:1031D00000A023BD00A05ABD000055BD0040B1BCF9
:1031E00000802BBC008021BC000056BB0000F8BB57
:1031F000008069BC000096BB0000163B0000FFBCCD
:103200000000C5BC000080BC004089BC0040C1BCBF
:1032100000803EBC0000D0390000473C0080033DE8
:1032200000A0083D0060583D0060833D00A0BF3D08
:103230000090A53D0010CF3D00E0D33D0050A03DE3
:1032400000407B3D0000083D00A0353D00804D3C26
:103250000000F0BB004037BD002075BD002076BDEA
:103260000020ACBD00709ABD0080BFBD0080A6BD2F
:1032700000E088BD00E040BD006035BD00A050BD4D
:1032800000C0B1BC0000A9BB0000D039000055BC93
:1032900000803CBC00005EBC008078BC0040F5BCF7
:1032A000006041BD00C06BBD000052BD00803FBD4D
:1032B000006005BD00000BBD000047BC0080C13CA4
:1032C0000080FD3C0040523D0070A23D0030CB3DEF
:1032D00000D0E53D0080F03D00D0F23D00E0823DB1
:1032E0000080333D0080733D00E01B3D0000F8BBD3
:1032F00000A05FBD000037BD002072BD00A09FBDD3
:1033000000609FBD00D0ABBD00B0ADBD009084BDDE
:103310000000E7BC006004BD002017BD00000ABC2F
:103320000080943C0000C43C0000703A0000523C15
:10333000000018BA00009CBB00009EBC00600CBDE1
:10334000002060BD006049BD00C01ABD00C038BD8E
:10335000002009BD000000B90080A63C0000983C98
:103360000020583D0050B33D0090CF3D0050DC3D63
:103370000070043E0030CF3D00600D3D00A0403D98
:103380000060793D0000643B00A066BD00007FBD89
:10339000005086BD00C0CFBD0020CEBD00F0C5BD31
:1033A0000090E3BD00E0CDBD006058BD0000C9BC89
:1033B000004046BD00E00FBD0000C93B0080EA3C74
:1033C0000000863C00801D3C0000F63B0000A9BBCD
:1033D00000801CBC0040C0BC00805ABD00D087BD2E
:1033E000006039BD006005BD00C0E4BC0000D4BB76
:1033F0000080C23C00602F3D0000833D00F0BD3DD9
:103400000050003E00180C3E00E0243E00901F3E9D
:103410000030AB3D0020413D0070A23D0040383DF2
:103420000080DFBC00309BBD00F090BD0070A9BDE6
:1034300000F0EABD0020C7BD00D0F2BD00F0F0BD35
:1034400000F0A5BD0040D7BC0000FFBC006045BD3A
:1034500000009CBB00809F3C00C0DB3C00803F3CE8
:103460000000AB3B00008EBC00000EBD0000C3BCE2
:1034700000C055BD0060A3BD0080A5BD00804ABD51
:10348000000016BD000098BC0000863C0040EE3CE9
:1034900000C05D3D0040CA3D00F8023E00180C3EF1
:1034A0000040213E00901E3E0070A73D0020323DAE
:1034B00000909C3D00C0163D00E026BD0010C6BD3A
:1034C00000F09FBD0000CEBD00F800BE0070EDBD55
:1034D0000010FABD0060EABD00909ABD0000CEBBAE
:1034E000000042BC0080BABC00007E3C00404B3D66
:1034F0000060443D0080A33C00C0B93C000040B9DE
:1035000000C0A8BC0080C3BC00804ABD00509EBD66
:1035100000F0B6BD000062BD000012BD0040A1BCBD
:103520000080383C00E02D3D00208E3D0070D33DF2
:1035300000F8123E00482B3E0078343E00B8213E91
:1035400000F0A93D00C0613D0020793D00408C3C69
:10355000008059BD0080F0BD00F0DABD00B800BEAB
:1035600000800FBE00B00BBE005010BE00B0F0BD1A
:1035700000609BBD00802BBC000080B80000BDBB7C
:1035800000C0C73C00C0773D00E0693D0020023D1F
:103590000080D93C0000283B00A01EBD00803CBD3F
:1035A00000E079BD0050A9BD00C0D7BD004092BD6C
:1035B00000C025BD0080B2BC0000EA3B00202F3DCA
:1035C00000C09B3D00B0E13D00481D3E0028383E54
:1035D00000283C3E00D81C3E00D0A13D00A08A3D02
:1035E00000807A3D0000E73B00E084BD0040F5BD6F
:1035F00000C0DDBD00D00BBE00A806BE00700CBE32
:1036000000E007BE0000DBBD00205FBD0000E03A27
:103610000000893B0000633C00E0483D0030AB3DCA
:1036200000C0813D00001E3D0060113D0080473C10
:103630000000F6BC002062BD000090BD00D0B0BD0F
:103640000010D5BD00709EBD004037BD000096BC87
:103650000080123C00E0143D00B09E3D00E0DC3DE7
:103660000068183E00D82E3E00B03C3E0070013E7F
:1036700000E0573D00208D3D00806B3D000028BCE0
:103680000010C8BD0080FBBD0010E4BD005014BE9A
:1036900000680BBE00500FBE000009BE00B0D4BDD4
:1036A00000600DBD0080473C000030BB0080A53CA1
:1036B0000040683D00508D3D0040593D00600C3D8C
:1036C00000C0A73C0080A6BC00402DBD00806FBD9F
:1036D00000A0A6BD0060D4BD0030CFBD004094BDA9
:1036E00000003FBD00808DBC0080EF3C00E0713DDC
:1036F0000030BE3D0080003E00C8323E00F8483E2B
:1037000000C0483E00C81F3E0000803D00C07F3D15
:103710000040743D0000403900F0BCBD007809BE97
:1037200000C0E6BD00A810BE004010BE00A00ABE4A
:1037300000B009BE00F0BCBD008007BD0020083D00
:103740000080763C00C0DC3C00A0793D00A0CC3D70
:1037500000A0883D00806A3C0080B53C0000BFBBF3
:10376000002042BD0000ABBD0030C2BD0020F7BD4F
:103770000060FFBD0020B2BD000077BD00E02DBDA0
:103780000000523B00C0613D0050B33D0060DB3D96
:1037900000281C3E00C8423E00A84D3E00A82F3E17
:1037A00000209F3D0000303D00A05A3D00C0833CFA
:1037B00000D082BD00600FBE00B008BE00080CBE85
:1037C00000E80CBE00B803BE007807BE00A0C8BD6C
:1037D00000E053BD00C0FC3C0000253D00201B3D27
:1037E0000060623D0000AE3D0070A73D0060413DBD
:1037F0000040CF3C008097BC006075BD00D09ABDF2
:1038000000F0A9BD0010E6BD00E006BE00F0DDBD81
:1038100000E07CBD0040DFBC0000BF3B00603D3DE0
:103820000040A53D0070FA3D0030263E00C0493EF4
:1038300000084B3E00382D3E00A0973D00204D3D36
:103840000020763D0000303B00F09FBD00B019BE67
:1038500000F006BE002016BE00A813BE00C00CBEBD
:10386000003008BE0080CEBD00E036BD00C0FA3C8E
:1038700000600C3D0040223D00A07C3D0020CE3D7C
:1038800000C0AA3D0040303D0080073D00008DBBD8
:10389000002058BD00A09DBD0030B3BD00B0EBBD01
:1038A00000E008BE00D0DABD005082BD002020BD7F
:1038B0000000F8BA0020503D0050A63D00B0DF3DAA
:1038C00000701D3E0038483E00984E3E0048353E90
:1038D00000A0E03D00601F3D00E01F3D0000973C60
:1038E00000403FBD00380FBE00D024BE00F80BBE24
:1038F00000381ABE005014BE00C00EBE0090E1BDDC
:1039000000808CBD0000813B00602E3D0060093DC1
:103910000080423D0050AB3D00F0C33D0040433DC0
:103920000080B53C00800F3C00A00FBD00309BBD67
:103930000050B8BD0040D0BD005001BE0020FFBD0A
:1039400000F0A1BD004029BD00800FBC00400B3D30
:1039500000709A3D00E0D73D00E0083E00F0383EA0
:103960000068553E0078413E00C01B3E00206B3D84
:103970000060103D00200C3D0000B5BC00B0DCBD77
:1039800000F82FBE004014BE00F017BE008012BE2B
:10399000005011BE00E0FCBD00D0ABBD0000B5BCC6
:1039A00000802C3D00E0663D0080473D0080943D56
:1039B0000000D23D00F0A53D00E0133D0080383C02
:1039C0000040B9BC00D089BD00E0B1BD0010C6BD4B
:1039D0000020F4BD00480CBE00F0D0BD00E048BDA2
:1039E00000408ABC00008D3C0020813D0060C63D47
:1039F0000000053E00A02C3E00E84B3E0048473E3C
:103A000000E0353E0060CA3D00C0EA3C0040AA3CF0
:103A100000009ABB000098BD00181FBE00582BBEC6
:103A200000B815BE00A824BE006014BE006000BE31
:103A30000040BBBD00C03EBD00008E3C0050863D36
:103A40000020673D0000903D00A0BD3D00A0E83D86
:103A50000000703D0000C93B00001ABB0000E0BC44
:103A6000006098BD0010D5BD0060E4BD0030F6BD1B
:103A700000C802BE0030A8BD00801EBD0000F9BB1A
:103A80000080FE3C0090A93D00D0E93D00A8053E25
:103A90000088303E00A04B3E00E0483E00F82D3E3E
:103AA00000C0BB3D00008F3C0000C53B008038BC1F
:103AB000006099BD00901DBE00802BBE006014BE4A
:103AC00000D01ABE00080CBE0070E7BD00D0A7BD34
:103AD000008033BD0040933C00B08B3D00C0703D82
:103AE00000606E3D0060A53D0090C23D00202B3D72
:103AF000000052BB008049BC00003BBD0020BBBDA4
:103B00000080DBBD00D0E5BD00A803BE00D0FDBD38
:103B100000C08CBD00C0EBBC000038BB0080073D7E
:103B20000010A63D00A0E03D0050023E00802B3E6C
:103B300000503E3E0078383E00D0183E00206F3DD9
:103B40000000CCBB00002CBB0080F1BC00D0BFBD8E
:103B5000007829BE002022BE005815BE007814BE91
:103B60000070E9BD00B0C1BD007082BD0000FEBCA8
:103B700000C0523D00B0AB3D0000903D00C0923D02
:103B80000080DB3D0030D53D00800F3D0000D4BA01
:103B9000008012BC00804EBD00B0C5BD0030DEBD4F
:103BA0000050E2BD0090FEBD00E0E4BD00C06CBD71
:103BB0000080DBBC00001E3B0060323D0060C33D66
:103BC0000030E63D00E8013E0010243E00F0323EA9
:103BD00000C8333E00601C3E00608A3D0040DCBCF3
:103BE00000C0DDBC0080E9BC00E0AABD007831BEA9
:103BF00000A835BE00481BBE00381ABE00B0F6BD96
:103C000000F0BFBD006098BD002050BD0080E93CC1
:103C100000D0AB3D0000983D0050803D00D0A73D56
:103C20000010C23D00804E3D00804CBC0080BBBCFB
:103C3000004047BD00E0BDBD0090E1BD00F0DDBD2E
:103C400000B0DCBD0000E5BD009084BD00806CBC10
:103C50000000403C0000263D00A0BB3D0080023E2D
:103C600000900B3E0058263E0010413E0088433E27
:103C70000000313E0060F23D00800B3C00C0AEBC55
:103C8000000081BC004064BD008003BE008837BED8
:103C9000004015BE00B812BE00C0E8BD0030AFBD88
:103CA000006087BD00803EBD0000053C0020B03DA7
:103CB0000030C43D00708D3D0060923D0010BE3D5F
:103CC00000D0873D0000983B00C0D4BC00C04EBD72
:103CD00000F0BFBD0090EFBD0060EEBD0070F6BD0E
:103CE000005806BE00E0D3BD008052BD00C0A1BC9C
:103CF0000000EC3B00A0503D0050B83D0020CC3D02
:103D000000A0FE3D00A01B3E0088233E0058163E4A
:103D100000D80D3E00C0B03D00C0DDBC00802FBD0E
:103D200000C0F5BC00B085BD001012BE00E023BE8F
:103D300000A0F9BD000009BE0010C6BD00E05EBDD8
:103D4000008024BD00C0EDBC0000D93C0060D23D25
:103D50000030C23D00608E3D00709C3D0050C73D6C
:103D60000000713D000090390080AEBC00E054BD01
:103D700000C0C8BD0040E6BD0060D4BD0020DBBD72
:103D80000030E9BD00D098BD00C0E4BC000018BC04
:103D90000000723C0090803D00E0BD3D0040CE3D03
:103DA00000B8003E0000183E00F81C3E00500E3ED9
:103DB00000A0103E0010A83D00E01BBD00C047BDA4
:103DC00000C0CEBC008064BD00D00DBE00D821BEB6
:103DD00000B0F2BD008002BE0000BABD002039BDB7
:103DE00000E018BD00A013BD00C0843C0060D23DBF
:103DF00000D0BE3D00806B3D00E06D3D00B0A03DB9
:103E000000202F3D00005FBC0080E0BC008085BD2D
:103E10000010DEBD0060E6BD0020CCBD0060DFBD4F
:103E200000E0FABD0080A6BD00E01BBD0000B4BCF0
:103E30000000183A0020423D0050A23D00C0AA3DBB
:103E40000000DB3D0070043E0078073E00C0083EE5
:103E500000081A3E00D0093E0000853B00007BBDF3
:103E6000000034BB000041BC00609BBD00E80FBEF9
:103E70000090D8BD0020C3BD0010C2BD00E018BD39
:103E80000000F0BC00C007BD00C0A1BC00309C3DDC
:103E90000000D83D0040773D00805A3D00B08D3D88
:103EA00000D0853D0040893C0000643B00C0B9BCA7
:103EB0000010C6BD0010E8BD0040ACBD00C0B5BDDF
:103EC0000010FCBD0070F6BD00308ABD00805CBDF6
:103ED000004016BD0000EEBB00C0B13C00A02A3D72
:103EE0000000853D00E0CC3D00D0E13D0090E53D87
:103EF0000010F33D0068163E0010093E0040B83C3B
:103F0000004024BD0000F9BB00005FBC004051BD73
:103F10000040E1BD00C0CEBD0030DEBD0090C5BD9B
:103F2000008024BD00C0EDBC006010BD0000F9BCE5
:103F30000000403D0040B83D0020923D00A06E3D95
:103F40000020753D0000813D00E00B3D00C0CF3CEE
:103F500000804ABC004094BD00F0D0BD00D0AFBD91
:103F60000090A4BD0070DEBD0020F0BD0070B8BDA3
:103F700000A088BD008034BD000016BC00C0933C8A
:103F800000601C3D00E0783D0050CF3D00B0F63DA4
:103F90000090FC3D0050123E0018293E0068233E70
:103FA0000020243D0040A3BC0000853B000009BC6C
:103FB000002045BD00C0E0BD00E0E0BD007806BEC9
:103FC00000E0FCBD000087BD00804DBD00804BBD02
:103FD00000803EBD0040F43C00609D3D00D08B3D24
:103FE0000070883D00408C3D00608A3D00000F3D20
:103FF0000000A73C0000803800808CBD0070E7BD49
:104000000060CEBD0090CBBD0060F7BD00100ABEC1
:104010000030C9BD00B09EBD00405EBD00807BBCCD
:104020000000463C00001A3D0070863D00D0F23D85
:104030000068083E0068083E0090113E00082A3ED5
:1040400000E0363E0040FB3D0000383A0040B2BC84
:104050000000A5BB00809FBC007095BD0020F9BD8D
:10406000000801BE00E00CBE00C0ACBD002015BDC4
:1040700000A01CBD00C021BD00009CBB00009C3DF9
:1040800000D0CD3D00B09E3D00008B3D00A06E3DB8
:1040900000405D3D0080D23C0080473C00404FBD69
:1040A0000090E1BD0090FEBD00E0F5BD0050EFBD09
:1040B00000180DBE00A0FBBD00A0CEBD00409FBDFE
:1040C000008029BD00009CBB0000B33C0020353DB2
:1040D0000040A33D0010DE3D00A0EE3D00D0FF3DBE
:1040E00000480D3E00D01A3E00A01B3E00A0AC3D93
:1040F0000080A3BC002017BD0000E3BC000028BD69
:104100000010C2BD0070FEBD0000FBBD00D00ABEA5
:104110000050ABBD00A00CBD000025BC008074BCED
:1041200000C08B3C0020983D00B0C13D0030B53D43
:104130000050A63D00C0923D0020333D0000703C81
:104140000000463C000004BD0000C7BD0050F4BDA7
:104150000020E3BD00B0CBBD0060F5BD0030DEBD8A
:1041600000A0A6BD00E065BD00C0B1BC0080763CEB
:104170000020143D00002C3D00F0963D0000E53D80
:104180000000DB3D0030D53D00A0FB3D00F80E3EB9
:1041900000880A3E0040D43D0000323C00003CBD97
:1041A0000040FBBC00C012BD00A085BD0080F0BD7A
:1041B00000D0E5BD0030E4BD0040D7BD00005DBDCE
:1041C0000040B8BC000016BC008038BC0080023D36
:1041D00000608E3D00D08B3D00108C3D0070893D0D
:1041E00000C0343D0000C53B0000F0B90000C4BA77
:1041F000005093BD0060F2BD0010F5BD0000E9BDA8
:1042000000D0E7BD00B0D8BD00C0ACBD0090A7BDD8
:1042100000606ABD0000F0BA00C0CD3C00600D3DFA
:1042200000801D3D0080A13D0060D53D00E0D93DEE
:104230000010043E0000043E00800B3E00B00D3E26
:104240000050F83D0000353C00E008BD008081BC16
:104250000000BABC006089BD0050E0BD0050BCBD8C
:1042600000B0F6BD00A0CABD00803EBD008066BCA7
:1042700000408CBC0040A3BC0020243D0020963DA3
:104280000030863D00C09B3D00009A3D0080213DEE
:104290000000F8BA00000000000000B9006096BD00
:1042A00000F0E9BD0060F3BD0010DABD0010D9BD1B
:1042B0000010D1BD00E0A0BD00409BBD00804BBD03
:1042C000000096BB0080953C0080EE3C00601B3DEA
:1042D00000409D3D00F0C13D0040CC3D00B0E93DB7
:1042E0000090003E0070F63D0020F63D00900C3E30
:1042F0000080643D00E03DBD008029BD00E010BDB0
:10430000002063BD00D0CDBD0070C2BD0000C3BDA4
:1043100000E803BE001093BD00C083BC0080123CC7
:1043200000806CBC0000523C00408C3D00908B3DF6
:104330000000943D00A0A43D0000853D0000CE3B60
:1043400000805CBC0000633C00800EBD0060D5BDF9
:1043500000C0E8BD0080DFBD0060DDBD0050E9BDEC
:104360000030A2BD002085BD00C090BD0040D7BC7C
:104370000000713C00C0063D00C0AE3C0080433DE3
:104380000000A53D0010B33D0080B23D00C0BF3D20
:104390000020D43D0090CB3D00D0DC3D0010EF3D2F
:1043A0000000C93C00207ABD00A039BD006001BDFD
:1043B000006050BD0040C5BD0060A8BD0070B8BD24
:1043C0000050F8BD00807FBD004099BC0000A43AB9
:1043D00000806ABC0000983C0040783D0060443D8D
:1043E0000000713D00F09E3D00608A3D00C0903CA1
:1043F000000090390000653C0040E6BC00C0B5BD3F
:104400000080BFBD0000B8BD0070D6BD0080E4BD17
:104410000070A0BD00F083BD004085BD00C00BBD95
:1044200000008F3B00C0823C00804D3C00C0293D15
:1044300000007B3D0070843D00D0A33D0070BA3D7C
:104440000090B83D0090AD3D0010CB3D00D0FD3D4B
:104450000060DB3D0000263C002044BD000025BD7F
:1044600000A058BD009089BD00C0ACBD0080B5BDA6
:1044700000F0F8BD00E801BE006087BD0080E0BC30
:10448000000046BC000006BC0000C33C00803E3D6E
:1044900000804D3D0020983D00C0B33D00F0873DB9
:1044A0000080E73C0080A63C0000223C00C01ABD12
:1044B0000060A7BD00D0BABD00C0D7BD00E0FEBD02
:1044C0000060E6BD0020B4BD007091BD00406DBD30
:1044D00000009FBC00009F3B00409A3C00C01A3D7A
:1044E00000D0823D0030913D0000893D00F0B63D96
:1044F00000C0CA3D0050BC3D0050A43D0060A73D37
:1045000000A0B23D0020B83D00A0223D000043BD08
:1045100000E086BD003080BD00C043BD008070BD9E
:10452000005082BD004090BD0050D3BD00C086BD8C
:1045300000008EBC00C0A03C0040A33C0040C13C39
:104540000080333D0060493D00406C3D0050993D86
:1045500000E0913D0000123D0000BFBB000088BCA0
:104560000080F8BC00A085BD0050A6BD0020CCBDD9
:1045700000F0D0BD0070E3BD0040B2BD00005ABDE8
:10458000002041BD0000F6BC00007CBC0000E73B01
:104590000000603C0080C23C00E0043D00C0C73C1D
:1045A0000080DF3C00A0083D00401A3D0000043DB3
:1045B00000400B3D0080463D00E0793D0020A93DD4
:1045C0000040A53D0000443C0080F1BC00409BBC85
:1045D00000006DBC000060BC002010BD00601CBD70
:1045E00000A095BD00B0ABBD00E053BD00408BBC4A
:1045F0000000EA3B00008B3B00C0CC3C0020263D85
:1046000000004E3D0030993D0010B73D0080A13DB7
:104610000080333D0040C03C00006E3C000095BC73
:1046200000C049BD00109EBD0040BBBD00C0D7BD4D
:104630000000F0BD0070CFBD0080B9BD00A099BDE5
:1046400000A063BD004028BD0080E7BC0040A0BCC6
:104650000000E53B0000973C00C0B03C0020063D58
:1046600000E0443D00C06C3D0060543D0020873DAB
:104670000060923D00609F3D0090C93D00A0D53D87
:1046800000202F3D00C0D7BC0040EDBC006002BD43
:10469000006018BD006054BD00C056BD00F092BD62
:1046A0000020BABD00E04CBD000046BB00C0D63CB7
:1046B00000C0063D00604C3D00308A3D0020793D41
:1046C00000B0803D0060983D00607C3D0000C93C2A
:1046D0000000ECBB0040C7BC002067BD00E0C6BDC9
:1046E00000B0DABD0020FBBD00E803BE00A806BE96
:1046F0000030DEBD00F09CBD006076BD0040D4BC43
:1047000000008FBB0000713C0000AC3C00A00C3DE1
:104710000080243D0040E63C0080C33C00C0A73C34
:104720000040E33C00A0103D00A0133D00C02C3D24
:1047300000A0483D00F0853D0060BF3D0030FE3DDB
:104740000050C43D0000DB3C0000443C0080563C6F
:104750000080483C0000D0B900801CBC008006BD31
:104760000020C3BD0010D3BD000094BD00E02DBDEE
:104770000000E8BC00C090BC0000F0BA0000D6BB4E
:10478000000028BB00C00D3D00605B3D0080343D53
:1047900000805A3C0000DF3B00802BBC00A035BDF0
:1047A00000E05ABD006083BD0080B2BD0090E1BD55
:1047B0000080D5BD00A0B2BD0090ADBD00A097BDEA
:1047C00000C034BD00C0AFBC000060BC0000D0B968
:1047D0000040D03C0020173D00C0343D00A06A3DA1
:1047E00000C0883D00E08A3D0040923D00F09F3DC2
:1047F00000A0AC3D00D0A13D0040A53D0000AB3D78
:104800000010BB3D00E0A03D0000F93B004021BD91
:1048100000C068BD007089BD00408BBD005091BDD7
:1048200000F087BD00B0B6BD00B0C5BD00A07CBD26
:1048300000006EBC00C0ED3C0040473D0030933DA1
:104840000000983D00C0683D0000783D00C0903DEC
:1048500000206B3D00C0913C008086BC00E018BD8C
:1048600000B0A2BD0020D8BD00A0D5BD0020CCBDA9
:1048700000B0D6BD0080D3BD00B09ABD00A05BBD26
:104880000000D8BC0080583C00E02E3D00804A3D2E
:1048900000603A3D00404B3D0000353D0000003DCA
:1048A0000080A53C0000813B004094BC004024BD3A
:1048B000002023BD0080C1BC000054BC0000223C8D
:1048C00000C0E53C0000383D0070893D0050CB3D04
:1048D0000080B93D00402D3D00600D3D0080CB3C87
:1048E00000806C3C0000883A0000083B0000CEBB12
:1048F000006072BD003095BD00E07DBD00A026BD0A
:104900000080B4BC0000F03900809F3C0000E53B13
:104910000000703B0000F93C00E0543D00A0573D12
:1049200000201B3D0080E03C0000803900A009BD54
:1049300000A023BD00C046BD005080BD0070A6BDD4
:104940000090A2BD00B093BD006090BD00605EBD50
:10495000006011BD004084BC000024BC0000E5BB29
:104960000000D8BA0000A9BB000038BA000007BC9C
:1049700000005FBC00C0CFBC00C0EDBC0080B5BC77
:104980000000C7BB0080673C0000F13C0080523D46
:1049900000008D3D0090B13D00D0DF3D00C00B3EDA
:1049A0000090D43D00A0633D0080EE3C000056BB6B
:1049B0000040A1BC0040E3BC00009EBC00803FBDA5
:1049C0000040CEBD0000E1BD0030B3BD00A06ABD17
:1049D00000C0DBBC0000F43B0040DF3C0000863C34
:1049E00000009C3C0000343D00C0673D0020533D6A
:1049F00000E0293D0000133D00000039002039BDD2
:104A0000008065BD002075BD00908DBD00D0B0BD9B
:104A100000309EBD00009CBD0090A2BD00406CBD5A
:104A20000000E3BC00009CBB0000A7BB00009CBAD8
:104A30000000AD3B00003C3B0000193C0080973C6F
:104A40000000903C0000233C00002C3B0000143C84
:104A50000080903C0040D43C00A0093D00C03F3D98
:104A60000030823D0090913D0050A43D0050BA3D81
:104A700000B0C33D00E0503D0000383C0000DDBB0D
:104A8000000008BD00C03EBD00E057BD002015BDC0
:104A9000002060BD0070A9BD00709CBD000078BD05
:104AA000004004BD0000CEBB0040D73C00E02D3DDF
:104AB0000080D13C0080A33C0080E83C0060053DC4
:104AC0000040C73C0080813C00803C3C00C089BC69
:104AD000006036BD008061BD00207DBD000094BD3A
:104AE0000050A0BD00D089BD002072BD003080BD47
:104AF00000A053BD00A01FBD0080C3BC00804CBC03
:104B00000000383B0000FB3B0000CCBB0000E7BBD3
:104B10000000D4BA0000783B0000E0BA0000C7BB38
:104B20000000C5BB0000DFBB0080213C0060093DE8
:104B300000E04C3D0000783D0020983D0020BA3D4B
:104B40000050CB3D0050E53D0010F73D0050A43D26
:104B50000020173D0000413C000089BC00400EBD14
:104B6000008024BD0040F3BC008037BD001093BD21
:104B700000509EBD001080BD00A023BD00006FBC92
:104B800000C0843C0040EE3C00C0893C0000333C47
:104B90000000273C00802D3C000050BA00009FBB65
:104BA00000800CBC002001BD00E062BD00E090BDB3
:104BB00000C0A2BD0080B4BD0060A3BD004061BDC7
:104BC000004033BD00402DBD00C003BD00C081BC0E
:104BD000000012BB0000813C00C0023D00400A3DC5
:104BE0000040CD3C00807B3C0000CC3B000080BA04
:104BF0000000F6BB00805ABC00C082BC0040A9BCCB
:104C0000000036BC0000853B00C0D73C00A02D3D15
:104C10000040773D0080A13D0080B43D0060C83D6C
:104C20000030E63D00A0FB3D00B0B23D0060113D0C
:104C3000000008BA00C019BD00C08CBD0000A9BDAD
:104C400000409DBD0060A8BD0090DEBD0050E2BDEB
:104C500000D0BCBD007084BD0080D0BC0080B53CDD
:104C600000A06A3D00E06A3D00A05E3D00E0713DAD
:104C70000000613D0020143D0000E13C0040A03CEC
:104C80000000D4BB000030BD006083BD0070B6BD25
:104C90000060CEBD0050BEBD00E088BD00803FBDBD
:104CA00000A005BD00803EBC0000463B00C08B3C20
:104CB0000040DE3C00004F3D00206E3D00604C3D5A
:104CC0000000E83C00801D3C00805ABC0000E9BCAC
:104CD00000E01BBD004043BD00E05FBD000064BDBF
:104CE000006039BD0080DBBC00000A3B0040E43CB2
:104CF00000205B3D00609B3D0080C43D0080E13DA5
:104D000000480A3E0030143E0050E43D0020723D51
:104D10000080AE3C00C082BC00403FBD006079BD59
:104D200000E088BD00D0A9BD0000E1BD0090E1BD5C
:104D300000C0CFBD0070B1BD004069BD000041BCE6
:104D40000040D53C00000B3D0080213D0060443D0B
:104D50000020533D0020453D00A0533D0020423D32
:104D600000C0B63C00001ABC0080F0BC002079BD39
:104D700000B0B8BD0010C0BD0060A7BD00B089BDC7
:104D8000006071BD00A03CBD004031BD00A02DBD44
:104D900000C0C0BC00005A3B0000A53C0000BA3C6B
:104DA00000C0D63C0080F03C0040B93C00C0A03CB4
:104DB0000000A43C0040A93C0000AB3C0080873CC4
:104DC00000005F3C0000063C00804D3C0040EC3C95
:104DD00000C01D3D00C03B3D0020453D00C0603D82
:104DE00000B0893D0060A53D00F0AD3D00404B3D69
:104DF0000080203C00007FBC00401ABD00A04FBDD9
:104E0000002051BD00203ABD00E069BD008097BD83
:104E100000C09DBD00409DBD006094BD004069BDC7
:104E200000C0D7BC0000C4BA0000943B0000073C9F
:104E30000000CE3B0000E83A0000803800804A3C89
:104E40000080D13C00C0913C0000F8BA008079BCE1
:104E50000040D7BC000008BD002001BD0040DCBC04
:104E600000C09ABC000062BC000083BB00000000D0
:104E7000000007BC00004FBC0000D6BB0000F83AA1
:104E80000080103C0000F03B0000563B0000BABB25
:104E900000008DBC00C0A8BC00C0A8BC004084BC01
:104EA00000804EBC0000A7BB0000D83A0000273CA1
:104EB00000808D3C0040F53C0060313D0080513D5C
:104EC00000805C3D00C0593D00E0693D00E0883D48
:104ED0000060713D0080023D0000803900C0D4BCFC
:104EE00000A03CBD006050BD000031BD00401EBDB3
:104EF00000803CBD00605EBD004056BD00E04BBD83
:104F000000000ABD00801BBC00009F3C0000133D58
:104F100000603A3D00E0393D00C01A3D0000E03C31
:104F20000080E13C0040D53C00C0B03C0000FF3BAD
:104F300000802EBC00C007BD000068BD00407EBDE3
:104F400000D085BD00E062BD002033BD00200CBD57
:104F500000C0F3BC0080FDBC0080D1BC00C0B0BC70
:104F600000007EBC0000ADBB0000E73B0000233C1E
:104F70000000ACBA000054BC008096BC0040BFBC2E
:104F8000000081BC00008DBB0000B43B0000AE3BC4
:104F90000000E73B00C09F3C0020093D00203E3D53
:104FA00000E0663D00007B3D00D0823D00A0853DD5
:104FB0000090983D00F0A13D00B08D3D00002D3DDA
:104FC0000000473C000018BC00C0EBBC008025BDC1
:104FD00000001EBD006001BD008012BD00203DBD6F
:104FE000000046BD006039BD006011BD00008DBCF1
:104FF0000000123B00803F3C0000423C0080573CD8
:105000000000273C0000643B0000ABBB000019BC63
:1050100000800BBC000041BC00C0A2BC00001ABD57
:10502000002058BD00007CBD006071BD00C042BDC5
:1050300000400FBD00C0BDBC008086BC008038BCF5
:105040000000A1BB0000BCBA0000F0390000403BEA
:105050000000983A0000813B000098BB000032BC81
:10506000000097BC0080CBBC0000C9BC0040AFBCB6
:1050700000007FBC0000F4BB0000CE3B0040B63C0B
:1050800000E0183D00404E3D00E0753D0070893D58
:1050900000E0993D00C0A83D00C0AC3D0030A43DFB
:1050A00000409F3D00508A3D00C0203D0000EA3B8B
:1050B0000080A4BC00E026BD00805CBD00A058BDFF
:1050C000008047BD008059BD00B084BD00E088BDB0
:1050D00000008BBD004087BD00004BBD0000DBBC65
:1050E00000800FBC0000CC3A0000423C00C0813C74
:1050F0000000543C0000363C0080763C00805D3C63
:105100000000F03B0000D83A0000F4BB0040CEBCE9
:10511000004021BD004031BD000028BD000019BD88
:1051200000C0DCBC00C0A2BC00C0A2BC0080ABBC04
:1051300000C0B1BC00805CBC00008DBB0000283CFE
:105140000000523C00001A3C0000A43A0000BFBB23
:105150000000E3BB0000DFBB000044BB0000803A5E
:105160000000F03B0000353C00C0A23C0040E53CA4
:105170000040333D00E04B3D00205B3D00C0603D02
:1051800000C05C3D00C0583D0020673D00606B3DA5
:1051900000A04C3D0080EE3C0000F63B008049BC86
:1051A00000C0F5BC00A03ABD00404EBD00202BBDA4
:1051B000004025BD00E01ABD00801EBD00E01BBD03
:1051C00000E01EBD0080E0BC00802ABC0000C53BA2
:1051D00000805C3C0040AA3C0000C23C0000A63CB1
:1051E0000000453C0000A13B0000B83B0000893BAB
:1051F0000000E83A008039BC0080C1BC002010BD2E
:1052000000000BBD000003BD0080F1BC00C0D7BC96
:105210000080DFBC0000D8BC00C0B1BC00808EBCE8
:105220000040B6BC0000D1BC0040D5BC0000A4BC0E
:1052300000C084BC000056BC000052BC00802BBCE7
:105240000000A5BB0000813B00803E3C00C0833CC9
:105250000000CB3C0040163D00A03C3D00E0503D2E
:105260000040523D00E0453D0040283D00801D3D8E
:1052700000A0133D0000FF3C0080F63C00C0E53C70
:105280000040BF3C0000F03B00801DBC00C0D4BC0F
:10529000000019BD00A03ABD00202FBD0040FBBC9E
:1052A0000040C6BC00809DBC00C0AABC00C0B1BC10
:1052B0000080A5BC00005EBC0000403B0080873C35
:1052C00000C0CC3C0040E43C0040BF3C0080683C57
:1052D0000000443B000052BB0000B4BB0000D2BB46
:1052E000000034BC0040B7BC0000F9BC00A010BDF9
:1052F00000A014BD004007BD00C0F2BC00C0A1BCAE
:105300000000ECBB0000E03A00001E3B000044BB84
:10531000000060BA00001A3B0000CC3B0000BD3B1F
:1053200000001ABB008011BC00C092BC0000AEBCE3
:1053300000C0E4BC00E00BBD008016BD0080EFBCE7
:10534000008081BC00002CBB00008D3B0080793CBC
:105350000040E33C0020113D0060273D00C0303D8F
:1053600000E0453D00404B3D0040693D0080693D07
:1053700000E04B3D00400B3D0040B13C00009C3B39
:10538000000072BC00C0D4BC00400FBD004015BD81
:10539000008016BD0080FFBC0080F9BC004000BD4D
:1053A0000040D0BC008039BC0000283B0080473C56
:1053B0000000C33C0000033D0020093D00C0F23C5A
:1053C0000000AD3C00800D3C00007CBB000056BCE2
:1053D0000040A1BC0040DEBC00400BBD00801DBDF4
:1053E00000A036BD000029BD008016BD00E005BD4F
:1053F0000040E3BC000096BC000027BC0000B8BB26
:10540000000090BB0000A5BB000068BB000087BB8C
:10541000000083BB0000ADBB000050BC000097BC87
:1054200000808EBC000043BC0000F2BB000052BBF9
:105430000000703A0080213C0080AE3C00800B3DB3
:1054400000202B3D0060353D00A03A3D0040463D28
:105450000080523D00004E3D00C0423D00403C3DBA
:1054600000C0303D0040EC3C0000383C000027BC50
:10547000008011BD008051BD000064BD006062BDB0
:1054800000E04FBD008033BD0040F4BC00C0D7BC7D
:105490000040D4BC00809CBC00802CBC00005A3B67
:1054A0000080753C00A0003D00200C3D0080EE3CDB
:1054B0000000A73C00806B3C0000263C00000A3B3B
:1054C00000009EBB00803ABC00C0A8BC0000C5BC68
:1054D00000C0D5BC00C0DDBC0080CABC0000A5BCBB
:1054E00000005EBC000035BC000007BC008003BCAF
:1054F000000024BC000045BC00007EBC00C089BC8C
:105500000040B2BC0000BDBC0080BBBC00C0CEBC33
:105510000000CCBC0040DCBC0080C4BC0040B8BC77
:10552000008079BC00801ABC00002C3B0080393C14
:105530000080A53C00C0C73C0040D63C0080FF3C3A
:105540000000F83C00000E3D00A01F3D0080463DDD
:1055500000E04F3D0020453D00A01F3D0080DA3CAB
:105560000000363C00000EBB000038BC008068BC68
:10557000008029BC00800BBC00803CBC0000A4BCA7
:105580000000E3BC0000B3BC00804DBC0000F8BAD2
:1055900000802A3C00C09F3C0000E23C00C0E63C8A
:1055A0000080E73C0000A53C00802F3C0000943BBD
:1055B00000000ABC00C0AEBC00E01BBD000053BD33
:1055C000002072BD00A085BD00D085BD001088BD43
:1055D000008069BD00C03FBD002017BD0040DDBC9C
:1055E00000C09BBC000008BC0000083A0000E93B7A
:1055F0000000333C00800F3C0000F43B0000AB3B5C
:1056000000009C3A000030BB00007CBB0000E8BA00
:105610000000383B0000FF3B0000643C0000A43C5D
:105620000000D33C0000083D00E01B3D00202A3D67
:1056300000403F3D00204D3D0060533D00A05E3DD9
:1056400000606D3D00604C3D0000043D0000373CB3
:10565000008030BC00A004BD00803FBD00405DBDA7
:10566000008061BD00805DBD004059BD006040BD4F
:10567000004030BD004013BD0040CFBC0000BFBBA8
:1056800000805A3C0080DA3C0040063D00C0F93CF6
:1056900000C0BF3C00C0833C0080033C000000B958
:1056A00000801FBC00C083BC00C0EABC00A022BDBB
:1056B000008033BD00802DBD000022BD00000BBD69
:1056C00000C0D6BC000081BC00008DBB0000643B64
:1056D0000000193C00803D3C0080483C00804D3C6F
:1056E0000080393C0000AD3B000012BB0000EABB6B
:1056F00000802BBC00807BBC00C0A0BC0000B6BCFE
:10570000004083BC008001BC0000083B0000E13B7E
:105710000080123C00805C3C0000A63C00C0DB3CEA
:105720000040F43C00200D3D00C0193D0020203D0C
:105730000000193D00E0093D00C0A03C0000D03B46
:10574000008038BC00C0CEBC0040FABC006001BD87
:1057500000C0EBBC0000EFBC00C0EDBC0080E0BCB2
:105760000000D2BC0080ADBC000074BC00009CBA3C
:105770000000423C00C0AE3C0000F13C0000043D93
:1057800000C0FA3C0000D43C00C0AE3C0000413CEC
:10579000000018BA000014BC00004FBC00C0A1BC3F
:1057A0000040EDBC002018BD00402CBD008030BD85
:1057B000000026BD00C002BD00C0BFBC00009CBCF4
:1057C000008069BC000035BC0000AEBB0000283A78
:1057D0000000223B0000A93B0000A73B0000B0B93D
:1057E000000083BB0000E5BB0000D0BB0000B2BBE3
:1057F000000038BB0000F0390000D83A00009A3BA6
:1058000000006F3C0040B13C0000CA3C0040E33C5B
:105810000060023D00200C3D00E0143D00401E3DB4
:1058200000602B3D0020063D00C0B13C0000143C50
:10583000000026BC0000B6BC0000F2BC0040E4BC86
:1058400000C0E6BC0000FFBC00A000BD00C002BD5F
:10585000008012BD0080E9BC00809EBC008002BCBC
:105860000000403B0040913C00C0EC3C0040F43C58
:1058700000C0E33C0000C23C0000703C0080103CD3
:1058800000009C3A000016BC00C0B8BC0000F8BC88
:1058900000C015BD008029BD004029BD00E035BD18
:1058A000008021BD002006BD0080C1BC00807BBC03
:1058B00000001ABC000026BB0000963B0000253CFF
:1058C00000006D3C0080763C00805B3C00802A3C00
:1058D0000000DB3B0000383B000028BA000012BB90
:1058E0000000A3BB000034BB0000F03A00008D3B79
:1058F0000000083C0000293C0000423C00C0823C03
:1059000000C0A13C0000C93C0040FA3C0060113DD1
:105910000080113D00C0063D0040A83C0000A43AB4
:10592000000072BC0080D0BC0000FFBC0040F3BC93
:105930000080DFBC0080DBBC00C0F3BC0080F6BC94
:105940000000D4BC000097BC0000DABB00800F3C14
:1059500000C0CF3C00A0083D0080003D0080FD3C21
:1059600000C0B73C0080293C00002C3B000016BB67
:1059700000800FBC00409BBC002006BD00C025BDC0
:1059800000A044BD006044BD00E026BD00E008BDAD
:105990000040D0BC0040AFBC000046BC000029BCA9
:1059A000008010BC00009ABB000016BB0000A5BB25
:1059B00000801EBC00802FBC008059BC008095BCBC
:1059C0000040A7BC0040A8BC0000A7BC004094BC9D
:1059D000008020BC00009CBA0000C53B00006D3C6C
:1059E00000C0C63C00C0EC3C0080023D00800A3D87
:1059F00000001A3D00002C3D0080303D00E0393DA4
:105A000000A0263D0040FC3C00C0A13C0000D63B6D
:105A10000000DFBB0040B1BC0000EABC00C0F2BC2B
:105A20000040D5BC00C0B0BC00C0AEBC00809FBC74
:105A3000004089BC00800BBC000038BA0000043C68
:105A400000009D3C0040F53C0020053D00C0EA3CC4
:105A500000C09B3C0080303C0000873B000040BA07
:105A6000008002BC00C098BC0040FABC00602BBDA6
:105A700000E041BD00005ABD002051BD002039BDED
:105A800000800FBD00C0CFBC00C081BC0000F9BBCE
:105A9000000098BA0000A43A0000C33B0000FB3BA2
:105AA00000801A3C0080113C0000943B000000BBC9
:105AB00000800BBC008021BC000022BC00800BBC1D
:105AC000000070BB000080B90000B03B0080563C75
:105AD00000C0C53C0000FF3C00E0093D0040133D14
:105AE00000201B3D0060223D00801E3D00800E3DD9
:105AF0000080A33C0000223B00805DBC00C0CFBC06
:105B000000400BBD00C012BD00C0FABC00C0C8BC44
:105B100000C0BDBC0000C3BC00C09FBC008088BCEE
:105B2000000016BC0000813B00C0983C00C0CE3C89
:105B30000000C93C0080AE3C00805C3C0080013C21
:105B40000000743B0000943B000000BB000025BC3B
:105B5000008088BC0000AEBC0080D9BC002005BD20
:105B600000C002BD0080FDBC00C0C7BC00806BBC93
:105B700000009FBB0000D8BA000040BA00008BBBF9
:105B80000000EABB000046BB0000F0390000F0391D
:105B90000000C3BB00804BBC004089BC000098BC27
:105BA00000C09ABC0000A4BC00C099BC00C08ABC64
:105BB000008020BC0000A4BA00007C3B0000313C07
:105BC00000408A3C0040B23C0000BC3C0080CA3C23
:105BD00000C0D63C00C0D63C0000C33C0040913C15
:105BE0000080123C0000283A000038BB000098BB3F
:105BF0000000DDBB000037BC00005EBC008068BC5C
:105C0000000018BC000026BB000040390000383BF3
:105C10000000463B00005A3B0000783B0000443B3C
:105C20000000403B00004ABB000023BC00804ABC8F
:105C300000005FBC008077BC000095BC00C098BC31
:105C4000008086BC00C091BC00007DBC0000ECBBA5
:105C5000000012BB0000F83A0000E33B00803D3C2E
:105C600000803D3C0000443C0000893C0000AB3C0F
:105C70000080BC3C0000A63C00C0833C0080563C39
:105C800000006D3C00008D3C00009C3C0000A43CEA
:105C90000080693C0000BF3B008039BC0080B2BC82
:105CA0000000E2BC0000F1BC0040D5BC00C0C0BC9C
:105CB0000080C3BC0000D8BC0040D6BC0000C3BC00
:105CC0000000C2BC00C08BBC0000C5BB0000853B0F
:105CD00000001A3C0000513C00808F3C0000733CE7
:105CE0000000FD3B0000963B00000000000044BBAC
:105CF0000000CEBB0000AEBB008039BC00C0A1BC20
:105D00000080C2BC0000BDBC000086BC0000FBBB24
:105D10000000563B00802B3C0000443C0080303C9F
:105D20000000323C0000C33B00009A3B00000A3BED
:105D30000000BC3A000022BB000014BC008058BC2C
:105D40000040A1BC00C0C6BC0080D3BC00C0B7BC32
:105D50000040B1BC0040A7BC004082BC00802ABC0F
:105D60000000FBBB0000A3BB000098BA0000083A8B
:105D70000000AC3A0000883A0000463B0000F8BA48
:105D80000000D0BB000026BC00803CBC00007DBCF5
:105D900000C08ABC00807ABC000050BC000022BC5D
:105DA0000000B8BB00007CBB00001ABB0000F8BAC2
:105DB00000006C3B0000D63B0000083C0000263C85
:105DC0000000383C0000E73B00001E3B0000083BA1
:105DD0000000043B0000C4BA000070BA0000AC3AF6
:105DE0000000263B000080B9000090BA000080B897
:105DF000000000390000D0390000703B0000223B59
:105E0000000080B90000003900001A3B0000F03AA1
:105E1000000080390000003B0000C53B0000B83B9B
:105E20000000C93B0080013C0000C33B0000A43AD5
