:020000042000DA
:04035C0000787FBFE7
:10036000002CDBBE0060923D00A0C63D00C0C03D39
:100370000030B93D0010B13D0020AB3D0060A83D0C
:100380000050A43D0010A23D00909E3D00209D3DE8
:1003900000709A3D0090983D00D0943D0090933DB0
:1003A0000040903D00408E3D00708B3D00D0893D67
:1003B0000080873D00B0843D0020833D0040813DAA
:1003C00000607D3D00207A3D00E0753D00A0713D5C
:1003D00000406D3D0080693D0060673D00A05E3DCE
:1003E00000E05A3D00205B3D0020573D0060533D3A
:1003F00000A04F3D00404A3D00E0483D0060443DC4
:1004000000A0403D00603E3D00203A3D00C0383D28
:1004100000A0353D0040333D00A02E3D00A02B3D07
:100420000040283D00C0243D0020233D00E0223D47
:1004300000E01F3D00801A3D0080193D0020173D5F
:100440000000133D00A0103D00800F3D00C00D3D99
:1004500000A0093D0040073D00A0053D0060023DB1
:100460000080003D00C0F93C0000F73C0000F13C7A
:100470000040ED3C00C0EA3C0000E83C00C0E53C28
:100480000000E13C0080D93C0040D53C00C0D53C98
:100490000000D23C0080CC3C0080CA3C0040C53CFF
:1004A0000080BD3C0080BC3C0000B63C0000B63C77
:1004B0000040B03C0040AF3C002050BD00A0CEBD8D
:1004C0000080A8BD00E079BD004028BD0080AEBC22
:1004D000000098BA00007F3C0000083D00C04E3D7F
:1004E00000508D3D00B0AB3D0060C83D00D0E33D05
:1004F0000010FC3D00680A3E00D0163E00B8213EC8
:1005000000F82B3E0038373E0030423E00C84B3EDC
:100510000068533E00D85B3E00C0623E00C8693EA2
:100520000098713E00E8763E00307A3E00D87D3E6D
:1005300000D0803E002C823E00A0833E004C853ED1
:100540000024873E00BC883E00B4893E00FC893E02
:1005500000508A3E00208C3E00EC8D3E00088F3E0D
:100560000058903E00FC913E00B0933E00A0943EA7
:100570000088953E00AC953E0018953E00A8943E3C
:100580000054943E0050933E00DC923E007C913E2D
:1005900000D08F3E00588F3E00AC8E3E003C8D3E1A
:1005A000005C8C3E00288C3E00B88C3E00548D3E92
:1005B00000B88C3E00FC8B3E005C8B3E00488A3EBF
:1005C000009C893E007C893E00BC883E00B4873E8A
:1005D0000064863E0054853E0020843E0074823EC6
:1005E00000A4813E0068813E003C803E00307D3E9C
:1005F00000107B3E00087B3E0030793E00B0773E25
:100600000070763E0070753E0038743E0048723EC1
:100610000068703E00786F3E00A86C3E00C86A3EDD
:100620000050693E0080663E00E0613E00B85D3EDD
:1006300000905A3E00B0563E00B8523E00004F3E79
:1006400000304C3E00184A3E0028493E00F0463E2D
:100650000068433E0078403E00503D3E00C83B3EAF
:1006600000083B3E0080393E0038383E0020353ED1
:1006700000F0313E00202F3E00382B3E0018293E6E
:100680000098273E0010253E0010223E00E81C3E48
:1006900000C0193E00D0153E00D8123E0088123E20
:1006A00000C8103E00C80F3E00C80F3E0078143E40
:1006B0000098183E0030143E00600D3E0058093E80
:1006C0000050053E0028013E00A8013E0030023ED9
:1006D0000030FC3D0050EB3D00B0DC3D0030DC3D27
:1006E00000B0E13D0040E83D00F0E93D00B0E73DED
:1006F0000000E13D0040DD3D00C0E23D0090EB3DEB
:100700000030ED3D0080E23D0010D93D00F0D43DC9
:100710000080D23D00F0D23D00E0D13D0040C83D18
:1007200000C0C03D0080B93D00D0B43D00A0B33D45
:100730000070B53D0020B23D0020AC3D00B0A53DAD
:100740000000A33D0040A73D0020AC3D0090AB3D24
:1007500000F0A73D00A0A43D00E0A03D00F0A13DB9
:1007600000E0A03D00709E3D00209A3D00C0903DFD
:1007700000608A3D0080853D00D0823D0020753DAF
:1007800000C0643D0000523D0020443D0000403D5B
:1007900000404A3D00A04B3D0020493D00C0423D85
:1007A00000E0383D0060393D00E0413D00A0403DA3
:1007B00000403C3D0000373D00603A3D0000433DB5
:1007C0000060413D00603A3D00C0343D00802F3D57
:1007D0000000283D00201F3D00601C3D00801D3DA5
:1007E00000E0173D00C01A3D00E01E3D00C0243D62
:1007F00000A02A3D00A02E3D0080293D00C0243DE0
:100800000040223D00801D3D0080213D00A0273D8D
:100810000020143D00E0103D00400A3D00C0FA3CBD
:100820000080FF3C0080033D00000A3D00C0073D02
:1008300000E0003D0040FB3C00C0FC3C0020013DCE
:1008400000C0FC3C00C0EC3C0040E43C0040DE3C0E
:100850000000E13C0000E93C0080E23C00C0DB3CE1
:100860000040D43C0080C23C0000C53C0000C33CBA
:100870000080B53C0000AC3C00409B3C0080853CC7
:100880000000603C0000453C00800D3C0000DF3B68
:100890000000BF3B0000703B0000563B0000B23B35
:1008A0000000873B0000003B0000B43A0000083B1A
:1008B0000000083B00003C3B0000443B0000E03AE5
:1008C00000003C3B0000403B00009C3B0000C93B5B
:1008D0000000CB3B0000A93B0000DD3B0080023C58
:1008E00000801A3C0000313C00804A3C0000433C40
:1008F0000080393C00802F3C00801B3C0080293C5C
:100900000000233C00801A3C00801E3C00802B3CF1
:100910000000293C0000333C0000263C0080203CC5
:1009200000801A3C0000343C0000473C00005E3C64
:100930000080753C00805C3C0080593C00803F3C5E
:100940000000143C0000F93B0000F03B0000873B36
:100950000000303B0000D039000090B90000D43ACC
:100960000000F039000088BA000018BA000070BA20
:100970000000BCBA00003CBB00005EBB00004ABBEC
:10098000000040BA000080BA0000B4BA000080BA8B
:10099000000080390000BCBA0000F8BA0000A43A98
:1009A0000000B43A0000903A000060BA0000D4BAE7
:1009B0000000F8BA000034BB000030BB000000BBF0
:1009C000000038BB000062BB00008BBB00001ABBFC
:1009D000000000BB00001ABB0000B4BA000050BA0F
:1009E000000008BA000000000000CC3A0000E83A1D
:1009F00000008038000050BA0000B4BA0000A4BA69
:100A0000000060BA000050BA0000D0B90000F03A0F
:100A100000005E3B0000923B0000803B0000A13BD9
:100A20000000BA3B0000D83B0000E73B0000083C58
:100A30000000DD3B0000EE3B0000F23B0080033C89
:100A40000080013C0000EC3B0000703B0000123BCA
:100A50000000743B00009C3B0000B03B00007C3B6E
:100A600000001E3B00004039000018BA000008BA20
:100A70000000ACBA000068BB000078BB000056BBA9
:100A8000000070BB0000BFBB0000D0BB0000D8BBA3
:100A9000008002BC0000E5BB0000F2BB0000FBBB15
:100AA0000000DBBB0000ABBB000068BB0000603A8D
:100AB000000080380000B03900000A3B0000743BA1
:100AC0000000873B0000043B00009C3A0000463BCE
:100AD00000006C3B00008F3B0000BC3B0000D43B9F
:100AE0000000B03B0000003B000004BB000081BBE5
:100AF000000074BB000046BB000052BB0000A3BB5B
:100B0000000078BB00007CBB0000C9BB0000D4BB68
:100B1000000040BB000098BA0000D0B900000039C6
:100B20000000B43A0000043B00002C3B0000303BC6
:100B300000004E3B00008039000028BA000080B859
:100B4000000038BA000080390000A4BA0000C4BA1E
:100B5000000080B80000B0B9000098BA000004BBE3
:100B6000000040BB000096BB000074BB000028BA28
:100B7000000040BA00001ABB00005EBB0000A9BB29
:100B8000000044BB00002CBB00006CBB000092BB0B
:100B9000000094BB000089BB0000B2BB0000C5BBD5
:100BA0000000BDBB0000C1BB00009FBB0000C1BB7B
:100BB0000000ADBB000070BB0000A9BB000081BB02
:100BC0000000D4BA00000ABB000090BA000000B9CF
:100BD000000004BB00004EBB0000ADBB0000D8BB52
:100BE00000008DBB000026BB00001EBB000089BBBF
:100BF0000000ABBB0000A9BB0000A3BB0000B8BB5A
:100C00000000CBBB000056BB00004EBB000080B80C
:100C10000000083B0000643B0000283B0000E03A75
:100C20000000123B00009E3B0000C53B0000AB3BB8
:100C300000000E3B00002CBB000089BB000089BBFC
:100C40000000AEBB0000F4BB00801FBC000042BC33
:100C5000008048BC008039BC008030BC000022BC51
:100C600000802CBC000013BC000005BC008000BC50
:100C70000000D4BB008012BC008002BC0000EABBB4
:100C80000000C1BB0000F8BB0000EABB0000BFBB16
:100C900000009FBB000052BB00005ABB000087BB96
:100CA00000009ABB000044BB000070BA0000B039DD
:100CB00000009CBA000000B90000E83A0000A43A25
:100CC0000000D03900009C3A0000F83A0000E03AF9
:100CD000000000B90000A4BA000028BB0000A1BBBE
:100CE0000000E1BB000008BC000009BC000007BC1C
:100CF0000000EABB000004BC00800DBC0000D6BBB5
:100D00000000A1BB00006CBB0000F8BA0000D8BA1C
:100D1000000090B9000090BA0000ACBA0000083A98
:100D20000000D83A0000443B0000643B0000623BF6
:100D300000000E3B0000083B0000F83A0000CC3AEF
:100D40000000443B0000743B0000283B0000C43A14
:100D50000000703A0000B0390000D4BA000012BBA5
:100D6000000074BB0000E1BB000019BC008001BCA6
:100D70000000F9BB000017BC000038BC00802CBC90
:100D800000801ABC008021BC00801ABC00803EBCE0
:100D9000000028BC0000BDBB000046BB000068BBD3
:100DA000000085BB000028BA000000B9000040B96F
:100DB0000000603A0000A43A00005E3B0000083BDF
:100DC0000000D0B90000703A00000039000018BAE5
:100DD0000000183A00004ABB0000A1BB0000CEBBD7
:100DE000000094BB0000ADBB0000CBBB000078BB93
:100DF00000000EBB0000F0B90000D0B90000503A6E
:100E00000000283B0000813B00007C3B0000523B7F
:100E10000000B03900001E3B0000523B0000343B94
:100E20000000383B00000A3B0000683B0000BC3A71
:100E30000000B4BA000022BB00005ABB000094BB03
:100E40000000BDBB0000FBBB008001BC0000ECBB90
:100E50000000BCBB0000C5BB00008BBB000062BB38
:100E6000000087BB000070BA0000CC3A0000E83AEE
:100E700000002C3B0000463B0000853B0000D03BBF
:100E80000000303B00009C3A0000703A0000183A25
:100E90000000000000009CBA000028BA000052BB0D
:100EA000000068BB0000D0B9000040B90000A4BA3F
:100EB000000022BB00000ABB0000F0BA000038BBF3
:100EC00000003CBB00008BBB0000B0BB0000CEBBF1
:100ED000000068BB0000F0B90000F8BA00003CBB9D
:100EE000000040BB000088BA0000F0B9000080B8E4
:100EF0000000ACBA0000403900008039000060BA40
:100F000000001ABB000038BA000080B8000090BA98
:100F10000000D0B90000183A000060BA00001EBB03
:100F2000000040BB0000ACBA00000000000000B9A7
:100F3000000000BB000040390000883A0000983AE9
:100F40000000263B0000183A00000039000080B97C
:100F50000000A43A0000CC3A00006C3B0000E83AE4
:100F6000000080B9000008BA00000000000040B98D
:100F70000000B0B90000CCBA00004039000040BA0F
:100F80000000ABBB0000A1BB000008BB0000BCBA66
:100F900000000ABB000040B9000038BB0000BCBA2A
:100FA0000000E03A0000683B0000A13B00000E3B5F
:100FB0000000983A0000403B0000303B0000123B2C
:100FC0000000000000004EBB00007CBB0000BCBA6B
:100FD0000000AC3A0000A43A0000C4BA0000D4BA41
:100FE0000000B0B9000050BA0000703A0000163B93
:100FF000000080380000083A0000503A0000C43A6F
:101000000000303B0000B4BA000087BB0000E0BA2B
:10101000000028BA00000EBB000046BB00001ABB4F
:1010200000005ABB0000ABBB00800FBC0000F2BB4D
:101030000000E5BB0000E9BB0000DFBB000005BC11
:10104000008021BC000029BC00800BBC0000BFBB9D
:1010500000009CBB0000C9BB00009CBB00006CBB37
:10106000000008BB000044BB000085BB000044BB7F
:10107000000090BA0000C43A0000163B0000083B94
:101080000000D43A0000E03A0000463B0000403B3C
:101090000000E03A000000B90000B0390000BC3A9E
:1010A0000000B0B90000ACBA0000D8BA000089BB9B
:1010B0000000A7BB0000D8BB0000F2BB0000F9BBDA
:1010C000000026BC000026BC00802FBC008010BCA5
:1010D000000027BC008010BC0000CEBB00009ABB03
:1010E000000040BB000080B90000D0390000A4BA65
:1010F00000000ABB000090BA000028BA000028BA1D
:101100000000B0390000D8BA0000A4BA0000000006
:101110000000CCBA000098BA000000390000ACBA58
:1011200000005ABB0000E0BA000080BA0000A4BA78
:10113000000022BB000090BA0000B039000070BA75
:10114000000089BB0000A3BB0000FBBB008002BC09
:10115000000015BC008001BC0000F0BB0000E7BB34
:10116000000083BB000087BB000094BB0000FDBBF8
:1011700000001ABC0000A1BB000096BB0000BDBB74
:10118000000083BB000083BB000052BB00005ABBC1
:10119000000070BA0000A43A000090B9000080B8C6
:1011A000000080BA00009CBA00002CBB000062BBAB
:1011B000000008BA0000F0B900001ABB0000F0BA45
:1011C0000000D8BA00000EBB0000A5BB000083BB26
:1011D000000016BB000064BB000089BB000044BBDC
:1011E000000022BB000008BA0000603A0000003B8B
:1011F00000004E3B0000163B000000000000503A8B
:10120000000050BA000070BA0000183A0000CCBAD2
:10121000000044BB00002CBB00009CBA0000403919
:1012200000000A3B0000E83A0000D83A0000403ACB
:101230000000B039000080B900000EBB0000ACBA5D
:10124000000028BA00001ABB00004EBB000052BBD1
:1012500000008DBB000096BB000068BB000085BB92
:1012600000008BBB000056BB00002CBB0000083AFE
:101270000000A43A000090B9000028BA000080B92C
:10128000000040BA000080BA000000BB00001ABB9A
:10129000000030BB0000F0BA00001EBB00004EBBD7
:1012A0000000CCBB0000F8BB000005BC0000F9BB8F
:1012B000008001BC00802EBC00802CBC00800CBCD7
:1012C0000000F2BB00008FBB000070BA0000883A3B
:1012D0000000163B00008D3B0000A73B00008B3B4D
:1012E0000000623B00009A3B0000983B0000643B1A
:1012F0000000AB3B0000D23B00009F3B0000893B5D
:101300000000D43A0000043B0000D83A0000BC3A88
:1013100000009039000060BA0000083A0000B039BF
:101320000000703A0000C43A000000000000D0B98C
:101330000000B4BA00000EBB0000BCBA00009CBAAA
:101340000000ACBA000034BB000070BA0000E03A04
:101350000000BC3A0000083A000040BA00009CBA05
:10136000000070BA0000283B0000833B0000803B77
:101370000000F039000018BA0000BCBA0000403983
:101380000000083A000028BB00001ABB000028BA81
:1013900000000EBB000070BB000056BB000094BBF9
:1013A0000000B4BB0000B0BB0000C3BB0000CBBB5F
:1013B0000000E9BB0000DBBB0000A9BB00003CBB98
:1013C000000074BB0000C9BB0000E0BA0000083B8D
:1013D0000000263B0000C73B0080033C0000EA3BC6
:1013E0000000C73B0000BD3B0000D03B0000683B55
:1013F00000001A3B0000E83A0000D0B90000D8BA5B
:10140000000040BB0000E0BA00002CBB000080BB25
:101410000000CBBB0000CEBB0000A1BB0000CEBBD8
:10142000008020BC0000F9BB000098BB000052BB4C
:101430000000F0BA000040BA00008038000040BA56
:10144000000070BA00001A3B00000A3B00000E3B8F
:101450000000043B000080B80000603A0000383B08
:101460000000F83A0000283A000018BA000070BAEC
:10147000000008BB000052BB00004ABB00001EBBBE
:10148000000034BB000046BB000096BB00009ABBC6
:101490000000CCBB0000DDBB0000D4BB0000B6BB2D
:1014A000000034BB000062BB000098BB000087BB9B
:1014B0000000BABB0000B8BB0000A5BB0000DFBB4A
:1014C0000000D6BB00004EBB000090B9000028BA57
:1014D000000090BA00000000000080390000ACBAA3
:1014E000000040B90000853B0000AE3B00004A3BD5
:1014F00000000000000050BA0000983A0000CC3A0A
:10150000000060BA0000A4BA000004BB00000ABBDF
:101510000000B4BA0000D83A0000A43A000040BA73
:10152000000080BA000088BA0000E8BA000070BB72
:101530000000A3BB0000C5BB0000F2BB0000AEBBB7
:101540000000A1BB00006CBB00001ABB00009FBBE9
:101550000000F6BB0000BCBB00008FBB000085BBD9
:1015600000007CBB000096BB000044BB000044BBF5
:1015700000002CBB000044BB0000F8BA0000E0BA39
:1015800000002CBB000008BA0000AC3A0000D0B943
:101590000000ACBA00009CBA000060BA00004039FC
:1015A000000080B80000B039000088BA000090BB8D
:1015B000000078BB0000A4BA000000390000D4BAD3
:1015C000000022BB000012BB00002CBB0000F0BAE0
:1015D000000090BA000090B9000008BA0000ACBA50
:1015E0000000C43A0000903900004039000028BAD9
:1015F000000050BA00009CBA0000D0B9000080384A
:10160000000008BA000090BA000028BA0000BC3AF6
:101610000000AC3A000080380000B43A0000BC3A48
:101620000000083A00009C3A0000983A0000D43AC2
:101630000000703B0000443B0000403B0000463B84
:101640000000F03A0000CC3A0000703A0000B0B957
:10165000000052BB000046BB00000EBB0000E8BA11
:10166000000080BB0000ABBB0000D8BB0000E5BBA6
:101670000000FBBB0000E5BB00800FBC0000F6BB18
:101680000000DDBB0000BDBB0000B4BB0000BCBB64
:10169000000098BB00009EBB0000C3BB0000D8BB8D
:1016A0000000B0BB000062BB0000AEBB00009EBBF0
:1016B0000000D8BA0000603A00000039000078BB92
:1016C000000062BB0000B0B90000603A000080B9C1
:1016D0000000383A00004E3B0000893B00007C3B94
:1016E0000000343B0000223B0000163B0000383B6A
:1016F0000000F83A0000163B000070BA000062BB20
:10170000000081BB0000D4BB0000E9BB008021BC0D
:10171000000018BC0000FFBB0000A3BB00004EBBD4
:10172000000098BB0000DFBB0000D2BB00007CBB08
:101730000000F0B90000283A0000F0BA000050BAEA
:10174000000070BA000040BA0000F0B90000F03AA2
:1017500000001E3B0000183A00000000000080B9A5
:1017600000004039000040BA000098BA00002CBBCD
:10177000000064BB0000D8BA000064BB0000CCBB12
:101780000000D6BB0000B0BB0000BDBB000083BBA7
:10179000000080BB000070BB000062BB00002CBBDF
:1017A0000000183A0000B0390000183A000040BBB1
:1017B000000022BB00000EBB00007CBB000089BB08
:1017C000000040BB000034BB0000F8BA0000F0BAD3
:1017D000000088BA000080BA00003CBB000012BBC9
:1017E000000000BB0000A4BA0000F0B9000000B97E
:1017F0000000D83A0000983A000040BA0000C4BA8D
:10180000000080B8000000B900000EBB000030BB33
:10181000000026BB0000F0BA00002CBB000078BB23
:10182000000089BB000080BB000030BB000050BA44
:101830000000AC3A0000CC3A0000A43A0000223B81
:1018400000006C3B0000B23B0000D43B0080003C39
:101850000000BA3B0000303B0000853B0000873BA6
:101860000000A93B0000443B000000390000A4BA7E
:1018700000001EBB0000E8BA000046BB000094BB9D
:1018800000006CBB000094BB00009ABB0000B8BB1A
:1018900000000ABB0000E0BA0000ABBB0000B0BB18
:1018A00000009EBB0000BCBA000062BB0000A1BBF0
:1018B0000000D6BB0000DABB000092BB000096BB64
:1018C0000000B2BB0000BDBB000092BB000081BBAA
:1018D000000016BB00000000000028BA000098BA03
:1018E0000000A43A0000123B0000D83A000088BA79
:1018F00000000ABB0000CCBA000044BB0000CCBA18
:10190000000000BB000090B9000080B80000B0B932
:101910000000B0B9000008BA000090B9000080B81B
:101920000000E03A0000983A000040390000CC3A4C
:101930000000943B0000A73B0000813B00003C3BC3
:101940000000223B0000283B0000E83A00000E3B6C
:101950000000813B0000BD3B00009E3B00009E3B21
:101960000000B43B0000B83B0000BC3B0000BD3BA6
:101970000080023C0000F43B0000F43B0000CC3B44
:101980000000C13B0000D23B0000DA3B0000DB3B23
:1019900000008D3B0000853B00006C3B0000D43A0A
:1019A00000009C3A0000D039000008BB0000AEBB2C
:1019B0000000B6BB00008DBB00009FBB0000CCBB8D
:1019C0000000FFBB008003BC00800DBC00801BBC7E
:1019D0000000FFBB000005BC00800BBC00801CBCED
:1019E00000800FBC000019BC00802CBC008012BC21
:1019F0000000BDBB0000D0BB008001BC0000CBBB21
:101A0000000083BB000080BB000087BB000004BB5C
:101A10000000BCBA000090BA000090BA0000803A02
:101A20000000183A0000123B0000F03A0000083AAB
:101A30000000883A0000883A00000A3B0000083A9B
:101A40000000703B0000853B0000263B00005A3B35
:101A500000005E3B000090390000F0B9000028BA99
:101A60000000F0BA0000BCBA000040BA000040BA62
:101A7000000098BA0000C4BA000090B90000D03944
:101A8000000038BA000040B900008038000008BAF1
:101A90000000D43A0000BA3B0000BC3B0000803B91
:101AA0000000523B0000903B0000BF3B0000BD3BEC
:101AB0000000643B0000383B0000E03A0000983A28
:101AC000000090B9000012BB000038BB000062BBF0
:101AD0000000AEBB0000FFBB000004BC0000E3BB85
:101AE000000008BC00801BBC008010BC008003BC50
:101AF00000000BBC008020BC000013BC000004BC34
:101B0000008002BC000005BC0000F0BB0000DBBB95
:101B10000000BFBB000092BB00008BBB0000A1BB5C
:101B20000000CEBB0000A1BB000090BB0000AEBB1C
:101B30000000CCBB0000D2BB0000C3BB000080BBD8
:101B400000004EBB00006CBB00000ABB000008BADE
:101B50000000603A0000523B0000C13B0000AB3B7C
:101B60000000E83A0000B039000000000000B03981
:101B70000000A43A000080B9000008BB0000D4BAFD
:101B80000000603A000090390000BCBA000038BA8A
:101B90000000CCBA00006CBB000064BB000068BB56
:101BA0000000D0BB0000D8BB0000B0BB0000E7BB0A
:101BB00000801BBC000018BC008011BC000018BCD9
:101BC000008020BC0000FBBB0000D0BB00008FBB2E
:101BD000000080BB000008BB0000BCBA00008038D9
:101BE0000000703A000088BA0000CCBA000098BA31
:101BF000000060BA000016BB000068BB0000AEBB6E
:101C00000000CBBB00009FBB000056BB00005ABBCE
:101C1000000070BB000090BB000080BB000012BB46
:101C2000000028BA000000B9000028BA0000E8BA95
:101C3000000008BB000085BB0000C7BB0000ADBBB7
:101C40000000B6BB00009FBB0000C1BB0000B0BBE2
:101C50000000D0BB000005BC00800BBC00800FBCA6
:101C6000000018BC0000DDBB0000BABB000096BB42
:101C7000000090BB00009EBB0000A5BB00009EBB07
:101C8000000012BB0000903A0000043B0000D83A6C
:101C90000000303B00001E3B00005E3B0000943B18
:101CA0000000C33B0000AD3B00008F3B0000803BC9
:101CB0000000643B0000CC3A0000D0B90000D0B96D
:101CC000000070BA0000D0B9000000BB000064BB87
:101CD0000000A9BB0000DBBB0000FBBB0000CCBBCD
:101CE00000008DBB000068BB00001ABB000012BBE7
:101CF000000064BB00005EBB000064BB000080BB52
:101D0000000026BB00003CBB00008DBB000044BBB4
:101D10000000E8BA000038BA000008BA000050BA63
:101D2000000008BA000018BA0000F83A0000643B4E
:101D30000000E03A0000383A0000223B0000893BF6
:101D400000004A3B00003C3B0000123B00001E3BF1
:101D50000000C43A0000703B0000463B000000B9A0
:101D6000000080B9000080B9000004BB00007CBB0B
:101D7000000070BB00006CBB000092BB00009FBB6A
:101D80000000ADBB00008DBB000087BB0000F0BAB7
:101D90000000A4BA000018BA0000ACBA0000F0B904
:101DA0000000D83A0000283B0000BC3A000040B9CF
:101DB000000022BB000064BB0000A9BB0000B0BB58
:101DC0000000E9BB0000F6BB0000D8BB0000ADBBC3
:101DD000000092BB0000A4BA0000803A0000503A14
:101DE0000000E03A0000E83A00002C3B0000893B8C
:101DF0000000B43B0000963B0000DB3B0000D63BFC
:101E00000000AB3B0000873B00004A3B000000B9EC
:101E10000000D8BA00005EBB0000CBBB0000EEBBE8
:101E200000800BBC00801EBC008011BC00800DBC7B
:101E30000000E1BB0000D4BB0000D4BB0000AEBB7F
:101E40000000A3BB000080BB0000F0BA0000C4BAD1
:101E50000000AC3A00003C3B0000523B0000703BED
:101E60000000703B0000943B00008B3B0000AB3B4C
:101E700000008B3B0000123B0000163B0000383B8B
:101E80000000043B00001A3B00008F3B00004E3B6B
:101E90000000463B00005A3B00008B3B0000AB3B80
:101EA00000004A3B00001A3B0000403A000000B925
:101EB0000000E0BA000040BB000070BB000087BB20
:101EC0000000B4BB0000BFBB0000BABB0000B2BB47
:101ED0000000AEBB0000B4BB0000D2BB0000DBBB07
:101EE0000000BFBB00009FBB0000E3BB000017BCAD
:101EF000000019BC000024BC000037BC000033BC4B
:101F000000801CBC008012BC0000B8BB00005ABBA3
:101F1000000070BA0000503A0000873B0000D43B3C
:101F20000000F63B0000093C00800D3C0080203C96
:101F300000801D3C0000173C0000083C0000BC3B3A
:101F400000000E3B000050BA000087BB0000DBBB66
:101F500000800BBC00801DBC000035BC008039BC7B
:101F6000000041BC00803CBC008012BC0000BABB39
:101F7000000064BB00003CBB0000CCBA000090B97C
:101F80000000403A00001A3B00008B3B00009F3BE2
:101F900000008F3B00008B3B0000833B00009A3B1E
:101FA0000000B43B0000B03B0000903B0000AE3BA3
:101FB0000000A73B0000803B0000A73B0000CB3B9C
:101FC0000000C13B0000DB3B0000CE3B00009A3B21
:101FD0000000563B0000813B0000643B0000883A53
:101FE00000001EBB000087BB000068BB000092BB66
:101FF0000000AEBB0000CBBB0000E7BB0000B2BBE3
:102000000000A5BB00008BBB000028BB000040BB4C
:10201000000074BB000096BB00009EBB000096BB96
:102020000000B0BB0000E5BB00801ABC00803DBCD6
:10203000008047BC008058BC00805BBC000037BCFF
:10204000000025BC0000E9BB00009CBB00004EBBAB
:102050000000D0B90000833B0000F23B0080013C4F
:102060000000093C0000F23B0000BD3B0000B03B1B
:102070000000853B0000343B0000E83A0000803956
:102080000000B0B90000C4BA00001EBB00004ABB8B
:102090000000A5BB000005BC00802DBC000034BCC6
:1020A000000038BC000040BC008030BC008011BC87
:1020B000000014BC008010BC008003BC0000D0BB3A
:1020C00000008DBB00000EBB000090B9000080B97D
:1020D0000000F03A0000163B0000343B0000403B9B
:1020E0000000003B0000B43A00001A3B0000623BD5
:1020F00000000A3B0000B039000080BA000000BBBD
:10210000000012BB000038BA000080BA0000183A84
:102110000000B43A00000E3B0000523B0000BC3A05
:1021200000004039000098BA000004BB000064BB06
:1021300000003CBB00001EBB000083BB0000C9BB0D
:102140000000C7BB0000D2BB00009CBB000070BBFE
:10215000000087BB0000A5BB0000C9BB0000C9BBD5
:102160000000CEBB008000BC000018BC000022BCF8
:10217000000016BC008029BC00801BBC0000F0BB26
:102180000000BDBB000080BA00003C3B0000B83B33
:102190000000E53B0000163C00801B3C00802C3C0E
:1021A00000802C3C0000223C0080203C0080033C4E
:1021B00000008B3B0000003B000040390000ACBA3F
:1021C00000007CBB0000BABB00800EBC000015BC48
:1021D00000801EBC008029BC00801FBC000008BC21
:1021E000008012BC000008BC0000D2BB00009FBBF6
:1021F000000046BB000060BA0000603A0000D03921
:10220000000040390000503A0000B43A0000503A53
:10221000000090B90000A43A0000703A0000883A2B
:102220000000403A0000CC3A0000523B0000683BFE
:102230000000803B0000903B0000893B0000403BD9
:102240000000F83A00009C3A00000039000060BA33
:102250000000D4BA000038BB00007CBB000062BBA9
:1022600000005EBB000070BB000085BB0000A9BB86
:1022700000004EBB000038BB000012BB000026BBB4
:10228000000028BB00000EBB00001EBB000038BBD6
:102290000000B0BB0000DFBB000014BC000046BC67
:1022A000000063BC00805BBC00806ABC008065BC31
:1022B000008066BC000050BC00802DBC0000EABB62
:1022C000000080BB0000CC3A0000C93B0000EE3BA0
:1022D0000000183C0000463C00805B3C0000413C94
:1022E00000801C3C0000E93B0000C33B0000263B93
:1022F000000038BA000046BB0000CCBB00000BBC9D
:10230000000013BC000006BC0000EEBB0000ECBBEC
:102310000000C7BB0000B4BB0000CBBB0000A5BBE6
:102320000000B0BB000046BB000038BB000012BB81
:10233000000000BB0000CCBA00000EBB0000E8BAF1
:10234000000090B9000070BA0000D0B90000E0BAF7
:1023500000009CBA000080BA0000083A0000E03A91
:1023600000001E3B0000443B00004A3B0000623B73
:102370000000083B0000403A000000B9000090BA9D
:10238000000056BB0000C5BB000005BC008000BCBF
:102390000000E5BB0000DABB000089BB00009FBB6A
:1023A0000000B6BB0000C1BB000070BB000040BB1A
:1023B00000007CBB000044BB00000EBB000022BB41
:1023C000000046BB00008FBB0000A5BB0000CCBBDB
:1023D00000800EBC00800BBC00800BBC000022BC47
:1023E00000803FBC00004FBC008056BC00804ABC4F
:1023F000000042BC000037BC000013BC0000BABBA8
:10240000000030BB000080390000043B0000BD3BF1
:102410000000053C0080213C00802B3C00801E3CDD
:102420000000DF3B00009A3B0000343B00004039D5
:10243000000022BB000080BB000090BB0000BFBBBF
:102440000000F0BB0000CEBB00009ABB000046BB02
:10245000000040BB00001ABB00001ABB000004BB18
:10246000000090B90000803A0000183A0000A4BAB9
:10247000000038BB000044BB00004ABB0000F0BABB
:10248000000016BB000052BB000078BB0000A4BADD
:10249000000060BA0000403A0000303B0000803B82
:1024A0000000963B0000923B0000803B0000A53BF3
:1024B0000000A53B00002C3B000000000000B0B96C
:1024C0000000BCBA000088BA0000E0BA000000BBFF
:1024D0000000E8BA000040BA000000000000D03957
:1024E0000000883A0000003B0000123B0000CC3A9C
:1024F0000000C43A0000E83A0000303B0000463BD0
:102500000000983A000098BA000000BB000070BBC1
:102510000000E7BB008021BC000031BC000044BCCF
:10252000008039BC000051BC008058BC000045BC94
:1025300000801ABC0000D8BB00007CBB0000D43A6D
:1025400000004E3B0000A53B0000E13B0000083CC2
:102550000000243C0080303C0000223C0080023C13
:1025600000009A3B0000283B0000D43A000050BA1B
:10257000000078BB000089BB000085BB00004ABB9F
:10258000000026BB00009CBA000040BA000000B961
:10259000000090BA000040B9000038BA000080B8CE
:1025A000000080390000A43A000060BA0000C4BAFC
:1025B00000000EBB000000B90000803A0000F039B6
:1025C0000000D0B9000008BA000040BA000008BA04
:1025D0000000F03900009C3A0000BC3A000090393D
:1025E0000000803A0000003B0000813B0000523BAD
:1025F0000000283B00001E3B00009C3A0000BC3A53
:1026000000008039000038BA000080BA000080382D
:102610000000163B0000853B00006C3B0000163BB1
:102620000000343B0000903B00009F3B00008F3BCC
:102630000000343B0000043B0000503A000000B9A9
:10264000000098BA000064BB0000D2BB008012BC3E
:10265000000037BC008058BC008080BC000073BC08
:1026600000806CBC00007CBC000074BC000044BC5A
:10267000000014BC0000D4BB000000BB0000883A7E
:102680000000403B0000DA3B0000273C00802E3C6D
:1026900000802C3C0000243C0000083C0000B43BBF
:1026A0000000303B000000000000F0B900001ABB41
:1026B00000009CBB0000B8BB0000C5BB0000BABB5B
:1026C000000078BB0000F8BA000000BB0000D8BAD8
:1026D000000040BA0000283A000090390000383A63
:1026E000000080380000D0B9000022BB0000C4BA4E
:1026F000000080BA00005EBB00008DBB000090BBF4
:1027000000008FBB000092BB000083BB0000A4BA96
:102710000000503A00000A3B0000813B0000BD3B36
:102720000000E13B0000073C00800C3C0000EC3B5B
:102730000000B83B0000403B000000B90000B0B909
:10274000000022BB00009CBB0000A5BB0000A5BB95
:10275000000090BB000074BB000080BB000074BB95
:1027600000005ABB0000D8BA0000BCBA000088BA0A
:10277000000088BA0000ACBA00001ABB000046BBDB
:1027800000008FBB0000A9BB0000E5BB000031BC0E
:1027900000005EBC000080BC00008EBC00008DBC50
:1027A00000C08ABC00007DBC000071BC000037BCCA
:1027B0000000EEBB000052BB000080390000523B1D
:1027C0000000A33B0000073C0000293C00800C3CBB
:1027D0000000F93B0000C53B0000123B000050BA6E
:1027E000000074BB00009FBB0000ECBB00800EBC6F
:1027F000000008BC0000ECBB0000C5BB0000A5BB8E
:1028000000009CBB000081BB000000BB000090BA30
:102810000000F0BA00005ABB000080BB000096BB6D
:1028200000008BBB000096BB00009FBB0000DDBB1F
:102830000000FDBB0000F9BB0000BABB000094BB68
:1028400000006CBB0000F0BA000060BA00009C3AC7
:102850000000643B0000C73B0000D03B0000F63B9B
:102860000080033C0000083C0000F23B0000B43B49
:102870000000A33B0000623B0000703A0000F0B98A
:10288000000008BB000026BB000062BB000096BB36
:10289000000080BB000012BB000034BB000012BB74
:1028A000000028BB0000F039000080B900000039AA
:1028B000000080BA0000F0BA000040BB00008DBBF1
:1028C0000000BFBB0000FDBB00801CBC000036BC8C
:1028D00000005FBC008067BC000065BC000065BCF8
:1028E00000006FBC000055BC000033BC0000ECBB16
:1028F00000008DBB0000F0B90000AC3A0000983B2E
:102900000000E53B0000F93B0000F03B0000093C03
:102910000000E73B00008D3B0000163B0000503AF2
:10292000000018BA0000BCBA00000EBB000040BB9B
:1029300000007CBB00006CBB00001ABB0000ACBAFE
:102940000000C4BA0000B0B9000038BA000050BAA4
:102950000000D0B9000090BA000070BA0000B4BA0C
:102960000000F0BA00001ABB000040BB000046BBEC
:102970000000ACBA0000D8BA000098BA000000000D
:102980000000903A00004E3B00009E3B0000DA3B06
:102990000000F93B0000DB3B0000C33B0000B83BFC
:1029A0000000AD3B00009E3B00009A3B0000403B16
:1029B0000000D0B9000070BB0000C3BB0000E9BB41
:1029C000000009BC000018BC008001BC0000E9BB8D
:1029D0000000D4BB0000A1BB00009FBB00005ABB9D
:1029E0000000D8BA000070BA000060BA0000ACBAAB
:1029F00000003CBB00007CBB000092BB0000BDBBE4
:102A00000000FBBB00801EBC000025BC008047BC52
:102A100000805ABC00804EBC000044BC000046BC94
:102A2000000041BC00801EBC0000FBBB0000BCBB22
:102A3000000078BB000090B900001E3B0000923BF4
:102A40000000E13B0000173C00800B3C0000073C0D
:102A50000080033C0000DA3B0000853B0000123B95
:102A60000000083B0000903A00009CBA000028BA21
:102A70000000083A0000B0390000703A0000403908
:102A80000000BC3A0000CC3A0000C43A0000B43A5E
:102A900000008039000050BA0000E8BA000022BBF4
:102AA000000034BB000016BB000090BB0000ADBBB3
:102AB0000000A1BB00009FBB000098BB000089BBC9
:102AC00000005EBB0000E8BA000080B80000B0B9AA
:102AD0000000D43A0000D43A0000F03A0000F83A7E
:102AE0000000443B00008B3B0000403B0000083BE3
:102AF0000000703A000040BA000040BB00009EBBDE
:102B00000000A9BB0000B2BB000096BB000080BB68
:102B1000000030BB0000D4BA000050BA000018BA60
:102B2000000050BA0000B03900009C3A0000383A6A
:102B300000000000000004BB00006CBB0000C5BB2F
:102B40000000FDBB000017BC000032BC00804DBC83
:102B5000000055BC008056BC008039BC000022BC7F
:102B600000800DBC0000F9BB0000ADBB0000D8BA6E
:102B7000000040B90000F03A00009E3B0000CE3B50
:102B80000000EA3B0000F93B0000E93B0000E13BAC
:102B90000000DD3B00007C3B00009C3A0000B039A7
:102BA000000080BA0000F0BA0000B4BA0000D8BA41
:102BB0000000ACBA0000883A0000003B0000223B55
:102BC0000000683B0000703B00004E3B00000E3BE5
:102BD0000000803A000060BA000046BB0000C1BBA4
:102BE0000000F0BB0000F0BB0000ECBB008003BCA9
:102BF0000000F9BB0000D8BB0000B4BB00009EBBC6
:102C0000000068BB000098BA0000043B0000743B61
:102C10000000AE3B0000C13B0000963B0000523B71
:102C200000004E3B0000703B0000893B00004A3B27
:102C30000000D83A000088BA000064BB0000BFBBA7
:102C4000000092BB00007CBB000004BB000000B988
:102C500000000000000090B90000F0B90000A43AA4
:102C600000000E3B0000603A0000D0B9000050BAEE
:102C7000000004BB00009EBB0000E9BB008001BC5B
:102C800000802CBC008047BC008076BC00007DBC6E
:102C9000000071BC008067BC000053BC000036BC63
:102CA000000026BC000016BC0000F8BB0000ADBB55
:102CB000000008BB000040BA0000B43A0000383BF6
:102CC0000000903B0000B23B0000C53B0000CB3B46
:102CD0000000B63B0000AE3B00009C3B0000223BE6
:102CE0000000083B0000D83A0000C43A0000043B52
:102CF00000000E3B0000463B0000463B0000303B1E
:102D00000000853B0000223B0000883A0000D0B95B
:102D10000000BCBA000012BB0000CBBB008001BCAD
:102D200000800BBC000009BC00801DBC008010BCF2
:102D3000000007BC008001BC0000E5BB0000B6BB82
:102D4000000026BB000000000000443B00008F3B59
:102D50000000A93B0000CE3B0000A13B0000463B29
:102D60000000623B0000443B0000743B0000343B29
:102D70000000B039000078BB0000B2BB008001BC8D
:102D800000800EBC0000D4BB0000C9BB00006CBBBF
:102D90000000D8BA000090BA0000E8BA000000BBFA
:102DA0000000F0B9000098BA000060BA000050BA04
:102DB00000001EBB000012BB000090BB0000CEBB99
:102DC0000000F9BB008021BC000050BC000053BCD7
:102DD000000056BC008047BC000029BC000019BCA4
:102DE000008000BC0000DDBB0000A3BB00004EBBA8
:102DF000000028BA00004E3B0000BC3B0080013CB4
:102E000000800E3C0000193C00001A3C0080123C7F
:102E10000000053C0000EC3B0000E73B0000B03B3D
:102E200000006C3B0000683B00004E3B0000903B04
:102E30000000A53B0000C33B0000D43B0000DA3B90
:102E40000000B83B0000943B0000683B0000343BAE
:102E50000000223B000080390000D8BA000083BB8C
:102E60000000A1BB0000F8BB0000F0BB0000C7BB26
:102E70000000A1BB000074BB00005EBB000030BBC3
:102E8000000038BA0000C43A0000813B0000F63B65
:102E90000000063C0000063C0000EA3B0000DD3B71
:102EA0000000F23B00000A3C00000A3C0000093C24
:102EB0000000AE3B0000163B0000D0B9000012BB82
:102EC000000046BB000022BB00009CBA000028BAEC
:102ED0000000D0390000A43A0000903A0000403AC7
:102EE00000008039000050BA000090B9000040B9DD
:102EF000000038BA00000ABB00005EBB0000C3BB84
:102F00000000F6BB00800FBC00803DBC000056BC3A
:102F100000804ABC000043BC00801EBC00800CBC8A
:102F2000000006BC0000CEBB0000A9BB000062BBD5
:102F30000000ACBA00001A3B0000893B0000D23B05
:102F40000000DA3B0080013C0080003C0000043CB3
:102F50000000133C0000F43B0000BD3B00008D3B33
:102F60000000563B00003C3B0000F83A0000873B65
:102F70000000783B00009E3B0000A53B00008D3B1D
:102F80000000743B0000343B0000343B0000163B63
:102F90000000703A000038BA00000ABB0000A1BB74
:102FA0000000D4BB0000EEBB0000FFBB00000BBC68
:102FB0000000E7BB0000F2BB0000D2BB0000D0BBAA
:102FC0000000AEBB000016BB000090390000083BBB
:102FD0000000853B0000683B0000523B0000623B64
:102FE0000000833B00004E3B0000223B0000163BEC
:102FF0000000E83A0000D0B9000098BA000046BBD3
:10300000000096BB0000B0BB000085BB00001EBBEB
:103010000000BCBA0000ACBA0000BCBA00001ABB89
:1030200000000EBB00007CBB00008BBB000056BB49
:10303000000040BB0000A5BB0000E7BB00800EBC49
:10304000000036BC008057BC000081BC00009FBC63
:103050000000A7BC00809EBC00008FBC008088BC24
:10306000008081BC00803FBC00801BBC00800DBC88
:103070000000A3BB000088BA0000223B0000A13B77
:103080000000F43B00800E3C0000353C0000293C71
:1030900000801E3C0000173C0000E93B0000B83BEC
:1030A0000000623B0000F03A0000083A000040399E
:1030B0000000123B00000A3B0000403A0000C43A06
:1030C0000000C43A0000403A00000000000000B9CF
:1030D000000090BA000062BB0000ADBB000004BC61
:1030E00000802ABC008049BC00806CBC00C081BC50
:1030F000008065BC00804EBC000033BC00801EBC5C
:10310000008000BC00008FBB0000BCBA0000A43AE5
:1031100000008D3B0000B23B0000CB3B0000C13BF8
:103120000000C13B0000B03B0000BA3B0000873B01
:1031300000003C3B0000E83A0000A43A0000B0B9AF
:1031400000004EBB000098BB00008BBB0000A3BB7F
:10315000000096BB000052BB00000ABB0000C4BACE
:103160000000D8BA00001EBB000074BB000068BBA2
:10317000000078BB0000B0BB0000E3BB000009BC4E
:10318000000018BC000045BC000072BC00C084BC3C
:10319000008075BC000063BC008047BC000024BCFC
:1031A000000004BC0000E7BB0000ADBB000064BB36
:1031B000000016BB0000B43A0000703B0000B83BB2
:1031C0000000FB3B0000173C0000253C0000283CB1
:1031D00000802E3C00801F3C0000FB3B0000E53BD4
:1031E00000008B3B0000303B0000383B0000523BAE
:1031F0000000623B0000263B00001E3B0000F03A4E
:103200000000183A000060BA0000ACBA000000BB31
:10321000000038BB00007CBB00009CBB0000E5BB8D
:10322000000024BC00805BBC008078BC008085BCB2
:10323000008077BC000070BC008056BC000032BC2F
:10324000000023BC0000F9BB000081BB000012BBE2
:103250000000283A0000A43A0000403B0000C93BAF
:103260000000B23B00009E3B0000683B0000853B35
:103270000000403B0000D43A000000000000ACBA5F
:103280000000BCBA0000A4BA0000BCBA00005ABBDF
:10329000000022BB00001EBB000050BA000000B9B5
:1032A0000000383A0000883A00008039000080B8F9
:1032B000000018BA000070BA000022BB00004ABB30
:1032C0000000BABB008012BC00803EBC000065BCA0
:1032D00000007CBC000080BC00006DBC00805DBCB8
:1032E00000803FBC000024BC00800DBC0000D6BBA9
:1032F000000098BB000000BB0000083B00008F3BB3
:103300000000E73B00000B3C00800B3C0080123CBF
:103310000000143C0080023C0080003C0000F83BB0
:103320000000D23B0000903B0000783B0000743B63
:103330000000C33B0000AE3B00008B3B00001A3B8B
:103340000000E03A000080390000B0B9000098BAEF
:10335000000012BB0000E0BA000074BB0000BFBB5D
:10336000000004BC00803EBC008059BC008079BCD9
:10337000000072BC000054BC00804ABC008030BC1D
:1033800000000BBC0000BCBB00004ABB0000BCBA84
:103390000000F03900006C3B0000C33B0000EC3B38
:1033A0000000E13B0000D23B0000BD3B0000AD3B14
:1033B00000009A3B0000983B0000893B0000303B36
:1033C0000000C43A0000803A0000D43A0000F0390E
:1033D0000000283A0000183A0000403A0000D43AB1
:1033E0000000903A0000D43A0000D83A0000E03AD9
:1033F0000000803800000000000090BA000062BBAE
:103400000000B0BB0000F6BB008038BC008059BC97
:10341000008079BC00408BBC00808EBC00408ABC20
:10342000004082BC000071BC00005EBC000047BCD4
:1034300000800DBC0000BDBB0000D8BA0000343BCA
:103440000000963B0000D83B00800F3C0000263C6B
:1034500000802B3C0080293C0000263C0080203C62
:1034600000800F3C0000E73B0000CB3B0000B43B7A
:103470000000943B0000A73B0000B43B0000783BF9
:103480000000563B0000D43A0000CC3A0000A43AB9
:103490000000403A000038BA0000E8BA000078BBEB
:1034A0000000C1BB000005BC00803ABC000044BC69
:1034B00000804EBC000051BC00803EBC00802FBC90
:1034C00000000ABC0000F9BB0000C5BB00008DBBBA
:1034D0000000D8BA0000883A0000833B0000BD3BE2
:1034E0000000CE3B0000C73B0000BC3B00009A3B05
:1034F0000000853B00004A3B0000263B0000F03AFC
:10350000000008BA000028BA000060BA000016BB2C
:10351000000022BB0000D4BA0000D0B90000983AE5
:103520000000463B0000963B0000D83B0000E93B12
:103530000000BA3B0000783B0000C43A0000B0B97C
:1035400000004EBB0000ECBB000041BC000072BCA0
:1035500000008FBC00008EBC00009FBC00C09ABC65
:10356000000098BC00C08BBC00C084BC008069BC5B
:10357000008038BC0000E1BB000068BB0000983A46
:103580000000943B0000E33B0000043C00000A3CC8
:103590000080013C0000F93B0000EC3B0000B03B28
:1035A00000009F3B0000643B0000283B0000443BC0
:1035B0000000743B00002C3B0000283B0000623BF5
:1035C00000009A3B0000BD3B0000BC3B00009A3B62
:1035D0000000923B00000A3B000080B9000044BBA1
:1035E0000000BCBB00801ABC000054BC008077BC4B
:1035F000000087BC004089BC00C081BC000065BCE5
:1036000000803DBC000013BC0000DFBB0000A9BB74
:1036100000001ABB0000903900001A3B0000A93BD3
:103620000000CE3B0000C13B00008D3B0000443B4E
:103630000000B43A0000703A0000F039000080B990
:10364000000060BA00009CBA000000390000B039E8
:10365000000000B90000F0390000A43A00001E3B51
:103660000000623B0000833B0000B23B0000BF3B18
:103670000000BC3B0000743B0000503A000026BB39
:103680000000C3BB000029BC008075BC00C091BC19
:1036900000C0A7BC0040B7BC0080C2BC00C0B8BC22
:1036A0000000A7BC00809EBC00008DBC008078BCE0
:1036B00000803CBC008010BC0000BFBB000008BB09
:1036C000000080390000403B0000A33B0000CC3BE1
:1036D0000000BF3B0000B23B0000B63B0000923B45
:1036E0000000E83A0000CC3A0000B0390000083A87
:1036F0000000D0390000F0390000B0B90000903966
:103700000000983A0000E03A0000263B0000B43A7E
:103710000000603A000008BA000038BA00005ABB46
:103720000000D0BB00803ABC00408ABC0040A2BC74
:103730000000ACBC0040B0BC0040AABC0040A2BC31
:10374000004084BC00805CBC000036BC00800BBC28
:103750000000C5BB000052BB000038BA0000AC3A04
:103760000000503A0000B43A0000C43A0000C43AE5
:10377000000090390000B0B9000038BA0000ACBABF
:103780000000BCBA000000B90000383A0000A43ABA
:103790000000403A0000803A0000083B0000783BFF
:1037A00000009F3B0000DD3B0000E13B0000CB3B05
:1037B0000000C93B00009A3B00002C3B0000403950
:1037C00000008DBB000014BC000043BC008078BC2E
:1037D000000097BC00C0A0BC0000A4BC00C09FBCFF
:1037E00000009EBC00C08ABC008075BC008047BC45
:1037F00000801EBC00000ABC00009FBB000060BA35
:103800000000603A0000E83A0000123B0000443B30
:103810000000303B0000B43A0000043B0000E83AEE
:103820000000803A0000083B00005A3B0000B83B13
:103830000000C13B0000D03B0000EA3B0000FB3B26
:1038400000800E3C00000A3C0000E53B0000CC3B41
:1038500000009F3B0000893B00009C3A0000F0BA4A
:103860000000B8BB00801EBC000065BC008095BC99
:103870000040A9BC0000BABC00C0BFBC0080AEBC08
:1038800000C099BC00C083BC008058BC000031BCA3
:10389000008002BC0000C3BB000080BB000080B9F8
:1038A0000000D43A00000A3B0000123B0000263B17
:1038B0000000163B0000003B0000043B0000BC3A47
:1038C0000000C43A0000F03A0000903A00001A3BB1
:1038D0000000683B00008D3B0000AD3B0000EA3B70
:1038E00000001A3C00802A3C00804E3C0000463C10
:1038F0000000233C0000EA3B0000AB3B0000443BDF
:103900000000183A00004ABB0000ECBB000024BCD9
:1039100000806ABC00408CBC00409ABC0040A7BC40
:103920000040A1BC000098BC00C082BC000070BC7C
:10393000000041BC00000BBC0000CCBB00009CBBE5
:1039400000004EBB00009CBA000090390000A43A71
:103950000000403A0000283A0000B0B90000D03919
:103960000000983A00000E3B0000803B0000CE3B78
:103970000000DB3B0080023C0000283C0080393C1A
:103980000080473C0000473C00803C3C0080293CD4
:103990000080123C0000FB3B0000C13B0000783B74
:1039A00000009039000040BB000005BC000053BC83
:1039B00000806BBC00808FBC00C098BC00C08ABC7B
:1039C00000C083BC00006EBC00804ABC000028BC64
:1039D0000000FBBB00009ABB000004BB000040BA23
:1039E0000000B43A0000A43A0000883A0000163BF8
:1039F0000000BC3A00009039000040B9000000000F
:103A0000000000000000F03900008038000080B99C
:103A1000000000000000983A0000C43A0000703B2B
:103A20000000C33B00000A3C00000B3C00800E3C41
:103A30000000DB3B0000B43B0000683B0000F039B5
:103A4000000052BB0000EABB000022BC00005EBCCC
:103A500000C082BC00C09FBC0040B8BC0000BDBC20
:103A60000040BFBC0000BABC0040B2BC0080ADBC8E
:103A700000C099BC004083BC000065BC00803CBC19
:103A800000802ABC000014BC008003BC0000DBBB2B
:103A90000000CBBB000092BB000070BB000038BB35
:103AA000000050BA000090390000AC3A00004A3BD8
:103AB0000000B83B0000E53B0000063C00801B3CDA
:103AC0000000293C00802B3C0000373C00801B3C60
:103AD0000080003C0000EC3B0000833B0000AC3A5F
:103AE0000000E8BA00008BBB0000E5BB008030BCE2
:103AF00000006EBC008087BC00008DBC008088BCCC
:103B000000C08ABC004085BC00007EBC00006DBCCB
:103B100000004FBC00802ABC000006BC0000CEBBE9
:103B200000009EBB00003CBB000004BB0000B4BA18
:103B3000000044BB000052BB000022BB0000C4BA1E
:103B40000000D0B90000F83A0000463B00000A3BF4
:103B50000000523B0000403B00009A3B0000AE3B9F
:103B60000000CC3B0000FF3B0080303C00802B3C41
:103B70000000133C0000043C0000C73B00005A3B1F
:103B80000000B03900006CBB0000B2BB0000FDBB00
:103B9000008029BC000044BC000065BC000088BC5B
:103BA000004093BC004099BC00C09ABC000090BC8F
:103BB00000807BBC000056BC008030BC008000BC94
:103BC0000000D4BB0000BFBB0000C7BB0000ECBBC3
:103BD0000000C5BB00009FBB000085BB000034BBDC
:103BE000000012BB000060BA0000123B0000A93BBD
:103BF0000000DF3B00800D3C0000223C0000273C21
:103C000000802B3C00803D3C0000463C00803F3C57
:103C10000000353C00801C3C0000DB3B00008F3B7B
:103C20000000803A0000D8BA00008FBB0000E1BB62
:103C3000000015BC00802CBC000042BC00805BBCB6
:103C400000803FBC000028BC000026BC008012BCE5
:103C5000000004BC000005BC0000ECBB0000CBBBB6
:103C6000000087BB000052BB0000A4BA000038BAB5
:103C7000000080BA000030BB000094BB000074BBA1
:103C8000000008BB000000B900000E3B0000873BAD
:103C90000000C53B0000C33B0000CE3B0000E13B01
:103CA00000800F3C0080393C0000453C0000543C43
:103CB0000000633C0080653C00804D3C00801D3C62
:103CC0000000D23B0000163B00009039000028BAEB
:103CD000000068BB0000DABB000006BC00802BBC03
:103CE000000047BC000072BC000064BC00804ABCFD
:103CF00000802FBC000023BC00800FBC0000DABB9A
:103D00000000A3BB0000A5BB000081BB000081BB7D
:103D1000000046BB000022BB000040BB000004BB0B
:103D2000000080390000C43A00009E3B0080013C46
:103D30000080303C0000543C0080653C0080793CB1
:103D400000808D3C00C0983C0080973C0080973CF0
:103D500000C0893C0000643C00805B3C0000363CB5
:103D60000000E73B0000873B0000CC3A0000F0BABF
:103D7000000070BB0000A5BB0000D2BB0000E9BB87
:103D80000000FFBB0000FDBB000004BC008000BCC5
:103D90000000FDBB0000DBBB0000CBBB0000B6BBDE
:103DA0000000A9BB00006CBB000022BB0000ACBA45
:103DB0000000D4BA000060BA0000E0BA0000B4BA53
:103DC000000080B80000603A00009C3A00000A3B06
:103DD0000000A33B0000F03B00800B3C0000253CB2
:103DE0000000443C0080493C00005F3C0080753C82
:103DF0000000723C0000603C0000513C00802A3C06
:103E00000000E93B0000AE3B0000523B0000703A6E
:103E10000000D8BA00003CBB0000AEBB0000F6BBFF
:103E200000001ABC008030BC000046BC000045BC4D
:103E300000805BBC00804DBC00004FBC000047BC54
:103E400000804DBC000040BC008038BC000037BC86
:103E5000008038BC000019BC00800FBC000006BC0C
:103E60000000E7BB000085BB000018BA0000D83A8C
:103E70000000893B0000DF3B00800B3C00803C3CA5
:103E800000804D3C0000653C0080653C0000633CC8
:103E90000000543C0000413C00801E3C0000E53B1B
:103EA00000005A3B000000000000E8BA00008BBB95
:103EB0000000BFBB0000EEBB000008BC000014BC4B
:103EC000008011BC000027BC00802FBC000034BC67
:103ED000000035BC00802EBC000026BC000027BCC2
:103EE00000801DBC000019BC008003BC0000D6BBD4
:103EF0000000BFBB0000A7BB00008DBB00005ABB89
:103F0000000056BB00003CBB000028BB000070BA9C
:103F10000000F03900000A3B0000443B0000873BF2
:103F20000000963B0000BD3B0000F03B0080033CDE
:103F30000080113C0000153C00800C3C0000CC3B94
:103F400000009C3B00001E3B000040390000ACBA62
:103F5000000068BB0000A7BB0000DFBB008001BC05
:103F6000000023BC00804ABC008067BC00807BBC92
:103F7000000074BC00806BBC00806ABC00806CBC1C
:103F800000806BBC008066BC000056BC000046BCD4
:103F900000803FBC00802FBC000015BC000007BCA7
:103FA0000000E7BB0000C5BB00008DBB00001EBBCE
:103FB0000000283A00005E3B0000C33B0000F23BDB
:103FC0000080113C00802E3C0000443C00804E3CB0
:103FD0000080683C00005F3C0000533C0000273C30
:103FE0000000053C0000AD3B0000283B00004039CC
:103FF00000002CBB00007CBB00009CBB0000A9BBE8
:104000000000ADBB0000C7BB0000E3BB0000E9BB84
:10401000000008BC00801ABC000022BC000032BCBA
:1040200000802FBC000034BC000031BC000015BC77
:10403000000004BC0000C1BB0000ABBB000052BBD1
:10404000000046BB000028BB0000ACBA0000000026
:104050000000D0390000B43A0000163B0000223BBB
:104060000000443B00006C3B0000BF3B0000E53B10
:104070000080103C0080203C00801D3C0000243C5F
:104080000000153C0000F03B0000E33B0000923BC9
:1040900000000E3B0000B0390000ACBA00007CBB51
:1040A0000000C7BB000009BC008030BC000051BC50
:1040B000000054BC000055BC000054BC000063BCB0
:1040C000008065BC000070BC000081BC000063BCC7
:1040D000000037BC000018BC000004BC0000E9BBB5
:1040E0000000D2BB0000BABB000087BB00004EBB83
:1040F0000000C4BA0000283A0000463B0000803BA4
:104100000000B83B0000E73B0000063C00800D3C8F
:1041100000801D3C0080293C0080113C0000133CC5
:104120000000E73B0000833B0000703B0000B43A16
:10413000000080380000BCBA000018BA000038BA8D
:104140000000ACBA0000CCBA0000F8BA00000EBB08
:1041500000002CBB000026BB00004EBB0000B0BB23
:104160000000EABB00800BBC000014BC000009BCCE
:1041700000801FBC000028BC00802ABC000014BCCA
:104180000000D6BB0000A1BB00001ABB000060BA53
:104190000000ACBA000000390000CC3A0000F83A48
:1041A00000004E3B0000873B0000983B0000A33B13
:1041B0000000B03B00009A3B0000963B00009F3B94
:1041C0000000AB3B0000BD3B0000C73B0000963B3E
:1041D0000000803B0000783B0000403B0000E83AD4
:1041E0000000B039000050BA000056BB0000B6BB5A
:1041F0000000DFBB000006BC000027BC000055BC6F
:1042000000201CBD000036BC008048BC0000CEBBB6
:1042100000408ABC00A014BD008001BC0080203C8E
:104220000000903B00004ABB000040BB000090BA79
:10423000000080B8000040390000743B0000223CC0
:104240000000703B0000543C0000FB3B0000963B2C
:1042500000800DBC00802E3C0080753C0000183AA8
:1042600000802F3C00007CBB0000EE3B0000ACBA9D
:1042700000009ABB0000963B0000903A0000DA3B39
:104280000000603A00008D3B0000CC3A000090BA7C
:10429000000068BB0000083B00006C3B000070BBE6
:1042A000000027BC00004ABB000080390000D0B9E4
:1042B0000000F039004025BD00A039BD00803EBCA3
:1042C000008094BC0000803B000034BB0000403AFA
:1042D00000001ABB00001EBB0000043C0000893C2B
:1042E00000009E3C0040B83C00800E3C0000523C68
:1042F00000E00BBD00C0F9BC000038BA0000153C5E
:104300000000AD3B00009FBB0000443B00008F3B22
:10431000000038BB00804B3C0000803A0080103C1D
:1043200000804B3C0000E83A0000BC3B0000CBBBE7
:10433000000096BB0000D4BB0000C4BA0000DBBB89
:104340000000A5BC008030BC0000B4BB00809EBC57
:10435000008021BC000007BC00005EBC000098BBD0
:10436000000046BC000089BB0000813B0000C1BBCF
:10437000000074BC0000923B0000BC3B00800CBC01
:104380000000553C000040B90000603A0000C33B0B
:104390000000983B0000783B0000D8BA0000BD3B0D
:1043A0000000C33B0000D63B0000AC3A0000803860
:1043B000000000000000303B00800BBC0000703AA1
:1043C000000042BC00804B3C0000C43A00C09FBCCF
:1043D0000000233C008096BC0000DBBB0000A93B32
:1043E00000006DBC00807BBC000081BB000023BCD2
:1043F000008039BC000026BC008010BC00000BBC53
:104400000000A93B008048BC00009CBB0000E33BCF
:10441000000070BC00801B3C000089BB00804CBCCD
:104420000080653C0000B4BB000044BC00008D3C33
:10443000000097BC0000E83A0000BC3B0000C53B10
:104440000000233C00005A3B0000A6BC00801D3C3D
:104450000000053C0000A4BA0000A33B00802C3CF7
:104460000000D039000080B800008D3B00000E3BFA
:1044700000800D3C0000F8BB0000EA3B0000903BD0
:10448000008058BC00802DBC000026BC0000B4BBDE
:104490000000FBBB004084BC00C0B0BC000078BB87
:1044A0000000CCBA0040BFBC00801FBC0000403BF5
:1044B00000004E3B000004BC000008BB000008BA2E
:1044C0000000D4BA0000803B0000F93B0000293C0A
:1044D00000C08BBC00801A3C000080380000B83B54
:1044E00000801F3C0000B03B0000503A0000C5BBFC
:1044F0000000C33B0080EFBC0000173C000088BAFE
:1045000000409ABC0000B6BB00801B3C0000DF3BB3
:104510000000B43A0000A93B0000343B0000F63B29
:10452000008087BC0080793C00006CBB0000E83A4A
:10453000000004BC0000903A00000A3C0080BBBCB4
:104540000000F63B00806B3C000090BC0000E03AAD
:1045500000409BBC0000463B00001ABC000050BA63
:10456000000028BA00802EBC00009E3B00008DBBDE
:104570000000643C00801BBC00802C3C000028BB79
:104580000040993C00007CBB00005E3C0080903CF9
:1045900000805C3C0080583C0000B8BB0000B63C8A
:1045A000000029BC0000243C0000AD3B0000683B3B
:1045B0000000EC3B008085BC000031BC00807B3CEF
:1045C0000000EABB000064BB0000403900C0C5BC6D
:1045D0000000C5BB000081BC000040BC0000153CD1
:1045E000000017BC008003BC0000D0B900007CBBF9
:1045F0000000F93B004093BC000017BC00009EBBCC
:10460000000098BB000036BC00805CBC0000123B80
:104610000000643B0000B03B00C081BC0000F0B96A
:104620000000343B0080693C0000B2BB0040933C7A
:104630000000D039000060BA0080473C0000283BF1
:104640000040923C0000A4BA00001ABB000012BB5C
:104650000000443C00001E3B000052BC00005ABB5E
:10466000000026BB0000983B000032BC000005BCE7
:104670000000BC3A000090BA000028BC0000AE3B2D
:104680000000CB3B008038BC00009CBB000065BC38
:10469000000085BB0000E0BA008000BC000034BB15
:1046A0000000EE3B00803ABC0000C53B000064BC4B
:1046B0000040DD3C0000CEBB000062BB00003C3B84
:1046C000000016BC00004A3B0000D63B0000703CD6
:1046D0000000BFBB00408B3C000028BA0000CC3A71
:1046E00000003C3B00007D3C0080743C0000D6BBD9
:1046F00000804D3C000022BC00000A3B0000683BEB
:10470000000038BA0000CCBA0000ECBB0000D0BBFF
:10471000000090BC0000F0BB00C082BC0000E0BA0A
:1047200000000EBB000040BB00C098BC00C0A2BC93
:104730000000C53B00009CBB00803C3C0040A3BC8B
:10474000000019BC0080013C0040B63C000090BC59
:1047500000800EBC0000DDBB000080B90000C9BBBA
:104760000000403B0000A7BB000007BC0000903BDE
:104770000000153C00801D3C00000ABC0000F0BA9F
:104780000000BD3B00006C3B00C09F3C0080003C33
:1047900000801A3C0000FD3B0000983A0000783B86
:1047A0000000E0BA000098BC00804A3C0000D8BB82
:1047B00000007FBC0000E03A00800DBC000005BC9A
:1047C0000000FB3B000019BC0000473C008078BCA7
:1047D0000000ACBC0000223C00408CBC0000E83A69
:1047E00000007FBC0000B63B00C0C8BC000014BC89
:1047F0000000CCBA000004BC0000873C004085BC2F
:104800000000D23B0040983C0000B63B0080213CB9
:104810000000413C000040390000CEBB00002C3BB2
:104820000000903B0000943B000012BB0000083CDD
:104830000000C5BB0000D63B0000DABB0000383AE0
:104840000000743B00001A3B00003CBB00C0DBBC16
:10485000000050BC000018BA0000123B000090B9E4
:104860000080F7BC008000BC00009CBC0000E53B61
:104870000080AD3C00007DBC0000DFBB00007EBCC2
:1048800000C0C63C0000B0B90000EC3B008058BC42
:1048900000004FBC00004EBB00401A3D00001ABC97
:1048A00000006C3B0000413C0080113C0000273CB4
:1048B0000000D8BA0000F93B0000123B0080473CE2
:1048C0000040A03C00804CBC00804B3C00001A3CE7
:1048D0000000743C00800C3C0000FD3B008011BCDB
:1048E00000802FBC0040AA3C0000163C0040DDBC0C
:1048F00000801CBC000090BA0000D8BA000012BBB7
:1049000000007C3B0040AFBC000080B900009CBBB5
:104910000000AEBB0040B7BC008058BC008079BC32
:104920000000983B0080013C00009FBB0080DBBC86
:104930000000F83A00801C3C0000053C0000DB3B16
:10494000008075BC0040AA3C00005ABB0080563C69
:1049500000805CBC00004EBB00809E3C000000005C
:1049600000C0A2BC000034BB0000E73B0040833C19
:1049700000801A3C0000B23B00006DBC0000D83A39
:104980000000CCBA0000E73B000071BC00000BBC8B
:1049900000A00FBD00408B3C0000B43B00002C3B4E
:1049A000008068BC006004BD0000273C0000E5BB3F
:1049B0000000D43B00A008BD00A004BD0000D43A14
:1049C00000001ABC000088BA00C006BD0000373CD9
:1049D0000000903B0080483C00800D3C00001EBB66
:1049E00000801EBC0000623B0000623C0000F0BA88
:1049F0000000A73B0000083A000080BB0000CE3B4F
:104A000000C0823C000017BC000081BB0000403B9E
:104A1000008030BC0000EE3B0000FFBB000008BB84
:104A20000040A9BC0000E8BA0000DA3B008067BC87
:104A30000000C43A0000FBBB0000783B000080B9D6
:104A400000C08A3C00C0A8BC000070BB008010BC45
:104A50000000B43A00C0A8BC000080B900803FBC90
:104A600000804ABC000078BB000065BC000070BC40
:104A70000000283A000063BC000094BB0040C6BCA4
:104A80000000813B000014BC00009CBB0000C1BBC7
:104A9000000032BC000070BA000000B900000B3CFE
:104AA00000802FBC0080483C00C0E33C0000F03B8D
:104AB00000C0BE3C0000703B0000623C0000BFBB79
:104AC0000080683C00C08BBC0000D43A0000A43ACF
:104AD000000040BB0000FDBB000060BC0000B43A19
:104AE0000080DBBC000019BC000015BC0000893B45
:104AF00000803FBC00008038000016BB0000F9BBFE
:104B000000803E3C0000BD3B00003C3B0000DFBBA2
:104B10000000CC3A00002C3B000038BC0080123C66
:104B20000000ABBB000089BB000090BA0000D23B84
:104B30000000C73B00008B3B0040833C0000853BEE
:104B4000000000BB0080943C0000243C0000B63B09
:104B50000080003C0000AD3B00000BBC0080473CE7
:104B600000007C3C000026BB000007BC0000383A77
:104B7000000089BB00008D3B0000533C000070BB6F
:104B8000000068BB000024BC0000D2BB000018BAC3
:104B90000000A73B000013BC00C0DBBC000032BC1F
:104BA00000803A3C0000EE3B000040BA004082BC6E
:104BB00000803DBC00803FBC0000C43A00801D3C2A
:104BC0000000813B000078BB008020BC008011BC4D
:104BD0000000D43B0000473C00005E3B0000B8BB37
:104BE0000000BCBA00003CBB00000E3B0000F0BA65
:104BF00000001A3B00000BBC0000303B0000E13B12
:104C00000000F63B000046BB0000123B0000323CB7
:104C1000000090B900802F3C00806CBC008057BC25
:104C200000008DBB0000D23B000090BB00801DBC8B
:104C30000000CCBB008078BC00801FBC0000283B7B
:104C4000000078BB00C089BC000007BC000080BA2F
:104C50000000133C0000163C0000F63B0000903AB8
:104C60000000E73B0000293C00809E3C00807A3C2D
:104C700000009F3C0000A13B0000F83B0000623BAD
:104C80000000253C0000463B0000E8BA000080BB65
:104C90000000DDBB00000EBB000040390000CC3A34
:104CA0000000CC3A00002CBB0000C9BB00008BBB4D
:104CB0000000903B0000B43A0000443B008047BC39
:104CC000000028BB000074BB0000383B0000C4BAE1
:104CD0000000D4BB0000E1BB0000E8BA0000F43BD8
:104CE0000000C93B0000C73B00008BBB00007CBB41
:104CF000000094BB0000BCBA0000F03900009F3BEC
:104D00000080013C00001ABC0000E9BB0000D03963
:104D10000000E33B0000923B000080B8000083BB32
:104D20000000FBBB0000B43B0080743C00805D3C95
:104D30000000853B0000E9BB008067BC0000D0BBE1
:104D40000000853B0000B0B900804ABC0040A1BC17
:104D5000008030BC0000BDBB000008BA0000E5BB0D
:104D600000007DBC00C0B1BC008074BC0000B2BBC0
:104D700000009FBB00005FBC00C091BC00C0A0BC95
:104D800000803CBC0000E83A00000A3B000026BB63
:104D90000000CC3A00009F3B0000143C0000D23BD6
:104DA0000000223C0000463B00003C3B00804C3CA5
:104DB00000C0AF3C0000903C00C0B03C00409B3CB9
:104DC0000000A43C00C0C73C0080F63C0040E63C2C
:104DD0000040CF3C00C0D63C0040933C00800C3CDF
:104DE00000800F3C00000E3B00009EBB000073BC27
:104DF0000040D6BC002014BD004028BD006031BD7D
:104E000000205FBD006079BD00A075BD00C064BD1D
:104E100000C05DBD00C047BD00E040BD00A02DBD8D
:104E20000040DEBC0000BABC00802BBC00000BBC04
:104E30000000000000801D3C00408A3C0040CF3C48
:104E40000000E13C00401E3D0020353D00606D3D0E
:104E50000080743D00408B3D0050A43D0000C13DEA
:104E60000040D63D0050F63D00F80D3E00F09A3D62
:104E700000802B3C0000623B00009C3B000083BB99
:104E800000401EBD006099BD00B0FABD00D810BE44
:104E90000070C4BD00D0B4BD0000C5BD0080EABD37
:104EA0000080DBBD0040B2BD00E036BD000074BC38
:104EB00000009EBC00C0BDBC00006EBC00008FBCEA
:104EC00000007DBC008095BC00C019BD002048BD1D
:104ED00000404EBD000029BD0000E1BC0000ECBB5D
:104EE0000040933C0080953C00A01B3D00C0A13DCC
:104EF0000080E13D00480B3E0038273E00602F3E19
:104F00000010433E00D0433E0080F93D0060403D2C
:104F100000E00F3D0040A03C0000DDBB00C059BDDB
:104F20000050C7BD00B813BE00D026BE00B0FABD09
:104F300000F0CEBD0010BCBD00E0ACBD002062BDE5
:104F4000008019BD0000E5BB00C0BE3C0000B53CC0
:104F500000800B3D00800A3D0080383C008067BC2B
:104F60000040B6BC000013BD003086BD00C09DBD32
:104F700000B0A9BD00E0B5BD00C0A2BD002062BD6B
:104F8000006020BD008087BC00808F3C00A0453DB4
:104F90000000923D00B0E53D00880A3E00701E3ED4
:104FA00000282C3E0090493E00E0533E00F82C3E85
:104FB00000908F3D0080483C000070BA0000EEBBBE
:104FC00000E027BD00E0B5BD000013BE00C83EBE36
:104FD000005022BE00B0FDBD0040BDBD00D091BD5F
:104FE00000E075BD004015BD000034BC00C0163D9A
:104FF00000E0533D00C08A3D0080563D0000083D62
:10500000000078BB0040B0BC006001BD00807ABDEC
:105010000020B2BD0010DCBD0050D6BD00B0C7BD41
:10502000004090BD00406CBD008003BD0000443BCB
:1050300000A03D3D00C0AC3D00B0FC3D00F81B3E73
:1050400000702D3E0030413E00A85C3E00F8693EF5
:1050500000B8403E00F0983D00805C3C000092BBF0
:1050600000005EBC00C042BD00A0C4BD007819BEF7
:1050700000904ABE007836BE009808BE0070C4BDDD
:1050800000308DBD00406DBD000017BD0000D0BBDD
:1050900000C00B3D0000743D00E08C3D00C06B3D46
:1050A00000A0003D008011BC00C0B7BC00C016BD10
:1050B00000605BBD00E0B7BD00C0D5BD0070DCBDC9
:1050C00000E0D1BD00A094BD00A03CBD0080ABBC01
:1050D0000000733C0040523D00E0C03D0060FF3DD9
:1050E00000D8203E0000383E0068473E00F85B3E96
:1050F00000A05B3E0058063E00E0013D000070BA93
:10510000004093BC00601BBD0010A6BD00F004BEB3
:1051100000A039BE00F053BE00382ABE0060FDBDBD
:1051200000A0A4BD008065BD00001DBD00C089BCFD
:1051300000408C3C0060663D00B08F3D0030973DE4
:1051400000806C3D0040943C000022BC0040D6BC76
:10515000002066BD00B09CBD0050DCBD00F0ECBD81
:1051600000E0E2BD00B0C7BD008077BD0040FBBCE1
:105170000000743B00C0153D0070A23D0000F23DF0
:105180000088183E00D8313E0038453E00E0543ECD
:1051900000505E3E0000453E0090B13D0000623B85
:1051A00000C0A7BC00A010BD00407FBD0070DABDEC
:1051B00000F014BE005845BE00C043BE00281CBE0F
:1051C00000C0D1BD00806CBD00C024BD0000B5BCD6
:1051D0000000903B0000163D0090893D0060963D28
:1051E00000408E3D0020493D0000403B0080EABC6D
:1051F000008043BD00908FBD0020BABD0080E8BD97
:1052000000F0F2BD0020E8BD0020A5BD002051BD8A
:10521000000038BC00C0C63C0040593D0000B23D13
:1052200000F0FB3D00A8223E00803B3E0088433E4C
:1052300000C84E3E00704E3E00E0293E00A0723D88
:1052400000800CBC0080EEBC00C02CBD004092BDB4
:1052500000A0DDBD007010BE00603ABE00D82FBEB9
:10526000002008BE0080A6BD000019BD00408ABC19
:105270000000CCBB0000A43C0000313D0000893D93
:105280000020983D00B08D3D0000293D0000A1BBED
:1052900000A01CBD00C07BBD0070A6BD00C0C8BD85
:1052A0000090EFBD0090EFBD0030E4BD00B0A9BD9F
:1052B000008043BD008069BC00C0D63C00006D3D4D
:1052C0000080C43D00F0FD3D00901A3E00B8333E22
:1052D00000B83F3E00B04B3E00E84B3E0078223E17
:1052E0000080613D000087BC00C003BD006022BD9E
:1052F000002085BD00C0D3BD00C00EBE00E034BE9E
:10530000000830BE002002BE006098BD0040E6BC30
:1053100000802CBC0000803800C0B13C0000253D5E
:105320000060753D0090893D0040813D00000E3DCC
:1053300000804EBC00C04EBD00909CBD0000AEBDC4
:1053400000D0C3BD00F0E1BD00B0E1BD0030D7BD6D
:10535000002096BD004022BD0000CCBA00600D3D8B
:1053600000D0873D0030C03D0050F63D00D8123ED1
:105370000058263E0040323E00A0383E00403E3EEF
:1053800000D81E3E00A0443D0040E3BC00604DBD7F
:1053900000605FBD00E093BD0030C8BD00E0FEBD11
:1053A00000D82BBE00B82EBE00780BBE00C099BD41
:1053B00000C0B1BC0000223B0000863C0000B43CB1
:1053C0000040243D00A0623D00308A3D0010863D33
:1053D00000E0313D000034BB00C042BD006092BD22
:1053E0000090B3BD0030C2BD0040CCBD0080C8BD40
:1053F00000E0BEBD00909EBD004040BD0000D8BB97
:1054000000C0F33C00E0713D0030AD3D0040E33DA5
:105410000018003E00D8133E0068263E00602B3E78
:105420000088363E00382A3E0090C23D0000163B00
:1054300000201BBD00A05ABD008085BD0080AEBD10
:1054400000A0D3BD003002BE005826BE00C815BE65
:105450000090CDBD00A040BD0000D0B90080D83C78
:1054600000E0013D00800B3D00801A3D00803F3D83
:105470000070803D0040683D00C0CE3C004099BCBB
:1054800000E071BD00E0BDBD00C0CFBD00C0CFBD1C
:1054900000E0BDBD0030BABD0050AFBD003080BDE2
:1054A0000080D1BC0000073C00E0453D00D0A03D9D
:1054B0000050CB3D00E0F13D0028093E0010163EB3
:1054C0000040243E00082A3E00B8303E00701D3ED9
:1054D0000080813D000097BC002048BD00D080BD09
:1054E000007098BD00A0B7BD0030CDBD00D009BE92
:1054F00000A820BE005010BE0080B4BD008000BDDA
:1055000000803B3C00E02A3D0080333D0060093DC7
:1055100000200D3D00403F3D0050803D00A0793D02
:105520000040B83C0080CCBC003091BD00A0D1BD93
:105530000030E2BD00C0D3BD00B0BEBD00F0BDBDB7
:105540000050B8BD00A08EBD0080F6BC00800C3CB1
:1055500000803B3D00F0A33D00A0CC3D0090F43D19
:105560000048093E00E0153E0098243E00C82E3E4B
:105570000028383E00802D3E0060A83D000008BB9A
:1055800000204CBD00E08EBD00F0A5BD0020B2BDE6
:1055900000A0BBBD00C800BE00C822BE00A018BE4F
:1055A0000020D9BD00A02ABD00800F3C0060453D11
:1055B0000040513D00800B3D00C0F53C00C0203D47
:1055C00000C06C3D00D0823D0080E23C004084BCC5
:1055D00000407FBD0060D5BD0080ECBD0060DBBD3C
:1055E0000050B8BD0070AFBD0000A5BD008078BD03
:1055F00000E023BD000098BA00201B3D00B0A33D91
:1056000000E0D73D0000E53D0080013E0078053E0A
:105610000040103E00801D3E0020303E0078383EA5
:105620000050033E00C0D63C00E035BD007093BD85
:1056300000F0ABBD0010BCBD0020BABD00E0CFBD86
:10564000003015BE00C01CBE001007BE00309EBD5D
:1056500000009DBC0040EC3C00C0813D0080643DEA
:1056600000C0303D00202B3D00805C3D00406F3D80
:1056700000204D3D00C0A03C0000F2BC0020A5BDB4
:105680000070E7BD0070FABD00D0EBBD0060CEBD7C
:105690000050BEBD00509CBD006075BD004013BDF4
:1056A0000000C93B0080473D00B0B63D00C0E03D72
:1056B00000B0FA3D0000053E00F0063E00C0163E78
:1056C00000B8233E0060313E00682A3E0030C93DEC
:1056D00000800D3C00A05BBD00E0AFBD0070C2BD0E
:1056E0000050C6BD0040B6BD0050CBBD00380BBE5B
:1056F00000F015BE0040FBBD0090A2BD0000A7BC9D
:1057000000E00F3D00E08C3D0010863D00004E3D66
:105710000000593D00C0603D00C06C3D0040433D6D
:1057200000C0E63C00C091BC00B09EBD0060E1BD81
:10573000004004BE0040F0BD0020D8BD00F0B0BD68
:1057400000408BBD00406FBD004022BD00009ABBF1
:1057500000A0173D00509E3D00A0D53D00A0FB3DA0
:1057600000F0053E00480A3E0038093E0030113E78
:105770000010223E0060233E0040DB3D00809F3C45
:10578000008055BD00D0BEBD0090E3BD0090E5BDDA
:105790000070BEBD00C0B7BD00D0F8BD00500FBE48
:1057A00000C800BE0060ACBD0080C1BC00003B3D35
:1057B0000020B23D00E0C43D0060A33D00B0873D45
:1057C0000060723D0020583D00402C3D00C0D63C9A
:1057D000008039BC00108EBD0020E3BD00800EBEED
:1057E000009811BE0040F7BD00D0BABD00A081BD39
:1057F000008056BD00E02EBD000095BC00C0913C6D
:1058000000007F3D00D0CD3D0060013E0060033EC2
:1058100000B0F83D0030F33D00C0F13D00F8013E1E
:1058200000A8133E00F00B3E0040813D0040C5BC87
:1058300000F09ABD00D0E7BD00A0F9BD0040D9BD81
:1058400000A0A3BD0090B3BD0030EFBD0060F5BD6A
:1058500000B0CBBD00E074BD000090BA00E08A3D0E
:1058600000C0DB3D0070D13D00C0B33D00C08E3DA7
:105870000080593D00202B3D00600C3D0040BF3CA6
:105880000000C5BC00F09FBD004001BE00E015BE99
:10589000005012BE0010FABD00C0C2BD00F096BD9F
:1058A00000C073BD002026BD00C089BC0000803C44
:1058B0000020663D0060C33D00D0F03D0060F23D39
:1058C0000040E53D0020DF3D00A0E43D00D0EE3D7E
:1058D0000038093E0090013E00C03F3D004004BD3D
:1058E0000050A9BD0060F2BD004000BE00D0CDBD9B
:1058F00000208BBD008099BD0000C7BD0070D1BDE8
:1059000000E0AFBD00E050BD0000083C00D09A3D73
:105910000030E93D00D0D63D0060B43D0080963DAA
:1059200000206A3D00A02D3D0080F83C00C0913C65
:105930000000ACBC00B0A2BD00D0F4BD003016BE6B
:1059400000001ABE002006BE0080CCBD006090BDE5
:10595000002062BD00A01CBD0000B5BC00007C3B67
:1059600000C00E3D00F0873D0040C83D00D0DA3D4C
:1059700000E0D53D00B0C33D0030B73D00D0BC3D98
:105980000090DC3D0000FB3D0030D53D0080D23C66
:10599000002017BD0010A6BD0060D5BD00F0CCBD35
:1059A00000D08BBD002020BD004074BD00A09DBD77
:1059B0000000A9BD00409BBD00C028BD00009E3C6A
:1059C0000050A43D0030DC3D0070C23D0040A33DCE
:1059D00000E0743D00003C3D0020203D00E00C3D17
:1059E0000080493C006002BD0080A1BD0070FCBD8C
:1059F00000F81ABE007813BE00F0FFBD0020BFBD46
:105A000000E093BD00E071BD000047BD002002BD75
:105A10000000A5BB0080EA3C00E0783D00B0A53D59
:105A200000A0BB3D00A0B53D00F0B03D0030B53D4D
:105A30000060C13D00E0D73D0060EC3D00A0EE3DC0
:105A400000E0663D00800DBC000046BD00A0A8BD82
:105A50000060BBBD0030AABD00605BBD00C060BD82
:105A6000002098BD00909ABD00C088BD000046BDD2
:105A70000000EEBB00E0543D00D0BE3D0020C73D1D
:105A80000000BA3D00A09D3D00607A3D00C0423D4F
:105A900000C01D3D00C0BE3C008080BC003086BD03
:105AA0000030DCBD003015BE000026BE00F81CBE74
:105AB000007805BE00C0CFBD00B09CBD002066BD13
:105AC000006022BD00C093BC0000F83B0000123D06
:105AD0000040853D0040AE3D00E0C63D00B0C93D00
:105AE0000030B73D00D0A73D00D0A03D0080B03DC4
:105AF0000080CA3D00A0EE3D0080C13D0000C53CD5
:105B00000000BDBC000064BD00D085BD004068BD84
:105B100000C0FABC00803DBC00C011BD000052BDF9
:105B2000000077BD006076BD00C016BD00008F3C50
:105B300000C08A3D0080B43D00E0AA3D0050973D82
:105B400000203A3D0040C73C0080853C00803E3C40
:105B5000008000BC00C068BD0070C4BD000004BE71
:105B6000000027BE00B822BE00C00CBE00F0D0BDB1
:105B700000709CBD00A05BBD006002BD0040B7BCD2
:105B8000000068BB0080E03C00A0623D00509C3DEE
:105B900000209F3D00E09F3D00C0923D0080833D7E
:105BA00000807E3D00E0843D00A09F3D0090C03D10
:105BB0000050EF3D00B8013E0000963D0040AF3C74
:105BC0000000E9BB00A005BD00A022BD00C0F2BCE2
:105BD00000801DBC0080E0BC00E056BD008088BD98
:105BE00000209ABD00B08BBD00601BBD0080653CED
:105BF00000A03A3D00E0473D00003F3D00000F3D62
:105C00000080773C0000EC3B00803D3C0000523CB3
:105C100000005EBB00C015BD00C090BD0000E5BD2A
:105C2000006005BE006005BE0020D8BD00409FBDDD
:105C3000004061BD000035BD00C029BD00A026BDEB
:105C40000000B4BC000090390080DF3C0040513DB2
:105C500000008B3D0040963D00508D3D00608E3D24
:105C60000030A03D00A0BD3D0060D03D0030F63DBD
:105C70000078063E00600F3E00F0DF3D0020513D01
:105C80000000293C0080EEBC00C05DBD00D085BD99
:105C900000E065BD00805DBD0020ABBD0070D3BDE0
:105CA0000090E7BD00A0E0BD0070ADBD0000F8BCF5
:105CB0000040A93C0040563D00207E3D00B08F3D95
:105CC00000A06D3D0080333D00C01D3D00601F3DC4
:105CD00000A0013D0000783B0080FDBC00B0ADBDE0
:105CE00000F00ABE00081CBE006020BE007004BEAA
:105CF00000D0CEBD00208DBD006048BD00600CBD51
:105D00000040A2BC0000083B0040123D0040903D16
:105D10000050C63D00D0DF3D0010CD3D00F0B23D4B
:105D200000B0913D00A0693D0040683D0090843D79
:105D300000508D3D0070953D00D0983D0090983DFD
:105D40000040C73C00C0BDBC008034BD004087BDE2
:105D500000B091BD00D083BD006022BD004031BDC8
:105D600000406CBD00206BBD006058BD00E023BD4D
:105D7000000004BC0020183D00B08B3D0090893D20
:105D800000407C3D0080433D00C0BF3C0000D43B50
:105D90000000C4BA000034BB008067BC00601FBDB7
:105DA00000E079BD0000CCBD008001BE003005BE22
:105DB00000A0E2BD00D0A3BD00A048BD004091BC42
:105DC0000000B0B90000A43A0080673C0080E13CCC
:105DD00000E0263D0040463D00806B3D00005A3DFE
:105DE00000800F3D0080573C00003CBB000045BCDC
:105DF0000000DABB0080303C00C0F53C00E04C3DC8
:105E000000F0813D00B0A73D0020C13D00E0843D91
:105E100000E01B3D0000F23C0000273C000034BBCA
:105E20000000BABB00001A3B00C098BC00E045BDB2
