:020000042000DA
:04035C0000787FBFE7
:1003600000F0E3BE00B0913D00C0C63D0090C23D2C
:100370000090BA3D0050B13D0010AC3D0050A93D89
:100380000040A53D0090A23D0010A03D00709E3DA4
:1003900000E09B3D0050993D0050953D00E0933DAD
:1003A0000050913D00008F3D00808C3D00208B3D32
:1003B0000010883D0010863D0010823D0020813DE8
:1003C0000010803D00807B3D00E0753D0000713DE8
:1003D00000206F3D00606B3D0080683D00005E3D89
:1003E00000405D3D00E05A3D0020573D0060533D18
:1003F00000A04F3D00E04B3D00404A3D00E0443D41
:100400000020413D00A0403D00003B3D0060393DE3
:100410000080343D0060323D0040303D00802C3D86
:1004200000202B3D0020263D00C0243D00E01F3D64
:1004300000001E3D00C01C3D0080193D0080163D9F
:100440000040153D0020113D00E00C3D00800B3DBB
:1004500000400B3D00C0073D00A0053D0040033DAE
:100460000000FF3C00C0FA3C0040FA3C0040F33C76
:100470000040EC3C0080EE3C0040E63C00C0E43C28
:100480000080DF3C0080DB3C0040D43C0040D73C97
:100490000080D03C0040CD3C0000CB3C00C0C53CBF
:1004A00000C0BF3C0040BE3C0080BA3C00C0B73C2E
:1004B0000040AF3C0080AD3C008055BD0060D2BD27
:1004C00000F0AEBD00E074BD00C007BD008066BC9A
:1004D000000089BB00800D3C0080A33C0020243D2F
:1004E00000C0703D0030993D00D0B63D0000DA3DBF
:1004F0000090F43D00900A3E00A8163E0090203E79
:1005000000702F3E00F83A3E0000413E0010463E8B
:1005100000804B3E0038533E00A8623E0060673EBC
:1005200000886E3E0068753E00207D3E00307F3EB4
:100530000050823E00D4843E0064863E0000863E29
:100540000070893E00A88B3E00448D3E005C8C3ECE
:1005500000788E3E00DC8E3E00AC903E00DC923E89
:100560000098953E00CC963E0000953E00D4943E07
:1005700000DC923E00DC933E0040923E00E8913E5B
:1005800000AC913E0070903E00E4923E00E0913E4F
:100590000094923E00948F3E002C8E3E00748B3E61
:1005A00000B4893E00548C3E00CC873E0028863E35
:1005B00000F4853E0008853E0038853E00A0843E5C
:1005C00000D4853E00A0843E007C823E00AC813E8B
:1005D0000060813E00D0833E0040823E00F87B3EBA
:1005E0000088733E0090763E0088703E0090693E21
:1005F00000706B3E00B86F3E0000703E00E0703E41
:1006000000586F3E00F06E3E00006D3E00E86C3E0C
:1006100000E06F3E0040703E0090683E0040613E4A
:1006200000005E3E00905B3E00505C3E00F8573E8E
:100630000048593E00A85B3E00D8583E0088543E12
:100640000048563E0050593E0068533E00C84B3E9D
:100650000088463E0020413E0060403E0080393E1A
:1006600000483A3E00C03A3E00503C3E00903A3EC0
:1006700000903A3E0050333E0060313E00D02B3EA9
:100680000038283E0088273E0020213E00B01E3E54
:1006900000F0183E0030163E00E8133E00A8133E5E
:1006A00000B8113E00B0093E00F0043E00D8023E02
:1006B00000E0F73D0090F43D0070F43D0020F23D75
:1006C00000E0E43D00B0E53D0050E93D0040EE3D76
:1006D0000060F03D00E0E63D00C0E63D00E0EA3DA0
:1006E00000B0EB3D00F0DD3D00D0D23D0030CF3D0D
:1006F00000B0C93D00C0C43D00D0B63D0070B33D60
:1007000000B0B63D00F0BD3D0060C33D0080CA3D75
:1007100000E0CD3D0060CE3D0040D03D0010D53D15
:1007200000D0CE3D0050CD3D0010C63D00C0BF3DC5
:100730000090BC3D0090BC3D0010B33D0050B13D69
:100740000080B23D0020B63D00E0B93D0030B33D31
:100750000070A63D0090A73D00C0A43D0090953DCF
:1007600000C0923D00B0913D00E0993D0000943DF5
:100770000010933D00908B3D00108C3D00908D3D0E
:1007800000B08F3D0030843D00407B3D00007B3D4C
:100790000020713D00806C3D00805A3D00604D3D61
:1007A00000004A3D00205C3D00C0493D0020443D22
:1007B0000020323D00E02A3D0080213D00C0113D77
:1007C00000A0053D0000003D0080F93C0080FE3C9B
:1007D0000040033D0040FC3C00E0043D00E0003DE3
:1007E00000800B3D00C0073D00A01B3D00001E3DEA
:1007F0000020203D00E0043D0000F63C0040EE3CBF
:100800000040CF3C0000C23C00009C3C00409B3CB0
:100810000000BD3C0080E03C00A0083D0040EC3CF6
:100820000000F63C0020083D0020053D00C00A3DC8
:100830000080FF3C0000033D0000D93C00C0BF3CED
:100840000080BB3C0040CE3C0000D83C0080FD3C1A
:100850000020023D00C00B3D00400B3D0020083D44
:100860000080EA3C0040E63C0080F63C0080E73C2B
:100870000000C53C00C0B73C00C0DE3C0080DF3C4F
:1008800000C0EA3C00C0BF3C0040D53C0080B43C06
:1008900000008F3C0080593C0000633C00806A3CB3
:1008A00000005E3C0000283C00804D3C0000353CD0
:1008B00000004F3C0080383C0000CB3B00002C3B4C
:1008C0000000D0B9000008BA000046BB00001ABB07
:1008D0000000B43A0000443B000090390000D039D9
:1008E000000000B90000443B00001A3B0000D03972
:1008F0000000AE3B00009E3B0000893B0000F63B41
:1009000000009E3B0000383B0000D4BA000038BB1A
:100910000000C5BB000028BC00000ABC0000B6BB3C
:100920000000783B00800D3C00802A3C00804A3C5F
:100930000000423C0000163C0000453C0080013CA9
:100940000000FD3B0000083C0000523C0000D43B8E
:100950000000923B0000303B0000D63B00000A3C08
:100960000080033C0000B43B0000BA3B0000E03ACA
:1009700000009F3B00009C3B0000283A0000F0BABA
:1009800000004ABB0000083A0000F8BA00004039F5
:100990000000283A00000E3B0000343B000080BA03
:1009A0000000683B0000683B000080BB00003CBBCF
:1009B0000000F8BA000078BB000080BB000094BBC8
:1009C0000000A5BB0000DBBB0000EEBB008029BC23
:1009D00000005EBC008081BC00408CBC000028BCD4
:1009E0000000F8BB0000E9BB00802CBC000006BC86
:1009F0000000DBBB00009ABB00001ABB0000ABBBD1
:100A00000000F0BA000080390000D2BB0000ADBB8E
:100A10000000B2BB0000E5BB000023BC000094BB9B
:100A20000000DDBB000064BB000022BB0000F0B989
:100A30000000743B00009C3A000038BA0000B03B54
:100A40000000D83B0000563B0000903A000052BB2B
:100A5000000080B90000B0B9000070BA0000A4BA6C
:100A600000009F3B0000783B0000903B0000D83B1B
:100A700000002C3B0000A13B00004E3B00004A3B25
:100A8000000074BB000070BB00000EBB000028BA61
:100A9000000000B900002C3B0000603A0000B43AAE
:100AA0000000CCBA000080380000043B0000803811
:100AB000000078BB0000A4BA00009EBB000040BB51
:100AC0000000FFBB000081BB0000E8BA000098BB3B
:100AD000000094BB008002BC00803BBC008077BC5F
:100AE00000802FBC00802FBC00801CBC000006BC16
:100AF0000000EABB000030BB000012BB0000000099
:100B00000000F0BA000026BB000087BB0000D0BB8D
:100B100000003CBB00000ABB0000D8BA0000F8BAD5
:100B2000000000BB000074BB000088BA000088BA57
:100B3000000000390000C43A0000F0B9000038BAE3
:100B400000006C3B0000833B00007C3B0000D63B78
:100B50000000463B00000A3B0000DD3B0000163B66
:100B6000000018BA0000883A000080BA00002C3B50
:100B70000000083B0000C43A00004ABB00000EBB66
:100B80000000A43A00008B3B000060BA00008FBB5D
:100B90000000EABB0000D6BB000090BA0000F0BA2B
:100BA00000000000000094BB000068BB0000CEBB4A
:100BB000000094BB000030BB000040BB0000D4BA72
:100BC0000000DBBB0000FFBB000081BB0000A9BB35
:100BD0000000BDBB0000EEBB00801EBC008010BC4E
:100BE00000803EBC000028BC00803ABC008096BC5F
:100BF000000062BC000006BC000052BB00008DBBC0
:100C0000000009BC0000B8BB0000CCBB000056BB14
:100C100000001EBB000056BB000012BB00002CBB36
:100C2000000081BB00003CBB000026BB000038BBBD
:100C3000000078BB000092BB000008BB0000AEBB08
:100C4000000040BB00008FBB00009CBA0000D03900
:100C5000000080BA0000983A000090BA0000D43A30
:100C60000000563B000000390000903A000028BA0E
:100C7000000040BB0000D03900009E3B0000D0B90E
:100C8000000016BB000044BB000030BB000030BBBE
:100C900000007CBB000000390000C4BA00008DBB1E
:100CA00000004ABB000040BB000080BA0000F8BA58
:100CB0000000C4BA000004BB0000ACBA000089BB4D
:100CC000000089BB000070BB000052BB0000D8BA16
:100CD0000000CCBA000004BB000028BA0000ACBA87
:100CE0000000C9BB0000EEBB0000BCBB0000E7BBBE
:100CF00000805DBC00806ABC008058BC00803ABCAB
:100D000000801ABC0000F8BB000085BB000094BB4B
:100D10000000CBBB000043BC0000D6BB000008BCF9
:100D2000000028BC008066BC008020BC000019BC0C
:100D30000000D6BB0000E7BB0000E7BB000098BB8B
:100D400000008BBB0000DBBB0000E9BB000013BC54
:100D50000000B6BB00004EBB000016BB000050BA3E
:100D6000000034BB000018BA00008039000080BACF
:100D70000000403B0000E53B00008D3B0000E83AEE
:100D80000000383A0000AE3B00001A3B0000123B66
:100D90000000D43A000026BB0000F8BB0000F4BB02
:100DA0000000C9BB0000ECBB0000ABBB0000A3BB54
:100DB00000000EBB000018BA00009ABB000088BA01
:100DC0000000283A000008BB000090BA000050BAAA
:100DD000000004BB0000ABBB0000E3BB0000B4BBE1
:100DE0000000D23B0000ACBA0000A1BB000055BC23
:100DF000008002BC0000F8BB00800FBC008038BC43
:100E0000000033BC00801DBC000051BC00800BBC46
:100E1000000024BC000006BC0000FFBB0000DABBE1
:100E20000000AEBB00000ABC000007BC00802EBC66
:100E300000000BBC000013BC0000BFBB0000BABB2D
:100E40000000C13B000030BB00009EBB0000F8BBAF
:100E500000000A3B0000903A0000B0B9000056BB09
:100E600000002CBB0000ACBA0000903A0000C4BAED
:100E7000000034BB0000E1BB000078BB0000463B33
:100E80000000DA3B0000A33B0000283A0000AD3B25
:100E90000000053C00800E3C0000AD3B00003CBB68
:100EA00000001ABB0000983A00000ABB000062BBB9
:100EB000000074BB0000BC3A0000BCBA000028BAB5
:100EC0000000A4BA0000283A0000D43B0000B43B64
:100ED0000000E33B00005A3B0000D8BB000050BAC2
:100EE00000004A3B0000443B0000C7BB00800EBC32
:100EF000000083BB0000D4BA0000CEBB00801CBC45
:100F0000000017BC00804BBC00802ABC00803CBCA9
:100F1000000040BC000061BC000080BC0000E1BBE0
:100F2000000053BC0000D0BB008011BC00009FBB80
:100F30000000DABB000044BB00805BBC00803FBC0B
:100F4000000062BC008010BC0000BFBB000032BCCF
:100F5000008029BC00803EBC0000A4BA0000000054
:100F6000000068BB0000A3BB000070BA0000D43AC8
:100F70000000E03A0000E8BA000081BB0000703BCE
:100F80000000053C0000BF3B00000E3B0000B03BF2
:100F90000000383C00000A3C0000B03B0000133C5D
:100FA0000000D039000052BB008021BC0000B8BB5B
:100FB000000064BB000081BB000046BC0000FBBB1E
:100FC000008039BC00803FBC000030BB0000AE3B5D
:100FD0000000563B0000B0B9000090B9000081BB92
:100FE0000000B23B0000CE3B00008B3B0000D83A33
:100FF0000000C4BA0000AD3B00008DBB0000F0BB98
:10100000000081BB00801FBC000038BC00000EBB8C
:1010100000004EBB00005FBC008065BC0000DFBB71
:1010200000800FBC000029BC000046BB008003BC50
:1010300000006CBB000022BB00006CBB00803DBC0C
:10104000000096BB00005E3B0000ACBA00000ABB8B
:10105000000060BA0000703A0000E93B0000283A46
:10106000000080BB0000BDBB00005ABB008001BC7B
:1010700000800F3C000034BB000070BB000080B952
:101080000000CB3B0000903900007C3B0000CE3BD1
:101090000000223B0000503A008002BC0000F2BB7E
:1010A0000000083A0000193C0000223B00005A3BB7
:1010B0000000BABB00800FBC0000A13B000016BBC3
:1010C0000000A5BB00804CBC0000E9BB0000ADBB2C
:1010D00000008BBB000012BB0000F0B9000056BB43
:1010E0000000983A0000523B000070BA00009CBA21
:1010F0000000003B0000CC3A00803CBC0000EABB92
:10110000000040BA0000403900000ABC00009CBA50
:10111000000008BA000083BB00802DBC00008F3B9C
:1011200000009FBB0000C9BB000037BC00C083BCEF
:10113000000052BC0000F6BB000043BC000036BCFF
:101140000000EEBB00802DBC0000B0BB000004BB63
:101150000000C1BB008021BC0000B2BB000060BC2D
:10116000008097BC0000DFBB00004EBB000037BC16
:101170000000283A0000C5BB000028BC000090BB5E
:101180000000C93B0000D23B000040B90000EC3B2E
:101190000000123B0000D83A00000A3B0000AE3BC2
:1011A0000080013C0000703A000040B90000CC3BD8
:1011B00000000ABB0000BABB000080B9000046BBBB
:1011C0000000903A0000BCBB0000FFBB0000F2BB77
:1011D00000801FBC0000D8BA0000C7BB00000000A0
:1011E00000008BBB000074BB0000123B0000803984
:1011F0000000623B000062BB00009F3B0000703BB0
:101200000000383B00803ABC000083BB000017BCE4
:10121000000009BC00807BBC00C082BC00801DBCFB
:1012200000800CBC000046BC000040BB000023BC9A
:1012300000008DBC00802EBC008059BC00408CBCDE
:1012400000805DBC00803ABC00804DBC000043BC07
:1012500000000ABB00C099BC008038BC00009EBBE7
:1012600000009EBB008012BC000080BB000006BCDA
:1012700000804CBC000094BB00802EBC000086BCEB
:101280000000D6BB0000CCBB0000ACBA000030BBF5
:10129000000098BA0000A7BB000034BB0000F03982
:1012A00000006C3B0000813B000040BB00009C3B09
:1012B000000094BB0000F4BB00008039000038BA85
:1012C0000000FDBB0000E0BA00009ABB000038BB84
:1012D0000000A9BB0000F2BB000036BC0000D4BB7C
:1012E0000000C1BB0000B4BA0000D4BB0000F4BBD6
:1012F0000000E1BB0000143C000070BA00000EBB0F
:1013000000004E3B000000B900008FBB0000D2BBC4
:101310000000D8BB000051BC0000DABB000009BCD3
:10132000008030BC000056BB0000C1BB00005ABBAF
:101330000000C3BB00802ABC008048BC008049BCC0
:10134000008000BC0000E7BB0000FDBB008066BC65
:10135000008049BC008002BC000060BC0000CBBB28
:10136000000004BC0000283A0000923B0000183A3C
:101370000000BC3A00008DBB000080B90000E0BA5C
:10138000000025BC0000FBBB0000B0B9000004BC9D
:101390000000D4BA0000523B000000BB0000E13B5B
:1013A0000000E93B00004EBB0000B0390000473CA4
:1013B000000018BA0000E9BB000030BB0000DBBB36
:1013C000008030BC000033BC0000F6BB008020BCB5
:1013D000000090BB000080BA0000DABB0000C3BB75
:1013E000000044BB0000DBBB0000BDBB000083BBB2
:1013F0000000EABB0000D0BB0000A5BB00001ABB88
:10140000000000BB000000390000F8BA0000283AD4
:101410000000063C0000343B000000B9000083BB24
:101420000000BABB000080BC008030BC0000E1BB03
:10143000000042BC00807ABC000017BC000053BC16
:10144000000031BC000014BC000087BB000024BCBD
:101450000000E7BB00008BBB00802DBC0000D4BAAD
:101460000000EEBB0000E1BB000089BB0000B0B98A
:1014700000009F3B000028BA0000893B000040B9F3
:101480000000E83A000090BB000090B9000030BBBB
:10149000000005BC0000BCBA00008BBB0000EEBB26
:1014A000000087BB000044BB00001ABB0000F0B97D
:1014B00000008F3B000070BA0000C7BB000052BBA9
:1014C000000094BB0000F2BB0000C7BB00800BBC57
:1014D0000000A7BB0000AEBB00004E3B00004EBBAF
:1014E00000004ABB000040390000783B00009C3BF4
:1014F0000000B0390000F0B9000056BB00003C3BD2
:10150000000030BB0000703B0000D83A000050BA29
:101510000000DA3B000028BB000022BB0000EC3BCF
:1015200000009CBA000064BB0000D83A0000B4BBC5
:101530000000C5BB0000F6BB0000B0BB000017BC3C
:101540000000163B00008BBB0000E5BB000064BB45
:101550000000EEBB000038BB0000D4BB0000E7BBBE
:10156000008001BC000008BC000019BC000064BB86
:10157000000098BB0000BFBB00006CBB00009C3AA1
:1015800000009CBA0000743B00802D3C0000503AE3
:1015900000000000000078BB0000D83A0000803B4B
:1015A00000000ABB0000703A000026BB0000523B5E
:1015B0000000B0390000D23B0000923B0000003B2D
:1015C00000009CBA0080003C0000F2BB00801FBC01
:1015D0000000ACBA000004BC000014BC000056BB04
:1015E000008058BC00000ABC0000D4BA00003CBB1C
:1015F000008059BC0000883A0000BCBB000009BC58
:10160000008002BC000040BA008030BC000070BA0C
:1016100000004EBB0000DABB0000503A000000B9E9
:1016200000802ABC00008FBB0000283B0000DBBB11
:101630000000F0BB000016BC000034BB000044BC3E
:1016400000801BBC0000F2BB008002BC00009CBB01
:10165000000074BB000085BB000042BC00005EBB04
:1016600000003CBB00009EBB0000D2BB000094BB4E
:10167000000070BB000040B90000A93B00004E3BD9
:101680000000603A000074BB0000D039000088BA46
:101690000000EEBB000064BB00008DBB000009BC75
:1016A000008003BC0000B43A0000ACBA0000BABB32
:1016B000000040BB000008BB0000903B0000F8BAEF
:1016C00000009CBA0000C4BA00001ABB0000ECBBCA
:1016D0000000F2BB0000A7BB000013BC0000FBBB76
:1016E000000064BB0000A9BB0000ECBB000015BCFF
:1016F00000001ABB000094BB00009039000034BB0E
:1017000000008D3B0000B83B000008BA0000083A1A
:101710000000BCBA0000503A00001EBB00002C3B89
:10172000000028BB00009EBB0000A43A0000403A25
:10173000000080BA00001ABB000018BA008020BC6C
:1017400000008FBB000098BB0000CBBB0000EEBBCD
:101750000000C4BA0000B4BA00802FBC000085BBF2
:101760000000F8BA0000D8BA000090BB000094BB9B
:10177000000024BC000006BC00802CBC00000ABB9A
:1017800000000ABB000008BC00008BBB000026BBA9
:101790000000D2BB0000D8BB0000F0BB0000A5BB1E
:1017A0000000C4BA000030BB008030BC0000E1BBC8
:1017B000008029BC0000803A008000BC0000C1BB52
:1017C000000028BB00001EBB0000A1BB00008DBBB9
:1017D000000000000000E1BB0000E83A00002C3BE4
:1017E00000004ABB000080BA0000283B0000B0396E
:1017F0000000183A0000F03A0000183A0000503A91
:101800000000603A000000B90000623B00000039AF
:101810000000A9BB000050BA0000CBBB0000B0BB69
:101820000000D2BB0000DABB0000FFBB00806BBC35
:1018300000007EBC00804DBC000040BC00803FBC6E
:1018400000803ABC008078BC000073BC008038BCCB
:10185000008065BC00801BBC00806CBC00C09BBCD1
:1018600000805DBC00807BBC00803EBC0000B2BB41
:10187000000006BC00801CBC0000F4BB0000C4BA21
:101880000000B6BB000080B80000B43A0000E8BA1F
:101890000000B23B0000CE3B000080B90000623B7C
:1018A00000801B3C0000813B000040B90000783BF9
:1018B00000004EBB000040B9000038BA00004039BB
:1018C0000000983B000000000000B0390000813BA0
:1018D00000001E3B00003C3B0000F03A0000B43A20
:1018E000000052BB0000A4BA000028BA0000E8BA09
:1018F00000001ABB0000083A00005ABB0000043B7D
:1019000000000A3B000068BB0000D8BA0000783B2A
:10191000000022BB00009FBB00001ABB000092BB6E
:101920000000D6BB000027BC00001ABB0000ACBA08
:101930000000A4BA0000D6BB0000B0BB00000BBC86
:10194000000023BC00803ABC0000E3BB000034BCB4
:10195000000026BC008039BC00004ABB00000ABB66
:10196000008010BC0000B4BB00000ABB000080BBBC
:10197000008002BC000000BB000080B800000BBC6F
:101980000000F8BA00000000000034BB000090BB6B
:10199000000012BB0000603A0000283A000038BA8C
:1019A00000006CBB0000CCBA00009EBB0000C9BBAD
:1019B00000004ABB0000C1BB000016BC0000E3BB36
:1019C0000000A1BB0000FFBB0000A1BB00009039DC
:1019D0000000F8BA00007CBB0000703A0000AC3A8E
:1019E0000000F0B90000043B0000623B0000F03A48
:1019F0000000CBBB000052BB000026BB000040B97A
:101A000000009039000030BB0000F83A000070BAC6
:101A10000000703B00000A3B0000B0B90000E8BACB
:101A20000000983A0000083B00001ABB0000DDBB34
:101A300000002C3B0000E8BA0000883A0000A43AFD
:101A4000000090BB00002CBB000040B9000008BAA9
:101A50000000BCBB000088BA0000D4BA0000AEBBD6
:101A600000001EBB0000B2BB0000E7BB0000B6BB1D
:101A7000000074BB00009EBB00801DBC000030BB9A
:101A80000000FDBB0000E7BB0000883A0000C5BBBA
:101A900000801BBC0000CCBA0000043B0000DFBB90
:101AA0000000B4BB0000E8BA00009ABB0000CCBB49
:101AB0000000BABB00801EBC000014BC0000C7BB05
:101AC000008001BC000052BC0000D6BB000004BC7A
:101AD000000008BC00000ABC00801CBC0000C7BBA2
:101AE0000000BCBA008000BC0000A7BB0000F03AB8
:101AF0000000883A00000EBB000094BB0000D8BB79
:101B00000000CCBA000000B9000064BB0000983BA4
:101B10000000383B0000803A0000813B0000803B21
:101B20000000F83A0000883A0000DD3B0000D0B920
:101B3000000080B80000F03A0000E0BA000080BA6F
:101B4000000080BA000040B900005ABB000070BB22
:101B5000000098BA0000EABB000029BC000005BCE8
:101B60000000DABB000098BA0000FFBB0000BFBB5A
:101B70000000DFBB00801CBC000092BB0000C9BBA2
:101B80000000BABB0000BABB000090B900008BBBDC
:101B90000000CEBB000098BA00009ABB000090BACB
:101BA000000064BB0000CCBB0000B2BB0000B6BBB1
:101BB000008000BC0000D8BB00008DBB0000D8BB7B
:101BC000008021BC000034BC000024BC000051BCDB
:101BD0000000F8BB000004BC008059BC008076BC4B
:101BE00000801FBC0000A7BB00009EBB000052BBD2
:101BF000000004BB00000A3B0000CCBB0000D83A48
:101C00000000463B000064BB00009CBB0000AB3BF7
:101C1000000046BB0000B2BB0000383A000044BBE5
:101C2000000004BB0000803A0000D8BA0000ADBB41
:101C30000000163B000090390000ADBB0000E5BB82
:101C40000000BDBB000098BB000083BB0000ECBBE4
:101C5000000034BB00009ABB00009039000018BAA5
:101C6000000019BC0000F8BA00005A3B0000B8BBE5
:101C70000000DABB0000A7BB0000C9BB00002CBB02
:101C80000000A1BB0000F4BB0000A5BB000023BC0A
:101C9000000007BC00800DBC0000F4BB00009CBB32
:101CA0000000A7BB008011BC0000C3BB0000B0BB9C
:101CB0000000EABB0000F0BB000078BB00005EBB88
:101CC00000005EBB000078BB0000A43A000008BB27
:101CD000000090B90000E8BA0000D8BA008003BC48
:101CE0000000EEBB000005BC0000F2BB00007CBBA6
:101CF0000000DABB000081BB00008BBB000064BBAE
:101D00000000C3BB0000BC3A0000E3BB000096BB70
:101D1000000022BB0000D0BB0000A1BB000098BBAC
:101D20000000A7BB0000A7BB000080390000DDBB9E
:101D30000000F83A0000AC3A000090BB00000ABB7B
:101D4000000090B9000092BB000092BB0000E03A96
:101D50000000BCBB00801CBC000005BC0000C9BB6F
:101D60000000EEBB0000ABBB0000D8BB00005ABBBC
:101D7000000080BA0000FD3B000038BA0000703A55
:101D80000000883A000070BB000044BB0000603ACD
:101D90000000D0390000803800009A3B0000A43ACF
:101DA000000090390000893B0000043B0000D83A55
:101DB0000000C13B0000B6BB000034BB00007CBB90
:101DC000000000B9000040BA0000B4BA00001ABB1D
:101DD000000096BB000070BA000012BB0000DFBB21
:101DE000000062BB000018BA0000E03A0000B0B981
:101DF0000000D4BA00007CBB0000283A0000D4BA2E
:101E000000001EBB000090390000F03A00000039CD
:101E1000000080380000F03A000083BB000083BB64
:101E20000000B8BB0000DABB0000E8BA00008DBBC0
:101E3000000062BB000064BB0000ABBB00008DBBB8
:101E40000000CCBA0000FFBB00008FBB00007CBBD1
:101E50000000AC3A0000C9BB00009FBB000046BBBD
:101E60000000E1BB0000903A000008BA000088BA08
:101E7000000000B900000E3B00009EBB000064BBE8
:101E8000000080380000183A0000AC3A000038BA70
:101E9000000052BB0000B8BB000030BB000078BBA4
:101EA000000012BB0000C4BA000040B9000060BAD4
:101EB0000000BC3A00004A3B0000703A0000AC3A17
:101EC0000000443B0000C73B0000903A0000B83BD4
:101ED0000000DB3B0000703B0000183A00009F3B15
:101EE0000000AC3A0000B4BB000080380000F0BA3B
:101EF0000000C7BB0000D4BB000094BB0000DFBBE8
:101F000000802ABC000052BB000017BC0000E5BBEB
:101F1000000078BB000052BB000006BC000030BBD4
:101F20000000F0BB00001ABB00009CBA000000BB20
:101F3000000044BB00008BBB0000B4BB0000BFBB73
:101F40000000F0B9000022BB000040B9000018BA40
:101F50000000893B000090390000D43A000074BBB7
:101F6000000034BB0000E8BA000080BB0000DDBB0D
:101F700000004ABB000080BA00004ABB000028BA3B
:101F800000006CBB0000D0B90000F0390000BC3A82
:101F90000000DB3B00001E3B00008039000060BAFF
:101FA0000000303B000094BB0000F0BA0000ADBB65
:101FB00000004EBB0000183A00000EBB00005ABBE8
:101FC00000008BBB0000CBBB0000D0BB000040BBBF
:101FD000000074BB0000DFBB0000D0BB00005ABB98
:101FE000000022BB0000F0BA0000AEBB0000A1BBA5
:101FF00000005EBB0000E7BB000017BC0000D0BBC8
:102000000000C7BB0000C7BB0000F9BB000070BBED
:1020100000007CBB00009CBB00008BBB000060BAD2
:102020000000B4BA000044BB000090B900000E3BB1
:102030000000F0B9000052BB00008038000080BAF8
:10204000000056BB000096BB000000000000D03925
:1020500000008038000004BB00002C3B00001EBBC9
:1020600000008FBB000028BB000064BB000040BB29
:102070000000E0BA0000FDBB0000C1BB0000B039A9
:10208000000012BB000000B90000BDBB0000BCBBDB
:102090000000D0390000D43A000088BA0000B0B97E
:1020A000000000B90000B6BB00004ABB0000343B92
:1020B0000000D2BB000083BB000016BB0000E9BBE0
:1020C00000009ABB00000EBB00002CBB0000903A41
:1020D0000000E0BA0000A9BB000090B900003CBBC2
:1020E00000009CBB0000C4BA0000083A0000BDBB61
:1020F0000000E1BB00004ABB000089BB0000A9BB97
:10210000000088BA0000AEBB0000ECBB0000F0BBD2
:102110000000A5BB000098BB000056BB000052BBEE
:10212000000070BA0000A9BB0000A9BB000013BCEE
:10213000000044BB0000B4BB0000A9BB00009EBB74
:102140000000C3BB0000ABBB00005EBB000083BB54
:1021500000008BBB00003CBB0000383B000008BA0D
:102160000000BCBA00009CBB000004BB0000283B80
:10217000000056BB000012BB0000883A000088BA7D
:1021800000009CBA000090BA000062BB00008DBB4A
:10219000000040BA00000EBB0000683B0000303B6E
:1021A0000000A13B0000163B0000303B0000683BF4
:1021B0000000C43A00004A3B0000603A0000463B81
:1021C0000000ACBA0000403A000090390000983A94
:1021D000000080380000983A0000ABBB00007CBBD8
:1021E0000000A9BB0000F0BB0000B8BB0000B2BB00
:1021F0000000FDBB00801EBC00000ABC000038BC13
:1022000000805CBC000031BC00803EBC008001BC92
:10221000008021BC000040BC000004BC008020BC49
:10222000000055BC00802CBC0000F8BB0000C9BBFE
:1022300000001ABB000098BA0000F0B90000983AFC
:102240000000383B00007C3B0000D83A0000383AE0
:10225000000088BA0000343B0000083A0000123B3E
:102260000000883A0000903A000040B900000E3BA0
:102270000000043B0000803900005EBB000040BA53
:1022800000002CBB00009CBB00008DBB00004ABBC3
:102290000000CCBA000016BB0000C4BA000040BB6E
:1022A00000001ABB000000B90000643B00008F3B37
:1022B000000008BA000040390000B0B9000044BB7B
:1022C000000080BA0000403B000028BA000022BB9A
:1022D0000000E8BA000000BB000034BB000096BB61
:1022E0000000D8BA000022BB000044BB00005ABB6B
:1022F00000008FBB000090BB000012BB000052BB6F
:10230000000068BB000087BB000087BB000098BBD3
:1023100000009FBB0000A3BB0000C3BB000098BB34
:1023200000006CBB000044BB008002BC000080BB0E
:1023300000008FBB0000EABB0000E7BB0000C9BB88
:102340000000DBBB0000A9BB000000BB0000D039CF
:102350000000283B000080380000B039000008BAB7
:102360000000403B0000223B0000263B000060BA1A
:102370000000B43B0080033C0000BA3B0000D83AA8
:1023800000002C3B0000183C0000683B0000803837
:1023900000008038000040B900009CBA0000ACBAD0
:1023A00000008DBB0000ADBB000008BB000038BAC8
:1023B0000000503A00000ABB0000163B00001E3B24
:1023C0000000D43A0000703A0000833B0000383B24
:1023D0000000E03A00007C3B000022BB000094BB00
:1023E000000085BB000040BA0000C5BB0000BDBBBB
:1023F00000009EBB000008BC000016BC000022BC10
:102400000000F0BB000016BC00802EBC00801ABC8F
:10241000000013BC0000DFBB00803FBC0000D6BB47
:10242000000052BB0000DDBB0000F6BB000090BA0C
:1024300000008FBB0000BFBB0000C4BA000070BB2F
:10244000000034BB0000B0390000383A0000D8BAB0
:10245000000060BA000040B9000018BA00004ABB92
:102460000000BCBB0000C5BB00002CBB00008DBB46
:10247000000044BB000044BB00009CBA0000BFBB8E
:10248000000080B80000E83A0000163B0000083A5F
:102490000000803A0000C43A0000BC3A0000283B2B
:1024A0000000343B000088BA0000403A0000943B32
:1024B000000090BA000080390000E83A0000873B35
:1024C0000000A13B0000B43A0000903A000000393F
:1024D00000009CBA000098BA0000B03900007CBB34
:1024E0000000F8BB000026BB00002CBB0000A9BB0D
:1024F000000081BB000090BB0000CCBB0000ABBB68
:10250000000070BB000090BB0000DDBB000064BB9E
:102510000000A9BB0000DABB00002CBB000090BB90
:102520000000A1BB0000C9BB0000CCBB000074BB15
:102530000000A5BB000040BB000096BB000078BBBC
:10254000000034BB000080BA0000383A000070BAC6
:102550000000303B0000123B0000343B00007C3B9D
:102560000000D23B0000A73B0000303B0000C73B0F
:102570000000B63B0000383B0000223B00001A3C44
:102580000000D43B0000A33B0000F23B0000C33B33
:102590000000893B00000A3B0000803B0000563BE6
:1025A000000080B9000018BA0000D8BA000008BACC
:1025B00000005EBB000030BB000078BB00002CBBFD
:1025C000000083BB00004EBB0000A3BB0000A7BB04
:1025D000000034BB0000083A0000D8BA0000C4BABA
:1025E000000008BA00000000000038BA0000B0394E
:1025F000000004BB00000000000088BA000040BBDF
:102600000000ADBB0000A7BB00007CBB000094BB7A
:10261000000040BB000070BB00004ABB0000B2BB22
:1026200000004EBB000008BB000046BB000074BBAE
:10263000000090B90000043B00008B3B0000563BBB
:102640000000903A00005A3B0000FF3B0000873B2F
:1026500000000E3B0000983B0000A53B00008B3BB8
:102660000000BF3B0000C33B0000263B0000963B40
:102670000000F03A0000F03A0000D43A000088BAB6
:1026800000001EBB0000B4BA0000D8BA0000ACBA0B
:102690000000F039000000000000D0390000403B8D
:1026A0000000E93B00006C3B000000B9000078BB73
:1026B000000088BA0000E0BA000080B8000008BB43
:1026C000000085BB000060BA000088BA0000C43A70
:1026D00000009C3A0000403A0000B4BA0000D8BAAA
:1026E00000005ABB0000BFBB00005EBB000087BB00
:1026F0000000BDBB0000D0BB0000E7BB0000E9BB91
:102700000000B6BB000028BB00008DBB000085BBED
:102710000000E8BA0000F0B90000163B000080B8E5
:102720000000C43A0000083A000028BA0000703ADD
:1027300000004A3B00000EBB0000ACBA000040396C
:102740000000283A0000C4BA000000390000BCBAFA
:102750000000D8BA000012BB0000F0B9000085BB31
:10276000000064BB00000ABB000040BB00008038D2
:102770000000503A000080B900004EBB0000B039A4
:10278000000087BB0000E5BB00009CBB000087BBCE
:102790000000A3BB000096BB000022BB000012BBE0
:1027A000000022BB0000E1BB0000C7BB0000CBBBA8
:1027B0000000ADBB0000B4BB0000BABB0000A5BB6D
:1027C0000000D0BB00008FBB00007CBB0000ACBA97
:1027D0000000D43A0000903A000016BB0000683BAD
:1027E0000000F83A0000B0B900008D3B0000E53B66
:1027F0000000F0B9000000390000183A0000B4BA37
:10280000000060BA0000043B0000123B00005E3B89
:1028100000009039000096BB0000CEBB0000BFBB9B
:10282000000028BC008010BC000017BC00803CBC2D
:10283000000024BC0000E1BB000016BC00800DBC01
:10284000000016BC0000E5BB00009CBB000085BB7F
:10285000000022BB000078BB000080BB0000C1BBB1
:10286000000090BB00005EBB00008FBB0000903AF0
:102870000000183A000080380000C43A0000303BE5
:1028800000008D3B0000B63B0000F83A000080BA23
:10289000000018BA00002CBB00004ABB000098BB27
:1028A000000064BB0000DABB000038BB0000A3BB23
:1028B000000062BB000098BB00002CBB0000A7BB5F
:1028C000000000BB00009CBA0000083A000018BAE3
:1028D0000000BC3A0000D0390000B0B90000F0B9E7
:1028E0000000B0B9000030BB00005EBB000034BB8C
:1028F000000000B9000028BB0000A5BB0000CBBB56
:10290000000089BB0000F8BB0000C3BB000006BC90
:1029100000800EBC000015BC0000D8BB0000FDBB51
:10292000000015BC000034BC000016BC008020BCB8
:10293000000024BC000008BC0000E5BB000087BB11
:10294000000078BB000088BA000000B90000B03970
:102950000000D0B90000183A0000F83A0000AC3A84
:10296000000080BA000040390000123B0000283A05
:10297000000040BA000022BB0000CCBA00009CBAA4
:10298000000012BB0000083A0000123B0000803932
:1029900000005ABB000090BA0000A3BB0000D6BBE9
:1029A000000074BB000044BB0000FFBB0000AEBBD6
:1029B000000096BB0000AEBB0000C7BB0000A9BB77
:1029C000000029BC0000EEBB00801DBC000032BC32
:1029D0000000DFBB0000B2BB0000CBBB0000FDBBB2
:1029E0000000F4BB0000A5BB000098BB00009FBB2B
:1029F00000001EBB00000EBB000040BB00009EBBE1
:102A000000004ABB000044BB000083BB000026BBA3
:102A10000000C9BB000092BB0000CBBB00004ABB5A
:102A2000000040BB0000F039000080390000883A07
:102A30000000983A0000803A000080380000003919
:102A40000000083B0000263B0000223B0000C93B81
:102A50000000D63B0000DD3B00009C3B0000143C26
:102A60000080013C0000EA3B0000C53B0000B83B91
:102A700000008B3B0000B0390000043B0000F0B9BF
:102A80000000183A000090B90000D43A000040BAA3
:102A90000000A4BA000030BB0000D2BB00800CBC18
:102AA0000000F0BB000024BC008012BC008021BCF0
:102AB000000027BC000008BC008010BC008029BCBE
:102AC00000008BBB00008DBB00009CBB00000039E8
:102AD000000040B90000CCBA00004039000088BABC
:102AE0000000083A0000A43A0000183A0000B0398B
:102AF00000008B3B0000563B00009F3B0000AE3BBC
:102B00000000E13B0000BC3B0000D43B0000BA3BAE
:102B10000000A13B0000DD3B0000833B0000563B72
:102B20000000813B0000523B0000183A000018BA38
:102B30000000E8BA00004EBB00001ABB000078BBE2
:102B4000000004BB000094BB00009FBB0000D03914
:102B50000000903900000000000089BB000026BB87
:102B6000000038BB0000A1BB0000E9BB00009FBB18
:102B70000000B6BB000078BB0000D2BB0000F8BB71
:102B80000000A1BB00008FBB00009ABB00006CBB23
:102B9000000012BB0000B0B90000903A00001E3BDC
:102BA00000000E3B0000CB3B00009A3B0000AE3B18
:102BB0000000D43A0000B43B0000943B00006C3BA2
:102BC00000008B3B0000B23B0000C93B0000B03B63
:102BD0000000C53B0000263B0000403A0000903A50
:102BE0000000B039000050BA0000883A0000E03A16
:102BF000000081BB000052BB000034BB000094BB4E
:102C00000000383A0000D43A00009C3A000080B836
:102C10000000263B000090B9000000000000F0B961
:102C200000000EBB000087BB0000B4BA000000BB70
:102C3000000028BB0000BDBB000062BB000080B8E4
:102C40000000403900002CBB0000C3BB0000B8BB33
:102C5000000028BB000040BA000038BB0000D0B91B
:102C60000000343B0000503A000080B80000ACBACD
:102C70000000F03900000E3B0000BCBA000000BBB1
:102C8000000000B9000070BA000000BB0000D83A94
:102C90000000383B0000403A0000F0390000E8BA7C
:102CA0000000F0390000603A0000503A00000A3B92
:102CB000000080380000003900004039000004BBEB
:102CC0000000DDBB0000B8BB0000ADBB000062BB74
:102CD0000000A7BB0000DFBB00001ABB00003CBB2C
:102CE000000034BB0000C4BA000044BB000022BB9B
:102CF000000080B90000ACBA00000ABB000026BB8F
:102D0000000028BA0000883A0000E03A00005ABBF0
:102D1000000085BB000052BB000000BB0000D8BA19
:102D2000000052BB000046BB000078BB000052BB55
:102D30000000C3BB00007CBB000030BB00009CBA9D
:102D400000008BBB000080380000083B0000083A00
:102D50000000983A0000E83A00008039000008BA04
:102D6000000000BB000080BB00009FBB000085BBD3
:102D7000000000BB000044BB00004ABB00007CBB5D
:102D800000005ABB0000A1BB0000BDBB0000DDBBC2
:102D90000000E9BB000092BB0000A5BB0000B2BB75
:102DA000000006BC0000D2BB000004BC008000BCD8
:102DB0000000DDBB0000CBBB000040BB000012BB2D
:102DC0000000A7BB00008DBB000046BB000044BB59
:102DD0000000BCBA0000083A000080390000283A20
:102DE000000087BB0000C4BA0000B43A0000223BD8
:102DF0000000F0B90000043B0000963B00001E3BC1
:102E00000000F83A000000000000163B00004E3BB6
:102E100000007C3B0000163B0000BC3A0000833BF6
:102E20000000563B00004E3B0000D8BA0000883A34
:102E3000000040B9000098BA00006CBB0000E8BA7E
:102E4000000000000000503A0000003B00009CBA67
:102E50000000BCBA000088BA00004EBB00008FBB67
:102E6000000068BB000078BB0000A7BB000064BB8B
:102E7000000087BB000094BB0000B0BB0000BABBE1
:102E800000009FBB0000A5BB0000A3BB0000DABB95
:102E900000006CBB0000B0BB0000C3BB0000D2BB95
:102EA000000090BB000094BB0000F0BA00000EBB15
:102EB00000005EBB0000B2BB000090BB000026BB60
:102EC0000000ADBB00009FBB000068BB0000AEBBB4
:102ED0000000BDBB000044BB000090BB0000D0BBA5
:102EE00000000EBB000080B900002CBB000080B9C0
:102EF000000008BB0000E8BA0000B0390000000084
:102F00000000383B0000BA3B0000A13B00001A3B28
:102F10000000BF3B00800B3C00009F3B0000F039ED
:102F20000000F83A0000AC3A0000383A0000403A9D
:102F3000000060BA0000083A000070BA000056BBFA
:102F4000000068BB000046BB000016BB00007CBB55
:102F5000000052BB0000E0BA00001ABB00006CBBCE
:102F6000000040BB00004ABB0000BCBA000089BBA7
:102F70000000ABBB0000C4BA00000EBB000092BB57
:102F80000000A3BB000087BB000056BB000038BB9D
:102F900000001EBB00005ABB0000C4BA000040BACB
:102FA0000000D4BA000062BB0000C4BA0000F0B94F
:102FB000000098BA000062BB000028BA000052BBB3
:102FC000000038BA0000BC3A000060BA000008BB3C
:102FD0000000E03A0000163B000018BA000080B97B
:102FE000000080BB000085BB0000D0390000D8BACB
:102FF000000056BB0000803A0000043B0000043B88
:103000000000903A0000B039000080BA000098BA81
:10301000000038BA0000283A000098BA000080BAD0
:10302000000090B90000603A000040390000383AD2
:103030000000223B0000873B0000B23B0000443B05
:103040000000083B00005A3B00007C3B00009C3B1A
:1030500000005A3B0000043B000028BA000018BAE8
:103060000000CCBA0000443B0000383B000080B9AF
:1030700000000A3B0000D039000080BA000008BA06
:10308000000026BB0000ABBB000078BB000030BBDB
:1030900000005EBB000070BB00006CBB000034BBD6
:1030A000000008BA0000903900008DBB000008BB8A
:1030B00000000EBB000046BB000056BB000074BB06
:1030C000000000B9000090B90000803A000038BA52
:1030D000000080B9000050BA000018BA000050BAD1
:1030E0000000BFBB0000D4BA000000B900000EBB56
:1030F000000090BA0000C4BA00009CBA0000D0B929
:103100000000AC3A0000463B0000263B0000803B3C
:103110000000963B0000443B0000443B0000523B53
:103120000000983B0000F03A00008D3B0000523B4D
:103130000000BC3A0000983A0000383A0000E8BAB3
:103140000000D4BA000094BB000038BA00001EBBD7
:103150000000CCBA000044BB000044BB000040BBF0
:10316000000094BB000087BB00009FBB000044BB75
:103170000000BFBB0000A3BB0000A7BB000070BBEA
:10318000000012BB000028BB000052BB000026BBA1
:1031900000005EBB000052BB00009FBB0000A3BB51
:1031A00000800DBC0000D0BB0000A5BB0000A1BB8F
:1031B00000000BBC0000ECBB00000ABC0000CCBB54
:1031C00000008DBB0000D8BB0000F6BB000098BB20
:1031D000000098BB000083BB000081BB0000A5BBC2
:1031E00000005EBB000062BB00001ABB000040BADA
:1031F0000000F0B900000039000080390000A4BAD6
:103200000000B0B90000083A0000F039000080BAB0
:1032100000000A3B0000D83A0000563B0000383A54
:103220000000CC3A0000833B0000D039000088BA8F
:10323000000028BA0000CC3A00004E3B000070BAF3
:10324000000050BA000089BB000098BB0000BABB68
:10325000000080BB0000E3BB000068BB0000FDBBBA
:10326000000009BC0000FFBB000005BC000043BC1F
:10327000000014BC0000C9BB0000EABB00000BBC8E
:10328000000007BC0000A1BB0000BABB0000E0BA10
:103290000000F0B9000008BA000008BA0000000001
:1032A000000098BA0000ACBA0000883A000080B86C
:1032B0000000803A0000443B0000283A000080B83B
:1032C0000000B0B90000F03A0000923B00009A3BC9
:1032D0000000E03A00001A3B000016BB00004EBBA5
:1032E000000016BB000052BB000044BB000080BAC7
:1032F0000000E03A00008038000040BB0000F0B958
:103300000000A4BA000070BB00005ABB0000BCBAA9
:103310000000383B0000183A00000000000040B9EF
:10332000000080B9000089BB00003CBB000088BAE7
:10333000000022BB0000A4BA0000383A0000E0BA46
:103340000000223B0000283A000060BA00007CBB6D
:10335000000078BB0000C7BB00000BBC000029BC0C
:10336000008000BC0000C9BB000081BB0000E3BBC3
:10337000008000BC00009ABB0000B6BB00008FBB01
:10338000000098BB00004EBB000008BA000090BAD5
:10339000000028BA000026BB000040390000403978
:1033A0000000E83A0000703A0000A4BA0000B0B98A
:1033B0000000000000004A3B00004A3B0000703B58
:1033C0000000CC3A0000D83A0000183A0000D0B90A
:1033D0000000F0B90000E03A0000D43A000090B9D3
:1033E000000040BB00008FBB000062BB0000ACBA15
:1033F000000040390000803A00009C3A0000BCBA4E
:10340000000090BA00000ABB000090B90000A43A86
:10341000000000B900004EBB0000D4BA000026BB7B
:10342000000018BA000070BA0000D0B90000503A8D
:1034300000001A3B00008038000008BA0000B43ACF
:103440000000403B00003C3B0000523B0000963B2C
:103450000000983B00006C3B00009C3A0000383AAA
:103460000000D4BA0000BCBA0000F0BA000080BA74
:103470000000F8BA000056BB000090B90000D43A32
:1034800000009CBA000038BA0000083A0000903AE8
:10349000000088BA0000D0B9000000390000E8BA86
:1034A0000000AC3A00002C3B0000BC3A00000039A0
:1034B00000003CBB00009ABB00009ABB000078BB38
:1034C000000046BB00003CBB00009FBB000098BB57
:1034D000000094BB000078BB0000E8BA000085BB88
:1034E00000007CBB00009ABB0000B8BB0000A7BB7B
:1034F000000000BB000080B800009C3A0000D0B97A
:1035000000001ABB0000E8BA000080B80000F039E3
:10351000000080B900002C3B0000383B0000000098
:1035200000003CBB000083BB000040BA0000B4BAFE
:103530000000903900009C3A0000443B0000D0B9E4
:10354000000018BA0000503A0000CCBA000080B861
:10355000000050BA000090B900001ABB000090B9FA
:103560000000D0B90000283A000090BA00003CBB2F
:10357000000074BB000080BA000028BA0000703A56
:1035800000004039000090BA0000D0B900000039B6
:10359000000088BA00005ABB0000D8BA000012BB75
:1035A000000074BB00005EBB000046BB00004ABBCD
:1035B0000000F8BA000050BA0000E8BA000000B9F4
:1035C0000000E83A0000383A0000503A00001A3B88
:1035D0000000983A000000390000D0B90000F0B9AE
:1035E0000000603A000050BA000004BB0000000078
:1035F0000000D83A0000ACBA000046BB0000CCBACC
:10360000000000000000883A000040BA0000B4BA90
:103610000000C4BA000060BA0000083A0000403A56
:103620000000CC3A0000D43A00000A3B000088BAFF
:103630000000B43A0000803A0000903A000090BACE
:103640000000083A00002CBB000096BB00008BBBBA
:103650000000E1BB000090BB0000A3BB000098BBD2
:103660000000E5BB008029BC00801CBC008000BCC1
:103670000000FFBB000013BC0000CCBB0000C5BBBA
:10368000000085BB000044BB000004BB0000D03933
:103690000000C4BA0000C4BA0000ACBA000022BBEB
:1036A000000040BB0000983A0000463B0000853B0C
:1036B00000007C3B000088BA000088BA000028BAED
:1036C0000000B4BA000028BA0000383B0000ACBAD1
:1036D000000040BA0000703A0000003B0000083BC8
:1036E000000090B9000089BB000098BB00008FBBB0
:1036F0000000B2BB0000A7BB0000BCBA0000883AC3
:10370000000018BA0000283A0000A43A000080B86F
:103710000000E8BA000098BB0000CBBB000040BB33
:10372000000070BA000030BB00004ABB000052BB72
:1037300000000EBB00009CBA0000F0B900000000C1
:103740000000083A000000B9000040BA000090BA3A
:1037500000009C3A0000903B0000923B0000123BAE
:103760000000283A000098BA0000E03A00008039D2
:103770000000223B0000403A000080390000F0BA0F
:10378000000089BB000094BB000062BB000056BB78
:10379000000028BA000060BA000083BB000098BB9C
:1037A0000000BFBB000034BB00001ABB0000BCBA65
:1037B000000070BB000050BA0000F0B90000F03902
:1037C0000000803A00001E3B0000D0B900009CBA07
:1037D000000090BA00009CBB000030BB00009CBB06
:1037E000000030BB000018BA000040B9000004BB64
:1037F0000000E8BA0000B4BA000090390000083BAD
:103800000000803800000A3B0000CC3A000026BBD4
:1038100000000039000090BA000000BB0000E8BAC8
:10382000000088BA000040BA0000BC3A000088BA24
:103830000000403900001E3B00002C3B0000223BF2
:103840000000A43A0000223B000000000000F0B994
:103850000000D8BA000064BB000096BB000034BB77
:10386000000098BA000089BB00002CBB000012BB0E
:10387000000062BB0000C7BB00001EBB00005ABBBB
:10388000000026BB00009C3B000087BB0000AC3A58
:103890000000B23B0000883A0000DA3B00004039EB
:1038A000000028BA0000C73B0000A3BB0000983A04
:1038B0000000063C000087BB0000F03A0000E83A38
:1038C000000078BB0000403B0000503A00804DBC37
:1038D0000000383A000040BB008011BC0000D83A1C
:1038E00000006CBB000018BC0000000000009ABB88
:1038F0000000443B000040BB00008B3B0000BCBA12
:1039000000001A3B0000643B0000783B0000343BA1
:103910000000E8BA0000343B0000743B000028BA05
:103920000000E0BA0000003B0000B0390000D43ACB
:103930000000463B000040B9000034BB0000D8BA8C
:10394000000000B900008F3B0000FDBB00004039C3
:103950000000A9BB0000343B0000B0BB0000ACBAC3
:103960000000083B00000ABB0000DABB0000E83A98
:103970000000DABB000050BA0000283A0000073C03
:103980000000223B0000D4BA0000403B0000ABBB6B
:10399000000018BA000098BA000056BB0000CCBA6C
:1039A00000001ABB0000B0BB000000390000E0BA04
:1039B0000000E8BA000028BA00003C3B000060BAF2
:1039C000000028BA0000403B0000903A0000703B25
:1039D0000000743B000000B90000383B0000B03923
:1039E000000040BA0000283B0000BFBB0000A33B22
:1039F00000009EBB0000963B00007CBB00801FBC0B
:103A00000000B039000064BB000080BA00008DBB2C
:103A1000000080BA00000EBB000090BB000040BA5E
:103A2000000016BB0000003B000090B90000D4BAB3
:103A30000000123B008020BC0000CBBB0000D63B46
:103A40000000683B0000D43A0000D63B0000AEBB4B
:103A5000000038BB000087BB0000E03A0000853B57
:103A60000000D83A0000D43A000007BC0000F9BBBF
:103A70000000B4BA00002CBB0000003B000080B97D
:103A8000000004BC000083BB0000983A0000CEBBDD
:103A900000005A3B0000003B0000B4BA000040BAEE
:103AA0000000EEBB0000E0BA0000123B0000783BD3
:103AB0000000D83A00008038000090B90000ACBA8D
:103AC0000000403A0000803B00005A3B0000043BED
:103AD000000046BB000062BB000070BB000070BA73
:103AE00000005EBB008003BC000005BC0000EABB18
:103AF0000000D8BA0000B8BB00009CBA00006CBB44
:103B00000000B6BB0000DABB0000ADBB0000000047
:103B10000000463B0000C53B000080B90000903922
:103B20000000CCBA0000083A0000AB3B000090391E
:103B30000000EE3B0000643B0000B4BA008010BC03
:103B40000000F8BB000046BB0000B0BB000030BB6B
:103B50000000983A0000A9BB00803FBC00005EBB9B
:103B6000000026BB0000043B000040BC0000183AE7
:103B700000007CBB000092BB00008BBB00008038C3
:103B80000000A43A000034BB000000B900009C3AD9
:103B90000000163B0000A9BB00001EBB000028BBB4
:103BA000000055BC000060BA00000ABB00008DBBDD
:103BB00000008FBB0000F0B90000703A0000E83A46
:103BC0000000903B0000403900008B3B0000983A19
:103BD000000008BB0000263B000098BB0000183A1C
:103BE0000000A7BB000007BC000090BB000098BB12
:103BF000000083BB0000563B0000000000002CBB0F
:103C00000000C33B0000603A0000BCBA0000703AFC
:103C10000000F9BB0000803900007CBB000060BAE6
:103C20000000BFBB00005ABB00007CBB00001ABBF9
:103C300000009FBB000028BA0000E83A0000383AB4
:103C40000000623B00000A3B0000003B00006C3BB0
:103C50000000183A000064BB0000ADBB0000303B20
:103C6000000008BA000074BB000040B900009CBB13
:103C700000801ABC000083BB0000CEBB00000EBB5E
:103C8000000090BA008010BC0000ECBB000052BBEA
:103C900000008039000081BB0000943B000028BA7E
:103CA0000000703A000004BB0000CBBB0000D83B12
:103CB0000000503A0000563B0000E53B0000133C7A
:103CC00000003C3B0000D8BA0000ACBA0000123B38
:103CD0000000AE3B0000443B0000783B0000F83A97
:103CE0000000B8BB00004ABB0000B0BB0000C4BA73
:103CF0000000A73B0000623B000022BB000090BB1D
:103D0000000094BB000008BA00003C3B0000C53B2B
:103D10000000563B000081BB0000C4BA0000E8BAB6
:103D2000000080BB0000703B0000983B0000D4BA4C
:103D30000000B2BB000050BA000026BB000046BB2A
:103D40000000743B0000503A0000623B00008BBB57
:103D5000000087BB000078BB0000CBBB0000123B1B
:103D60000000743B0000463B0000B43A0000183AE3
:103D70000000ABBB000062BB0000D0B90000D83B24
:103D80000000873B0000AC3A000089BB00009FBBED
:103D900000009CBA0000A43A0000403B0000D63B63
:103DA0000000BD3B0000003B0000BC3B0000463B68
:103DB0000000D0B90000E13B000083BB000034BB31
:103DC0000000303B00009CBB00001EBB0000000058
:103DD0000000E0BA0000403A00000000000080BA95
:103DE000000000B900008FBB0000E83A00006C3B07
:103DF000000092BB0000803800001A3B0000CCBAE3
:103E00000000883A0000E8BA000080BB0000503A89
:103E1000000038BB00000E3B0000B43A0000D83B65
:103E20000000AD3B000046BB00000A3B0000B4BAF6
:103E300000004A3B0000523B0000B43A0000603AE8
:103E40000000E8BA00001EBB0000083B0000A93BD0
:103E50000000E13B0000623B0000CCBA0000B0B9BA
:103E6000000046BB0000C4BA000096BB00009A3BAD
:103E7000000080BA0000A43A00002C3B0000BDBB4B
:103E80000000AC3A0000B8BB00002CBB0000AE3B09
:103E900000000ABB000040390000DBBB00001ABC78
:103EA0000000DBBB000042BC0000E0BA000038BBF1
:103EB00000006CBB0000CEBB00804DBC00006CBBA2
:103EC000008029BC0000A9BB0000163B000030BBED
:103ED0000000D0B900004EBB00009FBB0000A7BB94
:103EE0000000D0390000AC3A000080390000F8BA78
:103EF0000000BCBB0000383A0000BCBA000062BB46
:103F000000005ABB00006CBB000098BB00003CBB2B
:103F10000000C3BB000080B9000080BA000062BB93
:103F200000008BBB000085BB0000D8BA000098BB26
:103F30000000803800000000000034BB00002CBBF3
:103F4000000060BA0000D4BA0000563B000080BAFE
:103F500000008038000074BB000012BB0000E8BA0B
:103F60000000A43A000064BB0000C4BA00009FBB7C
:103F70000000BCBB000018BC0000ABBB0000D0BB05
:103F800000009ABB0000CEBB008001BC000038BB23
:103F9000000092BB0000ACBA00003CBB000008BBB4
:103FA000000064BB00801CBC000012BB000012BB00
:103FB000000028BA0000983A000090390000003B49
:103FC0000000A13B00000039000090B9000008BBD0
:103FD0000000703A000080B80000783B0000503AC2
:103FE000000087BB000038BA000022BB00001EBBE7
:103FF00000001ABB0000603A0000403900000000D9
:10400000000083BB0000ABBB0000E8BA000012BB9D
:104010000000E03A0000003B000028BB0000283A06
:10402000000007BC0000BCBA0000E8BA00008039FC
:104030000000003B000040BA0000B2BB00005ABBC9
:104040000000BABB0000D8BA0000BA3B00009039AB
:104050000000D4BA0000CCBA000028BA00000ABBA5
:104060000000E03A0000BF3B0000E03A00004A3B9D
:10407000000090B90000F03A0000383B0000463BD9
:104080000000F03A0000A4BA0000883A0000563B55
:104090000000D8BA000038BA0000F8BA000088BAA8
:1040A0000000283A0000D8BA000078BB00009FBB8F
:1040B00000800BBC00005EBB000034BB00005EBB98
:1040C00000008FBB0000CCBA0000B43A00005ABB1D
:1040D000000080B90000083A0000B0B90000C1BB80
:1040E00000009C3B0000853B0000803900000ABBBB
:1040F0000000903A000060BA00000EBB000000B95A
:104100000000CC3A00007CBB000016BB000006BCDF
:104110000000ADBB000000BB0000BCBA00007C3B4F
:104120000000903A0000A3BB000088BA000090B9DC
:10413000000081BB0000383A0000743B0000083AE0
:10414000000060BA000000BB000000BB00000ABB1A
:10415000000070BB000000390000603A000038BA6F
:1041600000004A3B000050BA0000903900005ABBE2
:104170000000E8BA0000083B0000E03A000090BAF6
:10418000000028BA000089BB0000ACBA0000D0B91A
:104190000000F8BA0000E0BA000022BB0000B4BB87
:1041A000000022BB0000D4BA0000443B0000F03AFB
:1041B0000000AC3A0000BC3A0000443B0000AC3ABE
:1041C000000060BA0000163B0000F03900005EBB42
:1041D00000004ABB000080BB00005ABB0000BCBA14
:1041E0000000A4BA0000163B0000873B00009C3A88
:1041F0000000043B0000703B00004A3B0000303BE5
:1042000000009E3B0000343B00004E3B0000E83ABB
:10421000000050BA00009A3B0000F0B90000903B4B
:104220000000183A000008BB0000A13B0000AC3AB7
:1042300000003C3B00009C3A0000803800004A3BF4
:104240000000263B00002C3B0000463B0000D83A13
:10425000000068BB0000ACBA0000A7BB000070BA49
:10426000000030BB000062BB0000403A00008BBB86
:104270000000D8BA0000ACBA0000B0B90000083A9B
:10428000000083BB000052BB000078BB000096BB5F
:104290000000C7BB000038BB000046BB0000BC3AB2
:1042A0000000F03A0000B0390000C43A00000E3BB4
:1042B0000000E03A0000703A00007CBB000040BA09
:1042C0000000A9BB000040BB000028BA00008038F5
:1042D0000000503A00009A3B0000183A000012BB60
:1042E0000000883A0000A53B0000E03A0000EC3BEB
:1042F0000000F83B0000D23B0000A93B0000893BD6
:104300000000163C0000383A0000A4BA00002CBBA4
:10431000000028BB00000EBB00009CBA0000383A29
:104320000000CCBA0000D0B900005ABB00002CBB82
:1043300000009CBA000022BB0000C4BA00000ABB07
:104340000000A5BB0000903A0000D8BA0000D8BA1F
:1043500000009CBA000098BA000056BB000040BBA9
:104360000000BCBB0000A9BB000008BA000068BB8D
:104370000000D039000090B900805BBC0000E83A32
:1043800000801A3C0000803A000090BA000064BB34
:104390000000283A0000F0B9000052BB000000B94C
:1043A000000078BB000038BB000030BB000094BBAD
:1043B0000000F0BA0000E5BB000081BB0000F2BBCA
:1043C000000004BB00005EBB0000AB3B000004BB70
:1043D0000000F039000088BA000018BA0000403B25
:1043E00000008D3B0000D43A0040FABC0080013C44
:1043F0000000B4BB0000043B008076BC000028BA7B
:104400000000083A000090BA008030BC0000703A0A
:1044100000006CBB000030BB008020BC000028BA4C
:104420000000E7BB000078BB0000000000003C3B40
:10443000000040BB0000B4BA0000983A0000D83A2F
:10444000000090390000283A0000D8BA0000903BE4
:1044500000007CBB000088BA0000D4BB0000563BC3
:10446000000068BB000080B8000000BB000090B9ED
:1044700000006CBB008003BC0000163B0000DFBBEB
:104480000000983A00008DBB000028BB000004BB70
:1044900000003CBB00004ABB000016BB0000BC3A59
:1044A00000009FBB0000C43A0000E0BA0000803B5F
:1044B000000016BC00800D3C00005FBC0080683C22
:1044C0000000F9BB00005E3B00802ABC000088BAF7
:1044D0000000CEBB0000003B0000C7BB000012BBC9
:1044E0000000AEBB0000CC3A0000C5BB000088BA9B
:1044F0000000ACBA0000BA3B0000A4BA0000903B38
:104500000000C3BB0000AB3B0000C4BA0000E33BAB
:10451000000080B90000443B00004EBB0000403B5F
:1045200000008DBB000040BA00000EBB0000E13B64
:10453000000000B90000B4BA000030BB00009FBB0F
:10454000000008BC000040BB000028BC0000E3BB2A
:1045500000009FBB000089BB008039BC000083BB0A
:1045600000008FBB0000523B0000BDBB0000AC3A16
:10457000000080390000903A0000463B00007C3B80
:10458000000004BB0000B43A000080B9000081BB09
:10459000000044BB000022BB00000EBB000030BB8B
:1045A0000000703A008021BC0000D2BB000012BBAA
:1045B0000000B4BB0000ACBA00000BBC000000005F
:1045C000000083BB0000893B0000FDBB0000743B82
:1045D0000000EABB00009E3B0000803A00008B3BDD
:1045E000000080BA00003C3B0000F83A0000B23BFB
:1045F0000000DF3B0000833B0000E33B0000C3BB47
:10460000000022BC00C0FCBC00201BBD0000A73B7A
:10461000000008BA0000A3BB0000E8BA000080BA9E
:1046200000003CBB0000B0B9000044BB0080013C6E
:104630000000A33B000044BB0000853B000008BB1A
:104640000000D0BB0000A1BB0000063C000022BB64
:1046500000801FBC000012BB0000A9BB000044BBCF
:104660000000E83A000000000000283A0000C33BC8
:10467000000094BB000044BB0000BABB0000F2BBCA
:1046800000005A3B0000AC3A00005ABB0000C5BB1A
:104690000000883A0000A33B0000403A0000983A2E
:1046A0000000C13B00001ABB0000F93B00803C3C0D
:1046B0000000B0390080793C0000DD3B00009C3CEC
:1046C000000090390000FF3B000017BC0000183CC0
:1046D00000009ABB0000A53B000052BC0080303CAB
:1046E000000007BC008000BC0000AE3B0000C4BA64
:1046F00000801FBC0000E33B000080B900001ABB33
:104700000000073C0000A7BB00006F3C0000AC3A73
:104710000000CE3B0000C33B00009FBB000040B93F
:104720000000CB3B0000E3BB0000FB3B0000983ADD
:10473000000008BB00802CBC0000BC3B0000ABBBF1
:104740000000D83A0000183A0000B0B90000263B3B
:104750000000813B0000283C008068BC00C08A3C0F
:104760000000D4BB0000683B00803FBC0040853C9B
:10477000008087BC00C0813C0000F4BB00803CBCD2
:104780000080033C0000183A0000E9BB0000A5BB14
:104790000000003B0000F0BA000056BB000040BB28
:1047A0000000ABBB000060BA0000473C008010BCBA
:1047B000000052BB00802D3C0000BC3A000044BC0D
:1047C000000085BB000027BC000074BB0000F0396E
:1047D0000000B4BA0000B0390000D43A0000C43A76
:1047E00000009CBA0000F0390000903900005E3BE8
:1047F0000000A43A0080883C000052BB0000903BBF
:1048000000007C3B00000E3B0040A2BC0000FB3BD4
:1048100000001EBB0000D4BA000068BB0000E7BB6C
:104820000000AEBB000044BB000047BC000018BA4B
:1048300000009ABB0000623B0000803A00C09ABCB6
:104840000000AC3A000064BB000037BC000004BBB1
:104850000000703B000007BC0000D2BB0000BCBAE7
:10486000000096BB0000E1BB00009F3B000017BCAE
:104870000000B23B00805DBC0000BD3B008074BC0A
:104880000000943B0000E83A0000383B0000C53BC4
:104890000000E83A00800DBC0000703A0000F4BB54
:1048A00000801BBC00000EBB0000503A008029BCF9
:1048B0000000BC3A0000603A0000173C000028BA33
:1048C0000000F9BB00801ABC0000893B000074BBEB
:1048D00000803C3C0000803B000012BB0080293C73
:1048E000000081BB0000D4BA0000ABBB0000AB3BB2
:1048F00000008D3B000080BB0000A7BB0000E5BBB3
:1049000000003C3B000030BB0000873B00000ABBBE
:104910000000523B000074BB0000D0B90000883A90
:1049200000806B3C000007BC0080383C000062BB8C
:1049300000803B3C000081BB0000983A00009E3B99
:104940000000E13B00800FBC000098BA0000CCBA28
:10495000000080380000F9BB000094BB0000F83B69
:104960000040A0BC000025BC0000E93B000022BBC9
:10497000000045BC0000BF3B000044BB00005A3BA8
:10498000008038BC000098BA000085BB00801CBCC9
:104990000000523B0000923B00C081BC0000803B05
:1049A00000008039000070BC0000A53B000060BA28
:1049B0000000083A0000233C0080783C000089BCDD
:1049C00000006E3C0000283B0040B9BC0000283AC3
:1049D0000040A0BC00803CBC0080013C0000CE3BFD
:1049E0000000B63B00804BBC0000ECBB0000AC3AC2
:1049F00000009CBA00C0B13C00801EBC0000953C89
:104A000000009ABB0040A2BC00C0C7BC00004ABB6B
:104A100000804B3C00803FBC008030BC008097BCD5
:104A20000040D73C0040E43C0000C3BB00009CBBFE
:104A3000000022BB00808F3C000012BB00009EBC27
:104A40000040F4BC0000D8BA0000193C000047BC8C
:104A50000040BEBC00808DBC0040CDBC0000813C4D
:104A6000000090BA00C0ECBC00801A3C00803CBC46
:104A700000802E3C00001A3B00800BBC0000AD3CC7
:104A80000000443C00001A3C0080D1BC00800D3C7A
:104A900000009C3A0000C33B000054BC00008BBBEC
:104AA00000805ABC000098BB0000CBBB008038BC23
:104AB000000074BB0000BF3B000040BB00009FBB78
:104AC0000000C43C0000F0BB00009FBB0000DFBB47
:104AD00000801CBC00004EBB0000A1BB0040A73CF6
:104AE00000C0CFBC008011BC00806A3C00009C3B31
:104AF00000809CBC0000B4BB0000343B008076BC4E
:104B00000000713C0000BABB000042BC00006C3BDE
:104B100000009CBA000090BB000056BC00009A3B0D
:104B20000000B4BA00C0823C008047BC00C0A7BCF3
:104B300000C0CFBC00C0023D00803DBC0000003B77
:104B400000005EBB0000353C0000C73B0080693CB4
:104B50000080AEBC000060BA000083BB00005ABBFE
:104B6000000008BB00802CBC00005ABB00007DBCCC
:104B700000801C3C00E005BD00806B3C0000F0BAEA
:104B800000007C3B00009FBB008078BC00C0A23CC2
:104B900000806CBC000089BC004082BC000022BBCD
:104BA00000009C3C00808DBC00000039004091BC9E
:104BB0000000043B00006CBB00E000BD00006F3C47
:104BC00000800FBC0000083C0000053C00007CBBDE
:104BD00000000E3B00803DBC0080483C000045BC0E
:104BE000000038BB008020BC0000A33B0000703BED
:104BF0000000803A00800EBC008021BC000061BC37
:104C000000009C3A0000ADBB0000A3BB0000DBBB72
:104C10000000183A0000283B00804BBC000008BA96
:104C200000802BBC0000733C000068BB000000004B
:104C30000000F23B0000383A00804DBC00801A3C76
:104C40000000903B008047BC0000AE3B00C0CCBCE5
:104C50000000EE3B0000E33B0000BABB008077BCE5
:104C60000040943C0000053C00C0E4BC00007C3BDC
:104C7000000038BB00800D3C00C081BC0000523CED
:104C80000000C33B00408ABC0000963C008049BC49
:104C9000000026BB00802DBC000018BC000080BBBB
:104CA0000000D4BA0000063C00801EBC00000E3B91
:104CB0000000ECBB0040B7BC000080380000F9BB2E
:104CC0000080A43C00004FBC0000A6BC000060BAFD
:104CD00000800BBC0000BC3A000029BC00C0B93CFD
:104CE0000040A3BC0000123B00803F3C000050BAD3
:104CF0000080ADBC00805ABC00802C3C000096BCFB
:104D00000000783B0000F0BA0000C13B0000BDBCD1
:104D100000008F3B0000083A00C02FBD0000F23CAD
:104D2000008078BC00806B3C00C089BC00803DBC2A
:104D3000000053BC000038BC00808D3C0000BBBCB0
:104D40000000253C00806C3C00005EBC0000083C7C
:104D500000804BBC0000163C0040C1BC0000143C6D
:104D6000000032BC000071BC00008FBB008087BC1B
:104D70000000F93B0000F0BB0000C1BB00804ABC52
:104D80000080293C000023BC004084BC0000133C90
:104D90000000C2BC000080B90000B8BB0000A9BB85
:104DA00000007CBB0000ACBA00000A3B000063BC02
:104DB0000000C9BB0000F83A0000E1BB00005EBB88
:104DC0000080493C000038BA000054BC00000039A3
:104DD0000000903A0080AEBC0000603A00006E3CDB
:104DE00000001A3B0000A53B008057BC00000000FB
:104DF000000008BD0000B8BB0000A1BB0000943B50
:104E000000806BBC0000803B0000A1BB0000563B53
:104E100000800F3C0000C5BB00004FBC008069BC97
:104E2000000062BB0000E83A0080B3BC000004BC94
:104E300000009DBC000098BB00001E3B0000CC3A67
:104E40000080203C0000A73B00004EBB0080483C97
:104E5000000051BC0000D23B0000833B0000053C39
:104E60000000BFBB0000D6BB000088BC0000BDBB7B
:104E70000000D63B00009CBA00005EBC00802FBC46
:104E8000008010BC0000143C0000093C0000F0BA97
:104E90000000863C0000BCBA0000223C000094BB2D
:104EA00000000ABB00802CBC0080033C0000E33BF8
:104EB00000809CBC0000F03A0000B03B00800E3C3B
:104EC0000000BABB0000703A0000463B000007BC7F
:104ED0000000F63B0000163B000089BB0000ACBAA6
:104EE0000000A93B000096BB008002BC000074BB20
:104EF0000080CCBC000018BA0000873B00806CBC6E
:104F00000000F83A0000B0B9000068BB000024BC03
:104F100000803D3C000062BC0080113C0000123B60
:104F2000000028BB00C084BC000080380000CC3AE0
:104F300000804DBC00809FBC000044BC00009FBCB2
:104F4000008020BC00803A3C000063BC0000313C83
:104F50000080E23C00007C3B0000613C000028BA7D
:104F60000080473C008012BC00C0AA3C0000D03941
:104F70000000833B00C0823C00009F3B0000883A59
:104F80000000053C000090BA000062BC00808D3C2F
:104F90000000B0390000833B00802D3C0000AB3B9B
:104FA0000000063C0000B4BA0000413C0000A63CF2
:104FB000000013BC00803E3C0000AC3A0000853B82
:104FC000000056BB0000FB3B00000EBB0040C6BC0F
:104FD0000000443B00008BBB0000383A0000D6BB09
:104FE0000000083C00803ABC00001ABC0000403AB7
:104FF0000000D8BA0000A7BC000044BB0000F63B8C
:10500000000008BA00809FBC0000CEBB0000E0BAE0
:105010000000D8BB000087BB0000CC3B0000183C60
:1050200000802CBC0080883C000028BA00004F3C67
:105030000000F63B0000423C0040DD3C0000603CCC
:1050400000C0B03C0000893C0000FE3C00C0C03CF9
:1050500000800F3C0040F33C00003C3B0000943BD0
:105060000080763C0000E5BB000056BB0000FEBCA3
:10507000000052BB0040F3BC000073BC00E008BD60
:1050800000A023BD00007CBC00C037BD0080CABCAE
:10509000000013BD00803BBD00A01BBD0080D1BC43
:1050A000000013BC00C0EBBC0080ACBC00805BBC4B
:1050B0000000343B0000FB3B0000C73B0000743B9A
:1050C0000000183C0080FE3C00C0B83C0040C73CDB
:1050D00000C0033D00A02E3D00802F3D00C0203DBC
:1050E0000080733D0090963D00D08B3D00E0663D12
:1050F00000E05F3D00E03D3D0040F43C0040E33C0B
:1051000000C0073D0000A33B008067BC008094BC4A
:10511000002001BD00804ABD002072BD00806CBD32
:10512000004089BD001091BD00006DBD00D08BBD59
:10513000008069BD004060BD00000BBD002002BDC5
:105140000000F7BC000007BD0000C2BC0080E7BC47
:1051500000C0B7BC004089BC00808EBC000070BAA3
:105160000000533C0000523B0000293C00C0D53CED
:1051700000C01D3D00A0143D0080703D00E0813D59
:1051800000405D3D0040C83D0040DF3D0090823D55
:105190000040133D00E0393D00604C3D0080293C5B
:1051A0000080803C0040B8BC00004ABD00002DBD1E
:1051B0000040F2BC00403FBD0020B6BD00E091BD04
:1051C00000205FBD00A050BD00E078BD000065BDBF
:1051D0000080BDBC002006BD00805DBC0000ADBCF1
:1051E00000C0AFBC0080E1BC0000CCBC00809FBC14
:1051F0000080F6BC0000C5BC0000BABC0000CBBCFF
:1052000000801DBC00001ABB00800E3C0040E33C47
:1052100000C0193D00403B3D00005D3D0000A53D44
:105220000060B03D00C0B93D00D0E13D00B0AD3DF3
:1052300000805C3D00C06B3D00908D3D0040F53C22
:105240000000373C0080C4BC0080E1BC00E03DBDF4
:10525000006035BD00805CBD00A0B3BD00909ABD6C
:10526000004085BD00404BBD00D091BD00608CBDAD
:1052700000000EBD0000FFBC000098BC000080BC18
:105280000080D9BC00400BBD000074BC00C091BCC4
:10529000006022BD00C0D7BC00E010BD0080A5BCEE
:1052A0000000D8BB0000C9BB0080743C0000123D68
:1052B00000C0763D00E0813D00C0A63D00A0D73D86
:1052C0000090E13D0050003E0020C33D00802D3D98
:1052D0000010843D0080923D0040D73C00805BBCC4
:1052E0000080C4BC00E013BD009091BD005088BD9B
:1052F00000C083BD00F0BDBD00E0B9BD001084BD9D
:1053000000E03CBD007088BD000069BD00E018BD34
:105310000040B9BC0080C4BC000040BA0000F9BB2A
:105320000000ADBC008047BC000098BA0000BABCC9
:1053300000A008BD000068BB008029BC00802ABC1A
:105340000000533C0040D63C00C0D43C0020513DFE
:105350000010AF3D00D0AB3D00C0C43D0040F53D66
:105360000060F73D00E0953D00800E3D0060A73DE8
:105370000010843D0000643C008021BD00C003BDDE
:10538000004000BD001095BD006071BD0000B0BDC3
:1053900000A0D1BD009093BD00804DBD006081BDD7
:1053A0000030C0BD0080F6BC008038BC008000BD6D
:1053B000004093BC00408ABC000016BC00C0CDBCBD
:1053C0000000B6BB000089BC00204CBD0000CABC78
:1053D000000016BB0000C73B008003BC0020053D59
:1053E0000040613D00205C3D0040BD3D00B0EB3D14
:1053F0000030F13D0020083E00080C3E00C08E3D0C
:105400000040213D0060983D00002C3D0040C8BC9C
:1054100000E07CBD00E06ABD00209DBD0010C8BD5D
:105420000030A8BD0040E1BD0070CBBD005082BD82
:10543000008007BD00E044BD004098BD00C0B0BC86
:105440000000853B0000123B000026BC0000A7BB0B
:1054500000C0C0BC0080F9BC004091BC006001BD30
:1054600000E07CBD00E038BD008081BC000070BB66
:105470000000323C00401E3D0070913D0050B33DA5
:1054800000A0F53D00801C3E00E0243E00382C3E8C
:1054900000D0D23D00407E3D0080943D0060713DD3
:1054A00000804B3C00605EBD00F0A9BD00C09BBD0C
:1054B0000000CEBD0010DABD0030FABD00C0EDBD69
:1054C0000090C0BD004064BD008028BD008064BD68
:1054D0000000F9BC0000AC3A00005E3C0080483C93
:1054E0000000F63B0000743B008038BC000036BC76
:1054F0000000DBBC00E03DBD00A018BD0080F9BC91
:10550000008086BC0000BD3B00E0003D00C07A3D4D
:1055100000B0C03D00280C3E0030213E0058273E20
:1055200000E0253E0040DD3D0080A53D00D0AD3DC2
:105530000020503D000061BC00F09ABD00F0B6BDF7
:1055400000E0BDBD0070FEBD0030FABD00E007BE4A
:1055500000A803BE00D0ADBD00E01ABD0000E1BC54
:1055600000C056BD00000ABC00C0983C00C0E53C2D
:1055700000C0E63C00004F3C0000A33B00C0C0BCA4
:1055800000C09FBC00E01BBD00807BBD00E057BD9C
:1055900000E023BD00007FBC0000333C00401D3D07
:1055A00000109B3D00B0E13D0098113E00502E3EA2
:1055B00000703E3E00D01A3E00C09D3D00E0C83D58
:1055C00000E0AF3D0040B83C00002CBD0050D1BD14
:1055D0000060B6BD0040F9BD008001BE003005BED0
:1055E00000901DBE0070E9BD002094BD00C0A2BCAB
:1055F000004004BD00A032BD00C09B3C0080EA3CDE
:105600000040C73C0040C03C0080013C000051BC51
:10561000000000BD0040C7BC008078BD00609BBD9D
:1056200000005DBD002015BD00005ABB00007D3CA0
:1056300000803E3D0030B13D0020143E00B83C3EAD
:1056400000C03B3E00603B3E0000E93D00D0B83D5D
:105650000020DF3D00004F3D00C0AFBC0090B1BD59
:105660000010C4BD0050E7BD00581CBE00B00EBE07
:10567000005825BE00080DBE0010C2BD00E02EBDC2
:105680000040DFBC000046BD000064BB00403B3D65
:105690000040373D00C01A3D0080583C00008F3B61
:1056A0000080B5BC0000E7BC00E02DBD00A0A8BD97
:1056B00000B098BD000046BD0080ABBC0000AD3B13
:1056C00000E0133D00B0BA3D0090F83D00A82E3E2A
:1056D00000B0533E00384A3E0020F63D00D0B03DB9
:1056E0000008003E0020923D00C0B8BC0080B0BD64
:1056F0000070D1BD00A000BE008821BE00C810BE51
:10570000002027BE006031BE0020EABD00604DBD14
:105710000000F2BC000030BD0000893B0060543D39
:1057200000E0473D00E0383D0020143D0000553CBE
:1057300000C0C8BC0000D8BC0000D9BC00309BBD74
:105740000030C8BD001084BD0080EFBC0000DDBB90
:105750000080BA3C0060A33D0000E53D00C81E3E4D
:1057600000204F3E00005F3E00A8203E00E0B73D15
:105770000020FF3D0090D13D0080743C009084BD2E
:1057800000E0D5BD0060EEBD00F81EBE001014BEE6
:10579000003024BE00B841BE00E00BBE000089BD51
:1057A0000080C1BC002015BD0040A0BC0040EC3C06
:1057B00000A0273D00804E3D0060323D0000BC3C13
:1057C000000097BC0040C6BC000097BC00806BBDC9
:1057D0000000C5BD00E099BD00803BBD000068BB76
:1057E0000080AD3C0000623D00E0CD3D00F8123E7F
:1057F0000090583E00886C3E00B82D3E0000C33D2E
:1058000000F0F83D00B0F83D00402D3D00202BBDDC
:1058100000F0CBBD0040E8BD00B018BE00480DBE92
:10582000003010BE00D03ABE00B814BE006098BD73
:1058300000809DBC0040B6BC00E000BD0080803C04
:1058400000E0573D0060363D00602B3D0000543CB9
:1058500000C0B6BC00002CBD00C0CEBC000078BDAE
:105860000040D4BD00A0C2BD006045BD00809FBC0B
:105870000000303B0060323D00F0DF3D00C8103ECC
:1058800000C0483E00886F3E00E05F3E00E0EF3D14
:1058900000D0D63D00E0053E00A0923D0040CDBCCA
:1058A00000E0AFBD0080E4BD00A816BE00181EBE1B
:1058B000009806BE008824BE00E032BE0020D8BD9D
:1058C0000000BABC0000B0B900C003BD00000A3C33
:1058D00000C0613D0080653D00605E3D00800B3D85
:1058E00000000BBC006013BD00C006BD00803FBDC2
:1058F0000020C5BD0090E7BD00E097BD006020BD61
:10590000000030BB0040C13C00309C3D0040F73DF2
:1059100000B0353E0080663E0048713E0048163EAD
:1059200000B0B83D00A8053E00A0C43D0000C73B44
:1059300000708FBD0000C9BD003006BE00581BBE00
:10594000002801BE008808BE007823BE007804BE8F
:1059500000002DBD0000323C0000F9BB0000893B77
:1059600000C02F3D00A05B3D0000463D00E03C3DF7
:105970000080213C00804BBD00007FBD004046BD43
:1059800000A0AEBD00B805BE0040D9BD00D082BDAC
:1059900000C006BD0000233C0000803D0020CE3D3D
:1059A00000A0193E00305B3E00887F3E00884F3EDD
:1059B0000060EA3D0020E53D00E0F93D0060493D22
:1059C0000040CDBC00C0B3BD0030F6BD002021BEFC
:1059D000003017BE009803BE00801CBE00C811BE78
:1059E00000B0ABBD00009CBB00801A3C0000C43A74
:1059F00000801A3D00A06A3D0060673D0020603DC8
:105A000000003F3D00802EBC008065BD006062BD8F
:105A1000003088BD0020D4BD00B0F0BD00B0BEBDD8
:105A200000A067BD004098BC00C0FB3C00F09E3D5C
:105A30000030E93D00802E3E00C85D3E0078723E99
:105A40000098273E00B0C73D0030E43D0070B13DF6
:105A500000C0913C00508FBD0090D2BD00A808BE90
:105A6000002827BE00F80BBE009806BE002011BE1D
:105A700000C0FCBD00404BBD00007F3C0040C63C68
:105A80000060113D00007F3D00508B3D0000523D05
:105A900000604F3D00E0013D0000BDBC006085BDE1
:105AA000002089BD00B0B1BD009000BE00B0F6BDC1
:105AB00000C0D1BD002092BD00C0B1BC0020083D97
:105AC00000009C3D0090F83D0050323E0000653ED5
:105AD00000D0703E00581C3E00A0C13D00A0D93D42
:105AE0000080923D0000ABBB00F09CBD0050E5BDC6
:105AF00000481BBE00702DBE004006BE00D0FBBD9E
:105B000000780BBE0090DEBD00C0DCBC0080A33C72
:105B10000000D43C00805C3D0020983D00E06D3DDD
:105B200000C0563D00805D3D00C01C3D00C0BDBCB6
:105B3000008088BD00B096BD0060BFBD0040F4BDD0
:105B40000050E4BD0060BBBD00807ABD000044BCD5
:105B500000A02E3D0060B43D00C0073E0088333EEB
:105B600000F8573E0090663E00D0193E00D0C73D79
:105B70000070AD3D0000293D0000E3BB00F0A3BD77
:105B800000D0FBBD00701CBE001032BE002011BE54
:105B900000B0FFBD00D0F4BD00D0C5BD008024BD65
:105BA0000000DA3C00C04E3D00A0943D0010B13D25
:105BB00000B08F3D00E06D3D00605E3D0040253D42
:105BC0000040F3BC003091BD0010B7BD00F0CEBD69
:105BD0000090E9BD0020F0BD0030DCBD00E09BBDC1
:105BE00000808DBC0000EF3C00E09F3D00F0FD3DDB
:105BF0000050203E0080493E0080673E00083F3E46
:105C00000000C33D0020853D00A05E3D00802F3C8C
:105C100000D085BD00D0F0BD00F013BE004034BE02
:105C200000D821BE00B0F4BD00D0DCBD0070CFBDF7
:105C300000A069BD0000643C0000743D00A0833DED
:105C400000409A3D00F0A33D0070823D00E0653DBC
:105C50000020583D000038BA002062BD0010AABDE7
:105C60000010C4BD0040E3BD00E0EABD00A0ECBDF3
:105C70000090BCBD00C02FBD0000443C0040773DFB
:105C80000080D33D00280B3E00A8333E00D85E3E86
:105C900000B86F3E0008303E0090933D00C0383D94
:105CA0000080EA3C00008FBC007098BD00E006BE9A
:105CB000001027BE004043BE002022BE0090D4BD8D
:105CC0000000D8BD0000C7BD008028BD00C0293D30
:105CD00000108F3D00B0963D0040B23D00509C3D0D
:105CE00000C0513D0000343D00202A3D000043BC6F
:105CF00000E08EBD0080B4BD0030C2BD0010DEBD2E
:105D000000E0EABD0090C2BD009095BD00200DBD31
:105D10000060113D00C0A23D00F0E93D0098153E35
:105D200000A8443E00505C3E0018643E0010123E45
:105D300000C0733D00C00D3D0000423C00C015BDD9
:105D40000050C2BD00A812BE00382BBE00A03DBE50
:105D5000007012BE00F0DBBD00F0BCBD001095BDB0
:105D600000C093BC00E0313D00A08E3D0030B73D47
:105D700000C0C63D0080883D00C02B3D00E01E3DB8
:105D80000000A63C008000BD0010AFBD0090E9BD42
:105D90000020F6BD003005BE0090F8BD00F0C7BD84
:105DA00000C093BD00001DBD0020183D00E0C23DB5
:105DB00000E0ED3D00F81A3E00E83E3E0008673E78
:105DC0000070763E00305C3E0060E13D0040FA3CF1
:105DD00000803D3C000040BC003084BD00B806BEE1
:105DE000009824BE002045BE006040BE00B802BE40
:105DF00000A0B3BD00A097BD00802FBD00409A3C1D
:105E000000908F3D0030B33D0010CF3D00B0D23D3B
:105E10000060853D0040123D0040AA3C008078BCF7
:105E200000C09FBD0070FABD006001BE000006BE4C
