:020000042000DA
:04035C0000787FBFE7
:1003600000B8DFBE00B0913D0020C53D00B0C13DEA
:1003700000D0B83D0000B23D0090AB3D0010A83D5C
:100380000000A53D0070A23D0040A13D00A09D3DA4
:1003900000D09A3D00F0983D0090953D00A0923D20
:1003A0000020903D00D08D3D00A08C3D00108A3D86
:1003B0000080873D0070843D0020833D0040813DEA
:1003C00000A07D3D00A0793D00C0763D00E0713D7C
:1003D00000206E3D00A0693D00C0673D00C05D3D4E
:1003E00000E05B3D00E05A3D00C0553D0080523DBD
:1003F00000404F3D00A04B3D0020483D0000443DE3
:100400000060413D00003F3D00603A3D0060393DE5
:1004100000C0343D00E0313D00602E3D00C02B3D6A
:1004200000E0293D00E0263D00E0223D00E01E3DC9
:1004300000E01F3D00C01C3D0040193D0000163D7E
:1004400000E0143D00A0103D00A00D3D00600D3DFA
:1004500000C00B3D0020083D0040043D00C0023DAF
:1004600000A0013D00A0013D0000F93C0000F63C69
:100470000080EF3C00C0EB3C0080E93C0000E73C22
:100480000080E13C0000D93C0040D43C0000D83C56
:100490000080D13C0000CB3C0000CB3C0000C43CC1
:1004A0000000C23C00C0C03C0080BB3C0040B63CE9
:1004B00000C0B13C0040B23C00C064BD0040DBBDA8
:1004C0000040B9BD00B08DBD00C046BD0000EFBC0E
:1004D000000017BC0000173C0000DA3C00602E3D15
:1004E00000206E3D0090983D00A0B93D0040D43DF5
:1004F0000070ED3D0080023E00280E3E0088183E50
:1005000000E8223E00182C3E0030353E00803F3E81
:100510000068483E0078503E00D8593E0078603E62
:100520000070673E00C86D3E0098723E0038783E0D
:1005300000E87C3E00C07F3E0038823E0060833E83
:100540000038843E00B0853E0098863E00A8863E76
:100550000098873E00A4883E00F0893E004C8C3E07
:1005600000808D3E00608F3E00D0903E00BC903EEB
:100570000060913E0070913E00AC913E009C913E27
:1005800000E8913E0060913E0068903E00C48F3EBE
:1005900000808F3E00A08E3E00B08D3E00888C3ED5
:1005A00000848C3E00DC8C3E00848C3E00CC8C3E73
:1005B00000B88C3E00308D3E00808D3E00B08D3EF8
:1005C00000548D3E00CC8D3E00988D3E00108D3E37
:1005D00000308B3E0004893E0060883E0080863EED
:1005E0000018853E006C833E00E8813E00E07F3EBF
:1005F00000B87C3E00307B3E00A0773E0088733E12
:100600000068723E00E0703E00E86D3E00106C3EF7
:1006100000806A3E0048673E0080653E0038633EC9
:1006200000A8603E00985D3E0070593E00A0583E14
:100630000068563E00E0513E00984E3E00504B3E52
:100640000090473E00C8423E0060413E00703F3E81
:1006500000A83E3E00503D3E00F83B3E00C03A3E02
:1006600000E0383E00B0353E0000353E00E0333E4D
:100670000070303E00E82D3E00282C3E00A0283EB1
:1006800000C0253E00B8223E00901F3E00581C3E90
:100690000018193E00B8163E00E0153E00C8143E92
:1006A0000020133E0088123E0090103E00700F3E66
:1006B00000180D3E00B00A3E0058083E0020053EDE
:1006C0000090023E0080FF3D0080FB3D00F0F43DC5
:1006D0000090EF3D00D0EC3D00E0E83D0050E43DEF
:1006E0000010E43D0050E43D0050E23D00E0E03DFC
:1006F0000020DF3D0040DF3D0010E03D00A0DF3D79
:1007000000C0DE3D00C0DD3D0060DB3D0010D53D9A
:100710000080D03D0000CE3D0030C83D0020C33DEC
:1007200000A0C13D00F0BF3D0000BC3D00B0B83DA1
:1007300000D0B83D00D0B03D0020AC3D00F0A93D58
:100740000050A63D00E0A43D0080A13D00209C3D5E
:1007500000F0983D0070953D0090913D00408C3D2B
:1007600000708B3D0000873D0040853D0090843D3A
:1007700000E0843D00007F3D00407F3D0000783D6B
:100780000000703D00806F3D00606B3D00406D3D9E
:1007900000C06B3D0000683D00606A3D00606A3D3E
:1007A0000080613D00805A3D00205B3D0020573DA8
:1007B0000000523D00204D3D00C0463D0040433DFD
:1007C00000403F3D0020363D0000383D00C0333D35
:1007D00000C0293D0000253D0000283D00C0243D0B
:1007E00000C0213D0080243D00801D3D00A0173D3C
:1007F00000800F3D0000033D0080F83C0080EE3C8F
:100800000000E33C00C0E43C0000CC3C00C0BD3C28
:100810000080BB3C0000BD3C00C0BD3C0040C53C6E
:100820000000C43C0040CF3C0080D13C0080D83C5C
:100830000000E13C0080E23C00C0E53C0040EE3CB2
:100840000000EA3C00C0EC3C0080EF3C0040EE3C85
:100850000080EA3C0080E23C00C0D63C0000CC3C7A
:100860000040C13C00C0C03C0080C13C00C0B63C60
:100870000040B23C0040AA3C00C0A03C00409B3C71
:1008800000C0903C0000903C0040833C0080853CD0
:100890000080813C00806C3C00004F3C00803F3C6D
:1008A00000803C3C0080303C00803C3C0080383C78
:1008B0000000373C0080493C0080563C0000443C2E
:1008C0000000423C00803A3C0000433C0000533CA6
:1008D00000006F3C0000743C0000733C0080763CDC
:1008E00000006D3C0000733C00006F3C00006E3C5B
:1008F0000080493C0000283C0080213C0000173C5F
:1009000000801C3C0000093C0000D03B0000E33BA1
:100910000000BC3B0000893B0000BA3B0000BA3B32
:100920000000AE3B0000BD3B0000D03B0000CC3BD4
:100930000000983B00000E3B00004A3B0000AC3A30
:10094000000018BA0000F0B9000050BA0000BCBAAC
:10095000000078BB000016BB000028BB00004EBBA7
:100960000000D8BA000004BB0000D8BA000050BA9A
:10097000000000B9000080390000463B0000783BD1
:100980000000A13B0000DB3B0080003C0080013CFC
:100990000080003C0080023C0000F83B0000E73B88
:1009A0000000CB3B0000DF3B0000E53B0000AE3B1E
:1009B0000000963B00005A3B00000E3B00009C3AB2
:1009C0000000D83A0000883A000080B9000028BA38
:1009D0000000D4BA000000BB0000E8BA000060BA12
:1009E0000000CCBA000090B90000083A0000BC3A00
:1009F0000000163B0000A43A000088BA0000BCBA10
:100A00000000E0BA0000C4BA0000CCBA00004039CF
:100A10000000CC3A0000083A0000883A0000BC3AD6
:100A200000000E3B0000603A0000883A0000E83AFF
:100A30000000503A0000383A0000283A0000BC3A62
:100A4000000090B900001ABB00004ABB000083BB45
:100A5000000078BB0000B2BB00009CBB000074BB70
:100A6000000078BB000038BB000026BB0000CCBAF9
:100A70000000B4BA000008BB000085BB000012BB38
:100A80000000E0BA000034BB000040BB000056BBD1
:100A900000005EBB0000A9BB000074BB000080BB6F
:100AA000000096BB0000C1BB0000B2BB000083BBCE
:100AB0000000AEBB0000B4BB000098BB00005ABBF6
:100AC000000030BB000060BA0000B0B9000040BABE
:100AD000000080B8000080380000803A0000CC3A66
:100AE0000000003B0000383B0000783B0000343B36
:100AF0000000003B0000043B00009039000098BA61
:100B000000005EBB00009FBB0000ABBB000083BBCE
:100B10000000C3BB0000BFBB0000B4BB0000D0BBE3
:100B20000000A7BB00005ABB000016BB000090BA33
:100B30000000F039000040390000B43A0000F03AFB
:100B40000000A43A0000703A0000A43A0000F03A15
:100B50000000E83A0000983A0000443B00005A3B8D
:100B60000000BC3A000080390000503A0000B03963
:100B7000000028BA0000D0B900004039000000B9D8
:100B80000000E8BA000040BB00008FBB0000B2BB11
:100B90000000C3BB0000BCBB0000ADBB00009ABBA3
:100BA0000000A1BB00003CBB000012BB00000EBB5C
:100BB000000052BB000034BB0000BCBA000070BA99
:100BC000000070BA0000D4BA0000D4BA0000D8BA4D
:100BD000000098BA00000EBB00004EBB000046BBF0
:100BE00000006CBB000083BB00005EBB000038BB94
:100BF000000040BB0000E8BA0000E0BA000018BAEC
:100C0000000080B800000000000080B80000B4BA06
:100C10000000E0BA000028BA000040B90000B0B9F6
:100C2000000080B9000090390000000000009039F9
:100C30000000603A000018BA0000000000009CBAF2
:100C4000000060BA000028BA00000039000070BA45
:100C5000000016BB000052BB000062BB000092BB4C
:100C600000002CBB0000D8BA000050BA0000403988
:100C70000000803A000080390000083A0000403946
:100C8000000080B9000090B9000000000000F039B9
:100C900000009C3A0000D83A00009C3A0000383A24
:100CA0000000603A0000183A00004039000038BAED
:100CB000000038BA0000CCBA0000F8BA000038BB17
:100CC000000068BB00008FBB0000AEBB0000A3BBF0
:100CD0000000AEBB0000AEBB0000A7BB00008FBB96
:100CE000000030BB000016BB00002CBB00001EBB88
:100CF000000008BB00005ABB000028BB0000BCBAC3
:100D00000000C4BA00005EBB000044BB000074BB1E
:100D1000000092BB000092BB00009CBB000064BBC3
:100D200000005EBB00008FBB000078BB000052BB20
:100D300000004ABB000068BB000038BB000034BBA9
:100D4000000052BB0000E8BA000044BB00001ABB20
:100D5000000040BB000070BB000040BB000008BBAF
:100D6000000026BB0000CCBA00008039000090B91A
:100D70000000C4BA0000BCBA000060BA0000E0BACB
:100D80000000A4BA0000D4BA0000E0BA0000ACBA77
:100D9000000004BB00000ABB000028BB000004BB2D
:100DA000000088BA0000883A0000503A0000D039AC
:100DB00000001E3B00000A3B0000F0390000F03943
:100DC0000000B0B9000008BA000040390000383A0D
:100DD0000000B039000080B8000000390000983AE7
:100DE000000000B90000ACBA0000ACBA000090BA34
:100DF000000026BB00002CBB00001EBB00002CBB6B
:100E0000000044BB000034BB00004ABB000092BBA2
:100E1000000090BB00004EBB0000BCBA0000F0B95F
:100E2000000080390000503A00008039000038BAD4
:100E3000000090B9000038BA0000BCBA0000F0B958
:100E4000000050BA0000D8BA000028BB00005EBB0A
:100E5000000026BB000022BB000038BB000012BB14
:100E6000000008BB00005EBB000012BB0000F8BA27
:100E70000000ACBA0000D0B9000038BA0000D0B908
:100E8000000040BA000040B9000040BA000018BAA3
:100E90000000E0BA00000ABB000040BA000008BA37
:100EA0000000A4BA00009CBA000080BA0000F0392B
:100EB000000080BA0000B4BA0000F0BA000028BBFD
:100EC0000000F0BA00000ABB00000ABB000030BB03
:100ED000000012BB000008BB000098BA000060BA16
:100EE000000080B90000703A0000D43A00001A3BBC
:100EF00000001E3B0000003B00003C3B0000CC3AE1
:100F00000000B43A0000C43A0000BC3A0000003BC4
:100F10000000803A0000503A0000283A0000D0B9A2
:100F20000000F8BA000098BA0000F0BA00001EBB3A
:100F30000000C4BA0000F8BA000044BB00002CBB9B
:100F4000000012BB000056BB000080BB000074BB59
:100F5000000030BB000030BB00000ABB000050BAEC
:100F60000000903A0000D83A0000503A000000001B
:100F70000000403A0000D039000040BA000088BAB2
:100F8000000038BA000090B9000050BA0000A4BABE
:100F9000000022BB0000A4BA000040B9000000B964
:100FA000000090BA0000ACBA000040B90000D0B90F
:100FB00000000ABB00001ABB0000D4BA0000BCBA93
:100FC000000088BA000080B80000C4BA0000D4BA9B
:100FD0000000E8BA0000C4BA000040BA0000D0B96E
:100FE000000060BA000080B800009C3A0000803920
:100FF0000000403900008039000080BA00008038CD
:101000000000803A0000603A0000803A000090B989
:10101000000040B90000F0B9000040B9000008BA73
:101020000000503A0000003B0000163B00001A3B55
:101030000000F83A00000A3B0000883A00008038BF
:101040000000D0B90000ACBA000080BA000026BB96
:10105000000030BB000004BB000012BB000089BBD5
:101060000000C3BB0000B8BB0000BCBB0000AEBBAF
:1010700000009FBB000080BB000074BB000064BB8D
:1010800000004EBB000078BB00008FBB00006CBBB3
:10109000000022BB000022BB0000CCBA000008BA4E
:1010A000000080B90000F03900000000000038BAEC
:1010B00000000000000080B9000080B90000D0B935
:1010C000000080B9000000B90000A4BA000026BBEF
:1010D00000002CBB0000D4BA000008BB0000E0BA3E
:1010E0000000BCBA00009CBA0000E0BA0000B0B931
:1010F00000000000000040390000D039000080B836
:10110000000000B90000BC3A0000603A0000A4BA38
:10111000000070BA0000D4BA000060BA000080BAC3
:10112000000008BB0000D4BA0000000000008038B6
:101130000000503A000090B9000070BA000028BAD0
:101140000000183A0000F03900000039000098BA99
:10115000000070BA000040B900009C3A0000083A54
:10116000000000000000383A0000803A00000E3B0A
:101170000000F03A00000039000040BA00000ABB4D
:1011800000004EBB000096BB0000D6BB0000ABBB0E
:10119000000090BB000081BB0000ABBB0000B8BBEF
:1011A0000000ABBB0000BABB0000C7BB0000C3BB64
:1011B000000080BB000087BB000090BB00008BBB21
:1011C000000083BB0000A5BB0000BFBB0000ABBBA1
:1011D00000008DBB00004ABB000046BB000026BBE0
:1011E000000088BA0000D0B90000603A000000009A
:1011F0000000D0B9000090BA0000D0B9000040391A
:1012000000000000000000B9000090B9000000BB21
:10121000000000BB000040BA0000503A0000003956
:101220000000BCBA0000D8BA0000D03900008039F4
:101230000000B0B9000080B90000703A00008039A9
:1012400000004039000080380000C4BA000068BBCC
:1012500000004ABB000074BB00008BBB00009ABBBF
:10126000000078BB000012BB00002CBB000040BB9C
:10127000000028BB0000F0BA00003CBB000038BBF7
:101280000000A4BA000040BA000080B900000000CD
:101290000000A4BA000040B9000040B90000383A8C
:1012A0000000F83A00000A3B0000783B00009E3B3B
:1012B0000000833B0000043B0000E03A000080B8DF
:1012C0000000CCBA000012BB0000C4BA00000EBB84
:1012D000000030BB00006CBB000092BB0000D0BB24
:1012E000008001BC0000DABB0000B2BB0000C7BB3D
:1012F0000000CEBB0000B2BB0000ECBB0000EABBAC
:101300000000B0BB000098BB0000ABBB0000B2BB4C
:1013100000004ABB000088BA000060BA000080B834
:101320000000BC3A0000383B0000123B00002C3BA0
:101330000000083B0000BC3A0000603A0000F03AB0
:101340000000983A00008038000000000000B4BAA5
:10135000000090BA000080BA000098BA000040393E
:1013600000008038000050BA000018BA0000903920
:1013700000009039000000B90000D0B90000883AA0
:101380000000503A0000283A0000CCBA0000E8BA49
:10139000000008BB0000E0BA000000390000183A65
:1013A000000090B90000F8BA000090B90000903930
:1013B0000000C4BA000016BB000085BB0000A1BB42
:1013C000000070BB000094BB0000A5BB0000B0BBD8
:1013D0000000A9BB000083BB00000ABB000040BAAC
:1013E000000080390000283A0000463B0000463BE0
:1013F0000000983A0000F0B9000080BA0000CCBAB2
:10140000000028BB00008FBB0000ABBB000090BBFE
:101410000000A3BB0000A7BB000092BB000092BB72
:101420000000BFBB000098BB000070BB000052BBB7
:1014300000008BBB000056BB000028BB000074BB43
:10144000000080BB000085BB00008BBB000096BB8A
:10145000000089BB00001ABB00000ABB000044BBAF
:101460000000F8BA000080BA000018BA000088BA7C
:101470000000BCBA0000F8BA000098BA000090BAA8
:101480000000903900004039000018BA000018BA76
:10149000000090390000603A0000983A000040B91E
:1014A000000080B8000088BA000080BA000090B93F
:1014B0000000803800009039000018BA000088BA97
:1014C000000090B90000B0390000D0390000283A7F
:1014D0000000AC3A0000983A0000983A0000BC3A8C
:1014E0000000CC3A0000E83A0000CC3A0000703A24
:1014F000000080BA00000EBB000004BB0000CCBAA4
:10150000000012BB000034BB000004BB000012BB93
:10151000000004BB000008BB000090BA00000039C6
:101520000000F03A00004A3B0000813B0000523BC3
:101530000000A43A00008039000080B9000040BAE1
:10154000000070BA0000D4BA000030BB000000BB3D
:10155000000040BB000040BB00006CBB00008DBB26
:101560000000ABBB0000BFBB0000D6BB0000DBBB74
:101570000000C1BB0000C1BB00009CBB000078BBE9
:101580000000A7BB000098BB000089BB000028BB7F
:101590000000BCBA000000000000183A00009039BA
:1015A000000000000000C43A0000AC3A000000391E
:1015B0000000D0B9000080B9000070BA00002CBB58
:1015C000000052BB000064BB000074BB00007CBB89
:1015D000000094BB000074BB00004EBB00005EBB6B
:1015E000000012BB00000EBB0000ACBA0000A4BAA1
:1015F000000060BA0000D0B90000AC3A0000CC3A5C
:101600000000163B0000D43A0000523B00000A3BA9
:101610000000E83A0000E83A0000443B00002C3BA0
:101620000000F83A0000303B0000043B0000BC3AE8
:101630000000D039000018BA000028BA0000C4BA6F
:101640000000F8BA0000E8BA000056BB000080BBFA
:10165000000070BB000074BB0000CCBA000040B9B1
:10166000000080B80000883A0000303B00000E3BCC
:101670000000223B0000D83A0000C43A0000F039D4
:10168000000090BA000012BB000044BB000068BB21
:10169000000089BB000090BB00009FBB0000AEBBF8
:1016A0000000A3BB00009CBB000068BB000087BB20
:1016B000000070BB00006CBB000022BB000074BBCC
:1016C000000085BB00000ABB000052BB000081BBCC
:1016D0000000C4BA000080B900009039000090BA40
:1016E00000000000000080B9000028BA000004BB20
:1016F000000056BB00009EBB0000C7BB0000B2BB91
:101700000000DBBB00000BBC000009BC00000ABCF1
:101710000000FDBB0000ECBB0000F6BB0000E9BB15
:101720000000D0BB0000B8BB0000A9BB000052BB4A
:1017300000001ABB000080B8000000000000CC3A96
:101740000000343B00001A3B0000A43A0000883A35
:101750000000283A0000383A0000183A00008039AA
:101760000000F03A0000F83A000080390000F0393B
:101770000000B0B9000008BB0000C4BA000038BACD
:1017800000000EBB0000F8BA000070BA0000CCBA2E
:10179000000026BB000044BB000046BB0000E8BAC6
:1017A0000000E0BA0000B4BA000060BA000050BA0D
:1017B0000000ACBA000022BB0000F0BA00003CBB45
:1017C0000000E0BA000088BA000028BA000080BA21
:1017D0000000903A0000803A0000C43A000028BAA5
:1017E000000016BB00002CBB00000EBB00002CBB91
:1017F000000040BB000080BB000080BB00004ABB73
:1018000000008DBB000090BB000098BB00004EBBE9
:1018100000001ABB000080BA0000703A00000039D6
:101820000000703A00008038000040B9000088BA1B
:101830000000A4BA000012BB000034BB00008BBB48
:101840000000A1BB0000BCBB0000D8BB0000E7BB90
:101850000000E5BB0000BFBB0000ADBB0000B4BB97
:101860000000BABB000098BB00000ABB000090BAA1
:10187000000000000000083A0000A43A0000003B0D
:101880000000F03A0000A43A0000183A000040B905
:10189000000000B900008039000000390000603A03
:1018A0000000503A0000383A0000123B00000E3BA6
:1018B0000000D43A000000000000000000009C3A44
:1018C00000008038000008BA000008BB000078BBA8
:1018D000000056BB000081BB000083BB000070BB52
:1018E000000046BB000090BA00008039000000B93B
:1018F000000050BA00009CBA000038BA00009039CD
:101900000000000000000000000080B9000038BAAC
:10191000000038BA000040B9000098BA000030BB9F
:101920000000D4BA000038BA0000D8BA000090BA5B
:10193000000000000000383A0000F0390000D03903
:10194000000080BA0000ACBA000070BA0000CCBA47
:10195000000038BA000080390000403A00008038AA
:10196000000090B9000018BA000080BA000034BB33
:1019700000005EBB000074BB00009ABB0000BDBB52
:101980000000C7BB0000D8BB0000D8BB0000D6BB1E
:101990000000ADBB0000ABBB000087BB000081BBFB
:1019A000000087BB000062BB00005ABB000016BBF2
:1019B0000000E8BA000080BA000080B8000090394A
:1019C00000009CBA000088BA000050BA000080B83D
:1019D000000000B90000383A000080380000803A6A
:1019E0000000403A0000883A0000503A0000883A6F
:1019F0000000A43A000080B8000038BA000070BAB5
:101A0000000034BB0000E0BA00003CBB000070BB2B
:101A1000000081BB000056BB000008BB000004BBF7
:101A2000000026BB0000D4BA000060BA000070BA03
:101A3000000070BA00001ABB000028BB000030BBD9
:101A40000000E8BA00004ABB000062BB000046BBD1
:101A5000000046BB000030BB000094BB0000AEBBE2
:101A60000000BFBB000085BB00004EBB00001ABBDE
:101A70000000F8BA0000D4BA000080B8000060BAD4
:101A8000000028BA000008BA000090390000883A27
:101A90000000F03A0000803A00000000000080B82A
:101AA0000000283A000000B9000000BB000081BB24
:101AB000000046BB00001ABB00001EBB000044BB78
:101AC000000044BB000040BB0000E8BA000070BA50
:101AD0000000B0B90000903900009C3A0000D43AF0
:101AE0000000AC3A0000983A000038BA000060BA32
:101AF000000000000000B0B90000403A0000383A91
:101B000000009039000070BA000060BA000028BAE6
:101B1000000070BA000080B8000088BA0000803869
:101B20000000083A000080390000083A000090B92F
:101B300000009CBA000026BB0000C4BA000080B8B8
:101B4000000060BA000090BA0000CCBA00000ABBE6
:101B5000000004BB000090BA000000B9000040394A
:101B6000000040390000AC3A0000523B0000283B26
:101B70000000D43A0000503A00000039000080B85C
:101B8000000000000000603A0000083B0000303B0D
:101B90000000463B0000F03A000004BB000016BB0A
:101BA00000000EBB00001ABB000038BB00005ABB8F
:101BB000000016BB000046BB000056BB000044BB43
:101BC000000078BB000004BB000000390000083BA7
:101BD0000000223B00004A3B0000283B00001E3B67
:101BE0000000563B00005E3B0000C43A000038BADB
:101BF000000016BB000030BB000016BB00005EBB3F
:101C000000008BBB00006CBB000008BB000040BAAA
:101C10000000D03900001A3B00004E3B0000463B5C
:101C20000000643B00009A3B0000943B0000903BA6
:101C300000009E3B0000803B0000893B0000563BBB
:101C40000000CC3A0000B0390000CCBA000012BB52
:101C50000000E8BA000044BB000064BB00004EBBBB
:101C600000000EBB000070BA000034BB000044BB93
:101C7000000080BB00008FBB0000B4BB0000A1BB14
:101C8000000096BB0000B0BB0000BABB000090BBD8
:101C90000000A5BB000080BB00002CBB00001EBBE9
:101CA0000000C4BA0000000000000000000070BA8C
:101CB00000000ABB000000BB000028BB000090BA77
:101CC000000004BB0000C4BA0000D4BA0000000049
:101CD0000000283A0000503A0000183A0000003B8B
:101CE00000001E3B00003C3B0000683B0000163B30
:101CF000000080390000183A000080BA000090BB54
:101D00000000ECBB0000B6BB0000BDBB00009FBBE9
:101D100000006CBB000028BB0000BCBA0000A43A65
:101D200000001A3B00000A3B0000383A000000396E
:101D30000000D0390000D0B9000090B9000088BA86
:101D4000000070BB0000A9BB00008DBB00003CBBC5
:101D5000000070BB000068BB0000E8BA0000B0B92A
:101D600000009C3A0000F03A0000283B00004E3B87
:101D70000000783B0000923B00009F3B00000A3BC4
:101D800000009039000088BA0000F0BA000074BB6F
:101D9000000098BB000094BB0000C9BB0000DBBB87
:101DA000000083BB00008DBB0000A3BB0000AEBBE6
:101DB0000000A1BB00009EBB00009CBB0000A7BBB5
:101DC00000009EBB0000CBBB0000E9BB0000B4BB21
:101DD0000000B0BB00009EBB00005ABB00005ABB15
:101DE000000070BA000080B9000018BA0000ACBA58
:101DF0000000B4BA0000F0BA0000F0BA000008BA5F
:101E00000000B43A0000603A0000AC3A00000A3B1F
:101E10000000E03A0000303B0000E03A0000883A61
:101E20000000703A0000B0390000603A0000E03A6B
:101E300000009C3A000000000000B0B9000060BA49
:101E40000000A4BA000056BB000098BB00007CBB99
:101E50000000B6BB0000C7BB0000B8BB00009ABBC7
:101E6000000083BB000044BB000000BB000070BA50
:101E70000000E03A0000123B0000D83A00000E3BA0
:101E80000000903A000008BA0000D8BA000028BA52
:101E90000000D4BA000012BB0000F8BA0000BCBABF
:101EA00000000EBB000088BA0000703A0000CC3A77
:101EB0000000F03A0000803B00008F3B0000C13B77
:101EC0000000BA3B0000CC3B00009F3B0000803B81
:101ED0000000F03A000018BA00009CBA00001EBBD7
:101EE00000002CBB00004ABB000064BB00006CBBC0
:101EF000000089BB000092BB000085BB000062BBF4
:101F000000007CBB00008BBB00009EBB0000BFBB81
:101F10000000CBBB0000BABB0000C7BB0000B6BBD3
:101F200000009CBB000052BB000030BB000012BB95
:101F3000000022BB0000D8BA000088BA000090BAA6
:101F4000000028BA0000F0BA00004ABB000044BB01
:101F5000000004BB000046BB000022BB00001ABB0F
:101F6000000038BA0000A4BA0000803900008039AF
:101F70000000503A0000F0B9000018BA0000E8BABA
:101F8000000008BB000000BB0000D8BA0000D8BAAF
:101F9000000012BB00001EBB000044BB00000EBBD3
:101FA000000038BB000096BB0000B2BB00009ABB2B
:101FB0000000A5BB0000B6BB000034BB0000E8BABF
:101FC000000080BA000080390000E83A0000303B91
:101FD0000000C43A0000B03900000000000038BA28
:101FE0000000D8BA00002CBB000070BB00006CBB26
:101FF000000000BB000040B90000603A000000395A
:102000000000003B0000403B0000A13B00009C3B67
:102010000000AB3B0000B23B0000B03B0000A93B1E
:102020000000943B0000A43A0000C4BA000026BBA4
:1020300000004ABB0000C3BB00000ABC000009BC92
:102040000000F2BB0000CBBB000070BB000085BBF2
:1020500000006CBB000016BB000090B9000090BAF5
:102060000000D0B90000A4BA000046BB00006CBB61
:102070000000B6BB0000CBBB0000F8BB0000D6BB25
:10208000000098BB000056BB000068BB000038BBD6
:10209000000016BB000038BB000074BB000092BB00
:1020A00000008DBB00008BBB000092BB00007CBB1E
:1020B00000006CBB00003CBB000012BB0000E0BA9B
:1020C0000000CCBA000040390000343B0000983BCF
:1020D0000000813B0000923B0000963B0000743BF7
:1020E0000000383A0000F8BA0000D4BA000070BA14
:1020F000000060BA000038BB000090BB000098BB35
:1021000000006CBB000046BB000030BB000004BBFD
:102110000000B4BA0000183A0000F0390000E83AB4
:102120000000B43A0000A43A0000883A0000383AAF
:10213000000090390000803A0000BC3A00000039ED
:1021400000009CBA000098BA0000403A00002C3B06
:102150000000743B0000683B00009C3B0000AB3B70
:102160000000CC3B0000E13B0000BF3B00009A3B7D
:102170000000A13B00008B3B00005A3B0000C43A2A
:10218000000008BA00001EBB000074BB0000AEBB1C
:102190000000D2BB0000DDBB0000D4BB0000A7BB29
:1021A000000028BB00003CBB000012BB000004BBC9
:1021B000000016BB000098BA000090B90000ACBA4D
:1021C000000090B90000083A000000390000D8BAB9
:1021D000000044BB0000B4BB0000DBBB0000CEBB72
:1021E0000000B4BB0000F2BB008000BC0000E7BBF5
:1021F0000000DDBB0000F9BB008012BC0000FDBB8D
:102200000000F9BB0000D8BB0000A7BB00005EBB0C
:10221000000026BB0000A4BA0000E03A0000083B22
:102220000000E83A0000183A0000603A0000883ADE
:102230000000083A0000F0B9000028BA0000F0B928
:102240000000C4BA000016BB000044BB000046BB3F
:10225000000022BB000012BB000098BA000080B949
:10226000000080390000A43A00004A3B0000683BAF
:102270000000563B00007C3B00009C3B00005E3BA6
:102280000000903A00000000000018BA000080B87A
:102290000000D0B9000000B90000603A0000383AF0
:1022A0000000AC3A00001E3B0000BC3A0000803940
:1022B0000000BC3A0000B039000000390000E03AEC
:1022C0000000B0390000A4BA000028BA00000039AC
:1022D0000000AC3A000070BA00000ABB000008BB66
:1022E0000000D8BA0000E8BA000074BB0000E7BBE9
:1022F00000000BBC00000ABC0000E5BB0000BABB3C
:102300000000AEBB000092BB000070BA0000D039E4
:1023100000000039000000000000183A0000383AC0
:10232000000090B9000026BB00001EBB000034BBBB
:102330000000B6BB0000C1BB008002BC000023BC93
:1023400000802ABC000007BC0000F9BB0000BABB3B
:1023500000005EBB000016BB0000B0B90000803872
:10236000000080B9000060BA0000D0B9000080B958
:1023700000000039000080BA0000E0BA000098BAFE
:102380000000F039000090B9000000000000383A69
:102390000000383A0000803A000000B90000F0B9AF
:1023A000000040BA0000D0B90000083A0000BC3A72
:1023B0000000083A00001E3B0000443B00005A3B6E
:1023C0000000403B0000783B00009C3B00008B3B42
:1023D0000000943B0000523B0000223B0000443BC5
:1023E0000000F03A000080B8000040B90000403919
:1023F00000000039000000B90000B0B9000080B949
:10240000000040390000F039000098BA0000E8BA36
:10241000000030BB00003CBB0000E8BA000050BA2E
:10242000000008BB0000F0BA00004039000080B88E
:1024300000000ABB0000F8BA0000D8BA000040BA99
:102440000000D8BA000052BB000080BB000052BBA5
:10245000000062BB00005ABB000090BB0000A3BBA1
:1024600000008FBB00003CBB000004BB0000D8BADA
:102470000000ACBA00003CBB000046BB000038BB0B
:10248000000034BB000044BB00005EBB000092BBF8
:10249000000081BB00005EBB000083BB000068BB86
:1024A00000008BBB00009EBB00007CBB00005EBB3D
:1024B000000064BB000064BB000090BB000089BB4F
:1024C00000007CBB000044BB00000ABB000060BAF7
:1024D000000090390000403A0000983A0000BC3AF1
:1024E0000000183A0000183A0000703A0000983ACC
:1024F0000000083A000000000000B4BA000080BAF2
:1025000000001ABB000022BB0000F0BA000040B976
:10251000000008BA000040390000803A0000E83AA4
:102520000000443B0000623B00004E3B0000463B85
:1025300000004E3B0000003B000000000000F0BA2D
:10254000000046BB00008FBB0000C3BB0000B6BB51
:1025500000009CBB0000BCBA0000183A0000083B19
:102560000000083B0000C43A0000F83A0000B0390F
:10257000000016BB0000A1BB0000BDBB0000C9BB32
:102580000000F0BB0000FDBB0000EEBB0000DABBAA
:102590000000AEBB000094BB000044BB0000D4BAF6
:1025A000000088BA000000000000403900008038B8
:1025B000000088BA000046BB00005ABB00005EBBAA
:1025C000000087BB0000AEBB0000A5BB00008BBBBA
:1025D000000087BB000083BB00004EBB0000F8BAC0
:1025E00000004ABB000056BB0000F0BA0000B4BABD
:1025F00000000ABB000064BB00003CBB000068BBDD
:102600000000F0BA000012BB000096BB0000C9BB7E
:102610000000A9BB000062BB00009FBB0000C3BB61
:102620000000C9BB0000B4BB000034BB0000D0B93F
:102630000000083A00004039000040B90000403A6C
:102640000000703A00000000000080B9000080B96E
:10265000000080B80000803A0000503A000080B8C6
:102660000000B43A0000623B00004E3B0000083B13
:102670000000383B0000463B00008D3B0000643BFF
:102680000000303B0000B039000090B9000060BA93
:10269000000080B90000A4BA000046BB000012BBD5
:1026A0000000BCBA000056BB00008BBB000083BB1F
:1026B00000002CBB0000ACBA0000603A0000C43A35
:1026C0000000443B00005A3B00002C3B0000003B54
:1026D0000000803A00009CBA000028BB000085BBC7
:1026E00000009FBB0000BABB0000C7BB0000BABB24
:1026F00000009EBB000090BB0000B0BB0000A9BB67
:10270000000046BB00009CBA0000D0B900000000E9
:102710000000D0B9000090390000AC3A0000003948
:102720000000E8BA00004EBB000052BB00007CBBBA
:10273000000098BB0000CCBB0000F9BB0000EABB66
:102740000000AEBB0000ADBB0000C1BB0000A7BBDA
:10275000000070BB000030BB000040BB00002CBB81
:10276000000038BB00002CBB000028BA000070BA83
:10277000000098BA000000BB000090BA000040BA08
:10278000000070BA0000B0B9000008BA0000D039EB
:1027900000000E3B0000383B0000F83A0000BC3A55
:1027A0000000703A0000883A0000F039000018BAC2
:1027B000000018BA000090B90000503A0000D0B9EB
:1027C00000008039000080380000C43A0000BC3AA4
:1027D0000000503A00008038000080380000383A8D
:1027E00000009039000018BA000022BB000056BB60
:1027F00000000EBB0000CCBA000040BB000038BB9C
:1028000000004EBB000000BB000070BA000080B8A2
:1028100000009C3A0000D43A0000883A0000223BB5
:102820000000803B00008D3B00006C3B00001E3B25
:10283000000040B900000EBB000083BB0000BFBB1E
:102840000000C1BB0000BFBB0000B8BB0000A7BBBD
:1028500000007CBB000052BB0000C4BA0000A4BA58
:102860000000ACBA000090B90000883A0000C43AF9
:102870000000D0390000B0B9000038BA000080393B
:10288000000090B90000C4BA00003CBB000068BB67
:10289000000056BB00001EBB00006CBB00009ABBD2
:1028A000000068BB000008BB000040BA00000EBB7F
:1028B0000000E0BA00009CBA0000A4BA000028BBE7
:1028C000000056BB000030BB000080BA00000000D2
:1028D000000080B90000B0B9000040BA0000B0B9F3
:1028E00000000000000000B9000040B90000C4BAB8
:1028F000000040BA0000B0B90000F0B900001EBBF3
:10290000000040BB000064BB00006CBB000040BB8B
:1029100000005EBB0000CCBA0000F8BA0000E8BAC4
:1029200000000000000070BA000034BB000090BB43
:102930000000A7BB000098BB00006CBB000056BBAA
:1029400000004EBB00002CBB000080B90000603AC4
:102950000000383A0000D83A0000003B0000B039CF
:102960000000B0B90000603A0000803A0000A43ACC
:102970000000883A0000083A000090390000703AE0
:102980000000263B00000E3B0000F03A0000443BF4
:102990000000343B0000BC3A0000803A000050BA0E
:1029A0000000ACBA0000ACBA000022BB00002CBB97
:1029B00000005EBB000083BB000034BB00001EBBF8
:1029C00000003CBB00007CBB00003CBB0000A4BA84
:1029D000000040BA000088BA00000ABB00001EBB1D
:1029E000000016BB0000E0BA0000A4BA000060BA04
:1029F000000080BA000026BB00000ABB00002CBB10
:102A0000000070BB00008BBB000094BB000034BB17
:102A1000000034BB000022BB000016BB000034BB2A
:102A20000000B4BA000080BA000070BA000050BACA
:102A3000000008BA0000F039000000000000ACBA45
:102A4000000046BB00004EBB000052BB000070BB44
:102A5000000080BB000046BB000026BB00000ABB94
:102A60000000F0BA00000ABB00001ABB000004BB63
:102A700000000ABB0000B0B900001E3B0000AC3AE9
:102A8000000080380000083A0000A4BA0000D8BA5C
:102A90000000CCBA000000BB000070BB000092BB7D
:102AA000000046BB000022BB000028BA0000000066
:102AB000000040B90000B0390000183A0000BC3AEC
:102AC0000000BC3A0000603A0000083B0000783B80
:102AD00000008B3B0000743B00000E3B0000A43A5A
:102AE0000000703A0000083A0000B4BA000080BA52
:102AF00000000ABB00001ABB000098BA0000C4BA6C
:102B000000001ABB000000BB0000BCBA0000A4BA61
:102B1000000026BB00004EBB000026BB0000A4BA8C
:102B20000000B4BA000085BB000025BC0000403A9C
:102B300000007C3B0000083B0000893B0000983A05
:102B4000000040B9000080BA0000B0B9000040B9F0
:102B50000000603A00000000000080380000D4BA95
:102B6000000038BB000000BB0000F8BA0000A4BAA7
:102B700000801F3C00004EBB008065BC00005ABBBB
:102B800000008B3B000046BB000080380000D83AB4
:102B9000000040BA0000883A0000083A0000463BB6
:102BA0000000083B0000B039000028BA0000C43A19
:102BB0000000DBBB0000F9BB00002CBB000043BCE5
:102BC00000C099BC00007CBB000050BA000028BACD
:102BD00000008039000004BB0000B63B000000008C
:102BE0000000E03A0000783B00008F3B0000263BED
:102BF000000034BB0000F0BA0000A7BB0000F8BB27
:102C00000000F0BA000056BB000040BA000098BABD
:102C10000000383A0000D83A0000ACBA0000F039A1
:102C20000000903B0000083A0000E03A0000083B3A
:102C30000000D83A000040BA000012BB000018BAE9
:102C4000000034BB0000BCBA000098BA000098BA7B
:102C50000000A4BA0000B0B90000A43A00000E3B86
:102C6000000090390000B03B000000B900008D3B2F
:102C700000008F3B0000B0B90000703A0000D0B9EE
:102C80000000BCBA00007C3B0000703A0000503AE3
:102C90000000743B0000083A0000D83A0000283BCE
:102CA0000000563B0000D0390000BC3A0000903ACA
:102CB00000005ABB000080B8000004BB0000B0B99F
:102CC000000074BB0000D8BA000088BA000012BB34
:102CD000000094BB0000B0B900005ABB000098BAD5
:102CE000008085BC0000B5BC000023BC0000A1BB77
:102CF0000000B8BB0000803A00001ABC008025BD6F
:102D0000000068BB0000E33B00000ABC0000FB3B86
:102D10000000AD3B00004A3B00009A3B000060BA57
:102D200000002CBB00009F3B0000283A000028BA9E
:102D30000000A53B00803ABC0000ACBA0000AEBB6E
:102D4000008021BC0000523B0000D43B0000183A38
:102D50000000D4BA0000D63B0000BC3A000080B8A6
:102D6000000008BB0000B8BB000040B90000C43A36
:102D700000800DBC000022BB0000C5BB0000FDBBF5
:102D80000000043B000040B90000743B0000E73B3A
:102D9000000000000000B43A0000873B0000983AB1
:102DA0000000223B000012BB000012BB0000883A6A
:102DB0000000F2BB000070BB00003C3B008020BC68
:102DC0000000783B000070BB000070BA000070BAD1
:102DD0000000803B0000DBBB0000AE3B0000D039B0
:102DE00000000ABB0000EC3B000004BC0000813B7B
:102DF00000001E3B00005EBB0000F83A0000D6BB9E
:102E0000000090BA000080B9000064BB000081BBE4
:102E10000000403B0000C5BB0000183A0000BCBAEF
:102E20000000A43A000000000000D0B900004FBC30
:102E30000000443B000089BB0000CBBB0000F03920
:102E40000000CC3A00801ABC0000BCBA0000C43AB2
:102E500000009ABB000090B9000038BA0000E0BA48
:102E6000000087BB000044BB0000923B000074BC24
:102E70000000263B000088BA0000E3BB00009FBBB7
:102E800000008B3B00004ABB000062BB00801D3C81
:102E900000006CBB0000E5BB0000183C00800DBCCE
:102EA0000000983A000090BA0000883A00003CBB4D
:102EB0000000E3BB00000ABB0000D8BA00000E3BD4
:102EC000000000B90000B2BB008012BC00004A3B09
:102ED000000034BC00009FBB000081BB0000043B2D
:102EE0000000C7BB00008F3B0000083A0000923B87
:102EF0000000303B0000BA3B0000B2BB0000D83BF2
:102F0000000035BC0000C43A00802ABC0000C3BBEE
:102F1000000060BA000037BC0000AD3B00008DBB74
:102F200000006CBB0000D83A0000C5BB00006CBBC1
:102F30000000303B0000DF3B0000B4BB0000D43A8F
:102F40000000BDBB000050BA0000CE3B00801BBC9F
:102F50000000D0390000C73B0000D0BB00000E3B92
:102F60000000FFBB000098BA0080033C000004BBD7
:102F70000000C43A000004BB000080BA0000BC3A64
:102F800000803CBC0000D23B0000EEBB0000BFBB99
:102F9000000046BB0000A33B00806BBC000022BBCE
:102FA0000000D0390000EEBB00005ABB00004EBB51
:102FB00000009CBA000062BB00000EBB000040BBDA
:102FC0000000F03A000092BB0000E73B00009CBB11
:102FD0000000E13B000012BB00001E3B008021BC52
:102FE000000070BA0000E5BB000098BA008003BC86
:102FF000000000000000C3BB0000AD3B00008038B3
:103000000000BF3B00800EBC0000073C0000F03910
:103010000000B03B0000983B00002C3B0000F0BAE1
:103020000000003B0000283B0000E8BA0000443BE1
:10303000000064BB0000F03A0000B4BB008067BC35
:103040000000853B0000F8BB0000BC3B0000223CB8
:10305000000080BB0000E13B000098BA0000423C49
:1030600000009CBA000050BA000031BC0000463B92
:1030700000801ABC0000C5BB0000FBBB000040BACA
:10308000008001BC00008D3B00009F3B000060BA47
:103090000000383B00004A3B0000ADBB000028BBED
:1030A00000801C3C000052BC0000A4BA000098BB89
:1030B0000000903A00006DBC0000C4BA00002C3B38
:1030C000000094BB0000F0B9000040BB000028BB2A
:1030D0000000893B000000BB0000803A00001A3B62
:1030E0000000B4BB0000E8BA0000DFBB0000B8BBC2
:1030F0000000683B000004BC000070BA00008FBBF9
:1031000000002CBB000087BB00805B3C000007BCBC
:103110000000A9BB0080663C00007CBC000053BCE2
:103120000000813B000090390000D039000040BB16
:1031300000000A3B0000F2BB00001ABC0080103CFB
:103140000000E5BB000006BC00008D3B000070BB2A
:103150000000A1BB000004BB0000603A0000403941
:103160000000DDBB000005BC000090B900003CBBC6
:103170000000E1BB0000F23B00009F3B00801EBC52
:103180000000363C000016BB0000F8BA000008BC86
:103190000000093C0000D0B900001ABB0000123B3F
:1031A0000000F23B0000D2BB0000ADBB0000263B9C
:1031B000000054BC00004F3C00005ABB0000193C0A
:1031C0000000CB3B000024BC00802B3C000068BB0F
:1031D000000087BB000034BB0000BABB00802FBCDE
:1031E00000C0B83C00C0A7BC0080033C000094BBFA
:1031F0000000893B00009E3B00008FBB000062BBCB
:10320000000007BC00809F3C0040A7BC0000923B30
:10321000000064BC000008BB00001A3B0000F8BAC4
:103220000000EEBB000040BA0000CCBA0000D6BBE4
:10323000000061BC000046BC00801CBC000096BCC5
:1032400000806C3C000000000000AC3A00004039F7
:103250000000703B00800B3C0000CCBA000022BC98
:1032600000805DBC00005E3B000038BC000047BC35
:103270000000833B000078BB0000903B000056BB81
:103280000000BABB00802F3C0000B43B0000303B84
:1032900000804A3C00003C3B00008DBB0000C9BBE5
:1032A0000000C9BB0000183A0080013C0000623BEE
:1032B000000000B900008D3B00000000000046BB8C
:1032C00000800EBC0000A9BB000081BB0080A5BC33
:1032D0000000F0BA0000303B000074BC00804EBC1F
:1032E00000C0913C000054BC0000403A008058BC33
:1032F0000000353C00008BBB0000313C0000DDBB12
:10330000000023BC0000ECBB00801ABC00802EBC77
:103310000040B7BC00C09A3C0000463B000022BB06
:103320000000703B0080863C0080213C00C0823C55
:103330000000A53B0000F93B0000E1BB0000453C5C
:103340000000AEBB00806ABC0000FDBB00008038FE
:10335000000008BB0000D8BC0000A53B0000B0BBCB
:1033600000000E3B0000083B0080743C000008BADF
:103370000000943B000028BA00C0AEBC0000093C2D
:10338000008038BC000025BC000080BC0040933C9D
:10339000008048BC000043BC0000E93B0000E8BAE4
:1033A0000000A13B00802C3C0000D63B000037BC55
:1033B0000000DB3B00001A3C000013BC0000133C83
:1033C0000000B039000038BC000042BC0000A4BAC4
:1033D0000040853C008057BC0000FDBB00804A3C9B
:1033E0000000303B0000873B0000193C0000403BE0
:1033F000000090BB0000413C00800DBC0040CDBCF3
:1034000000008BBB0000BA3B0000E3BB0000163B92
:103410000000233C00800CBC0000EABB0000A73C7D
:10342000000080B80000B8BB00804A3C00001EBB12
:103430000000623B004085BC0080473C00409ABCD5
:103440000000AC3A0000043B0000C7BB0000ECBB2E
:103450000000A33B0000F43B0000523B0080113C05
:1034600000808D3C008074BC0000E13B0000A93B63
:10347000000080BA00003CBB00805ABC0000163B34
:10348000000053BC0000043B00000ABB008002BCEB
:1034900000802BBC00001ABB0000443B0000B4BA03
:1034A00000802FBC0080653C000000390000D23B4A
:1034B000008077BC0000643B000033BC00007CBC93
:1034C000000043BC0000D6BB0000143C000051BC0F
:1034D0000000403B00800DBC00807B3C0000883A2F
:1034E00000005E3B00009C3B00000EBB000022BBC6
:1034F00000009CBA0000A7BC008021BC0000FB3B80
:103500000000A93B00805BBC0000E9BB0000A4BA3E
:103510000080003C0000DB3B00804D3C0000CC3ACA
:103520000000F83A00803E3C0000183A000007BC5A
:1035300000001A3B0000073C000028BB000064BCF0
:103540000000F6BB0000B43B000044BB0000623B3F
:10355000000074BB0080683C00009C3A0000BDBBCA
:103560000000983B0000ABBB0000D83A0000683B6D
:103570000000D83A00409BBC000052BC000000395B
:10358000008058BC008038BC000013BC0000B63B73
:10359000000038BB0000FB3B0000F93B008030BC62
:1035A0000000D0390000B4BA008049BC0000783B6C
:1035B0000000BA3B0000A43A0000CBBB0000653C11
:1035C000008003BC0000F8BB0000943B0000F0BA90
:1035D0000000163B000016BB0000183A00806BBCD0
:1035E000000000390000783B000052BC0000B43BF2
:1035F0000000C93B008001BC004093BC0000643B5C
:10360000000070BC000022BC0000AB3B000040B9D1
:10361000008048BC00009F3B0000603C0000EEBB07
:103620000000EC3B00004A3B0000F03A00004EBBBB
:103630000000683B00009CBB008069BC0000223B8E
:10364000000070BA008075BC0000C3BB0000F03BF6
:1036500000009E3B00004F3C0000903A0000F63B0B
:1036600000009FBB0040943C000016BB0000EA3BFA
:103670000000A93B0000A1BB0000D43A0000F4BB4D
:1036800000800E3C0000BABB0080473C008001BCBB
:103690000000703A0000F83A0000F23B0000DABB8C
:1036A000000060BA00C0823C00C098BC00001A3B19
:1036B00000009A3B000080B9008057BC0000F0BABF
:1036C0000000463B000074BC0000163B0000253C97
:1036D0000000BABB0000D0BB00804C3C000064BBC3
:1036E0000000BBBC00008D3B0000743B008056BC5A
:1036F00000801DBC0000FF3B000000BB00C083BC7D
:103700000000DA3B0000943B00803BBC000046BB5D
:103710000000283C0000A4BA000023BC0000B43B19
:103720000000123B00802EBC000089BB000096BB4D
:10373000000038BB0000F2BB00008B3B0000C33B25
:1037400000802DBC000089BB000088BA0000CCBA04
:10375000008039BC008020BC000009BC000004BC13
:10376000000080BB000028BA000098BB0000D4BB5A
:1037700000009E3B000074BB0000C1BB0000083B82
:1037800000005ABB0000CB3B000035BC0000BC3A37
:10379000000028BB0000A13B00006CBB0000813B87
:1037A0000000373C0000D8BA0000CE3B0000133CBC
:1037B0000000093C000090B90000043C00805B3C24
:1037C00000800F3C0000063C0040C53C0080293CC6
:1037D0000000173C0000333C00808F3C0000433C5D
:1037E00000801E3C0080943C00004A3B0000903C5E
:1037F0000000B83B0000CB3B000032BC0000FFBB28
:1038000000802DBC00C084BC0000ADBC0000EFBC3B
:10381000006005BD006023BD00600CBD00002CBD34
:10382000008055BD00A031BD00201CBD002014BD8E
:1038300000C011BD002002BD00808DBC00806BBCAB
:103840000000E8BA000094BB0000CC3A00801C3CA9
:103850000000953C0080EF3C0000DB3C00201F3D59
:103860000020053D00604F3D00A0453D00407F3DEC
:1038700000E06A3D00108E3D00C0A63D0050AD3D09
:103880000080243D0080683C0080023D0000963CA2
:10389000000018BC000008BD006031BD006081BDA3
:1038A000000064BD002060BD00D08FBD00009FBD42
:1038B00000A048BD00C0CEBC00E009BD000013BDA3
:1038C0000080F9BC00C0D5BC00E014BD0080F6BC8F
:1038D0000080C1BC00803CBD00606BBD008033BD7A
:1038E000006049BD000087BD00A045BD008011BD3E
:1038F0000000C2BC000028BA0080B23C00C0AE3C50
:1039000000800A3D0030953D0090963D00D08D3DF1
:103910000000AD3D0070C23D0070BC3D00F0C73DF1
:1039200000D0EE3D0000893D0000D23B0000AB3CE2
:103930000000073D008081BC00A04BBD002060BDA1
:1039400000A08ABD00B094BD006036BD005082BDAD
:1039500000C0A1BD006022BD0000563B0000263B18
:10396000000032BC00C0833C00C0B13C0000293CD8
:103970000000E13B00001ABB00C020BD007080BD0C
:10398000002044BD008085BD0000BABD00D0B6BD9A
:10399000000094BD00F08FBD002072BD00C0F4BCDB
:1039A000000060BC0080BA3C00C03B3D00C0673DE9
:1039B00000B0943D0090B83D00F0C13D00F0C13D25
:1039C00000D0DC3D0020F03D00A0F93D0010CD3DD1
:1039D00000E0173D000004BB00C0983C0000803CA4
:1039E000008015BD00C092BD00208DBD00008BBDC4
:1039F00000808CBD00E06ABD009084BD001080BDD9
:103A000000C0B8BC00C0923C0000B039000044BB0C
:103A100000C0BE3C00C0CC3C0000343C00801C3CDC
:103A2000008059BC006072BD00408EBD008061BD49
:103A300000C0A2BD00F0D8BD00A0B7BD004096BD3B
:103A400000E095BD00E05ABD000052BC0000223BE2
:103A500000000E3D0090823D0030A03D00D0B83DFA
:103A60000010E93D0060043E0090F43D0058063E21
:103A700000080D3E00A0D53D0080973C0000AC3A08
:103A80000040BE3C00C093BC00E078BD0080A5BDF6
:103A90000070ADBD0010BCBD00408EBD00807FBD7C
:103AA000008099BD002045BD000052BB0080E03C75
:103AB0000080383C00C0E33C00A04B3D00E01F3DCF
:103AC0000080E73C0040B13C00804CBC001086BD4B
:103AD00000108ABD00F089BD0010C2BD00F0E1BD3C
:103AE0000070AFBD00709EBD00C095BD004030BDF0
:103AF000008000BC0080693C0060353D00109D3DA9
:103B00000000D43D00E0E23D00F80C3E00A8123E6B
:103B10000040143E0038173E00A0F73D00806C3C8A
:103B200000006EBC00C0D53C0040F5BC0080C4BDA8
:103B300000F0F9BD0060D2BD007001BE00A0BBBDA9
:103B400000709ABD00B0BABD006081BD0000873C26
:103B50000060533D00802C3C00800A3D0050993DA0
:103B600000606D3D0080063D00E0003D00005EBC51
:103B700000F08FBD005095BD00B089BD0070DCBD68
:103B800000A0EEBD00C0ACBD008092BD007089BD3C
:103B9000000019BD0000473C0080D93C0060663D34
:103BA0000060C33D0010F83D00A0F33D00D00A3E88
:103BB00000A0273E00901F3E00B8123E00C0973D77
:103BC000000074BB0000FF3B0080213C006040BD52
:103BD00000F0EEBD0020F4BD00C0D9BD0010DEBD78
:103BE0000080A6BD0030BABD00E0A6BD004028BDE3
:103BF0000040133D00A02D3D00C08C3C00602A3DDC
:103C000000E0993D00F0893D0040133D0000523C2A
:103C100000600CBD00309BBD00B091BD0050B8BD30
:103C200000A0FBBD00D0FFBD0050B3BD003097BD6C
:103C300000108ABD0080E7BC0000243C00A0223DAB
:103C40000020983D0020E83D0000063E00F80C3EB4
:103C500000E0233E00A8353E00A0273E0000FB3DCB
:103C60000040A83C00C0843C0040D63C0000ABBCF7
:103C70000000CBBD00F007BE00A0E0BD0000FFBD0E
:103C80000010C6BD00F0C7BD0030C6BD003082BD0B
:103C900000803E3C0020423D0040853C0080193DB4
:103CA0000020943D00909E3D0060633D00400B3D30
:103CB000008021BC00E057BD000083BD00D0A5BD41
:103CC00000D0EEBD00A000BE0040D2BD0000ADBDE2
:103CD000003097BD000044BD000032BC00C0923CE3
:103CE00000A0693D00C0CC3D0030F83D0078083EA2
:103CF00000581A3E00A8313E00E8303E0020173E32
:103D00000020113D00007D3C00E0323D0000183AEB
:103D10000000A3BD003002BE0060E8BD00B000BEE0
:103D20000020D2BD00B0C3BD0050DCBD00B0A7BDB7
:103D30000000BABB00C03B3D0000463C0080C93CCF
:103D40000060993D00D0A13D0060793D0060483D94
:103D500000803B3C004022BD00E05BBD001082BD06
:103D60000010D1BD0050FCBD00C0CABD00F0A7BD11
:103D700000E0AFBD00A05EBD00000EBB00804C3C6B
:103D80000020333D00A0C13D0060FF3D00C8053E5E
:103D90000010143E00482B3E0008293E00F0043E6F
:103DA00000A00F3D0040983C0000FF3C000088BC94
:103DB0000080A6BD0010FABD0030EBBD009803BE28
:103DC0000080CEBD0040C5BD0020D4BD002096BD02
:103DD000000026BB0060183D0000623C00E0173D7B
:103DE00000D08B3D0040873D0080593D0040473D5D
:103DF0000000903B00A04FBD004056BD00C076BD06
:103E00000010C2BD00D0DCBD0020B0BD00408CBDA4
:103E1000004077BD00C0DCBC00007C3B00C0933C90
:103E200000607C3D00F0DF3D0028003E0078043E4D
:103E30000000223E00C82D3E00C0183E00806B3DB1
:103E40000000BA3C00004A3D0000F23B00C060BDEB
:103E50000080DBBD0080DDBD0000F0BD00F0DDBDF9
:103E600000F0C5BD0080E4BD0070B6BD0000F8BC28
:103E70000080E83C00802F3C0080593C0090803D51
:103E80000030933D00A06E3D00201F3D00008E3CA1
:103E900000C0ECBC006031BD00003FBD0050ADBDB6
:103EA00000D0DCBD00C0B0BD000070BD00E082BD30
:103EB000004033BD0000813B0000AC3C00C03B3DF6
:103EC0000050C43D00C8063E00700D3E00281A3E5A
:103ED00000182E3E00C8243E00B0943D0080BB3C3C
:103EE00000C0493D0080813C00E04FBD00F0C9BDED
:103EF00000D0D0BD0030FEBD0080F5BD0090BCBD3F
:103F000000F0E7BD0060DBBD00A05EBD00408C3C62
:103F100000004EBB0000D4BB0020363D0040963D63
:103F200000407E3D00003C3D00C0BD3C0080C3BC65
:103F300000204DBD00E02EBD009095BD0010EFBDEE
:103F400000A0C8BD00A06DBD00A06ABD00E048BDD6
:103F5000000000390000AD3C00804E3D00F0BC3D4B
:103F600000380C3E00180D3E00A01E3E00203E3ED4
:103F700000A8333E00709A3D0000033D0070893D6B
:103F80000080C33C00E040BD00D0BCBD00D0AFBD50
:103F90000070FEBD0020E7BD00D0ABBD0080E4BDD9
:103FA00000F0F0BD00E05BBD00C0A93C000022BCF9
:103FB00000800CBC00800F3D0000643D00E0403DEF
:103FC0000080433D00C0CE3C006027BD00E06ABDDC
:103FD000000030BD009089BD00D0F0BD0030D1BDE3
:103FE00000E074BD002062BD008025BD0000943B50
:103FF00000007F3C00C0243D00D0D03D00B8103E02
:104000000080113E00B81F3E00083C3E00601F3E8D
:104010000080603D00A0723D0000903D0000F0393E
:10402000002085BD00809DBD00C0ACBD00B803BEB2
:1040300000B0C9BD00B0A9BD0000DDBD0060B6BDC7
:104040000000BDBC0000443C00C0A7BC00803F3C59
:104050000080523D00802F3D00A0093D00E0383D2A
:1040600000008E3C006062BD008056BD00C059BD9E
:1040700000C0ACBD0080F7BD00D0BCBD00B089BDA4
:10408000009087BD0000B5BC0040843C0080963C99
:1040900000602A3D0010EB3D00D00B3E0080003E4A
:1040A0000080203E00D83A3E0070E33D0080C43CD2
:1040B00000F0803D00A06E3D0040A8BC001095BD02
:1040C00000308DBD00C0BFBD0030F6BD00E090BD2A
:1040D000006096BD0060D2BD00807EBD0080653C62
:1040E0000080873C00C08ABC0080D13C00806C3DD1
:1040F0000080153D0080DB3C00401E3D000014BCEC
:10410000005088BD00A04FBD00C059BD00C0D5BD46
:104110000070F2BD00809FBD000074BD000062BD54
:104120000000B8BB00C0B73C00C0A83C00E06E3D3A
:1041300000E0FE3D0050123E0098043E00D8213EB3
:1041400000602D3E00409B3D0040843C0000713DDE
:1041500000C0E43C00806CBD0040B4BD00909ABD3E
:104160000020D6BD007000BE001097BD0010A2BD9B
:1041700000E0AFBD00A018BD00602A3D00C0A73C14
:104180000000043B0080613D00108A3D00A0083D16
:104190000040A13C0020263D0000EABC00C0B9BDA3
:1041A00000B08DBD00008FBD0010F5BD005000BEF9
:1041B00000009ABD003091BD00C058BD0000813C98
:1041C0000060183D0080063D0030A43D00481C3EC4
:1041D0000008203E0078153E00D82E3E00F8203E14
:1041E0000000283D0080903C00E0723D0000BCBB18
:1041F0000030C4BD0050C7BD0030A0BD007002BE7D
:1042000000D0F0BD00A08ABD00E09DBD00209DBD96
:10421000000000BB00E0663D0000413C00C0D43C13
:104220000070AB3D00F09A3D0000D83C00601F3D9F
:1042300000A02D3D00E04FBD0060B6BD003097BD31
:1042400000C0B5BD00480EBE00A0F7BD00209DBD5A
:104250000040AABD00A026BD0040ED3C00401D3D31
:1042600000A0053D0010CF3D00B0293E00E8213EF2
:104270000010243E00303E3E0060033E0080A43C1F
:1042800000204C3D00B0843D00C007BD00D0E7BD1C
:104290000090B8BD0030AFBD00900DBE0080D3BD12
:1042A000007093BD0060BFBD007084BD00E00B3D99
:1042B00000C0523D0000E03A0040313D00B0DA3D20
:1042C00000D0983D00C0F93C00A0543D0040C53CE2
:1042D00000D083BD00E09FBD000092BD00C0ECBDDA
:1042E00000A81FBE0020E3BD0080A5BD0060B6BDD4
:1042F00000201FBD0000AE3C0080CA3C00C01A3D3B
:104300000020EE3D00F8293E00E01B3E0068293EFB
:1043100000883F3E00C0D13D0080B33C00C07A3DE4
:104320000020333D000064BD00B0DFBD00B0A0BD83
:1043300000A0CCBD00800FBE0000C5BD00609BBDCD
:104340000050B3BD00004ABD0000343D00E01F3DF9
:1043500000801F3C00E0723D00F0D43D00E08A3D4B
:104360000020083D0080733D00007E3C005080BD71
:1043700000208BBD00708BBD00D0F6BD004015BE87
:104380000030D3BD0090B3BD0030B1BD00C0D6BC7D
:104390000040A13C00006F3C0040313D00B0FA3DC0
:1043A0000060213E00700E3E00E0273E00A8313E36
:1043B00000A08A3D0040B13C00E0913D00C0DE3CE1
:1043C00000009EBD0020E3BD00C097BD0070E7BDAA
:1043D00000280ABE0050BABD0060AEBD0000B0BDEE
:1043E0000040DCBC00E0743D0040D43C0080793CDF
:1043F00000C0A63D00B0DF3D0060763D00A0173D47
:104400000000813D0000BC3A00007FBD00806BBD14
:10441000007088BD00C801BE008807BE00B09EBD08
:1044200000D0A3BD0020A5BD00005FBC0040C13C82
:104430000080493C00C04A3D0010043E00800F3E11
:1044400000B0083E0038263E0090203E0000163D99
:104450000000413C00A0813D0000BA3B0010BBBD04
:1044600000C0E0BD00D0A0BD001802BE002003BE09
:1044700000F098BD0030B1BD0000BFBD008094BC0D
:1044800000D08B3D0000EA3C0040A33C0030B93D29
:104490000040D23D0080643D00C03E3D00C07F3DF5
:1044A000004091BC00E074BD00A02BBD00A072BD17
:1044B0000060FFBD0090F4BD00708BBD00709EBD1C
:1044C000007082BD0000BA3B0040D43C0000EC3BD1
:1044D0000020763D00600D3E0090103E00D0063E6C
:1044E00000A01F3E0050FA3D0000323C0040B83CA6
:1044F0000080593D0080C3BC00A0ECBD0030CDBDA4
:10450000008090BD004005BE00F0E1BD00408EBDC2
:104510000060A3BD00D0A0BD0080653C0000833DCD
:104520000080563C0040DE3C0090C73D00E0BB3DB3
:1045300000E0103D0000383D00E02E3D004016BD7B
:1045400000F081BD00C028BD00108CBD00A000BEE1
:104550000070C7BD00804BBD005082BD00802CBDE7
:104560000040C73C00C01A3D00C09A3C00F0963D98
:104570000038093E0030023E00D8043E00901B3E49
:1045800000F0DA3D00008FBB0040853C00A0133DE9
:1045900000E00CBD0040EEBD00C0CEBD0020A5BDBA
:1045A00000E006BE0040C5BD00E079BD00609BBDD7
:1045B00000909ABD0080AD3C0030823D0000B23BCF
:1045C00000C0D43C0070AF3D00F0A33D0040B93CBA
:1045D00000200D3D0080C13C002067BD00508DBD16
:1045E00000C059BD00B09EBD005000BE0060A7BD18
:1045F00000801EBD00C052BD00C0C6BC0000123D00
:1046000000A0443D0060133D0000BA3D00600D3E37
:104610000090FC3D00A0FE3D00D0193E00D0E53DDD
:10462000004093BC0000CEBB0000893C002027BDA9
:1046300000D0E9BD0030E4BD00F0B0BD002009BEEF
:104640000000A7BD00203ABD006076BD008087BD98
:104650000000DB3C00B0A93D0000EA3C00C00B3D7F
:104660000030A63D00909A3D00C0E63C00800E3D23
:1046700000808F3C00C081BD00A0A8BD00E065BDEA
:1046800000E099BD0080F7BD0070B5BD00800BBD96
:10469000002017BD000054BC0000343D00A0793D4F
:1046A0000060363D0010C23D0080113E0060053EB6
:1046B00000C0EF3D00900F3E0040033E0000283B4D
:1046C0000040ECBC0000BF3B0080EABC0020D2BD33
:1046D0000090FCBD0000C9BD009804BE00F0CEBD36
:1046E00000A03CBD00E050BD001086BD000070BAC7
:1046F00000B0A73D00C0373D0080E23C0080783D1F
:104700000030913D0040193D0080AB3C00804E3CA4
:10471000008069BD0090CBBD00209CBD00809FBD86
:104720000050F8BD0090E3BD006063BD0080F9BC9F
:1047300000C08ABC00C0F93C0000733D00A0813D70
:104740000030B53D00900C3E0040133E00E0FE3DC1
:1047500000F8103E00E0173E0010913D00002DBD16
:1047600000C0A8BC00800FBC00B080BD00D0FFBD61
:1047700000D0F8BD00D0E1BD0070F2BD004068BDC2
:1047800000201BBD000047BD0000F6BC0030803D8E
:1047900000A0BB3D0080373D00A0453D00109D3D81
:1047A00000806F3D0040AF3C00007F3C0000EABC51
:1047B0000050CDBD0030D1BD00C0A6BD00B0D6BDFB
:1047C00000C008BE0070D1BD00003CBD0040FBBC75
:1047D000000090B90080193D0070803D0070973D49
:1047E0000090E73D0098173E00A8033E00F0FF3D13
:1047F0000088183E0068193E0040433D006054BDEB
:10480000000046BC00000ABC00E07DBD005004BEB4
:104810000090EBBD00F0D4BD00F0E1BD00C030BDA4
:104820000080E7BC00E01FBD000090BC00B0AB3DC5
:1048300000A0C23D00202F3D0020633D0070A63D3A
:1048400000005D3D0000813C00C09F3C00802CBD0D
:104850000040F4BD00D0DFBD0060ACBD0000F4BD81
:1048600000501DBE0050C2BD006054BD004037BDA9
:10487000000024BC0060013D00A0533D0030863D97
:1048800000D0E73D0080023E0060DD3D0050F13D7C
:1048900000B8133E0078093E00F0943D0040FDBC96
:1048A00000C0DEBC000090BC00603ABD00D0BEBDC0
:1048B0000010EBBD0050DABD0020E5BD008037BD23
:1048C00000009DBC0000E2BC0000B3BC0060583D8D
:1048D0000030CF3D0000853D00407F3D0030953DDC
:1048E00000A0533D0040D43C0040ED3C008095BC0E
:1048F00000A0CCBD0000ECBD0050C4BD0030CBBD5D
:10490000009802BE0010EDBD00409BBD00E069BDF7
:1049100000C091BC0000883C0080FE3C0020493D66
:104920000090C73D0000F93D0010DE3D0010E63D5F
:104930000070F83D00E8103E00D00D3E00E0173D4D
:10494000002042BD00C0BFBC0000903900E014BD93
:104950000070E7BD0090F6BD00A0D9BD0000ADBD60
:104960000000D9BC008087BC00801DBD0080D0BC89
:1049700000F0983D00F0DA3D00208D3D00E0483D1C
:1049800000A0453D00A03A3D0080213D0000F73CDD
:1049900000201FBD00B0F8BD0040F4BD00309BBD3D
:1049A00000F0B8BD00180ABE0060FBBD0040A1BD0C
:1049B000000029BD000007BC0000E03A00002C3BCD
:1049C0000080E73C0080B73D00A0DB3D0000AE3D2D
:1049D0000030AD3D00B0F03D0018193E00700C3EB7
:1049E0000040C73C008056BD00802DBC0080103CBC
:1049F00000C0F5BC0010D7BD00E0EABD0000DBBD83
:104A000000109DBD00009CBC0000BABC00C05DBD94
:104A1000004006BD0090A23D0080D73D0010863DBD
:104A20000000403D0000383D0020323D00803B3D0D
:104A30000000223D00C003BD0040E6BD0000DFBD18
:104A4000005099BD0070B3BD009809BE000803BEB8
:104A50000090B1BD006039BD00C090BC008002BCB8
:104A60000000F0BB0080663C0000A73D00F0D63D92
:104A70000010C43D00E0BB3D0040F23D00A01E3EE2
:104A800000B8313E0000D03D0080F0BC00408BBC3F
:104A90000040FC3C00802F3C00C09DBD0090F8BD54
:104AA0000080D3BD0020D8BD006027BD0080DABCE7
:104AB000006053BD00C07BBD0080EA3C00A0D33D38
:104AC00000508A3D0080463D00A04B3D0000303D37
:104AD00000A0013D0020583D00007E3C0060B7BDB5
:104AE0000030F8BD00F0B4BD005091BD00E0FABD4B
:104AF00000B008BE0040CEBD0000ABBD008038BD98
:104B0000000052BC0000EABB0040B0BC00C0123D37
:104B10000050E03D00D0C33D0040A53D00C0D93D60
:104B20000050153E0050203E00F0283E00108F3D02
:104B300000E008BD000022BB0000D13C00008BBBA0
:104B40000070EBBD00E800BE00A0F7BD0010E2BDA4
:104B500000A053BD00C024BD00A05ABD00207ABDF6
:104B60000000433D00B0B83D00E07D3D0080463D83
:104B700000A0543D00A0443D0000123D00806C3D6B
:104B80000000BF3B00B0BCBD0020F2BD00D0A5BD01
:104B90000070A9BD004000BE00C801BE00E0DBBD42
:104BA00000F0B0BD00801EBD0000963B000080B943
:104BB000000041BC00205C3D00A0F53D00F0E33D5D
:104BC0000030C93D00C8043E00B8213E0090293E97
:104BD00000C03B3E00F0B23D00C0CEBC000062BC55
:104BE0000000A73C00006DBC00F0E3BD0010FEBD5E
:104BF00000A0FBBD00F801BE006079BD00009CBCB8
:104C0000006010BD000065BD0020103D00E0C03D0B
:104C100000B09A3D0080883D00C0843D0040213DA9
:104C20000000B53C0080683D0080C33C0060ACBD26
:104C3000005004BE0060E8BD0050D8BD00E0FEBDDD
:104C400000A0EFBD00B0EBBD00D0DDBD00C043BD96
:104C500000008D3C0080A33C00802BBC00C0D43CF5
:104C600000B0B43D0050E53D00B0E53D00D0E73D6B
:104C700000C0E23D00A0003E00E0323E0068263E5B
:104C80000000DABB00508FBD00802FBC0000813BCC
:104C900000407EBD0010FEBD00D0F0BD002819BE52
:104CA0000040C5BD008077BC00009CBB008081BD7A
:104CB000006041BD00908D3D0020BB3D0080903DD7
:104CC00000206F3D00402C3D0080213C00C0DC3CBA
:104CD00000C0653D00C0C7BC00F0FFBD00000ABEBB
:104CE0000000BABD00D0BFBD00B0E3BD0000C3BD31
:104CF00000D0C5BD00D08BBD00008B3B0060573D90
:104D00000080BB3C0000EA3B0060793D0030D73DAD
:104D100000B0EE3D0090E33D0030DC3D0070C53D4D
:104D200000F0EA3D00082F3E00901A3E000005BC4E
:104D300000208DBD00801ABC0000873B00404BBDA9
:104D40000030C2BD00A0CCBD00380BBE0030C9BDD4
:104D500000804CBC0000D2BB008081BD000059BD6A
:104D60000020513D0010913D00204D3D0040593D37
:104D700000A0233D0000883A0000453C00E0503D83
:104D8000008020BC00E0CABD00A0D7BD00009FBDD0
:104D900000C0B0BD0090BABD00D087BD00C09FBDAF
:104DA00000B0A0BD000045BC0060263D0040D03CE6
:104DB0000000603A00800F3D00807E3D00E08E3DA7
:104DC00000A0BD3D00A0BF3D0010913D0070A03D82
:104DD00000A00C3E00C8233E00F0BD3D00601BBD9E
:104DE00000E023BD0000BD3B00007CBB00805ABD3D
:104DF0000070DEBD002006BE00F015BE00C092BDF2
:104E00000080FEBC00205FBD00D0A7BD004004BDF7
:104E100000C03B3D00E0753D00C0833D00908F3DEC
:104E200000802F3D00C0F23C00A05B3D00407F3D74
:104E30000000F0B9005082BD00208BBD00409BBD3A
:104E400000A0A8BD0040AEBD00E09BBD0010BEBDEF
:104E500000C0A6BD004099BC0080213C000098BA6B
:104E60000000083A00401D3D00805C3D0030863D5A
:104E70000000BF3D00A0CA3D0070A23D0020B83D2B
:104E80000070033E00801A3E0050033E0000723C5A
:104E900000C05CBD00A014BD00C0ECBC00E063BD60
:104EA00000A0E2BD002006BE006818BE000801BEDA
:104EB000002045BD0080C3BC00A00CBD00E005BDC6
:104EC0000000353D0070A93D00E0AF3D00D0CE3D73
:104ED0000060A73D00A05B3D00A02B3D00A06E3D03
:104EE0000080F13C00604FBD00D0B2BD00A0C6BD47
:104EF0000050E5BD00D0F6BD00F0C9BD0070B1BDE9
:104F000000C0B9BD00E048BD0000DF3B0040E63C0A
:104F10000040C63C00A0223D00C05C3D00A0413DD9
:104F20000070823D00A0AE3D0030993D00C0473D7D
:104F300000A05A3D0050993D00409B3D00108C3D23
:104F400000007FBC00D0BEBD00109BBD004037BD3F
:104F5000008011BD0080A6BD0020B2BD0060BDBDB7
:104F60000010AABD004089BC00C0DC3C0000E23C4F
:104F700000800DBC0040E63C0000A13D0050C03D5B
:104F800000A0CA3D0080973D0080E23C0000383A16
:104F90000080B43C00C0F33C006026BD00A0B0BD62
:104FA00000C0B9BD0040AABD00D0AFBD008083BD28
:104FB000000046BD008081BD00C00DBD0000653C05
:104FC0000040FB3C0000083A00006C3B0040D03C35
:104FD0000080563C0000D63B0080103C0000633C43
:104FE000000016BB0000B83B0080FF3C0060353D70
:104FF00000408E3D0020B63D0000C53C00C0E3BC33
:1050000000801A3C00800F3D0040A93C0040D6BC07
:1050100000600DBD00F083BD00909ABD00E000BDB2
:10502000008049BC000098BC008012BD0080113C8B
:1050300000A01F3D00A04F3D0070AF3D0000983D17
:1050400000C0373D00C0D43C0080733D00006D3D82
:1050500000004A3B0080E9BC008065BD00A099BD0E
:105060000050C7BD0070A0BD006098BD0030D7BD26
:105070000020C7BD006090BD00A039BD00E054BD58
:10508000006014BD0000A7BC0040C7BC000041BCCC
:1050900000805B3C00800B3D00E01B3D00007F3D3D
:1050A0000020AC3D0080C83D0010E93D00D0173E17
:1050B00000B8033E00C0D43C0000B4BA00009E3CDF
:1050C00000802F3C000019BD00608EBD0060A5BDB2
:1050D0000080F9BD0000B6BD00C0B6BC00800E3C2B
:1050E0000000D43A0040B23C0000A53D0010B93D9C
:1050F00000B0DC3D0030083E0060D03D00A03A3DED
:105100000000AB3C0040073D0000F4BB004089BDFF
:105110000030BEBD0060F7BD00701BBE00C02ABEDF
:105120000090FEBD0040D9BD00E0EABD00A0A6BDD4
:1051300000E01EBD00800CBC0000833B0060133DFE
:1051400000E0323D0080E83C00E02A3D0020663D62
:105150000080423D00C0903C0000E33C0060403DC8
:1051600000A0323D0010823D00B0BE3D0020E83D71
:1051700000E04C3D000062BB0000BC3C0040A83C8D
:105180000040833C0000343B00000A3B00800BBD24
:1051900000608EBD00808DBC0000633C00801D3C23
:1051A00000006DBC0000F0390080213C0000703A26
:1051B0000040033D00000E3D0000D8BB00E01BBDD9
:1051C00000007EBC0000463B00A00CBD000077BD87
:1051D000002085BD00D09ABD0060B0BD0070A0BDAC
:1051E00000806BBD00A08EBD00A078BD0000F1BCAA
:1051F000000074BC0040CDBC0080BDBC000090BB72
:1052000000008BBB008001BC0080113C0000723CA0
:1052100000004F3C0040B93C0000623D0050AD3DF5
:105220000010AA3D0060DD3D00380E3E0068273EBC
:1052300000D0273E0000A13D0000003D0080873CDB
:1052400000008B3B0000CABC00E097BD00D0CBBD86
:1052500000F019BE000015BE0060CABD004061BD6F
:1052600000C043BD00A02ABD0000943B00E01B3DF0
:105270000000743D0030B93D00D0BE3D0000813DCE
:105280000040343D0020393D00C0E33C0080F9BCC3
:10529000000077BD006099BD0000D2BD00F009BEDE
:1052A000002011BE0020E5BD0070CFBD00A0A1BD53
:1052B00000C01DBD008021BC00804E3C0080193D17
:1052C00000B0933D0000893D0000693D0060963DBF
:1052D00000809D3D00A0783D0000FF3C0000AE3CFA
:1052E00000007E3C00C0893C0040EC3C0060103D6A
:1052F00000C0073D00E0223D00E0443D000086BCC8
:1053000000E026BD004015BD0080C9BC0080A4BCE3
:1053100000A009BD00A005BD00C095BD002053BD83
:105320000000CC3A0040FC3C0000D33C0000CC3BE9
:105330000080B23C00C0CD3C00E00C3D0000533D7D
:1053400000C0B73C0000F6BB0040DEBC00C098BC0B
:105350000040C1BC004029BD00203EBD009080BD82
:1053600000508ABD00A099BD00E05FBD004013BDA4
:105370000080F0BC000035BC0000383B00009E3CC3
:105380000040AA3C0080A53C0080753C00004039EC
:105390000000A3BB00C089BC0080D0BC006011BD70
:1053A000000030BD00A001BD00C0A2BC00002CBBAD
:1053B00000C0AA3C00002D3D00A0883D0050BA3D31
:1053C0000060023E00A0B03D00000B3D00A0223D69
:1053D00000001E3D0080F13C0000FFBB0000F8BB58
:1053E00000201BBD0000B8BD00308ABD008003BD99
:1053F00000806CBC0080DFBC000081BB00C0AF3C03
:105400000000C93B0040193D00F0893D00805D3D32
:105410000040B83C00C08C3C00E0013D000092BB65
:105420000080ACBC0000D9BC00803FBD000098BD2E
:1054300000B0ABBD00E08CBD0060AABD00A097BD70
:1054400000201FBD00C0AEBC0080C4BC00C0A7BC13
:1054500000000ABB000064BB0000E3BB000000B911
:1054600000006EBC002005BD0000F2BC000035BC91
:105470000000F4BB000080390000F23C0040423DD7
:1054800000208B3D0030C93D00B8023E00180F3EA1
:1054900000900F3E00D0B63D00003B3D0020183D7F
:1054A0000000973C00009CBB00E01BBD006063BD9A
:1054B0000090B6BD00E0DEBD00D0A9BD00E041BD5A
:1054C0000080F8BC0000A5BC00000A3B00408B3CFB
:1054D00000C0A23C00E04C3D00308D3D00C04A3D84
:1054E0000080D33C0000153C000090B9006005BD71
:1054F000008021BD00E01EBD00508DBD0090D1BDDB
:105500000090E3BD00F0A7BD00B094BD00C06BBD2E
:1055100000A018BD0040CFBC00C0A7BC000024BC48
:105520000040913C0000983C0000223C0080293C57
:105530000080203C00800F3C0000AE3B00801B3C04
:105540000000703B00009ABB00802D3C00000E3D27
:105550000000693D00E07D3D00C0973D0070C93D01
:1055600000F0F43D0050DA3D00803B3D0000DB3CA4
:105570000080953C0000943B0000CCBB0040B0BCD8
:1055800000C033BD0060C1BD00E0AEBD004042BD03
:1055900000C007BD00000EBD00000ABD008020BC99
:1055A000000068BB00007F3C0020533D00E0293D27
:1055B0000080CA3C0080903C0000BC3C00800F3C56
:1055C0000000C4BC0000F1BC00003BBD002072BD67
:1055D0000070A0BD00809DBD0010A4BD0050AFBDF7
:1055E000008052BD0080E1BC0080C9BC00C0ECBCA2
:1055F000008095BC0000043B0000B03B00C0993C1B
:105600000080A63C0000D63B000080B80000253C8E
:1056100000C0B63C0000283C0000703B0040853CC8
:105620000000F83C0060493D0060763D00E0903DA0
:1056300000A09D3D00A0C13D00C0E83D0060833D4D
:105640000040C53C0080813C0000BF3B0000503A58
:10565000008094BC0000C4BC009080BD0040ACBD84
:10566000006071BD00C021BD0080DBBC0080C3BCF8
:105670000000ACBA0000F83A000008BC0000403C52
:1056800000408B3C00803F3C00000A3B000080391A
:105690000000F9BB00C00DBD008011BD000004BDBD
:1056A00000800BBD00E045BD00407BBD009084BD87
:1056B000003086BD00A040BD0080D0BC00808DBC05
:1056C00000008EBC00802FBC0000B83B00000B3CEB
:1056D0000000A4BA0000CC3A0000043B0000F03AFD
:1056E00000800D3C00805A3C0000DD3B0000C9BB3F
:1056F0000000743C00C0203D0020663D00E0843D79
:105700000090963D00C0A63D0000B03D0030E03D59
:105710000050ED3D00508A3D0000063C000062BB99
:1057200000409BBC008028BD00C064BD002058BD67
:10573000001099BD00D0D4BD00209FBD00601CBDED
:1057400000802ABC0000303B00C0D53C0040253D15
:105750000000F63C00801D3D0080473D00C0063D36
:1057600000803C3C000083BB00006DBC00C061BDFC
:1057700000A097BD000089BD000096BD0090A4BDAB
:105780000030A0BD00A076BD00A078BD006011BDB6
:1057900000001A3C0000F93C0040FB3C00E00F3DDB
:1057A00000403B3D00402D3D0080E03C0040B63CC9
:1057B0000000043B0040B7BC002002BD00A010BDAB
:1057C000002050BD00F087BD008034BD0000D9BC72
:1057D000008002BC00C0913C0040653D00C0A43D7B
:1057E0000000D23D0070123E0028273E00E8223E15
:1057F0000020023E0090A43D00E04F3D00003C3BF5
:1058000000E000BD008064BD009098BD0030BABDCE
:105810000050FABD004005BE00D0E5BD0020A1BD8E
:10582000006013BD00800EBC0000373C00008D3CC2
:105830000080F83C00606E3D0010843D0040893DD2
:105840000080523D00A0133D0080473C000098BC02
:1058500000201FBD00407BBD00108FBD0010A0BD0B
:1058600000A0AABD0000B2BD0070ADBD008078BD33
:105870000080E8BC0000563B0000613C0000143C86
:105880000000253C00C0A03C0060203D0000303DF1
:105890000080243D0000C43C0000413C0000FD3B72
:1058A00000803B3C0000D83B0000803A0000A53B54
:1058B00000804A3C00C0B73C00C01A3D00A0503DEB
:1058C00000806C3D00F0943D0020C13D0050D33D70
:1058D00000B0A73D0080FD3C0000463C0000B4BB8A
:1058E00000C0B6BC0040E4BC00C011BD00204DBDEE
:1058F00000A0B5BD0000B8BD00A092BD005084BDA1
:1059000000E045BD00C0EBBC000007BC008012BC3D
:10591000000040BB00C08A3C0000653C0000E83C41
:1059200000E0223D0040063D0000503A00C0D4BCDB
:10593000008081BC000051BC000056BC0080ABBCA4
:1059400000E00BBD00203ABD00C01CBD0000F6BB4E
:105950000000F03A0000F039000070BA000080B991
:105960000000F0BA000046BB000012BB0000443B40
:105970000000B83B00800D3C00000000000027BC88
:10598000000029BC0000F0B90000183C0000863C73
:1059900000C0B93C00C0BF3C00C0F43C00602E3DDC
:1059A0000000563D00A0573D00005A3D00E0743D08
:1059B00000B0823D0080333D0000BF3B000050BC82
:1059C0000000F2BC00C020BD00C019BD008016BDA3
:1059D000008033BD009080BD003088BD000059BDFF
:1059E000006001BD000007BC0080303C00805B3CD3
:1059F0000000193C0000E73B0040A03C0080EE3C6A
:105A000000201C3D00C0193D0080C23C00802C3CA1
:105A100000004EBB0000C1BB000071BC00C083BCD5
:105A200000C0B9BC0000DBBC006004BD002011BD9B
:105A3000000003BD0000BBBC000053BC00804ABC9A
:105A4000008086BC0040D7BC0040FDBC0000C9BC43
:105A5000000051BC0000E9BB008010BC00009FBCEE
:105A600000C09BBC000053BC0000A43A00802B3C4B
:105A700000C0823C0040A03C0040DE3C00403C3D79
:105A800000A0503D0040403D00203D3D0000523D03
:105A900000E0653D00806C3D0020713D0080E73CEA
:105AA0000000D4BB000055BC004099BC00C0BFBC86
:105AB00000C0E5BC00806BBC000050BC00C00BBD4A
:105AC000004007BD008066BC00000E3B0040A13CCA
:105AD0000040153D0020273D0040833C0000FD3B79
:105AE00000007C3C0080763C0000053C0000D43A7D
:105AF000000081BB0040E6BC00A01BBD00C011BD82
:105B0000002026BD002045BD00603DBD00E027BD52
:105B100000C034BD00C02BBD0040D5BC000042BC5D
:105B200000000BBC0000C1BB000006BC000017BC9D
:105B3000000028BC0000F0BA0000D2BB00C0B1BC1D
:105B400000C0CEBC0040CFBC0000A6BC0000ABBC77
:105B5000000045BC0000783B00C0833C00A0003D35
:105B600000A03C3D00A0753D0020903D0020B43DCC
:105B700000D0C13D0080B93D00C0B53D00E0AE3D64
:105B800000D09C3D00402D3D00005A3B0080B2BC3F
:105B9000008038BD004060BD00604DBD00601FBD8D
:105BA000008028BD00E057BD00A04FBD008011BDA2
:105BB00000809EBC00000E3B00C0B03C0040B63CE4
:105BC00000802B3C00006C3B0000803B000056BB7B
:105BD00000000ABB000080BA00802ABC0000FEBCA6
:105BE000004034BD00C03FBD00004BBD00A02ABD39
:105BF0000040DEBC008066BC00804EBC00803CBC27
:105C00000000D43A0000EA3B0080213C0000443C04
:105C100000803A3C0000A53B000040BA000064BB95
:105C2000000053BC0000ABBC0000C2BC0040B0BCD4
:105C30000040BEBC00C0B0BC00800BBC0000463BB6
:105C40000040B13C00401D3D0020573D00A06D3D8F
:105C500000E07C3D00D08B3D00008F3D0080853D05
:105C60000040833D0060853D00C0643D0020243D30
:105C70000000FF3B00C0AEBC004021BD004046BD5F
:105C800000E056BD00405ABD00E04BBD008051BD54
:105C900000E054BD00603EBD00A010BD00C0B6BC19
:105CA0000000083A0040BF3C0040EB3C00809D3CB7
:105CB00000001A3C00804D3C0000383C0000463C8F
:105CC0000000CE3B000080BB00008DBC00A000BDEA
:105CD00000E017BD00402CBD00C016BD0000DABCBE
:105CE000000080BC008001BC0000D4BA0000D039A4
:105CF00000007CBB0000383A0000CC3B0000BC3BFD
:105D00000000463B0000AEBB00C0A1BC002015BD9A
:105D100000800BBD0080D0BC0000F8BC00400FBD6F
:105D20000080D9BC000026BB0080883C00A0313D2B
:105D30000090803D0080993D0070A93D0050C23D1B
:105D400000C0D33D0030B73D00A0943D0020763D1B
:105D500000E0543D0060203D00C0C73C00001A3BFD
:105D600000800ABD00807BBD00C08CBD00608ABD84
:105D7000004092BD009084BD00C059BD00003FBDF1
:105D8000000022BD0040D7BC008038BC00001A3B98
:105D900000C0CE3C00C0253D00C0253D00C0EA3C0F
:105DA0000000C23C0040A73C00804A3C0000CC3BC5
:105DB0000000A4BA00809FBC00E029BD002050BDB7
:105DC00000A050BD00204DBD006035BD0080E9BC85
:105DD000000071BC000034BC000029BC00000ABCFB
:105DE000000030BB0000EA3B00C0C73C0080D33C51
:105DF0000000F83B000008BC000061BC00804EBC05
:105E000000805CBC000016BC000092BB00000EBB12
:105E10000000833B00005F3C00C0B03C0080D13CF0
:105E200000200C3D00C02B3D00E02A3D0000FF3C5F
