:020000042000DA
:04035C0000787FBFE7
:1003600000BCE0BE0090913D00D0C53D00D0C13D35
:100370000050BA3D00B0B13D00D0AB3D0050A93DAA
:100380000080A53D0000A33D00609F3D00609D3DB5
:1003900000C09B3D00C0993D0020963D0090933DDC
:1003A00000908F3D00108E3D00F08B3D0070893D28
:1003B0000080873D0060853D0040833D00F0803D2A
:1003C00000607D3D00007B3D0020763D0060713D7A
:1003D00000606E3D0000683D00E0663D00E05F3D6E
:1003E00000E05B3D0040593D00C0563D00A0533D3C
:1003F00000A04F3D00204C3D00C04A3D00E0453D7F
:1004000000C0433D0020413D00603A3D0040373D83
:1004100000E0363D0000343D00202F3D00C02B3D64
:1004200000C0293D0080283D00E0233D00C0213D63
:100430000060203D00A01C3D00A0183D0020153D9F
:100440000000133D0080123D00800E3D00200C3D59
:1004500000A0093D00C0063D0020053D00C0033D51
:100460000080003D0040003D00C0FA3C00C0F33C6D
:100470000080EE3C0000EA3C0040E63C0000E33C2B
:1004800000C0E33C00C0DD3C00C0D63C0040D73C8F
:100490000080D23C0040CE3C0080CA3C0040C83CBA
:1004A0000080C33C0040BE3C0000BD3C0040B73C67
:1004B00000C0B03C0080B33C008056BD0050D6BDAB
:1004C00000A0B7BD000094BD00004FBD0040FDBCC2
:1004D00000802CBC0080113C0080E03C00A0363D38
:1004E00000C07B3D00A09D3D00C0BD3D00E0DB3D68
:1004F00000A0F73D0048093E0028183E00A8233E12
:100500000070303E00D0373E00C83D3E00E0423E25
:100510000058483E0098503E0068573E00A85D3E97
:1005200000C0633E0060693E0088703E0028783E4F
:10053000003C813E0028853E0060873E0020873ECB
:1005400000D4873E00248A3E00CC8C3E00E88E3EDC
:1005500000F08E3E00DC8E3E004C8F3E00AC913EA3
:100560000080943E0060963E0058973E0034963ED0
:100570000054953E0018953E0054943E0060923E13
:100580000000903E00CC8D3E00BC8D3E00908E3E23
:1005900000DC8E3E00688F3E00A48F3E00808F3EC0
:1005A0000050903E0070903E0000903E003C8E3E19
:1005B000006C8C3E007C8A3E0050883E0008863EDF
:1005C0000038843E006C833E00B8833E0064843E65
:1005D0000004853E0074833E0068823E00AC813E8C
:1005E00000F0803E00FC813E00F8803E004C803EE2
:1005F00000F07E3E0070803E0034813E003C813E33
:1006000000E07E3E0050793E0098723E00886E3ECB
:1006100000E8683E00F0613E00205F3E00185B3E4F
:1006200000C8593E00705A3E00D8593E00B05A3EAC
:1006300000805C3E00985D3E00405C3E00B05A3E4B
:100640000048573E0040523E00D84C3E0090473E86
:1006500000E0423E00503E3E00083A3E00C0343EBC
:100660000040303E00902C3E00482B3E0058293E72
:1006700000F0273E0098243E0010233E0000233E59
:1006800000A8233E0078253E0088263E0020263E16
:100690000040243E0020213E00C81F3E00301F3E87
:1006A00000381B3E00F0173E0088123E00180E3E38
:1006B00000F00B3E00C0093E00F0063E0078053E0B
:1006C0000020053E0010033E0050043E0040023E64
:1006D00000E0FE3D0010FC3D0060F93D00A0F13D52
:1006E0000010EF3D00C0EF3D0010EF3D00F0EC3D8D
:1006F0000070EB3D0040E63D00C0E83D0020E73DD6
:100700000070DE3D00B0D43D0060CC3D0010C63D21
:100710000030C83D0010C63D0050C03D0040B93D0E
:100720000090B63D0070B63D00A0B53D0010B73D4D
:1007300000C0B33D0030AD3D00C0A83D0020A73D46
:100740000060A73D0030A23D0000963D00008B3DBB
:1007500000208B3D0030913D0060963D00B09A3DF9
:1007600000E0953D0070933D0090963D00709E3DE9
:1007700000709C3D00B0933D0040833D0000693D0A
:100780000020623D0040613D0080593D00E0503D49
:1007900000A0483D0020533D00205B3D0060633DCC
:1007A0000040563D0060503D00404B3D00E04C3D58
:1007B00000E04B3D00803F3D00E02D3D00801A3DB4
:1007C0000040123D00E0143D0080203D00601F3DD0
:1007D0000080333D00A0403D0040563D0080613D1B
:1007E0000080613D00C0593D00C0583D00005A3DA9
:1007F00000604F3D00C0473D00C0333D0020243D18
:1008000000C01A3D00A0143D00C0153D0020143D5D
:100810000040033D0080D83C0040B23C00C09A3C00
:1008200000809F3C00C0B83C0080D23C0040F53CBA
:100830000080023D0080023D0020023D0080EA3C35
:100840000040DD3C00C0D63C0000D23C0040C13C32
:1008500000C0983C0040823C0080583C0080563CE0
:1008600000805C3C0000413C0000343C0000603CE7
:1008700000408A3C00C0A73C0000B53C0080B33C6F
:1008800000409A3C00C0833C0080593C0000543C2E
:1008900000005E3C0000533C00806B3C0080863CC6
:1008A00000C0893C00008D3C0040983C00C0903C5A
:1008B00000C0923C00009E3C00809E3C00C09A3CE0
:1008C0000080973C0080853C0040893C0000953CBE
:1008D0000000813C0000513C0000623C0080663C0E
:1008E0000000803C00804D3C0000EE3B0000003BDF
:1008F000000050BA0000F8BA00001EBB0000E8BAC1
:10090000000000BB0000F0390000123B0000343B47
:100910000000703B00009E3B0000C93B00801C3C77
:100920000000363C0000143C0000D83B0000BA3BFD
:100930000000A13B0080013C00802B3C00802C3C4F
:100940000000153C00802A3C0000333C00801C3C29
:100950000000BD3B0000163B00009039000070BA5B
:100960000000283A0000463B00005E3B0000443B8C
:1009700000005A3B0000D83A0000283A0000AC3A88
:10098000000040BA0000F0B9000000390000563BFA
:100990000000AB3B0000BF3B00009C3B00004E3B17
:1009A0000000443B00001E3B0000403900000ABB31
:1009B000000050BA0000D0B90000163B00001E3BFA
:1009C000000040BA0000D8BA0000D4BA0000F039E4
:1009D00000001E3B0000303B00001A3B0000AC3A18
:1009E000000038BA0000403A0000B039000098BA60
:1009F000000083BB000096BB000081BB00008DBBE4
:100A0000000080BB0000DABB0000F0BB00008FBB21
:100A10000000183A0000743B0000D63B00004E3B3B
:100A20000000383A000080B8000000B9000004BBA4
:100A3000000056BB000092BB0000A7BB000090BBAB
:100A4000000004BB00004ABB000081BB0000BDBB2E
:100A50000000F8BB000022BC00801ABC000005BCEE
:100A60000000ABBB00008FBB000000BB0000E83AF9
:100A700000003C3B00009C3B0000E73B00802D3C1D
:100A80000000313C0000473C00802C3C0080003CD2
:100A90000000383B000080380000F8BA000044BB7A
:100AA00000004ABB0000D4BA0000403A0000043BFA
:100AB0000000123B00000E3B0000E03A0000F0BADC
:100AC000000080B90000F0390000463B0000A13B67
:100AD0000000B83B0000873B00009F3B00009C3BB0
:100AE0000000963B0000083B000040BB0000CEBB6E
:100AF00000803ABC000063BC000064BC00802EBCD7
:100B0000008021BC0000F9BB0000C5BB000074BB25
:100B1000000008BA00007C3B0000983B00004E3B00
:100B20000000303B0000A43A0000E8BA000070BBAF
:100B3000000008BC000024BC00802DBC000028BCC4
:100B4000000033BC0000F0BB000096BB000081BB7E
:100B500000004ABB00003CBB000074BB00006CBB43
:100B6000000090BB0000D6BB00005ABB000070BA6A
:100B70000000CC3A00002C3B0000983B0000643B96
:100B80000000163B0000E8BA0000D2BB000005BC24
:100B9000000031BC00802FBC00800CBC008002BC77
:100BA0000000A7BB0000E8BA0000403A00001A3B72
:100BB00000004E3B0000B03B0000F03B0000F23B69
:100BC0000000893B0000403A000080B900009CBA58
:100BD000000000000000D83A0000163B0000A43AD4
:100BE0000000383A000000390000283A000040397F
:100BF000000080B900004ABB0000B6BB0000FDBB8E
:100C000000802CBC000045BC008049BC000027BC13
:100C1000000004BC000080BB000080BA0000B4BA31
:100C2000000004BB0000BCBB0000BCBB0000BCBBA0
:100C300000009FBB0000CEBB0000CCBB0000F6BB99
:100C40000000F0BB0000D8BB0000A3BB0000AEBB9F
:100C50000000E7BB0000E7BB0000F9BB0000A7BB3A
:100C60000000A5BB0000A7BB000098BB00003CBB78
:100C70000000CCBA000038BB0000B0B90000B4BA24
:100C8000000008BB00001ABB000089BB0000C1BB0C
:100C90000000F6BB0000FFBB0000F6BB00000ABC72
:100CA000008000BC000078BB0000043B0000C53B96
:100CB0000000063C0080103C0000F23B0000D63BE8
:100CC0000000FF3B0000F03B0000C13B0000B23BD6
:100CD0000000963B0000403B000016BB0000C5BB77
:100CE000008000BC0000CBBB0000BDBB0000CCBB43
:100CF000000014BC000014BC000018BC0000DBBBEA
:100D0000000040BB0000183A0000743B0000903B1C
:100D100000005E3B00009039000088BA000050BA25
:100D20000000D039000080BA000056BB0000EEBBC6
:100D3000000023BC00803FBC008030BC000013BC1E
:100D400000009CBB000081BB000000B90000683BB4
:100D50000000C53B0000E93B0000D63B00004A3BD9
:100D6000000090BA000098BB008001BC000033BCBA
:100D700000006FBC00006EBC000047BC000009BC56
:100D80000000C1BB0000CCBB0000AEBB000083BBB9
:100D900000006CBB000040BB0000D8BA0000B0B936
:100DA0000000083A0000F83A0000703B0000503A9A
:100DB000000090BA000008BB000028BB00009CBBEC
:100DC0000000F2BB000028BC000047BC008049BC0A
:100DD000000028BC0000DABB000083BB000026BB7B
:100DE000000012BB000080B80000E83A00005E3B43
:100DF0000000903B0000C33B0000983B00004A3BD2
:100E00000000E03A0000F83A0000003900008BBB17
:100E10000000E1BB000013BC0000CCBB000026BBFF
:100E20000000AC3A00003C3B0000903B0000223B3D
:100E30000000883A0000703A0000F0390000803A63
:100E400000000000000070BA00009EBB00009FBBC5
:100E50000000F6BB008002BC008020BC000025BC66
:100E6000000036BC000037BC00801ABC000008BC83
:100E70000000CBBB0000C5BB0000B6BB0000CBBB75
:100E80000000BDBB000078BB0000CCBA000038BA3F
:100E9000000078BB0000C1BB0000FFBB000005BC28
:100EA0000000F8BB0000C9BB000062BB00000EBB25
:100EB000000080B80000E03A0000443B00000E3B18
:100EC0000000183A0000283A00003C3B0000CC3BF0
:100ED0000000E53B0080033C0000053C00800D3C29
:100EE0000000F43B0000C73B00007C3B0000083BD7
:100EF000000070BA0000ADBB008003BC000008BC5D
:100F00000000E7BB0000BCBB000083BB00006CBB63
:100F1000000087BB0000D4BB00801ABC00801ABC54
:100F2000000015BC00801FBC00800DBC00800FBC01
:100F30000000EABB000090BB00000EBB000004BB39
:100F4000000038BA0000ACBA000090B9000040BA06
:100F5000000050BA000050BA000090B90000ACBACE
:100F60000000E0BA000018BA000038BA0000383AB1
:100F700000009C3A000040390000F0BA00008BBB32
:100F80000000BABB0000CEBB0000D8BB0000E1BB34
:100F90000000D0BB0000D0BB00009CBB000052BBD7
:100FA0000000B03900001E3B0000703B0000A53B74
:100FB0000000903B00009A3B00008F3B0000833B09
:100FC0000000303B0000963B0000AD3B0000C53BFD
:100FD0000000D83B0000DF3B0000AE3B0000183AA9
:100FE00000009EBB008001BC00803BBC000056BCE2
:100FF000000050BC00805ABC008066BC000047BCAA
:1010000000800BBC0000ECBB000046BB0000D0B968
:101010000000803A0000D83A00002C3B0000223B40
:1010200000003C3B00005E3B0000A43A0000E8BA30
:10103000000085BB000081BB0000E8BA00000ABBCD
:10104000000080BB00005ABB000034BB000026BB80
:10105000000004BB00004EBB000096BB0000C5BBF7
:10106000000007BC00000ABC000007BC000004BC74
:1010700000800DBC0000BCBB00006CBB000080BA4F
:10108000000080390000183A000090B9000070BAE2
:101090000000883A0000F0B90000503A0000E03A41
:1010A00000001E3B0000743B0000963B0000BC3B70
:1010B0000000A73B00008B3B0000403B0000783B5A
:1010C0000000783B0000883A000038BA00003CBBC2
:1010D00000006CBB0000BABB0000CCBB0000E9BB49
:1010E0000000E1BB0000DDBB0000AEBB000068BB40
:1010F0000000ACBA0000603A00002C3B0000283B26
:101100000000003B0000E83A0000403B0000343B98
:10111000000080B80000D4BA00001ABB000044BB35
:10112000000081BB000089BB0000ADBB00800EBC8D
:10113000000017BC000004BC0000D2BB00009FBB35
:10114000000062BB0000C3BB0000BFBB00007CBB53
:10115000000068BB00001EBB000000BB000062BBBB
:101160000000C7BB0000EEBB0000EEBB0000DDBB13
:1011700000009CBB00000EBB0000000000000A3B0A
:101180000000C33B0080003C00001A3C0080213C72
:1011900000800F3C0000DF3B0000443B0000BCBA75
:1011A0000000B6BB00801DBC00803DBC00803CBC84
:1011B00000801DBC00000BBC0000BDBB000098BB44
:1011C00000001EBB0000D0B90000CC3A0000703A0D
:1011D0000000783B0000F43B0080023C00800D3CA6
:1011E0000000E13B0000CC3B0000443B0000D43A4F
:1011F000000000B90000ACBA000078BB0000BABB28
:10120000008011BC000019BC000027BC008039BC64
:1012100000805BBC000060BC008059BC008021BC29
:101220000000DFBB000080BB0000D8BA0000D43A49
:101230000000CC3A0000603A0000ACBA00009FBB4E
:101240000000D8BB0000CEBB0000C7BB0000A3BBA2
:10125000000098BB00007CBB0000B4BB000089BB51
:10126000000034BB000040BA000004BB00002CBBEF
:10127000000008BA000000B90000B0B9000060BA70
:10128000000070BA000000B90000403A000080B8C9
:1012900000004EBB0000EABB0000FDBB0000A1BB8C
:1012A00000009ABB000064BB00008BBB000056BB73
:1012B0000000E8BA00000E3B0000FF3B00803E3C0F
:1012C0000000523C0080493C0080303C0000353C2E
:1012D0000000353C0080103C0000903B000004BB47
:1012E0000000BCBB00801FBC00004FBC00807BBC6A
:1012F000008075BC008059BC000034BC00800CBC70
:101300000000E1BB0000CCBB00009FBB0000A1BB04
:1013100000002CBB00000ABB0000F0B900008038C0
:101320000000D83A0000C43A0000A43A0000D039C6
:101330000000CCBA000008BA00009CBA0000F0BA65
:10134000000040BB00004EBB000004BB0000E0BA40
:10135000000026BB00005EBB00008FBB000098BBF6
:101360000000A5BB000078BB000096BB0000D4BB0A
:1013700000800DBC000019BC0000FBBB000096BB48
:1013800000009C3A0000CB3B0080023C00803A3CCD
:101390000000543C0000433C00802C3C0080013C99
:1013A0000000903A000008BB0000ABBB0000ECBBA3
:1013B000000004BC0000C9BB0000CCBB0000BCBBEB
:1013C00000008BBB0000C5BB0000B8BB00008BBB9E
:1013D000000085BB00005EBB000030BB000022BBEC
:1013E000000038BB000004BB000028BB000038BA76
:1013F0000000B43A0000F0390000ACBA00001EBB97
:10140000000034BB000080B90000D43A00009E3BCD
:101410000000B23B0000963B00000E3B0000F0399C
:101420000000D0B900008039000000B9000038BBCE
:10143000000098BB00005EBB00009EBB0000CCBB60
:101440000000DDBB0000FBBB0000B0BB000081BBA7
:10145000000030BB0000B4BA000080B80000E03AE1
:101460000000983A0000283B0000B63B0000983B83
:101470000000403B0000E83A00003C3B0000923B8B
:1014800000008B3B0000853B0000263B0000603ADB
:101490000000D0B9000004BB00009EBB0000CBBB25
:1014A0000000FFBB00801CBC00000BBC0000DFBBC9
:1014B0000000D4BB0000ABBB000026BB000062BB39
:1014C0000000CCBA0000F0390000D0390000E03A4A
:1014D00000004A3B00005A3B00004E3B0000443BEA
:1014E0000000283B0000343B00004A3B0000523B18
:1014F0000000853B00007C3B0000523B000070BABE
:101500000000A5BB008002BC000018BC008039BCF4
:1015100000803EBC008030BC000036BC008039BC7E
:1015200000801FBC0000D4BB0000B0BB00008DBB1E
:10153000000070BB000016BB000080380000183AA5
:1015400000008039000000000000083A00009039D7
:101550000000083A0000B0390000A43A0000BC3A8C
:1015600000009039000098BA000028BB000040BA83
:10157000000080380000403900009039000000B9B8
:10158000000050BA000080B90000E0BA000038BB8B
:10159000000028BB000018BA0000383A0000223BC7
:1015A00000004A3B00006C3B0000A43A00009CBADB
:1015B000000098BB0000D6BB0000C3BB0000B6BB58
:1015C000000085BB0000A4BA000098BA000068BB08
:1015D000000098BB00008DBB00008DBB000046BB27
:1015E00000007CBB000083BB000068BB00003CBB6C
:1015F000000052BB0000CBBB00800CBC000018BC3C
:10160000008002BC0000CEBB000090BB000080BB8D
:1016100000002CBB0000F0390000CC3A0000F83A82
:101620000000403B0000643B00005A3B0000283BA8
:1016300000000A3B0000883A000040BA00006CBB82
:10164000008002BC000045BC00806ABC00805ABC1F
:1016500000803CBC000014BC0000F6BB0000D0BB06
:101660000000ECBB0000C3BB0000B0BB0000A9BB86
:10167000000034BB0000F8BA00007CBB00006CBB6B
:1016800000006CBB000080BB000060BA0000383B6B
:101690000000D43B0000D63B0000CE3B0000BC3B2A
:1016A00000004E3B0000083A000028BB00009EBB33
:1016B0000000B6BB0000CEBB00008BBB000038BBF7
:1016C00000002CBB00002CBB00008FBB00008BBBBC
:1016D000000070BB00000ABB0000BCBA000070BA7A
:1016E000000038BA000000000000D0B90000B0B916
:1016F000000090BA000090390000083A000060BA7B
:101700000000F8BA000064BB000092BB0000B4BB4C
:101710000000B2BB0000B6BB000098BB00009CBB41
:1017200000008FBB000028BB0000D4BA0000B4BA90
:10173000000046BB00009FBB0000E7BB008000BC70
:1017400000800FBC0000FDBB0000D2BB000074BBDA
:10175000000000390000903B0000F03B00000B3C13
:1017600000000A3C0000B43B0000963B00004E3BEA
:1017700000004A3B0000183A000046BB0000C3BB13
:10178000008001BC000005BC0000E3BB00009FBB63
:1017900000007CBB00004EBB0000C4BA000080BA51
:1017A0000000BCBA0000B0390000D4BA0000A3BBEE
:1017B0000000D2BB0000D4BB0000D6BB0000D6BBEB
:1017C0000000E1BB000016BC00802BBC000029BC5F
:1017D00000800DBC0000CEBB00008FBB0000D4BA5F
:1017E000000060BA000040390000563B0000A93BF1
:1017F0000000C33B0000EA3B0000B83B0000443B54
:10180000000000000000BABB000024BC008030BC17
:1018100000802ABC000019BC0000CEBB00005ABBEF
:10182000000070BA00001E3B0000BA3B0080023C82
:101830000000153C0000133C0000153C00801E3CDD
:101840000080113C0000CB3B0000C93B00004A3B3C
:101850000000703A000028BA000000BB00002CBB5A
:101860000000A1BB0000D8BB0000DBBB0000C7BB71
:101870000000CEBB0000CEBB0000C3BB0000A1BB7C
:1018800000003CBB00009CBA0000D0B900008038CA
:101890000000903A0000043B0000563B0000BA3BB9
:1018A0000000B63B00009C3B0000CE3B0000C13B6B
:1018B0000000803B0000E83A000028BA00008FBB1F
:1018C0000000B6BB000092BB0000D6BB008000BC8D
:1018D000008020BC0000FDBB0000A5BB0000E8BAF2
:1018E000000080BA000000000000B0B9000090398C
:1018F0000000903A0000B039000000000000B4BAC7
:10190000000083BB000070BB000046BB000088BA2B
:10191000000040B90000403900002CBB000046BB6D
:1019200000001ABB000088BA0000163B00008F3B85
:101930000000A53B0000A53B0000563B00001E3BFD
:101940000000003B0000D039000088BA0000F0BA67
:1019500000000ABB000062BB000068BB000034BB93
:1019600000000ABB0000ACBA0000B0B9000090B99A
:101970000000703A0000383B0000A13B0000923BA1
:1019800000009E3B0000463B0000123B0000C43AB2
:1019900000004039000080B8000090390000603A33
:1019A0000000F83A000080B900001ABB0000CEBB6E
:1019B00000801EBC00805ABC008067BC008076BCE2
:1019C000008068BC000060BC00004FBC000027BC69
:1019D000008012BC0000F9BB0000DDBB000092BB20
:1019E000000070BB00000EBB000030BB0000E8BA76
:1019F000000080B80000D83A0000463B0000813B60
:101A00000000643B0000223B00002C3B0000603AD9
:101A1000000000000000BCBA000026BB000062BB52
:101A2000000034BB00005EBB0000ADBB0000BDBBCE
:101A30000000DBBB0000D8BB0000E1BB0000C1BB65
:101A40000000B2BB000030BB0000703A00002C3B2D
:101A500000007C3B0000563B00000E3B000028BA13
:101A60000000B4BA0000BCBA0000A4BA000028BA52
:101A70000000E0BA000034BB000080BB000098BB4F
:101A80000000B2BB0000C3BB00005EBB000060BA38
:101A90000000703A0000043B0000383B0000563B59
:101AA00000009A3B0000853B0000B03900005ABBA3
:101AB0000000C1BB0000F6BB0000DFBB008000BC23
:101AC0000000EEBB0000C3BB00008BBB000060BA8F
:101AD00000008038000080B9000000000000303BAA
:101AE0000000813B0000DD3B0000CB3B0000443B9D
:101AF0000000B039000068BB0000BABB0000EEBBBC
:101B000000000BBC000036BC008049BC008039BC22
:101B100000801BBC000016BC000015BC0000F0BB20
:101B20000000C7BB0000D6BB0000B4BB0000A7BBD1
:101B30000000A1BB000090BB0000A1BB0000CEBB19
:101B40000000DBBB000081BB000060BA0000D039A0
:101B50000000043B0000003B0000E83A0000083BA6
:101B60000000E83A0000B0B90000ACBA0000F8BAD2
:101B700000004EBB0000D2BB008011BC008012BC34
:101B800000801CBC000025BC00801ABC000004BC06
:101B90000000C1BB00003CBB000090390000D83AF7
:101BA0000000903A0000503A0000883A0000703A75
:101BB0000000523B00000A3B0000B43A000008BAA3
:101BC0000000E8BA000092BB0000A7BB0000D8BB31
:101BD0000000B2BB000089BB000016BB0000000083
:101BE0000000C43A0000403B0000083A000070BA10
:101BF000000016BB0000BCBA000008BA0000703A32
:101C0000000028BB000089BB0000ADBB0000E1BBA9
:101C10000000ECBB0000EABB00800DBC008003BCF0
:101C20000000E7BB0000C1BB0000C5BB00008BBBD0
:101C300000003CBB0000ACBA000090BA000018BA2B
:101C40000000B4BA000000000000B0B90000F0B914
:101C50000000F0B90000E0BA000008BB0000D8BAEC
:101C6000000060BA000088BA0000883A0000853B96
:101C70000000803B00003C3B00003C3B0000623B1E
:101C80000000833B0000123B00002C3B0000603A48
:101C90000000E83A0000123B0000163B0000283B21
:101CA0000000383A00009CBA00004ABB0000E8BAC5
:101CB000000022BB00004ABB0000AEBB0000DDBB41
:101CC0000000F8BB000007BC0000ECBB0000D4BB68
:101CD00000009ABB00003CBB000040BA000000B905
:101CE0000000B0B9000080B90000A43A0000083B31
:101CF00000008F3B0000B83B0000853B0000E83A45
:101D00000000F8BA00006CBB0000D4BB0000E3BBCD
:101D1000000023BC000029BC000031BC00802ABCAC
:101D200000801DBC0000DFBB00004ABB0000283A59
:101D30000000303B0000443B0000E83A00000A3B52
:101D400000009C3B0000BD3B0000D83B0000DA3B9C
:101D50000000EE3B0000DD3B0000EA3B0000BD3B25
:101D600000008B3B00009C3A000038BA0000E8BA43
:101D7000000068BB000026BB000022BB0000ACBA1C
:101D8000000000BB00000ABB00004ABB000085BB8E
:101D900000009FBB0000BDBB0000CEBB0000CEBB5F
:101DA0000000DABB0000E9BB0000BCBB000083BB45
:101DB000000012BB000080BA0000ACBA000074BB87
:101DC000000096BB0000CCBB0000D2BB000090BB63
:101DD0000000BCBA000090B90000B0B9000060BAC1
:101DE0000000A4BA000022BB0000D8BA000080BAEC
:101DF00000003CBB0000B6BB000006BC008010BC6D
:101E0000008030BC00004FBC000046BC000038BC65
:101E1000000027BC0000E7BB000074BB00000ABB49
:101E2000000028BA000040B90000A43A0000683B56
:101E30000000DA3B0000133C0080203C00801C3C8A
:101E40000080293C00803C3C00805D3C00804E3C92
:101E50000080383C00001A3C0000F63B0000CE3BFE
:101E60000000CE3B0000983B0000B43A000000396F
:101E7000000088BA0000D4BA000088BA0000D0B9C7
:101E8000000060BA000050BA0000183A0000983A0A
:101E90000000D0B9000040390000803A0000F0395D
:101EA0000000703A0000903A0000E83A0000403A22
:101EB000000008BA0000F0B9000008BB000087BBB2
:101EC0000000D4BB00800EBC000014BC008000BC2D
:101ED0000000E7BB0000CBBB0000E1BB008003BCFF
:101EE000000023BC000026BC000014BC0000F6BBB0
:101EF0000000DBBB0000E5BB0000F4BB0000B6BB8C
:101F0000000096BB0000F8BA0000F0B90000B0393C
:101F100000000E3B0000523B00009A3B0000AD3B2E
:101F20000000AE3B00008B3B00009E3B0000833B6B
:101F30000000443B0000F03A0000503A00009CBA18
:101F400000004ABB000089BB00004ABB00000ABB7E
:101F5000000080380000043B00005E3B0000743B42
:101F60000000A13B0000963B00008F3B0000A13B1E
:101F700000005A3B0000E03A0000883A00000000F0
:101F8000000056BB0000A3BB0000ABBB000098BB29
:101F90000000B4BB0000ABBB00005ABB000046BB56
:101FA000000028BB000008BB000034BB0000ABBB36
:101FB0000000EEBB008010BC00800DBC008001BCA6
:101FC0000000F6BB000017BC000024BC000022BCCF
:101FD000000027BC000026BC000013BC00800FBC22
:101FE0000000EABB0000EABB00009ABB00000ABB8D
:101FF000000050BA000016BB00004EBB000056BBEC
:10200000000090BA000040B90000E83A0000B43A7D
:102010000000AC3A00004E3B0000683B0000623B11
:102020000000083A00009CBA000088BA000028BAF4
:1020300000008038000012BB000078BB0000A3BB8A
:1020400000002CBB0000803800003C3B00008F3BB0
:1020500000008B3B0000AB3B0000C73B00008D3B0A
:102060000000783B0000803A000080B8000040BAD1
:10207000000022BB000089BB0000ABBB0000E9BB35
:102080000000D2BB0000C9BB0000ECBB00800DBC4F
:1020900000800BBC008000BC0000CCBB000087BBF4
:1020A000000083BB000056BB000044BB000028BA00
:1020B0000000B03900000A3B0000A43A000088BAD2
:1020C000000012BB000087BB0000BFBB0000E3BBE9
:1020D00000000ABC0000FBBB0000DDBB0000BCBB75
:1020E0000000B0BB000094BB000064BB00001ABB42
:1020F000000008BB00009CBA0000F0B9000060BA04
:102100000000F0B9000018BA000050BA000028BA68
:10211000000018BA0000283A0000903A0000D83AAF
:102120000000223B0000983A0000183A0000F0B985
:10213000000090390000403B0000B83B0000FF3B2E
:102140000000093C0000083C00000B3C0000D83BAC
:1021500000007C3B0000443B000028BA000000BBAC
:1021600000006CBB00008DBB00008DBB0000C1BB3C
:102170000000F4BB0000EEBB0000E9BB0000CBBBDD
:102180000000ABBB000028BB000000000000F83AD4
:102190000000623B0000F83A0000083A000040B935
:1021A000000008BB00003CBB000064BB000098BB03
:1021B0000000E5BB0000ECBB0000F2BB0000CBBBA5
:1021C000000085BB000090BB000074BB00004EBB4C
:1021D00000002CBB000064BB000056BB000074BBB9
:1021E000000074BB000030BB000030BB0000D8BA58
:1021F000000080B9000038BA000000000000B43AC6
:1022000000001E3B00001E3B0000443B00000A3B58
:102210000000F83A0000783B0000A33B0000A93B17
:1022200000004A3B0000883A0000B0390000F0B9D5
:102230000000183A0000383A0000D03900000000D1
:102240000000383A0000283A0000D83A0000623B0B
:102250000000163B00002C3B0000AC3A0000BC3AEA
:102260000000D83A000088BA000030BB000085BBEF
:10227000000064BB000070BB00004ABB000070BAE5
:102280000000B0390000CC3A0000603A0000D83AB3
:102290000000463B00006C3B0000083B0000283A71
:1022A0000000A4BA000030BB00008FBB0000C3BB1D
:1022B000000009BC0000F6BB0000BCBB00008DBBE9
:1022C0000000A4BA000060BA000080B90000F0B9B4
:1022D00000001EBB0000A4BA000038BB000081BB98
:1022E00000009CBB000064BB000064BB0000BCBAE3
:1022F000000040BA0000E8BA000026BB00005ABB4C
:10230000000046BB000088BA000098BA000038BA46
:102310000000803800008039000090390000BC3A8D
:102320000000263B0000383A000000B90000903958
:102330000000AC3A0000A43A000040B9000040BAE6
:102340000000E8BA000028BA0000D0B90000903AB6
:102350000000523B0000703B00008B3B00008F3BB5
:102360000000983B0000813B0000283B0000703AD1
:10237000000000000000B4BA000030BB000083BBC6
:1023800000009CBB0000ADBB0000A9BB000064BB0B
:10239000000000BB000000000000983A0000803BF5
:1023A0000000943B0000A33B00006C3B0000083B96
:1023B00000000000000018BA000060BA000016BB60
:1023C000000083BB000085BB0000C3BB0000F9BB5D
:1023D000008012BC00801EBC00800EBC0000F8BB58
:1023E0000000C9BB0000C5BB00009ABB0000A7BB32
:1023F0000000B4BB0000B0BB0000A3BB0000C3BB27
:102400000000AEBB00009EBB00003CBB00001EBB3A
:102410000000F0BA000038BA000000000000803967
:10242000000000B9000090BA0000A4BA00003CBB54
:102430000000ACBA000018BA000052BB000085BB17
:1024400000009FBB000068BB00001ABB0000F8BA88
:102450000000BCBA000060BA000000B90000803A79
:102460000000343B0000383B0000463B0000343B9A
:102470000000003B00009C3A000080380000BCBA1D
:10248000000028BB000012BB000070BA00009CBA1C
:10249000000088BA00009039000080380000383A07
:1024A000000000390000F0B90000ACBA000040B9EB
:1024B000000080390000B0B90000C4BA000078BB49
:1024C0000000ADBB0000DBBB0000E7BB00800CBC24
:1024D00000800EBC000014BC00800EBC000004BCD8
:1024E0000000E1BB0000BDBB0000CEBB0000C3BBD1
:1024F0000000D4BB0000BDBB000028BB0000B4BA84
:10250000000026BB00001EBB000028BB000004BB6F
:10251000000026BB0000ACBA000098BA000034BB33
:102520000000F8BA0000E0BA0000F8BA00009CBA57
:1025300000000ABB000080BB000083BB000038BB6A
:102540000000B4BA000028BA0000D43A0000623B90
:102550000000523B00007C3B0000003B0000083ABA
:102560000000D0B90000B4BA0000D8BA000062BBC5
:10257000000044BB00002CBB000028BB0000CCBA0C
:102580000000A4BA000090BA000088BA00001ABB8C
:102590000000A1BB000094BB0000A3BB0000BCBBBB
:1025A0000000BABB00007CBB00002CBB0000E0BAFE
:1025B000000060BA000000B9000038BA000090BA0C
:1025C000000038BA0000883A0000263B0000343B87
:1025D0000000873B0000A93B0000B03B0000B23B7D
:1025E00000008D3B0000563B0000C43A000040391B
:1025F000000028BA000012BB00001EBB00005ABB3E
:10260000000070BB000028BB00009CBA000008BAA4
:1026100000000039000040390000383A000080B85E
:1026200000000000000090B9000098BA00009CBAB9
:10263000000038BA000008BA000098BA000070BA6A
:10264000000000B90000183A0000383A0000D43AFF
:1026500000001E3B0000403A0000083A0000183A13
:102660000000083A0000D43A00008038000098BA10
:102670000000F8BA000030BB00005ABB000087BB66
:1026800000005ABB000062BB000070BB000034BBFE
:10269000000004BB0000403A000000B9000080BA0E
:1026A0000000D4BA0000BCBA0000ACBA000008BAFE
:1026B000000008BA00009CBA000040BA0000B0B99F
:1026C0000000BC3A00008B3B0000DD3B0000FB3B00
:1026D0000000F43B0000F83B0000E53B0000873BB6
:1026E0000000283B0000A43A0000E03A0000883ACD
:1026F0000000803A0000803A0000D43A0000443BD9
:102700000000403B0000833B0000873B0000403B53
:102710000000683B0000123B0000BC3A0000603A39
:102720000000803800000ABB000074BB0000ADBB95
:102730000000A7BB000081BB000052BB000068BBCB
:10274000000078BB000090BB0000B0BB00009ABB4B
:1027500000005ABB000012BB000000B90000403A64
:1027600000000039000000000000D8BA00004EBB95
:1027700000005EBB000087BB000056BB000090BBA2
:102780000000ABBB000087BB00005EBB000012BBBB
:10279000000038BA0000B0B9000000B9000090B9DC
:1027A00000008039000080390000BCBA000004BB82
:1027B000000026BB00000ABB0000ACBA0000803855
:1027C000000080B8000080B90000E83A0000003B3B
:1027D0000000123B0000503A0000B0B9000090B970
:1027E000000040B90000B0B90000ACBA00001ABB4C
:1027F00000000ABB0000D4BA00002CBB00008BBB59
:102800000000A3BB00009ABB000052BB000044BB09
:10281000000080BA000012BB000068BB000078BB5B
:1028200000002CBB000000BB0000E0BA000034BB7D
:1028300000000EBB000000BB000008BB000028BB6E
:10284000000034BB000081BB000080BB000074BBF3
:10285000000062BB000064BB0000D8BA0000D0B921
:102860000000283A0000803A0000503A0000383A50
:102870000000403A0000E83A0000623B0000B03B34
:102880000000A93B0000AD3B0000943B0000893BE9
:102890000000963B0000523B0000703A0000000030
:1028A0000000A4BA000090BA0000E0BA0000D4BA58
:1028B000000098BA000040390000D0B9000018BAF2
:1028C000000008BA0000B0B9000080B900009CBA4E
:1028D00000001EBB000074BB0000C9BB0000C3BBEE
:1028E0000000C7BB000081BB000026BB000008BB86
:1028F000000028BB00007CBB0000AEBB0000A5BBF5
:10290000000096BB0000C4BA0000503A0000D43A60
:1029100000000E3B0000383A000080B90000CCBA3D
:102920000000F0B90000903A0000903A00009CBA14
:1029300000003CBB000080BB000040BB000081BB2E
:102940000000A5BB0000E7BB008000BC008001BC0C
:102950000000C1BB000056BB00006CBB000085BB83
:1029600000008FBB000038BB0000ACBA0000ACBA5E
:10297000000008BA0000D0390000403A0000403A98
:102980000000403A000080390000F0390000183A99
:102990000000B0390000903900008038000080BA93
:1029A0000000B4BA0000E0BA0000B4BA000040B9B8
:1029B0000000B0B900009CBA000098BA0000F0B95D
:1029C0000000B0390000183A0000503A0000003909
:1029D0000000F0390000703A0000D83A0000403B97
:1029E0000000003B0000603A00000000000090BAC8
:1029F000000008BA0000D0B9000000390000183A01
:102A0000000040B9000022BB000094BB0000A7BB3F
:102A10000000A9BB0000ADBB0000AEBB0000ABBB1B
:102A20000000B4BB00008BBB000070BB00000EBBFD
:102A3000000000BB000038BB00004ABB000074BBB4
:102A4000000087BB00007CBB000087BB000046BBCA
:102A500000000EBB00000039000008BA00008038FA
:102A60000000083A0000B0390000D0B9000098BA60
:102A7000000090BA0000A4BA000004BB0000E8BA4D
:102A8000000000000000F039000040B90000ACBABE
:102A9000000008BA0000AC3A0000983A0000123B6F
:102AA00000003C3B0000283B00004A3B0000223B6A
:102AB0000000903A00000000000040BA000028BA70
:102AC0000000283A0000083A000080B9000090B9E0
:102AD00000004039000080390000D83A0000403939
:102AE000000088BA000060BA000018BA0000F0398F
:102AF00000000000000080380000803A0000000064
:102B0000000080B80000D0B9000080BA00000000CA
:102B1000000000000000503A0000903A0000903998
:102B2000000040B9000098BA0000E8BA00000EBBEF
:102B3000000040BB000012BB0000D8BA0000F8BA89
:102B4000000028BB000052BB000040BB0000D4BA0C
:102B50000000D8BA000030BB00009FBB0000E3BB00
:102B60000000F6BB000008BC0000F2BB0000F9BB8F
:102B7000000006BC0000D6BB0000C3BB0000DABBEF
:102B800000009CBB0000E8BA000080B80000B0B9AB
:102B9000000080380000083A0000703A0000E83A6F
:102BA0000000163B0000523B0000223B0000E03AD0
:102BB0000000D0B90000BCBA0000B4BA000038BAB6
:102BC0000000383A0000E03A0000563B0000B43BF9
:102BD0000000FD3B0080003C0000F23B0000F83BA1
:102BE00000000B3C00800C3C0080033C0000D83B04
:102BF0000000AE3B00003C3B0000E03A0000A43A7D
:102C00000000903A0000E83A0000E03A00006C3B17
:102C10000000783B0000523B0000443B000040397C
:102C2000000060BA000098BA000040BB0000AEBBD4
:102C3000008000BC00001ABC008011BC00800CBCED
:102C4000000015BC000015BC00800BBC0000F2BBEE
:102C5000008000BC0000E3BB00009FBB00008FBBF6
:102C60000000C3BB0000FFBB008001BC0000DFBB55
:102C70000000BCBB0000C3BB0000E1BB0000C5BB43
:102C8000000078BB00003CBB000044BB000044BB1C
:102C9000000040BB000018BA000000B900009C3AD8
:102CA0000000D43A00001E3B0000903A000070BAC9
:102CB000000050BA0000A4BA000028BA0000083A88
:102CC0000000283A0000E83A0000523B00008B3B2D
:102CD00000009A3B0000943B0000803B0000563B04
:102CE00000003C3B0000D83A0000503A000018BAFF
:102CF000000050BA00009CBA0000E0BA000062BBBD
:102D000000006CBB000030BB00006CBB00001EBBB1
:102D1000000028BB000012BB000028BB00004ABB1B
:102D200000005EBB000090BB000096BB000074BBBF
:102D3000000078BB00008FBB000096BB0000B0BB5A
:102D40000000AEBB0000C1BB0000D4BB0000E5BB6F
:102D50000000ECBB0000EEBB008002BC0000FFBB2B
:102D6000008002BC000006BC0000FFBB000008BCE5
:102D70000000FFBB0000DDBB00009FBB000089BB63
:102D8000000030BB000098BA000050BA000080B8C4
:102D90000000903A0000C43A0000183A0000603A7F
:102DA000000038BA000022BB0000E0BA000018BAE8
:102DB0000000003B0000903B00009A3B0000B43B49
:102DC0000000EC3B0080013C0000E93B0000FF3BC1
:102DD0000000D83B0000963B0000463B0000F83A5C
:102DE0000000903900008038000028BA000083BB42
:102DF0000000A5BB0000B8BB000098BB000085BB6D
:102E000000002CBB000018BA0000D8BA000050BA6D
:102E1000000040BA0000E0BA0000C4BA0000F0B9F7
:102E20000000403A0000D0B900009CBA00000EBB80
:102E300000008BBB0000B8BB0000D0BB0000D4BBBF
:102E40000000F0BB0000F8BB008003BC00800BBC9E
:102E5000008003BC0000C9BB0000CCBB0000A1BBCC
:102E600000002CBB00002CBB000000BB0000D4BA4B
:102E7000000000B9000008BA0000003900008038E6
:102E8000000000000000A43A0000083B0000443BA2
:102E900000003C3B0000CC3A0000E83A0000303B28
:102EA00000001A3B0000223B0000833B0000983BDF
:102EB0000000813B0000783B0000643B00000E3BBB
:102EC00000004E3B00000A3B0000003B00009C3A23
:102ED0000000A43A0000BC3A0000883A0000403AE2
:102EE000000038BA000070BA00000EBB000008BB3A
:102EF0000000A4BA0000403900000000000012BB2E
:102F0000000000BB00001EBB000022BB000038BB5D
:102F1000000038BB00001ABB000004BB00001ABB55
:102F2000000070BA00000000000090BA0000A4BACF
:102F30000000B4BA000026BB000012BB000004BBB6
:102F400000000EBB000056BB000092BB0000BCBBE3
:102F50000000B0BB0000B8BB0000CEBB0000BFBB90
:102F60000000A5BB00005EBB000056BB00008DBB8F
:102F7000000080BB000052BB0000C4BA000008BAC9
:102F8000000090B9000060BA000080BA00009039DB
:102F90000000F0390000C43A0000343B00005A3B06
:102FA00000009C3B0000B03B0000DD3B0000F63B16
:102FB0000000D23B0000A13B0000A73B0000EA3B21
:102FC0000000F43B0000F63B0000E93B0000E33B5F
:102FD0000000D23B0000AD3B0000923B00009A3B5A
:102FE0000000743B0000B43A0000183A0000B0B989
:102FF0000000B0B9000040390000603A0000F0392C
:10300000000090390000503A000040390000383A82
:1030100000000000000050BA000080B9000018BA9B
:103020000000D4BA000028BB000056BB000078BBEB
:1030300000006CBB00009ABB0000B8BB0000B0BB36
:1030400000009CBB0000A7BB0000C7BB0000B2BBD8
:103050000000C7BB0000CEBB0000DBBB0000D0BB44
:103060000000D0BB0000D0BB0000ECBB0000F0BBF8
:103070000000DDBB0000B8BB0000BABB000074BBA1
:103080000000F0BA000060BA000000390000383AD1
:10309000000040B90000B4BA000060BA000080B976
:1030A0000000283A000040390000D0B9000008BAFA
:1030B0000000383A000040390000183A0000803A19
:1030C0000000A43A0000AC3A0000D0390000000033
:1030D000000060BA000028BA000080380000503AB2
:1030E0000000D43A0000523B0000903B0000D83B67
:1030F0000000D03B0000BA3B00007C3B0000523B8C
:103100000000703B0000983B0000AB3B0000AE3B72
:1031100000008D3B0000783B0000CC3A0000803A74
:10312000000090BA000022BB00005EBB0000A1BB03
:103130000000B8BB0000A7BB0000D4BB0000DBBB95
:103140000000E7BB0000F4BB0000BFBB0000D0BB29
:103150000000DABB0000EABB000004BC000015BCA4
:10316000000032BC008048BC00804CBC000046BC63
:10317000008020BC008020BC000026BC000004BCF5
:103180000000DFBB0000E9BB0000C1BB0000ADBB1D
:10319000000068BB000092BB00009CBB00006CBB41
:1031A000000046BB000004BB0000B4BA000098BA9F
:1031B0000000A4BA000040B90000703A0000003BD3
:1031C0000000F83A0000E03A0000F83A00001E3B28
:1031D00000000E3B0000223B00001A3B0000263B93
:1031E0000000403B00001E3B0000F03A00000000E1
:1031F0000000CCBA00002CBB00001ABB000004BBCE
:1032000000001ABB00005ABB000026BB000098BAA1
:1032100000001ABB00000EBB000052BB000052BBF6
:10322000000016BB000080BA0000903A0000BC3AD3
:1032300000009039000000BB00005EBB000098BB9E
:103240000000C1BB0000CEBB00009ABB000098BBD1
:10325000000096BB000089BB000074BB00009FBB50
:1032600000008FBB000064BB000062BB000087BB96
:103270000000ADBB0000B8BB0000B8BB0000C7BB7E
:103280000000DBBB0000DDBB0000CCBB000090BB3E
:10329000000012BB000008BA0000D0B9000000B95D
:1032A0000000F0BA0000E0BA000012BB0000F0BA63
:1032B000000038BA000028BA0000D0B900000000B1
:1032C000000080390000B0B9000008BA0000B43A2C
:1032D0000000223B0000223B0000223B00000E3B8E
:1032E0000000B43A0000CC3A0000D0390000403968
:1032F00000008039000040390000123B0000813B93
:103300000000963B0000983B0000873B0000223BFA
:103310000000403A000040B90000F0390000403A97
:103320000000703A00000000000008BA00000ABB6C
:10333000000046BB00005EBB000070BB00008DBB00
:103340000000DABB00800CBC00000ABC000006BC18
:103350000000F9BB0000E1BB0000E7BB0000C5BBFB
:10336000000094BB0000A9BB0000C5BB0000DFBB90
:103370000000EABB0000D4BB0000FBBB0000EEBBBA
:103380000000CBBB0000B8BB0000B0BB000089BB95
:10339000000008BB0000083A0000123B0000703B30
:1033A0000000703B00002C3B00001E3B0000123B65
:1033B0000000403A0000F0390000803A0000BC3ABA
:1033C0000000303B00004A3B00009A3B0000AD3B50
:1033D0000000AE3B0000B83B0000B23B0000B23B37
:1033E0000000873B0000873B0000893B0000873BD3
:1033F0000000AD3B0000963B00008B3B0000563BBD
:103400000000503A000080BA0000D8BA0000A4BA08
:103410000000E8BA000080BA000080B80000ACBA32
:1034200000009CBA000016BB000062BB000094BB09
:103430000000D0BB0000E5BB0000C1BB00008DBB9D
:10344000000016BB000060BA000080B800008039A0
:10345000000012BB000028BB000064BB000068BB7A
:10346000000070BB000092BB0000ADBB000092BB2F
:103470000000CEBB0000E1BB0000FBBB0000E5BBD1
:103480000000ADBB00009CBB00004EBB00005EBB5B
:1034900000004ABB0000F0BA0000383A0000043BCC
:1034A0000000263B0000123B0000643B00008B3B09
:1034B0000000283B00002C3B0000C43A0000283AE2
:1034C0000000983A0000E83A0000003B0000083B8A
:1034D0000000E03A0000983A000040390000B0B91E
:1034E0000000D0390000F0390000083A0000F83A36
:1034F0000000623B0000443B00000E3B0000383AF5
:103500000000D039000028BA000080BA0000D0B90D
:10351000000080390000083B0000263B0000BC3A58
:10352000000040B90000F0390000AC3A0000C43A95
:103530000000883A000080B9000040390000A4BAB9
:10354000000030BB000087BB000092BB00009CBBAA
:103550000000B2BB0000CEBB0000D4BB0000E5BB46
:103560000000F6BB00000BBC00801ABC008012BC3F
:1035700000800FBC00800DBC000004BC0000F0BB4C
:103580000000DDBB0000D6BB0000DFBB0000D2BBEB
:103590000000DDBB0000BABB0000A9BB0000A7BB58
:1035A0000000A3BB000092BB000080BB0000A3BBD7
:1035B0000000ADBB000081BB000022BB0000B4BA1C
:1035C000000018BA0000B0390000083A000018BA2C
:1035D0000000D4BA0000A4BA000060BA000000B92C
:1035E0000000903A0000E83A0000703B0000893B80
:1035F00000009E3B0000C13B0000E33B0000F93BA4
:103600000000043C0000C33B00009E3B0000923BD6
:1036100000005E3B0000003B0000803A000000001C
:103620000000403900009039000088BA0000B0B9AD
:10363000000090B9000038BA0000C4BA000016BB00
:1036400000005EBB00009CBB0000B0BB0000ABBB39
:1036500000008DBB000022BB000040BB000087BB08
:103660000000C3BB0000E1BB0000C5BB0000BDBB48
:103670000000CCBB0000BDBB0000B2BB0000B0BB73
:103680000000B2BB0000B6BB0000C7BB0000B2BB6D
:10369000000098BB000094BB000087BB000090BBFB
:1036A00000009FBB00008FBB0000C9BB0000BDBB7A
:1036B0000000CEBB0000A9BB000044BB0000BCBAA8
:1036C0000000F0B9000000B90000B0390000983ADD
:1036D0000000C43A0000BC3A0000083A000040393B
:1036E0000000D4BA000000BB00001ABB000087BB7A
:1036F00000006CBB0000E8BA0000603A0000C43A69
:103700000000F03A0000D43A0000883A0000283B5C
:103710000000123B0000683B00003C3B0000983A70
:103720000000003B0000903A0000703A000028BA08
:10373000000028BB000046BB000034BB000034BBC7
:10374000000064BB000030BB000074BB00006CBB19
:1037500000008FBB000096BB00009CBB00006CBB50
:10376000000070BB00006CBB00008FBB0000B2BB50
:103770000000BCBB0000E1BB0000E5BB0000D0BB0B
:103780000000DBBB0000D6BB0000B6BB00008DBB59
:1037900000008FBB00005ABB00006CBB00005EBB8A
:1037A00000002CBB00006CBB000087BB000083BB8B
:1037B00000009CBB000083BB0000B0BB0000BABB94
:1037C0000000FDBB0000E7BB0000A9BB0000B6BBCA
:1037D0000000B2BB000092BB000040BB000028BA52
:1037E000000090BA0000A4BA0000E0BA00000ABBD2
:1037F00000000000000080390000E83A0000803B33
:103800000000AE3B00009C3B0000BD3B0000B03B15
:103810000000BD3B0000EE3B0080003C0000FB3B95
:103820000000D23B0000963B00001A3B0000E83A43
:10383000000090B9000038BA0000E0BA000008BBF0
:1038400000000EBB00003CBB00001ABB000026BB02
:1038500000001EBB0000E8BA000050BA000028BA01
:10386000000070BA000090BA000022BB000052BBFA
:10387000000064BB0000A1BB0000B6BB0000A3BBFE
:10388000000096BB00005EBB0000C4BA000080BA16
:103890000000ACBA000050BA000090B90000183A1D
:1038A000000000390000B0B90000CCBA0000D4BA62
:1038B000000088BA000046BB000089BB000040BB86
:1038C00000009CBA000040390000703A0000083B3C
:1038D0000000263B0000263B0000003B0000BC3AF5
:1038E0000000883A0000AC3A0000123B00005E3B4A
:1038F00000005A3B00001E3B0000283B0000443BF8
:103900000000623B0000C43A0000223B0000043B80
:103910000000983A00000000000080B9000080B864
:10392000000008BA000028BA0000BCBA0000BCBA07
:10393000000088BA000018BA000000390000A43A5C
:103940000000643B00006C3B0000703B0000523BF9
:103950000000403B00001E3B00002C3B0000893B68
:103960000000783B0000123B0000803A0000183A4B
:103970000000803900009039000090B900009CBA26
:10398000000034BB0000D4BA000004BB000000BB40
:10399000000090BA000060BA000000B90000D0B981
:1039A000000080BA0000F0B9000028BA000050BA48
:1039B0000000B4BA000018BA000000B90000803856
:1039C0000000883A000000B90000F0B9000038BAE1
:1039D000000050BA0000F0BA0000A4BA00002CBBEE
:1039E000000070BB000089BB00009ABB000044BB14
:1039F000000000BB0000D0B90000B0390000223B3D
:103A000000006C3B00008D3B0000C93B0000DA3B2E
:103A10000000C13B0000BF3B0000643B0000683B6E
:103A20000000523B0000383B00000E3B00004E3BC4
:103A30000000443B0000623B0000283B00001A3BB2
:103A40000000BC3A0000083A00008039000008BAC3
:103A5000000080B9000018BA000038BA0000BCBAF3
:103A60000000F8BA00000ABB000030BB000083BBB6
:103A70000000A1BB00008DBB000068BB000064BB60
:103A8000000022BB000040BB00004EBB000038BB62
:103A9000000034BB000044BB000046BB000012BB6A
:103AA0000000E0BA000090BA000060BA000038BA26
:103AB0000000F0B9000008BA0000D0B9000040BA18
:103AC0000000183A00009C3A0000D43A0000F03A96
:103AD0000000A43A000008BA0000B0B900000000DD
:103AE000000060BA0000A4BA0000D4BA00004ABBCB
:103AF00000001ABB000090BA0000603A0000E03AF3
:103B00000000083B0000743B00008F3B0000893B35
:103B10000000853B00001E3B00000E3B0000E83A21
:103B20000000B0390000F0390000283A00004039A8
:103B30000000083A0000A43A0000C43A0000043B28
:103B40000000AC3A0000B0390000083A0000083A22
:103B500000000000000080B90000CCBA0000D4BA18
:103B60000000F0BA000040B90000903900000039B0
:103B70000000D0B900009039000050BA0000F8BA37
:103B8000000012BB00001EBB0000B4BA0000A4BAC3
:103B90000000ACBA00000ABB000028BB00001ABB42
:103BA00000005EBB0000A7BB0000B8BB0000C9BBA3
:103BB000000098BB000080BB00001ABB000028BAC0
:103BC000000038BA0000F0B9000090B90000D8BA7F
:103BD00000005EBB000068BB000068BB000087BB44
:103BE0000000C1BB0000F9BB0000DFBB0000D4BB7C
:103BF000000092BB00007CBB000012BB000016BBA3
:103C0000000040BA0000403A0000F039000080385F
:103C10000000703A0000AC3A0000503A00008039D1
:103C200000000000000000000000883A0000803919
:103C3000000000000000383A0000083B0000443B50
:103C40000000383B0000343B0000D43A0000803ACA
:103C50000000703A00008039000028BA0000D4BA91
:103C6000000088BA0000D0B9000070BA000098BA0D
:103C70000000F0BA000012BB000098BA0000CCBAF5
:103C8000000018BA0000B0B9000018BA000038BA35
:103C9000000038BA000060BA000004BB00007CBB22
:103CA000000089BB00008FBB00006CBB00007CBB28
:103CB000000090BB000062BB00004ABB000030BBAC
:103CC000000068BB000068BB000080BB0000ABBB0D
:103CD0000000A7BB0000B8BB0000BFBB00009FBB3B
:103CE000000094BB0000A7BB0000B4BB0000A9BB50
:103CF000000090BB00004ABB000004BB0000B0B94C
:103D0000000080380000B039000040390000503A0F
:103D10000000A43A0000083B0000003B00004039CE
:103D20000000B03900008038000000390000B039D0
:103D3000000080390000903A0000803A0000F0391D
:103D4000000080B90000F03900008039000080B820
:103D50000000F0390000703A0000F83A0000343BEF
:103D60000000343B0000083B0000E03A0000983AB5
:103D70000000383A000080390000B0390000D43A21
:103D80000000343B0000F03A0000403B0000123BD2
:103D900000000E3B0000083A0000703A0000183A9C
:103DA0000000003900000000000008BB00002CBB30
:103DB00000004ABB000038BB0000F8BA00009CBA03
:103DC0000000B0B90000403A0000D83A0000E03AE4
:103DD0000000B039000040390000E8BA000064BBC0
:103DE000000078BB00008DBB000094BB00005EBBF0
:103DF000000074BB000085BB00008DBB0000B8BB99
:103E00000000AEBB00008DBB000074BB00003CBBDB
:103E1000000038BB000046BB000022BB00005ABBBC
:103E20000000AEBB0000A5BB0000ADBB000078BB2E
:103E3000000008BB000080380000803A0000983A7B
:103E40000000D83A0000C43A0000383B0000163B9E
:103E50000000AC3A0000F83A0000E83A0000083BE5
:103E60000000983A0000703A0000263B00005E3BDC
:103E70000000383B0000523B00002C3B0000883A19
:103E80000000883A0000403A0000BC3A0000D039F7
:103E9000000080390000F039000050BA000060BA1C
:103EA000000090BA000090BA000046BB000092BB30
:103EB00000009EBB00009EBB000092BB000064BBE4
:103EC000000044BB000034BB00005ABB000085BBAF
:103ED000000089BB0000A5BB0000BFBB0000D0BB39
:103EE0000000F2BB00000ABC000009BC008010BC4E
:103EF00000800DBC000008BC0000F9BB0000C5BB81
:103F00000000A3BB000028BB00001ABB000012BBCE
:103F1000000000BB0000CCBA00001EBB000004BBC8
:103F200000004ABB000046BB00000ABB0000C4BA48
:103F3000000040BA000080B9000090B90000E0BA6B
:103F4000000090BA0000B039000040B9000090397C
:103F50000000503A0000183A0000F0B90000B0B973
:103F60000000D0B9000028BA000090B9000080B865
:103F70000000903A0000BC3A00001E3B0000123BDB
:103F80000000443B0000303B0000263B0000043BA7
:103F90000000263B00004A3B0000303B0000D43AC2
:103FA0000000083A000038BA0000E0BA0000D8BAB1
:103FB000000034BB000030BB000022BB000046BB49
:103FC000000062BB000087BB000074BB000096BB12
:103FD00000004ABB00005ABB000044BB000026BBE7
:103FE00000002CBB00003CBB000074BB00009EBB6B
:103FF00000009EBB000098BB0000A1BB000083BB7B
:10400000000022BB000004BB000016BB000026BB62
:10401000000068BB000074BB00007CBB000074BBE8
:10402000000062BB000068BB00009EBB00008BBBB1
:10403000000064BB000040BB00000ABB0000E0BA07
:10404000000098BA000080B80000183A00008038DC
:104050000000883A000080390000883A0000983A51
:104060000000903A0000003B0000343B0000643B3D
:1040700000009E3B00008F3B0000833B00005E3B46
:1040800000005A3B0000623B00000E3B00009C3ADF
:1040900000000000000000000000B0B90000ACBA51
:1040A0000000F8BA0000F0BA000038BB000044BBC2
:1040B000000000BB000070BA000018BA000098BAF7
:1040C000000090BA0000CCBA000056BB000034BB20
:1040D000000012BB00001ABB000004BB00001ABBAA
:1040E000000085BB000096BB0000AEBB0000C3BB58
:1040F0000000B6BB0000C5BB0000C7BB0000C1BBD1
:104100000000BFBB0000DFBB0000D0BB0000E5BB70
:104110000000CEBB0000B6BB0000D0BB0000CBBB94
:104120000000DABB0000DABB0000F2BB0000F2BB0B
:104130000000C9BB00008BBB0000D8BA000000B96A
:104140000000283A00000E3B0000083B0000983AAF
:104150000000B039000008BA0000B4BA000028BA64
:10416000000090B90000283A0000603A0000183AB8
:104170000000083A0000083A0000983A0000383A77
:104180000000F83A0000083B0000BC3A0000383A52
:1041900000009C3A00008038000040B9000040BA9E
:1041A000000070BA0000D0B9000080B9000028BA41
:1041B000000070BA0000A4BA000022BB000016BBC9
:1041C0000000C4BA0000E0BA0000E0BA000060BA23
:1041D0000000D4BA000046BB00008FBB00009FBBAC
:1041E0000000B4BB0000CBBB0000C7BB0000D6BBC7
:1041F0000000C3BB0000BABB0000CBBB0000DABBB1
:104200000000E7BB0000FFBB000006BC0000E7BBEE
:104210000000F6BB0000F0BB0000EEBB0000DDBB01
:104220000000CCBB0000D2BB0000D8BB0000AEBB7E
:1042300000008BBB00005EBB000000BB0000CCBADE
:10424000000016BB0000D8BA00000ABB000028BA64
:10425000000090B9000000000000283A0000183A61
:104260000000E83A0000C43A0000123B00000A3B9C
:104270000000263B00004A3B0000923B0000813BCF
:104280000000873B00008B3B00005E3B0000643B6E
:104290000000343B0000043B00003C3B00005E3B60
:1042A0000000523B00005A3B0000643B0000263BEC
:1042B0000000163B0000263B0000403B00001A3B7C
:1042C0000000E03A0000083B0000A43A000000B9FA
:1042D000000040BA000098BA000044BB000052BB86
:1042E000000074BB000083BB000068BB000080BB03
:1042F0000000BFBB0000CBBB0000F2BB0000F6BB60
:104300000000F4BB0000E1BB0000D2BB0000C9BB51
:104310000000BABB0000A1BB000092BB0000A1BB23
:104320000000A5BB0000ABBB0000B0BB000094BB0D
:10433000000022BB000080BA000018BA0000000094
:104340000000803A0000000000000000000040393A
:1043500000000000000080B8000000390000903A22
:104360000000383A0000D0B90000403A0000223B7B
:104370000000E03A0000C43A0000183A0000F03AA9
:104380000000003B0000E03A0000403B0000343BEE
:104390000000833B0000B03B00009E3B0000813BDF
:1043A0000000803B00007C3B00003C3B00002C3BBD
:1043B0000000163B00000A3B0000283B0000623B67
:1043C0000000523B0000463B0000123B0000D83A80
:1043D0000000983A000040B90000F0BA000030BB7D
:1043E00000004ABB000056BB00008FBB0000BCBBF6
:1043F0000000E1BB0000DDBB0000C9BB0000A3BBA7
:104400000000A7BB000094BB0000C7BB0000ADBB11
:104410000000C7BB0000DFBB0000DDBB0000C3BB6A
:10442000000098BB000081BB000087BB00008BBB75
:10443000000080BB000074BB000081BB000078BBA3
:1044400000006CBB000044BB000094BB000090BBAC
:10445000000038BB000056BB000068BB000040BB3A
:104460000000ACBA000040BA000038BA0000F039D1
:1044700000001E3B0000853B0000C53B0000BC3B2C
:104480000000AB3B0000B63B0000CE3B0000EC3B25
:104490000000E53B0000A93B0000703B00002C3B06
:1044A0000000263B00001A3B00009C3A0000383A0E
:1044B0000000A43A0000B43A0000A43A0000983A80
:1044C0000000403900009CBA0000D4BA000080B857
:1044D000000080B8000070BA0000F0BA00000EBB07
:1044E00000006CBB000094BB0000A3BB0000B0BB8D
:1044F0000000B8BB0000BDBB0000ADBB0000B0BBFE
:1045000000008DBB000046BB00003CBB000044BB6C
:10451000000062BB000052BB000083BB000080BBF8
:10452000000083BB000062BB000089BB00008BBBA6
:1045300000005EBB000044BB00006CBB000040BB41
:10454000000012BB000018BA000080B9000008BAD1
:10455000000008BA0000F0B9000008BA0000E03A14
:104560000000563B00004E3B0000643B00007C3BDB
:104570000000703B00002C3B0000303B00001A3B69
:104580000000603A0000903A0000D43A0000263B58
:104590000000893B0000563B0000003B0000B0B922
:1045A000000060BA000090BA00000ABB000050BAD8
:1045B000000080B8000080380000083A0000D43ABB
:1045C0000000883A000040B9000040B9000060BA1D
:1045D00000009CBA00000EBB00001ABB00006CBBC0
:1045E0000000ADBB0000D2BB0000E3BB0000ECBB91
:1045F0000000E7BB0000FDBB008000BC00000BBC5E
:104600000000F0BB0000E3BB0000D2BB0000ADBB6C
:10461000000070BB000064BB000081BB00005ABBFF
:10462000000034BB000046BB000064BB000062BB5E
:104630000000E0BA00009CBA000060BA000080B838
:104640000000403A0000803A0000083B0000303B88
:104650000000F83A0000043B0000263B0000523BFB
:104660000000303B00002C3B0000F83A0000E03A2C
:104670000000D83A0000B43A0000043B0000223B9E
:104680000000463B0000383B00000E3B0000E03AD3
:104690000000853B0000803B0000303B0000A43A56
:1046A0000000C43A0000F039000080380000903962
:1046B000000090BA000044BB000074BB00006CBB5B
:1046C000000085BB000098BB0000A3BB000089BBB5
:1046D000000087BB00008DBB000078BB0000ABBBB7
:1046E0000000A5BB0000DFBB0000D6BB0000C7BBBD
:1046F0000000A7BB00008DBB0000DABB0000E1BBDF
:104700000000DDBB0000E3BB0000F6BB0000EEBB19
:104710000000D4BB0000C9BB0000CBBB0000BDBB88
:104720000000B0BB00008FBB000070BB000012BBDC
:1047300000001ABB0000F0BA000050BA000018BA1E
:104740000000283A0000403A0000903A0000E03AA9
:104750000000E03A0000D43A0000D83A0000903A55
:104760000000B039000080380000083A0000000066
:104770000000F0390000D83A00002C3B0000683BF4
:1047800000008D3B0000A73B0000963B00006C3B07
:1047900000006C3B00005A3B00000E3B0000F03A6A
:1047A00000000E3B0000083A000040B900009039BC
:1047B000000080B800009CBA000090BA000008BA5F
:1047C000000060BA000060BA0000D8BA00000EBB5A
:1047D000000078BB000089BB000078BB00008DBBE7
:1047E00000007CBB0000C7BB0000D8BB0000E5BBDD
:1047F00000800EBC008012BC000022BC000029BC5E
:1048000000801FBC00001ABC00800FBC0000E7BB8A
:104810000000ABBB0000B6BB0000B6BB000087BB0E
:1048200000006CBB000034BB000026BB000098BA3F
:10483000000080B80000703A0000083A0000503ACA
:1048400000000E3B00003C3B0000703B0000683B5A
:1048500000005A3B0000C43A0000BC3A0000D43AC1
:1048600000009C3A0000B43A0000C43A0000A43AA8
:104870000000E03A00001A3B0000743B00007C3B63
:104880000000683B00008F3B0000743B0000873B4A
:104890000000B03B00009A3B00004E3B0000283B6C
:1048A0000000F83A0000AC3A000090390000D0B99E
:1048B000000088BA000050BA0000C4BA000022BB51
:1048C00000005ABB00009CBB000090BB000098BBDE
:1048D0000000AEBB000094BB00009FBB0000B4BB57
:1048E0000000C7BB0000BDBB0000ECBB0000D6BB96
:1048F0000000DABB0000EABB0000CCBB0000A1BB9B
:10490000000052BB000068BB00004ABB0000D4BAE4
:10491000000008BB000040BB000083BB00005EBB82
:10492000000028BB00000EBB0000E0BA0000D4BAB3
:104930000000E8BA000080B90000B0B9000080B8FB
:10494000000000390000D039000090B90000D039D3
:1049500000000000000040B9000080B800000039ED
:1049600000000000000080B80000383A0000983ACB
:104970000000263B0000303B00005A3B0000523B49
:104980000000163B0000AC3A000080B80000CC3AB2
:104990000000083A0000B4BA000080BA000000002D
:1049A0000000B0B9000000BB0000E0BA0000B4BADB
:1049B0000000C4BA00003CBB000052BB00005ABB60
:1049C000000008BB0000D4BA000028BA0000D039AB
:1049D000000008BA000050BA000090BA000028BADF
:1049E000000012BB000081BB0000A9BB0000A9BBF6
:1049F00000009ABB00008FBB00008DBB000044BBD1
:104A000000002CBB000040BB00005EBB000000BBF0
:104A10000000CCBA0000E8BA000008BB0000F0BA01
:104A2000000000BB000044BB000008BB000038BA17
:104A30000000D0B9000000000000A43A0000283BAC
:104A400000008B3B00009E3B0000B63B00009A3B01
:104A50000000943B0000403B0000043B0000283B6A
:104A60000000803B0000703B00004E3B0000403ADD
:104A70000000C43A00009C3A0000383A000040B9F7
:104A80000000CCBA0000CCBA000000B9000008BA9F
:104A90000000D0B9000038BA000090BA0000000051
:104AA0000000D039000040390000F83A0000163B01
:104AB0000000A43A000080B80000503A000080399D
:104AC000000000BB000062BB0000E8BA000098BA1A
:104AD000000090BA00009CBA000026BB000046BB54
:104AE00000007CBB000083BB0000A9BB0000A7BB8B
:104AF00000009ABB00008BBB00004ABB000026BB35
:104B00000000D4BA0000A4BA000040B90000183A6E
:104B10000000463B0000463B0000163B0000503AB8
:104B20000000D0B90000803A0000CC3A00000E3BF3
:104B300000005A3B00006C3B0000683B0000983BC3
:104B400000009F3B0000A13B0000923B0000893B1E
:104B50000000043B00008039000038BA000004BBAC
:104B600000009CBA000004BB00005EBB0000E0BA7D
:104B7000000008BA0000703A0000283A0000183A15
:104B800000009C3A00009C3A000080BA000000BB84
:104B900000005EBB000087BB00005ABB0000C4BA27
:104BA0000000ACBA000080BA0000F0BA0000A4BA5D
:104BB000000070BA0000CCBA0000F0BA0000E0BA01
:104BC000000034BB000028BB00001EBB000040BB3F
:104BD000000026BB000004BB000046BB000078BB01
:104BE00000004EBB000044BB000000BB0000A4BAA4
:104BF000000070BA000080B800000000000000B99A
:104C0000000050BA000060BA0000A4BA000038BA30
:104C1000000016BB00004ABB000040BB0000E8BA21
:104C200000002CBB0000B4BA0000D8BA0000F8BAEB
:104C30000000F0BA000080380000D0B90000A4BA2B
:104C4000000080B8000008BA0000383A0000F83AC6
:104C50000000CC3A0000283A0000883A0000003BEF
:104C60000000903A0000803A000080390000C43A09
:104C700000000E3B00001E3B00003C3B0000623B7E
:104C80000000263B0000F83A0000083B000080B915
:104C9000000000B90000B0B90000F0390000883A07
:104CA0000000AC3A0000003B00002C3B0000E83A5A
:104CB0000000903A0000983A0000E03A0000F03915
:104CC000000040390000B0B90000BCBA0000F8BADA
:104CD000000008BB0000A4BA0000F0B90000B43A1C
:104CE0000000803A000080B8000040B9000070BAAF
:104CF000000000BB000040BB000028BB000012BB4E
:104D0000000081BB000094BB00008BBB00005ABBBD
:104D1000000034BB00009EBB00008DBB000092BBB6
:104D200000009CBB000038BB00001EBB000008BA9E
:104D30000000D0390000C43A0000803A0000083A70
:104D40000000503A0000903A0000983A0000003B02
:104D50000000083B0000263B0000E83A00008038D5
:104D60000000283A000080380000383A0000083A75
:104D70000000903A00009C3A0000B0390000903AE0
:104D80000000F0B9000000000000803A0000C43AC2
:104D9000000080390000A43A0000903A000018BAE0
:104DA0000000E8BA000004BB00000EBB0000E0BA3F
:104DB0000000503A00002C3B0000123B00008039FC
:104DC000000000000000ACBA0000C4BA000088BABD
:104DD000000000000000703A00008039000040BA76
:104DE00000008039000000B9000080B80000B0B9B0
:104DF000000090390000083A0000383A0000D0392D
:104E0000000040B9000090B9000040B9000016BB96
:104E10000000BCBA0000E8BA000070BA000090BA06
:104E200000000EBB00000ABB0000A4BA0000CCBA10
:104E30000000C4BA000050BA0000F0B90000B4BAD3
:104E4000000040BA000000B9000040390000000036
:104E5000000000B9000008BA000018BA000080B8CD
:104E60000000503A0000D83A0000D83A00001A3B3F
:104E70000000643B00004A3B0000523B00001A3B2C
:104E80000000CC3A0000A43A0000283A000040BAE2
:104E90000000BCBA00001ABB000068BB000064BB85
:104EA000000085BB00004ABB0000CCBA000022BB5A
:104EB000000030BB000016BB000038BA000080B80C
:104EC00000009039000040B9000043BC0000163BD0
:104ED00000000E3B0000C43A0000B4BA00009C3A47
:104EE000000038BA000050BA00000EBB000080BAC3
:104EF0000000903A0000083A0000F83A0000603ADA
:104F00000000883A0000F0BA00803E3C00C0DBBCE4
:104F100000004E3B0000AEBB000000B9000013BC17
:104F200000002CBB000052BB0000B0B90000A7BBC2
:104F300000000ABB0000BABB004093BC0000883AE6
:104F40000000E03A0000983A0000E5BB000004BB16
:104F5000000080B80000883A0000223B000085BBBA
:104F600000006F3C0000AD3B0040C6BC000081BBB0
:104F70000000503A00007C3B00004EBB00009E3B0E
:104F80000000D0B90000343B0000963B000016BB87
:104F9000000070BA0000F23B000074BB0000383A19
:104FA00000803ABC000022BC00001ABC0000C53BD7
:104FB0000000BFBB0000283A0000E13B0000643B5A
:104FC000000028BA0000343B000090B90000E13B2B
:104FD000000085BB000028BB0000C13B008029BC4D
:104FE000000055BC0000A1BB00009CBA0000803846
:104FF00000000EBB0000283A0000F83A000044BB55
:10500000000000B90000AE3B00000039000085BB85
:105010000000813B0000A7BB0000F83A0000803987
:10502000000017BC0000903A0000C7BB0000F0B9B8
:1050300000009C3A000090BB0000883A0000C4BA0F
:1050400000803D3C0000F8BB00804A3C000062BC90
:1050500000800F3C000089BB00002C3B000012BB0D
:10506000000068BB0000CE3B000028BB00801C3C59
:10507000000019BC00009CBB0040B7BC00008FBB07
:10508000000016BC0000FF3B00801CBC0000903BF1
:105090000000F03A00009CBA0000A53B0000A43AD2
:1050A0000000443B0000B43B000034BB0080593C8E
:1050B00000C084BC00009A3B0000D8BA00005EBB70
:1050C0000000BDBB0000CEBB0000923B00804CBC8A
:1050D0000000603A000052BC0000F0B90000E9BBDB
:1050E00000008D3B000070BA000090B9000016BBB4
:1050F0000000063C008000BC0000343B0000EC3B9C
:10510000000080BB0000463B000012BB000000B95D
:10511000000016BB0000B0BB0000273C000012BB23
:105120000000C73B008002BC0000503A00007C3BFE
:105130000000803800005A3B0000CEBB000080B861
:1051400000803EBC000038BA0000B4BA0000DB3B6F
:105150000000F03A0000BFBB0000943B00004EBBD3
:10516000000038BB00003C3B0000ACBA0000D83A5D
:105170000000153C0000F039000098BA0000B8BBF0
:105180000000E33B0000CCBB000098BB0000403AAD
:105190000000883A000090BA0000463B0000F03A58
:1051A00000408CBC0000C1BB0000873B0000F9BB85
:1051B0000000EC3B000090B900802C3C00007CBB60
:1051C000000060BA000092BB000044BC00003C3B01
:1051D0000000FBBB0000CB3B0000BCBB0000D4BA0E
:1051E000000004BC000038BB00008F3B000083BB04
:1051F000000064BC0000163B0000C1BB000012BBF5
:105200000000263B000007BC00009039000070BB86
:105210000000D0390000BABB00802BBC0000063C67
:1052200000C099BC0000643B000036BC000009BC13
:10523000000047BC000096BB000080B90000F8BA2F
:10524000000080BA0000E53B000022BB0000643C87
:105250000000803B00806ABC00408C3C0000903A1B
:105260000000E73B00805ABC000004BC000029BCE1
:105270000000083C000028BB0000FBBB00002C3BEA
:105280000000DF3B0000A73B00005EBB0000B03920
:105290000000283A00802E3C008066BC0000F0BA76
:1052A00000003CBB00803B3C00809CBC00007CBB01
:1052B00000004ABB0080583C000085BB0000263C33
:1052C00000009EBB00004EBB0080113C0000903AE5
:1052D0000000AD3B00001EBB000029BC0000083BE5
:1052E000000062BB000062BB0000783B00804EBC47
:1052F0000000903C000040BC0080853C008048BC21
:1053000000801C3C00C083BC0000743B00C0AEBCED
:1053100000809E3C0000743B0000E93B000036BC6E
:105320000080683C0000A5BC0000E03A00009EBB85
:10533000000053BC0000F0B90000F0BA0040933CFC
:105340000000E7BC0080383C000046BB00007F3C0A
:1053500000C09BBC0000CE3B000071BC00800F3C35
:105360000000E1BB0000A93B00008FBC0000383A00
:1053700000000ABC0000D63B0000DBBB00806ABC1A
:10538000000044BC0000403A0000633C000064BCE4
:10539000000034BB0000C5BB00009F3B0000303B59
:1053A00000008039000090B9000068BB00801E3CFE
:1053B0000000A73B00006CBB0000D23B0000853B17
:1053C0000000403A0000AD3B0000073C000078BB05
:1053D00000803C3C00000B3C0000983B0000BCBB44
:1053E0000000783B000080B9000092BB00408C3C7C
:1053F000000073BC0040A13C000009BC0080653C7B
:10540000000063BC00809C3C000036BC0000D03B28
:105410000000383A00002C3B00C091BC00800D3CDD
:10542000000000000000F6BB0000E5BB000062BB0E
:105430000000F0B9008021BC0000AE3B000055BC6C
:105440000080473C0000D8BA0000003B00007CBC54
:1054500000804D3C00006CBB0000623B0000A3BB21
:105460000000233C0000DDBB00409B3C0080EABC08
:10547000000007BC000033BC0000B23B0000383A1B
:10548000000054BC0000A5BB00000A3B0000703CBB
:10549000000007BC000038BA0000D8BA00802F3CDA
:1054A000000085BB000005BC00009ABB00C0833C27
:1054B00000C098BC0000F83A00001ABB00001EBBF8
:1054C000000008BB0000263C0000883A000038BB02
:1054D0000000D13C0000853B00009C3A0000CB3B23
:1054E00000802C3C0040BEBC00803E3C0000CE3B17
:1054F0000000AB3B000090BC0080203C00802EBC34
:1055000000000039000008BA00802D3C0000AE3BCE
:105510000000D03B0000C53B000004BC0000C9BB3C
:105520000000983C000032BC0000F2BB0000563B7B
:1055300000008D3C000090390000EABB0000B6BBC3
:1055400000005E3C000005BC0000F0BA0000A3BBF8
:1055500000001ABB0000A43A0000BC3A000022BCC4
:10556000000019BC0000F93B00004FBC008038BCB3
:1055700000000ABC000060BC00802CBC0000983B0E
:105580000000873C000097BC0000E33B0000DF3BCD
:105590000000B43B004092BC0080693C000092BB1C
:1055A0000000B83B000060BA0000003900800BBC6E
:1055B0000080BBBC0000983C0000F1BC0000BCBAFD
:1055C000000041BC00C0AE3C0000E8BC0000403B15
:1055D0000000923B0000273C000004BB0000803B21
:1055E0000080873C000046BC00000B3C0000643B90
:1055F000000044BB0000DDBB0040933C0000E3BB67
:105600000000AD3B000022BB0000C33B0000603A3D
:105610000000D4BB0000D4BA0000603C0000813B15
:105620000000083C0000E1BB0080113C008076BC1B
:1056300000C0833C0000CC3B000064BB000000398C
:10564000000046BC00C0A73C0080BBBC00004E3B35
:10565000000047BC0080A43C00C0EABC004091BCF4
:10566000000003BD0000E73B00007DBC0000D0B996
:105670000000FBBB000087BC0040EE3C0000E7BB25
:10568000000090390040FBBC00C0933C000060BAB1
:1056900000408BBC00809FBC0000F83A0000A43A98
:1056A00000008FBB00C08A3C0000F63B00805CBC61
:1056B0000080E83C0040B23C000033BC000085BBE9
:1056C00000C0E63C0080303C00009C3B0000AC3A4F
:1056D00000C0DE3C008002BC0000B53C0040993CAC
:1056E0000000B0BB000080BA0000FD3B0080A33C7E
:1056F000004006BD00809D3C00C090BC0000223BE5
:10570000000080BB0000053C00408CBC000052BB88
:10571000000038BB000038BC000051BC0080D9BC80
:105720000000D2BB0040DEBC0000DF3B00803FBC7D
:10573000000078BB00C0AABC000070BB008069BC40
:10574000000008BB000061BC0000D0BB0000B4BA80
:10575000008020BC00000B3C008011BC0000F8BAA7
:10576000000080BA0000AB3B000030BB00008E3C64
:10577000000005BC0000283A0040913C00408C3CF1
:1057800000001EBB00801E3C0040AA3C00000ABB7B
:105790000000383C0000563B0000EC3B000031BCF0
:1057A0000080D33C0000F4BB0000943B0000B4BB7D
:1057B0000000713C00006CBB00C0893C000000B9D7
:1057C000000000390080803C00008FBB00009F3B40
:1057D000000096BB0000253C008067BC008048BCF0
:1057E000000081BB0080A4BC0040F2BC0000BCBA39
:1057F0000000DDBB00803EBC000043BC00008F3BCE
:10580000000060BC0000F4BB000006BC000032BC1D
:10581000008066BC0000D8BB0000DF3B000027BC56
:10582000000000390000E03A0000093C0000903917
:105830000080753C0000CB3B000074BB0000363C90
:105840000000863C00004A3B0000303B0000463B25
:10585000000080BB0080103C0000A5BB000004BB22
:105860000000903B0000B63C00C08BBC0000063C32
:105870000000F43B000052BB0000043B0000F0B904
:1058800000005E3B00001ABC00C08C3C000080BAE7
:105890000000F0B9000046BB0000F0390000B23B48
:1058A000000017BC0000ECBB000005BC0000833BFF
:1058B000000017BC00004ABB000068BB0000963B1C
:1058C000000040B900005E3B0000DD3B00804ABCA8
:1058D0000000883A000081BB000089BB0000A6BC24
:1058E0000000903B008081BC008057BC00008039E4
:1058F0000000B63B00009FBB000080BB0000163CD0
:10590000000055BC000006BC00009EBC000043BC6B
:1059100000C0A0BC008068BC0000F4BB00408CBC90
:1059200000800FBC00C099BC00004FBC008039BC97
:105930000000D039000028BA00800D3C0080973C60
:105940000000183C00C09B3C0000643C00C0CF3C01
:105950000080F73C00E0103D00A02B3D0040313DB1
:1059600000E0453D00807A3D00C0883D00C0643DB8
:105970000040433D00E0483D0040433D0040BF3C07
:105980000080103C00C08BBC0080D1BC00403CBDFE
:1059900000C04DBD009096BD00D0B0BD00A0AABD16
:1059A0000040ACBD0090A7BD0090AFBD002087BDFA
:1059B000006075BD00C043BD00C049BD0080DABCB9
:1059C0000000C2BC008048BC00000BBC00801CBCB6
:1059D0000040B7BC00C093BC0000F4BB000027BC73
:1059E0000000E83A0000F63B0080F93C0000433D2F
:1059F0000090823D00D0893D0060B03D0000C33D75
:105A00000040EC3D0098063E0090023E0010C03D74
:105A100000406F3D00802F3D0060173D0000383B87
:105A200000A000BD004055BD000069BD00108ABD4A
:105A300000D092BD00B0A7BD00B0ABBD009080BD4E
:105A400000C021BD00C016BD002009BD0000B8BBCC
:105A500000009E3B00000A3C000071BC00807BBC43
:105A60000000F0BA00806BBC00003CBD00908BBD14
:105A700000407BBD005088BD006094BD00A090BD7B
:105A8000002083BD00404EBD00C0D7BC000062BCFA
:105A90000000373C0040C13C00406F3D0090953D08
:105AA0000080BB3D0050C43D0090C53D0020EA3D54
:105AB0000098053E00080C3E0028003E0050AB3D1B
:105AC00000C0583D00A05E3D00E0323D000078BBC4
:105AD000004060BD004060BD008038BD000073BD67
:105AE00000E0B5BD0080BBBD00B096BD00E039BD93
:105AF0000040CDBC008090BC008012BC0000E93B9F
:105B000000C0ED3C0000803B0000643B0000E73B30
:105B1000000064BC006049BD001084BD00C076BDBB
:105B200000D09ABD0000B8BD00E0B1BD0010A8BD16
:105B300000C090BD002044BD00C08CBC000064BB10
:105B40000000C93B00C0463D0070B13D00A0DB3DF8
:105B50000000D63D00F8003E00C01D3E0048273E34
:105B60000098043E00E0723D00A0483D00E0813D09
:105B70000040003D004024BD00F0A9BD00F08BBDF9
:105B8000005097BD0030B3BD0040C3BD00B0A3BD01
:105B9000001080BD0080C9BC00009C3A0000F039B4
:105BA0000000383B00E03D3D0090823D00808D3C90
:105BB0000000D23B0000F13C0000153C00202ABD53
:105BC00000006DBD008068BD0090A7BD0090AFBD16
:105BD000008094BD00209FBD006090BD0000E9BC26
:105BE0000000A13B00000ABB0000CC3A00C07F3D92
:105BF00000D0D43D00D0DC3D00A0F33D0090103E2D
:105C000000F0243E0000163E00C0CE3D0040A13C06
:105C10000000F03C0000363C0040ECBC00E0E2BD7F
:105C2000008805BE0070F1BD00B805BE0060FDBD76
:105C3000001801BE00C0BFBD00708DBD00003CBBA0
:105C40000000D13C00C0A03C0080FE3C00D0A03D44
:105C500000F0873D0080D13C00800F3D0040553D65
:105C60000000053C002057BD002081BD00406DBDF7
:105C700000D0A9BD0010C4BD0000A3BD00A090BD10
:105C800000E054BD000040BC00C0C73C0080903C18
:105C900000405E3D0050EB3D00B8043E00C8023EAF
:105CA0000020163E00C03A3E00C0263E00A0C23D85
:105CB00000401D3D00606E3D00C0AF3C008015BD42
:105CC0000000CBBD0020C9BD0050C2BD00E0F5BD45
:105CD00000F0F4BD006005BE0080DBBD0080ACBDFF
:105CE00000C0D5BC0040B8BC00C0E3BC0000303BE5
:105CF00000403F3D0020453D0000803900003CBB96
:105D00000060023D00C0CF3C00009DBC00803CBD57
:105D100000400ABD00E048BD00806FBD005084BD5A
:105D200000F08BBD00C073BD00803CBC0040193D3D
:105D30000040C83C0060053D0090A53D0090F03D4E
:105D40000030FE3D00E8123E0048383E00903E3EE6
:105D50000090FA3D00C0193D0090803D0020793D43
:105D60000000853B0000B0BD00C0BFBD00C0AABDA3
:105D70000000F6BD004002BE005806BE0080E2BD35
:105D800000E0CDBD00600CBD00007DBC0080E8BC23
:105D90000000303B00A08E3D0010B53D0080593D15
:105DA0000000AB3C00403C3D00C03E3D0000B0BBAD
:105DB000009086BD0060B0BD00509ABD0010BEBD11
:105DC000002800BE00D00DBE0000DABD00A049BD15
:105DD00000000BBC00002C3B0080063D00D0D23DF3
:105DE00000B8253E0010403E00C0443E0088553EAD
:105DF00000A85B3E0060E13D00A09D3D0080C63DE7
:105E000000402D3D00A069BD00B0EBBD0010A0BD5D
:105E1000003808BE002819BE003015BE0070E0BD75
:105E200000E0DEBD0040A5BD00802DBC000070BBC1
