:020000042000DA
:04035C0000787FBFE7
:10036000002CDBBE0000923D00F0C53D00E0C03D2A
:100370000040B93D00B0B13D0020AB3D00B0A73D0D
:100380000020A53D00A0A13D0010A03D00709E3DB5
:1003900000509A3D0040983D0050953D0050933DDF
:1003A0000010913D00808E3D00D08B3D00C08A3D05
:1003B0000090863D0090843D00E0823D00F0803D4D
:1003C00000407C3D00807A3D00C0743D0060723D7D
:1003D00000C06C3D00C0683D0020673D00405D3DB1
:1003E00000605C3D00205B3D0040553D0060533D9A
:1003F00000604D3D00004B3D00E0483D00C0423DE7
:100400000020413D0040423D00003B3D00E0363DC4
:100410000000343D0000313D00A02E3D00C02B3DCA
:1004200000C02B3D00A0273D0000223D00C0213D23
:1004300000C01C3D00401A3D0020173D0080163DC5
:100440000040123D00800F3D00C00D3D00C00B3D3F
:1004500000A00C3D0040073D0080063D0080033DAC
:1004600000E0013D0080FD3C00C0FB3C00C0F23CD0
:100470000040ED3C0080E83C0000E73C0040E53CEB
:100480000080DF3C0000DB3C0000D93C0000D43C95
:1004900000C0CE3C0080CB3C0080CB3C00C0C63CC2
:1004A00000C0C03C00C0BE3C00C0B83C0040B63CF0
:1004B0000080B23C0040B23C00C056BD0080D5BDBB
:1004C0000050B3BD003080BD00A02ABD0000A5BC17
:1004D000000016BB0000953C00601B3D00805C3DA9
:1004E0000040853D0000A73D00E0BB3D0050DC3DE5
:1004F0000070F43D00D8053E0060143E00081E3E2A
:100500000068273E00E0353E00703C3E0090463ECD
:1005100000E84E3E00F8563E00F85A3E0068653E40
:100520000028683E0048703E0068743E00E8773E50
:100530000068803E008C833E00F4843E0080883E4C
:1005400000588A3E00A88A3E00A08C3E00488C3E9F
:1005500000A88D3E00B4903E009C8F3E00AC903EC3
:10056000008C913E000C933E0018933E0020933E79
:100570000084923E0074933E0038933E00DC933E2C
:1005800000EC923E0018933E0050923E0048923E8E
:100590000050913E00C8923E00FC913E0028923EE1
:1005A0000028923E0040913E000C903E00188F3E85
:1005B00000388D3E00308D3E00748C3E00EC8A3E4B
:1005C00000F0893E00B08A3E0068893E0034893ED2
:1005D000003C873E0034873E0090853E005C853EAF
:1005E00000EC833E00BC813E0000813E008C813ED9
:1005F000009C803E00207E3E00A0793E0050773E69
:100600000070763E0098713E00F06F3E00206E3E16
:1006100000606B3E0028673E00A0633E00D0653E50
:1006200000F0613E00005E3E00085C3E0070583EF7
:1006300000E0553E00A0573E00C0533E00D0533E60
:1006400000C84B3E00A84C3E00A0493E0008493E71
:100650000040423E0060403E00383B3E00A0393E34
:100660000038383E00E0353E0058353E00C8333E85
:1006700000B8343E0098343E00A8313E00602E3E63
:1006800000D82D3E00F82A3E0068283E0040223E59
:1006900000A01F3E00181D3E00181A3E0090193E93
:1006A0000000183E0000173E0068153E0048163E48
:1006B0000088133E0010133E00A00D3E00480B3E84
:1006C0000030083E0050053E00F8033E00E8003EC2
:1006D0000070F83D0020F93D0080F33D00D0F23D70
:1006E00000A0EF3D00D0F03D00A0EE3D00B0E93DA0
:1006F00000E0E23D00A0D93D00C0D73D00B0DA3DAA
:1007000000C0D73D00E0CC3D00F0CE3D0040CE3DE6
:100710000040D03D0060C63D00E0C23D00A0C13DAC
:1007200000F0BC3D0020BB3D0010B73D0050AF3D88
:100730000090B13D0090AD3D00D0A53D0030A63DFC
:100740000070A63D00C0A13D0040A13D0050A03D6D
:1007500000309B3D00509A3D0060943D00F0983D74
:1007600000B0933D0020923D00F0873D0040873D62
:100770000010863D0070803D00E0863D00207A3DFF
:1007800000807A3D00A0783D0000743D00206A3D65
:100790000040613D0020673D0080603D00E05A3D23
:1007A0000000533D00A05A3D0020513D0020503D27
:1007B00000204D3D00204C3D00E0503D0040423DBA
:1007C0000060483D00A0403D00A0393D00C02F3DE5
:1007D00000402D3D0080383D0040313D00202A3D45
:1007E00000E0353D00E0363D0020263D00C0283DBC
:1007F0000080373D00202E3D00202A3D0040283D4E
:100800000000193D0020173D0020083D0000083D74
:100810000000123D00A0083D0000083D0040F43CEF
:100820000080F73C0040EE3C0000F03C0040E33C20
:100830000040EB3C0040D73C0080C93C0000CB3C72
:100840000000D43C0080D33C0040BE3C0000BC3CD7
:100850000040B03C00C0B13C00C0A13C00C0AA3C7C
:1008600000C0A13C00C08C3C0080803C00809E3CCD
:100870000000A43C0080783C0080763C00006D3C89
:1008800000007D3C00C08A3C00408A3C00006E3C79
:100890000080743C00408B3C00008D3C0000733CA9
:1008A00000804E3C00804B3C0080563C00005F3C8A
:1008B00000805D3C0000383C0080493C00804D3C9D
:1008C0000080383C0000333C0080593C0000333C41
:1008D0000080653C0000163C00801C3C0000053C8C
:1008E0000000F83B0080103C0080033C00800C3C82
:1008F00000802C3C00803B3C0000453C0080113CCB
:100900000000FB3B00802C3C0080003C0000EA3BE8
:100910000000E93B0000F63B00800C3C0000043C7A
:100920000000A93B0000DB3B0000D63B0000E93B98
:100930000000C13B0000BA3B0000C33B0000CC3BC1
:100940000000A93B00004A3B0000123B0000043BB2
:1009500000006C3B0000083A0000A43A0000D039C7
:100960000000503A0000343B0000623B00002C3B8A
:100970000000383B0000CC3A0000E8BA000090B913
:100980000000403A0000E83A0000A43A0000D0B964
:10099000000040B9000080380000183A000028BA72
:1009A000000088BA000080380000803A000060BA79
:1009B0000000B4BA000016BB0000E8BA000090BA0C
:1009C000000090B900001EBB000000BB000018BA78
:1009D000000038BA00000000000080BA000008BA29
:1009E0000000C43A0000D83A0000383A0000803ACB
:1009F00000000E3B0000903A00000EBB000028BB38
:100A0000000080BA000092BB00008DBB0000A1BBBB
:100A100000003CBB00004ABB00008BBB0000A1BB38
:100A200000009ABB0000ABBB0000E0BA00001EBB98
:100A300000009CBA0000503A0000283B0000000073
:100A400000004039000052BB0000F0BA0000C4BAF8
:100A5000000046BB000094BB000044BB000040BB4C
:100A6000000060BA000080B90000D0B90000A4BA4C
:100A7000000040390000D0390000ACBA000028BBAB
:100A800000000EBB000022BB000062BB000090BB58
:100A9000000087BB00001EBB00002CBB000000B99B
:100AA0000000B0B9000056BB00002CBB0000CCBA5F
:100AB00000005ABB000064BB000074BB000044BBD4
:100AC000000062BB000081BB0000ACBA0000CCBAE1
:100AD0000000D0B90000C4BA000046BB000064BBEF
:100AE0000000E8BA000030BB000038BB00001ABBB1
:100AF00000008BBB00009EBB0000A3BB0000D0BB6E
:100B0000000081BB00006CBB0000BCBA0000F8BA5A
:100B100000000000000050BA000080B900001EBBB9
:100B20000000E8BA0000A9BB0000A9BB000040BB60
:100B3000000068BB00009CBA0000F0BA00005ABB7D
:100B400000004ABB000044BB00006CBB000078BB47
:100B500000001EBB0000D4BA000000B90000ACBA0F
:100B60000000D8BA0000F8BA000080390000B0399F
:100B700000008038000060BA0000503A000090B9D0
:100B8000000040BA000068BB00009CBB0000ABBB8B
:100B90000000E0BA000052BB00006CBB000038BB94
:100BA000000008BA000060BA0000003B0000F0BA84
:100BB000000040BA0000383A00008039000088BACE
:100BC0000000C4BA00002CBB000080380000F0BA5E
:100BD000000034BB000012BB0000B4BA00000039B2
:100BE000000080B90000D0B90000F0B9000050BA90
:100BF00000009CBA000040B900000ABB000040BAE7
:100C0000000040B90000183A0000ACBA000074BB04
:100C1000000056BB0000CCBA000000BB000000BBC7
:100C2000000016BB0000B4BA000030BB000008BBD7
:100C300000005EBB000008BB0000F8BA0000E0BA8C
:100C40000000083A000098BA000008BA0000F03925
:100C5000000050BA000080BA000098BA000087BBBC
:100C600000008DBB000098BB000087BB0000A5BB47
:100C7000000000B90000B039000040B9000080BA9F
:100C8000000000B90000A43A0000903A0000C4BA85
:100C9000000080BB000083BB00003CBB0000F0BA3A
:100CA000000028BB000030BB000088BA0000D0B9AB
:100CB000000098BA0000383B00003C3B0000903A2E
:100CC0000000183A000000B900003C3B000090B959
:100CD000000004BB0000D4BA0000A4BA0000A4BA0B
:100CE0000000983A0000703A0000083B0000403ACB
:100CF0000000803900000E3B0000AC3A0000A43A2E
:100D00000000703A0000603A0000803A00002CBBFE
:100D10000000F8BA000062BB00004EBB0000D4BA6D
:100D2000000080BA000080BA0000C4BA00004ABBCC
:100D3000000087BB0000B6BB000096BB00008BBB69
:100D40000000B0BB000083BB00009EBB000089BB5D
:100D5000000056BB0000CBBB0000ADBB000078BB61
:100D600000005EBB00008BBB000044BB000026BB44
:100D7000000022BB0000F8BA000089BB000016BBCF
:100D800000009CBA000000BB000040BA000050BA4E
:100D9000000028BA000040BA000000000000083A35
:100DA00000009039000000000000603A0000F0B937
:100DB0000000883A0000D43A00009039000088BA58
:100DC000000098BA0000CCBA00000000000028BA69
:100DD0000000BCBA000004BB000062BB000038BACF
:100DE0000000F0BA000098BA000028BA000090B9DC
:100DF0000000383A000000B9000028BB0000D4BA57
:100E0000000068BB000080BB00004ABB0000AEBB16
:100E100000001EBB000034BB000004BB0000D0B9C2
:100E2000000080BA000000B90000A43A000040BAF7
:100E30000000C4BA000038BA000004BB000008BAC1
:100E40000000F0BA000028BA000090BA0000F8BA1A
:100E5000000008BA0000F03A0000403B0000893B67
:100E600000001A3B0000183A0000D43A0000B039E4
:100E70000000F03A0000803900008038000000399E
:100E8000000090B90000F0B90000283A000040B915
:100E900000000ABB0000B4BA00001EBB00002CBB5F
:100EA000000089BB0000AEBB000080BB000030BB6F
:100EB00000008BBB0000A5BB000092BB000089BBFB
:100EC000000068BB000062BB0000F8BA0000F0BA86
:100ED000000028BA00001EBB0000A4BA0000D8BA67
:100EE0000000E8BA0000183A000088BA0000183A7A
:100EF00000008038000018BA000070BA000090B9F5
:100F0000000040BA0000E0BA00000000000000B994
:100F100000000EBB000070BA000040390000D0395C
:100F20000000183A000090BA000040B90000903A62
:100F3000000000000000703A000000000000F8BA55
:100F400000000ABB0000C4BA000000BB0000A4BA45
:100F5000000030BB0000F0B9000004BB0000083AFC
:100F60000000B039000018BA0000883A000004BB45
:100F7000000046BB000022BB000030BB00007CBB71
:100F800000007CBB0000C1BB00008BBB00007CBB31
:100F9000000085BB000000BB0000F8BA0000F8BAF2
:100FA0000000ACBA00003CBB000046BB000044BBE4
:100FB00000009ABB000092BB0000A5BB00005EBB16
:100FC000000078BB000040BB00000ABB000008BA6C
:100FD0000000383A000090B90000383A000080392B
:100FE0000000403A00000000000018BA000098BA63
:100FF000000044BB000004BB00001EBB00007CBB23
:1010000000004EBB000080BA000040B9000090B95B
:101010000000D4BA0000B0B9000080390000D8BA8E
:10102000000060BA000008BB0000D8BA000008BA8F
:10103000000080BA0000F0B9000008BB000062BBED
:10104000000080BB00005EBB00005ABB000074BB08
:1010500000003CBB000008BB000028BA000070BACA
:101060000000383A00009C3A000080B90000F83ACD
:101070000000003B0000C43A0000083B0000183AA2
:101080000000C4BA0000A4BA000052BB000008BBB4
:1010900000001EBB0000BCBA000080B80000F0B920
:1010A000000060BA000070BA0000000000001A3BA7
:1010B0000000E8BA000028BA000080380000B0390B
:1010C000000060BA0000D4BA00002CBB000040B998
:1010D000000090B90000603A000090390000B0B9FB
:1010E000000000000000A4BA000050BA0000D4BA0A
:1010F00000001ABB000040BB00000EBB000016BB86
:10110000000008BA0000D4BA00000000000008BACD
:10111000000060BA0000E0BA000070BA000080BBB6
:10112000000056BB000034BB00009ABB00005EBB51
:10113000000046BB000052BB00001EBB000022BBEB
:10114000000070BA000040390000F0B90000F0392A
:10115000000080BA000008BB00001EBB000000BBFE
:10116000000026BB00004ABB0000D8BA0000ACBAA1
:10117000000080BA0000E8BA000018BA0000F8BA0F
:101180000000A4BA000004BB000060BA000090BADE
:101190000000C4BA000000BB0000B0B9000080B974
:1011A0000000F0390000D43A00000A3B0000813B07
:1011B00000003C3B00004A3B0000603A000008BAD7
:1011C000000070BA000098BA0000E8BA00004EBBF8
:1011D000000056BB00000ABB0000A4BA0000F0BA31
:1011E0000000A4BA000000000000F0B90000083AB6
:1011F000000088BA000016BB00009ABB000096BB36
:10120000000087BB0000A3BB000090BB00006CBBCC
:1012100000001ABB000060BA00004039000028BA84
:10122000000060BA000056BB000026BB000089BB6E
:101230000000A9BB000089BB000062BB00009CBB92
:101240000000D8BA000022BB0000E8BA000018BABB
:1012500000001EBB00004EBB0000D8BA0000E8BA78
:10126000000044BB00001ABB000026BB000050BABF
:10127000000088BA0000B4BA00005ABB000044BBAA
:101280000000C4BA00001ABB000004BB000080BA12
:101290000000F8BA0000A4BA000022BB0000B4BAF3
:1012A0000000F8BA000012BB000034BB0000D4BA42
:1012B0000000BCBA000012BB0000F8BA0000B4BACB
:1012C0000000E8BA00000ABB0000CCBA000080BAF7
:1012D0000000F0BA00002CBB00000EBB00009CBA5E
:1012E000000018BA000080BA0000C4BA0000B0398B
:1012F00000009C3A000040B9000040390000E0BA0C
:10130000000034BB0000ACBA0000A4BA0000E0BA90
:10131000000088BA0000D8BA0000403A000080BA45
:101320000000BC3A0000CC3A0000CC3A0000403A41
:10133000000028BA0000D0B90000D0390000003900
:10134000000040BA00009CBA000090B90000D43AF6
:101350000000003B0000383B0000873B0000303BB2
:101360000000123B0000B039000098BA0000BCBA7F
:101370000000CCBA000044BB00000EBB0000F8BA6D
:101380000000C4BA000028BB0000D8BA0000ACBA04
:101390000000B0B90000E8BA0000D4BA000030BBC9
:1013A000000034BB000050BA000040BB00008FBBFF
:1013B00000007CBB00005EBB000040BB000030BBF7
:1013C00000001EBB000090BA0000383A00008039CF
:1013D00000008038000080B900004039000080BA69
:1013E0000000D0B9000098BA000070BA000090B9AF
:1013F000000090BA000090B90000B039000018BA9F
:1014000000008038000000B9000000390000503AA8
:101410000000E83A0000803A0000D039000060BACD
:101420000000F0B90000703A0000803A0000D43AA1
:101430000000263B0000803A0000CCBA000046BB0A
:1014400000001EBB000089BB00001ABB0000F0BA00
:10145000000016BB0000D4BA0000F8BA0000A4BA1D
:10146000000070BA000088BA0000ACBA00004ABBA5
:10147000000028BB000044BB00007CBB0000BDBBDB
:1014800000008BBB000044BB0000ACBA0000D4BA23
:10149000000018BA0000B0390000703A0000043BA8
:1014A0000000C43A000040BA000000B9000080BA51
:1014B000000090BA000080B9000098BA0000C4BAD9
:1014C000000090B9000000000000BC3A00009C3A07
:1014D0000000E03A0000283A000090B9000028BA65
:1014E000000070BA000090B90000F0B9000080BAA6
:1014F00000000EBB0000E0BA0000B0B9000090BAD6
:10150000000080BA000050BA000090B9000000B995
:10151000000038BA000050BA0000B4BA00000ABB9C
:1015200000003CBB000038BB000088BA00000EBBC6
:10153000000016BB000004BB000046BB000000BB5F
:10154000000030BB000022BB000000BB000012BB4B
:10155000000016BB000038BB000090B90000B43A90
:101560000000A43A0000D43A0000123B0000443BC3
:101570000000803B00005A3B0000043B0000A43AFE
:101580000000603A0000283A0000283A000080B9C4
:10159000000098BA000000390000183A0000803AB4
:1015A0000000C43A000040390000B43A0000903A0C
:1015B00000008038000060BA0000B4BA0000B4BA7D
:1015C000000022BB00001ABB000016BB000090B94F
:1015D0000000D0B9000000B900008038000040B918
:1015E000000098BA0000E8BA0000F8BA00004ABB50
:1015F00000004EBB00001EBB0000D4BA0000BCBA05
:101600000000BCBA000008BA0000B0B9000080BAFF
:1016100000000000000090BA000038BA0000D8BAFC
:101620000000E0BA000008BB000000BB0000CCBA1C
:101630000000F8BA0000F8BA0000BCBA00000000D0
:101640000000CC3A0000F0390000883A0000903ADF
:101650000000AC3A000040390000ACBA0000E0BA2B
:101660000000E8BA000052BB0000E0BA00001ABB5C
:10167000000080BB000000BB00009CBA0000D03915
:10168000000040BA000080B80000A43A0000B0B9E1
:10169000000040BA0000B0B90000D8BA000022BB78
:1016A0000000B4BA0000D8BA0000F8BA000000B9CF
:1016B000000090390000283A000070BA0000E8BA33
:1016C0000000CCBA000080BA000008BB000050BA8D
:1016D000000000000000E03A0000C43A0000D83AE0
:1016E0000000043B0000AC3A0000F83A0000B039BA
:1016F000000040BA000080B80000A4BA0000F0BAB0
:10170000000090BA000000BB000018BA0000F0B959
:10171000000028BA0000603A0000903A0000183A31
:1017200000008038000040BB000056BB0000D4BA67
:1017300000002CBB00001EBB00005ABB00004ABBCF
:101740000000E8BA0000B4BA00001ABB000012BBE7
:10175000000090BA00004ABB000040BB00003CBB48
:10176000000038BB00009CBA00001ABB0000F0BAB1
:10177000000052BB000052BB000016BB000022BBA1
:1017800000000039000000000000B0390000903A6D
:101790000000283A00009C3A0000603A000050BA6D
:1017A0000000503A00008039000098BA000090B95B
:1017B000000060BA000038BA0000B4BA00001EBBD6
:1017C0000000F0BA0000CCBA0000E0BA000090BA05
:1017D000000038BB0000D4BA000038BA000040BA9C
:1017E000000090B90000D0390000F83A0000223B18
:1017F0000000C43A0000383A000000000000F0B9D0
:10180000000070BA0000E8BA0000B4BA000080BA64
:10181000000050BA0000ACBA000000390000B0B9B6
:10182000000040BA0000D0B9000000BB000090BA30
:10183000000004BB000062BB000062BB00008BBB69
:1018400000006CBB000038BB000026BB000012BBD0
:10185000000080B9000080B8000080B90000F0B935
:101860000000D0390000D4BA00000EBB000004BB59
:101870000000D0B90000283A0000883A0000D43AAD
:101880000000083A0000503A0000403A000028BA30
:1018900000008039000080B9000012BB00001EBBB0
:1018A000000090BA000090BA00000ABB000046BBDE
:1018B000000052BB00004EBB0000E8BA000080B937
:1018C0000000803900000000000070BA000090BAEB
:1018D0000000E0BA0000E8BA00002CBB00001EBB0C
:1018E000000089BB00007CBB000089BB00007CBB02
:1018F0000000A1BB0000C7BB0000D6BB0000ABBB13
:1019000000005EBB0000A3BB00009EBB0000A5BBA7
:101910000000A1BB000090BB00004EBB00001ABB42
:10192000000004BB000088BA000080B9000090BA33
:10193000000000000000183A000070BA0000803873
:10194000000040BA000040BA0000E03A0000383A17
:1019500000000A3B0000263B0000303B00001A3B21
:101960000000F03A0000903A000000B9000050BAC0
:10197000000028BA0000A4BA000081BB000083BBAD
:10198000000089BB00001EBB000083BB000074BBCD
:10199000000034BB00004ABB000022BB000026BB95
:1019A000000068BB0000C3BB0000B4BB0000B2BBBA
:1019B0000000D0BB00009FBB0000BFBB000098BB75
:1019C000000070BB00005ABB000026BB000090B9AD
:1019D000000080B8000000BB00003CBB000064BBFE
:1019E00000005EBB000000BB00001ABB000046BB4D
:1019F000000092BB000080BB00004EBB0000E8BAB4
:101A00000000D0B9000060BA0000183A0000E83ABF
:101A10000000D0B9000008BA000070BA000004BB92
:101A2000000038BA000050BA000004BB00000ABB36
:101A3000000008BB0000ACBA000098BA00000ABB66
:101A400000003CBB00001ABB000022BB00000EBB24
:101A5000000089BB000070BB000081BB000044BBDC
:101A60000000B4BA000000B90000383A00000039A4
:101A70000000903900009CBA0000F8BA000046BB94
:101A8000000056BB0000BCBA0000ACBA0000F8BAB7
:101A90000000003900000A3B0000083B0000F0395C
:101AA00000008039000080BA000000B9000080B852
:101AB000000000000000CCBA000090BA000060BA3C
:101AC000000028BA0000C43A000080380000D03975
:101AD00000009C3A000000B90000F039000090BA04
:101AE000000030BB000026BB000064BB000052BBFE
:101AF0000000ACBA000030BB000070BA0000ACBA05
:101B0000000050BA000018BA0000C4BA0000D8BAE9
:101B1000000040B90000CCBA0000F0BA000052BB8F
:101B2000000040BB000078BB000094BB0000ADBBD0
:101B3000000098BB000078BB000040BA00000ABB60
:101B4000000090B9000070BA000088BA0000D83ACE
:101B50000000803A0000B4BA000050BA000018BA81
:101B60000000E8BA000050BA0000B039000000B927
:101B70000000F0390000D4BA000026BB0000F8BA1B
:101B800000009FBB000004BB000056BB0000CCBAA5
:101B900000000EBB000008BB000012BB00000000EC
:101BA000000026BB00009C3A0000803A0000983AF2
:101BB0000000283A00000000000070BA0000F0B9F0
:101BC000000098BA00009CBA000080B90000F83A02
:101BD0000000E03A0000E03A00009C3A0000B03912
:101BE0000000703A00002C3B000050BA0000D0B951
:101BF0000000CCBA00001ABB000034BB000004BBDC
:101C000000005ABB0000D8BA0000B43A00009CBAE9
:101C10000000603A000000B9000090B90000BC3A32
:101C20000000883A0000D0B9000004BB000080B872
:101C30000000F0BA0000F0BA000090390000B0B91E
:101C4000000000000000623B0000ACBA0000D43A83
:101C50000000E8BA0000D0B90000BCBA0000D0B95A
:101C60000000E0BA0000503A000022BB0000F8BAC1
:101C70000000F8BA0000D4BA00003C3B0000603A13
:101C80000000263B0000383A000008BA0000F0B916
:101C9000000080B90000D8BA00000ABB000004BBF5
:101CA000000070BA000080BA000038BB000080B9A4
:101CB0000000BCBA0000F0B9000088BA0000383A51
:101CC00000000ABB00003CBB0000000000000EBB8F
:101CD00000009CBA000018BA0000A4BA0000223B21
:101CE0000000123B0000B03900000039000040B98C
:101CF000000038BB0000403A000022BB000008BBD7
:101D00000000123B0000703A0000083A000000009A
:101D10000000383A0000C43A0000263B0000CC3AEC
:101D200000000A3B0000083B0000703A0000803AC7
:101D3000000050BA0000D0B90000983A0000AC3A58
:101D40000000AC3A000028BA000056BB00001ABBE5
:101D5000000040BB000030BB000008BA0000B4BA6D
:101D600000000039000022BB000034BB0000ACBA08
:101D7000000000B900009039000090BA00000E3B4E
:101D80000000D0B90000D0390000083A0000B43A91
:101D9000000008BA000098BA00004ABB0000CCBAA4
:101DA000000087BB000060BA000044BB0000E8BA36
:101DB0000000D0B90000383A000060BA0000403995
:101DC000000000000000883A0000803B0000D0398D
:101DD0000000403A00000000000038BA00003CBBA0
:101DE00000009C3A000088BA0000283A000016BBA8
:101DF000000038BB000038BB000028BA0000F0B972
:101E000000000EBB0000F0BA0000B4BA000028BB0E
:101E10000000ABBB000090BB0000F8BA000088BA1D
:101E20000000B4BA000040B90000283B0000B0B97F
:101E30000000B0390000703A0000F0BA00000ABBA0
:101E4000000000000000D8BA00000039000016BBF6
:101E50000000B0B90000B0B90000263B0000D83A3D
:101E600000005E3B0000883A0000283B0000803AFA
:101E7000000028BA00000ABB00000000000000B902
:101E80000000503A000040390000F03900009C3A50
:101E9000000008BA000000B9000040BB000040BAD2
:101EA00000001EBB00000EBB000098BB0000B8BBCA
:101EB00000007CBB000080BB000034BB000081BB85
:101EC000000028BB000028BB000022BB0000CCBAE9
:101ED0000000D4BA0000F8BA000000BB000098BAB5
:101EE000000080BB000050BA00005ABB000038BBA5
:101EF000000068BB0000D4BA00000EBB000050BA5E
:101F0000000064BB000070BA0000803A000090B985
:101F1000000004BB0000B4BA00005EBB000022BB9E
:101F2000000050BA0000F0B90000D039000090BAAB
:101F300000001ABB000038BB00001EBB000040BB05
:101F400000009CBA0000BCBA000000BB0000A4BAAC
:101F500000008039000000000000B4BA0000903991
:101F60000000D8BA0000F03A00009C3A00005A3B4A
:101F70000000983A0000D83A000000000000ACBA17
:101F80000000D4BA00001ABB0000C4BA000008BAAE
:101F9000000000000000D43A0000123B0000803A2C
:101FA0000000AC3A00009C3A000040BA0000403902
:101FB00000003CBB000022BB0000B2BB0000ACBA7A
:101FC000000030BB000070BA000018BA000000002A
:101FD0000000443B0000183A00008038000040BA7E
:101FE0000000D4BA00005EBB00004ABB000062BB28
:101FF000000034BB000034BB0000F8BA000080B819
:102000000000C4BA000000000000E8BA000012BBE3
:10201000000016BB00001EBB00000EBB0000B0B9E4
:10202000000038BB0000C4BA000098BA0000D0B964
:1020300000006CBB000052BB0000D0B90000F0BA39
:1020400000003CBB000090B9000080B80000F0BA6E
:1020500000000ABB000090BA0000ACBA00003CBB14
:102060000000CCBA000038BA000080B8000098BA6E
:1020700000009039000090BA0000ACBA000060BACD
:10208000000040BB0000D8BA0000B4BA00007CBB1E
:10209000000028BB000022BB0000C4BA000040B909
:1020A0000000983A0000AC3A0000A43A000060BA80
:1020B000000080B9000008BB000028BA0000283AE0
:1020C0000000D0390000083A000040390000D83A3A
:1020D0000000F83A0000043B0000743B00005A3B4B
:1020E00000008B3B00002C3B0000283B00004039E7
:1020F000000040BA0000A4BA000030BB0000F8BAEB
:10210000000090B90000F0B90000E83A000040BAC1
:102110000000E03A000080380000B0B90000ACBA1E
:102120000000D8BA000050BA000060BA00006CBBD2
:10213000000080BA0000F0BA0000E0BA000056BB10
:10214000000083BB00000EBB0000C4BA00000ABB45
:10215000000089BB000044BB000080BB00004EBBF8
:10216000000083BB00005ABB000026BB000038BB48
:10217000000056BB000000BB0000C4BA00000EBB4C
:10218000000000000000D0390000443B0000383A55
:102190000000403B000090BA0000D0B90000383A7F
:1021A000000070BA0000B4BA0000F0B90000403975
:1021B0000000903A000080BA00008038000090399A
:1021C0000000F0B90000ACBA0000A4BA000090BA58
:1021D000000000B9000090B9000000000000903A33
:1021E000000000B900009C3A0000D83A0000903985
:1021F000000000B900000EBB000022BB000008BBBD
:102200000000C4BA00009CBA0000883A0000D83A26
:102210000000703A0000CC3A0000ACBA0000283A46
:102220000000603A0000E0BA000004BB000030BBD0
:10223000000083BB000070BA0000BABB000074BB92
:10224000000040BA000090B9000080380000983AC1
:102250000000903A0000123B000080B90000603A94
:10226000000026BB000038BB0000BCBA0000CCBA9E
:102270000000D4BA000000B9000040BA000088BADB
:10228000000098BA00006CBB000070BB000078BB77
:1022900000007CBB00000EBB00000EBB000070BB4A
:1022A00000006CBB0000B0BB000087BB000094BB0B
:1022B000000064BB0000BCBA000050BA0000383A0D
:1022C000000090390000983A000000B90000983AE8
:1022D0000000083A0000E8BA0000ACBA00005EBB9B
:1022E000000000BB0000C4BA0000CCBA000080BAF5
:1022F0000000C4BA000022BB0000803800002CBBE4
:1023000000004ABB000016BB000000BB000040BA42
:10231000000000BB0000903A0000C43A0000CC3A34
:10232000000038BA0000B43A0000223B0000123B23
:102330000000A4BA0000083A000040BB0000D4BA74
:1023400000000ABB0000ACBA0000CCBA000000BB21
:10235000000088BA0000D4BA000080B9000070BA4A
:10236000000022BB000098BA000018BA0000E8BACA
:102370000000D4BA0000D0B90000703A0000C43A9E
:102380000000F0B90000083A0000A43A0000003B49
:1023900000005A3B00001A3B0000E03A0000F0B990
:1023A000000090BA000062BB000044BB00001EBBEE
:1023B0000000BCBA00009CBA0000D83A000080B807
:1023C00000001EBB000028BA000080BA0000ACBAB2
:1023D00000008DBB00005ABB00008BBB00008FBB10
:1023E0000000C5BB000040BB000068BB00005ABB3A
:1023F000000089BB0000EABB000083BB000008BBF3
:102400000000F8BA000040BA0000983A000008BB8B
:1024100000001ABB000070BA000000B9000090B9BB
:10242000000000B90000BC3A0000BCBA00009CBA31
:10243000000008BA0000CCBA00004ABB00005ABB3A
:10244000000056BB000098BA000040BA0000D4BAA1
:10245000000088BA000040390000703A00002C3BB0
:102460000000DB3B0000923B0000563B0000CC3AF2
:10247000000080B8000090BA000098BA00000EBBBF
:102480000000D039000090B90000903A0000F0B987
:102490000000F03900000000000080B8000038BAE9
:1024A000000028BA00000039000012BB00004ABB3F
:1024B000000078BB00005ABB000087BB000056BB81
:1024C00000002CBB000090BA000008BA0000403A9F
:1024D000000000B9000018BA0000F0B9000000398F
:1024E0000000F8BA0000E0BA00009EBB000016BB76
:1024F0000000C4BA0000D8BA000016BB000098BAA9
:10250000000070BB0000D4BA00005EBB00004ABBF4
:10251000000098BA00001EBB0000E8BA0000C4BA70
:102520000000F0BA0000E8BA0000D4BA000008BB0E
:1025300000001EBB000098BA0000183A0000D8BA8C
:10254000000090B90000F0B90000ACBA000028BA51
:10255000000098BA000060BA000060BA000090B9AC
:102560000000B0390000B0390000B4BA00000039F2
:10257000000040BA00008038000098BA0000B4BAE9
:10258000000087BB000046BB000026BB000016BB56
:10259000000080B80000F0B9000000000000F03931
:1025A0000000183A0000B43A00009039000040B929
:1025B0000000A43A0000B0B9000040BA00000000DA
:1025C0000000183A0000383B0000903A0000163B2B
:1025D000000000000000B43A0000703A00001A3B0E
:1025E0000000B0390000703A0000D4BA000028BBE7
:1025F000000022BB000090BA000070BA000008BAC8
:10260000000080380000183A0000683B0000F83AEB
:1026100000000A3B0000E03A00001A3B0000B43A18
:102620000000F03900008038000040BA0000903906
:10263000000040390000283A0000383B0000083A0A
:102640000000D0B9000080380000B0B9000050BAD6
:102650000000C4BA000028BB000052BB000085BBCC
:10266000000096BB000034BB00001EBB000080BB16
:10267000000004BB000060BA000098BA000040B936
:102680000000803A000050BA0000B0B9000080B9E4
:102690000000C4BA0000183A0000000000004039F1
:1026A000000090BA000060BA0000E0BA0000B4BABE
:1026B000000012BB000034BB000028BB000026BB9A
:1026C00000001EBB00003CBB0000F0BA0000883ACE
:1026D0000000703A000080380000A43A0000003B7F
:1026E00000003C3B0000E83A0000043B0000403999
:1026F0000000AC3A0000B0B90000E0BA0000ACBA8B
:102700000000B0390000383A0000903A0000603A0A
:102710000000D43A0000D43A0000D039000090BA4A
:102720000000A4BA000008BB00000EBB000064BBA0
:1027300000003CBB000034BB000026BB0000A4BA74
:1027400000000ABB0000D0B90000603A000050BA97
:102750000000F83A0000B0B9000040390000CCBADF
:102760000000BCBA00000EBB0000B0B90000603A27
:102770000000043B0000383B0000123B0000603AC0
:102780000000C4BA0000B4BA000040BB000000BBA7
:1027900000001EBB000008BB0000F8BA000080B9B2
:1027A000000088BA0000ACBA000090BA000038BB44
:1027B000000098BA000038BA000080B9000000009C
:1027C0000000383A000080B8000040B9000028BA84
:1027D0000000E8BA000060BA000038BA00000ABB86
:1027E000000083BB0000CCBA0000F0BA00002CBB94
:1027F000000080B8000080BA000028BA0000D0B9FC
:10280000000070BA000062BB000000000000C4BA03
:10281000000008BA0000083A0000043B0000043B36
:1028200000009C3A0000B03900004039000088BA2E
:10283000000050BA000098BA0000B4BA0000C4BA50
:102840000000AC3A0000D43A0000CC3A0000303B23
:1028500000005E3B0000903A000080B90000083A9A
:1028600000004039000040B9000038BB000016BB32
:102870000000D4BA00000ABB000016BB000026BB53
:10288000000040BB0000F8BA0000ACBA000050BA2B
:102890000000283A00009CBA000088BA000038BB4B
:1028A000000083BB000038BB0000F8BA00000ABB80
:1028B0000000B4BA0000D0B900008038000038BA77
:1028C000000000B90000E8BA0000D8BA00001ABB46
:1028D0000000C4BA000070BA000038BA000060BA44
:1028E000000026BB00000EBB000098BA0000B0B983
:1028F000000090B90000B0B900009C3A0000983A7E
:102900000000E83A0000403A0000403A000098BA5F
:10291000000088BA00009CBA000090BA000040BADB
:102920000000B039000080B8000012BB0000B4BA4B
:10293000000080B80000383A0000F0B9000090B9FB
:102940000000E0BA00005EBB000022BB00001EBB1E
:10295000000080B90000B43A0000983A00003C3B07
:10296000000080380000E83A0000C43A000000B9D6
:102970000000D0390000D039000080B80000A4BAAF
:1029800000000000000008BA0000E83A0000D0B9DA
:102990000000283A000018BA0000283A00000ABBDC
:1029A00000009CBA000080BA00009039000026BBED
:1029B000000040BB0000E0BA000080BA000088BA06
:1029C000000080390000503A0000703A0000003BDF
:1029D000000000B9000098BA000056BB00008BBB95
:1029E00000009ABB000046BB00002CBB0000E8BA08
:1029F000000050BA000040390000283A0000E0BA58
:102A0000000034BB0000ACBA00001ABB0000A4BA3E
:102A1000000080BA0000E8BA000000BB0000F8BA6D
:102A20000000F0BA00000ABB000078BB000078BBD1
:102A300000003CBB00000EBB000000BB000028BA39
:102A4000000050BA000060BA0000D8BA000044BBD1
:102A500000000EBB00000EBB00001ABB0000C4BA91
:102A6000000098BA0000ACBA000008BB000098BA99
:102A70000000F8BA000000000000E0BA0000BCBA94
:102A800000001ABB000046BB000008BB0000D4BA1F
:102A9000000028BA0000283A0000403A00000E3B2F
:102AA0000000C43A00009C3A0000D83A0000503AB6
:102AB0000000B039000000B9000000390000803982
:102AC0000000603A0000BC3A000050BA0000C43A6E
:102AD0000000083A0000983A0000F0B90000B0B9D0
:102AE0000000D0B900009CBA000034BB000030BB2D
:102AF0000000E8BA0000F8BA000018BA0000B4BA42
:102B0000000098BA000018BA0000F0B900000000F8
:102B1000000040BA0000B4BA000012BB000000BBC5
:102B200000004EBB0000CCBA00004EBB00001ABB38
:102B3000000018BA0000ACBA000090BA00000039DA
:102B40000000C4BA00009CBA000004BB0000BCBA7C
:102B50000000CCBA000080B9000060BA000000BBE1
:102B600000002CBB0000B4BA000080BA000050BACC
:102B700000009C3A000080B8000000B90000B039A5
:102B80000000183A000090B9000088BA0000000068
:102B90000000B0B9000080B90000E0BA000008BA37
:102BA0000000D8BA0000B4BA0000D4BA000050BA8D
:102BB000000088BA0000ACBA000070BA0000D0B9BA
:102BC0000000ACBA000040B90000E03A0000E83A6A
:102BD0000000123B0000523B0000383B0000D83A96
:102BE0000000463B0000283B0000403A000040390E
:102BF000000000390000803A000008BA0000803967
:102C00000000283B0000383B0000283B00001A3B36
:102C10000000223B0000343B0000283A0000B0B91D
:102C20000000B43A0000ACBA0000BCBA00002CBBF3
:102C3000000004BB000083BB000000BB000083BB9E
:102C400000004ABB000040BB0000B0B9000008BA59
:102C500000008039000080BA0000E8BA000089BB9B
:102C6000000044BB000064BB00001ABB00000ABBAC
:102C70000000C4BA0000F0BA000080BA0000E0BA58
:102C8000000008BB000018BA00009CBA0000F0B9B0
:102C90000000C4BA00004ABB00001ABB000090BB91
:102CA000000016BB00009CBA000008BA000000B982
:102CB0000000E83A0000E03A0000383A000090B91D
:102CC00000009039000080380000BCBA0000A4BAAF
:102CD0000000A4BA000038BA000090B9000000005B
:102CE00000000000000040B9000050BA000040B9E8
:102CF0000000F0B9000070BA0000D0B9000088BA36
:102D000000000000000050BA0000603A000040B926
:102D10000000B43A0000123B00001E3B0000163BCE
:102D20000000443B00000A3B0000983A00009C3A37
:102D30000000803A0000283A0000983A0000703AFB
:102D40000000403A0000E83A0000B43A0000803841
:102D50000000D0390000083A00001EBB0000B0B9E6
:102D60000000BCBA0000E8BA000028BA00004039F0
:102D7000000088BA000080B8000040B90000AC3AFA
:102D80000000903A0000BC3A0000E83A0000003928
:102D9000000080B90000D4BA0000ABBB0000ADBB9E
:102DA000000046BB000090B90000D0B9000040BA56
:102DB00000008038000080B90000803900008DBB21
:102DC000000092BB0000AC3A0000A7BB0000D8BADC
:102DD000000030BB000080BB00009EBB0000CBBBEE
:102DE0000000C9BB000088BC000090BA00005EBBB8
:102DF0000000053C000068BB000080380000123B6A
:102E00000000ACBA0000BC3A00006CBB00009CBAE9
:102E100000000ABB000018BA00009CBA000022BBE8
:102E2000000028BB00000EBB000040BA0000D0B973
:102E3000000092BB00009CBA0000A5BB0000703AE5
:102E4000000092BB00008039000085BB0000F03A12
:102E5000000080BA000000B90000603A000094BB96
:102E600000004ABB00009C3B000098BA0000803A7A
:102E700000008FBB000016BB0000A3BB0000343B6A
:102E80000000ABBB00003C3B0000AD3B0000403A03
:102E900000002C3B0000903A0000F0B90000443BD9
:102EA0000000883A0000F0BA0000403B00008BBBF5
:102EB000000089BB000060BA000022BC000046BBD5
:102EC000008001BC0000283B0000AEBB000080B9C0
:102ED0000000003900009CBB000050BA0000EABBB3
:102EE00000001E3B00000EBB000080B80000703ADE
:102EF0000000F0BB0000DB3B0000EABB00007CBB35
:102F00000040A7BC0000503C0000DF3B0000C9BBF4
:102F10000000A43A0000DABB00801BBC0000D039DE
:102F20000000F8BB00C0AEBC008003BC0000F0395C
:102F30000000F83A0000B4BB0000FB3B00805CBC22
:102F400000801E3C000080BB0000BCBA0000F83AC4
:102F50000000A7BB0000E03A00009A3B0000BDBBA8
:102F60000000A5BB00004039000013BC008003BC7A
:102F70000000343B00800BBC0080493C00802ABC30
:102F8000000096BB000090BA000018BC0080683CAE
:102F900000C084BC00004E3B000089BB00008D3B9C
:102FA0000080103C000027BC0000073C008076BC7D
:102FB0000000FF3B000029BC0000803800804E3C30
:102FC0000000CE3B0000C53B00804D3C000029BC0A
:102FD000000074BB0000DD3B00804BBC000035BC32
:102FE000000070BB0040AABC00804E3C008002BCC8
:102FF0000000B43A0000EABB0000813B008095BCB1
:1030000000C0833C00009CBA00001E3B00000A3B4D
:10301000000078BB00C0A0BC008069BC008011BC6F
:1030200000008038008048BC00C0843C000088BCA0
:103030000000563C0000AE3B0000F9BB00801D3C88
:10304000000008BC0000B43A0000733C0000E3BB81
:103050000000C7BB0000DD3B00000EBB0000803A53
:10306000008076BC0000D03B0000E1BB0000A53B27
:10307000000008BC000074BB0000C33B000008BC9B
:103080000000A13B0080113C000022BC0000283B56
:1030900000003CBB0000B43B0000BCBB0000CCBA4D
:1030A000000000BB000090B9008003BC0000D8BB4A
:1030B000000007BC00001A3B00804A3C00006CBBCB
:1030C0000000223B000096BB0000F43B0000C13B27
:1030D0000000E9BB0000F93B00801D3C000005BC7E
:1030E00000408B3C000014BC000026BC0000BD3B2F
:1030F000000072BC0000123B000092BB00001EBB2F
:10310000000070BA000000390000D43B000038BB5A
:103110000000D0B90040923C0000CC3B0000EABB6C
:10312000000081BB00001E3B00807B3C000050BCC7
:1031300000801CBC0000BD3B0000083A00804C3CF5
:10314000000038BC00009E3B00006CBB0000083C47
:1031500000001ABB000034BB000028BA0000A5BB69
:10316000000041BC0000B83B00804BBC00000000E8
:103170000000C43A000060BC0000193C00806BBC39
:1031800000003CBB0000313C00804CBC00803ABCDD
:103190000000F83A00C08BBC0000383B0000A3BB25
:1031A00000C08BBC00801C3C0000E7BB0000CEBB15
:1031B000000022BB0000AEBB0000EC3B0000E5BB02
:1031C0000000F03900801CBC0000083B000008BC77
:1031D0000000AE3B00009FBC0040913C000081BB62
:1031E0000000F4BB0000BDBB0000D83B008090BCD9
:1031F00000008F3C0040D0BC0000AE3C000064BB2F
:1032000000C098BC0000B6BB0000CBBB00803D3CBA
:1032100000C0B8BC0000743C0040E5BC0000473C66
:103220000000733C00005FBC0000E93B00806BBC09
:103230000080013C004083BC00809E3C00C0B6BCC6
:103240000000BA3C000033BC0040CFBC00001D3D74
:103250000080EABC0080303C0000D8BA000032BCDC
:1032600000803C3C00C093BC0000253C00806ABC50
:10327000000000000000183C0040C0BC0000893C79
:103280000000B0BB0000833B00001A3C00809FBCE4
:103290000000863C0000E7BB000028BB0000DBBB51
:1032A0000000523B00000A3B008057BC0000083A77
:1032B00000803BBC0000083A0080023C00009DBC3E
:1032C0000000403B0040B6BC0000363C000031BC72
:1032D0000000833B000017BC000040BA0000813BA7
:1032E0000040FDBC0080123C008039BC00808EBCD8
:1032F0000000703C00C0D6BC00007C3B00006FBCEE
:103300000000803800003C3B000081BB0000283CEE
:1033100000800FBC00000ABC0000B0390000BDBB3B
:10332000000038BA000044BB0000F0BC0000443B81
:1033300000008FBB008021BC0000EA3B004000BDC4
:1033400000004ABB000028BB00001A3C0000D43A31
:1033500000008BBB000035BC0000083C0000923B25
:1033600000C0CCBC00C0AA3C0000E5BB00804BBC48
:10337000000090B9008000BC00009039000070BCD3
:1033800000804C3C00C0BFBC000062BB0000463C5B
:103390000000DF3B00005EBC008010BC00001E3B54
:1033A0000000B4BA0000ADBB0000B63B00803FBCDB
:1033B000008000BC0000C33B000040BB0000CCBA52
:1033C00000804B3C00803CBC00006FBC0000FF3B19
:1033D000000051BC0040C13C0000F9BB00009CBB98
:1033E000000085BB0080793C00800FBD00806C3CF4
:1033F0000000D0B90000383B0000BABB0000803AA2
:103400000000D039000026BC0000833B0080BBBC1C
:10341000000038BA008038BC00C0B6BC0080383C20
:1034200000806CBC0000BC3A00005E3B0000BCBAEF
:1034300000801DBC00006CBB0000D6BB00805A3C65
:103440000000BC3B000041BC00006DBC0080573C4C
:1034500000009CBB00007C3B000035BC0000873BAB
:10346000000081BC0000433C00007CBC0000003B2D
:103470000000F93B000000BB0080303C0000F6BBC0
:1034800000804BBC008086BC0000163C00E010BDF4
:1034900000C0983C00C0B6BC0080763C0000453CB3
:1034A00000008FBB00808DBC008088BC000080BB0A
:1034B0000000263C000034BC0000F0BA000081BBD4
:1034C00000001A3B0000403A0000A4BC0000463C4B
:1034D00000001E3B0000F03900C0A03C00002CBDE5
:1034E0000000D93C000089BC0000463B00804DBC78
:1034F000000009BC000087BC00C0B03C008097BC45
:1035000000004E3B000046BB0000AB3C00004EBB41
:103510000000603C000062BC0000343B0000E1BBE6
:1035200000006C3B000064BC000030BB0080293C04
:103530000000E9BB000080B80000BCBB000080B800
:10354000000036BC0000BD3B0000983A008095BCEE
:103550000000D43A0000A33B0000BFBB008077BC52
:1035600000800DBC008003BC00803BBC000085BB1C
:103570000000BA3B00C0BEBC0000D8BA0040C63C48
:1035800000C083BC0000383B0040A8BC0000163CD3
:103590000000743B000078BB000040B90000963B7F
:1035A000000098BC00C08C3C00801ABC0000173C96
:1035B000000080B800804BBC00008DBB00800BBCBD
:1035C00000802B3C008077BC0080973C0000AC3A28
:1035D00000C0993C000005BC0000B83B0000D2BB15
:1035E000008066BC00806B3C004082BC00008D3CCB
:1035F0000000643B0000E93B0000F63B00803D3CDE
:1036000000C0AABC0080F03C00004ABB0000B63BF2
:103610000000893B0080693C008016BD0000623BD1
:1036200000802FBC000006BC00801E3C000074BC63
:1036300000C089BC0000123B00007E3C008056BCEC
:1036400000806C3C0040A03C00C0AEBC0000383C98
:103650000000A9BB0080303C00C09BBC0000C4BA85
:1036600000C0A0BC000030BB0080743C000018BC4F
:1036700000004ABB00007EBC0000E33B00803BBC76
:103680000000563B000065BC00C0A23C008090BC1E
:103690000000F93C004013BD00A01F3D008002BDAA
:1036A0000080E83C00809DBC00409A3C0000E2BCE9
:1036B0000040853C0000FFBB000040BA000038BA63
:1036C00000009D3C000037BC008065BC0000633CEE
:1036D0000000D0BB00408A3C000023BC00C0833CFB
:1036E000000041BC00C0DD3C00009FBC0000613C0C
:1036F000008059BC00C09ABC0080583C00C089BC06
:10370000000013BC00800F3C00801C3C0000043C07
:103710000000983B000098BA0000CBBB0000E53BDE
:1037200000807A3C0040A3BC00C0B83C0000A1BBB4
:10373000000087BB0000403A00C0A9BC00806CBC00
:103740000000283A0080483C0000DBBC0040DF3C21
:10375000000055BC0000383C0000CC3B0000C73BDB
:1037600000008D3B0000A9BB0000473C0080EABC84
:103770000000CC3C00008BBB0040A03C00C0A9BCBA
:103780000000853B00800FBC000046BB00006FBC02
:1037900000801FBC0000F83B0000E1BB0000C43A01
:1037A0000080B2BC0080573C0000ECBB00809C3C19
:1037B0000000F0BA0000AEBB00000A3C0000F83A7E
:1037C0000000003B0000A43A0000EE3B00008FBC6C
:1037D000000030BB00008D3B000054BC0000F8BB73
:1037E000000074BB0000853B0000E5BB0000B0B9E1
:1037F0000000A7BB0000F8BB00009E3B0000AC3AF5
:10380000000040BB0000D63B008020BC00802A3C6A
:103810000000C3BB0000C33B000062BB0000623B72
:103820000000803A0000E33B0000B0BB000063BC36
:103830000000D43A00800CBC0000F0B900001ABCB3
:1038400000C083BC0000983B000090B9000038BA6B
:10385000000035BC000009BC00801B3C0000183A89
:103860000000BFBB0000A9BB0000833B000027BCD9
:103870000000B0B9000018BC0000A7BB000000B9F0
:103880000000AEBB0000B4BB000074BB0000E5BB91
:103890000000D03900803BBC0000163B000016BC85
:1038A0000000EABB0000D03900008B3B000034BBB5
:1038B0000000FBBB0000893C00801B3C00802F3CCB
:1038C0000000683B0080653C0000DF3B00007F3C5F
:1038D00000802B3C0000513C0000173C00C0FC3C29
:1038E00000009F3C0000CB3C0000BA3C0040E43CA0
:1038F00000C0933C00C0893C0040AF3C0000323C1B
:1039000000806C3C008057BC0000C3BB00A00FBD12
:10391000006004BD00C059BD00E05EBD00A088BDD0
:10392000008087BD004087BD00E0A0BD00004FBD06
:10393000000062BD00802CBD002057BD0000F1BC1E
:103940000040FCBC008069BC0000C53B0000B63BE9
:103950000000293C0080BD3C0080283D0000083D5F
:103960000080373D0060793D00B0913D00009F3DF3
:103970000000B83D00C0ED3D00C0E83D00F09F3DB7
:1039800000C00E3D00006D3D00C05D3D0000E23C0A
:103990000080B4BC00A008BD00404BBD00A058BDD5
:1039A000004085BD00C0BFBD0070D6BD00F09FBD0A
:1039B000000047BD000073BD0000A1BD00207EBD1A
:1039C00000C00EBD0080D1BC00C09BBC006017BD14
:1039D00000A023BD00A004BD0080D9BC004070BD84
:1039E00000F089BD00C07EBD00A050BD008037BD85
:1039F00000E01ABD00C0C8BC0000983A00E00C3DD1
:103A000000E0633D0010863D00E0AF3D0090F23DD8
:103A100000E8133E0090293E00282A3E0030143E64
:103A200000A09D3D00309C3D0050A23D0000133D94
:103A30000040ECBC00C046BD00C07ABD00A0B9BDCE
:103A40000090AFBD0010F1BD00B804BE0080E1BD24
:103A500000A04CBD00C04DBD00804DBD00E014BDB8
:103A6000008085BC0000343B0080D13C0040B13C6C
:103A7000008066BC008003BC0000CCBB0080E2BCC0
:103A800000A094BD00709ABD0020A5BD00809DBD22
:103A900000809BBD00008BBD00A088BD0000CBBC9A
:103AA0000080AC3C00801D3D00404B3D00C0AC3D63
:103AB00000D0EE3D0048163E00702E3E0048473EC6
:103AC00000F82D3E00C0C83D0060903D00A0C63DFE
:103AD0000080773D0000A1BB00A083BD009084BDA5
:103AE00000D0A0BD0030B9BD0070E0BD00A009BE8F
:103AF00000E0F9BD009093BD00009DBC00E009BD51
:103B0000002018BD00005EBC0040A23C00000F3D3C
:103B100000A0263D0000293C008086BC0000BFBB01
:103B20000000F4BB006063BD0070B5BD00E0AEBD39
:103B300000E09BBD00A0A1BD0010A6BD00308DBD62
:103B400000201FBD00802F3C0040523D00C07E3D44
:103B50000060AE3D00D0063E00503D3E00B0563EF7
:103B600000E84B3E00B8303E0040B63D00E0A63DC8
:103B700000E0C23D0000463D006063BD00C0CABD1C
:103B80000010A8BD0010D3BD0060ECBD00F81CBE45
:103B900000482ABE00E008BE00A02ABD0080B5BCD7
:103BA00000E013BD00004FBD00008F3C0040653DAC
:103BB0000010863D0040F23C0000BA3B0000403956
:103BC0000000A13B0000A5BC00F0B0BD0030E4BD8A
:103BD0000020C5BD00509ABD00C0B3BD0030B9BDC6
:103BE000008081BD0000CEBB0040473D00608A3DA3
:103BF0000080BD3D00A8103E00085B3E0010803EE6
:103C000000606B3E00B82F3E0070DE3D0050DA3D94
:103C10000020C93D00C0ED3C00409DBD00C0E4BD9A
:103C200000A0E8BD005005BE00281ABE002836BE20
:103C300000E840BE00C806BE00004ABD0080B3BC1C
:103C40000080FEBC00C090BC00401A3D0010993DB1
:103C500000609F3D00604C3D0000733C0000FB3B5A
:103C6000000038BB00C020BD00A0D7BD00D800BEFA
:103C700000D0E7BD0080B7BD0020BFBD0080A6BD5D
:103C800000604CBD0000343C00006C3D00E0C03DD5
:103C90000098053E00283B3E00F8803E0014893E17
:103CA0000038633E00F0E73D00A0C83D00C0FE3D87
:103CB0000090913D00A054BD0060ECBD0060EEBDE1
:103CC00000A00ABE00901EBE00D83EBE00D047BE77
:103CD000003031BE00609DBD00C0DBBC0040F4BCC4
:103CE00000000ABD0080C43C00F09E3D00C0AA3D1B
:103CF0000070883D00A01C3D0080693C000078BB3E
:103D0000000034BC0060A7BD002008BE006807BEEC
:103D10000070D8BD0010D5BD0020D4BD00208BBDE3
:103D20000040AABC00C0293D00F0A93D0000F23DC2
:103D300000E0263E0048713E00988E3E00F07D3E39
:103D400000B8043E00B0A23D0088073E00B0C53D6B
:103D500000803EBC007003BE002004BE00E0F5BD44
:103D600000380CBE00D02ABE00304CBE00402EBE33
:103D70000030C4BD0000D83A0000E5BB0080BDBCE7
:103D80000000B83B0010B53D0090C53D0060923D7D
:103D900000600D3D0000703B00009FBB0080A4BC94
:103DA00000009EBD00A810BE003016BE0000FBBD86
:103DB0000060C1BD00D0C7BD009091BD00009FBC98
:103DC0000000613D0020CA3D0098063E00D83D3EFF
:103DD0000034823E003C8D3E0058623E00F0D03DF3
:103DE0000090C23D0060F73D00A0783D00B08DBD61
:103DF00000480DBE0000FFBD008812BE00C016BE08
:103E0000005839BE005843BE00781ABE000031BDCC
:103E10000080003C0000C4BA0000EEBB00006D3D15
:103E200000E0D33D0070BE3D0000433D0040FD3C3E
:103E30000000CC3A0080D2BC000044BD0080DFBD51
:103E400000181ABE00D81EBE0040F4BD0070E9BDC7
:103E50000050CFBD004042BD0080863C0080A13DA7
:103E60000060EC3D00182C3E00606E3E0048933E22
:103E70000094893E00D83F3E0050CD3D0040DB3DE0
:103E800000E0B73D00006D3C00E0E0BD008824BECE
:103E9000009010BE001027BE00C029BE001849BE09
:103EA000009037BE00D0F6BD008012BC0080BB3C45
:103EB00000C08B3C0080F63C00C0BB3D0030F53DAF
:103EC00000B0C73D00C02B3D00C0A93C0000BDBBF9
:103ED00000201FBD0000BCBD00900FBE00182DBE0D
:103EE00000282ABE00B00ABE00A0F1BD0080AABD15
:103EF00000C0D5BC00004A3D0090D63D0078143E7D
:103F000000984D3E00D08F3E0040983E00B4813E68
:103F10000020F03D0070C23D00A0DB3D00E0543DBC
:103F200000F089BD00A81FBE003026BE00A834BE28
:103F3000009825BE00183EBE001846BE009822BE5E
:103F400000E05BBD0040C73C00401D3D0040E63C3A
:103F500000008D3D00E0EB3D0060EE3D0070953DC2
:103F60000000AC3C000080BB00A00DBD007082BD15
:103F7000009001BE00382CBE004030BE00401FBE85
:103F8000007805BE0030D8BD000055BD0080903CD3
:103F900000A0C63D00B00F3E00B8333E0040783E62
:103FA00000209B3E00B4963E0000463E00D0BA3D45
:103FB0000050AD3D0090863D0000FFBB00D803BE21
:103FC00000E039BE00C832BE00B03CBE00F82CBED6
:103FD00000E82EBE007828BE00F0E9BD0000D83A07
:103FE0000020893D00D08D3D00A0833D0040E53D8F
:103FF0000040033E0040EC3D00E0653D00801E3C7B
:1040000000C0FBBC000094BD00F0E5BD00E027BE91
:1040100000303FBE004041BE006020BE0060FDBDDC
:104020000010A2BD008057BC00A0833D00F00A3EF6
:1040300000A8353E00806C3E00D0993E0030A13E85
:1040400000CC843E0060E13D0050A43D0040A53D11
:104050000080683C0090E7BD007843BE00F83ABE9F
:1040600000904CBE00703BBE00A844BE00082CBEB1
:1040700000E802BE00C0B6BC00A05A3D00D0B83D6A
:104080000050AF3D00F0F03D00C01D3E0078153EF1
:1040900000D0BC3D0000AB3C0080DABC002092BDEB
:1040A0000030CBBD004030BE001053BE002859BECA
:1040B00000503BBE007823BE0010E4BD00E065BDAB
:1040C0000080B43C0080E23D00C82D3E0058573EC1
:1040D00000348E3E004CA53E00F09F3E00702A3E0C
:1040E0000030AF3D0050A63D00C0243D00508BBDC8
:1040F00000F83FBE006855BE004853BE00D051BE18
:10410000008851BE00903ABE00F016BE004090BD3F
:104110000060273D0030CD3D00F0E33D0020FB3D39
:1041200000802F3E00282A3E0098063E00C07B3DBE
:1041300000806A3C0000F9BC0000ABBD002016BE48
:1041400000B84BBE001054BE002052BE005837BE0F
:1041500000D811BE00E0A4BD0000B8BB00E0AC3D3B
:1041600000781A3E0030423E00307D3E001CA63EE4
:1041700000C4AB3E00AC873E0090C73D00D0893DF7
:1041800000A08C3D0000F0B900081FBE00786EBE94
:10419000004861BE00D063BE005051BE001859BE39
:1041A00000403CBE007003BE0000BC3A0020A53DAC
:1041B0000090FA3D00B0DF3D00E81C3E00E8393ECB
:1041C00000383A3E00E0D13D0000B63C0000ADBCF6
:1041D000002085BD00E0D9BD00D840BE00D060BE43
:1041E00000A067BE00303FBE00A825BE00F0ECBDB9
:1041F00000E047BD00A0133D00A8023E0088343E09
:1042000000F85C3E0004923E0008AE3E0090A53EE1
:104210000030313E00F0923D00C0813D0080EA3C1C
:1042200000808ABD00E857BE00A075BE005866BE7B
:10423000003060BE001856BE008843BE00281EBE77
:104240000050A6BD00C03E3D0070F13D0070F83D3D
:104250000038003E00B82E3E00E83B3E00A8203E5D
:1042600000308F3D00802EBC007086BD0020C1BD97
:10427000006011BE00204FBE002866BE00C061BEB7
:1042800000C830BE00A803BE003093BD000040BC93
:104290000010953D00D0273E00D85C3E00D0813E06
:1042A00000809F3E0090AD3E00E4953E00A0D33DCF
:1042B00000E0543D0040563D00800DBC00E812BEB9
:1042C000007871BE00786DBE006872BE00B852BE44
:1042D00000C04ABE006827BE0050FEBD0000A4BC5E
:1042E00000F0AE3D00500F3E00C8033E0010193EE6
:1042F0000068363E0058393E0060F93D0080FE3CC3
:10430000008034BD0050C6BD00F0F8BD00983EBE30
:10431000001866BE003871BE00C053BE00E82BBE58
:1043200000D0DABD00A032BD0000D13C0040EE3D1F
:104330000098443E00F8683E00AC893E0044A63E2A
:104340000088AA3E0050843E00909A3D0080C43C04
:1043500000006F3C006035BD004839BE001884BEC7
:10436000004C80BE00F87BBE00D049BE00C038BE05
:10437000002018BE0000CBBD0080C23C0030F53DDF
:1043800000182E3E0028193E00F0283E00E0393E7D
:1043900000C03B3E0060E43D00C0903C006089BD31
:1043A00000A0FEBD00B813BE00C052BE00B870BE73
:1043B000007076BE00604DBE00081CBE00B0B1BDEE
:1043C0000000C9BC0060233D00700D3E0018583E3F
:1043D00000A8793E00308C3E00E8A53E00B8A93E1A
:1043E00000D0703E0040643D000008BA008056BC1A
:1043F00000308ABD00A851BE005089BE00D486BEE0
:1044000000D880BE007841BE007823BE00A001BE67
:104410000010AFBD00A03A3D0098163E0048443E53
:104420000010253E00C8303E00F0443E00583A3EA1
:104430000030E93D00C0A93C00D0B6BD00C824BE94
:1044400000602FBE009056BE00D876BE005084BEDD
:1044500000B059BE00A816BE00508ABD00001ABCAC
:1044600000802D3D0090023E00B85E3E009C873EDD
:104470000088973E0008A63E0030A43E00087B3E20
:104480000060713D000044BC0000AEBC00E0AFBD68
:10449000001053BE008C8ABE00A886BE001087BEE6
:1044A000008049BE00C822BE00A0E4BD00608ABDF5
:1044B00000003B3D00801F3E0020503E00E83F3E94
:1044C00000603A3E00504B3E00703F3E00E0EB3D46
:1044D00000C0CD3C0050A0BD00B02CBE00703EBE60
:1044E000002060BE004873BE007887BE00E85EBE54
:1044F000003017BE00D089BD0000CBBB00E01A3DE4
:1045000000F0D03D0038463E0098853E00488C3E85
:104510000034953E00409A3E00A0943E00480D3E77
:10452000000052BB00E072BD0070A7BD004807BE8E
:1045300000907ABE003885BE00108DBE00206CBE93
:10454000007827BE00B0C1BD009084BD008080BC53
:104550000070D63D0038443E0098623E00A8403EC0
:104560000098363E00A81F3E0050133E0090963D36
:10457000008057BC00F004BE00E05FBE009870BE33
:10458000003867BE00A06ABE00507BBE009047BEE8
:104590000020E5BD0080C2BC0040EE3C0080853DAF
:1045A00000C0FC3D0008563E00A08B3E00E0903E5F
:1045B000000C933E005C943E0070863E00F0AD3DE2
:1045C00000804DBD008099BD00B0B1BD00081ABE8D
:1045D00000D485BE00C08ABE005084BE009851BE83
:1045E000002012BE004092BD00C02CBD00807A3C6D
:1045F00000F0063E0088613E0050693E0048383EAB
:1046000000D8203E00C01B3E0040143E00C0843D48
:1046100000C01ABD003013BE00B056BE00586FBEB9
:10462000004865BE00F05FBE00D867BE00E033BE44
:1046300000B0B6BD00006DBC0080A33C0060793DB9
:104640000080EE3D0058383E00F0743E0048813E48
:104650000018853E0010803E00887E3E0068283E9F
:104660000000F9BC0070CFBD0050BABD00B0D4BD91
:10467000006852BE00787FBE00D071BE00085CBEEC
:1046800000D009BE00607DBD000096BC0000133C58
:1046900000D0B83D00183B3E00506E3E00303D3E1D
:1046A00000081B3E0040003E0080F33D00F0873DC7
:1046B0000000B0B900D0B6BD002036BE00706ABEA2
:1046C000002C82BE009058BE00084EBE00F033BEE3
:1046D00000F019BE00B09CBD008002BC00A0623D8D
:1046E0000070C73D00F0D63D00A01F3E0098623E1E
:1046F0000040843E00F8763E0050693E00B85F3EC0
:104700000030C43D00C046BD00F0BDBD00B09EBD40
:1047100000D0E9BD009055BE00C061BE00284BBE70
:10472000008832BE0020DFBD0080CBBC00009C3B77
:104730000040FC3C0050CD3D00B83C3E0048553E9A
:1047400000B02B3E0080003E0000C53D0090A93D1A
:1047500000E0313D000038BA0050DCBD006847BEC3
:10476000000877BE00F858BE00D83DBE00903CBEA1
:1047700000C034BE002008BE006041BD0000AE3C59
:1047800000E0743D0080883D00A0B73D00B0093EC8
:1047900000E84A3E0048633E00285B3E00085D3E5C
:1047A00000205F3E00A0FE3D006049BD00D0C3BDBB
:1047B00000A05FBD007095BD004022BE00F84DBE58
:1047C000003839BE000026BE0060AEBD0080BCBC13
:1047D000000087BB0000D0B900309C3D00502E3E49
:1047E0000030413E00480C3E00B0CD3D0050B73D8A
:1047F00000E09D3D0040213D00003C3B00308DBD70
:1048000000581ABE009047BE00985DBE00604CBEC6
:1048100000E039BE002819BE00F802BE0050B8BD45
:1048200000C099BC0020183D0030933D00805D3DE4
:1048300000108F3D00C0F13D00A83D3E00D0563E27
:1048400000E0503E00A8503E00F8393E00E03D3DFB
:1048500000004EBD004028BD00800BBD0070A6BD0D
:10486000009028BE00A010BE00E820BE009806BE42
:104870000000ABBD0000FDBB0000DF3B0080B23C90
:104880000080B93D00D8133E0070213E00C0F33DCA
:1048900000F0BC3D00C0883D00805D3D0020113D22
:1048A00000001ABB0040B0BD00801EBE009841BE93
:1048B000008843BE00303FBE008832BE00281EBEC6
:1048C00000A802BE00B098BD0040D6BC0080673C86
:1048D00000C0E53C00C0493D00F0853D00E0C43D1E
:1048E0000098163E00804C3E0090663E00E0733E0D
:1048F00000B0623E00C0953D0040B1BC00C0B8BCF5
:1049000000800C3C00C04EBD004016BE006829BEB1
:1049100000F82EBE007809BE0040C3BD000008BDEF
:104920000080CCBC000000B90080693D00E0F33D90
:1049300000780A3E00D0EE3D00F0C93D00C0973D32
:1049400000F0873D00E0353D00808D3C008047BD94
:104950000010FEBD00883FBE004050BE00E041BEDA
:10496000002033BE00182CBE00282ABE0080E8BDFF
:1049700000E031BD00804C3C0000F03C0000043DF4
:104980000000303D00E0A43D0068163E00B84C3EFB
:1049900000C86B3E00F8663E00D0743E00705A3E80
:1049A0000080423D00201BBD008019BD0080CABCB4
:1049B0000070D4BD003827BE00182CBE00303DBEAC
:1049C00000601CBE00A0BFBD004085BC0000C3BB92
:1049D00000805B3C0010843D00C00B3E0068173E29
:1049E00000800B3E00E0F33D0020D03D0080783D8C
:1049F00000401D3D0000803900E084BD00F018BE7D
:104A000000C059BE00405ABE009861BE005855BE55
:104A1000009037BE009805BE0040B4BD004004BD04
:104A200000C0C63C0080603D0020A13D00F0BF3DBD
:104A30000070033E0000233E00F84B3E0010643E31
:104A40000048733E00786F3E0038443E00409B3C77
:104A500000E099BD00E090BD005084BD00D0DDBDF8
:104A6000003030BE002031BE005844BE003014BEBD
:104A70000090A4BD00000A3B00007E3C00C0123D37
:104A80000070B63D00481A3E00182A3E00701C3ED9
:104A90000010FE3D00709E3D0040FC3C000006BC46
:104AA000004024BD0000BCBD004023BE00A860BE85
:104AB00000506DBE002062BE001040BE009808BECF
:104AC00000B0BEBD00E05ABD0000EABB00E06D3D95
:104AD0000040C33D00E0CF3D00C0CF3D00B0D83D19
:104AE00000E0F13D0008013E00A01C3E00B0293E60
:104AF00000482B3E00381E3E0040C33D00E04CBD48
:104B000000C0D9BD002094BD00C028BD00C0B1BD0B
:104B100000F0FBBD00D0F0BD0060F7BD00108EBD01
:104B200000809EBC00C0243D00E0363D00C0513DE9
:104B300000A0973D00F0CE3D0090C23D0000983DA2
:104B400000A0443D0080113C004007BD002051BD45
:104B5000002053BD0040A1BD0060ECBD00F81FBEA9
:104B600000680ABE004003BE0020C9BD00308FBDF2
:104B700000E008BD00803CBC0080B43C0060543DB7
:104B800000805D3D0000433D0040193D00A0143D04
:104B900000A00D3D0000353D0040963D0040F43D35
:104BA00000A8113E00301F3E0000293E0040903D0D
:104BB00000807ABC00C0E6BC000018BA0000C3BB8D
:104BC00000908BBD0070A2BD0020F4BD00000BBEA4
:104BD000000801BE00C06BBD0000F2BC006032BD29
:104BE0000080A5BC00C09A3C00803F3D00607C3D39
:104BF00000A0B23D0060B23D0000683D00C0193D1C
:104C00000080433D0040F23C0000E03A004059BDC6
:104C100000B0A2BD001800BE002012BE009001BE70
:104C200000C0D5BD00D0C1BD0090A5BD002042BDD3
:104C30000040C6BC000080BB0000E73B0080F73CA2
:104C40000080163D00A0783D0010C43D00C00B3E22
:104C500000082F3E00983E3E00F8493E0010503EAE
:104C600000F0D63D00806CBC006081BD00A076BD28
:104C700000B087BD00F0F9BD00A816BE00083CBE1C
:104C800000784FBE00602BBE00D09ABD008065BC8E
:104C90000000E8BA0000003D00F0B23D00480D3EC3
:104CA00000B8213E0048383E00F0293E00E8003EB2
:104CB00000408C3D0020413D0000503A00E026BD00
:104CC0000000DBBD00C823BE00B048BE00C055BE1A
:104CD00000403DBE00C81DBE0010D3BD004083BDD6
:104CE00000C0BEBC0000E53B0000473D00F0A73D12
:104CF0000050CF3D0030C03D0060A33D0030A83DD6
:104D00000060923D00E0863D00B0A93D0010B73D37
:104D10000060B73D0070B33D0000713C00909CBD49
:104D20000010C6BD00E07CBD000022BD00108CBD9F
:104D300000208BBD0010A4BD00A0B5BD00C090BD7B
:104D40000000DBBB0080473D00608C3D0010B33DA0
:104D50000090BA3D0050C03D0090BE3D0090E53D42
:104D600000C0AE3D0020203D00800BBC0040EEBCEA
:104D700000001DBD004061BD0060A3BD00B0D6BDF8
:104D80000070EBBD0090E3BD00E0C6BD00B0A7BD64
:104D9000000069BD00A004BD00807ABC000089BB92
:104DA0000080003C0000963B0000403B008074BC4B
:104DB0000040DFBC004012BD0000BBBC000022BBB5
:104DC0000000123D00508F3D00E0DE3D0040123EED
:104DD0000010463E00F0163E00C0593D00C09A3C0F
:104DE00000C0993C0080E93C00C0E6BC00C02BBD7F
:104DF0000020C5BD009814BE00C019BE0020ACBD87
:104E000000C0AFBC000004BB0040CF3C00206E3DA2
:104E100000E0C43D00F0D83D0050113E0040163E79
:104E20000030033E00F0903D00602E3D0000F03B5E
:104E30000040DEBC00709ABD00B0FABD00C028BEC4
:104E400000A851BE00D053BE009048BE00502CBEFA
:104E500000A812BE0070C7BD00406DBD00805DBCE3
:104E600000809C3C0040593D00008B3D0020B23D3D
:104E700000C0AA3D0000A13D0050863D0080853D58
:104E800000C09B3D0070B53D0040E63D00B0F63DE2
:104E90000088153E00F0903D0080F7BC00409ABDB0
:104EA00000E081BD00C0F5BC004006BD000029BC8B
:104EB00000A014BD00E08EBD00E082BD0000AE3B4E
:104EC0000050913D0040B83D0090BE3D0090A23D95
:104ED0000020393D0080A33C00A0223D0000433D5E
:104EE0000000503C002041BD00209FBD0020D8BDE7
:104EF0000030F1BD0070E9BD00A0DBBD0050F8BD81
:104F000000D00CBE00B0DFBD00F0A1BD00E04BBD85
:104F1000000070BC00C0B03C0000083D0000BA3C7E
:104F20000040823C00804C3C0000A13B000030BBB4
:104F30000000BDBB0000F6BB0080A6BC008095BC95
:104F40000000B63B0060113D0070C03D0098163E69
:104F500000B0583E00C8773E0078513E00B0DA3DC0
:104F600000004A3D00000B3D00C0813C002005BD13
:104F7000002094BD0000FDBD00284ABE000856BEBA
:104F800000202FBE00A0F1BD0090A7BD00401DBDB8
:104F90000000BF3B0040B63C00402C3D0000C13D3E
:104FA0000038083E0050143E00A0F73D00C0BD3D53
:104FB0000080073D000052BC00A02BBD003084BD26
:104FC00000C0EABD00B02DBE009841BE00504DBEED
:104FD00000203FBE004012BE001093BD0080E2BC26
:104FE0000000EC3B00801D3D0070A03D00E0C03D96
:104FF0000050FE3D0040143E0010173E00D0E93D39
:1050000000009E3D0080683D0000DA3C0000273C27
:1050100000806A3C0000E93C0080CC3C0080E93C18
:1050200000E0383D000086BC00A099BD0070A6BD20
:1050300000207EBD006027BD00001EBD000090B9AD
:1050400000803DBC006020BD00C0CDBC00800B3D99
:105050000000873D00C0863D0080963D00E0743D25
:105060000040C53C000050BA0080293C0000C13B14
:1050700000408ABC00C0E3BC00400ABD005080BDB7
:1050800000A0AABD007097BD00A01CBD00401DBDC2
:10509000006027BD0000EFBC008090BC000012BB88
:1050A00000409A3C00C0383D00202F3D0000DB3C12
:1050B00000801C3C000029BC00802DBD00E044BDE8
:1050C00000A045BD00A044BD00309BBD0030B7BD71
:1050D00000D0ABBD00D085BD000098BC00C0983C9E
:1050E00000B09C3D0030E93D00702C3E0000553E74
:1050F0000058463E0080E23D00A0503D00C02F3DDC
:105100000040E63C00800EBC00A027BD00008FBD23
:105110000000FDBD00E015BE0020FBBD00F08BBD12
:105120000040ECBC00809E3C0040463D00908B3D22
:1051300000C0813D00C0C63D0050F63D0070F83D06
:105140000070D13D0050AB3D00201B3D0080DFBC16
:1051500000A088BD0060BBBD00F0D2BD004003BE12
:1051600000D805BE00A812BE002016BE00C0F3BDC8
:10517000000087BD0040B0BC000000B900006D3CDD
:105180000040A23C00006E3C0080113C00009E3BB1
:105190000000CB3B0000B63B000074BB008069BC44
:1051A00000A022BD008037BD0000E2BC0000E33B50
:1051B0000000303D0020A53D00F0E33D00D0153E4D
:1051C00000C0383E00184D3E0088173E00B0C13D7B
:1051D00000A0833D00E0003D00000EBB008097BCB6
:1051E0000040DCBC00E07DBD0000E1BD007805BEF4
:1051F0000040EEBD00F0B6BD006039BD0000ABBBA5
:1052000000C0993C00803A3C00E0003D00E0573D82
:1052100000A0833D00C0953D00A0953D0060753D18
:105220000000413C00C020BD004096BD0070C7BDDD
:105230000020E1BD0090EDBD0050EFBD007808BE3C
:1052400000D80EBE0000E9BD00F085BD0040DFBC07
:105250000000F93B0000F93C0040343D00A00C3D4B
:105260000080FD3C00202B3D00602B3D00404B3D6D
:1052700000C0ED3C0000153C0080BABC00C00DBD74
:10528000006005BD000073BC00009E3B0000193D9E
:105290000040963D0080C83D0008033E00C8123E15
:1052A0000078263E0070EF3D00409F3D0080293D84
:1052B0000000BF3B0080FFBC006018BD006026BD41
:1052C00000E0AABD006002BE00700FBE0050E2BD4B
:1052D00000D0A0BD00C0EDBC00C0EA3C00806F3D26
:1052E0000020333D0000263D00E0533D00E0823DBC
:1052F0000010863D0080853D00C0F93C0000AEBC3A
:1053000000407CBD00D0A7BD0040B8BD0070DABD34
:1053100000D0D0BD00F0C5BD00C0AEBD00E0B3BD43
:1053200000509ABD00805ABD00009CBC00C0903C5B
:1053300000A0353D0040433D0000E23C00409A3C67
:1053400000802A3C0040C03C0000833B000081BC40
:10535000008015BD00E065BD00A071BD000070BDFE
:1053600000C0DEBC000052BB00A0133D0070883DB1
:105370000060D73D00F0053E00D0193E00C03A3E27
:1053800000D0473E00D81E3E00A0B53D0000283D9D
:1053900000009C3A002024BD00807BBD009082BDAF
:1053A0000040B6BD00B00EBE00381DBE006004BE99
:1053B00000C0C8BD000038BD00801E3C00E03C3D80
:1053C00000605B3D0020713D0090873D00A0673D7F
:1053D00000C0373D00001E3D0000D93C000052BB1C
:1053E00000404EBD00B0B1BD00F0DDBD00B0D0BD8D
:1053F0000070AFBD00009FBD0040AABD00A0B7BDBA
:10540000001095BD00A031BD0000B0B90080123D74
:1054100000B0823D0080733D00C0193D00808D3C8E
:105420000000C13B0000743B00000ABB00000EBB43
:105430000040D5BC008051BD002079BD00A063BDF7
:10544000000017BD00005FBC00C0D63C00005A3D04
:105450000020A33D0070C43D0010E93D00E8103E6F
:1054600000C82D3E00203E3E0020273E00E0BB3D10
:105470000040E33C008030BC00602ABD006094BD69
:105480000090B1BD00C0CCBD0060F9BD009814BE55
:1054900000A817BE009000BE0090B8BD00C002BDBD
:1054A0000000563C00A04C3D00E0543D0000713D22
:1054B00000C0673D0020713D00508B3D00D09C3DF9
:1054C0000040903D0040193D000098BA00C03ABD30
:1054D00000B093BD00E0A4BD00F09ABD00B09CBD3B
:1054E00000A0A1BD00F09FBD0090A5BD00409ABDE9
:1054F00000E063BD0000ABBC00801C3C0000BC3C75
:105500000040DC3C00C0E33C00C0B63C0080FD3CF9
:1055100000C0463D00807A3D0060483D0040B13CFF
:105520000000D4BB008069BC004094BC00803ABC41
:10553000000028BB0000373C00C0B93C00000B3D18
:1055400000A04F3D00E08C3D00D0B83D0070DA3D3A
:105550000070F63D0000BD3D00004F3D00007C3C6A
:1055600000C0AFBC00C02BBD00A02BBD0000E9BC3B
:1055700000E01ABD006092BD00A0BFBD00D0C1BD5B
:1055800000F0A3BD00005ABD00007DBC0000E93B57
:105590000000873C0000523C0000AB3C0080103C07
:1055A0000000383C0080D03C00403F3D00A0443D1E
:1055B0000080E73C0000853B008086BC002001BDE8
:1055C0000000D3BC000071BC00008EBC008000BD98
:1055D00000600CBD00C00DBD00C021BD002014BD89
:1055E000000089BC000040390000703A00000BBC8C
:1055F000008088BC0000E0BC00000ABD008066BCE2
:105600000000ACBA0000873B008000BC004085BCB5
:1056100000C0ECBC0040C6BC008002BC00C08B3C9B
:105620000020023D0060183D00202E3D00005A3D44
:1056300000A0903D00D0A73D0080CC3D0090E03D13
:105640000080D53D00C0743D0000863C0080C3BC96
:10565000000056BD00308DBD00407EBD00A039BDAC
:1056600000404EBD00E063BD00606BBD00A02DBDDD
:105670000080EFBC0000E03A00E0183D0050863D9D
:1056800000F08F3D0020663D00803C3D0000D13C95
:105690000040A33C0080C43C00C0DE3C00008F3CC6
:1056A00000006FBC00C002BD00404ABD004069BDA3
:1056B00000C07EBD00205FBD00C065BD00605CBD58
:1056C00000801DBD00C00EBD006008BD00200CBDE7
:1056D00000C0BFBC000056BC00006FBC008074BCA2
:1056E0000080ABBC00C0E4BC0080F1BC0040B6BC94
:1056F00000809EBC0040B0BC0000BABC0000ACBC46
:1057000000804ABC008010BC0000563C0000E33C16
:105710000040293D00406F3D00909E3D0040B63D59
:105720000060B73D00E0D73D0060E43D0090EB3DF8
:105730000000DF3D0080AE3D0080523D0000E73BB1
:105740000040C1BC00804EBD00207EBD00A069BDF0
:1057500000B080BD00D091BD00D0B0BD0020BABD6A
:1057600000A0B3BD00207EBD0000D9BC0000133CEA
:105770000020053D00C0F93C0000EF3C00804B3CA0
:1057800000802D3C00806A3C0000F73C00C0123DC8
:105790000080A33C00002CBB000003BD00C049BD3D
:1057A00000605CBD008059BD00804ABD00C059BD8D
:1057B000006041BD00E036BD00E026BD002032BDE6
:1057C00000000EBD0040B9BC00806BBC000018BCDE
:1057D0000000D8BA0000463B0000B83B0000D63BB2
:1057E0000000503C0040D03C0000B53C00C0933C61
:1057F0000000DB3B0000433C0000143C00808D3C7B
:105800000000C23C00A0083D00200D3D0060173D97
:105810000060403D00E0783D0020943D00A0AA3D9E
:105820000060B93D00A0B33D00F0943D0020243D50
:105830000000163C0080E0BC00206EBD00209DBD35
:10584000009095BD00E091BD00809BBD0070AFBD94
:1058500000B0A0BD002092BD008042BD0080CBBC46
:105860000000E53B0000D33C0060183D00A0323D45
:1058700000404A3D0060413D00A0323D0040403DB7
:105880000040403D00A0003D0000F83B00802ABCE5
:105890000000E9BC00C04EBD00C090BD00E0A2BD4C
:1058A00000D0A7BD00C099BD00807FBD004055BDA0
:1058B000002026BD000025BD0080FDBC0000AEBC60
:1058C0000000813B0040D53C0040563D0010803D2B
:1058D0000080473D0000EA3C0000DD3B0000A53BA6
:1058E000008057BC0080C9BC0000F0BC00800FBD28
:1058F00000A036BD00E041BD0080FEBC008078BC49
:105900000000AE3B00C0E53C0040593D00E09B3D3F
:105910000000BD3D0030E23D0080F93D0060FF3DEC
:105920000030DA3D00C0AE3D0040473D0000423C43
:10593000002008BD00807EBD00E0A6BD0050A2BDD5
:10594000006098BD004089BD00A08ABD006083BD95
:1059500000606BBD00A009BD0000A73B00603A3DA0
:1059600000C09D3D0060B23D0050A43D0000773D69
:1059700000C0463D00C0193D0000043D0000F43B5E
:105980000080D8BC000089BD0090D6BD00A804BE30
:1059900000C016BE00C00DBE0030E7BD00D0A5BDE2
:1059A00000405ABD0000E1BC00803CBC000028BBA8
:1059B00000802E3C00C0ED3C0080303D00C0603DCA
:1059C0000020723D00A0403D0080F13C0000643B9F
:1059D00000808EBC0000F7BC00A01FBD00C024BD2D
:1059E00000E02ABD002008BD0000A5BC008067BC07
:1059F000000070BB0000453C00E0413D00E0A63DDA
:105A00000080DF3D00F0F23D0000E93D00D0DC3DCC
:105A10000050DC3D0090EB3D0080C43D00D0923D45
:105A20000080D93C00808DBC00A086BD00C0C6BDF2
:105A30000000DBBD0080D5BD0070C4BD0020B2BD3C
:105A400000B0ABBD004094BD004040BD0000E5BBD0
:105A50000000C43C0000643D0040A53D0090D23DE4
:105A60000000DB3D00A0CA3D0070A43D0060723D17
:105A70000020333D0040C83C000034BB008028BDFE
:105A8000008094BD0050D3BD00F0F9BD005806BEA3
:105A900000A0F1BD0000C9BD000094BD00E054BDF0
:105AA00000C012BD0000F9BC004093BC000092BBD6
:105AB00000005F3C0040AF3C00C0B13C00C0BD3CBA
:105AC0000000253C008038BC00C0F3BC0040FBBC9B
:105AD0000080EEBC00408CBC000062BC00801EBC9C
:105AE0000000D2BB000008BA0000403C0000BD3CF2
:105AF0000020233D0000783D0090AD3D0030B13DD9
:105B00000020BD3D0070C23D0040DD3D0010E83D7D
:105B100000F0D83D0080AC3D00C03F3D00008F3C10
:105B200000007CBC000026BD003086BD00409BBD4F
:105B300000B091BD00606BBD00E040BD00C033BD52
:105B400000801ABD00C092BC00802B3C00400A3D82
:105B50000040613D00807B3D0080783D00803E3DFF
:105B600000600C3D00806B3C0000BFBB004006BDE8
:105B700000C06BBD00F0A3BD0090C7BD00B0CFBD9D
:105B80000070C0BD0050ADBD00E09DBD00A062BD75
:105B90000080EEBC000038BA00408B3C0000C43CE2
:105BA0000000DB3C0040E43C0040E33C0080F73C6C
:105BB0000000C23C0000EC3B0000C3BB008090BC76
:105BC0000040DEBC00400EBD00800FBD002002BDC5
:105BD00000C0CFBC00007EBC0000E0BA0000473C23
:105BE0000040FB3C00E03D3D0010863D0060A13DD3
:105BF0000080AA3D0080A53D00E0883D00C06C3DCE
:105C000000A0403D00C02C3D0000CA3C00008D3B80
:105C100000C0CDBC00A022BD004043BD00802FBD10
:105C200000C012BD008002BD000096BC0000A1BBF8
:105C30000000433C00C0B73C0080F13C0060313DB7
:105C400000E0443D0000383D00C01C3D0080E13CC8
:105C50000000653C000000BB0000ABBC00001EBDA6
:105C6000002058BD00A06EBD00407BBD00007CBD83
:105C7000008083BD00F081BD002081BD00E07CBDBF
:105C800000E074BD000046BD004007BD00C091BCEF
:105C9000000040B9000080B8000080390000D6BB89
:105CA000000081BB0000BABB000008BC00801ABC29
:105CB000000031BC00802DBC0000F8BB0000A9BB77
:105CC0000000683B00009E3C0080213D00A0693D33
:105CD00000E0843D0020873D00B08B3D00E0993D11
:105CE00000F09F3D00D09C3D0020853D00E07C3DC4
:105CF0000060483D0000163D00C0CF3C0000533C12
:105D00000000A5BB0040DFBC00C020BD004047BD77
:105D100000A044BD006023BD00801DBD00603DBDEE
:105D200000A041BD00600DBD0000A5BC0000E7BBA8
:105D30000000F0B90000DA3B0000083C00807B3C2A
:105D400000802A3C00009C3A0040AABC006002BDD2
:105D500000602EBD008038BD00E05ABD002050BD5F
:105D6000004034BD008016BD00001ABD00601CBD9F
:105D70000040EBBC00805BBC0000253C0080C43CC4
:105D800000C0033D00400B3D0080F93C0080DB3C3F
:105D90000000733C0000B63B0000383A00004EBBE8
:105DA00000009EBB000054BC000073BC00009FBC00
:105DB0000000DABB000034BB0000743B0000563B1F
:105DC0000080303C0000C53C0080153D00C0193DFE
:105DD00000202E3D00C02B3D0040403D00003B3DDB
:105DE00000A01F3D0000CC3C0000EA3B0000BABB15
:105DF0000000B3BC00A009BD008028BD006022BD2A
:105E000000C020BD00A00DBD00C007BD0040C8BC43
:105E100000803EBC0000503A0000733C0040EB3C68
:105E20000040243D00804D3D00804D3D0060443DDC
