:020000042000DA
:04035C0000787FBFE7
:1003600000D8E3BE0030913D0090C73D00B0C13DD4
:100370000010B93D0000B23D0070AB3D00E0A83D6B
:1003800000B0A53D00E0A23D0050A03D00509E3DC4
:1003900000C09B3D0030993D0080963D0070933D2C
:1003A00000D0913D00008F3D00808C3D00E08A3DF3
:1003B0000010883D0080853D0040833D0050823D17
:1003C00000C07F3D00407B3D0060753D0080733D77
:1003D00000806F3D00206B3D00A0693D0040603D06
:1003E00000605E3D00E05B3D0060573D00E0533D36
:1003F0000040513D00204C3D0060493D00C0463D5D
:100400000060413D0040403D00403C3D0040373DE4
:100410000000343D0060313D00E0313D00002D3DE5
:1004200000A02A3D0040283D00C0243D0020233D7F
:100430000080213D00C01C3D00201B3D00A0173D59
:1004400000A0133D00E0103D00A0103D00400F3D16
:1004500000A00C3D0020093D00A0053D0020053D09
:1004600000A0003D0080FD3C00C0FB3C0080F63C4D
:1004700000C0ED3C0080E83C00C0E53C0000E33CEF
:100480000000E13C00C0DC3C00C0D63C0000DA3C8F
:100490000080D13C0000CB3C0000CA3C00C0C83CFE
:1004A0000000C23C00C0C03C00C0B83C0000BA3CE8
:1004B0000000B63C00C0B13C00E045BD00D0BEBD70
:1004C00000B098BD000062BD00E00FBD008075BCAB
:1004D0000000963B0080B53C00201C3D00605B3D69
:1004E00000A08E3D0050AD3D00F0C33D00A0DD3DBD
:1004F00000A0F53D0048073E0020123E00181C3EBB
:1005000000C0253E00602F3E0000383E00D8403E2F
:1005100000084A3E0020523E00605A3E00F0623E13
:1005200000E8683E00D06F3E0008753E00107B3E3C
:1005300000007F3E0080803E0084813E0084833E38
:1005400000B8853E00A4873E0010883E0050893EDA
:1005500000748B3E00908D3E00CC8F3E00E0913EBB
:1005600000D8923E00B0943E00CC953E00D0973E1D
:100570000070983E00F0983E008C983E0004983E33
:100580000050973E00AC963E002C963E00D4953E1F
:1005900000D4943E00B0943E00D4933E0014923EAA
:1005A00000C0903E00888F3E003C8E3E00548D3E41
:1005B00000108C3E00108C3E00988B3E00208B3E3D
:1005C00000388A3E007C893E0088873E00C4863E13
:1005D00000E4863E00E8863E00C4863E0064863E17
:1005E00000EC853E0020843E0030843E00B8823E10
:1005F0000058813E0008803E00707C3E0060793EDD
:1006000000D8763E0000723E00B86B3E0038683E6F
:1006100000D0633E00785E3E00C85A3E0028563E39
:100620000098523E00D84E3E00A84D3E00A04B3EE2
:1006300000D84A3E00084C3E00C84A3E00D0483E22
:100640000070483E0018473E0098453E00F0413E8D
:100650000040413E00C83F3E00083D3E00703B3E2A
:100660000070393E0038373E00D0333E00982F3EB0
:1006700000282D3E00582B3E0010283E0058253EF5
:100680000058253E00C8233E0030223E00A8223EEE
:1006900000A81F3E00C8213E0090203E00601F3E83
:1006A00000601E3E00D81E3E00801D3E00901A3E97
:1006B0000020183E0098153E00E8133E0030103E22
:1006C00000800E3E00580C3E00F0083E0058063EEA
:1006D0000030033E0070003E0080F93D0020F23DF6
:1006E00000F0F03D0040E83D0040E33D00E0DE3D2D
:1006F0000060DD3D0020DB3D0010DC3D00A0DB3D67
:100700000090DC3D00A0DB3D0090D83D0050D63D80
:100710000030D33D0090D23D00F0D03D0090CF3D61
:1007200000F0C93D00A0C63D0030BE3D0090B83D80
:1007300000D0B03D0030AB3D00E0A43D00909E3DB8
:100740000070983D00E0913D00E08C3D0050883DF8
:100750000000833D00E0783D00E0713D00606A3DAF
:1007600000A06D3D0040693D0080683D0000683D8F
:1007700000C06F3D00C06F3D00A06E3D00A0723D07
:100780000080703D00406C3D0060663D0020623D91
:1007900000205B3D00E0563D00E0503D00A0503D94
:1007A00000E0573D00E05A3D0020543D00C0583D58
:1007B0000060533D00A0543D0020503D00204D3DC1
:1007C0000020503D0000533D00C0523D0040523DCE
:1007D00000004F3D00604C3D00A04B3D00404B3DB4
:1007E0000020493D00C0423D0040423D00A0403D48
:1007F00000E0393D00E0313D00002D3D0040213D4D
:1008000000001E3D00A01B3D00601B3D00201B3D65
:100810000040163D0060143D00C00A3D00A0043DAC
:1008200000A0043D0020013D0040FD3C0040EB3CA9
:1008300000C0EB3C00C0EB3C0040DE3C0080CB3C09
:100840000040C13C00C0B83C0040BF3C0080B43C0C
:100850000000B33C00C0A73C0080A33C0000983CD3
:100860000000953C0040843C00806B3C0000373C1D
:1008700000000A3C0000E13B00009A3B00006C3B9A
:100880000000B039000080380000B039000080B9A5
:100890000000B03900004039000018BA0000983A52
:1008A0000000303B0000963B0000C13B0000E13BF4
:1008B00000802D3C0000513C0000603C00006F3C7B
:1008C00000807B3C00007E3C0080813C00005F3C5F
:1008D0000080673C00005E3C00804C3C0080593C3E
:1008E0000000613C0000563C00804B3C0080483CCE
:1008F0000080673C0080763C00007E3C0080853CA8
:100900000080693C0000603C00805D3C0000603C71
:100910000080573C0080473C00803E3C00803E3CCD
:100920000000333C0000323C00803F3C00802F3C04
:100930000080213C0080203C0000133C0000063C6D
:100940000000F03B0000083C0000083C0000063CB2
:100950000000BD3B0000CB3B0000B23B0000AB3BC6
:1009600000003C3B0000503A000080B80000F8BA9C
:100970000000CCBA000000BB00002CBB000070BB24
:1009800000008BBB00006CBB000026BB000044BB1A
:10099000000030BB00008BBB0000BDBB0000E7BB0C
:1009A000008001BC000025BC000043BC000064BC0A
:1009B000000061BC00805BBC00806CBC008069BC36
:1009C000000053BC00802FBC000027BC0000E9BB26
:1009D0000000C5BB00009FBB00005EBB0000E8BA82
:1009E000000040BA0000083A0000503A0000783B8E
:1009F0000000AB3B0000A53B0000A33B0000A13B77
:100A00000000563B0000003B0000283A000040B9BF
:100A10000000183A0000F03A0000683B0000A33BD9
:100A20000000BC3B0000AE3B0000B63B0000A73B13
:100A30000000B83B0000A33B0000743B00006C3B8F
:100A40000000303B00003C3B0000D43A00001E3B5D
:100A50000000883A000080B80000603A00004E3B79
:100A60000000623B00009F3B00009E3B0000983B63
:100A70000000003B0000B0B9000056BB000074BB92
:100A8000000044BB00008DBB0000BCBB0000D8BB15
:100A900000000ABC0000FFBB008001BC008029BC34
:100AA000000022BC000037BC000046BC000050BC67
:100AB000008049BC000054BC00006FBC000086BC34
:100AC000004083BC000081BC00408ABC000088BCA0
:100AD000008078BC000073BC000063BC00005EBCFA
:100AE000008057BC00805ABC000060BC00803BBC4A
:100AF00000802CBC000015BC0000F0BB0000E5BB72
:100B00000000C3BB0000CEBB00009EBB00007CBB4E
:100B100000000EBB000008BB0000D4BA000038BAC9
:100B200000008039000000000000AC3A0000703A7C
:100B30000000BC3A0000F03A00001A3B0000F83A0E
:100B40000000643B00004E3B0000703A0000983A01
:100B50000000383B0000563B00009F3B0000523B2A
:100B600000005A3B0000803B00005E3B00001E3B43
:100B70000000043B0000AC3A0000BC3A000000005A
:100B8000000080B8000000B90000903A0000083A68
:100B90000000AC3A00001E3B00000E3B0000003994
:100BA00000000000000090390000A43A000000009E
:100BB00000001EBB000081BB0000BCBB000006BCE7
:100BC000008010BC000006BC000006BC000027BC72
:100BD000000032BC008029BC000031BC000055BCC4
:100BE000000055BC000063BC00805CBC00805DBCA4
:100BF000008069BC00805DBC00005FBC000063BC7D
:100C0000000060BC000050BC008058BC000044BC28
:100C1000000047BC00803CBC000024BC000004BCB9
:100C20000000C7BB0000E1BB0000F2BB0000C5BB79
:100C3000000080BB00005EBB000044BB0000D0B9D8
:100C4000000000B9000040B9000040390000983AA7
:100C500000009C3A0000B43A0000083A0000CC3A88
:100C60000000AC3A0000803A0000003B00007C3BF2
:100C700000009F3B0000923B0000813B0000123BC4
:100C80000000083B0000263B00000000000008BAFE
:100C9000000098BA000040B9000000390000083A8E
:100CA00000000A3B0000123B0000F03A0000E83A66
:100CB0000000603A0000B43A00009C3A0000CC3AD0
:100CC0000000183A000090BA0000CCBA00004ABBFD
:100CD00000003CBB0000B0BB0000BDBB0000FDBB82
:100CE000000016BC00801EBC00801ABC000031BC95
:100CF000008058BC00806BBC000070BC00806BBCE6
:100D0000000062BC00804CBC008047BC00803BBC43
:100D1000000047BC00803ABC00803DBC000055BCD0
:100D2000000074BC00007FBC008085BC004082BC19
:100D3000000072BC00805DBC000050BC000033BCF1
:100D400000801BBC008001BC0000D6BB0000A3BB20
:100D5000000085BB000026BB0000E0BA000000B91F
:100D6000000008BA000000B900008038000018BA7E
:100D7000000038BA000080380000C43A0000403A51
:100D8000000090390000003900000039000080396F
:100D90000000003900000039000090390000B0B9AF
:100DA00000004039000018BA0000A43A0000B43A2C
:100DB0000000983A0000703A0000E83A0000D83A83
:100DC0000000163B0000C43A0000E03A0000043B7B
:100DD00000001E3B00000A3B0000F83A00003C3BCC
:100DE0000000383B0000D83A00009C3A0000B0B93F
:100DF0000000CCBA000070BB0000BFBB008002BC8A
:100E000000000BBC0000F0BB0000FFBB000027BCD3
:100E1000000032BC00800EBC000016BC000019BCF3
:100E2000000008BC008012BC00801BBC000034BC69
:100E3000000052BC008068BC000060BC00805BBC4D
:100E400000804DBC00804BBC008056BC008056BC6E
:100E5000000061BC008066BC000055BC000042BCC4
:100E6000008029BC000026BC00000ABC0000CBBBEF
:100E70000000A7BB0000B8BB00008FBB00005ABB3E
:100E8000000038BB00000EBB0000D8BA000060BAFA
:100E9000000050BA0000CCBA0000CCBA0000A4BADE
:100EA000000018BA000004BB000026BB000026BBEF
:100EB000000074BB00008FBB000028BB000012BB09
:100EC000000034BB000074BB000096BB0000B6BB42
:100ED0000000A5BB00005ABB00001EBB0000F0BA1A
:100EE000000018BA0000003B00000A3B00004E3B27
:100EF00000005E3B0000443B0000743B00006C3B84
:100F000000003C3B0000BC3A0000B0B9000018BA39
:100F10000000D8BA000016BB000038BB000096BB2A
:100F2000000083BB000062BB000085BB0000D2BB99
:100F30000000EEBB0000F0BB0000DBBB0000E3BB29
:100F40000000B8BB0000BDBB0000A5BB0000DDBBBE
:100F50000000F8BB0000F4BB0000E1BB0000E9BBEF
:100F60000000EABB0000CEBB0000D6BB00800EBC78
:100F7000000008BC000006BC008012BC00801CBC45
:100F8000000018BC00800CBC0000CBBB0000C1BB43
:100F9000000098BB000080BB0000ADBB00009ABB06
:100FA000000062BB000056BB000040BB00003CBB21
:100FB000000040BB000052BB000046BB000090BADE
:100FC000000080B80000B039000080B80000283A66
:100FD0000000803A0000503A000080B8000090BA4B
:100FE000000028BB000090BB000081BB000074BB68
:100FF00000009ABB0000ADBB0000A9BB000062BBB3
:1010000000009CBA0000F0390000AC3A0000083B38
:101010000000523B0000223B00007C3B0000943B60
:101020000000BC3B0000C33B0000A13B0000A33B11
:1010300000009F3B0000873B0000343B0000183A53
:101040000000ACBA000028BB0000A9BB0000B8BB80
:101050000000DFBB00009EBB000062BB0000D8BAEE
:101060000000ACBA0000A4BA0000F0B90000A4BAB5
:1010700000000ABB000044BB00006CBB000070BB5A
:101080000000A1BB0000C9BB0000E1BB0000E7BB42
:101090000000CBBB0000DABB0000E3BB0000FBBBE1
:1010A0000000DDBB0000ABBB00009ABB0000C7BB6B
:1010B0000000D0BB0000C3BB0000E5BB0000B0BB1C
:1010C0000000BFBB00007CBB000026BB0000ACBA28
:1010D0000000E8BA000081BB000096BB0000A3BB83
:1010E0000000A3BB00008FBB000068BB00005ABB20
:1010F0000000E8BA000004BB000038BA000070BA73
:10110000000088BA000004BB0000F8BA000028BA4A
:101110000000383A0000503A0000183A0000F03958
:1011200000000000000000000000703A0000F039EC
:101130000000983A0000D43A0000B43A0000D83ACF
:101140000000883A0000BC3A0000703A0000B43A4F
:1011500000005A3B00001A3B0000BC3A0000D039A6
:10116000000080B80000B4BA0000D8BA000004BB88
:1011700000007CBB000080BB000068BB0000D0BB4F
:101180000000E1BB0000DABB000092BB0000A1BB85
:101190000000A9BB000068BB0000F0BA000004BB5F
:1011A000000000BB0000F0B9000018BA00003CBB12
:1011B0000000ADBB0000CEBB0000C5BB0000BCBB47
:1011C0000000BDBB0000C7BB0000D2BB0000BFBB1E
:1011D0000000ADBB0000A7BB0000ABBB000098BB8C
:1011E000000090BB000080BB000087BB0000ABBBD1
:1011F00000009ABB000085BB000044BB00008DBB13
:10120000000070BB000068BB000087BB000089BB0A
:1012100000006CBB000068BB000046BB000040BB88
:10122000000062BB0000D8BA00009CBA00001EBBE0
:10123000000016BB0000F0BA000028BB000070BA26
:10124000000080BA0000BCBA0000B4BA000038BA8E
:101250000000BCBA0000D4BA000090BA000008BA7E
:10126000000000000000883A00000E3B0000813BB7
:1012700000008B3B0000443B00008B3B0000AE3B7A
:101280000000BF3B0000C73B0000E33B0000CC3B3D
:1012900000009A3B0000263B0000183A0000F0B91D
:1012A000000080B8000028BB000078BB00005EBBD7
:1012B000000081BB00009ABB0000C3BB0000F4BB70
:1012C000000023BC00802EBC000031BC00801EBC8E
:1012D00000800EBC000005BC0000C7BB00007CBB4A
:1012E000000016BB0000ACBA0000C4BA000000B990
:1012F0000000383A0000B0390000F0390000A4BA0C
:10130000000040B9000088BA0000C4BA000030BB39
:10131000000068BB000004BB00001EBB000022BB35
:10132000000000BB000060BA00003CBB00005ABBDC
:10133000000083BB00008BBB00005ABB000056BB03
:10134000000098BA0000D0390000A43A0000163B13
:101350000000BC3A0000703A00000039000038BAC2
:10136000000080B90000D8BA0000A4BA0000ACBAEE
:1013700000000ABB00008FBB0000D4BB0000D0BB44
:101380000000B8BB000092BB00008FBB000034BB64
:10139000000004BB0000083A0000B43A0000003B23
:1013A0000000D83A0000403B0000303B0000C13B49
:1013B0000000B23B0000FB3B0000133C0000FF3B81
:1013C0000080003C0000F03B0000CB3B0000BF3B36
:1013D00000008B3B0000123B0000123B0000183A5B
:1013E00000004EBB0000B2BB0000DABB008003BCB3
:1013F000000015BC000033BC00803ABC00004FBCAC
:10140000000040BC000034BC000015BC00800DBCD6
:101410000000CBBB000081BB0000F8BA000040BA5E
:101420000000D03900009C3A00009C3A0000B0391E
:10143000000080380000B0B9000008BA000000BB0E
:10144000000070BB000098BB0000A1BB0000C7BB40
:101450000000BFBB0000F9BB008001BC008000BCE5
:101460000000EABB0000D0BB0000BDBB0000A7BB72
:10147000000092BB0000D4BA000070BA0000D0395E
:101480000000043B0000623B0000443B0000403B86
:101490000000003B0000F83A00004039000070BA3C
:1014A0000000CCBA000052BB000074BB00009CBB23
:1014B0000000ECBB008000BC008012BC008020BC9F
:1014C000000024BC008012BC0000E9BB0000F0BB9F
:1014D0000000D4BB0000C9BB0000B6BB000094BB39
:1014E00000005EBB000016BB000000B90000CC3A53
:1014F0000000893B0000B23B0000CB3B0000CB3B2F
:101500000000F23B0000FF3B0000CC3B0000BA3B78
:101510000000903B0000083B000080B8000038BB92
:10152000000034BB0000B2BB0000F6BB0000F2BB01
:10153000000008BC008012BC00001ABC00801CBC6B
:10154000000023BC000035BC00801ABC0000F4BBC6
:101550000000ABBB00008DBB000000BB000060BA08
:10156000000050BA0000BCBA000026BB00002CBB33
:101570000000E8BA00008FBB0000BFBB0000F8BB52
:10158000000017BC000026BC000027BC000023BCE4
:10159000000034BC00802DBC00801EBC0000E3BBFA
:1015A00000009FBB000064BB000090BA0000000078
:1015B0000000403900000A3B0000A13B0000C13B95
:1015C0000000D83B0000E73B0000F03B0000F93B87
:1015D0000000C93B00009A3B0000563B0000B039B8
:1015E000000080B80000A4BA000004BB00003CBBAF
:1015F00000008DBB0000C1BB0000E5BB008003BC48
:10160000000005BC0000E9BB0000CCBB00009FBB94
:10161000000083BB000040BB0000F8BA000018BA0D
:10162000000080380000B0390000803A0000983A8D
:101630000000E83A0000223B0000403B0000F03A86
:101640000000E83A0000B0B9000012BB000078BB0F
:10165000000096BB000087BB0000A1BB0000B8BB28
:101660000000E9BB0000FDBB0000D2BB0000FFBBD7
:101670000000DFBB0000CBBB0000D8BB0000DABB22
:101680000000E3BB0000F8BB008000BC0000F9BB19
:10169000000008BC00000ABC00801CBC00800FBC1D
:1016A000008010BC008001BC00000BBC008010BC9E
:1016B000008011BC0000F8BB0000F6BB008000BC3D
:1016C0000000ECBB0000BCBB00007CBB000034BBD6
:1016D0000000003900003C3B0000743B0000BF3BB1
:1016E0000000DA3B0000D23B0000A93B0000A73B12
:1016F00000001A3B0000D43A0000003B0000503AC2
:101700000000AC3A00004039000080BA0000D4BAB2
:10171000000070BA00001EBB000012BB0000F8BA47
:10172000000026BB000038BB000080B90000F03983
:101730000000D0B9000018BA000038BA000000005C
:10174000000000B9000040B90000F0390000803905
:101750000000AC3A0000BC3A000000000000A4BA4F
:101760000000B4BA000040390000183A0000883A7E
:10177000000090B90000C4BA000000BB000022BB0A
:10178000000092BB00009EBB00009FBB0000D0BBCE
:101790000000F4BB0000DABB0000DABB0000AEBB07
:1017A0000000ADBB00006CBB000030BB000016BBEE
:1017B000000080BB0000BCBB0000C3BB0000F6BB48
:1017C00000801BBC000024BC000045BC000046BCDF
:1017D000000045BC00803CBC000033BC008021BC44
:1017E00000800BBC008001BC0000DDBB00008BBB97
:1017F000000012BB0000903900001A3B0000893B3A
:101800000000D63B0080023C0000093C00801D3CEB
:101810000000293C0080203C0080203C00802C3CC3
:1018200000801B3C0000DD3B00009F3B0000523B62
:1018300000004039000028BA000070BA000080BAE9
:10184000000088BA00001EBB00005ABB000022BB8B
:1018500000004ABB000081BB00008DBB00005EBBE6
:1018600000003CBB000044BB000004BB000080B98A
:10187000000080B9000080BA000040B900000000FC
:101880000000703A0000163B0000043B00000A3BD9
:101890000000F03A0000803A000080380000B4BA3E
:1018A0000000E8BA000064BB00006CBB0000AEBBE7
:1018B0000000A9BB0000B4BB0000D8BB0000E9BB1E
:1018C0000000CEBB0000BABB0000B2BB0000BFBB33
:1018D0000000C1BB000092BB0000A9BB0000B2BB6E
:1018E0000000ABBB0000A1BB0000A7BB0000A3BB76
:1018F0000000B2BB0000D8BB008003BC000022BCCB
:1019000000802BBC000037BC000036BC00803CBC13
:10191000000025BC008000BC0000F2BB0000BFBB83
:101920000000A9BB00005EBB000008BB0000E8BAD5
:10193000000050BA0000803A00004E3B0000643BBB
:101940000000B63B0000F83B0000043C0080123C65
:1019500000001A3C0000253C00001A3C00801C3CA2
:101960000000143C0000043C0000D03B0000963B0B
:101970000000123B0000803A000040B90000F8BAB5
:10198000000068BB0000B6BB0000E3BB0000E3BB87
:101990000000EEBB0000ECBB0000EEBB0000F8BB9B
:1019A0000000F9BB0000AEBB00009ABB00006CBB9E
:1019B00000004ABB000062BB00007CBB00005ABBB9
:1019C00000005ABB000000BB0000F0390000803965
:1019D0000000000000009039000090BA00001ABB1F
:1019E000000074BB0000B6BB0000C7BB00009FBB7B
:1019F0000000ADBB0000CCBB0000C7BB0000C7BBF4
:101A00000000C9BB0000C3BB0000D8BB0000C3BBC3
:101A100000009EBB00009FBB00009EBB0000B2BB4D
:101A20000000A7BB000094BB00008BBB000090BB74
:101A30000000A5BB0000C1BB0000F8BB000007BC54
:101A40000000F9BB0000F4BB0000DBBB0000A3BB3F
:101A50000000ABBB000090BB000062BB00001EBBDF
:101A6000000026BB000008BB00000ABB000070BAE3
:101A70000000B0390000CC3A0000643B0000B03BED
:101A80000000C33B0000D23B0000FB3B00800C3C4D
:101A900000001A3C0000133C0080113C0000FD3B9C
:101AA0000000DD3B00009C3B0000F83A000040BA1B
:101AB00000001EBB000085BB0000AEBB0000A7BB42
:101AC0000000C7BB0000DABB0000FFBB000005BC84
:101AD000000018BC00800DBC0000F4BB0000FBBB84
:101AE0000000C5BB000087BB000008BB000056BB60
:101AF000000022BB0000A4BA000090B90000000062
:101B0000000080B80000903A0000503A0000000049
:101B1000000070BA00001EBB000087BB0000A9BB1C
:101B20000000C5BB0000F8BB000013BC000008BCEF
:101B3000008011BC00800EBC000009BC000014BC79
:101B4000008003BC0000FFBB00800BBC0000FDBB9D
:101B5000000018BC000005BC0000DBBB0000CCBBD3
:101B60000000A5BB000040BB000050BA0000403997
:101B70000000AC3A00008038000038BA00000000D5
:101B80000000ACBA0000F0BA000016BB000078BB41
:101B900000006CBB000052BB000034BB000081BBE6
:101BA00000003CBB000026BB00002CBB00004EBB6D
:101BB00000003CBB000050BA000080B90000403972
:101BC0000000883A0000AC3A0000043B0000683B8B
:101BD0000000923B00004E3B0000703B0000A73B22
:101BE0000000CC3B0000873B0000703B00002C3B1A
:101BF0000000163B00001A3B0000603A000000396C
:101C00000000F0390000B0B9000038BA000088BA0E
:101C1000000098BA000028BB000030BB000046BBA3
:101C200000008FBB000056BB000081BB00007CBBE6
:101C3000000068BB000081BB000070BB000087BBD8
:101C4000000064BB000083BB000022BB000016BB89
:101C5000000034BB00004EBB000087BB0000BCBBD3
:101C600000009CBB0000B4BB0000A7BB0000D6BBBB
:101C7000008000BC008003BC00800DBC000009BCDB
:101C80000000CEBB0000E5BB0000C5BB0000B4BB3C
:101C9000000052BB000070BA0000ACBA000040B9AE
:101CA0000000083A0000043B00001A3B0000BC3A68
:101CB0000000C43A0000163B0000CC3A0000D039C6
:101CC0000000603A0000283A0000E83A0000123BA9
:101CD00000005A3B00008B3B00009F3B00009F3BF5
:101CE0000000963B0000A93B0000813B0000523BF6
:101CF0000000443B00001A3B0000283B0000F83A7B
:101D00000000603A000090B90000D0390000983A15
:101D10000000E83A0000223B0000C43A0000AC3A60
:101D20000000603A000000B90000F0BA000028BBD3
:101D30000000A4BA000000B900000000000028BAAA
:101D4000000080BA0000CCBA000034BB000040BBE9
:101D500000008DBB0000BCBB000085BB00009ABB2F
:101D60000000BFBB0000C9BB0000D0BB0000F4BB3B
:101D7000000008BC00801ABC008020BC000022BC0F
:101D800000801FBC000024BC00000BBC0000E3BBB3
:101D90000000ECBB0000E9BB000008BC00000ABC6E
:101DA0000000DBBB000092BB00006CBB0000A4BACB
:101DB000000070BA0000D0B90000283A0000903A44
:101DC0000000F03A00009039000008BA000008BA9C
:101DD000000088BA0000B0390000503A0000903A84
:101DE0000000283A0000803A0000283A0000D83A63
:101DF0000000503A00008039000040390000BCBAB1
:101E0000000000B9000008BA000026BB0000A4BA18
:101E1000000050BA0000883A0000C43A00000E3BAF
:101E20000000903A000040B9000090B9000050BA9C
:101E3000000080380000B0390000F0B900009CBA02
:101E4000000016BB00001ABB000028BB0000CCBA83
:101E50000000D0B900004039000000000000F03957
:101E60000000F039000040B9000038BA000098BA0C
:101E7000000080B9000038BA000090390000283A0C
:101E8000000070BA0000E0BA000038BB000080BB60
:101E90000000B8BB0000ECBB00801CBC000042BCD2
:101EA000008058BC008056BC008069BC000064BC47
:101EB00000804DBC000054BC00802FBC00800DBCD5
:101EC0000000CEBB00008BBB000083BB00004ABB00
:101ED000000034BB000040BA0000F0B900008039B7
:101EE000000018BA000000000000F0B900000EBBAE
:101EF00000006CBB000085BB0000ABBB000096BBC4
:101F000000008DBB00008FBB00005ABB000038BB37
:101F1000000092BB0000C3BB0000B2BB0000B6BB18
:101F200000006CBB00009CBA0000B43A0000043B07
:101F300000006C3B0000873B00008B3B0000B03B87
:101F40000000AE3B0000A13B0000BC3B0000BF3BDB
:101F50000000DA3B0000FD3B0000063C0000CB3BEC
:101F600000006C3B0000D43A0000000000000ABBF7
:101F7000000008BB000070BB0000A3BB0000F4BB66
:101F800000000ABC0000F4BB0000EEBB0000DFBB99
:101F90000000C7BB000094BB00007CBB000022BB5C
:101FA000000028BB00000EBB0000E0BA000026BB0A
:101FB000000026BB0000D8BA000000BB0000B0B98A
:101FC0000000083A000098BA0000E0BA000038BBF0
:101FD000000068BB000081BB000098BB0000BDBBD7
:101FE00000009EBB0000ADBB0000D2BB0000E5BB03
:101FF0000000D2BB0000C1BB0000BABB00009FBB09
:1020000000004ABB000080BA0000D0B90000BC3A12
:102010000000703B0000903B0000B43B0000AE3B72
:102020000000743B0000D43A00000EBB000056BB19
:10203000000074BB00008BBB0000ADBB0000BFBB49
:102040000000E3BB0000F9BB008000BC0000F4BB53
:102050000000ECBB0000CCBB000080BB000040BB1C
:102060000000F0B90000A43A0000BC3A0000443B74
:102070000000983B0000C93B0000B43B0000A13BBE
:1020800000004A3B00000A3B0000A43A00000A3B63
:1020900000005A3B0000463B00000E3B00000039A8
:1020A0000000B4BA0000A4BA00004EBB000034BB6C
:1020B000000040BB00002CBB000062BB00009CBBCA
:1020C0000000B6BB0000A7BB0000A5BB00009CBB86
:1020D0000000BFBB00009FBB000090BB000070BBB6
:1020E000000038BB00000ABB0000ACBA000080381A
:1020F0000000983A0000A43A0000D83A0000083ADC
:10210000000018BA000060BA000050BA00000EBB10
:1021100000002CBB000078BB0000A3BB0000B4BBD8
:102120000000BCBB0000D0BB0000CBBB0000C3BBA9
:102130000000A1BB000028BB0000803A0000563B15
:102140000000923B0000B83B0000B43B00009C3B09
:102150000000743B0000283B0000803A000090BA69
:1021600000000EBB000094BB0000CBBB0000D2BB44
:102170000000F9BB000017BC000018BC000017BC31
:102180000000F0BB0000BDBB00009CBB000034BBE6
:10219000000050BA0000983A00001E3B0000383B97
:1021A0000000873B0000A13B0000963B0000743B11
:1021B0000000783B00005E3B0000523B00006C3B9F
:1021C0000000383B0000463B0000873B0000813B9D
:1021D0000000893B00004E3B0000A43A0000403A5A
:1021E0000000A4BA00005ABB0000C9BB0000D4BB69
:1021F0000000DFBB0000E5BB0000C7BB0000D6BB92
:1022000000009EBB000085BB00008FBB000046BBEA
:102210000000B0B90000CC3A0000123B0000083BBF
:102220000000283B00001A3B0000CC3A0000E03AD6
:10223000000000000000B4BA000090BB0000BCBB6E
:102240000000E5BB008002BC008020BC000025BC73
:10225000000034BC000040BC00803BBC00802DBCB2
:10226000000007BC00009EBB000038BB0000BCBAE9
:10227000000080B8000090390000B4BA000088BAAD
:10228000000080B800004039000098BA000008BA89
:10229000000000BB000038BB00008DBB0000BABBD3
:1022A0000000C5BB0000ABBB0000BABB0000CCBB4C
:1022B0000000A9BB00007CBB000028BB0000F8BAEE
:1022C0000000ACBA000000000000283A000080388E
:1022D0000000083A0000283A0000B0390000F03948
:1022E0000000043B0000563B0000083B0000903A11
:1022F0000000703A000028BA000018BA000018BAAE
:102300000000A43A00009C3A0000C43A0000B43A2D
:1023100000000039000070BA00000EBB000044BB92
:10232000000089BB0000A9BB0000C9BB0000C9BBFD
:102330000000DBBB0000E1BB0000BFBB0000B2BB84
:1023400000009CBB00009CBB000030BB000090B9AB
:1023500000000A3B00008F3B0000BF3B0000DB3B5E
:102360000000B03B00000A3B000040BA000044BB44
:10237000000081BB0000CEBB000005BC00001ABC01
:1023800000802ABC000044BC00004FBC00806BBC35
:10239000008067BC00804BBC00001ABC0000DBBBA7
:1023A0000000A5BB00005ABB00009CBA0000D0B9D9
:1023B000000060BA000000B90000083A000040BA0E
:1023C0000000D8BA00004ABB00008BBB0000CCBBA9
:1023D0000000ECBB000005BC0000FBBB0000EABB3A
:1023E0000000C7BB0000A1BB00008DBB00004EBBBE
:1023F00000001ABB0000D0B90000B43A0000443B12
:1024000000009F3B0000B83B0000BF3B0000AB3B1F
:1024100000009E3B0000F83A00000000000016BBE0
:10242000000070BB00009EBB0000B0BB0000BCBB46
:102430000000DBBB0000FDBB000008BC000009BCC5
:1024400000801CBC0000F0BB0000DBBB0000BFBB79
:102450000000A9BB00006CBB000089BB0000A1BB51
:102460000000ECBB008030BC00803DBC0000283A7E
:102470000000DD3B00001A3B000040390000293C11
:1024800000C0843C000018BA00008DBB00000A3C6C
:1024900000004F3C00803C3C00009E3B00006C3B39
:1024A000008088BC000016BC0000983A000013BCF5
:1024B0000000FBBB000026BC008011BC00803FBCBC
:1024C00000408CBC00006FBC00800CBC008020BCB5
:1024D000000081BB000038BA0000383B0000383AE9
:1024E0000000683B0000B43B0000000000008039A1
:1024F0000000943B000089BB0000B0BB0000ECBBB7
:10250000000017BC000009BC0000FBBB000046BC7B
:1025100000804CBC004089BC000070BC000032BC94
:102520000000F8BB0000BDBB0000F0B90000223B7A
:102530000000D03B0080493C0080803C00005A3BBA
:10254000000092BB0000E53B00008F3B0000283AF2
:102550000000563B000068BB0000B039000056BBCD
:1025600000008BBB000056BB000098BA0000BCBA4C
:1025700000004ABB00001EBB0000EABB000006BC16
:1025800000008BBB00800EBC00000000000016BBEA
:102590000000D0390000F0B90000283B000080386E
:1025A0000000B4BA0000873B0000003B0000B039D7
:1025B0000000B23B0000F0B90000283B00000E3BD9
:1025C0000000183A00009F3B00009E3B0000BC3B0F
:1025D000000000390000CB3B0000ABBB00006CBB2F
:1025E0000000CBBB00801EBC0000B6BB004094BC0A
:1025F000000045BC000053BC008066BC00804EBC9F
:1026000000802EBC008068BC0000523B0000F8BB7C
:102610000000B63B0000383B0000CEBB0080803C91
:1026200000009A3B00801E3C0000383B00006CBB61
:102630000000003B00804ABC00009C3B0000BC3A0C
:102640000000ACBA00005ABB008000BC008001BC96
:1026500000800BBC000081BC000056BB0000F4BB36
:102660000000B4BB0000D4BA00009CBA0000A4BAB9
:102670000000D4BB0080033C00800D3C00803F3C48
:10268000000050BA000046BB0000A53B0000ECBBB8
:1026900000004E3B00001EBB0000983A0000EEBB5D
:1026A000000094BB00008D3B000086BC0000903A07
:1026B0000000D6BB00409BBC0080A6BC00A013BDA0
:1026C000008001BC0000FBBB00008FBB000094BB7E
:1026D0000000EC3B0080023C00806A3C0000BD3BF7
:1026E0000000C4BA0000903C0000B63B0000163B5E
:1026F00000007CBB000083BB0000BCBA0000DABB5A
:10270000000060BA00001E3B00005EBC0000B23B4F
:102710000000A43A000055BC00802CBC000018BA90
:102720000000DBBB000033BC00809DBC000045BC4A
:10273000008029BC008011BC000045BC000046BBE5
:10274000000078BB0000B0BB00806B3C0000703A1A
:102750000000D43A00808F3C00004E3B0000083C53
:102760000000683B0000F039000030BB000056BCA0
:102770000000BCBB00C091BC00802ABC00801FBC14
:10278000008065BC000006BC008049BC0000CBBBDB
:102790000000343B0000CBBB0000413C000080BA8D
:1027A00000009F3B0080393C000098BB00004F3C7C
:1027B0000000003B0000FB3B0000B63B000028BAD5
:1027C000000012BB008088BC0000EEBB000004BC0F
:1027D00000408CBC00004EBB0000223B000038BC17
:1027E000000038BB0000F6BB000022BB0000053C27
:1027F0000000DABB0000F0BA0000E1BB00008FBBB4
:102800000000463B000090BB000090B90000ABBB4D
:102810000000983B0000B039000044BC00802C3C14
:1028200000409BBC000008BB0000803A000030BBA9
:102830000000373C000040BA00C08B3C000080B86C
:102840000000B03B0000643B0000ABBB0000813BDC
:10285000000028BA00801EBC00004ABB00801CBCDF
:1028600000806ABC0000C13B0000BDBC0040B1BCA0
:102870000080563C0040D7BC00801C3C0000EEBBF2
:102880000000003900802F3C0000623B0000CCBA01
:1028900000C0C63C000000000000B4BB0000653C66
:1028A000000081BC0000F2BB00001ABC0040CDBC9F
:1028B0000000F6BB0040EDBC000090BA008097BC61
:1028C000000000B9000032BC000038BB0080953C1D
:1028D000004098BC0000A73C000080BB000094BBF7
:1028E00000803A3C0000DBBB00009E3B0000B43A95
:1028F00000800F3C0000CCBC0000003B000054BC3A
:1029000000C0CCBC00802DBC000032BC000061BC0B
:1029100000800B3C00800BBC0000523B0000D43B0D
:102920000000163C0000E13B0000E3BB0080033CDC
:102930000000453C00005ABB000009BC0000E7BB9A
:102940000000283A0000FFBB000035BC0000A1BB1E
:102950000000133C0000ACBA0000C7BB0000A13B64
:102960000000F0BB0000683B000062BB00C0D43C2C
:10297000000000390000B43A0080293C0000D8BBB8
:102980000000A13B0000803B0040A7BC0000703B62
:10299000000032BC0000A1BB0080763C000060BC9F
:1029A00000008D3B004084BC0000EC3B00003CBBC1
:1029B0000000803800005EBB00803B3C00800F3C84
:1029C0000000083B0040843C0000F2BC0000FB3BE0
:1029D0000040FABC000004BC0000DDBB000041BCAC
:1029E00000005EBC000063BC00C0CEBC00807BBCAD
:1029F000000096BB0000FFBB0000F039000074BB74
:102A000000007C3B0000813C00001ABB000068BB5A
:102A100000803B3C0000A13B0000383A00808F3C26
:102A2000000087BB00000EBB000072BC000078BB3A
:102A300000008039000052BB00001EBB008001BCBA
:102A40000000CCBA00809FBC00C089BC0000813B64
:102A5000000087BC00802DBC0000083A000007BCC5
:102A6000000013BC0080873C000054BC0000EA3B1F
:102A700000000EBB000014BC0000F03B000080BB57
:102A80000000F83A0000B6BB0000DBBB00008BBBC7
:102A90000000D83A0000A43C0000CE3B000040B942
:102AA0000000043B0000CE3B000090BB0080023CD5
:102AB000008001BC0000703A000038BA00009A3B68
:102AC0000000CC3B0000F03A00802EBC0000D23B5E
:102AD00000801E3C000014BC0080743C0000AB3B36
:102AE0000000943B008086BC0000E03A008003BCFC
:102AF00000004E3B0040A1BC000046BB00804DBC26
:102B000000004EBB008030BC00801FBC000022BC17
:102B10000000DABC0080743C00C0FABC0000D1BCEC
:102B2000000030BB0000ABBB0000803B00809FBCBE
:102B30000000163B0000613C000098BA000008BA93
:102B400000003CBB00801C3C0000AC3A0000703A26
:102B50000000683B000078BB00800E3C000034BBE6
:102B6000000034BB00802BBC0000D6BB000040BA84
:102B70000000463B00801DBC000080BC0000163BEE
:102B80000000F43B00C0A8BC00007F3C008001BCFA
:102B90000040843C0080003C0000B0B90040B0BC64
:102BA00000C0D4BC00C0B13C00804BBC000008BADF
:102BB00000802E3C0000703B00000ABB0000CC3AB5
:102BC00000006CBB0000983B000046BB00802DBCA1
:102BD0000040853C008002BC000060BA0000443B1D
:102BE000000062BB000064BB0000F4BB0080B53C89
:102BF00000001A3B0000DFBB000016BB000065BCF4
:102C000000000ABB00409B3C000087BB000004BCE6
:102C1000008085BC000074BB00000ABB00807BBC48
:102C2000000038BB000026BB0000DBBB0080393C45
:102C300000802EBC008059BC0000403B000045BC19
:102C40000000813C008010BC0080663C00E000BDBC
:102C50000000183A0080B33C008075BC00805A3CEC
:102C6000008056BC000062BB008059BC004093BC91
:102C70000080593C000008BC00809D3C000018BC4E
:102C80000000273C00006C3B000074BC00804C3C02
:102C9000000026BC0000A7BB0000DBBB0000983B87
:102CA0000000B6BB000088BA0000E3BB00C0E53CF2
:102CB0000000C7BB00009ABB00409B3C00801FBCCB
:102CC00000004A3B0000BD3B0000603A00005EBBD4
:102CD00000803EBC00805A3C0000D2BB000028BBF4
:102CE0000000BDBB0080B33C00002CBB0000DFBB7C
:102CF0000040AF3C0000EEBB00802E3C0000E83AF4
:102D00000000EEBB000029BC0000B83B0000423CC4
:102D100000408CBC00409B3C00800C3C00801BBCF5
:102D20000000D8BA0000123B0000CB3B008077BC0B
:102D300000002C3B00C00DBD00804EBC0000E0BA7E
:102D4000008058BC0040D5BC0000D83A0000713C5F
:102D500000800E3C0000C4BC0000ECBB000040BB87
:102D6000000015BC000025BC0080593C0000043C5C
:102D70000000E0BA00801BBC0040B9BC000026BCCB
:102D800000408CBC0000AE3C008077BC0000AC3A38
:102D90000080C1BC0000553C00005A3B0080663CEE
:102DA00000807A3C0000F03A00C0CF3C008079BC43
:102DB0000080853C00801A3C008074BC00803CBCD4
:102DC0000000403B0000A43A0000A93B0000B4BA58
:102DD00000802F3C0000F0BB0000343C0000BD3BF5
:102DE00000009E3C0040AF3C00C09ABC0000C53CC7
:102DF00000005FBC0080693C0000E53B000034BC83
:102E00000000B3BC0000E73B00C0843C0040A0BC15
:102E10000000063C0040DEBC0080903C00009CBBF3
:102E2000000064BB000090B900000000008057BCA7
:102E3000000046BB0000503C00803ABC00801FBC34
:102E40000040A1BC00801EBD0000313C0000DB3B07
:102E500000007CBB000000BB0000743B000031BCE4
:102E6000008010BC000008BC002011BD0000803CA8
:102E7000000032BC000087BC0000403A0000E9BB03
:102E80000000803A00803CBC0000183A0000B039D5
:102E90000000B43A0040B6BC00801FBC004098BCA3
:102EA000000050BA008010BC0080853C000000008B
:102EB0000000AB3B00005EBB0000C73B000052BC03
:102EC0000000C5BB0000D6BB00804B3C00804CBC62
:102ED00000008038000073BC00005A3B00001A3B21
:102EE0000000C7BB00001A3C000046BC0080293C23
:102EF000000004BB00001E3B0000B0390080483CCD
:102F00000000643B00C089BC00800DBC0000BFBB5A
:102F10000080793C0000B43B0000D8BB0000D0BB6F
:102F200000801F3C0000183A0000C9BB0000CC3AEA
:102F30000000C5BB0000A53B0000D0390040C8BC64
:102F40000000CC3B00009EBB000040390000ABBC41
:102F500000804EBC008079BC00409ABC0000523B0F
:102F60000040EEBC0000DFBB00006EBC0000613C16
:102F70000080BABC00009EBB00001ABB000027BC4A
:102F8000008000BC0000ACBC0000783B0000EC3BC3
:102F90000000873B00C098BC00801BBC0000CEBB7B
:102FA000000080BA00C08A3C008000BD0000C43A26
:102FB0000000523B0080673C00600CBD0000553CA7
:102FC0000000943B00805BBC0000CC3A0000BFBB1B
:102FD0000000343B0000D4BB0000F03B00805BBC31
:102FE000000014BC0000903B0000833B0000BFBB0E
:102FF000000000BB0000D83A000037BC00008E3C47
:1030000000C08B3C008065BC0000F8BA0080383CF2
:103010000000FF3B00809D3C0000283B0000E1BB1E
:103020000000B0BB00C08C3C0000043C00C0AFBC42
:10303000000090B90000F0390000283A000080BB81
:1030400000008D3C0000383B0000883A0000AD3B9A
:103050000000E8BA0000D6BB0080DFBC0080583C0E
:103060000000C3BC00009CBA0000463B00000ABC44
:1030700000C0AEBC0080003C0000D2BB0040B8BC29
:103080000000153C0000ABBC008047BC0000BA3B10
:103090000000DF3B008059BC00C0C6BC0000083BFC
:1030A000000040BB0000C4BA0080AEBC0000D2BC2F
:1030B0000080B23C008011BD008088BC0000133C41
:1030C0000000CCBC00801DBC000094BB0000343B61
:1030D0000000ACBC008090BC0080EE3C000005BC51
:1030E00000005E3B0000003B00009CBC000040393B
:1030F0000000233C0000A1BB0080483C008067BC6E
:1031000000009A3B000087BB0080C4BC00808E3C5E
:103110000000043C0000283B00801CBC00008039FB
:10312000000013BC00007C3B00802B3C0080873CEF
:1031300000006DBC0000623C00C0B93C0080113C46
:103140000000C4BA0000E5BB0000523B0000063C92
:103150000080813C00806ABC000009BC0000DABC31
:1031600000008D3B000023BC0000F4BB0000B4BA9B
:10317000000007BD0000703A0000000000801C3C09
:103180000000963B00007FBC0040A73C0000B6BC9E
:103190000040C1BC0000403900808DBC000042BC32
:1031A0000000A13B0000003B0000F0BC0000E9BBB8
:1031B0000000263B00808DBC00409BBC008012BC00
:1031C0000000813B000000B90000603C008000BCB2
:1031D000000007BC0000A63C0000C53B008094BC7A
:1031E000000032BC0000AE3B0000053C0000ACBC5F
:1031F00000000BBC00005F3C00004E3B000061BCC7
:1032000000806BBC000060BA000080B90000C33BC6
:103210000000BC3B0000403900004FBC0040FC3CBB
:1032200000801C3C0000133C000056BB000065BC45
:103230000080483C0000B03B0000963B0000B43AE0
:1032400000004E3B000065BC00804EBC0000383AD8
:10325000000068BB000038BB0000F83A000094BBD7
:10326000000000BB00807B3C0000BC3B00009E3C9B
:10327000000017BC0000903B00803E3C00009CBA60
:10328000000062BC0000043C0000BABB008049BCE6
:103290000000BF3B0000AE3B008065BC0000A1BB4E
:1032A000008057BC0000DFBB0000BABB000087BB3A
:1032B000000013BC00C0C6BC0000FD3B00C09FBCAA
:1032C00000801CBC0080CBBC0000D4BB000018BA3E
:1032D000000026BB0000AEBC000015BC0000783B1F
:1032E00000802EBC000062BB008049BC0000C73BD0
:1032F0000040E3BC0040933C0000D1BC0000A3BBF5
:103300000000CBBC00C0913C000089BB008058BCD1
:10331000000040BC0000000000802B3C00408BBC43
:103320000000003D0000F2BC00003CBB00005E3B22
:1033300000C0B63C0080C2BC0000423C0000063C1D
:1033400000000ABB0000133C00009E3C0000683BEC
:103350000000F03B0020053D0000BABB0000CC3A65
:10336000000040BC00004F3C00C0A9BC000000B9F8
:103370000000E9BB00008F3B00C09ABC00000000C9
:103380000000ECBB00009CBB000008BB0000E13B60
:103390000040823C008076BC0000AD3B000098BA43
:1033A0000000333C00802C3C00C08ABC0000383A4E
:1033B00000802B3C000004BC00801BBC00008FBBC5
:1033C0000000D0BB0080B4BC000094BB008038BCBF
:1033D00000005FBC0000F2BB00006CBB00806CBC56
:1033E000000090390000523B0000BD3B0000E7BBED
:1033F00000C08CBC000034BC0000383B0000E1BBC6
:103400000000E9BB00C0B6BC00807BBC0000903B64
:103410000000D0390000EABB00801ABC00008039EF
:103420000000ABBB00805B3C008079BC0000AC3A84
:10343000000056BC00009CBA0000A33B0000D43B37
:1034400000803D3C0080763C000008BB0000B6BB1D
:103450000000D63B0000E83A0000C5BB00802A3CD3
:103460000000B83B000071BC00009ABB000012BB1A
:1034700000803DBC000026BB0000633C00803C3C5B
:103480000000D83A00000E3B0000873C000080B9E5
:10349000000008BB0000E83A000034BB008087BC95
:1034A0000000BA3B0000B4BA000022BC000062BBBE
:1034B0000000B0390000E83A0000BC3A0040853C0A
:1034C0000000043B00803E3C0000983B0000783B3D
:1034D000000030BB0000E03A000046BB0000E9BB42
:1034E000000000BB0000B4BA0000903A000070BBBE
:1034F0000000A4BA0000E53B0000123B0000E7BB5F
:103500000000D4BA0000B039000070BA0000D4BB8B
:103510000000C13B0000ADBB00007FBC00804DBC83
:103520000000B0BB00803EBC00008EBC000046BB6B
:1035300000800EBC000009BC000065BC0000CCBAD5
:10354000000008BC000054BC000074BB000027BC95
:103550000000A3BB0000D2BB000000000000403907
:10356000000041BC00009CBA0000CC3B0000D6BB70
:103570000000BCBB0000443B00802E3C00005ABB56
:1035800000007E3C0000833B00C0813C0000623CA8
:103590000040E43C0080BD3C0080FD3C00E0053D77
:1035A0000040163D0000E73C00C00A3D0080073D9A
:1035B0000000C33C0080C23C0000283C00C0C83C66
:1035C00000001A3C0000DA3B0000E7BB0000CCBB67
:1035D000000052BC00000ABD002011BD00603ABDD1
:1035E000004034BD000071BD004046BD00B082BD4A
:1035F000004077BD00005ABD00E039BD004030BD3D
:10360000000031BD00C0AEBC0080C1BC0000EABB00
:103610000000F8BA000013BC000085BB0080383CF5
:1036200000C0893C0000A53C0080D23C00002D3D3C
:1036300000C01A3D0060533D00606B3D00408E3D70
:1036400000E06A3D0010A83D00C0973D0040CE3D1F
:1036500000C0A43D00A0583D00C0203D0080DF3CDC
:103660000000B63C00C0C8BC008006BD004078BD6C
:1036700000807FBD00909CBD00908BBD0090A2BDDE
:103680000000A9BD00206ABD006057BD006044BDB8
:1036900000E065BD0080EABC000063BC008090BC17
:1036A00000C0AEBC0000D8BC00C0D4BC00A00FBDA0
:1036B00000C021BD00E05EBD00E05BBD000025BD97
:1036C000004015BD00C0ECBC00809CBC00800C3CE0
:1036D00000007D3C0040E33C0020603D0060983DE0
:1036E00000B0A73D00C0D13D0060E43D00B0ED3D1D
:1036F0000060EE3D0060FF3D0030953D0000BB3CAA
:1037000000A00D3D0080E23C000098BC00A07DBD03
:10371000003091BD0000A9BD0020BABD0030A4BD9D
:1037200000E0B3BD0000BABD00C070BD004091BC58
:10373000000029BC0080D2BC00C0A1BC00807B3C42
:103740000080C33C0000C33B0000ABBB0080B2BCA8
:1037500000C0DDBC00201FBD006057BD0060ACBDD7
:10376000004092BD00C065BD000044BD008065BD45
:10377000006008BD0000F43B00E01B3D0000523D2E
:1037800000A05E3D00D0B43D00D0E33D0040033ECC
:1037900000E0073E00480D3E0028013E00B0EB3D32
:1037A00000C0673D0040CE3C0080763C008003BCFA
:1037B00000C051BD00F0A9BD0050A6BD00E0DBBDBA
:1037C00000E0C4BD0030C6BD00C0AEBD003091BD3C
:1037D00000E00FBD000096BB00008FBB0000B6BB31
:1037E0000000C73B0080C93C00800E3C0000F8BAD6
:1037F00000807BBC00E017BD008073BD00B085BDBC
:1038000000C09BBD00C0CABD0000B2BD002092BD7B
:10381000004055BD00C01ABD0000273C0020363DC9
:1038200000605E3D0060B23D00D0FB3D00F00B3E0D
:1038300000901D3E00D82C3E00401F3E00E0093E97
:1038400000C0B03D00A0053D0000983C0000DDBB7D
:10385000000052BD00A0C2BD00E0E6BD0040ECBDCE
:103860000020F4BD0060EABD0010D3BD0090A0BDF3
:1038700000A017BD0000B0B90040853C00C0DB3C93
:1038800000C0F53C0020363D00A0223D00009C3CDD
:10389000000052BB00C0CFBC00A00FBD00607DBDCA
:1038A00000E0A0BD00B0B2BD0090B4BD00009CBD62
:1038B000005086BD000035BD0000BABC0040E33CAE
:1038C00000607D3D00D0983D0030CF3D00D8133ED4
:1038D00000402D3E0080303E00281B3E0078223EF6
:1038E00000E0B13D0040A83C0040B73C00005ABB9E
:1038F00000D089BD00C804BE0000EEBD00E804BED3
:10390000005015BE005806BE0080EEBD00F0D2BDCE
:1039100000607DBD000050BA0000AE3C0000403C9D
:1039200000C0C63C00806C3D0000433D00C0A83C88
:103930000000A33B0080CCBC002053BD00F083BD41
:1039400000F09EBD0070CBBD00B0D2BD00109EBD8A
:1039500000A06EBD000030BD000085BB00E0313D21
:1039600000E0993D0020BF3D0028093E00382B3E75
:103970000098443E0058443E0040413E0098063EB8
:103980000040253D00C00E3D00C0F33C00C0DDBC42
:103990000060EEBD00D80FBE00D0FBBD001016BE0B
:1039A00000800FBE006806BE0010E2BD0090ADBDF5
:1039B00000804BBC0040CF3C0040A33C0080F63C64
:1039C00000F0893D0020963D00C0423D00C0C03C53
:1039D000000083BB006004BD00A071BD00508ABD23
:1039E0000050C2BD0040E8BD00D0B8BD00F096BD9B
:1039F00000605EBD008034BD00808E3C0000903DC4
:103A000000B0A93D00C0F73D0078253E0058433E78
:103A100000403C3E00A03C3E0050F83D0060143D9C
:103A200000602F3D0040CF3C000008BD000004BEF8
:103A300000600EBE0050EDBD00E016BE00D015BE09
:103A400000B017BE00A0E2BD0000AEBD000007BC84
:103A50000000CA3C0000D63B00C0E43C0030993D69
:103A600000C0953D0040E63C0040B93C0000A43A4F
:103A70000040FABC00F089BD007098BD0080B5BD63
:103A800000A0E0BD0060ACBD00607ABD000031BDAB
:103A9000000041BC0040423D00109E3D0060C33D1F
:103AA00000A8163E00804A3E0040523E0070303E64
:103AB0000048183E00A0AC3D00605C3D0040223D47
:103AC0000000E3BB00D0A7BD006814BE0050E4BDF9
:103AD00000F006BE00E014BE00C813BE0090E3BDB7
:103AE00000008BBD000004BD00007F3C0000D93CFD
:103AF00000E0183D0080613D00A0A43D00606E3DE7
:103B000000803E3C0000523B00809EBC002060BD17
:103B100000B0BABD0050BABD0060DDBD0040C8BDF8
:103B200000909CBD00E053BD004085BC00A0133D4B
:103B30000070A23D00E0CF3D00B8103E0088423E3C
:103B40000068543E00B83D3E0070F23D0000873DE5
:103B500000E0633D00C0B83C000028BD0060E6BD49
:103B6000001023BE001811BE00001ABE00901CBE3B
:103B7000008825BE009803BE002096BD000054BCFE
:103B80000080883C00409A3C0020543D0090A53DB8
:103B90000050C03D00A0673D0000A73C00001ABCDB
:103BA0000000C5BC00005ABD0030C2BD0080F3BD9E
:103BB00000E0F1BD0090C3BD008083BD00E065BDA5
:103BC0000080C4BC0000283D0080D93D00F0F43DD9
:103BD00000181A3E0060503E00D8693E0038563E3C
:103BE00000F0093E0090953D0020753D0080B23CFC
:103BF00000C007BD00C0D3BD00701DBE00B01BBE1D
:103C000000E014BE00380FBE00C81FBE00A801BEF1
:103C1000006089BD000052BB00C09F3C0000073D12
:103C200000E0573D0040A93D0080AA3D00207D3DB9
:103C30000040D43C00802DBC00C015BD004069BDD3
:103C40000020B2BD00B000BE003001BE0030CFBDCC
:103C500000D098BD004074BD0000EFBC00801A3D4C
:103C60000060BB3D0040013E0030203E00E0523E7F
:103C70000088553E0010403E0020EE3D0010863D7D
:103C800000A0663D00009A3B00F08BBD00C806BE58
:103C900000601DBE007822BE00E822BE00E01BBE10
:103CA00000C01BBE00A0D5BD00603ABD0040943CE2
:103CB0000000133D0020173D00109D3D0090DC3DAD
:103CC00000C0C03D00202F3D00C0843C00C090BC1F
:103CD000002023BD00B09CBD0010E4BD00080FBE55
:103CE000002004BE0070BEBD007095BD00602FBDF9
:103CF00000000A3B0040A13D0088063E00B8233E7C
:103D00000058573E00B86A3E00E0653E00F0043EB1
:103D10000010C03D00F0B83D0080E03C00E063BD15
:103D2000005003BE002011BE001025BE00402EBE74
:103D300000F81DBE00E024BE00F0F0BD002075BDFF
:103D400000C0823C0060173D0000403D0060B03D77
:103D50000020FD3D0040E63D00908D3D00201B3DD4
:103D6000000022BB00C016BD00108FBD0050E2BD98
:103D7000001810BE00801ABE00D0EEBD0080BFBD8E
:103D800000608CBD0040B6BC00A0623D0050DA3D32
:103D90000098163E00A8433E00E8693E00306A3EA7
:103DA00000A00D3E0050BA3D0000D03D00E01F3D98
:103DB00000A05EBD00D0EBBD008817BE007030BE15
:103DC00000E848BE009832BE00A036BE00E017BE34
:103DD0000070B3BD0000BCBA0040D03C0000E13C24
:103DE0000040AC3D00800E3E0050013E0010B73D4B
:103DF0000090893D0000033D00808DBC00C030BDB7
:103E000000C0AEBD0080FFBD002013BE00C0F3BDEA
:103E10000040B6BD00B0A3BD006027BD00E02D3D51
:103E20000080D23D00A8113E0038493E00E87C3EAB
:103E30000028723E0078143E00D0DD3D0030023E86
:103E400000E05B3D00E038BD00A0E8BD001008BE0A
:103E500000E027BE00704ABE006838BE00F838BED9
:103E600000A81FBE0030C6BD0000F9BB00805D3C4D
:103E700000C0923C00D0A93D00B00F3E0088063E35
:103E80000000BA3D0090A43D0080243D008039BC74
:103E900000603EBD00C09BBD0060F2BD006819BE61
:103EA000004001BE0080C3BD00D0A3BD00603DBD89
:103EB00000001A3D0030C93D0048083E0090483ED1
:103EC00000607A3E0070793E00B00F3E0010DC3D8D
:103ED00000F8023E00E06E3D00E038BD0080EEBD1F
:103EE000006002BE004825BE007846BE00D83ABE3B
:103EF000005839BE00D01BBE0080CEBD000043BCC0
:103F00000000223C0000FD3B00308F3D00880A3E4F
:103F10000080F33D00A09D3D00A09B3D0080193D29
:103F2000008067BC002057BD00D092BD0080D9BD85
:103F300000480DBE0090EBBD0010A6BD00A08CBDDA
:103F4000002023BD0020483D0080E63D00280E3EB5
:103F50000008483E00407F3E00F0743E00B8033E3B
:103F60000090C33D00D0083E00A07C3D006075BDC0
:103F700000D801BE0060F5BD008827BE00E050BE3D
:103F800000C83CBE00E038BE00281EBE00E0C4BD34
:103F90000080013C00C0983C0080573C00509E3D92
:103FA00000381D3E0008013E0070883D00F0853D50
:103FB00000E00F3D00009EBC00C086BD0010B5BDF6
:103FC0000050EDBD004016BE0000EABD00C0B1BD0E
:103FD000005099BD00A049BD00603E3D0070EB3D22
:103FE00000F8103E00A04A3E00487F3E0068753E43
:103FF00000B0003E0070E33D00580A3E0080523D94
:10400000006096BD006003BE0040F2BD00D830BE27
:1040100000E050BE004848BE00D83FBE00901FBE22
:1040200000A0B9BD0000623B00001A3C0000CE3B7E
:104030000030913D00081A3E0050FA3D00C0683D36
:1040400000B0823D00602B3D00008EBC00407BBD77
:10405000007097BD0040E6BD00B008BE00E0DBBDCB
:10406000006094BD00A08ABD00A00FBD00C0763DD9
:1040700000B0003E0040163E00504B3E00C8823E5D
:104080000058533E0070E73D0020E13D0038083EF7
:1040900000A0183D00F0B0BD0000EEBD00F0D8BD9E
:1040A00000D830BE00A84EBE00C039BE002033BECE
:1040B00000E822BE0060A8BD0080123C000042BCA7
:1040C00000802DBC00F08B3D0008123E0040B93D41
:1040D0000000133D0040683D0040043D0040E6BC48
:1040E00000A090BD001091BD00E0DCBD0010F7BD48
:1040F0000070A7BD002062BD00E075BD000065BC7A
:1041000000E0AC3D0028093E00E8203E0010523E91
:1041100000407F3E0078283E0060B43D0060043ED1
:1041200000B0DC3D000080B800C0CEBD0000C1BDC5
:104130000050CFBD005837BE00B03ABE00B027BE19
:1041400000381ABE00C00DBE00203ABD0000453C3C
:104150000000B5BC0000AE3B0080BF3D0040FB3D11
:104160000060493D00008F3C00E01A3D0000183A15
:1041700000A06DBD0000B0BD0080B9BD0050EFBD16
:1041800000E0E8BD00D083BD00E04CBD00A041BD13
:104190000040993C0020F43D00381B3E0098263E2C
:1041A00000B0663E0074823E0010133E0020B03D19
:1041B0000020053E0010C23D00E009BD0080E4BDC6
:1041C00000F0BFBD0040E8BD00A831BE00F82CBE25
:1041D00000C812BE00680CBE0000E1BD00803ABC01
:1041E0000040F53C000090BA0040C73C00D0EB3DD9
:1041F0000060DD3D00A01C3D00802C3C0080963C12
:10420000000000BD0050B3BD00B0D2BD0070DEBDE7
:1042100000D009BE00B0FABD007080BD006045BD91
:1042200000800FBD0020013D0040053E00702B3E88
:1042300000A0463E0078743E00E8773E00F0043E61
:104240000010BB3D0060053E0080873D00B094BD7E
:10425000006004BE00D0C5BD00380DBE00E039BE10
:1042600000282BBE00A00EBE00D801BE00D09CBD11
:1042700000C0CF3C00C0303D0080383C00E0713DC4
:104280000048163E0010EB3D0060093D0080AE3C4A
:104290000080493C008046BD0030D3BD0080F1BDA8
:1042A00000E80FBE004825BE005002BE005099BD78
:1042B00000607CBD000022BD0060543D00F80D3E52
:1042C00000A8303E0018553E00B4863E00506F3EB8
:1042D0000090023E0070E03D00C8043E0000343D06
:1042E0000070B6BD00E0FCBD0080D9BD00C026BE98
:1042F00000E043BE00F029BE00001ABE00580CBE0C
:1043000000E081BD0080193D00000F3D0040B93C38
:1043100000D0B03D0048283E00A0EE3D00803F3D6B
:1043200000003C3D0000AD3C006040BD00B0C1BDA0
:104330000030DEBD001014BE00082DBE0070F8BDB8
:1043400000E0AEBD005097BD008028BD00E0783D84
:104350000058093E0048293E00B8603E0044873EB0
:104360000038583E0080F73D0038083E00C8053E42
:104370000080D33C0080BDBD00D0DCBD0070D6BD48
:10438000009833BE007847BE00282BBE004023BEF5
:10439000000810BE00206BBD0000FE3C0000703C19
:1043A0000000BD3C00D0C93D0030243E00A0D33DFC
:1043B00000803E3D00405E3D0080C13C00A031BD1C
:1043C0000060BBBD0090C3BD00F80DBE00D01BBE99
:1043D00000F0E3BD0050A8BD00A0ACBD000030BDA2
:1043E00000807A3D0008023E00B8113E0080483E41
:1043F00000B0853E0058633E0010E63D0080E43D7D
:1044000000F8033E00C02F3D0000A7BD0020DDBD29
:104410000030D8BD00F82FBE004040BE009028BE3E
:10442000008827BE00581CBE00808CBD0000B53C33
:1044300000807B3C00009C3B00F0A13D0000193E49
:104440000070DA3D00C0523D0000653D0040C03CB8
:1044500000A017BD00508BBD0010A0BD006806BEB7
:10446000002016BE0080C6BD00F090BD00B0A0BD0B
:10447000006062BD00C0473D00D0E93D0088063EB7
:104480000078333E00E0753E00A86B3E0040E13D01
:104490000070C23D0008013E00E06A3D00007FBDA3
:1044A00000E0E0BD00B0CFBD001019BE008836BEF0
:1044B000003023BE00081FBE001819BE0070A6BD44
:1044C0000000253C00C0903C0000E9BB00404A3D94
:1044D0000050F43D0080BF3D00601C3D00C0EA3C40
:1044E00000009F3B004046BD00E0A4BD00A0BBBD56
:1044F00000E0F9BD006817BE0030D8BD008069BD7E
:1045000000607DBD000047BD00A02D3D0040E63DA0
:1045100000580D3E00C0363E00F87B3E00D07F3E86
:1045200000F80B3E0000B63D0070FA3D00B09C3D27
:1045300000E017BD00E0CDBD00F0D4BD004005BED9
:1045400000302EBE00381BBE00B816BE001013BED1
:104550000010C0BD0000AB3B0000173D0000043C54
:104560000020143D0080E43D0040F43D00E06D3D3E
:1045700000E0093D0040833C00E00BBD0080ACBD85
:104580000060D4BD0060FDBD000029BE000009BE72
:104590000050ABBD005095BD00D098BD0000063C5A
:1045A0000000B83D0040053E00F8203E0068663E31
:1045B00000FC893E00F0633E00C0FC3D0000C13DB0
:1045C0000060D53D00E0043D001080BD00B0EEBDB0
:1045D000003008BE008828BE00A02CBE000821BE06
:1045E00000381DBE00F005BE006053BD0000F23C67
:1045F0000040293D00A0173D00B09E3D0030043E24
:1046000000F0EA3D0020923D0060043D00006EBCD9
:1046100000C07FBD0000BCBD0010F8BD000023BE7F
:1046200000502EBE004007BE00A0C8BD00A0AEBD19
:1046300000E053BD0000D33C0020C13D00E8133E24
:1046400000B83C3E00507A3E00A0863E00E0713E3D
:1046500000F80B3E00C0B13D00F0C53D00600C3DD0
:1046600000807FBD00E00BBE00C814BE009028BED5
:1046700000E034BE00F026BE007818BE0020E7BD82
:1046800000605BBD0040FB3C0020753D00E0483D04
:1046900000C09F3D00380A3E00880A3E00308F3D32
:1046A00000C0D73C000062BC00A04BBD00A0C6BD4E
:1046B00000F009BE001023BE00182FBE009817BEE0
:1046C00000E0D1BD0020A5BD00206EBD000040B9B6
:1046D0000040B23D0020123E0088303E00285B3E84
:1046E00000CC853E003C863E0020203E00D0923D1E
:1046F0000060963D00804A3D00E01FBD002009BEDD
:1047000000702ABE00502CBE004839BE00B824BE3E
:1047100000E812BE003003BE0070A7BD00C0B13C6F
:104720000050973D0080733D00C0953D00F8023E6B
:104730000088143E00F0CB3D00A02B3D0000A73BBD
:10474000008007BD0090AFBD0050EFBD005816BE01
:10475000007834BE00701BBE00E0CDBD00009EBDE1
:10476000000094BD000015BC00D09A3D00C8033E77
:104770000050213E0058463E00D87D3E0078873EDE
:1047800000806A3E00E0CF3D00201F3D00C0553D47
:1047900000808D3C00B0B6BD00283BBE00E033BEBB
:1047A000004022BE009029BE00C81EBE00D00DBE33
:1047B00000B0BCBD006018BD00804A3D00A0A63D11
:1047C0000000853D0090A53D0018003E0050F33DDF
:1047D0000020663D0000DD3B0000E3BC00508DBDC5
:1047E0000050F3BD006816BE00001ABE00D820BEFF
:1047F00000280DBE00B0BABD000068BD00800BBD32
:104800000000703C0070AD3D00E0063E0010273E09
:104810000008473E0090743E0048743E00503D3E04
:104820000030883D0080F83C0040153D00C0F4BCDD
:1048300000D0E9BD00982FBE00701BBE006828BEE6
:10484000007022BE0070FABD0010D5BD003091BDD1
:10485000000041BC00909E3D0000B43D00F08B3D47
:104860000000B63D0060F93D0080CE3D0080683D0F
:104870000040B23C00800ABD0060B4BD0030EBBD1A
:104880000060F3BD006013BE00B01EBE00A0F9BD05
:1048900000E084BD00602BBD00C006BD0040993C17
:1048A00000709A3D00F0F43D0078193E0068373EF4
:1048B0000030513E00E85D3E0020603E00E0CD3D0E
:1048C000000013BC0000983B00808F3C00A039BD65
:1048D00000B027BE00F036BE00C80EBE00280FBED6
:1048E00000B0EDBD00E0CABD0010ACBD00406CBD25
:1048F00000402C3D00D0DC3D00208D3D0000263DD9
:104900000070B13D0020073E0010AC3D00007D3C32
:104910000000BDBC004078BD00F0CCBD0020EEBD65
:104920000010F3BD001015BE009808BE00E09FBD4A
:1049300000402DBD00A050BD0080B2BC0020353D20
:104940000000A73D0070D83D00A00D3E0050323E53
:104950000040423E00B8423E0020423E00007B3D07
:104960000080EABC0040843C0080CB3C00B089BDA4
:10497000003032BE00E81DBE00C0E4BD002003BE12
:1049800000F0EEBD0010C6BD003095BD00E057BD83
:1049900000803F3D0080D33D00B08B3D0040383D5E
:1049A0000000E33D00E80D3E0090A43D0080C93CBE
:1049B0000000DBBB008020BD0060B2BD0090C2BD26
:1049C00000A0CABD000006BE003005BE00D094BDE8
:1049D000004051BD00408EBD006031BD0040E53C4F
:1049E00000208E3D00A0AC3D00A0F93D00081A3E1D
:1049F0000058273E0028383E00F85C3E00F0DF3DBE
:104A00000040EDBC0000DFBB00E0313D00007FBC9A
:104A1000008821BE00F82DBE00E0F3BD00700EBE80
:104A2000009804BE00C0CCBD0020B2BD0050A6BDA1
:104A300000807B3C0040F43D0080BD3D00601F3D98
:104A40000060BB3D0090283E0080F53D0040243DC5
:104A50000000133C00801ABC00007BBD00F0C1BD0B
:104A600000D0BCBD00B811BE003023BE0020E8BDA0
:104A7000002081BD0080B4BD00A0B9BD00001ABCFB
:104A80000000523D00C07A3D0070983D00F0FD3DB1
:104A900000281A3E00F82F3E0098523E0068513E12
:104AA00000E06A3D002036BD0080033D00403F3DF0
:104AB00000806BBD008833BE003826BE0060F0BDAC
:104AC000007011BE00E0E2BD00F0B6BD00C09FBDA9
:104AD00000A04FBD00D08B3D00900E3E00D0AD3DFC
:104AE00000807E3D0048083E00282D3E0070D63DE7
:104AF0000040333D0040DE3C0080B4BC00E0B9BD66
:104B00000000E9BD0020DBBD00181ABE00082EBE63
:104B100000D0FDBD0010CDBD00A0D7BD000098BDE8
:104B2000000087BB00809E3C00C0F93C0090AF3D78
:104B300000800D3E00C80E3E00A8163E00484A3ECA
:104B400000F0643E0010F33D00E000BD0000C5BB76
:104B500000802C3D00804CBC00D801BE002023BE4C
:104B60000080F3BD009011BE0080BBBD00006CBD95
:104B700000A094BD002090BD0080EA3C00A8103E3B
:104B800000C0E83D0080833D0020C93D00281A3E5A
:104B900000B0E93D00606E3D0060313D00C093BC57
:104BA0000040C5BD0090C7BD0000C1BD00D822BEF9
:104BB000008851BE008828BE00C0E4BD0020EABDC8
:104BC00000F0DBBD00603DBD000040BB0000563B77
:104BD00000E02E3D0080E13D00F80D3E0008013E62
:104BE0000098263E00805A3E0078633E00A0E43DD7
:104BF000000034BC0000633C00C02F3D00000000FA
:104C000000A0DBBD000016BE009002BE00A00BBEDF
:104C100000C0A1BD004077BD00B089BD00607DBD72
:104C20000040A33C0070FE3D0070F23D00A0A13D9D
:104C30000060C83D00600E3E00E0093E0040B43D0B
:104C400000602F3D006039BD0020E1BD00E0DBBD0C
:104C50000090EFBD00403FBE00D067BE00D047BE11
:104C6000002012BE002002BE0050C9BD009082BDCF
:104C7000008094BC0040B73C0020943D0060F53DAE
:104C800000900E3E0040223E0088403E00F0603E14
:104C900000F06F3E00804C3E0000133D00001EBD42
:104CA0000080C43C00009E3C00409DBD00D034BE4E
:104CB00000401FBE00B00CBE0030F3BD00C099BD67
:104CC00000A053BD000069BD0000C2BC00B0C93DDA
:104CD0000000273E0060CE3D0080773D0060DF3D54
:104CE0000048093E0080C13D00001D3D008094BC8D
:104CF00000F0CCBD001019BE00E008BE00B815BE23
:104D0000003061BE00407DBE00082FBE00B0C5BDB2
:104D10000040AEBD00F081BD000013BC00C0BD3C32
:104D20000010843D00A0EA3D00381B3E0050153EB7
:104D30000038193E00903B3E00E8573E00785E3E4A
:104D40000068363E0040A73C00F098BD008003BCE0
:104D500000C09F3C00C067BD00902EBE005825BE1D
:104D600000A0DDBD0020C7BD009080BD004038BD63
:104D700000A03ABD00C006BD00C06F3D0028103E37
:104D800000E0BD3D00A0263D00E09D3D0000D83D77
:104D90000050933D0000C93B008006BD00A0AABDA5
:104DA00000581CBE00800BBE0080FBBD00F038BE6A
:104DB00000885DBE008816BE00B080BD008083BD47
:104DC00000C05DBD000062BB00C0243D0000623D2C
:104DD0000060B73D0080023E00B0ED3D0050F63D62
:104DE00000E8203E00803A3E00802D3E00081E3E36
:104DF0000040233E00C0833C003093BD00802CBCAB
:104E000000800D3C006087BD00C025BE00D008BEFC
:104E10000070DEBD00B008BE00F0BABD00A044BD09
:104E2000004030BD002067BD0060103D0030033EF3
:104E300000D0BF3D0080473D00E0913D0080B03D87
:104E40000000693D0040A93C0000DA3B004073BD12
:104E500000500EBE0020FDBD00F0C1BD005808BED0
:104E600000703FBE00081CBE00A09FBD00805CBD5E
:104E70000040EDBC0000903B00C0BF3C00A0273DBF
:104E80000000AE3D0010FE3D00A0CC3D00209F3D47
:104E90000070E73D0098173E00E0093E0060EE3DDF
:104EA00000D8043E0000CB3D00601FBD00E08CBD7B
:104EB00000007CBB000047BC0060D5BD00E00CBE1C
:104EC0000040BFBD00F0F2BD00E0DCBD000034BD1D
:104ED000000024BC00C04EBD00E027BD00908F3D07
:104EE0000070F23D0080853D0000353D0020BD3D55
:104EF00000C0993D00400F3D0020233D00C0BD3C57
:104F0000002071BD0000F8BD0070C9BD00C0AEBD7D
:104F100000B0FDBD00E014BE0080EABD00B0A0BD41
:104F200000608EBD00C092BC0080673C0000B03BBA
:104F30000080013C0020393D00F0A53D00406C3D63
:104F40000080423D00108E3D0000AE3D00D0C33DCC
:104F50000000CE3D00B8073E0080FB3D00603A3DBA
:104F600000A039BD000080BC0080063D0000BABB37
:104F70000030A0BD00C0E6BD0010B9BD00F0D4BD3A
:104F800000508FBD006022BD00C05CBD009087BD99
:104F90000000C7BB0000A53D0010D33D00B08F3D11
:104FA0000080A83D0020D23D0060AE3D0020963D2F
:104FB0000080743D0000403C00908DBD0010D1BDCC
:104FC00000F0BFBD00B0EDBD003010BE00D018BE77
:104FD00000880ABE0080DFBD00509CBD00E00FBD10
:104FE00000C0A0BC0000FFBB0000E83C00208B3DDF
:104FF00000A0A13D00E07D3D0050883D0020903D97
:1050000000709C3D0080B03D00B0B83D0090B33DC5
:105010000040C33D0080F33D00405D3D00A02ABD3F
:1050200000009CBC0000613C000004BB00B093BDCC
:1050300000C0BBBD009095BD00A0DFBD00D08FBDFE
:105040000000A5BB0080213C0080FFBC000006BC26
:105050000080C13D0000EE3D00908B3D00C0813DD1
:1050600000209A3D00204C3D00408A3C00C0E43CBA
:10507000000056BB00C0D1BD008003BE0080C4BD8F
:105080000040D0BD00F80CBE00800EBE0000D8BDB0
:105090000080C3BD00D083BD0000223B0040DE3C49
:1050A00000008B3B0000E13B00605F3D00A0853DC0
:1050B00000201C3D0060043D00400E3D00400A3DC4
:1050C00000A0393D00B09A3D0070C93D00A0CE3D22
:1050D0000080003E00F80E3E00E0363D0000CABCF5
:1050E0000080B33C0020183D000065BC00409FBD1F
:1050F0000070A6BD00F0B8BD0030E4BD00D083BD97
:105100000040F2BC00001EBD006053BD00809C3C0E
:105110000080B93D0050913D00C0333D00C0933D3B
:105120000020983D00604D3D00C01C3D0020203D0A
:1051300000008DBB0080A6BD00B0B8BD000096BDCC
:1051400000F0DABD00480EBE00E0FEBD0040CCBD60
:1051500000B0CDBD002092BD000026BC0000603A2A
:105160000000E5BB00008E3C0040603D00C0493DB2
:105170000040D73C00A0483D0080473D0000E33C94
:105180000080F13C0080993D0080B03D00C07F3D33
:1051900000D0AD3D00A0EA3D0080B53D000089BCD7
:1051A0000040B1BC00C0ED3C0000603A00A045BD2D
:1051B000004096BD002090BD00E0E8BD00F0D0BDED
:1051C00000009CBC0000A4BA0000D3BC00C0B1BC6D
:1051D0000020503D00C0C63D00A0863D0090933D9C
:1051E0000080AA3D00E06E3D00A0083D0040FA3C72
:1051F0000080B43C00A044BD0030B9BD00809BBD20
:105200000070B6BD0080F7BD00700DBE0060C5BD6A
:105210000020B4BD00B0CDBD002075BD000080BC35
:10522000000052BB000017BC00808F3C00E00F3D27
:1052300000806C3C00C08C3C0080EF3C0000703C67
:10524000000090BB0080303C0060723D0010843D47
:105250000080943D0010D13D0030FE3D0068093EC5
:1052600000F0BD3D0080A63C0000083B0000463B2E
:1052700000801B3C0000ADBC00108ABD0090ABBD9F
:105280000060D9BD00C08CBD00C0D5BC00008DBB86
:105290000000343B0000A13B00E0473D00C09D3DC5
:1052A0000080AA3D00F09E3D0020923D0080433DDD
:1052B00000008D3B00808FBC00C0B8BC008077BD73
:1052C0000020E8BD009811BE00D017BE00180CBE2B
:1052D000003007BE00D0D8BD0060B2BD00B09CBD9C
:1052E00000001EBD00006D3C00805A3D00A0533DF3
:1052F00000E0413D0000873D0010803D00E0453D5D
:1053000000E0173D0080B33C0000D4BB0040FCBC73
:10531000008048BC0080653C0080883C0080BB3C2D
:1053200000C0513D00D0AD3D0050E03D0030BE3DDD
:105330000020183D0020113D0080653D00F0833DB8
:105340000000253D0000383B0080BABC00D092BD73
:1053500000A08ABD00E00BBD0040F3BC00A071BD01
:1053600000E0A6BD00003BBD000024BC00803DBCA9
:105370000000383A00803F3C000012BB0000A3BB95
:105380000000083C00C0D63C000052BB00008EBCB0
:10539000000016BC0000ACBC006002BD00E008BD0F
:1053A000000096BC0040C7BC004022BD0080EEBC9F
:1053B00000806ABC00805BBC0040AFBC0080CABCFF
:1053C0000080F0BC004051BD002049BD004030BD10
:1053D00000400ABD002011BD002005BD000047BCF3
:1053E0000080383C00404B3D00A0AC3D00F0F83D53
:1053F0000038093E0050103E0030253E00081A3E9D
:105400000030973D0080883C0000353C008002BCA5
:10541000002049BD00A0B3BD00B0D0BD00D008BE83
:10542000006012BE00D0BCBD00401DBD00C0A8BCC5
:10543000000052BC00E01B3D00E0AA3D00A0C43DBE
:105440000040E13D0010043E0040C83D0060443D86
:1054500000C0BD3C0000953C000041BC000074BD94
:105460000050A9BD0070D3BD00700DBE006806BE1F
:1054700000C0CEBD00A0C6BD00B0DFBD0030B9BDCC
:1054800000C00ABD00801FBC0000B4BA0080903C80
:105490000000AC3C00000A3C000000000080D93C49
:1054A0000040D43C000052BC0000FFBC0040DDBC0A
:1054B0000080A4BC004089BC0080393C0060583D9D
:1054C0000050883D0020A53D00A0F93D00F0253E9C
:1054D00000582B3E00800B3E0030BE3D00D0963D74
:1054E00000E0623D00C0283D00C0A03C0080DABC66
:1054F000001084BD0060CCBD0080C8BD00309EBDE2
:1055000000A079BD00805ABD00806BBD00C01ABDEF
:105510000000CCBB0080813C00A02E3D00E02E3D71
:105520000020063D0080AD3C0080813C00804B3C6B
:10553000004084BC00000EBD004074BD00E09DBD75
:1055400000A0BBBD0050ADBD00F090BD00809FBD70
:10555000004096BD00A05ABD00C0F9BC004085BC0B
:105560000000143C0080CC3C0000E23C0000BC3C4D
:1055700000A0053D00E0233D00001A3D00A0093DCC
:105580000080AC3C00800D3C0000D4BA00802F3C71
:105590000000DA3C0040033D0000523D0070823DB7
:1055A00000A0B53D00E0CD3D0030F63D0080FD3D62
:1055B0000040963D0020013D00C0843C0080303C0E
:1055C0000080B3BC00A057BD00E06EBD0020B8BD98
:1055D0000020FDBD0080F5BD00509ABD004040BDDB
:1055E000004042BD0000BCBC000080380080473C49
:1055F0000000D13C0050883D00E0A63D0080553DB4
:105600000080EF3C0000CA3C0000863C000008BC63
:105610000000B5BC006032BD00B094BD0000C9BD43
:1056200000F09EBD006062BD002067BD002060BD2F
:1056300000E000BD000040BC000034BB0000F23BB5
:1056400000808F3C0000523C0000653C0040933CD1
:105650000000E73B00C09BBC00C0CDBC000046BCC6
:1056600000009CBC008029BD00E02ABD000086BC73
:1056700000004F3C0000373D00C08A3D00E0A63DE1
:105680000020CE3D00A0F93D00A01A3E00C8223EF9
:105690000040F53D00C07E3D00C0C73C0080653C39
:1056A0000000BCBB00009DBC006032BD0000AEBD70
:1056B0000020F9BD00D0EEBD00909ABD00603ABD5B
:1056C00000A022BD00802CBD004028BD0080BDBCD4
:1056D0000000B83B0040253D00C0333D0080963CB3
:1056E0000000D83A0000683B0000AD3B00004FBC12
:1056F00000C099BC0040E3BC004025BD00A06EBDC9
:1057000000A054BD0040F4BC0040D0BC0080C3BC2D
:1057100000C0C5BC000064BC000029BC00007CBB0C
:105720000000163C0000F63B000040BB008059BC66
:105730000000B6BB000040B900001EBB0000F4BB77
:10574000000009BC00801DBC0000A7BB00008F3C0E
:1057500000401D3D0080593D00508D3D0070AF3D23
:105760000030C63D00E0C83D00C0D93D00D0E53D59
:1057700000F0E33D00C08C3D0000A13B00C0BFBC79
:1057800000A00CBD00203DBD00808EBD0000BCBD52
:105790000030E6BD00C007BE008001BE00B0BCBD49
:1057A00000005ABD0000F2BC0000A5BB00C0BF3C19
:1057B0000000223D00005E3D00309C3D0080CC3D5D
:1057C00000E0AF3D0040593D00800E3D0080673C49
:1057D0000000303B00800CBC00C083BC000037BD23
:1057E0000090ADBD0030B1BD004092BD00608EBDE7
:1057F00000808ABD00205CBD00C003BD0080F7BCF6
:10580000008074BC0080AE3C00E0183D0080EA3CA3
:105810000000B53C0000C93C0080753C0000813BA5
:105820000000263B008002BC00C0EBBC00A02DBDE8
:105830000080E0BC000044BC000090BB00C0BF3C46
:1058400000801D3D0020533D00C07F3D0020AE3D47
:105850000050E03D0070F23D0020DF3D00E0903D53
:105860000080243D00809F3C000080380000B6BCD2
:10587000000047BD00F09EBD0040E3BD0090F8BDB4
:105880000010E0BD0010ACBD009087BD00A057BD6A
:1058900000E00BBD0000D4BC000083BB0000F83C5E
:1058A00000B08D3D00C0A43D00C0923D00A0833DEE
:1058B00000C0593D0020543D0020353D0080F63C9D
:1058C0000000AE3B002008BD006049BD00C068BDBF
:1058D00000A078BD00A088BD001084BD008060BD20
:1058E00000604CBD0080E7BC000025BC0000283AE9
:1058F00000008F3B0000623B00804C3C0080693C14
:105900000080863C00801F3C000080390000C5BB41
:10591000000073BC00C0B7BC0000C3BC0040A1BC09
:10592000000031BC000000B90080593C00C0EA3CD6
:1059300000C0163D00E04F3D00409A3D00E0AF3D05
:1059400000808E3D0020183D00C0AE3C00800B3C26
:10595000000024BC0000B3BC00E00BBD006018BD1B
:1059600000804EBD00804ABD00A031BD004012BD88
:1059700000C08BBC0000EA3B00E0003D00C0C73C1B
:105980000040A73C00A0053D0040603D0030843D44
:1059900000E0453D00C0F33C0080493C0000C3BB33
:1059A000000033BC000089BC0080E0BC004046BD64
:1059B000004092BD006096BD004090BD00E084BDF7
:1059C000004085BD00206ABD00E045BD00C021BD8E
:1059D00000C0F5BC00C0EDBC0000E9BC0000D3BCB9
:1059E00000408BBC000065BC000047BC008047BC89
:1059F000008048BC00802EBC0000DABB0000463BA3
:105A00000000613C00C0CF3C0040343D0060723D6E
:105A100000F0983D00D0B43D00E0C63D00B0D63D5A
:105A20000010E03D00A0DF3D0010DA3D0060BF3D0A
:105A300000B0843D0080D13C0000DDBB00C0B8BC9C
:105A4000004024BD00204DBD000070BD00E08EBDB3
:105A50000050B3BD0080BDBD00F094BD00E050BD5E
:105A600000C0DEBC00C090BC008067BC004085BCAC
:105A7000000006BC00804E3C00C0D53C0040A83C65
:105A80000000CC3A0000E9BB000017BC00007FBC5E
:105A9000008056BC00802BBC0000E1BB000096BC1F
:105AA0000000C4BC0000CABC00009CBC008057BC05
:105AB000008078BC008074BC00803ABC0000B4BB9D
:105AC0000000E3BB008076BC00409ABC008087BC2D
:105AD000000015BC000068BB000080BB0000C7BB15
:105AE000000080BB0000B23B00409B3C0040CE3C2D
:105AF0000040D53C0040163D00203D3D00405A3D51
:105B000000205F3D0040693D0040743D00E0663D7F
:105B100000E0663D0080643D0060263D00005F3C83
:105B20000000D6BB0000E1BC006048BD002072BD93
:105B3000000073BD00806FBD00608CBD00A08CBDF7
:105B4000002072BD00A041BD0080E2BC0000ECBBA3
:105B500000C0A93C0020093D0040123D00E0263D68
:105B600000C01A3D0020363D0060483D00C01C3D8D
:105B70000000C23C00009A3B000022BB00802EBC0B
:105B800000C0A9BC00C0CEBC0040B8BC00C0A7BCCF
:105B900000C0D4BC00C00EBD00601CBD00000ABD2A
:105BA0000040B0BC008048BC0040CDBC00200CBD13
:105BB000000025BD00001DBD00A000BD0040FCBCD4
:105BC00000C0AABC000063BC0000A9BB0000743B7D
:105BD0000000A13B0080973C00C0EC3C0040403DF1
:105BE00000A06A3D0000613D0000743D00E05F3DA3
:105BF00000A0793D0020503D00E0353D00201F3DD4
:105C00000020023D00C0FB3C00C0A73C0000F03B70
:105C10000000A7BC006020BD000038BD004038BDBA
:105C200000E029BD00202FBD00202EBD00603DBD3D
:105C3000002035BD0000E9BC0000A7BB0000803C8F
:105C40000080CC3C0080EE3C00C0D63C00C0A13CB3
:105C50000040A23C00C0B83C00C0DE3C00C0E63CB6
:105C60000040993C00800C3C000068BB008078BC80
:105C70000080BDBC0080EEBC000004BD00A01CBDC7
:105C800000604FBD000078BD00E075BD008038BDEC
:105C90000080F9BC008094BC000044BC00806ABC59
:105CA000000040BC0000C7BB0000463C00C0A83C50
:105CB0000000B63C00C0893C00801C3C00800F3CCA
:105CC0000000FF3B00004F3C00801B3C0080483C34
:105CD00000806B3C00804C3C0000B63B0000783BF1
:105CE0000000563C0040943C0080D93C00C0033D7D
:105CF0000080213D00A0133D0080C33C0080943C07
:105D000000009E3B000030BB000037BC00800DBC93
:105D10000000CBBB00C082BC0080CCBC00C0F3BC88
:105D200000C0E4BC000004BD0040DFBC008048BCF3
:105D30000000A9BB008000BC000017BC0000503A66
:105D40000000D23B00800B3C00804E3C00808E3C2B
:105D50000000343C00004E3B0000DD3B0000683B8F
:105D6000000038BB0000DABB000000390000B4BB03
:105D700000C0CDBC0080FDBC00C0E6BC0080C2BC41
:105D800000C0CDBC0000D4BC00E00BBD00203DBD78
:105D9000006041BD002017BD0080F0BC0000D3BCF6
:105DA000008080BC0000F8BA0080113C0000153C67
:105DB00000005E3C0040AA3C00C0EB3C0080293D56
:105DC00000A05A3D0080553D0060083D00C0C63C23
:105DD0000040EE3C0020013D0000E73C0080BA3C62
:105DE0000000AD3C00C08C3C0000343C0000223B75
:105DF000008047BC00C0CDBC0000F2BC0080BDBC30
:105E0000008088BC00409BBC00C0A1BC00C0AEBCF0
:105E100000009FBC000047BC0000EEBB000080B843
:105E20000080013C0000863C0000533C0000DA3B4F
